{
  "address": "0x265B25e22bcd7f10a5bD6E6410F10537Cc7567e8",
  "abi": [
    {
      "inputs": [],
      "name": "ProofInvalid",
      "type": "error"
    },
    {
      "inputs": [],
      "name": "PublicInputNotInField",
      "type": "error"
    },
    {
      "inputs": [
        {
          "internalType": "uint256[8]",
          "name": "proof",
          "type": "uint256[8]"
        }
      ],
      "name": "compressProof",
      "outputs": [
        {
          "internalType": "uint256[4]",
          "name": "compressed",
          "type": "uint256[4]"
        }
      ],
      "stateMutability": "view",
      "type": "function"
    },
    {
      "inputs": [
        {
          "internalType": "uint256[4]",
          "name": "compressedProof",
          "type": "uint256[4]"
        },
        {
          "internalType": "uint256[8]",
          "name": "input",
          "type": "uint256[8]"
        }
      ],
      "name": "verifyCompressedProof",
      "outputs": [],
      "stateMutability": "view",
      "type": "function"
    },
    {
      "inputs": [
        {
          "internalType": "uint256[8]",
          "name": "proof",
          "type": "uint256[8]"
        },
        {
          "internalType": "uint256[2]",
          "name": "commit",
          "type": "uint256[2]"
        },
        {
          "internalType": "uint256[8]",
          "name": "input",
          "type": "uint256[8]"
        }
      ],
      "name": "verifyProofWithCommit",
      "outputs": [
        {
          "internalType": "bool",
          "name": "",
          "type": "bool"
        }
      ],
      "stateMutability": "view",
      "type": "function"
    },
    {
      "inputs": [
        {
          "internalType": "bytes",
          "name": "proofData",
          "type": "bytes"
        }
      ],
      "name": "verifyRaw",
      "outputs": [
        {
          "internalType": "bool",
          "name": "",
          "type": "bool"
        }
      ],
      "stateMutability": "view",
      "type": "function"
    }
  ],
  "transactionHash": "0x91c0fc4a536a5b282676b01e3598380a029f4db62ac0ccd9b093f84102ab3f26",
  "args": [],
  "numDeployments": 1,
  "solcInputHash": "52bc5fa1bda108384e630362f9ddd250",
  "bytecode": "0x6080806040523461001657611989908161001c8239f35b600080fdfe60808060405260048036101561001457600080fd5b600091823560e01c90816344f6369214610ae957508063457726e614610916578063483066711461013a5763cc73d2a31461004e57600080fd5b346101365761024036600319011261013657366023121561013657610071610ba5565b806101049236841161013257905b83821061012257505036610123121561011e5761009a610bdc565b806101449336851161011a57905b84821061010a575050366101631215610106576100c3610ba5565b9182610244943686116101025760209650905b8582106100f35750506100e993506111ee565b6040519015158152f35b813581529086019086016100d6565b8680fd5b8380fd5b81358152602091820191016100a8565b8580fd5b8280fd5b813581526020918201910161007f565b8480fd5b5080fd5b5034610136576101803660031901126101365736608411610136573661018411610136576101688135611059565b6101766024356044356110c0565b91939290610185606435611059565b939092604051967f1555f98b5d0d163fe7982050bf80cd2450005ce186491bf3def07ba651ca23ab885260208801967f1b60ec8d137846f94434d40cb8083ecfc71d5a8a215158f66980f10d11bf2a5b88527f1d08b8c1f05a4e9d9bf0ca5684700eff65ae6bf77a55fa26f2f68214520dccb960408a01527f13bcfda933763d27435a1a56d3c64f626943e7ccd9123c196a268fd7be73f71e60608a015260843560808a01526040808a016060828c0160075afa60408a60808160065afa906000805160206119348339815191526084351016167f10650ef97c5f9c1ca42c2f9b0a18bd165f96cd658145c27535547fefbde73a4060408b01527f0cdbaa8bb00aa2e285f405c87446e5084039ac2721147ff63bb4251eefc4c20d60608b015260a435908160808c015260408b606082808301920160075afa9060008051602061193483398151915260408d60808160065afa93101616167f272c2324b2227ef579619971fe4d24089adf43ff0a2725f3b3610cdcc254b23b60408b01527f0aa1f9aa8bca8d66b9965ae0530b926afd7b21635eb7c627b4f7e9b7ab6ec53060608b015260c435908160808c015260408b606082808301920160075afa9060008051602061193483398151915260408d60808160065afa93101616167f0846c0584bc79dadc4ebd00537a9a260dc2f6e5d88d24ebd7a5e860d40dec0ed60408b01527eae13589831f4438059abb28d622a718e75d27b8fd47421aecb44c083b1de4960608b015260e435908160808c015260408b606082808301920160075afa9060008051602061193483398151915260408d60808160065afa93101616167f18157bdbe53fa786ba8c0992d9f9079bc185c6d96fe536c77c598dd7f381b67160408b01527f14bf3c16f50bfaa923d165cce822345480c64de1696b8acf586c3543417361c160608b01528960016101043592836080840152600080516020611934833981519152604080808601606082880160075afa9460808160065afa9410161616167f1d242556dff22df8771c9a862cfc3c712aef8ec2bf47ee265666c15597db261660408b01527f03082beddc65c1c8a82d5df1607699c5192592359a0251d919384fb937d2f67860608b015261012435908160808c015260408b606082808301920160075afa9060008051602061193483398151915260408d60808160065afa93101616167f10bf777bb2a152ab62c23cf1e5d60a0d75867e48dacc5bd9f1020087a33077cb60408b01527f12dc2d44d6cfb31fa61fb1e332a924b05577ac44ae00c8183e9c062d731b513060608b015261014435908160808c015260408b606082808301920160075afa9060008051602061193483398151915260408d60808160065afa93101616167f0c1309c882cb34cd3c86ef8f49609d7f6d3f4de3ed4055bc1f569469482e008660408b01527f01c11fc773f201fcef3fba1f1fb3b23ee7879c947f48b5b7b446a4537b0242f760608b015261016435908160808c015260408b606082808301920160075afa9060008051602061193483398151915260408d60808160065afa931016161698519751981561090557604051998a61030081011067ffffffffffffffff6103008d0111176108f2576103008b01604052610300368c378a5260208a015260408901526060880152608087015260a086015260c085015260e08401527f0f8dd2603d04538a1419fe82c73bedeaea1071b895dced62af1e846b4ae9ed7e6101008401527f1820685db2b1a376a1d76bacb32c55120871153cfa214268edaf7f6a808cf7a36101208401527f02027b72120abce94c6a417fc48096ba54b86afe5d2f62c1ccdc52824d51946c6101408401527f1e0a7143e8034337a899f6b34d3aaeb9e5216454ab37092484e84dea3cd7148a6101608401527f077042044f4d181b1050d803ea09ee014f5318cd3b9d943ca1f5eb1e5f3c231b6101808401527f2878f477ac49b5c3afdfa55aeda1c0b5b94c05895a94a836e84dc9fb36137cc56101a08401527f24490e28cdcb73823c35202ac6bbb831b633f94b4c692016a2b4e1ed115788546101c08401527f2b89e0253dcf155624150f921bfebf237811b419e90fafcc351050cbdfeecd846101e08401527f055a778f1443eb71a0768a7db1d26aef7c0f81826d9da57961a7e6d95330be116102008401527f03391c7d3bb597a945d9f402f797dc340bda8f7d7f9bf5c47a8b6d9cb93bddcc6102208401526102408301526102608201527f0bf443655b6df54e1a1f410f18d7bd8b648762e11413c0ec1f54d31612b931286102808201527f26a494fe82b85683d81c304facf1b1667faeeb8b578b5aa24a5fe99236ba830a6102a08201527f2c644d58612eef1e5ca9cc197cf72db573cd5fb70525ad189c9109a2683ecbfd6102c08201527f141394071bd7d15bae3c2652ba12eae7791f5b7f4f7d7c4503d0105341a070d26102e0820152604051906020820182811067ffffffffffffffff8211176108df5761030060209284926040528336843760085afa159081156108d2575b506108c3575080f35b604051631ff3747d60e21b8152fd5b60019150511415386108ba565b634e487b7160e01b855260418452602485fd5b634e487b7160e01b8d5260418c5260248dfd5b60405163a54f8e2760e01b81528b90fd5b509034610ae65760209081600319360112610ae65782359267ffffffffffffffff9081851161011e573660238601121561011e5784013590811161013657366024828601011161013657610968610ba5565b6101009283368337828511610ae6576024860135825282604011610ae65760448601358583015282606011610ae6576064860135604083015260809280841161013657608487013560608401528060a0116101365760a4870135848401528060c0116101365760c487013560a08401528060e0116101365760e487013560c08401528085116101365761010487013560e0840152610a04610bdc565b936040368637816101201161011e576101248801358552816101401161011e5761014488013587860152610a36610ba5565b95368737816101601161011e5761016488013560e0870152816101801161011e576101848801358652816101901161011e576101a4880135811c87870152816101a01161011e576101b4880135811c6040870152816101c01161011e576101c48801356060870152816101d01161011e576101e4880135811c81870152816101e01161011e576101f4880135901c60a086015261020011610ae657506102046100e99495013560c08401526111ee565b80fd5b828434610ae657610100366003190112610ae6573661010411610ae6576080830183811067ffffffffffffffff821117610b9257604052916080368237610b336024358335610bfc565b8152610b4960843560a435604435606435610d4d565b9190602092838301526040820152610b6560e43560c435610bfc565b60608201526040519390845b848310610b7d57608086f35b83806001928451815201920192019190610b71565b506041602492634e487b7160e01b835252fd5b60405190610100820182811067ffffffffffffffff821117610bc657604052565b634e487b7160e01b600052604160045260246000fd5b604051906040820182811067ffffffffffffffff821117610bc657604052565b907f30644e72e131a029b85045b68181585d97816a916871ca8d3c208c16d87cfd47808310801590610c92575b610c7057821580610c8a575b610c8257610c4c8160038186818180090908610c9c565b828103610c5c5750505060011b90565b81900681030603610c7057600190811b1790565b604051631ff3747d60e21b8152600490fd5b505050600090565b508115610c35565b5080821015610c29565b90610ca682610cd2565b917f30644e72e131a029b85045b68181585d97816a916871ca8d3c208c16d87cfd4783800903610c7057565b9060405191602083526020808401526020604084015260608301527f0c19139cb84c680a6e14116da060561765e05aa45a1c72a34f082305b61f3f5260808301527f30644e72e131a029b85045b68181585d97816a916871ca8d3c208c16d87cfd4760a083015260208260c08160055afa91519115610c7057565b909293917f30644e72e131a029b85045b68181585d97816a916871ca8d3c208c16d87cfd4794858310801590610f2f575b8015610f25575b8015610f1b575b610c70578082868517171715610f0f5785610e8081808080808981808e9f8f9e9f7f30644e72e131a029b85045b68181585d97816a916871ca8d3c208c16d87cfd448280928709099e8f0981848181800909087f2b149d40ceb8aaae81be18991be06ac3b5b4c5e559dbefa33267e6dc24a138e5089b09818d8181800909087f2fcd3ac2a640a154eb23960892a85a68f031ca0c8344b23a577dcf1052b9e775080681030695827f183227397098d014dc2822db40c0ac2ecbc0b548b438e5469e10460b6c3e7ea481610e6781808c80098187800908610c9c565b84080983610e7482610cd2565b80091415968791610f39565b939080821480610f06575b15610eb857505050505090600090600014610eb0575060ff60025b169060021b179190565b60ff90610ea6565b82809106810306149283610ef5575b505050600014610c705760019160009015610eed575060ff60025b169060021b17179190565b60ff90610ee2565b819293500681030614388080610ec7565b50848414610e8b565b50600094508493505050565b5085811015610d8c565b5085821015610d85565b5085851015610d7e565b91610fa97f183227397098d014dc2822db40c0ac2ecbc0b548b438e5469e10460b6c3e7ea4919492947f30644e72e131a029b85045b68181585d97816a916871ca8d3c208c16d87cfd479283809281610f9a81808c8009818c800908610c9c565b9161104d575b50870809610c9c565b9381600286096040519060208252602080830152602060408301528060608301527f30644e72e131a029b85045b68181585d97816a916871ca8d3c208c16d87cfd4560808301528360a083015260208260c08160055afa91519115610c705783826001920903610c7057829082099382808080888009068103068188800908149182159261103a575b5050610c7057565b8091925084860960020914153880611032565b80910681030681610fa0565b80156110b7578060011c917f30644e72e131a029b85045b68181585d97816a916871ca8d3c208c16d87cfd4780841015610c70576001806110a38360038189818180090908610c9c565b9416146110ad5750565b8091920681030690565b50600090600090565b9190918015806111e6575b6111d9578060021c9280927f30644e72e131a029b85045b68181585d97816a916871ca8d3c208c16d87cfd47918286108015906111cf575b610c70578584848080858180808080600280827f30644e72e131a029b85045b68181585d97816a916871ca8d3c208c16d87cfd446111a69f8f90839109099b16149a8a0981868181800909087f2fcd3ac2a640a154eb23960892a85a68f031ca0c8344b23a577dcf1052b9e77508068103069409818b8181800909087f2b149d40ceb8aaae81be18991be06ac3b5b4c5e559dbefa33267e6dc24a138e508610f39565b90928193600180829716146111ba57505050565b81900681038190069450908190068103069150565b5082811015611103565b5060009150819081908190565b5082156110cb565b91906020604051927f1555f98b5d0d163fe7982050bf80cd2450005ce186491bf3def07ba651ca23ab84527f1b60ec8d137846f94434d40cb8083ecfc71d5a8a215158f66980f10d11bf2a5b828501527f1d08b8c1f05a4e9d9bf0ca5684700eff65ae6bf77a55fa26f2f68214520dccb960408501527f13bcfda933763d27435a1a56d3c64f626943e7ccd9123c196a268fd7be73f71e606085015260e081518060808701526040808701606082890160075afa60008051602061193483398151915260408860808160065afa921016167f10650ef97c5f9c1ca42c2f9b0a18bd165f96cd658145c27535547fefbde73a4060408701527f0cdbaa8bb00aa2e285f405c87446e5084039ac2721147ff63bb4251eefc4c20d6060870152838301519081608088015260408088016060828a0160075afa9060008051602061193483398151915260408960808160065afa93101616167f272c2324b2227ef579619971fe4d24089adf43ff0a2725f3b3610cdcc254b23b60408701527f0aa1f9aa8bca8d66b9965ae0530b926afd7b21635eb7c627b4f7e9b7ab6ec530606087015260408301519081608088015260408088016060828a0160075afa9060008051602061193483398151915260408960808160065afa93101616167f0846c0584bc79dadc4ebd00537a9a260dc2f6e5d88d24ebd7a5e860d40dec0ed60408701527eae13589831f4438059abb28d622a718e75d27b8fd47421aecb44c083b1de49606087015260608301519081608088015260408088016060828a0160075afa9060008051602061193483398151915260408960808160065afa93101616167f18157bdbe53fa786ba8c0992d9f9079bc185c6d96fe536c77c598dd7f381b67160408701527f14bf3c16f50bfaa923d165cce822345480c64de1696b8acf586c3543417361c16060870152608083015190816080880152600160408089016060828b0160075afa9160008051602061193483398151915260408a60808160065afa9410161616167f1d242556dff22df8771c9a862cfc3c712aef8ec2bf47ee265666c15597db261660408701527f03082beddc65c1c8a82d5df1607699c5192592359a0251d919384fb937d2f678606087015260a08301519081608088015260408088016060828a0160075afa9060008051602061193483398151915260408960808160065afa93101616167f10bf777bb2a152ab62c23cf1e5d60a0d75867e48dacc5bd9f1020087a33077cb60408701527f12dc2d44d6cfb31fa61fb1e332a924b05577ac44ae00c8183e9c062d731b5130606087015260c08301519081608088015260408088016060828a0160075afa9060008051602061193483398151915260408960808160065afa9310161616917f0c1309c882cb34cd3c86ef8f49609d7f6d3f4de3ed4055bc1f569469482e008660408701527f01c11fc773f201fcef3fba1f1fb3b23ee7879c947f48b5b7b446a4537b0242f760608701520151908160808601526040808601606082880160075afa9060008051602061193483398151915260408760808160065afa931016161691805160408501520151606083015260408260808160065afa1690602081519101519115611921578251926020810151906040810151606082015160808301519060a08401519260e060c086015195015195604051998a5260208a015260408901526060880152608087015260a086015260c085015260e08401527f0f8dd2603d04538a1419fe82c73bedeaea1071b895dced62af1e846b4ae9ed7e6101008401527f1820685db2b1a376a1d76bacb32c55120871153cfa214268edaf7f6a808cf7a36101208401527f02027b72120abce94c6a417fc48096ba54b86afe5d2f62c1ccdc52824d51946c6101408401527f1e0a7143e8034337a899f6b34d3aaeb9e5216454ab37092484e84dea3cd7148a6101608401527f077042044f4d181b1050d803ea09ee014f5318cd3b9d943ca1f5eb1e5f3c231b6101808401527f2878f477ac49b5c3afdfa55aeda1c0b5b94c05895a94a836e84dc9fb36137cc56101a08401527f24490e28cdcb73823c35202ac6bbb831b633f94b4c692016a2b4e1ed115788546101c08401527f2b89e0253dcf155624150f921bfebf237811b419e90fafcc351050cbdfeecd846101e08401527f055a778f1443eb71a0768a7db1d26aef7c0f81826d9da57961a7e6d95330be116102008401527f03391c7d3bb597a945d9f402f797dc340bda8f7d7f9bf5c47a8b6d9cb93bddcc6102208401526102408301526102608201527f0bf443655b6df54e1a1f410f18d7bd8b648762e11413c0ec1f54d31612b931286102808201527f26a494fe82b85683d81c304facf1b1667faeeb8b578b5aa24a5fe99236ba830a6102a08201527f2c644d58612eef1e5ca9cc197cf72db573cd5fb70525ad189c9109a2683ecbfd6102c08201527f141394071bd7d15bae3c2652ba12eae7791f5b7f4f7d7c4503d0105341a070d26102e08201526020816103008160085afa9051168015610c705790565b60405163a54f8e2760e01b8152600490fdfe30644e72e131a029b85045b68181585d2833e84879b9709143e1f593f0000001a26469706673582212206dce12145a65e07fa8a3c8dfe841d8459bc5444f1361ce7a3585d249e062cdbb64736f6c63430008140033",
  "devdoc": {
    "author": "Remco Bloemen",
    "errors": {
      "ProofInvalid()": [
        {
          "details": "This can mean that provided Groth16 proof points are not on their curves, that pairing equation fails, or that the proof is not for the provided public input."
        }
      ],
      "PublicInputNotInField()": [
        {
          "details": "Public input elements are not automatically reduced, as this is can be a dangerous source of bugs."
        }
      ]
    },
    "kind": "dev",
    "methods": {
      "compressProof(uint256[8])": {
        "params": {
          "proof": "The uncompressed Groth16 proof. Elements are in the same order as for verifyProof. I.e. Groth16 points (A, B, C) encoded as in EIP-197."
        },
        "returns": {
          "compressed": "The compressed proof. Elements are in the same order as for verifyCompressedProof. I.e. points (A, B, C) in compressed format."
        }
      },
      "verifyCompressedProof(uint256[4],uint256[8])": {
        "params": {
          "compressedProof": "the points (A, B, C) in compressed format matching the output of compressProof.",
          "input": "the public input field elements in the scalar field Fr. Elements must be reduced."
        }
      },
      "verifyProofWithCommit(uint256[8],uint256[2],uint256[8])": {
        "params": {
          "input": "the public input field elements in the scalar field Fr. Elements must be reduced.",
          "proof": "the points (A, B, C) in EIP-197 format matching the output of compressProof."
        }
      }
    },
    "title": "Groth16 verifier template.",
    "version": 1
  },
  "userdoc": {
    "errors": {
      "ProofInvalid()": [
        {
          "notice": "The proof is invalid."
        }
      ],
      "PublicInputNotInField()": [
        {
          "notice": "Some of the provided public input values are larger than the field modulus."
        }
      ]
    },
    "kind": "user",
    "methods": {
      "compressProof(uint256[8])": {
        "notice": "Compress a proof.Will revert with InvalidProof if the curve points are invalid, but does not verify the proof itself."
      },
      "verifyCompressedProof(uint256[4],uint256[8])": {
        "notice": "Verify a Groth16 proof with compressed points.Reverts with InvalidProof if the proof is invalid or with PublicInputNotInField the public input is not reduced.There is no return value. If the function does not revert, the proof was successfully verified."
      },
      "verifyProofWithCommit(uint256[8],uint256[2],uint256[8])": {
        "notice": "Verify an uncompressed Groth16 proof.Reverts with InvalidProof if the proof is invalid or with PublicInputNotInField the public input is not reduced.There is no return value. If the function does not revert, the proof was successfully verified."
      }
    },
    "notice": "Supports verifying Groth16 proofs. Proofs can be in uncompressed (256 bytes) and compressed (128 bytes) format. A view function is provided to compress proofs.See <https://2.com/23/bn254-compression> for further explanation.",
    "version": 1
  },
  "storageLayout": {
    "storage": [],
    "types": null
  }
}