{
  "address": "0x6aB4CE36260F201e4E2391Eca2FD7538f71e4131",
  "abi": [
    {
      "inputs": [
        {
          "internalType": "contract ISMT",
          "name": "_smtContract",
          "type": "address"
        }
      ],
      "stateMutability": "nonpayable",
      "type": "constructor"
    },
    {
      "anonymous": false,
      "inputs": [
        {
          "indexed": false,
          "internalType": "uint64[]",
          "name": "chainIds",
          "type": "uint64[]"
        },
        {
          "indexed": false,
          "internalType": "contract IZkpVerifier[]",
          "name": "newAddresses",
          "type": "address[]"
        }
      ],
      "name": "AggProofVerifierAddressesUpdated",
      "type": "event"
    },
    {
      "anonymous": false,
      "inputs": [
        {
          "indexed": false,
          "internalType": "bytes32",
          "name": "aggVkHash",
          "type": "bytes32"
        }
      ],
      "name": "AggVkHashUpdated",
      "type": "event"
    },
    {
      "anonymous": false,
      "inputs": [
        {
          "indexed": false,
          "internalType": "bytes32",
          "name": "circuitDigest",
          "type": "bytes32"
        }
      ],
      "name": "CircuitDigestDisabled",
      "type": "event"
    },
    {
      "anonymous": false,
      "inputs": [
        {
          "indexed": false,
          "internalType": "bytes32",
          "name": "circuitDigest",
          "type": "bytes32"
        }
      ],
      "name": "CircuitDigestEnabled",
      "type": "event"
    },
    {
      "anonymous": false,
      "inputs": [
        {
          "indexed": false,
          "internalType": "uint64[]",
          "name": "chainIds",
          "type": "uint64[]"
        },
        {
          "indexed": false,
          "internalType": "bytes32[]",
          "name": "updatedDummyInputCommitments",
          "type": "bytes32[]"
        }
      ],
      "name": "DummyInputCommitmentsUpdated",
      "type": "event"
    },
    {
      "anonymous": false,
      "inputs": [
        {
          "indexed": true,
          "internalType": "address",
          "name": "previousOwner",
          "type": "address"
        },
        {
          "indexed": true,
          "internalType": "address",
          "name": "newOwner",
          "type": "address"
        }
      ],
      "name": "OwnershipTransferred",
      "type": "event"
    },
    {
      "anonymous": false,
      "inputs": [
        {
          "indexed": false,
          "internalType": "address",
          "name": "account",
          "type": "address"
        }
      ],
      "name": "Paused",
      "type": "event"
    },
    {
      "anonymous": false,
      "inputs": [
        {
          "indexed": false,
          "internalType": "address",
          "name": "account",
          "type": "address"
        }
      ],
      "name": "PauserAdded",
      "type": "event"
    },
    {
      "anonymous": false,
      "inputs": [
        {
          "indexed": false,
          "internalType": "address",
          "name": "account",
          "type": "address"
        }
      ],
      "name": "PauserRemoved",
      "type": "event"
    },
    {
      "anonymous": false,
      "inputs": [
        {
          "indexed": false,
          "internalType": "address",
          "name": "account",
          "type": "address"
        }
      ],
      "name": "ProverAdded",
      "type": "event"
    },
    {
      "anonymous": false,
      "inputs": [
        {
          "indexed": false,
          "internalType": "address",
          "name": "account",
          "type": "address"
        }
      ],
      "name": "ProverRemoved",
      "type": "event"
    },
    {
      "anonymous": false,
      "inputs": [
        {
          "indexed": false,
          "internalType": "address",
          "name": "smtContract",
          "type": "address"
        }
      ],
      "name": "SmtContractUpdated",
      "type": "event"
    },
    {
      "anonymous": false,
      "inputs": [
        {
          "indexed": false,
          "internalType": "address",
          "name": "account",
          "type": "address"
        }
      ],
      "name": "Unpaused",
      "type": "event"
    },
    {
      "anonymous": false,
      "inputs": [
        {
          "indexed": false,
          "internalType": "uint64[]",
          "name": "chainIds",
          "type": "uint64[]"
        },
        {
          "indexed": false,
          "internalType": "contract IZkpVerifier[]",
          "name": "newAddresses",
          "type": "address[]"
        }
      ],
      "name": "VerifierAddressesUpdated",
      "type": "event"
    },
    {
      "inputs": [
        {
          "internalType": "address",
          "name": "account",
          "type": "address"
        }
      ],
      "name": "addPauser",
      "outputs": [],
      "stateMutability": "nonpayable",
      "type": "function"
    },
    {
      "inputs": [
        {
          "internalType": "address[]",
          "name": "accounts",
          "type": "address[]"
        }
      ],
      "name": "addPausers",
      "outputs": [],
      "stateMutability": "nonpayable",
      "type": "function"
    },
    {
      "inputs": [
        {
          "internalType": "address[]",
          "name": "_accounts",
          "type": "address[]"
        }
      ],
      "name": "addProvers",
      "outputs": [],
      "stateMutability": "nonpayable",
      "type": "function"
    },
    {
      "inputs": [
        {
          "internalType": "uint64",
          "name": "",
          "type": "uint64"
        }
      ],
      "name": "aggProofVerifierAddress",
      "outputs": [
        {
          "internalType": "contract IZkpVerifier",
          "name": "",
          "type": "address"
        }
      ],
      "stateMutability": "view",
      "type": "function"
    },
    {
      "inputs": [],
      "name": "aggVkHash",
      "outputs": [
        {
          "internalType": "bytes32",
          "name": "",
          "type": "bytes32"
        }
      ],
      "stateMutability": "view",
      "type": "function"
    },
    {
      "inputs": [
        {
          "internalType": "bytes32",
          "name": "",
          "type": "bytes32"
        }
      ],
      "name": "circuitDigests",
      "outputs": [
        {
          "internalType": "bool",
          "name": "",
          "type": "bool"
        }
      ],
      "stateMutability": "view",
      "type": "function"
    },
    {
      "inputs": [
        {
          "internalType": "bytes32",
          "name": "_circuitDigest",
          "type": "bytes32"
        }
      ],
      "name": "disableCircuitDigest",
      "outputs": [],
      "stateMutability": "nonpayable",
      "type": "function"
    },
    {
      "inputs": [
        {
          "internalType": "uint64",
          "name": "",
          "type": "uint64"
        }
      ],
      "name": "dummyInputCommitments",
      "outputs": [
        {
          "internalType": "bytes32",
          "name": "",
          "type": "bytes32"
        }
      ],
      "stateMutability": "view",
      "type": "function"
    },
    {
      "inputs": [
        {
          "internalType": "bytes32",
          "name": "_circuitDigest",
          "type": "bytes32"
        }
      ],
      "name": "enableCircuitDigest",
      "outputs": [],
      "stateMutability": "nonpayable",
      "type": "function"
    },
    {
      "inputs": [
        {
          "internalType": "contract ISMT",
          "name": "_smtContract",
          "type": "address"
        }
      ],
      "name": "init",
      "outputs": [],
      "stateMutability": "nonpayable",
      "type": "function"
    },
    {
      "inputs": [
        {
          "internalType": "address",
          "name": "_account",
          "type": "address"
        }
      ],
      "name": "isActiveProver",
      "outputs": [
        {
          "internalType": "bool",
          "name": "",
          "type": "bool"
        }
      ],
      "stateMutability": "view",
      "type": "function"
    },
    {
      "inputs": [
        {
          "internalType": "address",
          "name": "account",
          "type": "address"
        }
      ],
      "name": "isPauser",
      "outputs": [
        {
          "internalType": "bool",
          "name": "",
          "type": "bool"
        }
      ],
      "stateMutability": "view",
      "type": "function"
    },
    {
      "inputs": [
        {
          "internalType": "bytes32",
          "name": "",
          "type": "bytes32"
        }
      ],
      "name": "merkleRoots",
      "outputs": [
        {
          "internalType": "bool",
          "name": "",
          "type": "bool"
        }
      ],
      "stateMutability": "view",
      "type": "function"
    },
    {
      "inputs": [],
      "name": "numPausers",
      "outputs": [
        {
          "internalType": "uint256",
          "name": "",
          "type": "uint256"
        }
      ],
      "stateMutability": "view",
      "type": "function"
    },
    {
      "inputs": [],
      "name": "numProvers",
      "outputs": [
        {
          "internalType": "uint256",
          "name": "",
          "type": "uint256"
        }
      ],
      "stateMutability": "view",
      "type": "function"
    },
    {
      "inputs": [],
      "name": "owner",
      "outputs": [
        {
          "internalType": "address",
          "name": "",
          "type": "address"
        }
      ],
      "stateMutability": "view",
      "type": "function"
    },
    {
      "inputs": [],
      "name": "pause",
      "outputs": [],
      "stateMutability": "nonpayable",
      "type": "function"
    },
    {
      "inputs": [],
      "name": "paused",
      "outputs": [
        {
          "internalType": "bool",
          "name": "",
          "type": "bool"
        }
      ],
      "stateMutability": "view",
      "type": "function"
    },
    {
      "inputs": [
        {
          "internalType": "uint256",
          "name": "",
          "type": "uint256"
        }
      ],
      "name": "pauserList",
      "outputs": [
        {
          "internalType": "address",
          "name": "",
          "type": "address"
        }
      ],
      "stateMutability": "view",
      "type": "function"
    },
    {
      "inputs": [
        {
          "internalType": "address",
          "name": "",
          "type": "address"
        }
      ],
      "name": "pausers",
      "outputs": [
        {
          "internalType": "bool",
          "name": "",
          "type": "bool"
        }
      ],
      "stateMutability": "view",
      "type": "function"
    },
    {
      "inputs": [
        {
          "internalType": "bytes32",
          "name": "",
          "type": "bytes32"
        }
      ],
      "name": "proofs",
      "outputs": [
        {
          "internalType": "bytes32",
          "name": "",
          "type": "bytes32"
        }
      ],
      "stateMutability": "view",
      "type": "function"
    },
    {
      "inputs": [
        {
          "internalType": "address",
          "name": "",
          "type": "address"
        }
      ],
      "name": "proverStates",
      "outputs": [
        {
          "internalType": "enum BrevisAccess.ProverState",
          "name": "",
          "type": "uint8"
        }
      ],
      "stateMutability": "view",
      "type": "function"
    },
    {
      "inputs": [
        {
          "internalType": "uint256",
          "name": "",
          "type": "uint256"
        }
      ],
      "name": "provers",
      "outputs": [
        {
          "internalType": "address",
          "name": "",
          "type": "address"
        }
      ],
      "stateMutability": "view",
      "type": "function"
    },
    {
      "inputs": [
        {
          "internalType": "address",
          "name": "account",
          "type": "address"
        }
      ],
      "name": "removePauser",
      "outputs": [],
      "stateMutability": "nonpayable",
      "type": "function"
    },
    {
      "inputs": [
        {
          "internalType": "address[]",
          "name": "accounts",
          "type": "address[]"
        }
      ],
      "name": "removePausers",
      "outputs": [],
      "stateMutability": "nonpayable",
      "type": "function"
    },
    {
      "inputs": [
        {
          "internalType": "address[]",
          "name": "_accounts",
          "type": "address[]"
        }
      ],
      "name": "removeProvers",
      "outputs": [],
      "stateMutability": "nonpayable",
      "type": "function"
    },
    {
      "inputs": [],
      "name": "renouncePauser",
      "outputs": [],
      "stateMutability": "nonpayable",
      "type": "function"
    },
    {
      "inputs": [
        {
          "internalType": "bytes32",
          "name": "_aggVkHash",
          "type": "bytes32"
        }
      ],
      "name": "setAggVkHash",
      "outputs": [],
      "stateMutability": "nonpayable",
      "type": "function"
    },
    {
      "inputs": [
        {
          "internalType": "uint64[]",
          "name": "_chainIds",
          "type": "uint64[]"
        },
        {
          "internalType": "bytes32[]",
          "name": "_dummyInputCommitments",
          "type": "bytes32[]"
        }
      ],
      "name": "setDummyInputCommitments",
      "outputs": [],
      "stateMutability": "nonpayable",
      "type": "function"
    },
    {
      "inputs": [],
      "name": "smtContract",
      "outputs": [
        {
          "internalType": "contract ISMT",
          "name": "",
          "type": "address"
        }
      ],
      "stateMutability": "view",
      "type": "function"
    },
    {
      "inputs": [
        {
          "internalType": "uint64",
          "name": "_chainId",
          "type": "uint64"
        },
        {
          "internalType": "bytes32[]",
          "name": "_proofIds",
          "type": "bytes32[]"
        },
        {
          "internalType": "bytes",
          "name": "_proofWithPubInputs",
          "type": "bytes"
        }
      ],
      "name": "submitAggProof",
      "outputs": [],
      "stateMutability": "nonpayable",
      "type": "function"
    },
    {
      "inputs": [
        {
          "internalType": "uint64",
          "name": "_chainId",
          "type": "uint64"
        },
        {
          "internalType": "bytes",
          "name": "_proofWithPubInputs",
          "type": "bytes"
        }
      ],
      "name": "submitProof",
      "outputs": [
        {
          "internalType": "bytes32",
          "name": "proofId",
          "type": "bytes32"
        },
        {
          "internalType": "bytes32",
          "name": "appCommitHash",
          "type": "bytes32"
        },
        {
          "internalType": "bytes32",
          "name": "appVkHash",
          "type": "bytes32"
        }
      ],
      "stateMutability": "nonpayable",
      "type": "function"
    },
    {
      "inputs": [
        {
          "internalType": "address",
          "name": "newOwner",
          "type": "address"
        }
      ],
      "name": "transferOwnership",
      "outputs": [],
      "stateMutability": "nonpayable",
      "type": "function"
    },
    {
      "inputs": [],
      "name": "unpause",
      "outputs": [],
      "stateMutability": "nonpayable",
      "type": "function"
    },
    {
      "inputs": [
        {
          "internalType": "uint64[]",
          "name": "_chainIds",
          "type": "uint64[]"
        },
        {
          "internalType": "contract IZkpVerifier[]",
          "name": "_verifierAddresses",
          "type": "address[]"
        }
      ],
      "name": "updateAggProofVerifierAddresses",
      "outputs": [],
      "stateMutability": "nonpayable",
      "type": "function"
    },
    {
      "inputs": [
        {
          "internalType": "contract ISMT",
          "name": "_smtContract",
          "type": "address"
        }
      ],
      "name": "updateSmtContract",
      "outputs": [],
      "stateMutability": "nonpayable",
      "type": "function"
    },
    {
      "inputs": [
        {
          "internalType": "uint64[]",
          "name": "_chainIds",
          "type": "uint64[]"
        },
        {
          "internalType": "contract IZkpVerifier[]",
          "name": "_verifierAddresses",
          "type": "address[]"
        }
      ],
      "name": "updateVerifierAddress",
      "outputs": [],
      "stateMutability": "nonpayable",
      "type": "function"
    },
    {
      "inputs": [
        {
          "internalType": "uint64",
          "name": "_chainId",
          "type": "uint64"
        },
        {
          "components": [
            {
              "internalType": "bytes32",
              "name": "commitHash",
              "type": "bytes32"
            },
            {
              "internalType": "bytes32",
              "name": "appCommitHash",
              "type": "bytes32"
            },
            {
              "internalType": "bytes32",
              "name": "appVkHash",
              "type": "bytes32"
            },
            {
              "internalType": "bytes32",
              "name": "smtRoot",
              "type": "bytes32"
            },
            {
              "internalType": "bytes32",
              "name": "dummyInputCommitment",
              "type": "bytes32"
            },
            {
              "internalType": "bytes32",
              "name": "circuitDigest",
              "type": "bytes32"
            }
          ],
          "internalType": "struct Brevis.ProofData[]",
          "name": "_proofDataArray",
          "type": "tuple[]"
        }
      ],
      "name": "validateAggProofData",
      "outputs": [],
      "stateMutability": "view",
      "type": "function"
    },
    {
      "inputs": [
        {
          "internalType": "uint64",
          "name": "_chainId",
          "type": "uint64"
        },
        {
          "components": [
            {
              "internalType": "bytes32",
              "name": "commitHash",
              "type": "bytes32"
            },
            {
              "internalType": "bytes32",
              "name": "appCommitHash",
              "type": "bytes32"
            },
            {
              "internalType": "bytes32",
              "name": "appVkHash",
              "type": "bytes32"
            },
            {
              "internalType": "bytes32",
              "name": "smtRoot",
              "type": "bytes32"
            },
            {
              "internalType": "bytes32",
              "name": "dummyInputCommitment",
              "type": "bytes32"
            },
            {
              "internalType": "bytes32",
              "name": "circuitDigest",
              "type": "bytes32"
            }
          ],
          "internalType": "struct Brevis.ProofData",
          "name": "_proofData",
          "type": "tuple"
        },
        {
          "internalType": "bytes32",
          "name": "_merkleRoot",
          "type": "bytes32"
        },
        {
          "internalType": "bytes32[]",
          "name": "_merkleProof",
          "type": "bytes32[]"
        },
        {
          "internalType": "uint8",
          "name": "_nodeIndex",
          "type": "uint8"
        }
      ],
      "name": "validateAggProofData",
      "outputs": [],
      "stateMutability": "view",
      "type": "function"
    },
    {
      "inputs": [
        {
          "internalType": "bytes32",
          "name": "_proofId",
          "type": "bytes32"
        },
        {
          "internalType": "bytes32",
          "name": "_appCommitHash",
          "type": "bytes32"
        },
        {
          "internalType": "bytes32",
          "name": "_appVkHash",
          "type": "bytes32"
        }
      ],
      "name": "validateProofAppData",
      "outputs": [
        {
          "internalType": "bool",
          "name": "",
          "type": "bool"
        }
      ],
      "stateMutability": "view",
      "type": "function"
    },
    {
      "inputs": [
        {
          "internalType": "uint64",
          "name": "",
          "type": "uint64"
        }
      ],
      "name": "verifierAddresses",
      "outputs": [
        {
          "internalType": "contract IZkpVerifier",
          "name": "",
          "type": "address"
        }
      ],
      "stateMutability": "view",
      "type": "function"
    }
  ],
  "transactionHash": "0xc83b00e4d983d620cfaf7b74344feab075b69405c2ccf03a4544a41ed8e60681",
  "args": [
    "0x7636e517daf7eB3C7bf74BB982E9E0e55554e0D1"
  ],
  "numDeployments": 2,
  "solcInputHash": "4d485addc3f559449674cec73b707282",
  "bytecode": "0x608034620001b457601f62002b1e38819003918201601f1916830192916001600160401b03841183851017620001b95780839260409586528339602092839181010312620001b457516001600160a01b03808216929091839003620001b4576000918254855191339082167f8be0079c531659141344cd1fd0a4f28419497f9722a3daafe3b4186f6b6457e08680a36001600160a81b0319163360ff60a01b1981169190911784558352600182528483205460ff1662000174575060025468010000000000000000811015620001605760018101806002558110156200014c5790847f6719d08c1888103bea251a4ed56406bd0c3e69723c8a1686e017e7bbe159b6f89260028552828520019360018060a01b03199433868254161790553381526001835220600160ff198254161790558451338152a160055416176005555161294e9081620001d08239f35b634e487b7160e01b83526032600452602483fd5b634e487b7160e01b83526041600452602483fd5b60649162461bcd60e51b82526004820152601960248201527f4163636f756e7420697320616c726561647920706175736572000000000000006044820152fd5b600080fd5b634e487b7160e01b600052604160045260246000fdfe608080604052600436101561001357600080fd5b60003560e01c9081630e8f65f814611d42575080631396511e14611cce578063158535ff14611c9d57806319ab453c14611c0b5780633221aec614611be45780633f4ba83a14611adc578063444d95b014611ab057806346fbf68e14610f9d578063495fde2d146117445780634d02e481146117265780634f4fef181461170857806350d410631461164557806358a16b44146116275780635c975abb14611601578063667a4ac114611505578063677625f2146113a85780636b2c0f55146113715780636d37a3c0146111675780636ef8d66d1461114d578063734c25fe1461111c57806375dc224f146110ae5780637dbafb1114610fdc57806380f51c1214610f9d57806382dc1ec414610f665780638456cb5914610e475780638da5cb5b14610e205780639017837014610dc55780639438542614610d6b578063a036e79914610d1b578063b4f7a727146109cd578063ceae339014610989578063e04409531461058f578063e6c6fcec1461053f578063e79b7a511461045b578063ec64842e14610411578063f2fde38b14610364578063f5cec6af14610320578063fabc74f5146102c4578063faf7bb5214610259578063fd1190ea146102185763fe5a5377146101e257600080fd5b34610213576020366003190112610213576004356000526006602052602060ff604060002054166040519015158152f35b600080fd5b3461021357602036600319011261021357600435600454811015610213576001600160a01b03610249602092611ddd565b9190546040519260031b1c168152f35b34610213576020366003190112610213577f3338160e5ec49430fab876f8c6bdfc448be66c76717a30be7fe2bf6777f888f360206004356102a66001600160a01b03600054163314611faf565b8060005260098252604060002060ff198154169055604051908152a1005b34610213576020366003190112610213576001600160a01b036102e5611e14565b16600052600360205260ff60406000205416604051600382101561030a576020918152f35b634e487b7160e01b600052602160045260246000fd5b346102135760203660031901126102135767ffffffffffffffff610342611d79565b16600052600b60205260206001600160a01b0360406000205416604051908152f35b346102135760203660031901126102135761037d611e14565b6001600160a01b0361039481600054163314611faf565b8116156103a6576103a490612257565b005b60405162461bcd60e51b815260206004820152602660248201527f4f776e61626c653a206e6577206f776e657220697320746865207a65726f206160448201527f64647265737300000000000000000000000000000000000000000000000000006064820152608490fd5b34610213576020366003190112610213576001600160a01b03610432611e14565b16600052600360205260ff60406000205416600381101561030a57602090600160405191148152f35b34610213576020806003193601126102135767ffffffffffffffff6004358181116102135736602382011215610213578060040135918211610529578160051b604051926104ab85830185611ed6565b83526024848401918301019136831161021357602401905b82821061051257836001600160a01b03906104e382600054163314611faf565b60005b81518110156103a457806105088461050161050d948661201f565b511661229f565b611ffa565b6104e6565b84809161051e84611e2a565b8152019101906104c3565b634e487b7160e01b600052604160045260246000fd5b346102135761054d36611ef8565b6001600160a01b039061056582600054163314611faf565b60005b81518110156103a457806105088461058361058a948661201f565b511661207f565b610568565b34610213576040366003190112610213576105a8611d79565b60249067ffffffffffffffff8235818111610213576105cb903690600401611f81565b9133600052600360205260ff6040600020541660038110156109745760016105f39114612543565b808416600052600b6020526001600160a01b0360406000205416801561093057602060405180926322bb937360e11b825281806106348989600484016125a7565b03915afa80156108cb5761065091600091610901575b506125cf565b60405160c08101818110838211176108ec5760405260008152602081019160008352604082019060008252606083019660008852608084019260008452600060a08601526106a76106a189896128c2565b906128fb565b908186526106b86106a18a8a6128d5565b8a526106c76106a18a8a6128e8565b80975261020098808a11610213576101e089013560a088015261022099818b116102135789013586526102401161021357888801359052604051906020820190898901358252604083015286606083015260608252816080810110846080840111176108d75760808201604081905282519091206005549a5163080cdb0b60e11b835267ffffffffffffffff8516608485015260a4840152996020919060449082906001600160a01b03165afa9081156108cb57600091610894575b501561085057916107a99160a09493166000526008602052604060002054905114612698565b0151600052600960205260ff604060002054161561080c57606094506040516020810190828252848401356040820152604081526107e681611eba565b51902084600052600c602052604060002055604051938452602084015201356040820152f35b60405162461bcd60e51b8152602060048201526016818701527f696e76616c6964206369726375697420646967657374000000000000000000006044820152606490fd5b60405162461bcd60e51b8152602060048201526012818b01527f736d7420726f6f74206e6f742076616c696400000000000000000000000000006044820152606490fd5b6108be915060203d6020116108c4575b6080816108b48293838601611ed6565b830101910161258f565b8a610783565b503d6108a4565b6040513d6000823e3d90fd5b8a634e487b7160e01b60005260416004526000fd5b86634e487b7160e01b60005260416004526000fd5b610923915060203d602011610929575b61091b8183611ed6565b81019061258f565b8761064a565b503d610911565b60405162461bcd60e51b8152602060048201526016818801527f636861696e207665726966696572206e6f7420736574000000000000000000006044820152606490fd5b85634e487b7160e01b60005260216004526000fd5b346102135760203660031901126102135767ffffffffffffffff6109ab611d79565b16600052600760205260206001600160a01b0360406000205416604051908152f35b34610213576060366003190112610213576109e6611d79565b67ffffffffffffffff906024803583811161021357610a09903690600401611e3e565b9360443581811161021357610a22903690600401611f81565b949092336000526020946003865260ff60406000205416966003881015610d0657610a506001809914612543565b610a5d6106a182886128c2565b95610a6b6106a183836128d5565b94610a796106a184846128e8565b600a5403610cc2578616600052600788526001600160a01b0360406000205416908115610c8057918891610ac3936040518095819482936322bb937360e11b8452600484016125a7565b03915afa80156108cb57610ade91600091610c6357506125cf565b604051916102009081840184811087821117610c4e576040528136853760005b8a8110610c2f575050601098898110610bdb575b5060405198878a01936000908a8a875b858510610bc657505050505050885261022088019388851090851117610bb25750826040528651902003610b6d5750906006916000525260406000209060ff19825416179055600080f35b62461bcd60e51b8152610224850183905260126102448601527f70726f6f66496473206e6f742072696768740000000000000000000000000000610264860152606490fd5b634e487b7160e01b60009081526041600452fd5b819084518152019201920191908a8c91610b22565b805b8a8110610bea5750610b12565b6000198201828111610c1a5790610c04610c15928761262b565b51610c0f828861262b565b52611ffa565b610bdd565b84634e487b7160e01b60005260116004526000fd5b80610c3e610c49928d8561261b565b35610c0f828861262b565b610afe565b83634e487b7160e01b60005260416004526000fd5b610c7a9150883d8a116109295761091b8183611ed6565b8a61064a565b6064848a6040519162461bcd60e51b83528160048401528201527f636861696e206167672070726f6f66207665726966696572206e6f74207365746044820152fd5b60405162461bcd60e51b8152600481018a9052601b818601527f61676720766572696679696e67206b6579206e6f742076616c696400000000006044820152606490fd5b50634e487b7160e01b60009081526021600452fd5b3461021357610d2936611ef8565b6001600160a01b0390610d4182600054163314611faf565b60005b81518110156103a4578061050884610d5f610d66948661201f565b5116612385565b610d44565b34610213576020366003190112610213577f2bd9dd8e16629010f9924be6c73cf4884c5395ef86f10ce3495a9616175fba5d6020600435610db86001600160a01b03600054163314611faf565b80600a55604051908152a1005b3461021357606036600319011261021357600435600052600c602052610e1560406000205460405160208101906024358252604435604082015260408152610e0c81611eba565b5190201461274e565b602060405160018152f35b346102135760003660031901126102135760206001600160a01b0360005416604051908152f35b3461021357600036600319011261021357336000526001602090808252610e7560ff60406000205416612033565b60005460ff8160a01c16610f215760ff60a01b19740100000000000000000000000000000000000000009116176000557f62e78cea01bee320cd4e420270b5ea74000d11b0c9f74754ebdbfc544b05a25882604051338152a16000815b610ed857005b6004548110156103a457806001600160a01b03610ef7610f1b93611ddd565b919054600392831b1c1660005284526040600020600260ff19825416179055611ffa565b81610ed2565b60405162461bcd60e51b815260048101849052601060248201527f5061757361626c653a20706175736564000000000000000000000000000000006044820152606490fd5b34610213576020366003190112610213576103a4610f82611e14565b610f986001600160a01b03600054163314611faf565b61229f565b34610213576020366003190112610213576001600160a01b03610fbe611e14565b166000526001602052602060ff604060002054166040519015158152f35b3461021357610fea36611e6f565b92906001600160a01b0361100381600054163314611faf565b61100e85851461279a565b60005b8481106110515750507f4a5f8b4623084de3ef4b23e6c713416b50a966a1914aaf21175d206015e59d4e9361104c916040519485948561285e565b0390a1005b806110686110636110a993898761261b565b6127e6565b67ffffffffffffffff61108461107f848a8a61261b565b6127fa565b16600052600760205283604060002091166001600160a01b0319825416179055611ffa565b611011565b34610213576020366003190112610213577f87eb957c9a0bfc1deb70acc1e51303df7228bba4dbbe6c6a2438576a7fd36d7b60206004356110fb6001600160a01b03600054163314611faf565b80600052600982526040600020600160ff19825416179055604051908152a1005b34610213576020366003190112610213576004356000526009602052602060ff604060002054166040519015158152f35b34610213576000366003190112610213576103a433612385565b346102135761014036600319011261021357611181611d79565b60c03660231901126102135767ffffffffffffffff9061010435828111610213576111b0903690600401611e3e565b610124939193359360ff928386168096036102135760e4359182600052602091600683526111e48660406000205416612702565b60055460405163080cdb0b60e11b815267ffffffffffffffff891660048201526084356024820181905298918590829060449082906001600160a01b03165afa80156108cb5761123c91600091611354575b5061264c565b166000526008825260406000205461125860a435809214612698565b6040516112a3816112958682019460249b8c60643591604435913589939160a0959391855260208501526040840152606083015260808201520190565b03601f198101835282611ed6565b519020926000935b8685166004811015611349578791908a811c600116611317576112cf90888661261b565b35604051908682019283526040820152604081526112ec81611eba565b519020945b1686811461130257600101936112ab565b87634e487b7160e01b60005260116004526000fd5b61132290888661261b565b35906040519086820192835260408201526040815261134081611eba565b519020946112f1565b506103a4911461274e565b61136b9150863d88116109295761091b8183611ed6565b8b611236565b34610213576020366003190112610213576103a461138d611e14565b6113a36001600160a01b03600054163314611faf565b612385565b34610213576113b636611ef8565b600054906001600160a01b03916113d03384831614611faf565b60ff9060a01c8116156114fd576002925b60005b83518110156103a457816113f8828661201f565b511690816000526003602081815285604060002054168281101561030a576114b9576004546801000000000000000081101561052957846114428260016114629401600455611ddd565b90919082549060031b916001600160a01b03809116831b921b1916179055565b8360005281815260406000209188101561030a576114b4937fef1fa0a4d797341645c201a742cf59be633da0589e0e3cda511cfc90cd0396849260ff19815416888b16179055604051908152a1611ffa565b6113e4565b6064906040519062461bcd60e51b82526004820152601160248201527f6163636f756e742069732070726f7665720000000000000000000000000000006044820152fd5b6001926113e1565b346102135761151336611e6f565b909261152b6001600160a01b03600054163314611faf565b61153682841461279a565b60005b8381106115c15750611557906040519360408552604085019161280f565b9082820360208401528082527f07ffffffffffffffffffffffffffffffffffffffffffffffffffffffffffffff8111610213577f1605a9f9273f3a8588037190cc9c43a645aa8d2008f74cf66eadf50d079185c693602092849260051b80928583013701030190a1005b806115d06115fc92858861261b565b3567ffffffffffffffff6115e861107f84898861261b565b166000526008602052604060002055611ffa565b611539565b3461021357600036600319011261021357602060ff60005460a01c166040519015158152f35b34610213576000366003190112610213576020600254604051908152f35b346102135761165336611e6f565b92906001600160a01b0361166c81600054163314611faf565b61167785851461279a565b60005b8481106116b55750507f10ec8ad6a03997446c98d9aabf3ad339cc9621ec7cd4b47b04fe1ba8f75b42239361104c916040519485948561285e565b806116c761106361170393898761261b565b67ffffffffffffffff6116de61107f848a8a61261b565b16600052600b60205283604060002091166001600160a01b0319825416179055611ffa565b61167a565b34610213576000366003190112610213576020600454604051908152f35b34610213576000366003190112610213576020600a54604051908152f35b346102135760403660031901126102135761175d611d79565b602480359067ffffffffffffffff92838311610213573660238401121561021357826004013590848211610213578284019383369160c0850201011161021357601094858311611a6c57604051946103e0808701878110848211176108ec57604093929352368737600554908316906001600160a01b031660005b8581106119335750505050508381106118f7575b506000835b611814576103c083015160005260066020526103a460ff60406000205416612702565b909160005b6000198501858111610c1a5785908210156118df575061184261183c82856126f5565b836126e4565b5161184d82856126f5565b906001918281018091116118ca576118a79161186c6118a192876126e4565b51604051906020820192835260408201526040815261188a81611eba565b51902092846118998a896126f5565b911c906126f5565b846126e4565b526002810180911115611819575b83634e487b7160e01b60005260116004526000fd5b86634e487b7160e01b60005260116004526000fd5b90506118ec9193926126f5565b9260011c92836117f1565b600019810190808211905b8581106119105750506117ec565b816118b55761192e9061192384876126e4565b51610c0f82886126e4565b611902565b61197a90606080611945838a8961263c565b60405163080cdb0b60e11b815267ffffffffffffffff8a16600482015291013560248201526020938490829081906044820190565b0381885afa80156108cb57611a4a9461199f611a3d928c94600091611a4f575061264c565b87600052600881526119c76040600020548a6119bf88608097889361263c565b013514612698565b6112958b8a6119d788838361263c565b35966119e489848461263c565b013595611a0f89866119f782878761263c565b0135946040611a0783838861263c565b01359461263c565b01359160405196879586019889939160a0959391855260208501526040840152606083015260808201520190565b519020610c0f828b6126e4565b6117d8565b611a669150833d85116109295761091b8183611ed6565b38611236565b60405162461bcd60e51b815260206004820152600c818601527f73697a65206578636565647300000000000000000000000000000000000000006044820152606490fd5b3461021357602036600319011261021357600435600052600c6020526020604060002054604051908152f35b3461021357600036600319011261021357336000526001602090808252611b0a60ff60406000205416612033565b60005460ff8160a01c1615611b9f5760ff60a01b19166000557f5db9ee0a495bf2e6ff9c91a7834c1ba4fdd244a5e8aa4e537bd38aeae4b073aa82604051338152a16000815b611b5657005b6004548110156103a457611b99816001600160a01b03611b768594611ddd565b919054600392831b1c16600052855260406000208360ff19825416179055611ffa565b90611b50565b60405162461bcd60e51b815260048101849052601460248201527f5061757361626c653a206e6f74207061757365640000000000000000000000006044820152606490fd5b346102135760003660031901126102135760206001600160a01b0360055416604051908152f35b34610213576020366003190112610213576004356001600160a01b038082168092036102135760005416611c5857611c4233612257565b6001600160a01b03196005541617600555600080f35b60405162461bcd60e51b815260206004820152601160248201527f6f776e657220616c7265616479207365740000000000000000000000000000006044820152606490fd5b3461021357602036600319011261021357600435600254811015610213576001600160a01b03610249602092611d90565b34610213576020366003190112610213576004356001600160a01b03808216809203610213577f674c535cde998bcb47d0688f644df545597c7d6edb95643cb21c82c2d490ff7f91611d27602092600054163314611faf565b806001600160a01b03196005541617600555604051908152a1005b346102135760203660031901126102135760209067ffffffffffffffff611d67611d79565b16600052600882526040600020548152f35b6004359067ffffffffffffffff8216820361021357565b600254811015611dc75760026000527f405787fa12a823e0f2b7631cc41b3ba8828b3321ca811111fa75cd3aa3bb5ace0190600090565b634e487b7160e01b600052603260045260246000fd5b600454811015611dc75760046000527f8a35acfbc15ff81a39ae7d344fd709f28e8600b4aa8c65c6b64bfe7fe36bd19b0190600090565b600435906001600160a01b038216820361021357565b35906001600160a01b038216820361021357565b9181601f840112156102135782359167ffffffffffffffff8311610213576020808501948460051b01011161021357565b60406003198201126102135767ffffffffffffffff916004358381116102135782611e9c91600401611e3e565b9390939260243591821161021357611eb691600401611e3e565b9091565b6060810190811067ffffffffffffffff82111761052957604052565b90601f8019910116810190811067ffffffffffffffff82111761052957604052565b6020806003198301126102135767ffffffffffffffff916004358381116102135781602382011215610213578060040135938411610529578360051b9060405194611f4585840187611ed6565b855260248486019282010192831161021357602401905b828210611f6a575050505090565b838091611f7684611e2a565b815201910190611f5c565b9181601f840112156102135782359167ffffffffffffffff8311610213576020838186019501011161021357565b15611fb657565b606460405162461bcd60e51b815260206004820152602060248201527f4f776e61626c653a2063616c6c6572206973206e6f7420746865206f776e65726044820152fd5b60001981146120095760010190565b634e487b7160e01b600052601160045260246000fd5b8051821015611dc75760209160051b010190565b1561203a57565b60405162461bcd60e51b815260206004820152601460248201527f43616c6c6572206973206e6f74207061757365720000000000000000000000006044820152606490fd5b6001600160a01b0380911691600083815260039360209185835260409060ff82822054168781101561224357156121ff57600496875496600019908189019889116121ec57835b8a548110156121a95786826120da83611ddd565b905490871b1c16146120f4576120ef90611ffa565b6120c6565b909192939495969798808210612184575b505050875480156121715797849392917fd64d11086d859b73cf85a91ca06cbc484398acabe3d9a1b26d4366dff377d9859899019061215b61214683611ddd565b6001600160a01b0382549160031b1b19169055565b55848252855220805460ff1916905551908152a1565b634e487b7160e01b845260318952602484fd5b6121a19261219461144292611ddd565b905490871b1c1691611ddd565b388080612105565b855162461bcd60e51b8152808c01899052601060248201527f70726f766572206e6f7420666f756e64000000000000000000000000000000006044820152606490fd5b634e487b7160e01b845260118a52602484fd5b815162461bcd60e51b815260048101859052601560248201527f6163636f756e74206973206e6f742070726f76657200000000000000000000006044820152606490fd5b634e487b7160e01b82526021600452602482fd5b600054906001600160a01b0380911691826001600160a01b0319821617600055167f8be0079c531659141344cd1fd0a4f28419497f9722a3daafe3b4186f6b6457e0600080a3565b6001600160a01b03811690600090828252600160205260ff604083205416612340576002546801000000000000000081101561232c576020926123107f6719d08c1888103bea251a4ed56406bd0c3e69723c8a1686e017e7bbe159b6f8959361144284600160409601600255611d90565b8281526001845220600160ff19825416179055604051908152a1565b634e487b7160e01b83526041600452602483fd5b60405162461bcd60e51b815260206004820152601960248201527f4163636f756e7420697320616c726561647920706175736572000000000000006044820152606490fd5b6001600160a01b038091169060009282845260019060209382855260409360ff8588205416156124ff57600280549091600019918281019081116124eb57908695949392918a975b612416575b885162461bcd60e51b8152600481018b9052601060248201527f706175736572206e6f7420666f756e64000000000000000000000000000000006044820152606490fd5b8399989799548a10156124e257818561242e8c611d90565b929054600393841b1c1614612457575061244e8798999a97959697611ffa565b979695946123cd565b92939497969599918183106124bd575b50505050815480156124a957918493917fcd265ebaf09df2871cc7bd4133404a235ba12eff2041bb89d9c714a2621c7c7e989993019061215b61214683611d90565b634e487b7160e01b89526031600452602489fd5b6124d9936124cd61144293611d90565b9054911b1c1691611d90565b38808080612467565b879899506123d2565b634e487b7160e01b8a52601160045260248afd5b845162461bcd60e51b815260048101879052601560248201527f4163636f756e74206973206e6f742070617573657200000000000000000000006044820152606490fd5b1561254a57565b60405162461bcd60e51b815260206004820152600e60248201527f696e76616c69642070726f7665720000000000000000000000000000000000006044820152606490fd5b90816020910312610213575180151581036102135790565b90918060409360208452816020850152848401376000828201840152601f01601f1916010190565b156125d657565b60405162461bcd60e51b815260206004820152600f60248201527f70726f6f66206e6f742076616c696400000000000000000000000000000000006044820152606490fd5b9190811015611dc75760051b0190565b906010811015611dc75760051b0190565b9190811015611dc75760c0020190565b1561265357565b60405162461bcd60e51b815260206004820152601060248201527f696e76616c696420736d7420726f6f74000000000000000000000000000000006044820152606490fd5b1561269f57565b60405162461bcd60e51b815260206004820152601360248201527f696e76616c69642064756d6d7920696e707574000000000000000000000000006044820152606490fd5b90601f811015611dc75760051b0190565b9190820180921161200957565b1561270957565b60405162461bcd60e51b815260206004820152601660248201527f6d65726b6c6520726f6f74206e6f7420657869737473000000000000000000006044820152606490fd5b1561275557565b60405162461bcd60e51b815260206004820152600c60248201527f696e76616c6964206461746100000000000000000000000000000000000000006044820152606490fd5b156127a157565b60405162461bcd60e51b815260206004820152601060248201527f6c656e677468206e6f74206d61746368000000000000000000000000000000006044820152606490fd5b356001600160a01b03811681036102135790565b3567ffffffffffffffff811681036102135790565b9190808252602080920192916000805b83821061282e57505050505090565b9091929394853567ffffffffffffffff811680910361285a57815283019483019392916001019061281f565b8280fd5b929391906128749160408552604085019161280f565b828103602093840152818152820192916000805b83821061289757505050505090565b909192939485356001600160a01b03811680910361285a578152830194830193929160010190612888565b906101a011610213576101800190602090565b906101c011610213576101a00190602090565b906101e011610213576101c00190602090565b359060208110612909575090565b6000199060200360031b1b169056fea2646970667358221220655ac1d002f10c04b641cdbbc14a6dc0163e79eaa0515d2288433c443bca04bd64736f6c63430008140033",
  "devdoc": {
    "events": {
      "Paused(address)": {
        "details": "Emitted when the pause is triggered by `account`."
      },
      "Unpaused(address)": {
        "details": "Emitted when the pause is lifted by `account`."
      }
    },
    "kind": "dev",
    "methods": {
      "owner()": {
        "details": "Returns the address of the current owner."
      },
      "paused()": {
        "details": "Returns true if the contract is paused, and false otherwise."
      },
      "transferOwnership(address)": {
        "details": "Transfers ownership of the contract to a new account (`newOwner`). Can only be called by the current owner."
      }
    },
    "version": 1
  },
  "userdoc": {
    "kind": "user",
    "methods": {},
    "version": 1
  },
  "storageLayout": {
    "storage": [
      {
        "astId": 1292,
        "contract": "contracts/sdk/core/BrevisProof.sol:BrevisProof",
        "label": "_owner",
        "offset": 0,
        "slot": "0",
        "type": "t_address"
      },
      {
        "astId": 17,
        "contract": "contracts/sdk/core/BrevisProof.sol:BrevisProof",
        "label": "_paused",
        "offset": 20,
        "slot": "0",
        "type": "t_bool"
      },
      {
        "astId": 1406,
        "contract": "contracts/sdk/core/BrevisProof.sol:BrevisProof",
        "label": "pausers",
        "offset": 0,
        "slot": "1",
        "type": "t_mapping(t_address,t_bool)"
      },
      {
        "astId": 1409,
        "contract": "contracts/sdk/core/BrevisProof.sol:BrevisProof",
        "label": "pauserList",
        "offset": 0,
        "slot": "2",
        "type": "t_array(t_address)dyn_storage"
      },
      {
        "astId": 979,
        "contract": "contracts/sdk/core/BrevisProof.sol:BrevisProof",
        "label": "proverStates",
        "offset": 0,
        "slot": "3",
        "type": "t_mapping(t_address,t_enum(ProverState)974)"
      },
      {
        "astId": 982,
        "contract": "contracts/sdk/core/BrevisProof.sol:BrevisProof",
        "label": "provers",
        "offset": 0,
        "slot": "4",
        "type": "t_array(t_address)dyn_storage"
      },
      {
        "astId": 1694,
        "contract": "contracts/sdk/core/BrevisProof.sol:BrevisProof",
        "label": "smtContract",
        "offset": 0,
        "slot": "5",
        "type": "t_contract(ISMT)157"
      },
      {
        "astId": 1698,
        "contract": "contracts/sdk/core/BrevisProof.sol:BrevisProof",
        "label": "merkleRoots",
        "offset": 0,
        "slot": "6",
        "type": "t_mapping(t_bytes32,t_bool)"
      },
      {
        "astId": 1703,
        "contract": "contracts/sdk/core/BrevisProof.sol:BrevisProof",
        "label": "aggProofVerifierAddress",
        "offset": 0,
        "slot": "7",
        "type": "t_mapping(t_uint64,t_contract(IZkpVerifier)3917)"
      },
      {
        "astId": 1707,
        "contract": "contracts/sdk/core/BrevisProof.sol:BrevisProof",
        "label": "dummyInputCommitments",
        "offset": 0,
        "slot": "8",
        "type": "t_mapping(t_uint64,t_bytes32)"
      },
      {
        "astId": 1711,
        "contract": "contracts/sdk/core/BrevisProof.sol:BrevisProof",
        "label": "circuitDigests",
        "offset": 0,
        "slot": "9",
        "type": "t_mapping(t_bytes32,t_bool)"
      },
      {
        "astId": 1713,
        "contract": "contracts/sdk/core/BrevisProof.sol:BrevisProof",
        "label": "aggVkHash",
        "offset": 0,
        "slot": "10",
        "type": "t_bytes32"
      },
      {
        "astId": 2456,
        "contract": "contracts/sdk/core/BrevisProof.sol:BrevisProof",
        "label": "verifierAddresses",
        "offset": 0,
        "slot": "11",
        "type": "t_mapping(t_uint64,t_contract(IZkpVerifier)3917)"
      },
      {
        "astId": 2460,
        "contract": "contracts/sdk/core/BrevisProof.sol:BrevisProof",
        "label": "proofs",
        "offset": 0,
        "slot": "12",
        "type": "t_mapping(t_bytes32,t_bytes32)"
      }
    ],
    "types": {
      "t_address": {
        "encoding": "inplace",
        "label": "address",
        "numberOfBytes": "20"
      },
      "t_array(t_address)dyn_storage": {
        "base": "t_address",
        "encoding": "dynamic_array",
        "label": "address[]",
        "numberOfBytes": "32"
      },
      "t_bool": {
        "encoding": "inplace",
        "label": "bool",
        "numberOfBytes": "1"
      },
      "t_bytes32": {
        "encoding": "inplace",
        "label": "bytes32",
        "numberOfBytes": "32"
      },
      "t_contract(ISMT)157": {
        "encoding": "inplace",
        "label": "contract ISMT",
        "numberOfBytes": "20"
      },
      "t_contract(IZkpVerifier)3917": {
        "encoding": "inplace",
        "label": "contract IZkpVerifier",
        "numberOfBytes": "20"
      },
      "t_enum(ProverState)974": {
        "encoding": "inplace",
        "label": "enum BrevisAccess.ProverState",
        "numberOfBytes": "1"
      },
      "t_mapping(t_address,t_bool)": {
        "encoding": "mapping",
        "key": "t_address",
        "label": "mapping(address => bool)",
        "numberOfBytes": "32",
        "value": "t_bool"
      },
      "t_mapping(t_address,t_enum(ProverState)974)": {
        "encoding": "mapping",
        "key": "t_address",
        "label": "mapping(address => enum BrevisAccess.ProverState)",
        "numberOfBytes": "32",
        "value": "t_enum(ProverState)974"
      },
      "t_mapping(t_bytes32,t_bool)": {
        "encoding": "mapping",
        "key": "t_bytes32",
        "label": "mapping(bytes32 => bool)",
        "numberOfBytes": "32",
        "value": "t_bool"
      },
      "t_mapping(t_bytes32,t_bytes32)": {
        "encoding": "mapping",
        "key": "t_bytes32",
        "label": "mapping(bytes32 => bytes32)",
        "numberOfBytes": "32",
        "value": "t_bytes32"
      },
      "t_mapping(t_uint64,t_bytes32)": {
        "encoding": "mapping",
        "key": "t_uint64",
        "label": "mapping(uint64 => bytes32)",
        "numberOfBytes": "32",
        "value": "t_bytes32"
      },
      "t_mapping(t_uint64,t_contract(IZkpVerifier)3917)": {
        "encoding": "mapping",
        "key": "t_uint64",
        "label": "mapping(uint64 => contract IZkpVerifier)",
        "numberOfBytes": "32",
        "value": "t_contract(IZkpVerifier)3917"
      },
      "t_uint64": {
        "encoding": "inplace",
        "label": "uint64",
        "numberOfBytes": "8"
      }
    }
  }
}