{
  "address": "0x1d7E1184C08424fFC07B502fc7435ce60b451CBA",
  "abi": [
    {
      "inputs": [],
      "name": "ProofInvalid",
      "type": "error"
    },
    {
      "inputs": [],
      "name": "PublicInputNotInField",
      "type": "error"
    },
    {
      "inputs": [
        {
          "internalType": "uint256[8]",
          "name": "proof",
          "type": "uint256[8]"
        },
        {
          "internalType": "uint256[2]",
          "name": "commitment",
          "type": "uint256[2]"
        },
        {
          "internalType": "uint256[2]",
          "name": "commitmentPOK",
          "type": "uint256[2]"
        },
        {
          "internalType": "uint256[8]",
          "name": "input",
          "type": "uint256[8]"
        }
      ],
      "name": "verifyProof",
      "outputs": [
        {
          "internalType": "bool",
          "name": "",
          "type": "bool"
        }
      ],
      "stateMutability": "view",
      "type": "function"
    },
    {
      "inputs": [
        {
          "internalType": "bytes",
          "name": "proofData",
          "type": "bytes"
        }
      ],
      "name": "verifyRaw",
      "outputs": [
        {
          "internalType": "bool",
          "name": "",
          "type": "bool"
        }
      ],
      "stateMutability": "view",
      "type": "function"
    }
  ],
  "transactionHash": "0x02c9cacab26e898c145b12d647bf2f457672621c93b9f6c5632e906f21aa30ab",
  "args": [],
  "numDeployments": 3,
  "solcInputHash": "4d485addc3f559449674cec73b707282",
  "bytecode": "0x6080806040523461001657610f16908161001c8239f35b600080fdfe6080806040526004908136101561001557600080fd5b600090813560e01c908163457726e614610b295750639ed57f321461003957600080fd5b34610b0257610280366003190112610b02573660231215610b02576040519061006182610e21565b61010482368211610b155784905b828210610b19575050366101231215610aea576040519161008f83610e54565b8261014492368411610b1557905b838210610b05575050366101631215610b0257604051916100bd83610e54565b8261018491368311610afe57905b828210610aee575050366101a31215610aea57604051906100eb82610e21565b8161028491368311610ae657905b828210610ad657505050835191602085015160405193602085015260408401526040835282606081011067ffffffffffffffff606085011117610ac3575060608201604052600080516020610ec18339815191528251602084012006907f27727312e429c087c82ddb1a4d455185633d3fa1c4102c438dbf33b140dbae6960608401527f0f91c3f6af1b592292381acc9d22be21f52b88de58b3d596dd0035774e2b81b360808401527f23c957fc120ff0c9a4004bf8c992bf2c7753b95e9a138750ae6096e4b391335060a08401527f0c4da8efa0917bd8ca260fac08a9dc14916b90c0071a7bcf26594a05a255e14360c084015261010081518060e0860152600080516020610ec1833981519152604060a08701606060a0890160075afa91101660406060860160808160065afa167f2a6ab77313421fc1bfab8fdbdf8641abb70e9121af04f2462a4b7b715f358ab160a08601527f2f4e8e2fe2186bd03a3d4d32d5f557a7fac5e5ec798d8947a30d39bb916776a360c08601526020830151908160e0870152604060a08701606060a0890160075afa90600080516020610ec183398151915260406060890160808160065afa93101616167f1e3ef354990294fe33b89bf9d6fb638fddbf1650658e668252848c3dc036dc1160a08601527e1b93d03e73e02da55ee57b2d370b7c9956f881c21fb236a3ad94a7f189b97460c08601526040830151908160e0870152604060a08701606060a0890160075afa90600080516020610ec183398151915260406060890160808160065afa93101616167f2a8b4b3f974cec386367b1822a83e3b1dd0060cc261d6514cbf9e78058c8f6d560a08601527f06b6638225692828ec7ea2facada05dd82129484addf0fc8cf5b6d544c5db12c60c08601526060830151908160e0870152604060a08701606060a0890160075afa90600080516020610ec183398151915260406060890160808160065afa93101616167f1370d0da835110bc725ad47ca8fb38e7ceb73428dec3066db82f1bddcbf039b060a08601527f08ba4c276d2de2df620d924392e0101f1594c96c39179c9992d06144e697d8ab60c08601526080830151908160e08701526001604060a08801606060a08a0160075afa91600080516020610ec1833981519152604060608a0160808160065afa9410161616167f0fea1dfd0733fbf70fdb8e420aeeab001c8a319a9aba54ace1c28908a230e0c960a08601527f1ff21eddc9b03348a2ebf45089eac925fa7a8696be4f2142bafa76641c8a71b460c086015260a0830151908160e0870152604060a08701606060a0890160075afa90600080516020610ec183398151915260406060890160808160065afa93101616167f1b3d031d6de79a4c8a7af57bbd56841c06af69ed3c23f72910aac692b0c8756c60a08601527f0b9da082221728154d6836a717d3345aa2273bbe4947ac78e17b51087186d0ec60c086015260c0830151908160e0870152604060a08701606060a0890160075afa90600080516020610ec183398151915260406060890160808160065afa93101616167f25daab5ee642f75d94292bed6f5a57aac3b1ab101d8365fd55040202de82670b60a08601527f1d827ba1e3f484b7673bf96275d374f6c29202a96033d36e621a8d621fd1669060c086015260e0830151908160e0870152604060a08701606060a0890160075afa90600080516020610ec183398151915260406060890160808160065afa9310161616917f0ce5c47d3b68a798c3cc0959545b24ab049b063c95d579c4b754ee13bb76c00260a08601527f1dfd0dd444a43eb4ea99e2520bb0653b26482cb5eb599048cc9102edd866ef4c60c086015201519160e0840152604060a08401606060a0860160075afa90600080516020610ec183398151915260406060860160808160065afa875160a0870152602088015160c0870152931016161660406060830160808160065afa1692608060608301519201519315610ab257602093849286519684810151906040810151606082015160808301519060a08401519260e060c0860151950151958a6040519e8f908152015260408d015260608c015260808b015260a08a015260c089015260e08801527f1a4ffe879d6f57da5fcfab25732781a178c43a1bd5db258bb59f63446bc379226101008801527f0bd0a33748a29d6d353ac456a4abd74fcb02850d5e45055891032ed288cbe1fb6101208801527f272d73781ee495123670b727c2a5004e9e3495c529fa8f0bb7ae3afe15bad88c6101408801527f1151eb114db9e906fefcb8d9a9d6d945ebd7b1033a086e9c51f0010060a851f66101608801527f28d33345910837e694e8e338b8be03bc3ec5142c7c7d421f5789b337bde03e3b6101808801527f2f21c4f14efcaa78ccd7be4793c6ce219b115b5fd5d04c5233e3f86f676b76e96101a08801527f2ee08eba17935b7a68ecb2fbdbeffa3a06cabfafe3af9cc37f4fdc26d30a7d6a6101c08801527f024d25f457495e5cf3b475cc391210cc829551aa3c9ed24a161239666d87c43f6101e08801527f056fdb916a4b1d4f4ca525b863ed0909f39531a2598dc8215afd01d6480868756102008801527f2c6324aa3c1f3f4b6a4002f0da91e02f63dc1e34b4e7e19d3f798af7a48a08c16102208801526102408701526102608601527f04dd8a1353aaaee5558351ec35aa4a143218abce1b19d12ec7b8bc2977d759fd6102808601527f0d65a75537008e4a6b56589cde13b268f4b88e72d86a29145cac1e7613fb295c6102a08601527f2f0f7da7e9c95dfc9e0659298a90a2150783a4b815e6305abed265a481820e6a6102c08601527f1650018f46f5ef3d9c9a19bb959eb9ea2aa7b2d2e028ab661c3c0c793450c2926102e0860152805161030086015201516103208401527f284a357230305977c21bb220dea0062c153b7c37616eba096ef1f9267f27d6306103408401527f0e22c3c459073c82015677553eb9b567d0583f0c4d1e8c9b35811abec75c00326103608401527f1bbfb34e4db99d9aceac51eaa5ebe0247bf021bcbd70007ba4fb962f7f1ccf506103808401527f095d47e8f09970cd45484545134133712a4a3c0f568086dc2fef7b7b6a417a616103a084015280516103c084015201516103e08201527f1c614f1569787044b44b8d72a746174d6c76282facd0526403e5aedd6585549f6104008201527f0d76cec398d2eae3a92b692f9d504d26222447af6f7ea6be5250acffe62cd58b6104208201527f1b1e675bb518a7cbbfa9403bf516e2ecc8b08a8835be6c9332ba56e2e272c0cf6104408201527f079d97cdc2dcb57d68229f19a73aefc097eef227137bd9c084b72d4fef131c306104608201526020816104808160085afa90511615610aa357602060405160018152f35b604051631ff3747d60e21b8152fd5b60405163a54f8e2760e01b81528690fd5b634e487b7160e01b815260418752602490fd5b81358152602091820191016100f9565b8480fd5b5080fd5b81358152602091820191016100cb565b8380fd5b80fd5b813581526020918201910161009d565b8280fd5b813581526020918201910161006f565b838334610b025760209283600319360112610aea5767ffffffffffffffff928035848111610afe5736602382011215610afe578082013590858211610ae6573660248383010111610ae657610b7d84610e21565b6101009182368637808811610e1d576024820135855280604011610e1d5760448201358886015280606011610e1d5760648201356040860152608091818311610e1957608481013560608701528160a011610e195760a4810135838701528160c011610e195760c481013560a08701528160e011610e195760e481013560c0870152818411610e19576101048082013560e088015260405190610c1f82610e54565b60403683378361012011610e155761012483013582528361014011610e155761014492838101358c84015260405194610c5786610e54565b60403687378061016011610e0d5761016482013586528061018011610e0d57610184968d888401359088015260405198610c908a610e21565b368a37816101a011610e11576101a48301358952816101b011610e11578d6101c4840135821c908a0152816101c011610e11576101d4830135811c60408a0152816101d011610e11576101e4830135811c60608a0152816101e011610e11576101f4830135811c908901528061020011610e0d5761020482013560a08901528061022011610e0d5761022482013560c089015261024011610e0957610d7796959492610d6f9492610244610d6793013560e0890152610d5f6040519b634f6abf9960e11b8d528b8d0190610e70565b8a0190610e98565b870190610e98565b840190610e70565b848261028481305afa938415610dfe578394610d9a575b85856040519015158152f35b909192935084913d8611610df6575b601f8301601f1916840191821184831017610de357508491839160405281010312610aea5751908115158203610b02575082808080610d8e565b634e487b7160e01b855260419052602484fd5b3d9250610da9565b6040513d85823e3d90fd5b8980fd5b8a80fd5b8b80fd5b8880fd5b8680fd5b8580fd5b610100810190811067ffffffffffffffff821117610e3e57604052565b634e487b7160e01b600052604160045260246000fd5b6040810190811067ffffffffffffffff821117610e3e57604052565b6000915b60088310610e8157505050565b600190825181526020809101920192019190610e74565b6000915b60028310610ea957505050565b600190825181526020809101920192019190610e9c56fe30644e72e131a029b85045b68181585d2833e84879b9709143e1f593f0000001a2646970667358221220b3f33901ca5f7a4c96fccaf31e9f1bb506ff05eb61b9f0bb3c841d3458271c2764736f6c63430008140033",
  "devdoc": {
    "author": "Remco Bloemen",
    "errors": {
      "ProofInvalid()": [
        {
          "details": "This can mean that provided Groth16 proof points are not on their curves, that pairing equation fails, or that the proof is not for the provided public input."
        }
      ],
      "PublicInputNotInField()": [
        {
          "details": "Public input elements are not automatically reduced, as this is can be a dangerous source of bugs."
        }
      ]
    },
    "kind": "dev",
    "methods": {
      "verifyProof(uint256[8],uint256[2],uint256[2],uint256[8])": {
        "params": {
          "input": "the public input field elements in the scalar field Fr. Elements must be reduced.",
          "proof": "the points (A, B, C) in EIP-197 format matching the output of compressProof."
        }
      }
    },
    "title": "Groth16 verifier template.",
    "version": 1
  },
  "userdoc": {
    "errors": {
      "ProofInvalid()": [
        {
          "notice": "The proof is invalid."
        }
      ],
      "PublicInputNotInField()": [
        {
          "notice": "Some of the provided public input values are larger than the field modulus."
        }
      ]
    },
    "kind": "user",
    "methods": {
      "verifyProof(uint256[8],uint256[2],uint256[2],uint256[8])": {
        "notice": "Verify an uncompressed Groth16 proof.Reverts with InvalidProof if the proof is invalid or with PublicInputNotInField the public input is not reduced.There is no return value. If the function does not revert, the proof was successfully verified."
      }
    },
    "notice": "Supports verifying Groth16 proofs. Proofs can be in uncompressed (256 bytes) and compressed (128 bytes) format. A view function is provided to compress proofs.See <https://2π.com/23/bn254-compression> for further explanation.",
    "version": 1
  },
  "storageLayout": {
    "storage": [],
    "types": null
  }
}