{
  "address": "0xE9533976C590200E32d95C53f06AE12d292cFc47",
  "abi": [
    {
      "inputs": [
        {
          "internalType": "address",
          "name": "_brevisProof",
          "type": "address"
        },
        {
          "internalType": "contract ITotalFeeApp",
          "name": "_totalFeeApp",
          "type": "address"
        }
      ],
      "stateMutability": "nonpayable",
      "type": "constructor"
    },
    {
      "anonymous": false,
      "inputs": [
        {
          "indexed": true,
          "internalType": "address",
          "name": "user",
          "type": "address"
        },
        {
          "indexed": false,
          "internalType": "uint64",
          "name": "fromEpoch",
          "type": "uint64"
        },
        {
          "indexed": false,
          "internalType": "uint64",
          "name": "toEpoch",
          "type": "uint64"
        },
        {
          "indexed": false,
          "internalType": "uint256",
          "name": "amount",
          "type": "uint256"
        }
      ],
      "name": "Claimed",
      "type": "event"
    },
    {
      "anonymous": false,
      "inputs": [
        {
          "indexed": true,
          "internalType": "address",
          "name": "previousOwner",
          "type": "address"
        },
        {
          "indexed": true,
          "internalType": "address",
          "name": "newOwner",
          "type": "address"
        }
      ],
      "name": "OwnershipTransferred",
      "type": "event"
    },
    {
      "inputs": [
        {
          "internalType": "bytes32",
          "name": "_requestId",
          "type": "bytes32"
        },
        {
          "internalType": "bytes",
          "name": "_appCircuitOutput",
          "type": "bytes"
        }
      ],
      "name": "brevisCallback",
      "outputs": [],
      "stateMutability": "nonpayable",
      "type": "function"
    },
    {
      "inputs": [],
      "name": "brevisProof",
      "outputs": [
        {
          "internalType": "contract IBrevisProof",
          "name": "",
          "type": "address"
        }
      ],
      "stateMutability": "view",
      "type": "function"
    },
    {
      "inputs": [],
      "name": "maxEpochPerPosition",
      "outputs": [
        {
          "internalType": "uint8",
          "name": "",
          "type": "uint8"
        }
      ],
      "stateMutability": "view",
      "type": "function"
    },
    {
      "inputs": [],
      "name": "maxPositionsPerUser",
      "outputs": [
        {
          "internalType": "uint8",
          "name": "",
          "type": "uint8"
        }
      ],
      "stateMutability": "view",
      "type": "function"
    },
    {
      "inputs": [],
      "name": "owner",
      "outputs": [
        {
          "internalType": "address",
          "name": "",
          "type": "address"
        }
      ],
      "stateMutability": "view",
      "type": "function"
    },
    {
      "inputs": [],
      "name": "renounceOwnership",
      "outputs": [],
      "stateMutability": "nonpayable",
      "type": "function"
    },
    {
      "inputs": [],
      "name": "rewardToken",
      "outputs": [
        {
          "internalType": "address",
          "name": "",
          "type": "address"
        }
      ],
      "stateMutability": "view",
      "type": "function"
    },
    {
      "inputs": [
        {
          "internalType": "uint8",
          "name": "_maxEpochPerPosition",
          "type": "uint8"
        }
      ],
      "name": "setMaxEpochPerPosition",
      "outputs": [],
      "stateMutability": "nonpayable",
      "type": "function"
    },
    {
      "inputs": [
        {
          "internalType": "uint8",
          "name": "_maxPositionsPerUser",
          "type": "uint8"
        }
      ],
      "name": "setMaxPositionsPerUser",
      "outputs": [],
      "stateMutability": "nonpayable",
      "type": "function"
    },
    {
      "inputs": [
        {
          "internalType": "address",
          "name": "_rewardToken",
          "type": "address"
        }
      ],
      "name": "setRewardToken",
      "outputs": [],
      "stateMutability": "nonpayable",
      "type": "function"
    },
    {
      "inputs": [
        {
          "internalType": "bytes32",
          "name": "_vkHash",
          "type": "bytes32"
        }
      ],
      "name": "setVkHash",
      "outputs": [],
      "stateMutability": "nonpayable",
      "type": "function"
    },
    {
      "inputs": [],
      "name": "totalFeeApp",
      "outputs": [
        {
          "internalType": "contract ITotalFeeApp",
          "name": "",
          "type": "address"
        }
      ],
      "stateMutability": "view",
      "type": "function"
    },
    {
      "inputs": [
        {
          "internalType": "address",
          "name": "newOwner",
          "type": "address"
        }
      ],
      "name": "transferOwnership",
      "outputs": [],
      "stateMutability": "nonpayable",
      "type": "function"
    },
    {
      "inputs": [
        {
          "internalType": "address",
          "name": "",
          "type": "address"
        }
      ],
      "name": "userClaimedTo",
      "outputs": [
        {
          "internalType": "uint64",
          "name": "",
          "type": "uint64"
        }
      ],
      "stateMutability": "view",
      "type": "function"
    },
    {
      "inputs": [
        {
          "internalType": "bytes32",
          "name": "_requestId",
          "type": "bytes32"
        },
        {
          "internalType": "uint64",
          "name": "_chainId",
          "type": "uint64"
        },
        {
          "components": [
            {
              "internalType": "bytes32",
              "name": "smtRoot",
              "type": "bytes32"
            },
            {
              "components": [
                {
                  "internalType": "uint64",
                  "name": "blkNum",
                  "type": "uint64"
                },
                {
                  "internalType": "uint64",
                  "name": "receiptIndex",
                  "type": "uint64"
                },
                {
                  "components": [
                    {
                      "components": [
                        {
                          "internalType": "uint8",
                          "name": "valueFromTopic",
                          "type": "uint8"
                        },
                        {
                          "internalType": "uint64",
                          "name": "valueIndex",
                          "type": "uint64"
                        },
                        {
                          "internalType": "address",
                          "name": "contractAddress",
                          "type": "address"
                        },
                        {
                          "internalType": "bytes32",
                          "name": "logTopic0",
                          "type": "bytes32"
                        }
                      ],
                      "internalType": "struct Brevis.LogExtraInfo",
                      "name": "logExtraInfo",
                      "type": "tuple"
                    },
                    {
                      "internalType": "uint64",
                      "name": "logIndex",
                      "type": "uint64"
                    },
                    {
                      "internalType": "bytes32",
                      "name": "value",
                      "type": "bytes32"
                    }
                  ],
                  "internalType": "struct Brevis.LogInfo[5]",
                  "name": "logs",
                  "type": "tuple[5]"
                }
              ],
              "internalType": "struct Brevis.ReceiptInfo[]",
              "name": "receipts",
              "type": "tuple[]"
            },
            {
              "components": [
                {
                  "internalType": "bytes32",
                  "name": "blockHash",
                  "type": "bytes32"
                },
                {
                  "internalType": "address",
                  "name": "account",
                  "type": "address"
                },
                {
                  "internalType": "bytes32",
                  "name": "slot",
                  "type": "bytes32"
                },
                {
                  "internalType": "bytes32",
                  "name": "slotValue",
                  "type": "bytes32"
                },
                {
                  "internalType": "uint64",
                  "name": "blockNumber",
                  "type": "uint64"
                }
              ],
              "internalType": "struct Brevis.StorageInfo[]",
              "name": "stores",
              "type": "tuple[]"
            },
            {
              "components": [
                {
                  "internalType": "bytes32",
                  "name": "leafHash",
                  "type": "bytes32"
                },
                {
                  "internalType": "bytes32",
                  "name": "blockHash",
                  "type": "bytes32"
                },
                {
                  "internalType": "uint64",
                  "name": "blockNumber",
                  "type": "uint64"
                },
                {
                  "internalType": "uint64",
                  "name": "blockTime",
                  "type": "uint64"
                },
                {
                  "internalType": "bytes",
                  "name": "leafRlpPrefix",
                  "type": "bytes"
                }
              ],
              "internalType": "struct Brevis.TransactionInfo[]",
              "name": "txs",
              "type": "tuple[]"
            }
          ],
          "internalType": "struct Brevis.ExtractInfos",
          "name": "_extractInfos",
          "type": "tuple"
        }
      ],
      "name": "validateRequest",
      "outputs": [
        {
          "internalType": "bool",
          "name": "",
          "type": "bool"
        }
      ],
      "stateMutability": "view",
      "type": "function"
    },
    {
      "inputs": [],
      "name": "vkHash",
      "outputs": [
        {
          "internalType": "bytes32",
          "name": "",
          "type": "bytes32"
        }
      ],
      "stateMutability": "view",
      "type": "function"
    }
  ],
  "transactionHash": "0x4b96c4f9b92d81dd4cc2d9c26870b068b728325a1eac1523cdd259dbd0df59e7",
  "args": [
    "0x9Bb46D5100d2Db4608112026951c9C965b233f4D",
    "0xfc6b18d694F2D137dB762B152736Ba098F9808d9"
  ],
  "numDeployments": 4,
  "solcInputHash": "c51b7910c8704204c9bbc6ca807549f1",
  "bytecode": "0x60a0346100d057601f611aef38819003918201601f19168301916001600160401b038311848410176100d55780849260409485528339810103126100d05780516001600160a01b0391828216918290036100d05760200151908282168092036100d05760805260005460018060a01b0319903382821617600055604051933391167f8be0079c531659141344cd1fd0a4f28419497f9722a3daafe3b4186f6b6457e0600080a36003541617600355611a0390816100ec823960805181818161030c01528181610a4c0152610de00152f35b600080fd5b634e487b7160e01b600052604160045260246000fdfe6080604052600436101561001257600080fd5b60003560e01c8063494ad0c5146101175780634fe840f5146101125780635f38b4211461010d578063715018a6146101085780637859f6d91461010357806379d6b6a2146100fe5780637c08aa74146100f9578063809e3d1b146100f45780638aee8127146100ef5780638da5cb5b146100ea57806397b40dc5146100e5578063c7f5aaa0146100e0578063d20870a5146100db578063f2fde38b146100d6578063f77eae11146100d15763f7c618c1146100cc57600080fd5b610bb6565b610b3f565b610a94565b610a70565b610a2c565b6109e8565b6109c1565b61096c565b610948565b610872565b6102a4565b610275565b610207565b6101e0565b6101c2565b61013f565b6004359060ff8216820361012c57565b600080fd5b359060ff8216820361012c57565b3461012c57602036600319011261012c5761015861011c565b7fffffffffffffffffffff00ffffffffffffffffffffffffffffffffffffffffff75ff000000000000000000000000000000000000000000600054926101a8336001600160a01b03861614610bdd565b60a81b16911617600055600080f35b600091031261012c57565b3461012c57600036600319011261012c576020600154604051908152f35b3461012c57600036600319011261012c5760206001600160a01b0360035416604051908152f35b3461012c576000806003193601126102725780805473ffffffffffffffffffffffffffffffffffffffff196001600160a01b03821691610248338414610bdd565b1682557f8be0079c531659141344cd1fd0a4f28419497f9722a3daafe3b4186f6b6457e08280a380f35b80fd5b3461012c57602036600319011261012c5761029c6001600160a01b03600054163314610bdd565b600435600155005b3461012c5760408060031936011261012c5767ffffffffffffffff60243581811161012c573660238201121561012c57806004013591821161012c576024810190602483369201011161012c578251632cc27dc960e11b8152600480359082015283816024817f00000000000000000000000000000000000000000000000000000000000000006001600160a01b03165afa9081156103e35760009081926103ae575b50610353368585610747565b602081519101200361036b576103699350610fd1565b005b6064845162461bcd60e51b815260206004820152602060248201527f6661696c656420746f206f70656e206f757470757420636f6d6d69746d656e746044820152fd5b91508482813d83116103dc575b6103c581836104b3565b810103126102725750602081519101519038610347565b503d6103bb565b610dc7565b6024359067ffffffffffffffff8216820361012c57565b359067ffffffffffffffff8216820361012c57565b634e487b7160e01b600052604160045260246000fd5b6060810190811067ffffffffffffffff82111761044657604052565b610414565b60a0810190811067ffffffffffffffff82111761044657604052565b6080810190811067ffffffffffffffff82111761044657604052565b67ffffffffffffffff811161044657604052565b6040810190811067ffffffffffffffff82111761044657604052565b90601f8019910116810190811067ffffffffffffffff82111761044657604052565b67ffffffffffffffff81116104465760051b60200190565b600435906001600160a01b038216820361012c57565b35906001600160a01b038216820361012c57565b81601f8201121561012c5780359061052e826104d5565b9260409261053e845195866104b3565b8085526020918280870192600a1b8501019381851161012c578301915b84831061056b5750505050505090565b610400808484031261012c578651906105838261042a565b61058c856103ff565b82526105998686016103ff565b8683015283605f8601121561012c578751906105b48261044b565b85018185821161012c579187939194928a8801905b8682106105e657505061040094508982015281520192019161055b565b9080929496939550870360c0811261012c578b51916106048361042a565b608080921261012c5760c09261065e8c938f80519061062282610467565b61062b89610131565b8252610638878a016103ff565b87830152610647818a01610503565b9082015260608089013590820152835286016103ff565b838201528d60a08601359082015281520191018894929593916105c9565b81601f8201121561012c57803590610693826104d5565b926040906106a3825195866104b3565b838552602091828601918360a08097028601019481861161012c578401925b8584106106d3575050505050505090565b868483031261012c5784879184516106ea8161044b565b863581526106f9838801610503565b83820152858701358682015260608088013590820152608061071c8189016103ff565b908201528152019301926106c2565b67ffffffffffffffff811161044657601f01601f191660200190565b9291926107538261072b565b9161076160405193846104b3565b82948184528183011161012c578281602093846000960137010152565b81601f8201121561012c57803590610795826104d5565b926040926107a5845195866104b3565b808552602093848087019260051b8501019383851161012c57858101925b8584106107d4575050505050505090565b67ffffffffffffffff90843582811161012c5783019060a09283601f19848a03011261012c578551926108068461044b565b8a8101358452868101358b8501526060946108228683016103ff565b888601526080956108348784016103ff565b9086015281013591821161012c57019187603f8401121561012c57899361086389858988809801359101610747565b908201528152019301926107c3565b3461012c5760031960603682011261012c5761088c6103e8565b6044359067ffffffffffffffff9283831161012c57608090833603011261012c57604051906108ba82610467565b82600401358252602483013584811161012c576108dd9060043691860101610517565b6020830152604483013584811161012c576108fe906004369186010161067c565b6040830152606483013593841161012c57610925610932936004610944963692010161077e565b6060830152600435610dd3565b60405190151581529081906020820190565b0390f35b3461012c57600036600319011261012c57602060ff60005460a01c16604051908152f35b3461012c57602036600319011261012c576109856104ed565b6001600160a01b039061099d82600054163314610bdd565b1673ffffffffffffffffffffffffffffffffffffffff196002541617600255600080f35b3461012c57600036600319011261012c5760206001600160a01b0360005416604051908152f35b3461012c57602036600319011261012c576001600160a01b03610a096104ed565b166000526004602052602067ffffffffffffffff60406000205416604051908152f35b3461012c57600036600319011261012c5760206040516001600160a01b037f0000000000000000000000000000000000000000000000000000000000000000168152f35b3461012c57600036600319011261012c57602060ff60005460a81c16604051908152f35b3461012c57602036600319011261012c57610aad6104ed565b6001600160a01b03610ac481600054163314610bdd565b811615610ad45761036990610c28565b60405162461bcd60e51b815260206004820152602660248201527f4f776e61626c653a206e6577206f776e657220697320746865207a65726f206160448201527f64647265737300000000000000000000000000000000000000000000000000006064820152608490fd5b3461012c57602036600319011261012c57610b5861011c565b7fffffffffffffffffffffff00ffffffffffffffffffffffffffffffffffffffff74ff000000000000000000000000000000000000000060005492610ba7336001600160a01b03861614610bdd565b60a01b16911617600055600080f35b3461012c57600036600319011261012c5760206001600160a01b0360025416604051908152f35b15610be457565b606460405162461bcd60e51b815260206004820152602060248201527f4f776e61626c653a2063616c6c6572206973206e6f7420746865206f776e65726044820152fd5b600054906001600160a01b03809116918273ffffffffffffffffffffffffffffffffffffffff19821617600055167f8be0079c531659141344cd1fd0a4f28419497f9722a3daafe3b4186f6b6457e0600080a3565b90815180825260208080930193019160005b828110610c9d575050505090565b835180518652808301516001600160a01b031686840152604080820151908701526060808201519087015260809081015167ffffffffffffffff169086015260a09094019392810192600101610c8f565b919082519283825260005b848110610d1a575050826000602080949584010152601f8019910116010190565b602081830181015184830182015201610cf9565b908082519081815260208091019281808460051b8301019501936000915b848310610d5c5750505050505090565b9091929394958480610db7600193601f198682030187528a5180518252838101518483015267ffffffffffffffff6040818184015116908401526060908183015116908301526080809101519160a080928201520190610cee565b9801930193019194939290610d4c565b6040513d6000823e3d90fd5b916001600160a01b0390817f00000000000000000000000000000000000000000000000000000000000000001691823b1561012c57929391906040948551958694631f022a9d60e21b8652600486015267ffffffffffffffff809216602486015260609081604487015260e486019284516064880152602093848601519460808060848b01528651809352816101048b0197019360009b8c925b858410610edf575050505050505092859392610eb192610e9f86958401519260631993848883030160a4890152610c7d565b920151908483030160c4850152610d2e565b03915afa80156103e357610ec6575b50600190565b80610ed3610ed992610483565b806101b7565b38610ec0565b9193869a9b9c508d8882989b939597999a9b518781511685528784820151168486015201518a84019091905b8b8d60058410610f36575050505050610400600192019a019401918d9b9a9998979694959391610e6d565b9160c091859693600195965190808d83519060ff82511687528882015116888701528d8582015116858701520151908401528b85820151168a840152015160a082015201930191018892610f0b565b15610f8c57565b60405162461bcd60e51b815260206004820152600d60248201527f696c6c6567616c20636c61696d000000000000000000000000000000000000006044820152606490fd5b6001540361110b576001600160a01b0361100f6110c3937fb310b1a813b8706d49ddcd057f28a8477a62d9d6f60fcb71d3e2f2037d074ec0936115b9565b9067ffffffffffffffff9692968061104b61103d876001600160a01b03166000526004602052604060002090565b5467ffffffffffffffff1690565b16806110f8575b505061109281611075866001600160a01b03166000526004602052604060002090565b9067ffffffffffffffff1667ffffffffffffffff19825416179055565b816110c8575b6040805167ffffffffffffffff98891681529790911660208801528601529116929081906060820190565b0390a2565b6110f382856110ee6110e26002546001600160a01b031690565b6001600160a01b031690565b611150565b611098565b61110491891611610f85565b3880611052565b60405162461bcd60e51b815260206004820152600a60248201527f696e76616c696420766b000000000000000000000000000000000000000000006044820152606490fd5b91604051916020938484019263a9059cbb60e01b84526001600160a01b03809316602486015260448501526044845261118884610467565b16906040519261119784610497565b8484527f5361666545524332303a206c6f772d6c6576656c2063616c6c206661696c656485850152823b1561120a576111e3939260009283809351925af16111dd6112d9565b90611309565b805190816111f057505050565b826112089361120393830101910161124f565b611267565b565b60405162461bcd60e51b815260048101869052601d60248201527f416464726573733a2063616c6c20746f206e6f6e2d636f6e74726163740000006044820152606490fd5b9081602091031261012c5751801515810361012c5790565b1561126e57565b60405162461bcd60e51b815260206004820152602a60248201527f5361666545524332303a204552433230206f7065726174696f6e20646964206e60448201527f6f742073756363656564000000000000000000000000000000000000000000006064820152608490fd5b3d15611304573d906112ea8261072b565b916112f860405193846104b3565b82523d6000602084013e565b606090565b90919015611315575090565b8151156113255750805190602001fd5b60405162461bcd60e51b815260206004820152908190611349906024830190610cee565b0390fd5b9060141161012c5790601490565b9093929384831161012c57841161012c578101920390565b6bffffffffffffffffffffffff19903581811693926014811061139557505050565b60140360031b82901b16169150565b634e487b7160e01b600052601160045260246000fd5b60ff16603e029060ff82169182036113ce57565b6113a4565b60ff16601f029060ff82169182036113ce57565b60ff166018019060ff82116113ce57565b60ff60019116019060ff82116113ce57565b60ff60029116019060ff82116113ce57565b60ff1660ff81146113ce5760010190565b818102929181159184041417156113ce57565b60140190816014116113ce57565b90600882018092116113ce57565b90601082018092116113ce57565b90601882018092116113ce57565b90601f82018092116113ce57565b919082018092116113ce57565b7fffffffffffffffff00000000000000000000000000000000000000000000000090358181169392600881106114c857505050565b60080360031b82901b16169150565b60ff1990358181169392601f81106114ee57505050565b601f0360031b82901b16169150565b90600167ffffffffffffffff809316019182116113ce57565b91909167ffffffffffffffff808094169116019182116113ce57565b9081604091031261012c5760405190604082019082821067ffffffffffffffff83111761044657602091604052805183520151602082015290565b1561157457565b60405162461bcd60e51b815260206004820152601960248201527f65706f636820746f74616c20666565206e6f74207269676874000000000000006044820152606490fd5b6000916000936115db6115d56115cf848661134d565b90611373565b60601c90565b92600054946116006115fa6115f560ff8960a01c166113ba565b6113e7565b60ff1690565b966000905b60ff821660ff8960a81c1681101561196257611624611629918b61142d565b611440565b9261165061164a61164461163c8761144e565b878b8a61135b565b90611493565b60c01c90565b9961167461164a6116446116638861144e565b61166c8961145c565b908c8b61135b565b9861169861164a6116446116878961145c565b6116908a61146a565b908d8c61135b565b9760005b60ff8d60a01c1660ff8216101561189f578d908c8c8c61175461171061170a8f8f61171684846116e18c6116db6115fa6116d58861145c565b926113d3565b90611486565b6117028d6116db6115fa6116fd6116f78a61145c565b936113f8565b6113d3565b908b8761135b565b906114d7565b60081c90565b9661174e8a6116db6115fa6116fd6117486117426117338961145c565b6116db6115fa6116fd896113f8565b9761145c565b9361140a565b9261135b565b9267ffffffffffffffff80831615159216611892575b8161186d575b50611787575b5050611782915061141c565b61169c565b906117e0916117af6117a46110e26003546001600160a01b031690565b9560ff861690611516565b6040805163a83a2e6560e01b815267ffffffffffffffff909216600483015295909386918591829081906024820190565b03915afa9485156103e3576117829561183894602092600092611840575b505061182e81517effffffffffffffffffffffffffffffffffffffffffffffffffffffffffffff8095161461156d565b015191161461156d565b8e9138611776565b61185f9250803d10611866575b61185781836104b3565b810190611532565b38806117fe565b503d61184d565b905067ffffffffffffffff8061188660ff871688611516565b9216911611158f611770565b60ff85161515915061176a565b5095509a90939298919667ffffffffffffffff80821615159116611924575b611912575b5067ffffffffffffffff881680159081156118fe575b506118f4575b506118e99061141c565b909795939193611605565b96506118e96118df565b905067ffffffffffffffff821611386118d9565b61191d9196506114fd565b94386118c3565b5067ffffffffffffffff87168015908115611940575b506118be565b905061195b61194e836114fd565b67ffffffffffffffff1690565b103861193a565b50959761170a91509261171092976119ca959661174e6119a16116246119a69860ff611996611624828960a81c168461142d565b9660a81c169061142d565b611478565b7effffffffffffffffffffffffffffffffffffffffffffffffffffffffffffff1690565b9056fea26469706673582212203b7018f651767b529d04618da729b631b487a12664be0ff2d3a9a9f4ce46968464736f6c63430008140033",
  "devdoc": {
    "kind": "dev",
    "methods": {
      "owner()": {
        "details": "Returns the address of the current owner."
      },
      "renounceOwnership()": {
        "details": "Leaves the contract without owner. It will not be possible to call `onlyOwner` functions anymore. Can only be called by the current owner. NOTE: Renouncing ownership will leave the contract without an owner, thereby removing any functionality that is only available to the owner."
      },
      "transferOwnership(address)": {
        "details": "Transfers ownership of the contract to a new account (`newOwner`). Can only be called by the current owner."
      }
    },
    "version": 1
  },
  "userdoc": {
    "kind": "user",
    "methods": {},
    "version": 1
  },
  "storageLayout": {
    "storage": [
      {
        "astId": 7,
        "contract": "contracts/sdk/apps/examples/pancake/SingleRewardApp.sol:SingleRewardApp",
        "label": "_owner",
        "offset": 0,
        "slot": "0",
        "type": "t_address"
      },
      {
        "astId": 754,
        "contract": "contracts/sdk/apps/examples/pancake/SingleRewardApp.sol:SingleRewardApp",
        "label": "maxEpochPerPosition",
        "offset": 20,
        "slot": "0",
        "type": "t_uint8"
      },
      {
        "astId": 756,
        "contract": "contracts/sdk/apps/examples/pancake/SingleRewardApp.sol:SingleRewardApp",
        "label": "maxPositionsPerUser",
        "offset": 21,
        "slot": "0",
        "type": "t_uint8"
      },
      {
        "astId": 758,
        "contract": "contracts/sdk/apps/examples/pancake/SingleRewardApp.sol:SingleRewardApp",
        "label": "vkHash",
        "offset": 0,
        "slot": "1",
        "type": "t_bytes32"
      },
      {
        "astId": 760,
        "contract": "contracts/sdk/apps/examples/pancake/SingleRewardApp.sol:SingleRewardApp",
        "label": "rewardToken",
        "offset": 0,
        "slot": "2",
        "type": "t_address"
      },
      {
        "astId": 763,
        "contract": "contracts/sdk/apps/examples/pancake/SingleRewardApp.sol:SingleRewardApp",
        "label": "totalFeeApp",
        "offset": 0,
        "slot": "3",
        "type": "t_contract(ITotalFeeApp)744"
      },
      {
        "astId": 777,
        "contract": "contracts/sdk/apps/examples/pancake/SingleRewardApp.sol:SingleRewardApp",
        "label": "userClaimedTo",
        "offset": 0,
        "slot": "4",
        "type": "t_mapping(t_address,t_uint64)"
      }
    ],
    "types": {
      "t_address": {
        "encoding": "inplace",
        "label": "address",
        "numberOfBytes": "20"
      },
      "t_bytes32": {
        "encoding": "inplace",
        "label": "bytes32",
        "numberOfBytes": "32"
      },
      "t_contract(ITotalFeeApp)744": {
        "encoding": "inplace",
        "label": "contract ITotalFeeApp",
        "numberOfBytes": "20"
      },
      "t_mapping(t_address,t_uint64)": {
        "encoding": "mapping",
        "key": "t_address",
        "label": "mapping(address => uint64)",
        "numberOfBytes": "32",
        "value": "t_uint64"
      },
      "t_uint64": {
        "encoding": "inplace",
        "label": "uint64",
        "numberOfBytes": "8"
      },
      "t_uint8": {
        "encoding": "inplace",
        "label": "uint8",
        "numberOfBytes": "1"
      }
    }
  }
}