{
  "address": "0x5471ea8f739dd37E9B81Be9c5c77754D8AA953E4",
  "abi": [
    {
      "inputs": [
        {
          "internalType": "address",
          "name": "brevisProof",
          "type": "address"
        }
      ],
      "stateMutability": "nonpayable",
      "type": "constructor"
    },
    {
      "anonymous": false,
      "inputs": [
        {
          "indexed": true,
          "internalType": "address",
          "name": "user",
          "type": "address"
        },
        {
          "indexed": false,
          "internalType": "uint64",
          "name": "fromEpoch",
          "type": "uint64"
        },
        {
          "indexed": false,
          "internalType": "uint64",
          "name": "toEpoch",
          "type": "uint64"
        },
        {
          "indexed": false,
          "internalType": "uint256",
          "name": "amount",
          "type": "uint256"
        }
      ],
      "name": "Claimed",
      "type": "event"
    },
    {
      "anonymous": false,
      "inputs": [
        {
          "indexed": true,
          "internalType": "address",
          "name": "previousOwner",
          "type": "address"
        },
        {
          "indexed": true,
          "internalType": "address",
          "name": "newOwner",
          "type": "address"
        }
      ],
      "name": "OwnershipTransferred",
      "type": "event"
    },
    {
      "inputs": [
        {
          "internalType": "bytes32",
          "name": "_requestId",
          "type": "bytes32"
        },
        {
          "internalType": "bytes",
          "name": "_appCircuitOutput",
          "type": "bytes"
        }
      ],
      "name": "brevisCallback",
      "outputs": [],
      "stateMutability": "nonpayable",
      "type": "function"
    },
    {
      "inputs": [],
      "name": "brevisProof",
      "outputs": [
        {
          "internalType": "contract IBrevisProof",
          "name": "",
          "type": "address"
        }
      ],
      "stateMutability": "view",
      "type": "function"
    },
    {
      "inputs": [],
      "name": "owner",
      "outputs": [
        {
          "internalType": "address",
          "name": "",
          "type": "address"
        }
      ],
      "stateMutability": "view",
      "type": "function"
    },
    {
      "inputs": [],
      "name": "renounceOwnership",
      "outputs": [],
      "stateMutability": "nonpayable",
      "type": "function"
    },
    {
      "inputs": [],
      "name": "rewardToken",
      "outputs": [
        {
          "internalType": "address",
          "name": "",
          "type": "address"
        }
      ],
      "stateMutability": "view",
      "type": "function"
    },
    {
      "inputs": [
        {
          "internalType": "address",
          "name": "_rewardToken",
          "type": "address"
        }
      ],
      "name": "setRewardToken",
      "outputs": [],
      "stateMutability": "nonpayable",
      "type": "function"
    },
    {
      "inputs": [
        {
          "internalType": "bytes32",
          "name": "_vkHash",
          "type": "bytes32"
        }
      ],
      "name": "setVkHash",
      "outputs": [],
      "stateMutability": "nonpayable",
      "type": "function"
    },
    {
      "inputs": [
        {
          "internalType": "address",
          "name": "newOwner",
          "type": "address"
        }
      ],
      "name": "transferOwnership",
      "outputs": [],
      "stateMutability": "nonpayable",
      "type": "function"
    },
    {
      "inputs": [
        {
          "internalType": "address",
          "name": "",
          "type": "address"
        }
      ],
      "name": "userClaimedTo",
      "outputs": [
        {
          "internalType": "uint64",
          "name": "",
          "type": "uint64"
        }
      ],
      "stateMutability": "view",
      "type": "function"
    },
    {
      "inputs": [
        {
          "internalType": "bytes32",
          "name": "_requestId",
          "type": "bytes32"
        },
        {
          "internalType": "uint64",
          "name": "_chainId",
          "type": "uint64"
        },
        {
          "components": [
            {
              "internalType": "bytes32",
              "name": "smtRoot",
              "type": "bytes32"
            },
            {
              "components": [
                {
                  "internalType": "uint64",
                  "name": "blkNum",
                  "type": "uint64"
                },
                {
                  "internalType": "uint64",
                  "name": "receiptIndex",
                  "type": "uint64"
                },
                {
                  "components": [
                    {
                      "components": [
                        {
                          "internalType": "uint8",
                          "name": "valueFromTopic",
                          "type": "uint8"
                        },
                        {
                          "internalType": "uint64",
                          "name": "valueIndex",
                          "type": "uint64"
                        },
                        {
                          "internalType": "address",
                          "name": "contractAddress",
                          "type": "address"
                        },
                        {
                          "internalType": "bytes32",
                          "name": "logTopic0",
                          "type": "bytes32"
                        }
                      ],
                      "internalType": "struct Brevis.LogExtraInfo",
                      "name": "logExtraInfo",
                      "type": "tuple"
                    },
                    {
                      "internalType": "uint64",
                      "name": "logIndex",
                      "type": "uint64"
                    },
                    {
                      "internalType": "bytes32",
                      "name": "value",
                      "type": "bytes32"
                    }
                  ],
                  "internalType": "struct Brevis.LogInfo[5]",
                  "name": "logs",
                  "type": "tuple[5]"
                }
              ],
              "internalType": "struct Brevis.ReceiptInfo[]",
              "name": "receipts",
              "type": "tuple[]"
            },
            {
              "components": [
                {
                  "internalType": "bytes32",
                  "name": "blockHash",
                  "type": "bytes32"
                },
                {
                  "internalType": "address",
                  "name": "account",
                  "type": "address"
                },
                {
                  "internalType": "bytes32",
                  "name": "slot",
                  "type": "bytes32"
                },
                {
                  "internalType": "bytes32",
                  "name": "slotValue",
                  "type": "bytes32"
                },
                {
                  "internalType": "uint64",
                  "name": "blockNumber",
                  "type": "uint64"
                }
              ],
              "internalType": "struct Brevis.StorageInfo[]",
              "name": "stores",
              "type": "tuple[]"
            },
            {
              "components": [
                {
                  "internalType": "bytes32",
                  "name": "leafHash",
                  "type": "bytes32"
                },
                {
                  "internalType": "bytes32",
                  "name": "blockHash",
                  "type": "bytes32"
                },
                {
                  "internalType": "uint64",
                  "name": "blockNumber",
                  "type": "uint64"
                },
                {
                  "internalType": "uint64",
                  "name": "blockTime",
                  "type": "uint64"
                },
                {
                  "internalType": "bytes",
                  "name": "leafRlpPrefix",
                  "type": "bytes"
                }
              ],
              "internalType": "struct Brevis.TransactionInfo[]",
              "name": "txs",
              "type": "tuple[]"
            }
          ],
          "internalType": "struct Brevis.ExtractInfos",
          "name": "_extractInfos",
          "type": "tuple"
        }
      ],
      "name": "validateRequest",
      "outputs": [
        {
          "internalType": "bool",
          "name": "",
          "type": "bool"
        }
      ],
      "stateMutability": "view",
      "type": "function"
    },
    {
      "inputs": [],
      "name": "vkHash",
      "outputs": [
        {
          "internalType": "bytes32",
          "name": "",
          "type": "bytes32"
        }
      ],
      "stateMutability": "view",
      "type": "function"
    }
  ],
  "transactionHash": "0x2dfdb2751dfc6360f22aaabac35f4dfe0864f58a7f87968e7b7c4d0b448a5123",
  "args": [
    "0x9Bb46D5100d2Db4608112026951c9C965b233f4D"
  ],
  "numDeployments": 1,
  "solcInputHash": "f25213cf8f8ac45270f5d952cc53a11f",
  "bytecode": "0x60a0346100b757601f61130d38819003918201601f19168301916001600160401b038311848410176100bc578084926020946040528339810103126100b757516001600160a01b0390818116908190036100b7576080526000543360018060a01b0319821617600055604051913391167f8be0079c531659141344cd1fd0a4f28419497f9722a3daafe3b4186f6b6457e0600080a361123a90816100d382396080518181816101ff015281816109210152610c1a0152f35b600080fd5b634e487b7160e01b600052604160045260246000fdfe6080604052600436101561001257600080fd5b60003560e01c80634fe840f5146100c7578063715018a6146100c25780637859f6d9146100bd57806379d6b6a2146100b85780637c08aa74146100b35780638aee8127146100ae5780638da5cb5b146100a957806397b40dc5146100a4578063c7f5aaa01461009f578063f2fde38b1461009a5763f7c618c11461009557600080fd5b6109f0565b610945565b610901565b6108bd565b610896565b610841565b61076b565b610197565b610168565b6100fa565b6100dc565b60009103126100d757565b600080fd5b346100d75760003660031901126100d7576020600154604051908152f35b346100d7576000806003193601126101655780805473ffffffffffffffffffffffffffffffffffffffff196001600160a01b0382169161013b338414610a17565b1682557f8be0079c531659141344cd1fd0a4f28419497f9722a3daafe3b4186f6b6457e08280a380f35b80fd5b346100d75760203660031901126100d75761018f6001600160a01b03600054163314610a17565b600435600155005b346100d7576040806003193601126100d75767ffffffffffffffff6024358181116100d757366023820112156100d75780600401359182116100d757602481019060248336920101116100d7578251632cc27dc960e11b8152600480359082015283816024817f00000000000000000000000000000000000000000000000000000000000000006001600160a01b03165afa9081156102d65760009081926102a1575b50610246368585610640565b602081519101200361025e5761025c9350610e3a565b005b6064845162461bcd60e51b815260206004820152602060248201527f6661696c656420746f206f70656e206f757470757420636f6d6d69746d656e746044820152fd5b91508482813d83116102cf575b6102b881836103a6565b81010312610165575060208151910151903861023a565b503d6102ae565b610c01565b6024359067ffffffffffffffff821682036100d757565b359067ffffffffffffffff821682036100d757565b634e487b7160e01b600052604160045260246000fd5b6060810190811067ffffffffffffffff82111761033957604052565b610307565b60a0810190811067ffffffffffffffff82111761033957604052565b6080810190811067ffffffffffffffff82111761033957604052565b67ffffffffffffffff811161033957604052565b6040810190811067ffffffffffffffff82111761033957604052565b90601f8019910116810190811067ffffffffffffffff82111761033957604052565b67ffffffffffffffff81116103395760051b60200190565b600435906001600160a01b03821682036100d757565b35906001600160a01b03821682036100d757565b81601f820112156100d757803590610421826103c8565b92604092610431845195866103a6565b8085526020918280870192600a1b850101938185116100d7578301915b84831061045e5750505050505090565b61040080848403126100d7578651906104768261031d565b61047f856102f2565b825261048c8686016102f2565b8683015283605f860112156100d7578751906104a78261033e565b8501818582116100d7579187939194928a8801905b8682106104d957505061040094508982015281520192019161044e565b908092949693955087039060c082126100d7578b51906104f88261031d565b60808093126100d7578c519161050d8361035a565b843560ff811681036100d75760c0948f948e95610557938252610531878a016102f2565b87830152610540818a016103f6565b9082015260608089013590820152835286016102f2565b838201528d60a08601359082015281520191018894929593916104bc565b81601f820112156100d75780359061058c826103c8565b9260409061059c825195866103a6565b838552602091828601918360a0809702860101948186116100d7578401925b8584106105cc575050505050505090565b86848303126100d75784879184516105e38161033e565b863581526105f28388016103f6565b8382015285870135868201526060808801359082015260806106158189016102f2565b908201528152019301926105bb565b67ffffffffffffffff811161033957601f01601f191660200190565b92919261064c82610624565b9161065a60405193846103a6565b8294818452818301116100d7578281602093846000960137010152565b81601f820112156100d75780359061068e826103c8565b9260409261069e845195866103a6565b808552602093848087019260051b850101938385116100d757858101925b8584106106cd575050505050505090565b67ffffffffffffffff9084358281116100d75783019060a09283601f19848a0301126100d7578551926106ff8461033e565b8a8101358452868101358b85015260609461071b8683016102f2565b8886015260809561072d8784016102f2565b908601528101359182116100d757019187603f840112156100d757899361075c89858988809801359101610640565b908201528152019301926106bc565b346100d7576003196060368201126100d7576107856102db565b6044359067ffffffffffffffff928383116100d75760809083360301126100d757604051906107b38261035a565b8260040135825260248301358481116100d7576107d6906004369186010161040a565b602083015260448301358481116100d7576107f79060043691860101610575565b604083015260648301359384116100d75761081e61082b93600461083d9636920101610677565b6060830152600435610c0d565b60405190151581529081906020820190565b0390f35b346100d75760203660031901126100d75761085a6103e0565b6001600160a01b039061087282600054163314610a17565b1673ffffffffffffffffffffffffffffffffffffffff196002541617600255600080f35b346100d75760003660031901126100d75760206001600160a01b0360005416604051908152f35b346100d75760203660031901126100d7576001600160a01b036108de6103e0565b166000526003602052602067ffffffffffffffff60406000205416604051908152f35b346100d75760003660031901126100d75760206040516001600160a01b037f0000000000000000000000000000000000000000000000000000000000000000168152f35b346100d75760203660031901126100d75761095e6103e0565b6001600160a01b0361097581600054163314610a17565b8116156109855761025c90610a62565b60405162461bcd60e51b815260206004820152602660248201527f4f776e61626c653a206e6577206f776e657220697320746865207a65726f206160448201527f64647265737300000000000000000000000000000000000000000000000000006064820152608490fd5b346100d75760003660031901126100d75760206001600160a01b0360025416604051908152f35b15610a1e57565b606460405162461bcd60e51b815260206004820152602060248201527f4f776e61626c653a2063616c6c6572206973206e6f7420746865206f776e65726044820152fd5b600054906001600160a01b03809116918273ffffffffffffffffffffffffffffffffffffffff19821617600055167f8be0079c531659141344cd1fd0a4f28419497f9722a3daafe3b4186f6b6457e0600080a3565b90815180825260208080930193019160005b828110610ad7575050505090565b835180518652808301516001600160a01b031686840152604080820151908701526060808201519087015260809081015167ffffffffffffffff169086015260a09094019392810192600101610ac9565b919082519283825260005b848110610b54575050826000602080949584010152601f8019910116010190565b602081830181015184830182015201610b33565b908082519081815260208091019281808460051b8301019501936000915b848310610b965750505050505090565b9091929394958480610bf1600193601f198682030187528a5180518252838101518483015267ffffffffffffffff6040818184015116908401526060908183015116908301526080809101519160a080928201520190610b28565b9801930193019194939290610b86565b6040513d6000823e3d90fd5b916001600160a01b0390817f00000000000000000000000000000000000000000000000000000000000000001691823b156100d757929391906040948551958694631f022a9d60e21b8652600486015267ffffffffffffffff809216602486015260609081604487015260e486019284516064880152602093848601519460808060848b01528651809352816101048b0197019360009b8c925b858410610d19575050505050505092859392610ceb92610cd986958401519260631993848883030160a4890152610ab7565b920151908483030160c4850152610b68565b03915afa80156102d657610d00575b50600190565b80610d0d610d1392610376565b806100cc565b38610cfa565b9193869a9b9c508d8882989b939597999a9b518781511685528784820151168486015201518a84019091905b8b8d60058410610d70575050505050610400600192019a019401918d9b9a9998979694959391610ca7565b9160c091859693600195965190808d83519060ff82511687528882015116888701528d8582015116858701520151908401528b85820151168a840152015160a082015201930191018892610d45565b90600167ffffffffffffffff80931601918211610dd857565b634e487b7160e01b600052601160045260246000fd5b15610df557565b60405162461bcd60e51b815260206004820152600d60248201527f696c6c6567616c20636c61696d000000000000000000000000000000000000006044820152606490fd5b60015403610f82576001600160a01b03610e78610f51937fb310b1a813b8706d49ddcd057f28a8477a62d9d6f60fcb71d3e2f2037d074ec0936111c4565b90610eaa610e9c859894986001600160a01b03166000526003602052604060002090565b5467ffffffffffffffff1690565b67ffffffffffffffff808216610f56575b5050610efb81610ede866001600160a01b03166000526003602052604060002090565b9067ffffffffffffffff1667ffffffffffffffff19825416179055565b610f268285610f21610f156002546001600160a01b031690565b6001600160a01b031690565b610fc7565b6040805167ffffffffffffffff98891681529790911660208801528601529116929081906060820190565b0390a2565b610f72610f65610f7b93610dbf565b67ffffffffffffffff1690565b90891614610dee565b3880610ebb565b60405162461bcd60e51b815260206004820152600a60248201527f696e76616c696420766b000000000000000000000000000000000000000000006044820152606490fd5b91604051916020938484019263a9059cbb60e01b84526001600160a01b038093166024860152604485015260448452610fff8461035a565b16906040519261100e8461038a565b8484527f5361666545524332303a206c6f772d6c6576656c2063616c6c206661696c656485850152823b156110815761105a939260009283809351925af1611054611150565b90611180565b8051908161106757505050565b8261107f9361107a9383010191016110c6565b6110de565b565b60405162461bcd60e51b815260048101869052601d60248201527f416464726573733a2063616c6c20746f206e6f6e2d636f6e74726163740000006044820152606490fd5b908160209103126100d7575180151581036100d75790565b156110e557565b60405162461bcd60e51b815260206004820152602a60248201527f5361666545524332303a204552433230206f7065726174696f6e20646964206e60448201527f6f742073756363656564000000000000000000000000000000000000000000006064820152608490fd5b3d1561117b573d9061116182610624565b9161116f60405193846103a6565b82523d6000602084013e565b606090565b9091901561118c575090565b81511561119c5750805190602001fd5b60405162461bcd60e51b8152602060048201529081906111c0906024830190610b28565b0390fd5b9190806014116100d75780601c116100d757806024116100d7576044116100d757813560601c91601481013560c01c916024601c83013560c01c9201359056fea264697066735822122009e84f5b0ae2e6002c4851d973ca7b93d4a5b2048f186883543e78b9d0eaf20664736f6c63430008140033",
  "devdoc": {
    "kind": "dev",
    "methods": {
      "owner()": {
        "details": "Returns the address of the current owner."
      },
      "renounceOwnership()": {
        "details": "Leaves the contract without owner. It will not be possible to call `onlyOwner` functions anymore. Can only be called by the current owner. NOTE: Renouncing ownership will leave the contract without an owner, thereby removing any functionality that is only available to the owner."
      },
      "transferOwnership(address)": {
        "details": "Transfers ownership of the contract to a new account (`newOwner`). Can only be called by the current owner."
      }
    },
    "version": 1
  },
  "userdoc": {
    "kind": "user",
    "methods": {},
    "version": 1
  },
  "storageLayout": {
    "storage": [
      {
        "astId": 7,
        "contract": "contracts/sdk/apps/examples/pancake/SingleRewardApp.sol:SingleRewardApp",
        "label": "_owner",
        "offset": 0,
        "slot": "0",
        "type": "t_address"
      },
      {
        "astId": 55691,
        "contract": "contracts/sdk/apps/examples/pancake/SingleRewardApp.sol:SingleRewardApp",
        "label": "vkHash",
        "offset": 0,
        "slot": "1",
        "type": "t_bytes32"
      },
      {
        "astId": 55693,
        "contract": "contracts/sdk/apps/examples/pancake/SingleRewardApp.sol:SingleRewardApp",
        "label": "rewardToken",
        "offset": 0,
        "slot": "2",
        "type": "t_address"
      },
      {
        "astId": 55707,
        "contract": "contracts/sdk/apps/examples/pancake/SingleRewardApp.sol:SingleRewardApp",
        "label": "userClaimedTo",
        "offset": 0,
        "slot": "3",
        "type": "t_mapping(t_address,t_uint64)"
      }
    ],
    "types": {
      "t_address": {
        "encoding": "inplace",
        "label": "address",
        "numberOfBytes": "20"
      },
      "t_bytes32": {
        "encoding": "inplace",
        "label": "bytes32",
        "numberOfBytes": "32"
      },
      "t_mapping(t_address,t_uint64)": {
        "encoding": "mapping",
        "key": "t_address",
        "label": "mapping(address => uint64)",
        "numberOfBytes": "32",
        "value": "t_uint64"
      },
      "t_uint64": {
        "encoding": "inplace",
        "label": "uint64",
        "numberOfBytes": "8"
      }
    }
  }
}