{
  "address": "0xf42D5B6e1506D8eB0Df97B491a913a1cfe8d003A",
  "abi": [
    {
      "inputs": [
        {
          "internalType": "address",
          "name": "_brevisProof",
          "type": "address"
        },
        {
          "internalType": "contract ITotalFeeApp",
          "name": "_totalFeeApp",
          "type": "address"
        }
      ],
      "stateMutability": "nonpayable",
      "type": "constructor"
    },
    {
      "anonymous": false,
      "inputs": [
        {
          "indexed": true,
          "internalType": "address",
          "name": "user",
          "type": "address"
        },
        {
          "indexed": false,
          "internalType": "uint64",
          "name": "fromEpoch",
          "type": "uint64"
        },
        {
          "indexed": false,
          "internalType": "uint64",
          "name": "toEpoch",
          "type": "uint64"
        },
        {
          "indexed": false,
          "internalType": "uint256",
          "name": "amount",
          "type": "uint256"
        }
      ],
      "name": "Claimed",
      "type": "event"
    },
    {
      "anonymous": false,
      "inputs": [
        {
          "indexed": true,
          "internalType": "address",
          "name": "previousOwner",
          "type": "address"
        },
        {
          "indexed": true,
          "internalType": "address",
          "name": "newOwner",
          "type": "address"
        }
      ],
      "name": "OwnershipTransferred",
      "type": "event"
    },
    {
      "inputs": [
        {
          "internalType": "bytes32",
          "name": "_requestId",
          "type": "bytes32"
        },
        {
          "internalType": "bytes",
          "name": "_appCircuitOutput",
          "type": "bytes"
        }
      ],
      "name": "brevisCallback",
      "outputs": [],
      "stateMutability": "nonpayable",
      "type": "function"
    },
    {
      "inputs": [],
      "name": "brevisProof",
      "outputs": [
        {
          "internalType": "contract IBrevisProof",
          "name": "",
          "type": "address"
        }
      ],
      "stateMutability": "view",
      "type": "function"
    },
    {
      "inputs": [],
      "name": "maxEpochPerPosition",
      "outputs": [
        {
          "internalType": "uint8",
          "name": "",
          "type": "uint8"
        }
      ],
      "stateMutability": "view",
      "type": "function"
    },
    {
      "inputs": [],
      "name": "maxPositionsPerUser",
      "outputs": [
        {
          "internalType": "uint8",
          "name": "",
          "type": "uint8"
        }
      ],
      "stateMutability": "view",
      "type": "function"
    },
    {
      "inputs": [],
      "name": "owner",
      "outputs": [
        {
          "internalType": "address",
          "name": "",
          "type": "address"
        }
      ],
      "stateMutability": "view",
      "type": "function"
    },
    {
      "inputs": [],
      "name": "renounceOwnership",
      "outputs": [],
      "stateMutability": "nonpayable",
      "type": "function"
    },
    {
      "inputs": [],
      "name": "rewardToken",
      "outputs": [
        {
          "internalType": "address",
          "name": "",
          "type": "address"
        }
      ],
      "stateMutability": "view",
      "type": "function"
    },
    {
      "inputs": [
        {
          "internalType": "uint8",
          "name": "_maxEpochPerPosition",
          "type": "uint8"
        }
      ],
      "name": "setMaxEpochPerPosition",
      "outputs": [],
      "stateMutability": "nonpayable",
      "type": "function"
    },
    {
      "inputs": [
        {
          "internalType": "uint8",
          "name": "_maxPositionsPerUser",
          "type": "uint8"
        }
      ],
      "name": "setMaxPositionsPerUser",
      "outputs": [],
      "stateMutability": "nonpayable",
      "type": "function"
    },
    {
      "inputs": [
        {
          "internalType": "address",
          "name": "_rewardToken",
          "type": "address"
        }
      ],
      "name": "setRewardToken",
      "outputs": [],
      "stateMutability": "nonpayable",
      "type": "function"
    },
    {
      "inputs": [
        {
          "internalType": "contract ITotalFeeApp",
          "name": "_totalFeeApp",
          "type": "address"
        }
      ],
      "name": "setTotalFeeApp",
      "outputs": [],
      "stateMutability": "nonpayable",
      "type": "function"
    },
    {
      "inputs": [
        {
          "internalType": "bytes32",
          "name": "_vkHash",
          "type": "bytes32"
        }
      ],
      "name": "setVkHash",
      "outputs": [],
      "stateMutability": "nonpayable",
      "type": "function"
    },
    {
      "inputs": [],
      "name": "totalFeeApp",
      "outputs": [
        {
          "internalType": "contract ITotalFeeApp",
          "name": "",
          "type": "address"
        }
      ],
      "stateMutability": "view",
      "type": "function"
    },
    {
      "inputs": [
        {
          "internalType": "address",
          "name": "newOwner",
          "type": "address"
        }
      ],
      "name": "transferOwnership",
      "outputs": [],
      "stateMutability": "nonpayable",
      "type": "function"
    },
    {
      "inputs": [
        {
          "internalType": "address",
          "name": "",
          "type": "address"
        }
      ],
      "name": "userClaimedTo",
      "outputs": [
        {
          "internalType": "uint64",
          "name": "",
          "type": "uint64"
        }
      ],
      "stateMutability": "view",
      "type": "function"
    },
    {
      "inputs": [
        {
          "internalType": "bytes32",
          "name": "_requestId",
          "type": "bytes32"
        },
        {
          "internalType": "uint64",
          "name": "_chainId",
          "type": "uint64"
        },
        {
          "components": [
            {
              "internalType": "bytes32",
              "name": "smtRoot",
              "type": "bytes32"
            },
            {
              "components": [
                {
                  "internalType": "uint64",
                  "name": "blkNum",
                  "type": "uint64"
                },
                {
                  "internalType": "uint64",
                  "name": "receiptIndex",
                  "type": "uint64"
                },
                {
                  "components": [
                    {
                      "components": [
                        {
                          "internalType": "uint8",
                          "name": "valueFromTopic",
                          "type": "uint8"
                        },
                        {
                          "internalType": "uint64",
                          "name": "valueIndex",
                          "type": "uint64"
                        },
                        {
                          "internalType": "address",
                          "name": "contractAddress",
                          "type": "address"
                        },
                        {
                          "internalType": "bytes32",
                          "name": "logTopic0",
                          "type": "bytes32"
                        }
                      ],
                      "internalType": "struct Brevis.LogExtraInfo",
                      "name": "logExtraInfo",
                      "type": "tuple"
                    },
                    {
                      "internalType": "uint64",
                      "name": "logIndex",
                      "type": "uint64"
                    },
                    {
                      "internalType": "bytes32",
                      "name": "value",
                      "type": "bytes32"
                    }
                  ],
                  "internalType": "struct Brevis.LogInfo[5]",
                  "name": "logs",
                  "type": "tuple[5]"
                }
              ],
              "internalType": "struct Brevis.ReceiptInfo[]",
              "name": "receipts",
              "type": "tuple[]"
            },
            {
              "components": [
                {
                  "internalType": "bytes32",
                  "name": "blockHash",
                  "type": "bytes32"
                },
                {
                  "internalType": "address",
                  "name": "account",
                  "type": "address"
                },
                {
                  "internalType": "bytes32",
                  "name": "slot",
                  "type": "bytes32"
                },
                {
                  "internalType": "bytes32",
                  "name": "slotValue",
                  "type": "bytes32"
                },
                {
                  "internalType": "uint64",
                  "name": "blockNumber",
                  "type": "uint64"
                }
              ],
              "internalType": "struct Brevis.StorageInfo[]",
              "name": "stores",
              "type": "tuple[]"
            },
            {
              "components": [
                {
                  "internalType": "bytes32",
                  "name": "leafHash",
                  "type": "bytes32"
                },
                {
                  "internalType": "bytes32",
                  "name": "blockHash",
                  "type": "bytes32"
                },
                {
                  "internalType": "uint64",
                  "name": "blockNumber",
                  "type": "uint64"
                },
                {
                  "internalType": "uint64",
                  "name": "blockTime",
                  "type": "uint64"
                },
                {
                  "internalType": "bytes",
                  "name": "leafRlpPrefix",
                  "type": "bytes"
                }
              ],
              "internalType": "struct Brevis.TransactionInfo[]",
              "name": "txs",
              "type": "tuple[]"
            }
          ],
          "internalType": "struct Brevis.ExtractInfos",
          "name": "_extractInfos",
          "type": "tuple"
        }
      ],
      "name": "validateRequest",
      "outputs": [
        {
          "internalType": "bool",
          "name": "",
          "type": "bool"
        }
      ],
      "stateMutability": "view",
      "type": "function"
    },
    {
      "inputs": [],
      "name": "vkHash",
      "outputs": [
        {
          "internalType": "bytes32",
          "name": "",
          "type": "bytes32"
        }
      ],
      "stateMutability": "view",
      "type": "function"
    }
  ],
  "transactionHash": "0x8040d00dac5b0c1a61cb4db1408975ff896ba159b8018ca30c2676902fc761ae",
  "args": [
    "0xf535C8066874F7647489c863fb05b913aD82636C",
    "0x208cfEc94d2BA8B8537da7A9BB361c6baAD77272"
  ],
  "numDeployments": 9,
  "solcInputHash": "e87310871e6a05fa4e616e002bfdf343",
  "bytecode": "0x60a0346100d057601f611b3938819003918201601f19168301916001600160401b038311848410176100d55780849260409485528339810103126100d05780516001600160a01b0391828216918290036100d05760200151908282168092036100d05760805260005460018060a01b0319903382821617600055604051933391167f8be0079c531659141344cd1fd0a4f28419497f9722a3daafe3b4186f6b6457e0600080a36003541617600355611a4d90816100ec823960805181818161030f01528181610a810152610e050152f35b600080fd5b634e487b7160e01b600052604160045260246000fdfe6080604052600436101561001257600080fd5b60003560e01c8063494ad0c5146101275780634fe840f5146101225780635f38b4211461011d578063715018a6146101185780637859f6d91461011357806379d6b6a21461010e5780637c08aa7414610109578063809e3d1b146101045780638aee8127146100ff5780638da5cb5b146100fa57806397b40dc5146100f55780639babc992146100f0578063c7f5aaa0146100eb578063d20870a5146100e6578063f2fde38b146100e1578063f77eae11146100dc5763f7c618c1146100d757600080fd5b610bef565b610b78565b610ac9565b610aa5565b610a61565b610a15565b6109cd565b6109a6565b61095a565b610936565b610860565b6102a7565b610278565b610217565b6101f0565b6101d2565b61014f565b6004359060ff8216820361013c57565b600080fd5b359060ff8216820361013c57565b3461013c57602036600319011261013c5761016861012c565b7fffffffffffffffffffff00ffffffffffffffffffffffffffffffffffffffffff75ff000000000000000000000000000000000000000000600054926101b8336001600160a01b03861614610c16565b60a81b16911617600055600080f35b600091031261013c57565b3461013c57600036600319011261013c576020600154604051908152f35b3461013c57600036600319011261013c5760206001600160a01b0360035416604051908152f35b3461013c57600080600319360112610275578080546001600160a01b03196001600160a01b0382169161024b338414610c16565b1682557f8be0079c531659141344cd1fd0a4f28419497f9722a3daafe3b4186f6b6457e08280a380f35b80fd5b3461013c57602036600319011261013c5761029f6001600160a01b03600054163314610c16565b600435600155005b3461013c5760408060031936011261013c5767ffffffffffffffff60243581811161013c573660238201121561013c57806004013591821161013c576024810190602483369201011161013c578251632cc27dc960e11b8152600480359082015283816024817f00000000000000000000000000000000000000000000000000000000000000006001600160a01b03165afa9081156103e65760009081926103b1575b50610356368585610735565b602081519101200361036e5761036c9350610ff6565b005b6064845162461bcd60e51b815260206004820152602060248201527f6661696c656420746f206f70656e206f757470757420636f6d6d69746d656e746044820152fd5b91508482813d83116103df575b6103c881836104b6565b81010312610275575060208151910151903861034a565b503d6103be565b610dec565b6024359067ffffffffffffffff8216820361013c57565b359067ffffffffffffffff8216820361013c57565b634e487b7160e01b600052604160045260246000fd5b6060810190811067ffffffffffffffff82111761044957604052565b610417565b60a0810190811067ffffffffffffffff82111761044957604052565b6080810190811067ffffffffffffffff82111761044957604052565b67ffffffffffffffff811161044957604052565b6040810190811067ffffffffffffffff82111761044957604052565b90601f8019910116810190811067ffffffffffffffff82111761044957604052565b67ffffffffffffffff81116104495760051b60200190565b6001600160a01b0381160361013c57565b81601f8201121561013c57803590610518826104d8565b92604092610528845195866104b6565b8085526020918280870192600a1b8501019381851161013c578301915b8483106105555750505050505090565b610400808484031261013c5786519061056d8261042d565b61057685610402565b8252610583868601610402565b8683015283605f8601121561013c5787519061059e8261044e565b85018185821161013c579187939194928a8801905b8682106105d0575050610400945089820152815201920191610545565b9080929496939550870360c0811261013c578b51916105ee8361042d565b608080921261013c5760c09261064a8c938f80519061060c8261046a565b61061589610141565b8252610622878a01610402565b878301528089013590610634826104f0565b8201526060808901359082015283528601610402565b838201528d60a08601359082015281520191018894929593916105b3565b81601f8201121561013c5780359061067f826104d8565b9260409061068f825195866104b6565b838552602091828601918360a08097028601019481861161013c578401925b8584106106bf575050505050505090565b868483031261013c5784879184516106d68161044e565b86358152828701356106e7816104f0565b83820152858701358682015260608088013590820152608061070a818901610402565b908201528152019301926106ae565b67ffffffffffffffff811161044957601f01601f191660200190565b92919261074182610719565b9161074f60405193846104b6565b82948184528183011161013c578281602093846000960137010152565b81601f8201121561013c57803590610783826104d8565b92604092610793845195866104b6565b808552602093848087019260051b8501019383851161013c57858101925b8584106107c2575050505050505090565b67ffffffffffffffff90843582811161013c5783019060a09283601f19848a03011261013c578551926107f48461044e565b8a8101358452868101358b850152606094610810868301610402565b88860152608095610822878401610402565b9086015281013591821161013c57019187603f8401121561013c57899361085189858988809801359101610735565b908201528152019301926107b1565b3461013c5760031960603682011261013c5761087a6103eb565b6044359067ffffffffffffffff9283831161013c57608090833603011261013c57604051906108a88261046a565b82600401358252602483013584811161013c576108cb9060043691860101610501565b6020830152604483013584811161013c576108ec9060043691860101610668565b6040830152606483013593841161013c57610913610920936004610932963692010161076c565b6060830152600435610df8565b60405190151581529081906020820190565b0390f35b3461013c57600036600319011261013c57602060ff60005460a01c16604051908152f35b3461013c57602036600319011261013c57600435610977816104f0565b6001600160a01b039061098f82600054163314610c16565b166001600160a01b03196002541617600255600080f35b3461013c57600036600319011261013c5760206001600160a01b0360005416604051908152f35b3461013c57602036600319011261013c576001600160a01b036004356109f2816104f0565b166000526004602052602067ffffffffffffffff60406000205416604051908152f35b3461013c57602036600319011261013c57600435610a32816104f0565b6001600160a01b0390610a4a82600054163314610c16565b166001600160a01b03196003541617600355600080f35b3461013c57600036600319011261013c5760206040516001600160a01b037f0000000000000000000000000000000000000000000000000000000000000000168152f35b3461013c57600036600319011261013c57602060ff60005460a81c16604051908152f35b3461013c57602036600319011261013c57600435610ae6816104f0565b6001600160a01b03610afd81600054163314610c16565b811615610b0d5761036c90610c61565b60405162461bcd60e51b815260206004820152602660248201527f4f776e61626c653a206e6577206f776e657220697320746865207a65726f206160448201527f64647265737300000000000000000000000000000000000000000000000000006064820152608490fd5b3461013c57602036600319011261013c57610b9161012c565b7fffffffffffffffffffffff00ffffffffffffffffffffffffffffffffffffffff74ff000000000000000000000000000000000000000060005492610be0336001600160a01b03861614610c16565b60a01b16911617600055600080f35b3461013c57600036600319011261013c5760206001600160a01b0360025416604051908152f35b15610c1d57565b606460405162461bcd60e51b815260206004820152602060248201527f4f776e61626c653a2063616c6c6572206973206e6f7420746865206f776e65726044820152fd5b600054906001600160a01b0380911691826001600160a01b0319821617600055167f8be0079c531659141344cd1fd0a4f28419497f9722a3daafe3b4186f6b6457e0600080a3565b90815180825260208080930193019160005b828110610cc9575050505090565b835180518652808301516001600160a01b031686840152604080820151908701526060808201519087015260809081015167ffffffffffffffff169086015260a09094019392810192600101610cbb565b919082519283825260005b848110610d46575050826000602080949584010152601f8019910116010190565b602081830181015184830182015201610d25565b90815180825260208092019182818360051b85019501936000915b848310610d855750505050505090565b9091929394958480610ddc83856001950387528a5180518252838101518483015267ffffffffffffffff6040818184015116908401526060908183015116908301526080809101519160a080928201520190610d1a565b9801930193019194939290610d75565b6040513d6000823e3d90fd5b916001600160a01b0390817f00000000000000000000000000000000000000000000000000000000000000001691823b1561013c57929391906040948551958694631f022a9d60e21b8652600486015267ffffffffffffffff809216602486015260609081604487015260e486019284516064880152602093848601519460808060848b01528651809352816101048b0197019360009b8c925b858410610f04575050505050505092859392610ed692610ec486958401519260631993848883030160a4890152610ca9565b920151908483030160c4850152610d5a565b03915afa80156103e657610eeb575b50600190565b80610ef8610efe92610486565b806101c7565b38610ee5565b9193869a9b9c508d8882989b939597999a9b518781511685528784820151168486015201518a84019091905b8b8d60058410610f5b575050505050610400600192019a019401918d9b9a9998979694959391610e92565b9160c091859693600195965190808d83519060ff82511687528882015116888701528d8582015116858701520151908401528b85820151168a840152015160a082015201930191018892610f30565b15610fb157565b60405162461bcd60e51b815260206004820152600d60248201527f696c6c6567616c20636c61696d000000000000000000000000000000000000006044820152606490fd5b60015403611130576001600160a01b036110346110e8937fb310b1a813b8706d49ddcd057f28a8477a62d9d6f60fcb71d3e2f2037d074ec0936115f3565b9067ffffffffffffffff96929680611070611062876001600160a01b03166000526004602052604060002090565b5467ffffffffffffffff1690565b168061111d575b50506110b78161109a866001600160a01b03166000526004602052604060002090565b9067ffffffffffffffff1667ffffffffffffffff19825416179055565b816110ed575b6040805167ffffffffffffffff98891681529790911660208801528601529116929081906060820190565b0390a2565b61111882856111136111076002546001600160a01b031690565b6001600160a01b031690565b611175565b6110bd565b61112991891611610faa565b3880611077565b60405162461bcd60e51b815260206004820152600a60248201527f696e76616c696420766b000000000000000000000000000000000000000000006044820152606490fd5b91604051916020938484019263a9059cbb60e01b84526001600160a01b0380931660248601526044850152604484526111ad8461046a565b1690604051926111bc8461049a565b8484527f5361666545524332303a206c6f772d6c6576656c2063616c6c206661696c656485850152823b1561122f57611208939260009283809351925af16112026112fe565b9061132e565b8051908161121557505050565b8261122d93611228938301019101611274565b61128c565b565b60405162461bcd60e51b815260048101869052601d60248201527f416464726573733a2063616c6c20746f206e6f6e2d636f6e74726163740000006044820152606490fd5b9081602091031261013c5751801515810361013c5790565b1561129357565b60405162461bcd60e51b815260206004820152602a60248201527f5361666545524332303a204552433230206f7065726174696f6e20646964206e60448201527f6f742073756363656564000000000000000000000000000000000000000000006064820152608490fd5b3d15611329573d9061130f82610719565b9161131d60405193846104b6565b82523d6000602084013e565b606090565b9091901561133a575090565b81511561134a5750805190602001fd5b60405162461bcd60e51b81526020600482015290819061136e906024830190610d1a565b0390fd5b9060141161013c5790601490565b9093929384831161013c57841161013c578101920390565b6bffffffffffffffffffffffff1990358181169392601481106113ba57505050565b60140360031b82901b16169150565b634e487b7160e01b600052601160045260246000fd5b60ff16603e029060ff82169182036113f357565b6113c9565b60011b906101fe60fe8316921682036113f357565b60ff16601f029060ff82169182036113f357565b60ff166018019060ff82116113f357565b60ff60019116019060ff82116113f357565b60ff60029116019060ff82116113f357565b60ff1660ff81146113f35760010190565b818102929181159184041417156113f357565b60140190816014116113f357565b90600882018092116113f357565b90601082018092116113f357565b90601882018092116113f357565b90601f82018092116113f357565b919082018092116113f357565b7fffffffffffffffff000000000000000000000000000000000000000000000000903581811693926008811061150257505050565b60080360031b82901b16169150565b60ff1990358181169392601f811061152857505050565b601f0360031b82901b16169150565b90600167ffffffffffffffff809316019182116113f357565b91909167ffffffffffffffff808094169116019182116113f357565b9081604091031261013c5760405190604082019082821067ffffffffffffffff83111761044957602091604052805183520151602082015290565b156115ae57565b60405162461bcd60e51b815260206004820152601960248201527f65706f636820746f74616c20666565206e6f74207269676874000000000000006044820152606490fd5b60009160009361161561160f6116098486611372565b90611398565b60601c90565b926000549461163a61163461162f60ff8960a01c166113df565b611421565b60ff1690565b966000905b60ff821660ff8960a81c168110156119ac5761165e611663918b611467565b61147a565b9261168a61168461167e61167687611488565b878b8a611380565b906114cd565b60c01c90565b996116ae61168461167e61169d88611488565b6116a689611496565b908c8b611380565b986116d261168461167e6116c189611496565b6116ca8a6114a4565b908d8c611380565b9760005b60ff8d60a01c1660ff821610156118e9578d908c8c8c61179e61175561174f8f8f61175b84846117238c61171d611634611718611712896114a4565b936113f8565b61140d565b906114c0565b6117478d61171d61163461171861174261173c8b6114a4565b946113f8565b611432565b908b87611380565b90611511565b60081c90565b966117988a61171d61163461171861179361173c61178d61177b8a6114a4565b61171d6116346117186117428b6113f8565b986114a4565b611444565b92611380565b9267ffffffffffffffff808316151592166118dc575b816118b7575b506117d1575b50506117cc9150611456565b6116d6565b9061182a916117f96117ee6111076003546001600160a01b031690565b9560ff861690611550565b6040805163a83a2e6560e01b815267ffffffffffffffff909216600483015295909386918591829081906024820190565b03915afa9485156103e6576117cc956118829460209260009261188a575b505061187881517effffffffffffffffffffffffffffffffffffffffffffffffffffffffffffff809516146115a7565b01519116146115a7565b8e91386117c0565b6118a99250803d106118b0575b6118a181836104b6565b81019061156c565b3880611848565b503d611897565b905067ffffffffffffffff806118d060ff871688611550565b9216911611158f6117ba565b60ff8516151591506117b4565b5095509a90939298919667ffffffffffffffff8082161515911661196e575b61195c575b5067ffffffffffffffff88168015908115611948575b5061193e575b5061193390611456565b90979593919361163f565b9650611933611929565b905067ffffffffffffffff82161138611923565b611967919650611537565b943861190d565b5067ffffffffffffffff8716801590811561198a575b50611908565b90506119a561199883611537565b67ffffffffffffffff1690565b1038611984565b50959761174f9150926117559297611a1495966117986119eb61165e6119f09860ff6119e061165e828960a81c1684611467565b9660a81c1690611467565b6114b2565b7effffffffffffffffffffffffffffffffffffffffffffffffffffffffffffff1690565b9056fea26469706673582212200f452bb611057a125ad64a7c88a785bd5db689352604b3b4ebf29ad8db277a8464736f6c63430008140033",
  "devdoc": {
    "kind": "dev",
    "methods": {
      "owner()": {
        "details": "Returns the address of the current owner."
      },
      "renounceOwnership()": {
        "details": "Leaves the contract without owner. It will not be possible to call `onlyOwner` functions anymore. Can only be called by the current owner. NOTE: Renouncing ownership will leave the contract without an owner, thereby removing any functionality that is only available to the owner."
      },
      "transferOwnership(address)": {
        "details": "Transfers ownership of the contract to a new account (`newOwner`). Can only be called by the current owner."
      }
    },
    "version": 1
  },
  "userdoc": {
    "kind": "user",
    "methods": {},
    "version": 1
  },
  "storageLayout": {
    "storage": [
      {
        "astId": 7,
        "contract": "contracts/sdk/apps/examples/pancake/SingleRewardApp.sol:SingleRewardApp",
        "label": "_owner",
        "offset": 0,
        "slot": "0",
        "type": "t_address"
      },
      {
        "astId": 1079,
        "contract": "contracts/sdk/apps/examples/pancake/SingleRewardApp.sol:SingleRewardApp",
        "label": "maxEpochPerPosition",
        "offset": 20,
        "slot": "0",
        "type": "t_uint8"
      },
      {
        "astId": 1081,
        "contract": "contracts/sdk/apps/examples/pancake/SingleRewardApp.sol:SingleRewardApp",
        "label": "maxPositionsPerUser",
        "offset": 21,
        "slot": "0",
        "type": "t_uint8"
      },
      {
        "astId": 1083,
        "contract": "contracts/sdk/apps/examples/pancake/SingleRewardApp.sol:SingleRewardApp",
        "label": "vkHash",
        "offset": 0,
        "slot": "1",
        "type": "t_bytes32"
      },
      {
        "astId": 1085,
        "contract": "contracts/sdk/apps/examples/pancake/SingleRewardApp.sol:SingleRewardApp",
        "label": "rewardToken",
        "offset": 0,
        "slot": "2",
        "type": "t_address"
      },
      {
        "astId": 1088,
        "contract": "contracts/sdk/apps/examples/pancake/SingleRewardApp.sol:SingleRewardApp",
        "label": "totalFeeApp",
        "offset": 0,
        "slot": "3",
        "type": "t_contract(ITotalFeeApp)1069"
      },
      {
        "astId": 1102,
        "contract": "contracts/sdk/apps/examples/pancake/SingleRewardApp.sol:SingleRewardApp",
        "label": "userClaimedTo",
        "offset": 0,
        "slot": "4",
        "type": "t_mapping(t_address,t_uint64)"
      }
    ],
    "types": {
      "t_address": {
        "encoding": "inplace",
        "label": "address",
        "numberOfBytes": "20"
      },
      "t_bytes32": {
        "encoding": "inplace",
        "label": "bytes32",
        "numberOfBytes": "32"
      },
      "t_contract(ITotalFeeApp)1069": {
        "encoding": "inplace",
        "label": "contract ITotalFeeApp",
        "numberOfBytes": "20"
      },
      "t_mapping(t_address,t_uint64)": {
        "encoding": "mapping",
        "key": "t_address",
        "label": "mapping(address => uint64)",
        "numberOfBytes": "32",
        "value": "t_uint64"
      },
      "t_uint64": {
        "encoding": "inplace",
        "label": "uint64",
        "numberOfBytes": "8"
      },
      "t_uint8": {
        "encoding": "inplace",
        "label": "uint8",
        "numberOfBytes": "1"
      }
    }
  }
}