{
  "address": "0x7d43AABC515C356145049227CeE54B608342c0ad",
  "abi": [
    {
      "inputs": [
        {
          "internalType": "address",
          "name": "brevisProof",
          "type": "address"
        }
      ],
      "stateMutability": "nonpayable",
      "type": "constructor"
    },
    {
      "anonymous": false,
      "inputs": [
        {
          "indexed": true,
          "internalType": "address",
          "name": "previousOwner",
          "type": "address"
        },
        {
          "indexed": true,
          "internalType": "address",
          "name": "newOwner",
          "type": "address"
        }
      ],
      "name": "OwnershipTransferred",
      "type": "event"
    },
    {
      "anonymous": false,
      "inputs": [
        {
          "indexed": false,
          "internalType": "uint64",
          "name": "epoch",
          "type": "uint64"
        },
        {
          "indexed": false,
          "internalType": "uint256",
          "name": "token0Amt",
          "type": "uint256"
        },
        {
          "indexed": false,
          "internalType": "uint256",
          "name": "token1Amt",
          "type": "uint256"
        }
      ],
      "name": "TotalFeePosted",
      "type": "event"
    },
    {
      "inputs": [
        {
          "internalType": "bytes32",
          "name": "_requestId",
          "type": "bytes32"
        },
        {
          "internalType": "bytes",
          "name": "_appCircuitOutput",
          "type": "bytes"
        }
      ],
      "name": "brevisCallback",
      "outputs": [],
      "stateMutability": "nonpayable",
      "type": "function"
    },
    {
      "inputs": [],
      "name": "brevisProof",
      "outputs": [
        {
          "internalType": "contract IBrevisProof",
          "name": "",
          "type": "address"
        }
      ],
      "stateMutability": "view",
      "type": "function"
    },
    {
      "inputs": [],
      "name": "latestEpoch",
      "outputs": [
        {
          "internalType": "uint64",
          "name": "",
          "type": "uint64"
        }
      ],
      "stateMutability": "view",
      "type": "function"
    },
    {
      "inputs": [],
      "name": "owner",
      "outputs": [
        {
          "internalType": "address",
          "name": "",
          "type": "address"
        }
      ],
      "stateMutability": "view",
      "type": "function"
    },
    {
      "inputs": [],
      "name": "renounceOwnership",
      "outputs": [],
      "stateMutability": "nonpayable",
      "type": "function"
    },
    {
      "inputs": [
        {
          "internalType": "bytes32",
          "name": "_vkHash",
          "type": "bytes32"
        }
      ],
      "name": "setVkHash",
      "outputs": [],
      "stateMutability": "nonpayable",
      "type": "function"
    },
    {
      "inputs": [
        {
          "internalType": "uint64",
          "name": "",
          "type": "uint64"
        }
      ],
      "name": "totalFees",
      "outputs": [
        {
          "internalType": "uint256",
          "name": "token0Amt",
          "type": "uint256"
        },
        {
          "internalType": "uint256",
          "name": "token1Amt",
          "type": "uint256"
        }
      ],
      "stateMutability": "view",
      "type": "function"
    },
    {
      "inputs": [
        {
          "internalType": "address",
          "name": "newOwner",
          "type": "address"
        }
      ],
      "name": "transferOwnership",
      "outputs": [],
      "stateMutability": "nonpayable",
      "type": "function"
    },
    {
      "inputs": [
        {
          "internalType": "bytes32",
          "name": "_requestId",
          "type": "bytes32"
        },
        {
          "internalType": "uint64",
          "name": "_chainId",
          "type": "uint64"
        },
        {
          "components": [
            {
              "internalType": "bytes32",
              "name": "smtRoot",
              "type": "bytes32"
            },
            {
              "components": [
                {
                  "internalType": "uint64",
                  "name": "blkNum",
                  "type": "uint64"
                },
                {
                  "internalType": "uint64",
                  "name": "receiptIndex",
                  "type": "uint64"
                },
                {
                  "components": [
                    {
                      "components": [
                        {
                          "internalType": "uint8",
                          "name": "valueFromTopic",
                          "type": "uint8"
                        },
                        {
                          "internalType": "uint64",
                          "name": "valueIndex",
                          "type": "uint64"
                        },
                        {
                          "internalType": "address",
                          "name": "contractAddress",
                          "type": "address"
                        },
                        {
                          "internalType": "bytes32",
                          "name": "logTopic0",
                          "type": "bytes32"
                        }
                      ],
                      "internalType": "struct Brevis.LogExtraInfo",
                      "name": "logExtraInfo",
                      "type": "tuple"
                    },
                    {
                      "internalType": "uint64",
                      "name": "logIndex",
                      "type": "uint64"
                    },
                    {
                      "internalType": "bytes32",
                      "name": "value",
                      "type": "bytes32"
                    }
                  ],
                  "internalType": "struct Brevis.LogInfo[5]",
                  "name": "logs",
                  "type": "tuple[5]"
                }
              ],
              "internalType": "struct Brevis.ReceiptInfo[]",
              "name": "receipts",
              "type": "tuple[]"
            },
            {
              "components": [
                {
                  "internalType": "bytes32",
                  "name": "blockHash",
                  "type": "bytes32"
                },
                {
                  "internalType": "address",
                  "name": "account",
                  "type": "address"
                },
                {
                  "internalType": "bytes32",
                  "name": "slot",
                  "type": "bytes32"
                },
                {
                  "internalType": "bytes32",
                  "name": "slotValue",
                  "type": "bytes32"
                },
                {
                  "internalType": "uint64",
                  "name": "blockNumber",
                  "type": "uint64"
                }
              ],
              "internalType": "struct Brevis.StorageInfo[]",
              "name": "stores",
              "type": "tuple[]"
            },
            {
              "components": [
                {
                  "internalType": "bytes32",
                  "name": "leafHash",
                  "type": "bytes32"
                },
                {
                  "internalType": "bytes32",
                  "name": "blockHash",
                  "type": "bytes32"
                },
                {
                  "internalType": "uint64",
                  "name": "blockNumber",
                  "type": "uint64"
                },
                {
                  "internalType": "uint64",
                  "name": "blockTime",
                  "type": "uint64"
                },
                {
                  "internalType": "bytes",
                  "name": "leafRlpPrefix",
                  "type": "bytes"
                }
              ],
              "internalType": "struct Brevis.TransactionInfo[]",
              "name": "txs",
              "type": "tuple[]"
            }
          ],
          "internalType": "struct Brevis.ExtractInfos",
          "name": "_extractInfos",
          "type": "tuple"
        }
      ],
      "name": "validateRequest",
      "outputs": [
        {
          "internalType": "bool",
          "name": "",
          "type": "bool"
        }
      ],
      "stateMutability": "view",
      "type": "function"
    },
    {
      "inputs": [],
      "name": "vkHash",
      "outputs": [
        {
          "internalType": "bytes32",
          "name": "",
          "type": "bytes32"
        }
      ],
      "stateMutability": "view",
      "type": "function"
    }
  ],
  "transactionHash": "0x2db5f20ae2e112cfdc4fb8601c9a283acb5ae41ffdd3765ed924ce9b8e81a49a",
  "args": [
    "0x9Bb46D5100d2Db4608112026951c9C965b233f4D"
  ],
  "numDeployments": 1,
  "solcInputHash": "f25213cf8f8ac45270f5d952cc53a11f",
  "bytecode": "0x60a0346100be57601f610f8838819003918201601f19168301916001600160401b038311848410176100c3578084926020946040528339810103126100be57516001600160a01b0390818116908190036100be576080526000543360018060a01b0319821617600055604051913391167f8be0079c531659141344cd1fd0a4f28419497f9722a3daafe3b4186f6b6457e0600080a3610eae90816100da823960805181818161019f015281816104330152818161052e0152610a230152f35b600080fd5b634e487b7160e01b600052604160045260246000fdfe608080604052600436101561001357600080fd5b60003560e01c9081634fe840f514610d1457508063715018a614610caa5780637859f6d914610c7b57806379d6b6a2146109b05780637c08aa74146102595780638da5cb5b146102325780639cb118bf1461020a578063a83a2e65146101c3578063c7f5aaa01461017f5763f2fde38b1461008d57600080fd5b3461017a57602036600319011261017a576004356001600160a01b0380821680920361017a57600054908116906100c5338314610e2d565b821561010f5773ffffffffffffffffffffffffffffffffffffffff19839116176000557f8be0079c531659141344cd1fd0a4f28419497f9722a3daafe3b4186f6b6457e0600080a3005b60405162461bcd60e51b815260206004820152602660248201527f4f776e61626c653a206e6577206f776e657220697320746865207a65726f206160448201527f64647265737300000000000000000000000000000000000000000000000000006064820152608490fd5b600080fd5b3461017a57600036600319011261017a5760206040516001600160a01b037f0000000000000000000000000000000000000000000000000000000000000000168152f35b3461017a57602036600319011261017a5760043567ffffffffffffffff811680910361017a5760005260026020526040806000206001815491015482519182526020820152f35b3461017a57600036600319011261017a57602067ffffffffffffffff60035416604051908152f35b3461017a57600036600319011261017a5760206001600160a01b0360005416604051908152f35b3461017a5760031960603682011261017a576024359067ffffffffffffffff8216820361017a5767ffffffffffffffff6044351161017a576080906044353603011261017a576040516102ab81610d44565b6044356004013581526024604435013567ffffffffffffffff811161017a57604435013660238201121561017a576004810135906102e882610dba565b916102f66040519384610d98565b808352602083019136602483600a1b8301011161017a5760248101925b602483600a1b830101841061089b5750505050602082015260448035013567ffffffffffffffff811161017a57604435013660238201121561017a5760048101359061035e82610dba565b9161036c6040519384610d98565b808352602083019136602460a084028301011161017a579160248301925b602460a084028201018410610837575050505060408201526064604435013567ffffffffffffffff811161017a57366023826044350101121561017a57600481604435010135906103da82610dba565b916103e86040519384610d98565b80835260208301913660248360051b836044350101011161017a576024816044350101925b60248360051b836044350101018410610762575050505060608201526001600160a01b037f0000000000000000000000000000000000000000000000000000000000000000163b1561017a57604051631f022a9d60e21b8152600480359082015267ffffffffffffffff9092166024830152606060448301528051606483015260208082015160806084850152805160e4850181905284936101048501939092019060005b8181106106a4575050506040810151916063198482030160a48501526020808451928381520193019060005b81811061064b5750505060600151906063198382030160c484015281519081815260208101916020808260051b8401019401926000925b8284106105a05786600081808903816001600160a01b037f0000000000000000000000000000000000000000000000000000000000000000165afa801561059457610566575b602060405160018152f35b67ffffffffffffffff811161057e576040528061055b565b634e487b7160e01b600052604160045260246000fd5b6040513d6000823e3d90fd5b919395509193601f1982820301835260808651805183526020810151602084015267ffffffffffffffff604082015116604084015267ffffffffffffffff606082015116606084015201519060a060808201528151918260a083015260005b8381106106355750506020600192819260c0916000838284010152601f8019910116010197019301940191929093869594610515565b80602080928401015160c08286010152016105ff565b9194509192602060a060019267ffffffffffffffff60808951805184526001600160a01b0386820151168685015260408101516040850152606081015160608501520151166080820152019501910191859493926104de565b91945091926040855167ffffffffffffffff815116835267ffffffffffffffff6020820151166020840152015160408201906000915b600583106106fc575050506020610400600192019501910191859493926104b2565b602060c0600192604085516060815160ff815116855267ffffffffffffffff8782015116878601526001600160a01b038482015116848601520151606084015267ffffffffffffffff85820151166080840152015160a0820152019201920191906106da565b833567ffffffffffffffff811161017a5760a0604435840182013603602319011261017a576040519161079483610d7c565b6044803585018301602481013585529081013560208501526107b890606401610d2f565b60408401526107cf60848386604435010101610d2f565b606084015260a48285604435010101359067ffffffffffffffff821161017a5736604383858860443501010101121561017a576024936020938493610825913691604480358b0190920101808901359101610de6565b6080820152815201940193905061040d565b60a08436031261017a5760a080602060249460405161085581610d7c565b88358152610864838a01610dd2565b83820152604089013560408201526060890135606082015261088860808a01610d2f565b608082015281520195019492505061038a565b6104008436031261017a576040516108b281610d60565b6108bb85610d2f565b81526108c960208601610d2f565b602082015236605f8601121561017a576040516108e581610d7c565b803661040088011161017a5760408701905b6104008801821061091b575050604082015281526104009390930192602001610313565b60c08236031261017a576040519061093282610d60565b60808336031261017a576040519061094982610d44565b60ff84351684350361017a5760c0926020928535815261096a848701610d2f565b8482015261097a60408701610dd2565b604082015260608601356060820152815261099760808601610d2f565b8382015260a085013560408201528152019101906108f7565b3461017a57604036600319011261017a57602480359067ffffffffffffffff9081831161017a573660238401121561017a5782600401359082821161017a57808401903681848701011161017a5760405191632cc27dc960e11b8352600435600484015260408383816001600160a01b037f0000000000000000000000000000000000000000000000000000000000000000165afa801561059457600093600091610c42575b50610a62368684610de6565b93845160208096012003610c005760015403610bbc578360081161017a573560c01c948360271161017a57602c81013560081c9360461161017a57604b013560081c938560035482811680610b46575b5067ffffffffffffffff191617600355604080519290830191821183831017610b32577fe64677a2010c7a50b5adbebf67251bfbdd3e390844bff454b2229e4434aca530606088888888888860405282815260018282018581528660005260028452604060002092518355519101556040519384528301526040820152a1005b634e487b7160e01b60009081526041600452fd5b600191925001828111610ba75782168703610b6357869088610ab2565b60405162461bcd60e51b815260048101859052600d818501527f696e76616c69642065706f6368000000000000000000000000000000000000006044820152606490fd5b83634e487b7160e01b60005260116004526000fd5b60405162461bcd60e51b815260048101849052600a818401527f696e76616c696420766b000000000000000000000000000000000000000000006044820152606490fd5b606483856040519162461bcd60e51b83528160048401528201527f6661696c656420746f206f70656e206f757470757420636f6d6d69746d656e746044820152fd5b9350506040833d604011610c73575b81610c5e60409383610d98565b8101031261017a576020835193015187610a56565b3d9150610c51565b3461017a57602036600319011261017a57610ca26001600160a01b03600054163314610e2d565b600435600155005b3461017a57600036600319011261017a576000805473ffffffffffffffffffffffffffffffffffffffff196001600160a01b03821691610ceb338414610e2d565b1682557f8be0079c531659141344cd1fd0a4f28419497f9722a3daafe3b4186f6b6457e08280a3005b3461017a57600036600319011261017a576020906001548152f35b359067ffffffffffffffff8216820361017a57565b6080810190811067ffffffffffffffff82111761057e57604052565b6060810190811067ffffffffffffffff82111761057e57604052565b60a0810190811067ffffffffffffffff82111761057e57604052565b90601f8019910116810190811067ffffffffffffffff82111761057e57604052565b67ffffffffffffffff811161057e5760051b60200190565b35906001600160a01b038216820361017a57565b92919267ffffffffffffffff821161057e5760405191610e10601f8201601f191660200184610d98565b82948184528183011161017a578281602093846000960137010152565b15610e3457565b606460405162461bcd60e51b815260206004820152602060248201527f4f776e61626c653a2063616c6c6572206973206e6f7420746865206f776e65726044820152fdfea2646970667358221220b348785daf88100cc68e06f43028131fb064301a562f45c46aeba12df7f7c96164736f6c63430008140033",
  "devdoc": {
    "kind": "dev",
    "methods": {
      "owner()": {
        "details": "Returns the address of the current owner."
      },
      "renounceOwnership()": {
        "details": "Leaves the contract without owner. It will not be possible to call `onlyOwner` functions anymore. Can only be called by the current owner. NOTE: Renouncing ownership will leave the contract without an owner, thereby removing any functionality that is only available to the owner."
      },
      "transferOwnership(address)": {
        "details": "Transfers ownership of the contract to a new account (`newOwner`). Can only be called by the current owner."
      }
    },
    "version": 1
  },
  "userdoc": {
    "kind": "user",
    "methods": {},
    "version": 1
  },
  "storageLayout": {
    "storage": [
      {
        "astId": 7,
        "contract": "contracts/sdk/apps/examples/pancake/TotalFeeApp.sol:TotalFeeApp",
        "label": "_owner",
        "offset": 0,
        "slot": "0",
        "type": "t_address"
      },
      {
        "astId": 55881,
        "contract": "contracts/sdk/apps/examples/pancake/TotalFeeApp.sol:TotalFeeApp",
        "label": "vkHash",
        "offset": 0,
        "slot": "1",
        "type": "t_bytes32"
      },
      {
        "astId": 55891,
        "contract": "contracts/sdk/apps/examples/pancake/TotalFeeApp.sol:TotalFeeApp",
        "label": "totalFees",
        "offset": 0,
        "slot": "2",
        "type": "t_mapping(t_uint64,t_struct(TotalFee)55886_storage)"
      },
      {
        "astId": 55893,
        "contract": "contracts/sdk/apps/examples/pancake/TotalFeeApp.sol:TotalFeeApp",
        "label": "latestEpoch",
        "offset": 0,
        "slot": "3",
        "type": "t_uint64"
      }
    ],
    "types": {
      "t_address": {
        "encoding": "inplace",
        "label": "address",
        "numberOfBytes": "20"
      },
      "t_bytes32": {
        "encoding": "inplace",
        "label": "bytes32",
        "numberOfBytes": "32"
      },
      "t_mapping(t_uint64,t_struct(TotalFee)55886_storage)": {
        "encoding": "mapping",
        "key": "t_uint64",
        "label": "mapping(uint64 => struct TotalFeeApp.TotalFee)",
        "numberOfBytes": "32",
        "value": "t_struct(TotalFee)55886_storage"
      },
      "t_struct(TotalFee)55886_storage": {
        "encoding": "inplace",
        "label": "struct TotalFeeApp.TotalFee",
        "members": [
          {
            "astId": 55883,
            "contract": "contracts/sdk/apps/examples/pancake/TotalFeeApp.sol:TotalFeeApp",
            "label": "token0Amt",
            "offset": 0,
            "slot": "0",
            "type": "t_uint256"
          },
          {
            "astId": 55885,
            "contract": "contracts/sdk/apps/examples/pancake/TotalFeeApp.sol:TotalFeeApp",
            "label": "token1Amt",
            "offset": 0,
            "slot": "1",
            "type": "t_uint256"
          }
        ],
        "numberOfBytes": "64"
      },
      "t_uint256": {
        "encoding": "inplace",
        "label": "uint256",
        "numberOfBytes": "32"
      },
      "t_uint64": {
        "encoding": "inplace",
        "label": "uint64",
        "numberOfBytes": "8"
      }
    }
  }
}