{
  "address": "0x9Bb46D5100d2Db4608112026951c9C965b233f4D",
  "abi": [
    {
      "inputs": [
        {
          "internalType": "contract ISMT",
          "name": "_smtContract",
          "type": "address"
        }
      ],
      "stateMutability": "nonpayable",
      "type": "constructor"
    },
    {
      "anonymous": false,
      "inputs": [
        {
          "indexed": false,
          "internalType": "uint64[]",
          "name": "chainIds",
          "type": "uint64[]"
        },
        {
          "indexed": false,
          "internalType": "contract IZkpVerifier[]",
          "name": "newAddresses",
          "type": "address[]"
        }
      ],
      "name": "AggProofVerifierAddressesUpdated",
      "type": "event"
    },
    {
      "anonymous": false,
      "inputs": [
        {
          "indexed": false,
          "internalType": "bytes32[]",
          "name": "vkHashes",
          "type": "bytes32[]"
        },
        {
          "indexed": false,
          "internalType": "uint256[]",
          "name": "sizes",
          "type": "uint256[]"
        }
      ],
      "name": "BatchTierVkHashesUpdated",
      "type": "event"
    },
    {
      "anonymous": false,
      "inputs": [
        {
          "indexed": true,
          "internalType": "address",
          "name": "previousOwner",
          "type": "address"
        },
        {
          "indexed": true,
          "internalType": "address",
          "name": "newOwner",
          "type": "address"
        }
      ],
      "name": "OwnershipTransferred",
      "type": "event"
    },
    {
      "anonymous": false,
      "inputs": [
        {
          "indexed": false,
          "internalType": "contract ISMT",
          "name": "smtContract",
          "type": "address"
        }
      ],
      "name": "SmtContractUpdated",
      "type": "event"
    },
    {
      "anonymous": false,
      "inputs": [
        {
          "indexed": false,
          "internalType": "uint64[]",
          "name": "chainIds",
          "type": "uint64[]"
        },
        {
          "components": [
            {
              "internalType": "contract IZkpVerifier",
              "name": "contractAppZkVerifier",
              "type": "address"
            },
            {
              "internalType": "contract IZkpVerifier",
              "name": "circuitAppZkVerifier",
              "type": "address"
            }
          ],
          "indexed": false,
          "internalType": "struct BrevisProof.ChainZKVerifier[]",
          "name": "newAddresses",
          "type": "tuple[]"
        }
      ],
      "name": "VerifierAddressesUpdated",
      "type": "event"
    },
    {
      "inputs": [
        {
          "internalType": "uint64",
          "name": "",
          "type": "uint64"
        }
      ],
      "name": "aggProofVerifierAddress",
      "outputs": [
        {
          "internalType": "contract IZkpVerifier",
          "name": "",
          "type": "address"
        }
      ],
      "stateMutability": "view",
      "type": "function"
    },
    {
      "inputs": [
        {
          "internalType": "bytes32",
          "name": "_requestId",
          "type": "bytes32"
        }
      ],
      "name": "getProofAppData",
      "outputs": [
        {
          "internalType": "bytes32",
          "name": "",
          "type": "bytes32"
        },
        {
          "internalType": "bytes32",
          "name": "",
          "type": "bytes32"
        }
      ],
      "stateMutability": "view",
      "type": "function"
    },
    {
      "inputs": [
        {
          "internalType": "bytes32",
          "name": "_requestId",
          "type": "bytes32"
        }
      ],
      "name": "getProofData",
      "outputs": [
        {
          "components": [
            {
              "internalType": "bytes32",
              "name": "commitHash",
              "type": "bytes32"
            },
            {
              "internalType": "bytes32",
              "name": "vkHash",
              "type": "bytes32"
            },
            {
              "internalType": "bytes32",
              "name": "appCommitHash",
              "type": "bytes32"
            },
            {
              "internalType": "bytes32",
              "name": "appVkHash",
              "type": "bytes32"
            },
            {
              "internalType": "bytes32",
              "name": "smtRoot",
              "type": "bytes32"
            }
          ],
          "internalType": "struct Brevis.ProofData",
          "name": "",
          "type": "tuple"
        }
      ],
      "stateMutability": "view",
      "type": "function"
    },
    {
      "inputs": [
        {
          "internalType": "bytes32",
          "name": "_requestId",
          "type": "bytes32"
        }
      ],
      "name": "hasProof",
      "outputs": [
        {
          "internalType": "bool",
          "name": "",
          "type": "bool"
        }
      ],
      "stateMutability": "view",
      "type": "function"
    },
    {
      "inputs": [
        {
          "internalType": "bytes32",
          "name": "_requestId",
          "type": "bytes32"
        }
      ],
      "name": "inAgg",
      "outputs": [
        {
          "internalType": "bool",
          "name": "",
          "type": "bool"
        }
      ],
      "stateMutability": "view",
      "type": "function"
    },
    {
      "inputs": [
        {
          "internalType": "bytes32",
          "name": "",
          "type": "bytes32"
        }
      ],
      "name": "merkleRoots",
      "outputs": [
        {
          "internalType": "bool",
          "name": "",
          "type": "bool"
        }
      ],
      "stateMutability": "view",
      "type": "function"
    },
    {
      "inputs": [
        {
          "internalType": "uint64",
          "name": "_chainId",
          "type": "uint64"
        },
        {
          "internalType": "bytes32[]",
          "name": "_requestIds",
          "type": "bytes32[]"
        },
        {
          "internalType": "bytes",
          "name": "_proofWithPubInputs",
          "type": "bytes"
        }
      ],
      "name": "mustSubmitAggProof",
      "outputs": [],
      "stateMutability": "nonpayable",
      "type": "function"
    },
    {
      "inputs": [
        {
          "internalType": "uint64",
          "name": "_chainId",
          "type": "uint64"
        },
        {
          "components": [
            {
              "internalType": "bytes32",
              "name": "commitHash",
              "type": "bytes32"
            },
            {
              "internalType": "bytes32",
              "name": "vkHash",
              "type": "bytes32"
            },
            {
              "internalType": "bytes32",
              "name": "appCommitHash",
              "type": "bytes32"
            },
            {
              "internalType": "bytes32",
              "name": "appVkHash",
              "type": "bytes32"
            },
            {
              "internalType": "bytes32",
              "name": "smtRoot",
              "type": "bytes32"
            }
          ],
          "internalType": "struct Brevis.ProofData",
          "name": "_proofData",
          "type": "tuple"
        },
        {
          "internalType": "bytes32",
          "name": "_merkleRoot",
          "type": "bytes32"
        },
        {
          "internalType": "bytes32[]",
          "name": "_merkleProof",
          "type": "bytes32[]"
        },
        {
          "internalType": "uint8",
          "name": "_nodeIndex",
          "type": "uint8"
        }
      ],
      "name": "mustValidateRequest",
      "outputs": [],
      "stateMutability": "view",
      "type": "function"
    },
    {
      "inputs": [
        {
          "internalType": "uint64",
          "name": "_chainId",
          "type": "uint64"
        },
        {
          "components": [
            {
              "internalType": "bytes32",
              "name": "commitHash",
              "type": "bytes32"
            },
            {
              "internalType": "bytes32",
              "name": "vkHash",
              "type": "bytes32"
            },
            {
              "internalType": "bytes32",
              "name": "appCommitHash",
              "type": "bytes32"
            },
            {
              "internalType": "bytes32",
              "name": "appVkHash",
              "type": "bytes32"
            },
            {
              "internalType": "bytes32",
              "name": "smtRoot",
              "type": "bytes32"
            }
          ],
          "internalType": "struct Brevis.ProofData[]",
          "name": "_proofDataArray",
          "type": "tuple[]"
        }
      ],
      "name": "mustValidateRequests",
      "outputs": [],
      "stateMutability": "view",
      "type": "function"
    },
    {
      "inputs": [],
      "name": "owner",
      "outputs": [
        {
          "internalType": "address",
          "name": "",
          "type": "address"
        }
      ],
      "stateMutability": "view",
      "type": "function"
    },
    {
      "inputs": [
        {
          "internalType": "bytes32",
          "name": "",
          "type": "bytes32"
        }
      ],
      "name": "proofs",
      "outputs": [
        {
          "internalType": "bytes32",
          "name": "commitHash",
          "type": "bytes32"
        },
        {
          "internalType": "bytes32",
          "name": "vkHash",
          "type": "bytes32"
        },
        {
          "internalType": "bytes32",
          "name": "appCommitHash",
          "type": "bytes32"
        },
        {
          "internalType": "bytes32",
          "name": "appVkHash",
          "type": "bytes32"
        },
        {
          "internalType": "bytes32",
          "name": "smtRoot",
          "type": "bytes32"
        }
      ],
      "stateMutability": "view",
      "type": "function"
    },
    {
      "inputs": [],
      "name": "renounceOwnership",
      "outputs": [],
      "stateMutability": "nonpayable",
      "type": "function"
    },
    {
      "inputs": [
        {
          "internalType": "bytes32",
          "name": "",
          "type": "bytes32"
        }
      ],
      "name": "requestIds",
      "outputs": [
        {
          "internalType": "bool",
          "name": "",
          "type": "bool"
        }
      ],
      "stateMutability": "view",
      "type": "function"
    },
    {
      "inputs": [
        {
          "internalType": "bytes32[]",
          "name": "_vkHashes",
          "type": "bytes32[]"
        },
        {
          "internalType": "uint256[]",
          "name": "_sizes",
          "type": "uint256[]"
        }
      ],
      "name": "setBatchTierVkHashes",
      "outputs": [],
      "stateMutability": "nonpayable",
      "type": "function"
    },
    {
      "inputs": [],
      "name": "smtContract",
      "outputs": [
        {
          "internalType": "contract ISMT",
          "name": "",
          "type": "address"
        }
      ],
      "stateMutability": "view",
      "type": "function"
    },
    {
      "inputs": [
        {
          "internalType": "uint64",
          "name": "_chainId",
          "type": "uint64"
        },
        {
          "internalType": "bytes",
          "name": "_proofWithPubInputs",
          "type": "bytes"
        },
        {
          "internalType": "bool",
          "name": "_withAppProof",
          "type": "bool"
        }
      ],
      "name": "submitProof",
      "outputs": [
        {
          "internalType": "bytes32",
          "name": "_requestId",
          "type": "bytes32"
        }
      ],
      "stateMutability": "nonpayable",
      "type": "function"
    },
    {
      "inputs": [
        {
          "internalType": "address",
          "name": "newOwner",
          "type": "address"
        }
      ],
      "name": "transferOwnership",
      "outputs": [],
      "stateMutability": "nonpayable",
      "type": "function"
    },
    {
      "inputs": [
        {
          "internalType": "uint64[]",
          "name": "_chainIds",
          "type": "uint64[]"
        },
        {
          "internalType": "contract IZkpVerifier[]",
          "name": "_verifierAddresses",
          "type": "address[]"
        }
      ],
      "name": "updateAggProofVerifierAddresses",
      "outputs": [],
      "stateMutability": "nonpayable",
      "type": "function"
    },
    {
      "inputs": [
        {
          "internalType": "contract ISMT",
          "name": "_smtContract",
          "type": "address"
        }
      ],
      "name": "updateSmtContract",
      "outputs": [],
      "stateMutability": "nonpayable",
      "type": "function"
    },
    {
      "inputs": [
        {
          "internalType": "uint64[]",
          "name": "_chainIds",
          "type": "uint64[]"
        },
        {
          "components": [
            {
              "internalType": "contract IZkpVerifier",
              "name": "contractAppZkVerifier",
              "type": "address"
            },
            {
              "internalType": "contract IZkpVerifier",
              "name": "circuitAppZkVerifier",
              "type": "address"
            }
          ],
          "internalType": "struct BrevisProof.ChainZKVerifier[]",
          "name": "_verifierAddresses",
          "type": "tuple[]"
        }
      ],
      "name": "updateVerifierAddress",
      "outputs": [],
      "stateMutability": "nonpayable",
      "type": "function"
    },
    {
      "inputs": [
        {
          "internalType": "bytes32",
          "name": "_requestId",
          "type": "bytes32"
        },
        {
          "internalType": "uint64",
          "name": "_chainId",
          "type": "uint64"
        },
        {
          "components": [
            {
              "internalType": "bytes32",
              "name": "smtRoot",
              "type": "bytes32"
            },
            {
              "components": [
                {
                  "internalType": "uint64",
                  "name": "blkNum",
                  "type": "uint64"
                },
                {
                  "internalType": "uint64",
                  "name": "receiptIndex",
                  "type": "uint64"
                },
                {
                  "components": [
                    {
                      "components": [
                        {
                          "internalType": "uint8",
                          "name": "valueFromTopic",
                          "type": "uint8"
                        },
                        {
                          "internalType": "uint64",
                          "name": "valueIndex",
                          "type": "uint64"
                        },
                        {
                          "internalType": "address",
                          "name": "contractAddress",
                          "type": "address"
                        },
                        {
                          "internalType": "bytes32",
                          "name": "logTopic0",
                          "type": "bytes32"
                        }
                      ],
                      "internalType": "struct Brevis.LogExtraInfo",
                      "name": "logExtraInfo",
                      "type": "tuple"
                    },
                    {
                      "internalType": "uint64",
                      "name": "logIndex",
                      "type": "uint64"
                    },
                    {
                      "internalType": "bytes32",
                      "name": "value",
                      "type": "bytes32"
                    }
                  ],
                  "internalType": "struct Brevis.LogInfo[5]",
                  "name": "logs",
                  "type": "tuple[5]"
                }
              ],
              "internalType": "struct Brevis.ReceiptInfo[]",
              "name": "receipts",
              "type": "tuple[]"
            },
            {
              "components": [
                {
                  "internalType": "bytes32",
                  "name": "blockHash",
                  "type": "bytes32"
                },
                {
                  "internalType": "address",
                  "name": "account",
                  "type": "address"
                },
                {
                  "internalType": "bytes32",
                  "name": "slot",
                  "type": "bytes32"
                },
                {
                  "internalType": "bytes32",
                  "name": "slotValue",
                  "type": "bytes32"
                },
                {
                  "internalType": "uint64",
                  "name": "blockNumber",
                  "type": "uint64"
                }
              ],
              "internalType": "struct Brevis.StorageInfo[]",
              "name": "stores",
              "type": "tuple[]"
            },
            {
              "components": [
                {
                  "internalType": "bytes32",
                  "name": "leafHash",
                  "type": "bytes32"
                },
                {
                  "internalType": "bytes32",
                  "name": "blockHash",
                  "type": "bytes32"
                },
                {
                  "internalType": "uint64",
                  "name": "blockNumber",
                  "type": "uint64"
                },
                {
                  "internalType": "uint64",
                  "name": "blockTime",
                  "type": "uint64"
                },
                {
                  "internalType": "bytes",
                  "name": "leafRlpPrefix",
                  "type": "bytes"
                }
              ],
              "internalType": "struct Brevis.TransactionInfo[]",
              "name": "txs",
              "type": "tuple[]"
            }
          ],
          "internalType": "struct Brevis.ExtractInfos",
          "name": "_extractInfos",
          "type": "tuple"
        }
      ],
      "name": "validateRequest",
      "outputs": [],
      "stateMutability": "view",
      "type": "function"
    },
    {
      "inputs": [
        {
          "internalType": "uint64",
          "name": "",
          "type": "uint64"
        }
      ],
      "name": "verifierAddresses",
      "outputs": [
        {
          "internalType": "contract IZkpVerifier",
          "name": "contractAppZkVerifier",
          "type": "address"
        },
        {
          "internalType": "contract IZkpVerifier",
          "name": "circuitAppZkVerifier",
          "type": "address"
        }
      ],
      "stateMutability": "view",
      "type": "function"
    },
    {
      "inputs": [
        {
          "internalType": "bytes32",
          "name": "",
          "type": "bytes32"
        }
      ],
      "name": "vkHashesToBatchSize",
      "outputs": [
        {
          "internalType": "uint256",
          "name": "",
          "type": "uint256"
        }
      ],
      "stateMutability": "view",
      "type": "function"
    }
  ],
  "transactionHash": "0x607e988e3be77ea702370399da45cebde6c5340c6c81a512abaa73fbde2eafe9",
  "args": [
    "0x9B36f165baB9ebe611d491180418d8De4b8f3a1f"
  ],
  "numDeployments": 1,
  "solcInputHash": "61449838d1a0c50d236595152ec26154",
  "bytecode": "0x6080346100a757601f61246c38819003918201601f19168301916001600160401b038311848410176100ac578084926020946040528339810103126100a757516001600160a01b0390818116908190036100a75760005460018060a01b0319903382821617600055604051933391167f8be0079c531659141344cd1fd0a4f28419497f9722a3daafe3b4186f6b6457e0600080a360015416176001556123a990816100c38239f35b600080fd5b634e487b7160e01b600052604160045260246000fdfe6080604052600436101561001257600080fd5b60003560e01c80631396511e14611cf95780631be746b114611ccd5780631e4971bb14611c0b5780632247cd8f146119c157806325e49034146116955780633221aec61461166e578063444d95b0146116165780635984fb92146115de578063715018a6146115815780637c08aa7414610d765780637dbafb1114610c5c5780638645f7a8146109b75780638da5cb5b14610c355780639546bf0014610ba6578063b201326e146109e8578063bba210bf146109b7578063ceae339014610973578063cf7ac5a9146105ef578063e3d1e6d61461058b578063ead635bc1461027e578063f2fde38b1461019e578063f5cec6af1461014f5763fe5a53771461011957600080fd5b3461014a57602036600319011261014a576004356000526002602052602060ff604060002054166040519015158152f35b600080fd5b3461014a57602036600319011261014a5767ffffffffffffffff610171611de9565b1660005260056020526040806000206001600160a01b036001818354169201541682519182526020820152f35b3461014a57602036600319011261014a576004356001600160a01b0380821680920361014a57600054908116906101d6338314611e2e565b8215610213576001600160a01b0319839116176000557f8be0079c531659141344cd1fd0a4f28419497f9722a3daafe3b4186f6b6457e0600080a3005b60405162461bcd60e51b815260206004820152602660248201527f4f776e61626c653a206e6577206f776e657220697320746865207a65726f206160448201527f64647265737300000000000000000000000000000000000000000000000000006064820152608490fd5b3461014a57606036600319011261014a57610297611de9565b67ffffffffffffffff6024803582811161014a576102b9903690600401611d6d565b9390916044359084821161014a576102d685923690600401611e00565b95909316600052602094600486526001600160a01b0360406000205416908115610549578660405180936322bb937360e11b8252818061031a868b60048401611ffc565b03915afa90811561053d5761033e61034b9261035794600091610510575b50612024565b61035161034b8288612081565b906120ba565b956120a7565b60405161020092838201828110868211176104fb576040528336833760005b8981106104dc5750601093848a10610488575b6040519489860193600090855b8c848410610474575050505050845261022084019484861090861117610460575083604052825190200361041c5750506000526002825260406000209060019060ff1992828482541617905560005b8581106103ee57005b806103fd610417928885611f83565b356000526003865260406000208486825416179055611fa9565b6103e5565b907f72657175657374496473206e6f742072696768740000000000000000000000006102646064938762461bcd60e51b855261022482015260146102448201520152fd5b634e487b7160e01b60009081526041600452fd5b806001928451815201920192019190610396565b895b8581106104975750610389565b6000198b018b81116104c757906104b16104c29286612070565b516104bc8287612070565b52611fa9565b61048a565b83634e487b7160e01b60005260116004526000fd5b806104eb6104f6928c8b611f83565b356104bc8286612070565b610376565b50634e487b7160e01b60009081526041600452fd5b61053091508a3d8c11610536575b6105288183611efd565b810190611f1f565b8b610338565b503d61051e565b6040513d6000823e3d90fd5b606483886040519162461bcd60e51b83528160048401528201527f636861696e206167672070726f6f66207665726966696572206e6f74207365746044820152fd5b3461014a57602036600319011261014a5760043560005260066020526040600020805415908115916105e1575b5080156105cd575b6020906040519015158152f35b50600360205260406000205460ff166105c0565b6002915001541515816105b8565b3461014a57604036600319011261014a57610608611de9565b60249067ffffffffffffffff90823582811161014a573660238201121561014a57806004013583811161014a578482019185369160a0840201011161014a5760109283821161092f57604051946103e0908187019081118782101761091a576040523686376000926001936001600160a01b03855416905b84811061080657505050508281106107b5575b506000825b6106bd576103c084015160005260026020526106bb60ff60406000205416611e79565b005b6000825b6106db575b50826106d191611fef565b91811c9182610698565b92949193909260001986018681116104c7578110156107aa576107076107018286611fef565b83611fde565b516107128286611fef565b868101809111610795576107269084611fde565b51604051906020820192835260408201526040815261074481611ee1565b5190206107666107606107578988611fef565b84891c90611fef565b84611fde565b5260028101809111610780579194909390929091826106c1565b82634e487b7160e01b60005260116004526000fd5b84634e487b7160e01b60005260116004526000fd5b9492909391946106c6565b600019810190808211905b8481106107ce575050610693565b816107f1576107ec906107e18488611fde565b516104bc8289611fde565b6107c0565b86634e487b7160e01b60005260116004526000fd5b60809081610815828887611fce565b60405163080cdb0b60e11b815267ffffffffffffffff8816600482015291013560248201529160208084604481885afa93841561053d576108f894610862916000916108fd575b50611f37565b6108eb610870848a89611fce565b359261087d858b8a611fce565b0135916108dd8a8960606108af8986610897828787611fce565b01359460406108a7838388611fce565b013594611fce565b01359160405196879586019889939160a0959391855260208501526040840152606083015260808201520190565b03601f198101835282611efd565b5190206104bc828b611fde565b610680565b6109149150833d8511610536576105288183611efd565b8e61085c565b87634e487b7160e01b60005260416004526000fd5b60405162461bcd60e51b815260206004820152600c818801527f73697a65206578636565647300000000000000000000000000000000000000006044820152606490fd5b3461014a57602036600319011261014a5767ffffffffffffffff610995611de9565b16600052600460205260206001600160a01b0360406000205416604051908152f35b3461014a57602036600319011261014a576004356000526003602052602060ff604060002054166040519015158152f35b3461014a57604036600319011261014a5767ffffffffffffffff60043581811161014a57610a1a903690600401611d6d565b9060249283359381851161014a573660238601121561014a5784600401359282841161014a576006368386831b8901011161014a576001600160a01b039493929492610a6b84600054163314611e2e565b610a768588146120d7565b60005b878110610b1557505050610a99906040519560408752604087019161214c565b926020848682960382880152848152019501926000915b838310610adf577fc343b5bb763b4b0cdbd72c4b7a9627ce33d7eaff0cecca036b0af41ce9ca55a886880387a1005b909192939560408060019284610af48b61219b565b16815284610b03878c0161219b565b16818701520197019493019190610ab0565b8581979596971015610b915780610b8891841b8a0183610b3e610b39848d8a611f83565b612137565b166000526005602052604060002088610b7b6044600183610b608d8801612123565b16946001600160a01b03199586825416178155019401612123565b1690825416179055611fa9565b95949395610a79565b84634e487b7160e01b60005260326004526000fd5b3461014a57602036600319011261014a57610bbf61230b565b50600435600052600660205260a06040600020604051610bde81611ec5565b81549182825260018101546020830190815260028201549060408401918252608060046003850154946060870195865201549401938452604051948552516020850152516040840152516060830152516080820152f35b3461014a57600036600319011261014a5760206001600160a01b0360005416604051908152f35b3461014a57610c6a36611d9e565b6001600160a01b0393919391610c8583600054163314611e2e565b610c908285146120d7565b60005b848110610d195750610cb1906040519460408652604086019161214c565b90602082858294038287015282815201949160005b828110610cf5577f4a5f8b4623084de3ef4b23e6c713416b50a966a1914aaf21175d206015e59d4e86880387a1005b9091929395828060019289610d098961219b565b1681520197950193929101610cc6565b80610d32610d2d610d6e93868a989a611f83565b612123565b67ffffffffffffffff610d49610b39848a88611f83565b16600052600460205287604060002091166001600160a01b0319825416179055611fa9565b949294610c93565b3461014a5760031960603682011261014a576024359067ffffffffffffffff8216820361014a5767ffffffffffffffff6044351161014a576080906044353603011261014a57600435600052600660205260406000209060405191610dda83611ec5565b6004815491828552600181015460208601526002810154604086015260038101546060860152015460808401521561153c576020610e58916001600160a01b0360015416604051808095819463080cdb0b60e11b83526044356004013590600484016020909392919367ffffffffffffffff60408201951681520152565b03915afa801561053d57610e749160009161151d575b506121af565b610ebf610eab610e8e6024604435016044356004016121fb565b9050610ea36044803501604435600401612231565b919050611fef565b610ea3606460443501604435600401612267565b9081156114d857602081015160005260076020526040600020548083116114935760009260605b610efa6024604435016044356004016121fb565b905085101561113e5784606060005b60058110610fd057506020610fca9383610fc493610fa4610f6685610f60610f4b610b39610fb69b610f456024604435016044356004016121fb565b9061229d565b95610f456024604435016044356004016121fb565b01612137565b926108dd604051938492888401966044356004013588526001600160c01b0319918260c091821b1660408701521b16604884015260508301906122be565b519020604051948592848401906122be565b908152038084520182611efd565b94611fa9565b93610ee6565b91826040610fef610ff593610f456024604435016044356004016121fb565b016122ad565b359060ff8216820361014a576111306065611136936110d5936110326080610f60898f610fef604091610f456024604435016044356004016121fb565b918c6110576020610f608b6040610fef86610f456024604435016044356004016121fb565b93611080604061107a8c82610fef87610f456024604435016044356004016121fb565b01612123565b9060a06110c28c6040610fef60606110ab8484610fef8c610f456024604435016044356004016121fb565b013597610f456024604435016044356004016121fb565b013595604051998a9660208801906122be565b9460ff60f81b9060f81b1685526001600160c01b0319918260c091821b1660018701521b1660098401526bffffffffffffffffffffffff199060601b1660118301526025820152604592838201520390810184520182611efd565b91611fa9565b908691610f09565b926000935b6111566044803501604435600401612231565b90508510156112ec5761117c856111766044803501604435600401612231565b90611fce565b359061119a602061107a886111766044803501604435600401612231565b604051906bffffffffffffffffffffffff199060601b1660208201526014815280604081011067ffffffffffffffff6040830111176112d657604081016040526020815191012060406111fa886111766044803501604435600401612231565b01356060611215896111766044803501604435600401612231565b0135906112346080610f608b6111766044803501604435600401612231565b926040519560443560040135602088015260408701526060860152608085015260a08401526001600160c01b031960c091821b169083015260a882528160e081011067ffffffffffffffff60e0840111176112d657816112c98160e093846112d096016040526112b082516020840120916101008401906122be565b9081520360df1981018484015260bf1901838301611efd565b0194611fa9565b93611143565b634e487b7160e01b600052604160045260246000fd5b91926000925b611306606460443501604435600401612267565b90508410156113e057610fb66113d460206113da9361133988611333606460443501604435600401612267565b906122e9565b35826113538a611333606460443501604435600401612267565b01356113726040610f608c611333606460443501604435600401612267565b61138f6060610f608d611333606460443501604435600401612267565b6040519286840194604435600401358652604085015260608401526001600160c01b0319918260c091821b1660808501521b16608882015260708152610fa481611ec5565b93611fa9565b926112f2565b9084818110611441575b5050602081519101209051036113fc57005b60405162461bcd60e51b815260206004820152601d60248201527f636f6d6d69744861736820616e6420696e666f206e6f74206d617463680000006044820152606490fd5b905b808210156113ea579091611468611487602061148d93604051938491838301906122be565b7001000000000000000000000000000000018152038084520182611efd565b92611fa9565b90611443565b60405162461bcd60e51b815260206004820152601e60248201527f6974656d206c656e67746820657863656564732062617463682073697a6500006044820152606490fd5b60405162461bcd60e51b815260206004820152600b60248201527f656d707479206974656d730000000000000000000000000000000000000000006044820152606490fd5b611536915060203d602011610536576105288183611efd565b83610e6e565b60405162461bcd60e51b815260206004820152601060248201527f70726f6f66206e6f7420657869737473000000000000000000000000000000006044820152606490fd5b3461014a57600036600319011261014a57600080546001600160a01b03196001600160a01b038216916115b5338414611e2e565b1682557f8be0079c531659141344cd1fd0a4f28419497f9722a3daafe3b4186f6b6457e08280a3005b3461014a57602036600319011261014a5760043560005260066020526040806000206003600282015491015482519182526020820152f35b3461014a57602036600319011261014a57600435600052600660205260a06040600020805490600181015490600281015460046003830154920154926040519485526020850152604084015260608301526080820152f35b3461014a57600036600319011261014a5760206001600160a01b0360015416604051908152f35b3461014a57606036600319011261014a576116ae611de9565b67ffffffffffffffff60243581811161014a576116cf903690600401611e00565b926044359283158015850361014a571561199f57811660005260056020526001600160a01b0360406000205416905b6001600160a01b0380921694851561195a576040516322bb937360e11b8152602096879082908180611734878b60048401611ffc565b03915afa801561053d5761174f9160009161193d5750612024565b61175761230b565b9385156119185761176b61034b8383612081565b855261177a61034b83836120a7565b608086015261178c61034b8383612094565b878601526102009180831161014a576101e082013560408701526102201161014a57013560608401525b8483018051156118d35751600052600785526040600020541561188e57849083519460001461187657600154608085015160405163080cdb0b60e11b815267ffffffffffffffff9390931660048401526024830152909283916044918391165afa801561053d5761182e9160009161185957506121af565b600360606040830151928460005260068652604060002093600285015501519101555b604051908152f35b6118709150853d8711610536576105288183611efd565b85610e6e565b50505050806000526006825280604060002055611851565b60405162461bcd60e51b815260048101869052601060248201527f766b48617368206e6f742076616c6964000000000000000000000000000000006044820152606490fd5b60405162461bcd60e51b815260048101879052601e60248201527f766b486173682073686f756c64206265206c6172676572207468616e203000006044820152606490fd5b818161192d61034b6119349561034b95612081565b8752612094565b858401526117b6565b6119549150883d8a11610536576105288183611efd565b88610338565b60405162461bcd60e51b815260206004820152601660248201527f636861696e207665726966696572206e6f7420736574000000000000000000006044820152606490fd5b811660005260056020526001600160a01b0360016040600020015416906116fe565b3461014a5761012036600319011261014a576119db611de9565b60a036602319011261014a5760c43560e43567ffffffffffffffff811161014a57611a0a903690600401611d6d565b90916101043560ff9384821680920361014a578260005260209460028652611a388160406000205416611e79565b6001805460405163080cdb0b60e11b815267ffffffffffffffff9990991660048a015260a43560248a01819052989193908890839060449082906001600160a01b03165afa91821561053d578492611aa191600091611bee575b50979197959495939293611f37565b60405188810190611ae2816108dd6024809e6084359160643591604435913589939160a0959391855260208501526040840152606083015260808201520190565b519020966000955b611b3e575b50505050505003611afc57005b600c6064926040519262461bcd60e51b845260048401528201527f696e76616c6964206461746100000000000000000000000000000000000000006044820152fd5b9091929394968388166004811015611be75784919087811c8716611bb557611b67908585611f83565b35604051908b8201928352604082015260408152611b8481611ee1565b519020975b1691838314611ba057918401949392919083611aea565b89634e487b7160e01b60005260116004526000fd5b611bc0908585611f83565b3590604051908b8201928352604082015260408152611bde81611ee1565b51902097611b89565b5096611aef565b611c0591508a3d8c11610536576105288183611efd565b8b611a92565b3461014a57611c1936611d9e565b611c336001600160a01b0360009594939554163314611e2e565b611c3e8183146120d7565b60005b828110611c9957507f011d93b74200525baf6adf5cba27a9d8f45c6aec5f9862889711c9f1630879ac93611c9491611c86604051958695604087526040870191612336565b918483036020860152612336565b0390a1005b80611ca8611cc8928488611f83565b35611cb4828688611f83565b356000526007602052604060002055611fa9565b611c41565b3461014a57602036600319011261014a5760043560005260076020526020604060002054604051908152f35b3461014a57602036600319011261014a576004356001600160a01b0380821680920361014a577f674c535cde998bcb47d0688f644df545597c7d6edb95643cb21c82c2d490ff7f91611d52602092600054163314611e2e565b806001600160a01b03196001541617600155604051908152a1005b9181601f8401121561014a5782359167ffffffffffffffff831161014a576020808501948460051b01011161014a57565b604060031982011261014a5767ffffffffffffffff9160043583811161014a5782611dcb91600401611d6d565b9390939260243591821161014a57611de591600401611d6d565b9091565b6004359067ffffffffffffffff8216820361014a57565b9181601f8401121561014a5782359167ffffffffffffffff831161014a576020838186019501011161014a57565b15611e3557565b606460405162461bcd60e51b815260206004820152602060248201527f4f776e61626c653a2063616c6c6572206973206e6f7420746865206f776e65726044820152fd5b15611e8057565b60405162461bcd60e51b815260206004820152601660248201527f6d65726b6c6520726f6f74206e6f7420657869737473000000000000000000006044820152606490fd5b60a0810190811067ffffffffffffffff8211176112d657604052565b6060810190811067ffffffffffffffff8211176112d657604052565b90601f8019910116810190811067ffffffffffffffff8211176112d657604052565b9081602091031261014a5751801515810361014a5790565b15611f3e57565b60405162461bcd60e51b815260206004820152601060248201527f696e76616c696420736d7420726f6f74000000000000000000000000000000006044820152606490fd5b9190811015611f935760051b0190565b634e487b7160e01b600052603260045260246000fd5b6000198114611fb85760010190565b634e487b7160e01b600052601160045260246000fd5b9190811015611f935760a0020190565b90601f811015611f935760051b0190565b91908201809211611fb857565b90918060409360208452816020850152848401376000828201840152601f01601f1916010190565b1561202b57565b60405162461bcd60e51b815260206004820152600f60248201527f70726f6f66206e6f742076616c696400000000000000000000000000000000006044820152606490fd5b906010811015611f935760051b0190565b906101a01161014a576101800190602090565b906101e01161014a576101c00190602090565b906101c01161014a576101a00190602090565b3590602081106120c8575090565b6000199060200360031b1b1690565b156120de57565b60405162461bcd60e51b815260206004820152601060248201527f6c656e677468206e6f74206d61746368000000000000000000000000000000006044820152606490fd5b356001600160a01b038116810361014a5790565b3567ffffffffffffffff8116810361014a5790565b9190808252602080920192916000805b83821061216b57505050505090565b9091929394853567ffffffffffffffff811680910361219757815283019483019392916001019061215c565b8280fd5b35906001600160a01b038216820361014a57565b156121b657565b60405162461bcd60e51b815260206004820152601260248201527f736d7420726f6f74206e6f742076616c696400000000000000000000000000006044820152606490fd5b903590601e198136030182121561014a570180359067ffffffffffffffff821161014a576020019181600a1b3603831361014a57565b903590601e198136030182121561014a570180359067ffffffffffffffff821161014a576020019160a082023603831361014a57565b903590601e198136030182121561014a570180359067ffffffffffffffff821161014a57602001918160051b3603831361014a57565b9190811015611f9357600a1b0190565b906005811015611f935760c0020190565b9081519160005b8381106122d6575050016000815290565b80602080928401015181850152016122c5565b9190811015611f935760051b81013590609e198136030182121561014a570190565b6040519061231882611ec5565b60006080838281528260208201528260408201528260608201520152565b90918281527f07ffffffffffffffffffffffffffffffffffffffffffffffffffffffffffffff831161014a5760209260051b80928483013701019056fea26469706673582212206f847a1526f8002a4a2fb19c7f9d40f2bc6c7159efbadad924f82aab70264ef464736f6c63430008140033",
  "devdoc": {
    "kind": "dev",
    "methods": {
      "owner()": {
        "details": "Returns the address of the current owner."
      },
      "renounceOwnership()": {
        "details": "Leaves the contract without owner. It will not be possible to call `onlyOwner` functions anymore. Can only be called by the current owner. NOTE: Renouncing ownership will leave the contract without an owner, thereby removing any functionality that is only available to the owner."
      },
      "transferOwnership(address)": {
        "details": "Transfers ownership of the contract to a new account (`newOwner`). Can only be called by the current owner."
      }
    },
    "version": 1
  },
  "userdoc": {
    "kind": "user",
    "methods": {},
    "version": 1
  },
  "storageLayout": {
    "storage": [
      {
        "astId": 7,
        "contract": "contracts/sdk/core/BrevisProof.sol:BrevisProof",
        "label": "_owner",
        "offset": 0,
        "slot": "0",
        "type": "t_address"
      },
      {
        "astId": 4869,
        "contract": "contracts/sdk/core/BrevisProof.sol:BrevisProof",
        "label": "smtContract",
        "offset": 0,
        "slot": "1",
        "type": "t_contract(ISMT)2216"
      },
      {
        "astId": 4884,
        "contract": "contracts/sdk/core/BrevisProof.sol:BrevisProof",
        "label": "merkleRoots",
        "offset": 0,
        "slot": "2",
        "type": "t_mapping(t_bytes32,t_bool)"
      },
      {
        "astId": 4888,
        "contract": "contracts/sdk/core/BrevisProof.sol:BrevisProof",
        "label": "requestIds",
        "offset": 0,
        "slot": "3",
        "type": "t_mapping(t_bytes32,t_bool)"
      },
      {
        "astId": 4893,
        "contract": "contracts/sdk/core/BrevisProof.sol:BrevisProof",
        "label": "aggProofVerifierAddress",
        "offset": 0,
        "slot": "4",
        "type": "t_mapping(t_uint64,t_contract(IZkpVerifier)9356)"
      },
      {
        "astId": 5503,
        "contract": "contracts/sdk/core/BrevisProof.sol:BrevisProof",
        "label": "verifierAddresses",
        "offset": 0,
        "slot": "5",
        "type": "t_mapping(t_uint64,t_struct(ChainZKVerifier)5498_storage)"
      },
      {
        "astId": 5508,
        "contract": "contracts/sdk/core/BrevisProof.sol:BrevisProof",
        "label": "proofs",
        "offset": 0,
        "slot": "6",
        "type": "t_mapping(t_bytes32,t_struct(ProofData)7116_storage)"
      },
      {
        "astId": 5512,
        "contract": "contracts/sdk/core/BrevisProof.sol:BrevisProof",
        "label": "vkHashesToBatchSize",
        "offset": 0,
        "slot": "7",
        "type": "t_mapping(t_bytes32,t_uint256)"
      }
    ],
    "types": {
      "t_address": {
        "encoding": "inplace",
        "label": "address",
        "numberOfBytes": "20"
      },
      "t_bool": {
        "encoding": "inplace",
        "label": "bool",
        "numberOfBytes": "1"
      },
      "t_bytes32": {
        "encoding": "inplace",
        "label": "bytes32",
        "numberOfBytes": "32"
      },
      "t_contract(ISMT)2216": {
        "encoding": "inplace",
        "label": "contract ISMT",
        "numberOfBytes": "20"
      },
      "t_contract(IZkpVerifier)9356": {
        "encoding": "inplace",
        "label": "contract IZkpVerifier",
        "numberOfBytes": "20"
      },
      "t_mapping(t_bytes32,t_bool)": {
        "encoding": "mapping",
        "key": "t_bytes32",
        "label": "mapping(bytes32 => bool)",
        "numberOfBytes": "32",
        "value": "t_bool"
      },
      "t_mapping(t_bytes32,t_struct(ProofData)7116_storage)": {
        "encoding": "mapping",
        "key": "t_bytes32",
        "label": "mapping(bytes32 => struct Brevis.ProofData)",
        "numberOfBytes": "32",
        "value": "t_struct(ProofData)7116_storage"
      },
      "t_mapping(t_bytes32,t_uint256)": {
        "encoding": "mapping",
        "key": "t_bytes32",
        "label": "mapping(bytes32 => uint256)",
        "numberOfBytes": "32",
        "value": "t_uint256"
      },
      "t_mapping(t_uint64,t_contract(IZkpVerifier)9356)": {
        "encoding": "mapping",
        "key": "t_uint64",
        "label": "mapping(uint64 => contract IZkpVerifier)",
        "numberOfBytes": "32",
        "value": "t_contract(IZkpVerifier)9356"
      },
      "t_mapping(t_uint64,t_struct(ChainZKVerifier)5498_storage)": {
        "encoding": "mapping",
        "key": "t_uint64",
        "label": "mapping(uint64 => struct BrevisProof.ChainZKVerifier)",
        "numberOfBytes": "32",
        "value": "t_struct(ChainZKVerifier)5498_storage"
      },
      "t_struct(ChainZKVerifier)5498_storage": {
        "encoding": "inplace",
        "label": "struct BrevisProof.ChainZKVerifier",
        "members": [
          {
            "astId": 5494,
            "contract": "contracts/sdk/core/BrevisProof.sol:BrevisProof",
            "label": "contractAppZkVerifier",
            "offset": 0,
            "slot": "0",
            "type": "t_contract(IZkpVerifier)9356"
          },
          {
            "astId": 5497,
            "contract": "contracts/sdk/core/BrevisProof.sol:BrevisProof",
            "label": "circuitAppZkVerifier",
            "offset": 0,
            "slot": "1",
            "type": "t_contract(IZkpVerifier)9356"
          }
        ],
        "numberOfBytes": "64"
      },
      "t_struct(ProofData)7116_storage": {
        "encoding": "inplace",
        "label": "struct Brevis.ProofData",
        "members": [
          {
            "astId": 7107,
            "contract": "contracts/sdk/core/BrevisProof.sol:BrevisProof",
            "label": "commitHash",
            "offset": 0,
            "slot": "0",
            "type": "t_bytes32"
          },
          {
            "astId": 7109,
            "contract": "contracts/sdk/core/BrevisProof.sol:BrevisProof",
            "label": "vkHash",
            "offset": 0,
            "slot": "1",
            "type": "t_bytes32"
          },
          {
            "astId": 7111,
            "contract": "contracts/sdk/core/BrevisProof.sol:BrevisProof",
            "label": "appCommitHash",
            "offset": 0,
            "slot": "2",
            "type": "t_bytes32"
          },
          {
            "astId": 7113,
            "contract": "contracts/sdk/core/BrevisProof.sol:BrevisProof",
            "label": "appVkHash",
            "offset": 0,
            "slot": "3",
            "type": "t_bytes32"
          },
          {
            "astId": 7115,
            "contract": "contracts/sdk/core/BrevisProof.sol:BrevisProof",
            "label": "smtRoot",
            "offset": 0,
            "slot": "4",
            "type": "t_bytes32"
          }
        ],
        "numberOfBytes": "160"
      },
      "t_uint256": {
        "encoding": "inplace",
        "label": "uint256",
        "numberOfBytes": "32"
      },
      "t_uint64": {
        "encoding": "inplace",
        "label": "uint64",
        "numberOfBytes": "8"
      }
    }
  }
}