{
  "address": "0x53F59bBB40C2fA7547AF912609E91424F1906F82",
  "abi": [
    {
      "inputs": [],
      "name": "ProofInvalid",
      "type": "error"
    },
    {
      "inputs": [],
      "name": "PublicInputNotInField",
      "type": "error"
    },
    {
      "inputs": [
        {
          "internalType": "uint256[8]",
          "name": "proof",
          "type": "uint256[8]"
        },
        {
          "internalType": "uint256[2]",
          "name": "commitment",
          "type": "uint256[2]"
        },
        {
          "internalType": "uint256[2]",
          "name": "commitmentPOK",
          "type": "uint256[2]"
        },
        {
          "internalType": "uint256[9]",
          "name": "input",
          "type": "uint256[9]"
        }
      ],
      "name": "verifyProof",
      "outputs": [
        {
          "internalType": "bool",
          "name": "",
          "type": "bool"
        }
      ],
      "stateMutability": "view",
      "type": "function"
    }
  ],
  "transactionHash": "0xaa5dbf03b4017902236d60deb12a9039cb9263f7b97131c13be738170a7793b1",
  "args": [],
  "numDeployments": 1,
  "solcInputHash": "ddc81e85e495e4a5e6e3078ed6929b8f",
  "bytecode": "0x6080806040523461001657610c4a908161001c8239f35b600080fdfe60048036101561000e57600080fd5b6000803560e01c6360e583461461002457600080fd5b34610b87576102a0366003190112610b87573660231215610b875767ffffffffffffffff90610180604052610104906080368311610b9e5784905b838210610bb2575050366101231215610b87576040519161007f83610bc2565b8261014491368311610b7057905b828210610ba2575050366101631215610b9e57604051916100ad83610bc2565b8261018492368411610b9a57905b838210610b8a575050366101a31215610b875760405191826101208101108661012085011117610b74576101208301604052826102a491368311610b7057905b828210610b6057505050835194602085015160405196602088015260408701526040865285606081011090606087011117610b4d575060608401604052600080516020610bf58339815191528451602086012006907f243f253d3a5828926e3dc6e7b72e4935cbc87d253f4d9d271990b48e2d164bec60608601527f29fc30b3a7727a127b50243b54a51a44fddb22492c87772742be18a92dd2145460808601527f0368a773e061d47531b1d442e9bbce24f6869c5b10c405d233700a8430ab48d060a08601527f1ae5946905858f141a59d89f0429d21d1f78ae98d24a24ed376e490cf0949f6960c086015261012081518060e0880152600080516020610bf5833981519152604060a08901606060a08b0160075afa91101660406060880160808160065afa167f2e868e3ffa1e7e4158f1073db52436a2d12fe1aa02da82a6f3069b4370a25c9a60a08801527f0d6ee7f95c161231fa4f0b4ab1cefa891f3d44fa4a5002d05d5ded1597e7b2b260c08801526020830151908160e0890152604060a08901606060a08b0160075afa90600080516020610bf5833981519152604060608b0160808160065afa93101616167f24c131f109aeb72fe342d3e9cde4b09b2e276a0268e75e3f0ad76d306ff296d160a08801527f1649062d5bdbe81b7595e66fbfc05647c967368d6fbd1cf667beba7d18267aff60c08801526040830151908160e0890152604060a08901606060a08b0160075afa90600080516020610bf5833981519152604060608b0160808160065afa93101616167f1af65538b7b78c2ea3f2971c3d0c5352ef5dc9453f3c13688be0030e77827eba60a08801527f0984fcf554e04c60c49ce615b2695d698af56c5f57b0e73580e30717e53fe85860c08801526060830151908160e0890152604060a08901606060a08b0160075afa90600080516020610bf5833981519152604060608b0160808160065afa93101616167f286b32246837995a3777d4abb95d9130e6a150a42da23f977cea5bba43ce019960a08801527f1b89a3f62ef9b59f244e69cab0fef43da4b6f47742b5b6d5803b3c20ece3e44b60c08801526080830151908160e08901526001604060a08a01606060a08c0160075afa91600080516020610bf5833981519152604060608c0160808160065afa9410161616167f1198565a9b3b5082da1fec5bec238019d38aed2ae240abda52bafa03693c0b8960a08801527f14c24973f9a9b433b4ca23a79b349143a952ef2c4db0cfcaafa5aab580c8fe6460c088015260a0830151908160e0890152604060a08901606060a08b0160075afa90600080516020610bf5833981519152604060608b0160808160065afa93101616167eed37e6589cceccbadba33c36446294c869ec9fd52792ac5200d825ee4a954860a08801527f0e16ec0dc3aa6828c82e11bf9dc7c374fa2147f28697ad66d22855b770ffecc760c088015260c0830151908160e0890152604060a08901606060a08b0160075afa90600080516020610bf5833981519152604060608b0160808160065afa93101616167f200f12c0d6c3a4a5f7ea41ff2825fa70ff081c5f3aaee058d2e813c9ff7ef6b260a08801527f058d0f7aea73e7ae464e2140e00ad624b114c9dca6aefe25b2018eba1f3f3dc260c088015260e0830151908160e0890152604060a08901606060a08b0160075afa90600080516020610bf5833981519152604060608b0160808160065afa93101616167f1e524db589598f5ea66e68c7b46c793bc6b9ef7ec3c4f9213826684e32a7f6ac60a08801527f11dad25da9967aca4d477a6bcfdf94649f47ab7dc09f19f2ed3d1454ea0281a960c0880152610100830151908160e0890152604060a08901606060a08b0160075afa90600080516020610bf5833981519152604060608b0160808160065afa9310161616917f0fd61a3acddbac4a5f168db7f8947ad7fe26e2f546bd39e185c64761429967df60a08801527f2afb261009a9d412b3abbdcfbaca91452c992f523cfe67fc29a9fb64ef669d4960c088015201519160e0860152604060a08601606060a0880160075afa90600080516020610bf583398151915260406060880160808160065afa865160a0890152602087015160c0890152931016161660406060850160808160065afa16608060608501519401519015610b3c576020928391608051958360800151604060800151606060800151608080015160a0608001519160c0608001519360e060800151958a6040519e8f908152015260408d015260608c015260808b015260a08a015260c089015260e08801527f041a59e86881cced066ec0055784ff23212571c79787e74dcecbdc541e5f805c6101008801527f2df1eedc0e7b3f9f2d3c71028c2989c7d1498fbd1b8382c5fd0a907a6b239aa86101208801527f06fa747aefd5b24a15724d74bdd780da04f39ee7455de466dc5aaaa73ec722cc6101408801527f29c53944fa7000fe243e4ee349e290ac4b8517e5cc3d81cb6fc10fdc3aa4349f6101608801527f1578962d7731e800a49a07edc97155e9772447ec3021fcd780d09d73c1052eb36101808801527f058a0eee1378850538455c50f8a692fee3ce434ed7799e0e3673d39b744acc4b6101a08801527f22fa291048db0d3bd61b7914267621f98860318a356c438675e66b793bdaade46101c08801527f1dd8a81dd5674bd44f02cfdfa2d3f7188ac4f1237ad0ddc4cd554ef8da3578ad6101e08801527f261e9d47f525493c4fd9d763f15f1e226c997529fe91f2da176c7131e874e0e06102008801527f1bcc9148590a34f34c7733cce8ac5b4253edb832294753e987b5a8d8a0fe68fa6102208801526102408701526102608601527f1b4cea3a77efece259adf60016bdac7d785790c78c55374e065b55ccb5a020146102808601527f012e222033cd48d79e5f644efb6ff128210e63a129ad3ef85c33adda333b75236102a08601527f138f4d5c4700c1ffc1837d6a93fec6f19c89ca16c7e3f98e19f3057d331ddb0d6102c08601527f26fb6134fc405c7c1770f8c65bcad287af6152d59b190b724abb779e4013c89f6102e0860152805161030086015201516103208401527f1ed0ec69cebe4ffeb9b7b71b62cdea5fc59c51e596d181d192b9c1dd5ee5d7c36103408401527f10c83934dab0bbfccbd310f262e7ae7f3d479e6244cafebaaf484d1a1e2a212a6103608401527f260c1880090718119e988a0d2dfe85aaa69c1bff8f9852547e413799b5537cb66103808401527f248994a385333592ae2d662cce7c4c06db7072f47e9cb4944adad17f505993136103a084015280516103c084015201516103e08201527f02325ab2c4a57282440a36129379139112f965a075a10e7c35229cc094b131ea6104008201527f14d05bbc1bae57ca56e13cf4c42dd2aef14ceb2d0a3e70dc5ef48501805525836104208201527f2cf05b168d4fb93db0264089b2825d0bcc83ade1fbd8f0a69cdc51917b02f53e6104408201527f0eee9ed0baed732abd61e619f4701bd00945280cf5111496602c5a51a69b58046104608201526020816104808160085afa90511615610b2d57602060405160018152f35b604051631ff3747d60e21b8152fd5b60405163a54f8e2760e01b81528590fd5b634e487b7160e01b815260418652602490fd5b81358152602091820191016100fb565b8380fd5b634e487b7160e01b825260418752602482fd5b80fd5b81358152602091820191016100bb565b8280fd5b5080fd5b813581526020918201910161008d565b813581526020918201910161005f565b6040810190811067ffffffffffffffff821117610bde57604052565b634e487b7160e01b600052604160045260246000fdfe30644e72e131a029b85045b68181585d2833e84879b9709143e1f593f0000001a26469706673582212209ee77c47dec6ecfe2a8a504cb59d0034bc010f2a9fcd072677cc241a6262dee564736f6c63430008140033",
  "devdoc": {
    "author": "Remco Bloemen",
    "errors": {
      "ProofInvalid()": [
        {
          "details": "This can mean that provided Groth16 proof points are not on their curves, that pairing equation fails, or that the proof is not for the provided public input."
        }
      ],
      "PublicInputNotInField()": [
        {
          "details": "Public input elements are not automatically reduced, as this is can be a dangerous source of bugs."
        }
      ]
    },
    "kind": "dev",
    "methods": {
      "verifyProof(uint256[8],uint256[2],uint256[2],uint256[9])": {
        "params": {
          "input": "the public input field elements in the scalar field Fr. Elements must be reduced.",
          "proof": "the points (A, B, C) in EIP-197 format matching the output of compressProof."
        }
      }
    },
    "title": "Groth16 verifier template.",
    "version": 1
  },
  "userdoc": {
    "errors": {
      "ProofInvalid()": [
        {
          "notice": "The proof is invalid."
        }
      ],
      "PublicInputNotInField()": [
        {
          "notice": "Some of the provided public input values are larger than the field modulus."
        }
      ]
    },
    "kind": "user",
    "methods": {
      "verifyProof(uint256[8],uint256[2],uint256[2],uint256[9])": {
        "notice": "Verify an uncompressed Groth16 proof.Reverts with InvalidProof if the proof is invalid or with PublicInputNotInField the public input is not reduced.There is no return value. If the function does not revert, the proof was successfully verified."
      }
    },
    "notice": "Supports verifying Groth16 proofs. Proofs can be in uncompressed (256 bytes) and compressed (128 bytes) format. A view function is provided to compress proofs.See <https://2π.com/23/bn254-compression> for further explanation.",
    "version": 1
  },
  "storageLayout": {
    "storage": [],
    "types": null
  }
}