{
  "address": "0xE77ea03b70544EC767C4144049402D71D9Fa55e0",
  "abi": [
    {
      "inputs": [
        {
          "internalType": "string",
          "name": "name_",
          "type": "string"
        },
        {
          "internalType": "string",
          "name": "symbol_",
          "type": "string"
        },
        {
          "internalType": "uint8",
          "name": "decimals_",
          "type": "uint8"
        },
        {
          "internalType": "uint256",
          "name": "initialSupply_",
          "type": "uint256"
        }
      ],
      "stateMutability": "nonpayable",
      "type": "constructor"
    },
    {
      "anonymous": false,
      "inputs": [
        {
          "indexed": true,
          "internalType": "address",
          "name": "owner",
          "type": "address"
        },
        {
          "indexed": true,
          "internalType": "address",
          "name": "spender",
          "type": "address"
        },
        {
          "indexed": false,
          "internalType": "uint256",
          "name": "value",
          "type": "uint256"
        }
      ],
      "name": "Approval",
      "type": "event"
    },
    {
      "anonymous": false,
      "inputs": [
        {
          "indexed": true,
          "internalType": "address",
          "name": "previousOwner",
          "type": "address"
        },
        {
          "indexed": true,
          "internalType": "address",
          "name": "newOwner",
          "type": "address"
        }
      ],
      "name": "OwnershipTransferred",
      "type": "event"
    },
    {
      "anonymous": false,
      "inputs": [
        {
          "indexed": true,
          "internalType": "address",
          "name": "from",
          "type": "address"
        },
        {
          "indexed": true,
          "internalType": "address",
          "name": "to",
          "type": "address"
        },
        {
          "indexed": false,
          "internalType": "uint256",
          "name": "value",
          "type": "uint256"
        }
      ],
      "name": "Transfer",
      "type": "event"
    },
    {
      "inputs": [
        {
          "internalType": "address",
          "name": "owner",
          "type": "address"
        },
        {
          "internalType": "address",
          "name": "spender",
          "type": "address"
        }
      ],
      "name": "allowance",
      "outputs": [
        {
          "internalType": "uint256",
          "name": "",
          "type": "uint256"
        }
      ],
      "stateMutability": "view",
      "type": "function"
    },
    {
      "inputs": [
        {
          "internalType": "address",
          "name": "spender",
          "type": "address"
        },
        {
          "internalType": "uint256",
          "name": "amount",
          "type": "uint256"
        }
      ],
      "name": "approve",
      "outputs": [
        {
          "internalType": "bool",
          "name": "",
          "type": "bool"
        }
      ],
      "stateMutability": "nonpayable",
      "type": "function"
    },
    {
      "inputs": [
        {
          "internalType": "address",
          "name": "account",
          "type": "address"
        }
      ],
      "name": "balanceOf",
      "outputs": [
        {
          "internalType": "uint256",
          "name": "",
          "type": "uint256"
        }
      ],
      "stateMutability": "view",
      "type": "function"
    },
    {
      "inputs": [
        {
          "internalType": "uint256",
          "name": "amount",
          "type": "uint256"
        }
      ],
      "name": "burn",
      "outputs": [],
      "stateMutability": "nonpayable",
      "type": "function"
    },
    {
      "inputs": [
        {
          "internalType": "address",
          "name": "account",
          "type": "address"
        },
        {
          "internalType": "uint256",
          "name": "amount",
          "type": "uint256"
        }
      ],
      "name": "burnFrom",
      "outputs": [],
      "stateMutability": "nonpayable",
      "type": "function"
    },
    {
      "inputs": [],
      "name": "decimals",
      "outputs": [
        {
          "internalType": "uint8",
          "name": "",
          "type": "uint8"
        }
      ],
      "stateMutability": "view",
      "type": "function"
    },
    {
      "inputs": [
        {
          "internalType": "address",
          "name": "spender",
          "type": "address"
        },
        {
          "internalType": "uint256",
          "name": "subtractedValue",
          "type": "uint256"
        }
      ],
      "name": "decreaseAllowance",
      "outputs": [
        {
          "internalType": "bool",
          "name": "",
          "type": "bool"
        }
      ],
      "stateMutability": "nonpayable",
      "type": "function"
    },
    {
      "inputs": [
        {
          "internalType": "address",
          "name": "spender",
          "type": "address"
        },
        {
          "internalType": "uint256",
          "name": "addedValue",
          "type": "uint256"
        }
      ],
      "name": "increaseAllowance",
      "outputs": [
        {
          "internalType": "bool",
          "name": "",
          "type": "bool"
        }
      ],
      "stateMutability": "nonpayable",
      "type": "function"
    },
    {
      "inputs": [
        {
          "internalType": "address",
          "name": "to",
          "type": "address"
        },
        {
          "internalType": "uint256",
          "name": "amount",
          "type": "uint256"
        }
      ],
      "name": "mint",
      "outputs": [],
      "stateMutability": "nonpayable",
      "type": "function"
    },
    {
      "inputs": [],
      "name": "minter",
      "outputs": [
        {
          "internalType": "address",
          "name": "",
          "type": "address"
        }
      ],
      "stateMutability": "view",
      "type": "function"
    },
    {
      "inputs": [],
      "name": "name",
      "outputs": [
        {
          "internalType": "string",
          "name": "",
          "type": "string"
        }
      ],
      "stateMutability": "view",
      "type": "function"
    },
    {
      "inputs": [],
      "name": "owner",
      "outputs": [
        {
          "internalType": "address",
          "name": "",
          "type": "address"
        }
      ],
      "stateMutability": "view",
      "type": "function"
    },
    {
      "inputs": [],
      "name": "renounceOwnership",
      "outputs": [],
      "stateMutability": "nonpayable",
      "type": "function"
    },
    {
      "inputs": [
        {
          "internalType": "address",
          "name": "minter_",
          "type": "address"
        }
      ],
      "name": "setMinter",
      "outputs": [],
      "stateMutability": "nonpayable",
      "type": "function"
    },
    {
      "inputs": [],
      "name": "symbol",
      "outputs": [
        {
          "internalType": "string",
          "name": "",
          "type": "string"
        }
      ],
      "stateMutability": "view",
      "type": "function"
    },
    {
      "inputs": [],
      "name": "totalSupply",
      "outputs": [
        {
          "internalType": "uint256",
          "name": "",
          "type": "uint256"
        }
      ],
      "stateMutability": "view",
      "type": "function"
    },
    {
      "inputs": [
        {
          "internalType": "address",
          "name": "to",
          "type": "address"
        },
        {
          "internalType": "uint256",
          "name": "amount",
          "type": "uint256"
        }
      ],
      "name": "transfer",
      "outputs": [
        {
          "internalType": "bool",
          "name": "",
          "type": "bool"
        }
      ],
      "stateMutability": "nonpayable",
      "type": "function"
    },
    {
      "inputs": [
        {
          "internalType": "address",
          "name": "from",
          "type": "address"
        },
        {
          "internalType": "address",
          "name": "to",
          "type": "address"
        },
        {
          "internalType": "uint256",
          "name": "amount",
          "type": "uint256"
        }
      ],
      "name": "transferFrom",
      "outputs": [
        {
          "internalType": "bool",
          "name": "",
          "type": "bool"
        }
      ],
      "stateMutability": "nonpayable",
      "type": "function"
    },
    {
      "inputs": [
        {
          "internalType": "address",
          "name": "newOwner",
          "type": "address"
        }
      ],
      "name": "transferOwnership",
      "outputs": [],
      "stateMutability": "nonpayable",
      "type": "function"
    }
  ],
  "transactionHash": "0x30647500e67126f96c9eb4be81df1439370dc99a10ea7c878f595897d626083b",
  "args": [
    "incetest2",
    "INCE2",
    18,
    "0"
  ],
  "numDeployments": 1,
  "solcInputHash": "ae56364917fd70b4439e305bc4f9a5a2",
  "bytecode": "0x604060808152346200043e576200134f803803806200001e8162000443565b92833981016080828203126200043e5781516001600160401b0392908381116200043e57826200005091830162000469565b9260209283830151908282116200043e576200006e91840162000469565b858301519260ff841684036200043e5760600151948051928084116200033e5760038054946001938487811c9716801562000433575b898810146200041d578190601f97888111620003c7575b508990888311600114620003605760009262000354575b505060001982841b1c191690841b1781555b83519182116200033e5760049384548481811c9116801562000333575b898210146200031e57868111620002d3575b50879086841160011462000268579383949184926000956200025c575b50501b92600019911b1c19161781555b600554865193336001600160a01b0383167f8be0079c531659141344cd1fd0a4f28419497f9722a3daafe3b4186f6b6457e0600080a360ff60a01b60a09190911b1660ff60a01b19339081166001600160a81b0319939093169290921717600555600680546001600160a01b03191682179055156200021f575050507fddf252ad1be2c89b69c2b068fc378daa952ba7f163c4a11628f55a4df523b3ef600091620001ee84600254620004db565b60025533835282815284832062000207858254620004db565b905584519384523393a351610e4f9081620005008239f35b9260649362461bcd60e51b845283015260248201527f45524332303a206d696e7420746f20746865207a65726f2061646472657373006044820152fd5b01519350388062000130565b9190601f1984169286600052848a6000209460005b8c89838310620002bb5750505010620002a0575b50505050811b01815562000140565b01519060f884600019921b161c191690553880808062000291565b8686015189559097019694850194889350016200027d565b85600052886000208780860160051c8201928b871062000314575b0160051c019085905b8281106200030757505062000113565b60008155018590620002f7565b92508192620002ee565b602286634e487b7160e01b6000525260246000fd5b90607f169062000101565b634e487b7160e01b600052604160045260246000fd5b015190503880620000d2565b90869350601f19831691856000528b6000209260005b8d828210620003b0575050841162000397575b505050811b018155620000e4565b015160001983861b60f8161c1916905538808062000389565b8385015186558a9790950194938401930162000376565b90915083600052896000208880850160051c8201928c861062000413575b918891869594930160051c01915b82811062000403575050620000bb565b60008155859450889101620003f3565b92508192620003e5565b634e487b7160e01b600052602260045260246000fd5b96607f1696620000a4565b600080fd5b6040519190601f01601f191682016001600160401b038111838210176200033e57604052565b919080601f840112156200043e5782516001600160401b0381116200033e576020906200049f601f8201601f1916830162000443565b928184528282870101116200043e5760005b818110620004c757508260009394955001015290565b8581018301518482018401528201620004b1565b91908201809211620004e957565b634e487b7160e01b600052601160045260246000fdfe60806040908082526004918236101561001757600080fd5b600092833560e01c92836306fdde03146107f55750826307546172146107cd578263095ea7b3146107a357826318160ddd1461078457826323b872dd14610747578263313ce5671461072257826339509351146106d357826340c10f19146105b457826342966c681461059657826370a0823114610560578263715018a6146104f457826379cc6790146104c15782638da5cb5b1461049957826395d89b411461037a578263a457c2d7146102be578263a9059cbb1461028d578263dd62ed3e14610240578263f2fde38b1461014e57505063fca3b5aa146100f857600080fd5b3461014b57602036600319011261014b57610111610916565b6001600160a01b039061012982600554163314610947565b1673ffffffffffffffffffffffffffffffffffffffff19600654161760065580f35b80fd5b9091503461023c57602036600319011261023c5761016a610916565b90600554906001600160a01b0380831693610186338614610947565b169384156101d357505073ffffffffffffffffffffffffffffffffffffffff191682176005557f8be0079c531659141344cd1fd0a4f28419497f9722a3daafe3b4186f6b6457e08380a380f35b906020608492519162461bcd60e51b8352820152602660248201527f4f776e61626c653a206e6577206f776e657220697320746865207a65726f206160448201527f64647265737300000000000000000000000000000000000000000000000000006064820152fd5b8280fd5b8382346102895780600319360112610289578060209261025e610916565b610266610931565b6001600160a01b0391821683526001865283832091168252845220549051908152f35b5080fd5b8382346102895780600319360112610289576020906102b76102ad610916565b60243590336109b5565b5160018152f35b833461014b578260031936011261014b576102d7610916565b91836024359233815260016020528181206001600160a01b0386168252602052205490828210610311576020856102b78585038733610b59565b608490602086519162461bcd60e51b8352820152602560248201527f45524332303a2064656372656173656420616c6c6f77616e63652062656c6f7760448201527f207a65726f0000000000000000000000000000000000000000000000000000006064820152fd5b838234610289578160031936011261028957805190828454600181811c9080831692831561048f575b602093848410811461047c57838852908115610460575060011461040b575b505050829003601f01601f191682019267ffffffffffffffff8411838510176103f857508291826103f49252826108cd565b0390f35b634e487b7160e01b815260418552602490fd5b8787529192508591837f8a35acfbc15ff81a39ae7d344fd709f28e8600b4aa8c65c6b64bfe7fe36bd19b5b83851061044c57505050508301018580806103c2565b805488860183015293019284908201610436565b60ff1916878501525050151560051b84010190508580806103c2565b634e487b7160e01b895260228a52602489fd5b91607f16916103a3565b8382346102895781600319360112610289576020906001600160a01b03600554169051908152f35b8382346102895736600319011261014b576104f16104dd610916565b602435906104ec823383610c5b565b610cf4565b80f35b833461014b578060031936011261014b578060055473ffffffffffffffffffffffffffffffffffffffff196001600160a01b03821691610535338414610947565b166005557f8be0079c531659141344cd1fd0a4f28419497f9722a3daafe3b4186f6b6457e08280a380f35b83823461028957602036600319011261028957806020926001600160a01b03610587610916565b16815280845220549051908152f35b839034610289576020366003190112610289576104f1903533610cf4565b91503461023c578060031936011261023c576105ce610916565b90602435916001600160a01b039081600654163303610685571692831561064357506020827fddf252ad1be2c89b69c2b068fc378daa952ba7f163c4a11628f55a4df523b3ef926106228795600254610992565b600255858552848352808520610639838254610992565b905551908152a380f35b6020606492519162461bcd60e51b8352820152601f60248201527f45524332303a206d696e7420746f20746865207a65726f2061646472657373006044820152fd5b825162461bcd60e51b8152602081870152602260248201527f4d696e7461626c653a2063616c6c6572206973206e6f7420746865206d696e7460448201526132b960f11b6064820152608490fd5b8382346102895780600319360112610289576102b760209261071b6106f6610916565b91338152600186528481206001600160a01b0384168252865284602435912054610992565b9033610b59565b83823461028957816003193601126102895760209060ff60055460a01c169051908152f35b838234610289576060366003190112610289576020906102b7610768610916565b610770610931565b6044359161077f833383610c5b565b6109b5565b8382346102895781600319360112610289576020906002549051908152f35b8382346102895780600319360112610289576020906102b76107c3610916565b6024359033610b59565b8382346102895781600319360112610289576020906001600160a01b03600654169051908152f35b8491923461023c578260031936011261023c5782600354600181811c908083169283156108c3575b602093848410811461047c57838852908115610460575060011461086d57505050829003601f01601f191682019267ffffffffffffffff8411838510176103f857508291826103f49252826108cd565b600387529192508591837fc2575a0e9e593c00f959f8c92f12db2869c3395a3b0502d05e2516446f71f85b5b8385106108af57505050508301018580806103c2565b805488860183015293019284908201610899565b91607f169161081d565b6020808252825181830181905290939260005b82811061090257505060409293506000838284010152601f8019910116010190565b8181018601518482016040015285016108e0565b600435906001600160a01b038216820361092c57565b600080fd5b602435906001600160a01b038216820361092c57565b1561094e57565b606460405162461bcd60e51b815260206004820152602060248201527f4f776e61626c653a2063616c6c6572206973206e6f7420746865206f776e65726044820152fd5b9190820180921161099f57565b634e487b7160e01b600052601160045260246000fd5b6001600160a01b03809116918215610aee5716918215610a9d57600082815280602052604081205491808310610a3257604082827fddf252ad1be2c89b69c2b068fc378daa952ba7f163c4a11628f55a4df523b3ef958760209652828652038282205586815220610a27828254610992565b9055604051908152a3565b60405162461bcd60e51b815260206004820152602660248201527f45524332303a207472616e7366657220616d6f756e742065786365656473206260448201527f616c616e636500000000000000000000000000000000000000000000000000006064820152608490fd5b60405162461bcd60e51b815260206004820152602360248201527f45524332303a207472616e7366657220746f20746865207a65726f206164647260448201526265737360e81b6064820152608490fd5b60405162461bcd60e51b815260206004820152602560248201527f45524332303a207472616e736665722066726f6d20746865207a65726f20616460448201527f64726573730000000000000000000000000000000000000000000000000000006064820152608490fd5b6001600160a01b03809116918215610c0a5716918215610bba5760207f8c5be1e5ebec7d5bd14f71427d1e84f3dd0314c0f7b2291e5b200ac8c7c3b925918360005260018252604060002085600052825280604060002055604051908152a3565b60405162461bcd60e51b815260206004820152602260248201527f45524332303a20617070726f766520746f20746865207a65726f206164647265604482015261737360f01b6064820152608490fd5b60405162461bcd60e51b8152602060048201526024808201527f45524332303a20617070726f76652066726f6d20746865207a65726f206164646044820152637265737360e01b6064820152608490fd5b906001600160a01b0380831660005260016020526040600020908216600052602052604060002054926000198403610c94575b50505050565b808410610caf57610ca6930391610b59565b38808080610c8e565b60405162461bcd60e51b815260206004820152601d60248201527f45524332303a20696e73756666696369656e7420616c6c6f77616e63650000006044820152606490fd5b6001600160a01b03168015610dca57600091818352826020526040832054818110610d7a57819083855284602052036040842055600254818103908111610d66577fddf252ad1be2c89b69c2b068fc378daa952ba7f163c4a11628f55a4df523b3ef91602091600255604051908152a3565b634e487b7160e01b84526011600452602484fd5b60405162461bcd60e51b815260206004820152602260248201527f45524332303a206275726e20616d6f756e7420657863656564732062616c616e604482015261636560f01b6064820152608490fd5b60405162461bcd60e51b815260206004820152602160248201527f45524332303a206275726e2066726f6d20746865207a65726f206164647265736044820152607360f81b6064820152608490fdfea26469706673582212204436e49eda3cc459211c93286a853ce5b8a6661b9ffefef1f885ef54409c513264736f6c63430008140033",
  "devdoc": {
    "events": {
      "Approval(address,address,uint256)": {
        "details": "Emitted when the allowance of a `spender` for an `owner` is set by a call to {approve}. `value` is the new allowance."
      },
      "Transfer(address,address,uint256)": {
        "details": "Emitted when `value` tokens are moved from one account (`from`) to another (`to`). Note that `value` may be zero."
      }
    },
    "kind": "dev",
    "methods": {
      "allowance(address,address)": {
        "details": "See {IERC20-allowance}."
      },
      "approve(address,uint256)": {
        "details": "See {IERC20-approve}. NOTE: If `amount` is the maximum `uint256`, the allowance is not updated on `transferFrom`. This is semantically equivalent to an infinite approval. Requirements: - `spender` cannot be the zero address."
      },
      "balanceOf(address)": {
        "details": "See {IERC20-balanceOf}."
      },
      "burn(uint256)": {
        "details": "Destroys `amount` tokens from the caller. See {ERC20-_burn}."
      },
      "burnFrom(address,uint256)": {
        "details": "Destroys `amount` tokens from `account`, deducting from the caller's allowance. See {ERC20-_burn} and {ERC20-allowance}. Requirements: - the caller must have allowance for ``accounts``'s tokens of at least `amount`."
      },
      "constructor": {
        "details": "Constructor that gives msg.sender an initial supply of tokens."
      },
      "decimals()": {
        "details": "Returns the number of decimals used to get its user representation. For example, if `decimals` equals `2`, a balance of `505` tokens should be displayed to a user as `5.05` (`505 / 10 ** 2`). Tokens usually opt for a value of 18, imitating the relationship between Ether and Wei. This is the value {ERC20} uses, unless this function is overridden; NOTE: This information is only used for _display_ purposes: it in no way affects any of the arithmetic of the contract, including {IERC20-balanceOf} and {IERC20-transfer}."
      },
      "decreaseAllowance(address,uint256)": {
        "details": "Atomically decreases the allowance granted to `spender` by the caller. This is an alternative to {approve} that can be used as a mitigation for problems described in {IERC20-approve}. Emits an {Approval} event indicating the updated allowance. Requirements: - `spender` cannot be the zero address. - `spender` must have allowance for the caller of at least `subtractedValue`."
      },
      "increaseAllowance(address,uint256)": {
        "details": "Atomically increases the allowance granted to `spender` by the caller. This is an alternative to {approve} that can be used as a mitigation for problems described in {IERC20-approve}. Emits an {Approval} event indicating the updated allowance. Requirements: - `spender` cannot be the zero address."
      },
      "mint(address,uint256)": {
        "details": "Creates `amount` new tokens for `to`."
      },
      "minter()": {
        "details": "Returns the address of the current owner."
      },
      "name()": {
        "details": "Returns the name of the token."
      },
      "owner()": {
        "details": "Returns the address of the current owner."
      },
      "renounceOwnership()": {
        "details": "Leaves the contract without owner. It will not be possible to call `onlyOwner` functions anymore. Can only be called by the current owner. NOTE: Renouncing ownership will leave the contract without an owner, thereby removing any functionality that is only available to the owner."
      },
      "symbol()": {
        "details": "Returns the symbol of the token, usually a shorter version of the name."
      },
      "totalSupply()": {
        "details": "See {IERC20-totalSupply}."
      },
      "transfer(address,uint256)": {
        "details": "See {IERC20-transfer}. Requirements: - `to` cannot be the zero address. - the caller must have a balance of at least `amount`."
      },
      "transferFrom(address,address,uint256)": {
        "details": "See {IERC20-transferFrom}. Emits an {Approval} event indicating the updated allowance. This is not required by the EIP. See the note at the beginning of {ERC20}. NOTE: Does not update the allowance if the current allowance is the maximum `uint256`. Requirements: - `from` and `to` cannot be the zero address. - `from` must have a balance of at least `amount`. - the caller must have allowance for ``from``'s tokens of at least `amount`."
      },
      "transferOwnership(address)": {
        "details": "Transfers ownership of the contract to a new account (`newOwner`). Can only be called by the current owner."
      }
    },
    "title": "A mintable {ERC20} token.",
    "version": 1
  },
  "userdoc": {
    "kind": "user",
    "methods": {},
    "version": 1
  },
  "storageLayout": {
    "storage": [
      {
        "astId": 374,
        "contract": "contracts/apps/message-bridge/apps/token-bridge/MintableERC20.sol:MintableERC20",
        "label": "_balances",
        "offset": 0,
        "slot": "0",
        "type": "t_mapping(t_address,t_uint256)"
      },
      {
        "astId": 380,
        "contract": "contracts/apps/message-bridge/apps/token-bridge/MintableERC20.sol:MintableERC20",
        "label": "_allowances",
        "offset": 0,
        "slot": "1",
        "type": "t_mapping(t_address,t_mapping(t_address,t_uint256))"
      },
      {
        "astId": 382,
        "contract": "contracts/apps/message-bridge/apps/token-bridge/MintableERC20.sol:MintableERC20",
        "label": "_totalSupply",
        "offset": 0,
        "slot": "2",
        "type": "t_uint256"
      },
      {
        "astId": 384,
        "contract": "contracts/apps/message-bridge/apps/token-bridge/MintableERC20.sol:MintableERC20",
        "label": "_name",
        "offset": 0,
        "slot": "3",
        "type": "t_string_storage"
      },
      {
        "astId": 386,
        "contract": "contracts/apps/message-bridge/apps/token-bridge/MintableERC20.sol:MintableERC20",
        "label": "_symbol",
        "offset": 0,
        "slot": "4",
        "type": "t_string_storage"
      },
      {
        "astId": 7,
        "contract": "contracts/apps/message-bridge/apps/token-bridge/MintableERC20.sol:MintableERC20",
        "label": "_owner",
        "offset": 0,
        "slot": "5",
        "type": "t_address"
      },
      {
        "astId": 12420,
        "contract": "contracts/apps/message-bridge/apps/token-bridge/MintableERC20.sol:MintableERC20",
        "label": "_decimals",
        "offset": 20,
        "slot": "5",
        "type": "t_uint8"
      },
      {
        "astId": 12422,
        "contract": "contracts/apps/message-bridge/apps/token-bridge/MintableERC20.sol:MintableERC20",
        "label": "_minter",
        "offset": 0,
        "slot": "6",
        "type": "t_address"
      }
    ],
    "types": {
      "t_address": {
        "encoding": "inplace",
        "label": "address",
        "numberOfBytes": "20"
      },
      "t_mapping(t_address,t_mapping(t_address,t_uint256))": {
        "encoding": "mapping",
        "key": "t_address",
        "label": "mapping(address => mapping(address => uint256))",
        "numberOfBytes": "32",
        "value": "t_mapping(t_address,t_uint256)"
      },
      "t_mapping(t_address,t_uint256)": {
        "encoding": "mapping",
        "key": "t_address",
        "label": "mapping(address => uint256)",
        "numberOfBytes": "32",
        "value": "t_uint256"
      },
      "t_string_storage": {
        "encoding": "bytes",
        "label": "string",
        "numberOfBytes": "32"
      },
      "t_uint256": {
        "encoding": "inplace",
        "label": "uint256",
        "numberOfBytes": "32"
      },
      "t_uint8": {
        "encoding": "inplace",
        "label": "uint8",
        "numberOfBytes": "1"
      }
    }
  }
}