{
  "address": "0x93f1bddaD29A9D7Fe183960e82E0B30484Bacb36",
  "abi": [
    {
      "inputs": [],
      "name": "ProofInvalid",
      "type": "error"
    },
    {
      "inputs": [],
      "name": "PublicInputNotInField",
      "type": "error"
    },
    {
      "inputs": [
        {
          "internalType": "uint256[8]",
          "name": "proof",
          "type": "uint256[8]"
        },
        {
          "internalType": "uint256[2]",
          "name": "commit",
          "type": "uint256[2]"
        },
        {
          "internalType": "uint256[2]",
          "name": "knowledgeProof",
          "type": "uint256[2]"
        },
        {
          "internalType": "uint256[5]",
          "name": "input",
          "type": "uint256[5]"
        }
      ],
      "name": "verifyProof",
      "outputs": [
        {
          "internalType": "bool",
          "name": "",
          "type": "bool"
        }
      ],
      "stateMutability": "view",
      "type": "function"
    },
    {
      "inputs": [
        {
          "internalType": "bytes",
          "name": "proofData",
          "type": "bytes"
        }
      ],
      "name": "verifyRaw",
      "outputs": [
        {
          "internalType": "bool",
          "name": "",
          "type": "bool"
        }
      ],
      "stateMutability": "view",
      "type": "function"
    }
  ],
  "transactionHash": "0xbf61740a70072f40c3cfb71587acb9e93b17c13e863a6d877edd2e0bb20cc2a0",
  "args": [],
  "numDeployments": 1,
  "solcInputHash": "2de767a9bfced91acefb3fa6889de524",
  "bytecode": "0x6080806040523461001657610c89908161001c8239f35b600080fdfe6080806040526004908136101561001557600080fd5b600090813560e01c908163457726e6146108ca575063ee0d8b3b1461003957600080fd5b346108c35761022090816003193601126108c3576101043681116108c657610144913683116108c35736610184116108c35736610224116108c357604051906020820190833582526101243560408401526040835282606081011067ffffffffffffffff6060850111176108b057507f30644e72e131a029b85045b68181585d2833e84879b9709143e1f593f0000001906060830160405282519020067f1abe4fb0ba57514f084e6d121deb20d6502bb060295b09df04d9dc40144020b56060830152606060808301917f111ed1a241a006037b1b6a34b047d1a50b0e81b6ac8afb874090a2f3f93506ee83527f1976cac143637c225367f33c5a99bc9caed8992066068775e9c3907128dcbdf460a08501527f04c20f9783d8c4f7da53d4a24374d89eeb65bb80f6657e2e5bb3bf7f9c704f2360c08501526101843560e08501526001604060a086018460a0880160075afa7f30644e72e131a029b85045b68181585d2833e84879b9709143e1f593f0000001610184351016604086850160808160065afa167f0554ee3d9e7467b4a1dfde0b9e8ebb1916d670d774f3dc80710b6efff893415560a08701527f2ce2ce2b3d5ab437dab489b359ff55ef28cf24508611e6e3bbe1ce9b974e797760c08701526101a435908160e0880152604060a088018660a08a0160075afa907f30644e72e131a029b85045b68181585d2833e84879b9709143e1f593f0000001604089880160808160065afa93101616167f29945a9d5d60363a00bbc5ba96eccacf12883e0224abcca884cd59ea0817037160a08701527f01148ada5ffe3c0926ede31a9c4ba73fc76f45ea8017d45f7973508a50d1c93260c08701526101c435908160e0880152604060a088018660a08a0160075afa907f30644e72e131a029b85045b68181585d2833e84879b9709143e1f593f0000001604089880160808160065afa93101616167f073bd2da69c84dd7f52a4b0a2f6cb2dfd409be19e404d2cd7215087ab30cf42f60a08701527f1eb4a33d7de7fe64d1c786c2aef3fd755ed9db4b02e8981a4bfe6717033718e960c08701526101e435908160e0880152604060a088018660a08a0160075afa907f30644e72e131a029b85045b68181585d2833e84879b9709143e1f593f0000001604089880160808160065afa93101616167f22ca415a9b40bf32e71533c994efa7b4dcd1d2bed5f7731805704fc2f22680af60a08701527f1b0525cd03cd06860e01017e2854346e958a1e1e59c09adcc2caf8b54b4249fa60c087015261020435908160e0880152604060a088018660a08a0160075afa907f30644e72e131a029b85045b68181585d2833e84879b9709143e1f593f0000001604089880160808160065afa931016161616907f11b47eafafc40d59481943a854f3cb2446e5657da734e9a364bb26afb3aca10e60a08601527f16b39ae4088c9988068485cef2b2c0a587c5f29addbc18305430843b3a91314d60c086015260e0850152604060a085018360a0870160075afa604085840160808160065afa863560a08701526101243560c08701527f30644e72e131a029b85045b68181585d2833e84879b9709143e1f593f000000161022435109092161616604082850160808160065afa169201519051911561089f577f2f6879f3a115e1717eeb2ef0f841729842c5de24c82663b14fe632bdea296378604051957f0100530e456366c585b24b399fbfe293056b5f84566eb0eb0f46895bea8d27f1610100808a8a378801527f16fdce5fa3a87b028cf3d7a3354e0e4080010e04350c9c56d0c00310bcb6b5d96101208801527f0e8b40e29c08625bf4b92958f147f84697d60bc4d6e3582740ca274313f761fa6101408801527f29a8dc94687cd5750841fd3273cb192c85e982cfbc4127be7d962994bfc6fa5c6101608801527f2c813dcd4a936b569635e7b2ef4491f52e7b3dd9d2d6ebe7fb9e68d5cc0671fe6101808801527f1f95574fa1db4f1938009115f17287e913786096165246f0786beb334c2df02a6101a08801527f2174c21e75f0450ab14872b1bf6a86b9d14043e740117da0cd542f2bb2f229ca6101c08801527f1aea00df1f666d58f6abf4084d51320f97a3a39e79655a4eb88288d0631d9e516101e08801527f1737ae5e54530e3497379b6743fb007469a3684ffd1463b3e9ce739b53a3b1436102008801528601526102408501526102608401527f2a74872bdb3b8e9a5a0dd610d50b8762e5b71163ce03ca00092acb0cde7e396c6102808401527f2ed9362ac9dcaab11d8efa5d14ac62edad850eabbbff3b0ecef83012b9095f846102a08401527f16952c6605d50876ff3381e9c44ab440678b967b78bf1767238ba579c693989c6102c08401527f18c62ad542e1d3fc1572842838dc31d536afc8b432c669a801756dc55a9c76706102e084015235610300830152610124356103208301527f2f08f136e0f7473dbe3ad27e006455a0126afaa20c30f9b7cd5d62bfe553229c6103408301527f29a79a73c680dd14165d34a8be446f5ad176ed6eb80da906a5c330a324daf34c6103608301527f26de87c7a62b928c365fa88bbdadf8c53c92e6e068b1340cfea3077bfe833e526103808301527f2ffbdcd3108254f04d2a732c02c54802f1e771b38496ca9bb4df9088d19c7cf56103a0830152356103c0820152610164356103e08201527f134efac75c2b7b455359b880cc177ac57a612d6024d6feabdec2c0c15289eee26104008201527f14f3d56d01bff1b872e1cc7e09a24b5428ea0f94e8207ead3f00e52918debe576104208201527f2fcb28ee4f89a409959f941c8bad94a2391b5545f475c0fa1e2b3b8d9729839a6104408201527f01e3ff0259c553ea089b5dc70bc31f9d1126b9ba9e150f333561fa322cad8f726104608201526020816104808160085afa9051161561089057602060405160018152f35b604051631ff3747d60e21b8152fd5b60405163a54f8e2760e01b81528690fd5b634e487b7160e01b815260418752602490fd5b80fd5b5080fd5b8383346108c357602092836003193601126108c65767ffffffffffffffff928035848111610bf55736602382011215610bf5578082013590858211610bf1573660248383010111610bf15761010080850185811088821117610bde5760405280368637828811610bd6576024820135855282604011610bd65760448201358886015282606011610bd65760648201356040860152608090838211610bda57608483013560608701528360a011610bda5760a4830135828701528360c011610bda5760c483013560a08701528360e011610bda57839060e484013560c088015211610bd6576101048083013560e08701526040516109c681610bf9565b60403682378461012011610bd25761012484013581528461014011610bd25761014491828501358b830152604051936109fe85610bf9565b60403686378661016011610bce5761016486013585528661018011610bce5761018495868101358d8701526040519760a089018d8a821090821117610bbb5760405260a0368a378061019011610bb7578d6101a4830135841c908a0152806101a011610bb7576101b4820135831c8952806101b011610bb7576101c4820135831c60608a0152806101c011610bb7576101d4820135831c60408a01526101e011610bb3576101e401359087015260405163ee0d8b3b60e01b815297898c898b015b60088310610b9c5750505050610ae5939291610add91890190610c2b565b860190610c2b565b830184905b8760058310610b8857925050508261022481305afa938415610b7d578394610b19575b85856040519015158152f35b909192935084913d8611610b75575b601f8301601f1916840191821184831017610b62575084918391604052810103126108c657519081151582036108c3575082808080610b0d565b634e487b7160e01b855260419052602484fd5b3d9250610b28565b6040513d85823e3d90fd5b806001928551815201930191019091610aea565b908060019285518152019301910190918d90610abf565b8a80fd5b8b80fd5b634e487b7160e01b8d5260418b5260248dfd5b8980fd5b8780fd5b8580fd5b8680fd5b634e487b7160e01b875260418552602487fd5b8480fd5b8380fd5b6040810190811067ffffffffffffffff821117610c1557604052565b634e487b7160e01b600052604160045260246000fd5b6000915b60028310610c3c57505050565b600190825181526020809101920192019190610c2f56fea2646970667358221220cbc22cd755ea81a018162f5a6a65890c77aad318c1e5da3625d972fb22bce36364736f6c63430008140033",
  "devdoc": {
    "author": "Remco Bloemen",
    "errors": {
      "ProofInvalid()": [
        {
          "details": "This can mean that provided Groth16 proof points are not on their curves, that pairing equation fails, or that the proof is not for the provided public input."
        }
      ],
      "PublicInputNotInField()": [
        {
          "details": "Public input elements are not automatically reduced, as this is can be a dangerous source of bugs."
        }
      ]
    },
    "kind": "dev",
    "methods": {
      "verifyProof(uint256[8],uint256[2],uint256[2],uint256[5])": {
        "params": {
          "input": "the public input field elements in the scalar field Fr. Elements must be reduced.",
          "proof": "the points (A, B, C) in EIP-197 format matching the output of compressProof."
        }
      }
    },
    "title": "Groth16 verifier template.",
    "version": 1
  },
  "userdoc": {
    "errors": {
      "ProofInvalid()": [
        {
          "notice": "The proof is invalid."
        }
      ],
      "PublicInputNotInField()": [
        {
          "notice": "Some of the provided public input values are larger than the field modulus."
        }
      ]
    },
    "kind": "user",
    "methods": {
      "verifyProof(uint256[8],uint256[2],uint256[2],uint256[5])": {
        "notice": "Verify an uncompressed Groth16 proof.Reverts with InvalidProof if the proof is invalid or with PublicInputNotInField the public input is not reduced.There is no return value. If the function does not revert, the proof was successfully verified."
      }
    },
    "notice": "Supports verifying Groth16 proofs. Proofs can be in uncompressed (256 bytes) and compressed (128 bytes) format. A view function is provided to compress proofs.See <https://2π.com/23/bn254-compression> for further explanation.",
    "version": 1
  },
  "storageLayout": {
    "storage": [],
    "types": null
  }
}