{
  "address": "0x9D3d4c9876Ce85fcaDb4aa835C249DcaF4D56999",
  "abi": [
    {
      "inputs": [
        {
          "internalType": "uint256",
          "name": "blockNum",
          "type": "uint256"
        }
      ],
      "name": "blocks",
      "outputs": [
        {
          "internalType": "bytes32",
          "name": "",
          "type": "bytes32"
        }
      ],
      "stateMutability": "view",
      "type": "function"
    }
  ],
  "transactionHash": "0x8652082234d734f113e696380c2d1d9e9908ed1f59ba946433914d27b6bc3cc8",
  "args": [],
  "numDeployments": 1,
  "solcInputHash": "ddc81e85e495e4a5e6e3078ed6929b8f",
  "bytecode": "0x60808060405234601457607b908161001a8239f35b600080fdfe6080806040526004361015601257600080fd5b60003560e01c63f25b3f9914602657600080fd5b346040576020366003190112604057602090600435408152f35b600080fdfea2646970667358221220e2ce040863d7c3e35fb1798f49a2291072e760bd067e8ec6dc13003cbe7ec3f164736f6c63430008140033",
  "devdoc": {
    "kind": "dev",
    "methods": {},
    "version": 1
  },
  "userdoc": {
    "kind": "user",
    "methods": {},
    "version": 1
  },
  "storageLayout": {
    "storage": [],
    "types": null
  }
}