{
  "address": "0x38324b683ee8534F5399C89AdbFbd4814c146e04",
  "abi": [
    {
      "inputs": [
        {
          "internalType": "address",
          "name": "_feeCollector",
          "type": "address"
        },
        {
          "internalType": "contract IBrevisProof",
          "name": "_brevisProof",
          "type": "address"
        }
      ],
      "stateMutability": "nonpayable",
      "type": "constructor"
    },
    {
      "anonymous": false,
      "inputs": [
        {
          "indexed": false,
          "internalType": "address",
          "name": "from",
          "type": "address"
        },
        {
          "indexed": false,
          "internalType": "address",
          "name": "to",
          "type": "address"
        }
      ],
      "name": "FeeCollectorUpdated",
      "type": "event"
    },
    {
      "anonymous": false,
      "inputs": [
        {
          "indexed": true,
          "internalType": "address",
          "name": "previousOwner",
          "type": "address"
        },
        {
          "indexed": true,
          "internalType": "address",
          "name": "newOwner",
          "type": "address"
        }
      ],
      "name": "OwnershipTransferred",
      "type": "event"
    },
    {
      "anonymous": false,
      "inputs": [
        {
          "indexed": false,
          "internalType": "bytes32",
          "name": "requestId",
          "type": "bytes32"
        }
      ],
      "name": "RequestCallbackFailed",
      "type": "event"
    },
    {
      "anonymous": false,
      "inputs": [
        {
          "indexed": false,
          "internalType": "bytes32",
          "name": "requestId",
          "type": "bytes32"
        }
      ],
      "name": "RequestFulfilled",
      "type": "event"
    },
    {
      "anonymous": false,
      "inputs": [
        {
          "indexed": false,
          "internalType": "bytes32",
          "name": "requestId",
          "type": "bytes32"
        }
      ],
      "name": "RequestRefunded",
      "type": "event"
    },
    {
      "anonymous": false,
      "inputs": [
        {
          "indexed": false,
          "internalType": "bytes32",
          "name": "requestId",
          "type": "bytes32"
        },
        {
          "indexed": false,
          "internalType": "address",
          "name": "sender",
          "type": "address"
        },
        {
          "indexed": false,
          "internalType": "uint256",
          "name": "fee",
          "type": "uint256"
        },
        {
          "indexed": false,
          "internalType": "address",
          "name": "callback",
          "type": "address"
        }
      ],
      "name": "RequestSent",
      "type": "event"
    },
    {
      "anonymous": false,
      "inputs": [
        {
          "indexed": false,
          "internalType": "uint256",
          "name": "from",
          "type": "uint256"
        },
        {
          "indexed": false,
          "internalType": "uint256",
          "name": "to",
          "type": "uint256"
        }
      ],
      "name": "RequestTimeoutUpdated",
      "type": "event"
    },
    {
      "anonymous": false,
      "inputs": [
        {
          "indexed": false,
          "internalType": "bytes32[]",
          "name": "requestIds",
          "type": "bytes32[]"
        }
      ],
      "name": "RequestsCallbackFailed",
      "type": "event"
    },
    {
      "anonymous": false,
      "inputs": [
        {
          "indexed": false,
          "internalType": "bytes32[]",
          "name": "requestId",
          "type": "bytes32[]"
        }
      ],
      "name": "RequestsFulfilled",
      "type": "event"
    },
    {
      "inputs": [],
      "name": "brevisProof",
      "outputs": [
        {
          "internalType": "contract IBrevisProof",
          "name": "",
          "type": "address"
        }
      ],
      "stateMutability": "view",
      "type": "function"
    },
    {
      "inputs": [
        {
          "internalType": "uint256",
          "name": "_amount",
          "type": "uint256"
        },
        {
          "internalType": "address",
          "name": "_to",
          "type": "address"
        }
      ],
      "name": "collectFee",
      "outputs": [],
      "stateMutability": "nonpayable",
      "type": "function"
    },
    {
      "inputs": [],
      "name": "feeCollector",
      "outputs": [
        {
          "internalType": "address",
          "name": "",
          "type": "address"
        }
      ],
      "stateMutability": "view",
      "type": "function"
    },
    {
      "inputs": [
        {
          "internalType": "uint64",
          "name": "_chainId",
          "type": "uint64"
        },
        {
          "internalType": "bytes32[]",
          "name": "_requestIds",
          "type": "bytes32[]"
        },
        {
          "internalType": "bytes",
          "name": "_proof",
          "type": "bytes"
        },
        {
          "components": [
            {
              "internalType": "bytes32",
              "name": "commitHash",
              "type": "bytes32"
            },
            {
              "internalType": "bytes32",
              "name": "vkHash",
              "type": "bytes32"
            },
            {
              "internalType": "bytes32",
              "name": "appCommitHash",
              "type": "bytes32"
            },
            {
              "internalType": "bytes32",
              "name": "appVkHash",
              "type": "bytes32"
            },
            {
              "internalType": "bytes32",
              "name": "smtRoot",
              "type": "bytes32"
            }
          ],
          "internalType": "struct Brevis.ProofData[]",
          "name": "_proofDataArray",
          "type": "tuple[]"
        },
        {
          "internalType": "bytes[]",
          "name": "_appCircuitOutputs",
          "type": "bytes[]"
        },
        {
          "internalType": "address",
          "name": "_callback",
          "type": "address"
        }
      ],
      "name": "fulfillAggRequests",
      "outputs": [],
      "stateMutability": "nonpayable",
      "type": "function"
    },
    {
      "inputs": [
        {
          "internalType": "bytes32",
          "name": "_requestId",
          "type": "bytes32"
        },
        {
          "internalType": "uint64",
          "name": "_chainId",
          "type": "uint64"
        },
        {
          "internalType": "bytes",
          "name": "_proof",
          "type": "bytes"
        },
        {
          "internalType": "bool",
          "name": "_withAppProof",
          "type": "bool"
        },
        {
          "internalType": "bytes",
          "name": "_appCircuitOutput",
          "type": "bytes"
        }
      ],
      "name": "fulfillRequest",
      "outputs": [],
      "stateMutability": "nonpayable",
      "type": "function"
    },
    {
      "inputs": [],
      "name": "owner",
      "outputs": [
        {
          "internalType": "address",
          "name": "",
          "type": "address"
        }
      ],
      "stateMutability": "view",
      "type": "function"
    },
    {
      "inputs": [
        {
          "internalType": "bytes32",
          "name": "_requestId",
          "type": "bytes32"
        }
      ],
      "name": "queryRequestStatus",
      "outputs": [
        {
          "internalType": "enum IBrevisRequest.RequestStatus",
          "name": "",
          "type": "uint8"
        }
      ],
      "stateMutability": "view",
      "type": "function"
    },
    {
      "inputs": [
        {
          "internalType": "bytes32",
          "name": "_requestId",
          "type": "bytes32"
        }
      ],
      "name": "refund",
      "outputs": [],
      "stateMutability": "nonpayable",
      "type": "function"
    },
    {
      "inputs": [],
      "name": "renounceOwnership",
      "outputs": [],
      "stateMutability": "nonpayable",
      "type": "function"
    },
    {
      "inputs": [],
      "name": "requestTimeout",
      "outputs": [
        {
          "internalType": "uint256",
          "name": "",
          "type": "uint256"
        }
      ],
      "stateMutability": "view",
      "type": "function"
    },
    {
      "inputs": [
        {
          "internalType": "bytes32",
          "name": "",
          "type": "bytes32"
        }
      ],
      "name": "requests",
      "outputs": [
        {
          "internalType": "uint256",
          "name": "deadline",
          "type": "uint256"
        },
        {
          "internalType": "uint256",
          "name": "fee",
          "type": "uint256"
        },
        {
          "internalType": "address",
          "name": "refundee",
          "type": "address"
        },
        {
          "internalType": "address",
          "name": "callback",
          "type": "address"
        },
        {
          "internalType": "enum IBrevisRequest.RequestStatus",
          "name": "status",
          "type": "uint8"
        }
      ],
      "stateMutability": "view",
      "type": "function"
    },
    {
      "inputs": [
        {
          "internalType": "bytes32",
          "name": "_requestId",
          "type": "bytes32"
        },
        {
          "internalType": "address",
          "name": "_refundee",
          "type": "address"
        },
        {
          "internalType": "address",
          "name": "_callback",
          "type": "address"
        }
      ],
      "name": "sendRequest",
      "outputs": [],
      "stateMutability": "payable",
      "type": "function"
    },
    {
      "inputs": [
        {
          "internalType": "address",
          "name": "_feeCollector",
          "type": "address"
        }
      ],
      "name": "setFeeCollector",
      "outputs": [],
      "stateMutability": "nonpayable",
      "type": "function"
    },
    {
      "inputs": [
        {
          "internalType": "uint256",
          "name": "_timeout",
          "type": "uint256"
        }
      ],
      "name": "setRequestTimeout",
      "outputs": [],
      "stateMutability": "nonpayable",
      "type": "function"
    },
    {
      "inputs": [
        {
          "internalType": "address",
          "name": "newOwner",
          "type": "address"
        }
      ],
      "name": "transferOwnership",
      "outputs": [],
      "stateMutability": "nonpayable",
      "type": "function"
    },
    {
      "stateMutability": "payable",
      "type": "receive"
    }
  ],
  "transactionHash": "0xe8e2b7fd8bf78620dabfeb6fce3e13271691066597193d31039b78a195346ae2",
  "args": [
    "0x58b529F9084D7eAA598EB3477Fe36064C5B7bbC1",
    "0xB876cc05c3C3C8ECBA65dAc4CF69CaF871F2e0DD"
  ],
  "numDeployments": 1,
  "solcInputHash": "d4bbd0ac16387f77411af95490f325ee",
  "bytecode": "0x6080346100c057601f61127538819003918201601f19168301916001600160401b038311848410176100c55780849260409485528339810103126100c05780516001600160a01b0391828216918290036100c05760200151908282168092036100c0576000549060018060a01b0319913383821617600055604051943391167f8be0079c531659141344cd1fd0a4f28419497f9722a3daafe3b4186f6b6457e0600080a3816001541617600155600354161760035561119990816100dc8239f35b600080fd5b634e487b7160e01b600052604160045260246000fdfe608080604052600436101561001d575b50361561001b57600080fd5b005b600090813560e01c9081633f20b4c914610ec357508063622b6af414610e605780636a96173514610bc9578063715018a614610b6c5780637249fbb6146109e85780637ff7b0d2146109565780638da5cb5b146109305780639d866985146108c6578063a42dce801461084d578063b6979c3e14610813578063c415b95c146107ec578063c7f5aaa0146107c5578063da47dc32146105a6578063ecdafd46146101ae5763f2fde38b0361000f57346101ab5760203660031901126101ab576100e4610f28565b6001600160a01b0380916100fc828554163314610f92565b1690811561014057600054826001600160a01b0319821617600055167f8be0079c531659141344cd1fd0a4f28419497f9722a3daafe3b4186f6b6457e0600080a380f35b60405162461bcd60e51b815260206004820152602660248201527f4f776e61626c653a206e6577206f776e657220697320746865207a65726f206160448201527f64647265737300000000000000000000000000000000000000000000000000006064820152608490fd5b80fd5b50346101ab5760c03660031901126101ab5760043567ffffffffffffffff811681036105965760243567ffffffffffffffff8111610592576101f4903690600401610f61565b9160443567ffffffffffffffff81116105a257610215903690600401610edf565b67ffffffffffffffff6064351161059e5736602360643501121561059e5767ffffffffffffffff606435600401351161059e5736602460a0606435600401350260643501011161059e5760843567ffffffffffffffff811161059a5761027f903690600401610f61565b919092876001600160a01b03928360a4351660a43503610596578360035416803b156105925767ffffffffffffffff83896102f78c978e966102e56040519a8b998a988997633ab58d6f60e21b89521660048801526060602488015260648701916110da565b84810360031901604486015291611079565b03925af1801561058757610557575b5060015b8660ff82161061050557507fc9f9dbb4a40f26672580c28841452a59f824f5c0053e412183cfec77e76570ef604051602081528061034c602082018a8a6110da565b0390a160a4351661035b578580f35b85916040519363ed1fe83b60e01b602086015267ffffffffffffffff60848601911660248601526060604486015260643560040135905260a4840191602460643501845b6064356004013581106104c4575050602319858403016064860152808352602083019060208160051b850101938386915b83831061045757505050505050916103f281839403601f198101835282610fdd565b6020815191018260a4355af161040661109a565b5015610414575b8080808580f35b7fa27ac73d985dc053bec967c59a530feb90be0582343095d7b85ec7e7c3fef2089161044d6040519283926020845260208401916110da565b0390a1388061040d565b9193959092949650601f198282030186528635601e19843603018112156104c0578301906020823592019167ffffffffffffffff81116104bc5780360383136104bc576104aa6020928392600195611079565b98019601930190918a969594926103d0565b8c80fd5b8b80fd5b813585526020808301359086015260408083013590860152606080830135908601526080808301359086015289955060a0948501949091019060010161039f565b611fe08160051b168601358852600460205260036040892001600160a01b60ff60a01b1982541617905560ff8091169081146105435760010161030a565b634e487b7160e01b88526011600452602488fd5b67ffffffffffffffff8198929811610573576040529538610306565b634e487b7160e01b82526041600452602482fd5b6040513d8a823e3d90fd5b8280fd5b5080fd5b8680fd5b8580fd5b8480fd5b5060603660031901126101ab576004356105be610f12565b604435906001600160a01b038083168093036105a25783855260209160048352604086205461078057811690811561073b57600254420190814211610727576040519160a0830183811067ffffffffffffffff82111761071357604052825260038483019234845260408101948552606081019487865260808201948a8652898b526004885260408b209251835551600183015583600283019151166001600160a01b0319825416179055019251168254915160038110156106ff579160809593917fffffffffffffffffffffff00000000000000000000000000000000000000000074ff00000000000000000000000000000000000000007f4eede03ca33645529b4d82428b024149165298c901cf7453f68eb43bd3d3b65899979560a01b1692161717905560405192835233908301523460408301526060820152a180f35b634e487b7160e01b88526021600452602488fd5b634e487b7160e01b89526041600452602489fd5b634e487b7160e01b87526011600452602487fd5b60405162461bcd60e51b815260048101849052601560248201527f726566756e646565206e6f742070726f766964656400000000000000000000006044820152606490fd5b60405162461bcd60e51b815260048101849052601860248201527f7265717565737420616c726561647920696e20717565756500000000000000006044820152606490fd5b50346101ab57806003193601126101ab5760206001600160a01b0360035416604051908152f35b50346101ab57806003193601126101ab5760206001600160a01b0360015416604051908152f35b50346101ab5760203660031901126101ab5760ff6003604060209360043581526004855220015460a01c1661084b6040518092610f3e565bf35b50346101ab5760203660031901126101ab577f5d16ad41baeb009cd23eb8f6c7cde5c2e0cd5acf4a33926ab488875c37c37f38604061088a610f28565b6001600160a01b036108a0818654163314610f92565b80600154921690816001600160a01b03198416176001558351921682526020820152a180f35b50346101ab5760203660031901126101ab57604060a091600435815260046020522061084b8154916001810154906001600160a01b039060038260028301541691015492604051958652602086015260408501528116606084015260ff6080840191851c16610f3e565b50346101ab57806003193601126101ab576001600160a01b036020915416604051908152f35b50346101ab5760403660031901126101ab57610970610f12565b6001600160a01b036001541633036109a357818080806109a0946004359061c350f161099a61109a565b50611117565b80f35b60405162461bcd60e51b815260206004820152601160248201527f6e6f742066656520636f6c6c6563746f720000000000000000000000000000006044820152606490fd5b50346101ab5760208060031936011261059657600435808352600482526040832054421115610592576001600160a01b036024838260035416604051928380926371e8f36b60e11b82528760048301525afa8015610b6157610a52918691610b34575b501561102d565b81845260048352604084205415610aef5790610ab5848080807ffea410cb461deba9fe807dde02d6641d82e1bf09ecc88ecfa0f2ffadf2a1fdfe979686825260048852600160408320918383556002830154169101549061c350f161099a61109a565b80845260048252600360408520017402000000000000000000000000000000000000000060ff60a01b19825416179055604051908152a180f35b60405162461bcd60e51b815260048101849052601460248201527f72657175657374206e6f7420696e2071756575650000000000000000000000006044820152606490fd5b610b549150853d8711610b5a575b610b4c8183610fdd565b810190611015565b38610a4b565b503d610b42565b6040513d87823e3d90fd5b50346101ab57806003193601126101ab578080546001600160a01b03196001600160a01b03821691610b9f338414610f92565b1682557f8be0079c531659141344cd1fd0a4f28419497f9722a3daafe3b4186f6b6457e08280a380f35b50346101ab5760a03660031901126101ab5760043560243567ffffffffffffffff808216809203610e5c576044358181116105a257610c0c903690600401610edf565b906064359283151580940361059a5760843590811161059a57610c33903690600401610edf565b9290936001600160a01b03928360035416604051936371e8f36b60e11b85528960048601528a6020998a87602481875afa958615610e5157610c818c97610cab998591610e3a57501561102d565b60405197889687958694630979240d60e21b86526004860152606060248601526064850191611079565b90604483015203925af1908115610e2f578791610e02575b508503610dbd57908592918584526004855260036040852001600160a01b60ff60a01b198254161790557f85e1543bf2f84fe80c6badbce3648c8539ad1df4d2b3d822938ca0538be727e685604051888152a1858452600485526003604085200154169081610d30578380f35b83610d64610d7282956040519283918a830196633ceb5b5160e11b88528c6024850152604060448501526064840191611079565b03601f198101835282610fdd565b51925af1610d7e61109a565b5015610d8d575b828180808380f35b7ff9e9ac125efc63eaa0638c58fd8a1ab11673bae30202f01909611e4ebdbe9b4e91604051908152a13880610d85565b60405162461bcd60e51b815260048101859052601d60248201527f72657175657374496420616e642070726f6f66206e6f74206d617463680000006044820152606490fd5b90508481813d8311610e28575b610e198183610fdd565b8101031261059a575138610cc3565b503d610e0f565b6040513d89823e3d90fd5b610b549150893d8b11610b5a57610b4c8183610fdd565b6040513d84823e3d90fd5b8380fd5b50346101ab5760203660031901126101ab577f87a73c061f18ffd513249d1d727921e40e348948b01e2979efb36ef4f5204a636040600435610ead6001600160a01b038554163314610f92565b600254908060025582519182526020820152a180f35b9050346105965781600319360112610596576020906002548152f35b9181601f84011215610f0d5782359167ffffffffffffffff8311610f0d5760208381860195010111610f0d57565b600080fd5b602435906001600160a01b0382168203610f0d57565b600435906001600160a01b0382168203610f0d57565b906003821015610f4b5752565b634e487b7160e01b600052602160045260246000fd5b9181601f84011215610f0d5782359167ffffffffffffffff8311610f0d576020808501948460051b010111610f0d57565b15610f9957565b606460405162461bcd60e51b815260206004820152602060248201527f4f776e61626c653a2063616c6c6572206973206e6f7420746865206f776e65726044820152fd5b90601f8019910116810190811067ffffffffffffffff821117610fff57604052565b634e487b7160e01b600052604160045260246000fd5b90816020910312610f0d57518015158103610f0d5790565b1561103457565b60405162461bcd60e51b815260206004820152601760248201527f70726f6f6620616c72656164792067656e6572617465640000000000000000006044820152606490fd5b908060209392818452848401376000828201840152601f01601f1916010190565b3d156110d5573d9067ffffffffffffffff8211610fff57604051916110c9601f8201601f191660200184610fdd565b82523d6000602084013e565b606090565b90918281527f07ffffffffffffffffffffffffffffffffffffffffffffffffffffffffffffff8311610f0d5760209260051b809284830137010190565b1561111e57565b60405162461bcd60e51b815260206004820152601260248201527f73656e64206e6174697665206661696c656400000000000000000000000000006044820152606490fdfea2646970667358221220c2624f28ab83f528b4b0611ce6018b867ef7227e773a85684493580622d4936464736f6c63430008140033",
  "devdoc": {
    "kind": "dev",
    "methods": {
      "owner()": {
        "details": "Returns the address of the current owner."
      },
      "renounceOwnership()": {
        "details": "Leaves the contract without owner. It will not be possible to call `onlyOwner` functions anymore. Can only be called by the current owner. NOTE: Renouncing ownership will leave the contract without an owner, thereby removing any functionality that is only available to the owner."
      },
      "transferOwnership(address)": {
        "details": "Transfers ownership of the contract to a new account (`newOwner`). Can only be called by the current owner."
      }
    },
    "version": 1
  },
  "userdoc": {
    "kind": "user",
    "methods": {},
    "version": 1
  },
  "storageLayout": {
    "storage": [
      {
        "astId": 7,
        "contract": "contracts/sdk/core/BrevisRequest.sol:BrevisRequest",
        "label": "_owner",
        "offset": 0,
        "slot": "0",
        "type": "t_address"
      },
      {
        "astId": 8660,
        "contract": "contracts/sdk/core/BrevisRequest.sol:BrevisRequest",
        "label": "feeCollector",
        "offset": 0,
        "slot": "1",
        "type": "t_address"
      },
      {
        "astId": 8270,
        "contract": "contracts/sdk/core/BrevisRequest.sol:BrevisRequest",
        "label": "requestTimeout",
        "offset": 0,
        "slot": "2",
        "type": "t_uint256"
      },
      {
        "astId": 8273,
        "contract": "contracts/sdk/core/BrevisRequest.sol:BrevisRequest",
        "label": "brevisProof",
        "offset": 0,
        "slot": "3",
        "type": "t_contract(IBrevisProof)11799"
      },
      {
        "astId": 8278,
        "contract": "contracts/sdk/core/BrevisRequest.sol:BrevisRequest",
        "label": "requests",
        "offset": 0,
        "slot": "4",
        "type": "t_mapping(t_bytes32,t_struct(Request)11818_storage)"
      }
    ],
    "types": {
      "t_address": {
        "encoding": "inplace",
        "label": "address",
        "numberOfBytes": "20"
      },
      "t_bytes32": {
        "encoding": "inplace",
        "label": "bytes32",
        "numberOfBytes": "32"
      },
      "t_contract(IBrevisProof)11799": {
        "encoding": "inplace",
        "label": "contract IBrevisProof",
        "numberOfBytes": "20"
      },
      "t_enum(RequestStatus)11806": {
        "encoding": "inplace",
        "label": "enum IBrevisRequest.RequestStatus",
        "numberOfBytes": "1"
      },
      "t_mapping(t_bytes32,t_struct(Request)11818_storage)": {
        "encoding": "mapping",
        "key": "t_bytes32",
        "label": "mapping(bytes32 => struct IBrevisRequest.Request)",
        "numberOfBytes": "32",
        "value": "t_struct(Request)11818_storage"
      },
      "t_struct(Request)11818_storage": {
        "encoding": "inplace",
        "label": "struct IBrevisRequest.Request",
        "members": [
          {
            "astId": 11808,
            "contract": "contracts/sdk/core/BrevisRequest.sol:BrevisRequest",
            "label": "deadline",
            "offset": 0,
            "slot": "0",
            "type": "t_uint256"
          },
          {
            "astId": 11810,
            "contract": "contracts/sdk/core/BrevisRequest.sol:BrevisRequest",
            "label": "fee",
            "offset": 0,
            "slot": "1",
            "type": "t_uint256"
          },
          {
            "astId": 11812,
            "contract": "contracts/sdk/core/BrevisRequest.sol:BrevisRequest",
            "label": "refundee",
            "offset": 0,
            "slot": "2",
            "type": "t_address"
          },
          {
            "astId": 11814,
            "contract": "contracts/sdk/core/BrevisRequest.sol:BrevisRequest",
            "label": "callback",
            "offset": 0,
            "slot": "3",
            "type": "t_address"
          },
          {
            "astId": 11817,
            "contract": "contracts/sdk/core/BrevisRequest.sol:BrevisRequest",
            "label": "status",
            "offset": 20,
            "slot": "3",
            "type": "t_enum(RequestStatus)11806"
          }
        ],
        "numberOfBytes": "128"
      },
      "t_uint256": {
        "encoding": "inplace",
        "label": "uint256",
        "numberOfBytes": "32"
      }
    }
  }
}