{
  "address": "0x6CD95817F275bDf5C9cC401CbCcbFfd99c7f186A",
  "abi": [
    {
      "inputs": [
        {
          "internalType": "contract ISMT",
          "name": "_smtContract",
          "type": "address"
        }
      ],
      "stateMutability": "nonpayable",
      "type": "constructor"
    },
    {
      "anonymous": false,
      "inputs": [
        {
          "indexed": false,
          "internalType": "uint64[]",
          "name": "chainIds",
          "type": "uint64[]"
        },
        {
          "indexed": false,
          "internalType": "contract IZkpVerifier[]",
          "name": "newAddresses",
          "type": "address[]"
        }
      ],
      "name": "AggProofVerifierAddressesUpdated",
      "type": "event"
    },
    {
      "anonymous": false,
      "inputs": [
        {
          "indexed": false,
          "internalType": "bytes32[]",
          "name": "vkHashes",
          "type": "bytes32[]"
        },
        {
          "indexed": false,
          "internalType": "uint256[]",
          "name": "sizes",
          "type": "uint256[]"
        }
      ],
      "name": "BatchTierVkHashesUpdated",
      "type": "event"
    },
    {
      "anonymous": false,
      "inputs": [
        {
          "indexed": true,
          "internalType": "address",
          "name": "previousOwner",
          "type": "address"
        },
        {
          "indexed": true,
          "internalType": "address",
          "name": "newOwner",
          "type": "address"
        }
      ],
      "name": "OwnershipTransferred",
      "type": "event"
    },
    {
      "anonymous": false,
      "inputs": [
        {
          "indexed": false,
          "internalType": "address",
          "name": "account",
          "type": "address"
        }
      ],
      "name": "Paused",
      "type": "event"
    },
    {
      "anonymous": false,
      "inputs": [
        {
          "indexed": false,
          "internalType": "address",
          "name": "account",
          "type": "address"
        }
      ],
      "name": "PauserAdded",
      "type": "event"
    },
    {
      "anonymous": false,
      "inputs": [
        {
          "indexed": false,
          "internalType": "address",
          "name": "account",
          "type": "address"
        }
      ],
      "name": "PauserRemoved",
      "type": "event"
    },
    {
      "anonymous": false,
      "inputs": [
        {
          "indexed": false,
          "internalType": "address",
          "name": "account",
          "type": "address"
        }
      ],
      "name": "ProverAdded",
      "type": "event"
    },
    {
      "anonymous": false,
      "inputs": [
        {
          "indexed": false,
          "internalType": "address",
          "name": "account",
          "type": "address"
        }
      ],
      "name": "ProverRemoved",
      "type": "event"
    },
    {
      "anonymous": false,
      "inputs": [
        {
          "indexed": false,
          "internalType": "contract ISMT",
          "name": "smtContract",
          "type": "address"
        }
      ],
      "name": "SmtContractUpdated",
      "type": "event"
    },
    {
      "anonymous": false,
      "inputs": [
        {
          "indexed": false,
          "internalType": "address",
          "name": "account",
          "type": "address"
        }
      ],
      "name": "Unpaused",
      "type": "event"
    },
    {
      "anonymous": false,
      "inputs": [
        {
          "indexed": false,
          "internalType": "uint64[]",
          "name": "chainIds",
          "type": "uint64[]"
        },
        {
          "components": [
            {
              "internalType": "contract IZkpVerifier",
              "name": "contractAppZkVerifier",
              "type": "address"
            },
            {
              "internalType": "contract IZkpVerifier",
              "name": "circuitAppZkVerifier",
              "type": "address"
            }
          ],
          "indexed": false,
          "internalType": "struct BrevisProof.ChainZKVerifier[]",
          "name": "newAddresses",
          "type": "tuple[]"
        }
      ],
      "name": "VerifierAddressesUpdated",
      "type": "event"
    },
    {
      "inputs": [
        {
          "internalType": "address",
          "name": "account",
          "type": "address"
        }
      ],
      "name": "addPauser",
      "outputs": [],
      "stateMutability": "nonpayable",
      "type": "function"
    },
    {
      "inputs": [
        {
          "internalType": "address[]",
          "name": "accounts",
          "type": "address[]"
        }
      ],
      "name": "addPausers",
      "outputs": [],
      "stateMutability": "nonpayable",
      "type": "function"
    },
    {
      "inputs": [
        {
          "internalType": "address[]",
          "name": "_accounts",
          "type": "address[]"
        }
      ],
      "name": "addProvers",
      "outputs": [],
      "stateMutability": "nonpayable",
      "type": "function"
    },
    {
      "inputs": [
        {
          "internalType": "uint64",
          "name": "",
          "type": "uint64"
        }
      ],
      "name": "aggProofVerifierAddress",
      "outputs": [
        {
          "internalType": "contract IZkpVerifier",
          "name": "",
          "type": "address"
        }
      ],
      "stateMutability": "view",
      "type": "function"
    },
    {
      "inputs": [
        {
          "internalType": "bytes32",
          "name": "_requestId",
          "type": "bytes32"
        }
      ],
      "name": "getProofAppData",
      "outputs": [
        {
          "internalType": "bytes32",
          "name": "",
          "type": "bytes32"
        },
        {
          "internalType": "bytes32",
          "name": "",
          "type": "bytes32"
        }
      ],
      "stateMutability": "view",
      "type": "function"
    },
    {
      "inputs": [
        {
          "internalType": "bytes32",
          "name": "_requestId",
          "type": "bytes32"
        }
      ],
      "name": "getProofData",
      "outputs": [
        {
          "components": [
            {
              "internalType": "bytes32",
              "name": "commitHash",
              "type": "bytes32"
            },
            {
              "internalType": "bytes32",
              "name": "vkHash",
              "type": "bytes32"
            },
            {
              "internalType": "bytes32",
              "name": "appCommitHash",
              "type": "bytes32"
            },
            {
              "internalType": "bytes32",
              "name": "appVkHash",
              "type": "bytes32"
            },
            {
              "internalType": "bytes32",
              "name": "smtRoot",
              "type": "bytes32"
            }
          ],
          "internalType": "struct Brevis.ProofData",
          "name": "",
          "type": "tuple"
        }
      ],
      "stateMutability": "view",
      "type": "function"
    },
    {
      "inputs": [
        {
          "internalType": "bytes32",
          "name": "_requestId",
          "type": "bytes32"
        }
      ],
      "name": "hasProof",
      "outputs": [
        {
          "internalType": "bool",
          "name": "",
          "type": "bool"
        }
      ],
      "stateMutability": "view",
      "type": "function"
    },
    {
      "inputs": [
        {
          "internalType": "bytes32",
          "name": "_requestId",
          "type": "bytes32"
        }
      ],
      "name": "inAgg",
      "outputs": [
        {
          "internalType": "bool",
          "name": "",
          "type": "bool"
        }
      ],
      "stateMutability": "view",
      "type": "function"
    },
    {
      "inputs": [
        {
          "internalType": "address",
          "name": "_account",
          "type": "address"
        }
      ],
      "name": "isActiveProver",
      "outputs": [
        {
          "internalType": "bool",
          "name": "",
          "type": "bool"
        }
      ],
      "stateMutability": "view",
      "type": "function"
    },
    {
      "inputs": [
        {
          "internalType": "address",
          "name": "account",
          "type": "address"
        }
      ],
      "name": "isPauser",
      "outputs": [
        {
          "internalType": "bool",
          "name": "",
          "type": "bool"
        }
      ],
      "stateMutability": "view",
      "type": "function"
    },
    {
      "inputs": [
        {
          "internalType": "bytes32",
          "name": "",
          "type": "bytes32"
        }
      ],
      "name": "merkleRoots",
      "outputs": [
        {
          "internalType": "bool",
          "name": "",
          "type": "bool"
        }
      ],
      "stateMutability": "view",
      "type": "function"
    },
    {
      "inputs": [
        {
          "internalType": "uint64",
          "name": "_chainId",
          "type": "uint64"
        },
        {
          "internalType": "bytes32[]",
          "name": "_requestIds",
          "type": "bytes32[]"
        },
        {
          "internalType": "bytes",
          "name": "_proofWithPubInputs",
          "type": "bytes"
        }
      ],
      "name": "mustSubmitAggProof",
      "outputs": [],
      "stateMutability": "nonpayable",
      "type": "function"
    },
    {
      "inputs": [
        {
          "internalType": "uint64",
          "name": "_chainId",
          "type": "uint64"
        },
        {
          "components": [
            {
              "internalType": "bytes32",
              "name": "commitHash",
              "type": "bytes32"
            },
            {
              "internalType": "bytes32",
              "name": "vkHash",
              "type": "bytes32"
            },
            {
              "internalType": "bytes32",
              "name": "appCommitHash",
              "type": "bytes32"
            },
            {
              "internalType": "bytes32",
              "name": "appVkHash",
              "type": "bytes32"
            },
            {
              "internalType": "bytes32",
              "name": "smtRoot",
              "type": "bytes32"
            }
          ],
          "internalType": "struct Brevis.ProofData",
          "name": "_proofData",
          "type": "tuple"
        },
        {
          "internalType": "bytes32",
          "name": "_merkleRoot",
          "type": "bytes32"
        },
        {
          "internalType": "bytes32[]",
          "name": "_merkleProof",
          "type": "bytes32[]"
        },
        {
          "internalType": "uint8",
          "name": "_nodeIndex",
          "type": "uint8"
        }
      ],
      "name": "mustValidateRequest",
      "outputs": [],
      "stateMutability": "view",
      "type": "function"
    },
    {
      "inputs": [
        {
          "internalType": "uint64",
          "name": "_chainId",
          "type": "uint64"
        },
        {
          "components": [
            {
              "internalType": "bytes32",
              "name": "commitHash",
              "type": "bytes32"
            },
            {
              "internalType": "bytes32",
              "name": "vkHash",
              "type": "bytes32"
            },
            {
              "internalType": "bytes32",
              "name": "appCommitHash",
              "type": "bytes32"
            },
            {
              "internalType": "bytes32",
              "name": "appVkHash",
              "type": "bytes32"
            },
            {
              "internalType": "bytes32",
              "name": "smtRoot",
              "type": "bytes32"
            }
          ],
          "internalType": "struct Brevis.ProofData[]",
          "name": "_proofDataArray",
          "type": "tuple[]"
        }
      ],
      "name": "mustValidateRequests",
      "outputs": [],
      "stateMutability": "view",
      "type": "function"
    },
    {
      "inputs": [],
      "name": "numPausers",
      "outputs": [
        {
          "internalType": "uint256",
          "name": "",
          "type": "uint256"
        }
      ],
      "stateMutability": "view",
      "type": "function"
    },
    {
      "inputs": [],
      "name": "numProvers",
      "outputs": [
        {
          "internalType": "uint256",
          "name": "",
          "type": "uint256"
        }
      ],
      "stateMutability": "view",
      "type": "function"
    },
    {
      "inputs": [],
      "name": "owner",
      "outputs": [
        {
          "internalType": "address",
          "name": "",
          "type": "address"
        }
      ],
      "stateMutability": "view",
      "type": "function"
    },
    {
      "inputs": [],
      "name": "pause",
      "outputs": [],
      "stateMutability": "nonpayable",
      "type": "function"
    },
    {
      "inputs": [],
      "name": "paused",
      "outputs": [
        {
          "internalType": "bool",
          "name": "",
          "type": "bool"
        }
      ],
      "stateMutability": "view",
      "type": "function"
    },
    {
      "inputs": [
        {
          "internalType": "uint256",
          "name": "",
          "type": "uint256"
        }
      ],
      "name": "pauserList",
      "outputs": [
        {
          "internalType": "address",
          "name": "",
          "type": "address"
        }
      ],
      "stateMutability": "view",
      "type": "function"
    },
    {
      "inputs": [
        {
          "internalType": "address",
          "name": "",
          "type": "address"
        }
      ],
      "name": "pausers",
      "outputs": [
        {
          "internalType": "bool",
          "name": "",
          "type": "bool"
        }
      ],
      "stateMutability": "view",
      "type": "function"
    },
    {
      "inputs": [
        {
          "internalType": "bytes32",
          "name": "",
          "type": "bytes32"
        }
      ],
      "name": "proofs",
      "outputs": [
        {
          "internalType": "bytes32",
          "name": "commitHash",
          "type": "bytes32"
        },
        {
          "internalType": "bytes32",
          "name": "vkHash",
          "type": "bytes32"
        },
        {
          "internalType": "bytes32",
          "name": "appCommitHash",
          "type": "bytes32"
        },
        {
          "internalType": "bytes32",
          "name": "appVkHash",
          "type": "bytes32"
        },
        {
          "internalType": "bytes32",
          "name": "smtRoot",
          "type": "bytes32"
        }
      ],
      "stateMutability": "view",
      "type": "function"
    },
    {
      "inputs": [
        {
          "internalType": "address",
          "name": "",
          "type": "address"
        }
      ],
      "name": "proverStates",
      "outputs": [
        {
          "internalType": "enum BrevisAccess.ProverState",
          "name": "",
          "type": "uint8"
        }
      ],
      "stateMutability": "view",
      "type": "function"
    },
    {
      "inputs": [
        {
          "internalType": "uint256",
          "name": "",
          "type": "uint256"
        }
      ],
      "name": "provers",
      "outputs": [
        {
          "internalType": "address",
          "name": "",
          "type": "address"
        }
      ],
      "stateMutability": "view",
      "type": "function"
    },
    {
      "inputs": [
        {
          "internalType": "address",
          "name": "account",
          "type": "address"
        }
      ],
      "name": "removePauser",
      "outputs": [],
      "stateMutability": "nonpayable",
      "type": "function"
    },
    {
      "inputs": [
        {
          "internalType": "address[]",
          "name": "accounts",
          "type": "address[]"
        }
      ],
      "name": "removePausers",
      "outputs": [],
      "stateMutability": "nonpayable",
      "type": "function"
    },
    {
      "inputs": [
        {
          "internalType": "address[]",
          "name": "_accounts",
          "type": "address[]"
        }
      ],
      "name": "removeProvers",
      "outputs": [],
      "stateMutability": "nonpayable",
      "type": "function"
    },
    {
      "inputs": [],
      "name": "renouncePauser",
      "outputs": [],
      "stateMutability": "nonpayable",
      "type": "function"
    },
    {
      "inputs": [
        {
          "internalType": "bytes32",
          "name": "",
          "type": "bytes32"
        }
      ],
      "name": "requestIds",
      "outputs": [
        {
          "internalType": "bool",
          "name": "",
          "type": "bool"
        }
      ],
      "stateMutability": "view",
      "type": "function"
    },
    {
      "inputs": [
        {
          "internalType": "bytes32[]",
          "name": "_vkHashes",
          "type": "bytes32[]"
        },
        {
          "internalType": "uint256[]",
          "name": "_sizes",
          "type": "uint256[]"
        }
      ],
      "name": "setBatchTierVkHashes",
      "outputs": [],
      "stateMutability": "nonpayable",
      "type": "function"
    },
    {
      "inputs": [],
      "name": "smtContract",
      "outputs": [
        {
          "internalType": "contract ISMT",
          "name": "",
          "type": "address"
        }
      ],
      "stateMutability": "view",
      "type": "function"
    },
    {
      "inputs": [
        {
          "internalType": "uint64",
          "name": "_chainId",
          "type": "uint64"
        },
        {
          "internalType": "bytes",
          "name": "_proofWithPubInputs",
          "type": "bytes"
        },
        {
          "internalType": "bool",
          "name": "_withAppProof",
          "type": "bool"
        }
      ],
      "name": "submitProof",
      "outputs": [
        {
          "internalType": "bytes32",
          "name": "_requestId",
          "type": "bytes32"
        }
      ],
      "stateMutability": "nonpayable",
      "type": "function"
    },
    {
      "inputs": [
        {
          "internalType": "address",
          "name": "newOwner",
          "type": "address"
        }
      ],
      "name": "transferOwnership",
      "outputs": [],
      "stateMutability": "nonpayable",
      "type": "function"
    },
    {
      "inputs": [],
      "name": "unpause",
      "outputs": [],
      "stateMutability": "nonpayable",
      "type": "function"
    },
    {
      "inputs": [
        {
          "internalType": "uint64[]",
          "name": "_chainIds",
          "type": "uint64[]"
        },
        {
          "internalType": "contract IZkpVerifier[]",
          "name": "_verifierAddresses",
          "type": "address[]"
        }
      ],
      "name": "updateAggProofVerifierAddresses",
      "outputs": [],
      "stateMutability": "nonpayable",
      "type": "function"
    },
    {
      "inputs": [
        {
          "internalType": "contract ISMT",
          "name": "_smtContract",
          "type": "address"
        }
      ],
      "name": "updateSmtContract",
      "outputs": [],
      "stateMutability": "nonpayable",
      "type": "function"
    },
    {
      "inputs": [
        {
          "internalType": "uint64[]",
          "name": "_chainIds",
          "type": "uint64[]"
        },
        {
          "components": [
            {
              "internalType": "contract IZkpVerifier",
              "name": "contractAppZkVerifier",
              "type": "address"
            },
            {
              "internalType": "contract IZkpVerifier",
              "name": "circuitAppZkVerifier",
              "type": "address"
            }
          ],
          "internalType": "struct BrevisProof.ChainZKVerifier[]",
          "name": "_verifierAddresses",
          "type": "tuple[]"
        }
      ],
      "name": "updateVerifierAddress",
      "outputs": [],
      "stateMutability": "nonpayable",
      "type": "function"
    },
    {
      "inputs": [
        {
          "internalType": "bytes32",
          "name": "_requestId",
          "type": "bytes32"
        },
        {
          "internalType": "uint64",
          "name": "_chainId",
          "type": "uint64"
        },
        {
          "components": [
            {
              "internalType": "bytes32",
              "name": "smtRoot",
              "type": "bytes32"
            },
            {
              "components": [
                {
                  "internalType": "uint64",
                  "name": "blkNum",
                  "type": "uint64"
                },
                {
                  "internalType": "uint64",
                  "name": "receiptIndex",
                  "type": "uint64"
                },
                {
                  "components": [
                    {
                      "components": [
                        {
                          "internalType": "uint8",
                          "name": "valueFromTopic",
                          "type": "uint8"
                        },
                        {
                          "internalType": "uint64",
                          "name": "valueIndex",
                          "type": "uint64"
                        },
                        {
                          "internalType": "address",
                          "name": "contractAddress",
                          "type": "address"
                        },
                        {
                          "internalType": "bytes32",
                          "name": "logTopic0",
                          "type": "bytes32"
                        }
                      ],
                      "internalType": "struct Brevis.LogExtraInfo",
                      "name": "logExtraInfo",
                      "type": "tuple"
                    },
                    {
                      "internalType": "uint64",
                      "name": "logIndex",
                      "type": "uint64"
                    },
                    {
                      "internalType": "bytes32",
                      "name": "value",
                      "type": "bytes32"
                    }
                  ],
                  "internalType": "struct Brevis.LogInfo[5]",
                  "name": "logs",
                  "type": "tuple[5]"
                }
              ],
              "internalType": "struct Brevis.ReceiptInfo[]",
              "name": "receipts",
              "type": "tuple[]"
            },
            {
              "components": [
                {
                  "internalType": "bytes32",
                  "name": "blockHash",
                  "type": "bytes32"
                },
                {
                  "internalType": "address",
                  "name": "account",
                  "type": "address"
                },
                {
                  "internalType": "bytes32",
                  "name": "slot",
                  "type": "bytes32"
                },
                {
                  "internalType": "bytes32",
                  "name": "slotValue",
                  "type": "bytes32"
                },
                {
                  "internalType": "uint64",
                  "name": "blockNumber",
                  "type": "uint64"
                }
              ],
              "internalType": "struct Brevis.StorageInfo[]",
              "name": "stores",
              "type": "tuple[]"
            },
            {
              "components": [
                {
                  "internalType": "bytes32",
                  "name": "leafHash",
                  "type": "bytes32"
                },
                {
                  "internalType": "bytes32",
                  "name": "blockHash",
                  "type": "bytes32"
                },
                {
                  "internalType": "uint64",
                  "name": "blockNumber",
                  "type": "uint64"
                },
                {
                  "internalType": "uint64",
                  "name": "blockTime",
                  "type": "uint64"
                },
                {
                  "internalType": "bytes",
                  "name": "leafRlpPrefix",
                  "type": "bytes"
                }
              ],
              "internalType": "struct Brevis.TransactionInfo[]",
              "name": "txs",
              "type": "tuple[]"
            }
          ],
          "internalType": "struct Brevis.ExtractInfos",
          "name": "_extractInfos",
          "type": "tuple"
        }
      ],
      "name": "validateRequest",
      "outputs": [],
      "stateMutability": "view",
      "type": "function"
    },
    {
      "inputs": [
        {
          "internalType": "uint64",
          "name": "",
          "type": "uint64"
        }
      ],
      "name": "verifierAddresses",
      "outputs": [
        {
          "internalType": "contract IZkpVerifier",
          "name": "contractAppZkVerifier",
          "type": "address"
        },
        {
          "internalType": "contract IZkpVerifier",
          "name": "circuitAppZkVerifier",
          "type": "address"
        }
      ],
      "stateMutability": "view",
      "type": "function"
    },
    {
      "inputs": [
        {
          "internalType": "bytes32",
          "name": "",
          "type": "bytes32"
        }
      ],
      "name": "vkHashesToBatchSize",
      "outputs": [
        {
          "internalType": "uint256",
          "name": "",
          "type": "uint256"
        }
      ],
      "stateMutability": "view",
      "type": "function"
    }
  ],
  "transactionHash": "0xb19e8a0e64b9a7debc1fdb5139f0396692dfa99f4434353be75535004d891958",
  "args": [
    "0x7b4Ca9db7c324386825657CD76ca8d42A3d423C0"
  ],
  "numDeployments": 2,
  "solcInputHash": "38c12950e9daffae2323da5f20cc7d71",
  "bytecode": "0x608034620001b457601f620032e138819003918201601f1916830192916001600160401b03841183851017620001b95780839260409586528339602092839181010312620001b457516001600160a01b03808216929091839003620001b4576000918254855191339082167f8be0079c531659141344cd1fd0a4f28419497f9722a3daafe3b4186f6b6457e08680a36001600160a81b0319163360ff60a01b1981169190911784558352600182528483205460ff1662000174575060025468010000000000000000811015620001605760018101806002558110156200014c5790847f6719d08c1888103bea251a4ed56406bd0c3e69723c8a1686e017e7bbe159b6f89260028552828520019360018060a01b03199433868254161790553381526001835220600160ff198254161790558451338152a16005541617600555516131119081620001d08239f35b634e487b7160e01b83526032600452602483fd5b634e487b7160e01b83526041600452602483fd5b60649162461bcd60e51b82526004820152601960248201527f4163636f756e7420697320616c726561647920706175736572000000000000006044820152fd5b600080fd5b634e487b7160e01b600052604160045260246000fdfe6080604052600436101561001257600080fd5b60003560e01c80631396511e1461242c578063158535ff146123fb5780631be746b1146123cf5780631e4971bb1461230d5780632247cd8f146120ed57806325e4903414611d9e5780633221aec614611d775780633f4ba83a14611c6f578063444d95b014611c1757806346fbf68e1461106c5780634f4fef1814611bf957806358a16b4414611bdb5780635984fb9214611ba35780635c975abb14611b7d578063677625f214611a205780636b2c0f55146119e95780636ef8d66d146119cf5780637c08aa74146111c55780637dbafb11146110ab57806380f51c121461106c57806382dc1ec4146110355780638456cb5914610f165780638645f7a814610c215780638da5cb5b14610eef5780639546bf0014610e60578063a036e79914610e10578063b201326e14610c52578063bba210bf14610c21578063ceae339014610bdd578063cf7ac5a914610873578063e3d1e6d61461080f578063e6c6fcec146107bf578063e79b7a5114610768578063ead635bc1461041e578063ec64842e146103d4578063f2fde38b146102f6578063f5cec6af146102a7578063fabc74f51461024b578063fd1190ea1461020a5763fe5a5377146101d457600080fd5b34610205576020366003190112610205576004356000526006602052602060ff604060002054166040519015158152f35b600080fd5b3461020557602036600319011261020557600435600454811015610205576001600160a01b0361023b6020926124ed565b9190546040519260031b1c168152f35b34610205576020366003190112610205576001600160a01b0361026c6125e5565b16600052600360205260ff604060002054166040516003821015610291576020918152f35b634e487b7160e01b600052602160045260246000fd5b346102055760203660031901126102055767ffffffffffffffff6102c96125a0565b1660005260096020526040806000206001600160a01b036001818354169201541682519182526020820152f35b346102055760203660031901126102055761030f6125e5565b600054906001600160a01b038083169161032a3384146126f2565b16918215610369576001600160a01b0319839116176000557f8be0079c531659141344cd1fd0a4f28419497f9722a3daafe3b4186f6b6457e0600080a3005b60405162461bcd60e51b815260206004820152602660248201527f4f776e61626c653a206e6577206f776e657220697320746865207a65726f206160448201527f64647265737300000000000000000000000000000000000000000000000000006064820152608490fd5b34610205576020366003190112610205576001600160a01b036103f56125e5565b16600052600360205260ff60406000205416600381101561029157602090600160405191148152f35b34610205576060366003190112610205576104376125a0565b67ffffffffffffffff6024803582811161020557610459903690600401612524565b939091604435848111610205576104749036906004016125b7565b949091336000526020956003875260ff604060002054169460038610156107535783906104a46001809814612d2c565b16600052600887526001600160a01b0360406000205416908115610711578760405180936322bb937360e11b825281806104e2868b60048401612d78565b03915afa908115610705576105066105139261051f946000916106d8575b50612da0565b6105196105138288612dfd565b90612e36565b95612e23565b60405161020092838201828110868211176106c3576040528336833760005b8a81106106a45750601093848b10610650575b604051948a8601936000908a8d875b85851061063b5750505050505084526102208401948486109086111761062757508360405282519020036105e35750506000526006835260406000209160ff1992828482541617905560005b8581106105b557005b806105c46105de928885612cee565b35600052600786526040600020848682541617905561273d565b6105ac565b907f72657175657374496473206e6f742072696768740000000000000000000000006102646064938862461bcd60e51b855261022482015260146102448201520152fd5b634e487b7160e01b60009081526041600452fd5b819084518152019201920191908d8c91610560565b8a5b85811061065f5750610551565b6000198c018c811161068f579061067961068a9286612dec565b516106848287612dec565b5261273d565b610652565b83634e487b7160e01b60005260116004526000fd5b806106b36106be928d8c612cee565b356106848286612dec565b61053e565b50634e487b7160e01b60009081526041600452fd5b6106f891508b3d8d116106fe575b6106f08183612647565b810190612c8a565b8c610500565b503d6106e6565b6040513d6000823e3d90fd5b606483896040519162461bcd60e51b83528160048401528201527f636861696e206167672070726f6f66207665726966696572206e6f74207365746044820152fd5b82634e487b7160e01b60005260216004526000fd5b346102055761077636612669565b6001600160a01b039061078e826000541633146126f2565b60005b81518110156107bd57806107b3846107ac6107b89486612762565b511661299a565b61273d565b610791565b005b34610205576107cd36612669565b6001600160a01b03906107e5826000541633146126f2565b60005b81518110156107bd57806107b38461080361080a9486612762565b51166127c2565b6107e8565b3461020557602036600319011261020557600435600052600a602052604060002080541590811591610865575b508015610851575b6020906040519015158152f35b50600760205260406000205460ff16610844565b60029150015415158161083c565b346102055760403660031901126102055761088c6125a0565b60249081359167ffffffffffffffff91828411610205573660238501121561020557836004013590838211610205578285019483369160a0850201011161020557601094858311610b9957604051946103e09081870190811187821017610b84576040523686376005546001600160a01b031660005b848110610a705750505050838110610a34575b506000835b61093d576103c083015160005260066020526107bd60ff60406000205416612c3e565b909160005b6000198501858111610a1f578590821015610a07575061096b6109658285612d1f565b83612d0e565b516109768285612d1f565b906001918281018091116109f2576109d0916109956109ca9287612d0e565b5160405190602082019283526040820152604081526109b38161262b565b51902092846109c28a89612d1f565b911c90612d1f565b84612d0e565b5260028101809111156109425783634e487b7160e01b60005260116004526000fd5b86634e487b7160e01b60005260116004526000fd5b9050610a14919392612d1f565b9260011c928361091a565b84634e487b7160e01b60005260116004526000fd5b600019810190808211905b858110610a4d575050610915565b8161068f57610a6b90610a608487612d0e565b516106848288612d0e565b610a3f565b60809081610a7f828887612cfe565b60405163080cdb0b60e11b815267ffffffffffffffff8816600482015291013560248201529160208084604481885afa93841561070557610b6294610acc91600091610b67575b50612ca2565b610b55610ada848a89612cfe565b3592610ae7858b8a612cfe565b013591610b478a896060610b198986610b01828787612cfe565b0135946040610b11838388612cfe565b013594612cfe565b01359160405196879586019889939160a0959391855260208501526040840152606083015260808201520190565b03601f198101835282612647565b519020610684828a612d0e565b610902565b610b7e9150833d85116106fe576106f08183612647565b8d610ac6565b85634e487b7160e01b60005260416004526000fd5b60405162461bcd60e51b815260206004820152600c818601527f73697a65206578636565647300000000000000000000000000000000000000006044820152606490fd5b346102055760203660031901126102055767ffffffffffffffff610bff6125a0565b16600052600860205260206001600160a01b0360406000205416604051908152f35b34610205576020366003190112610205576004356000526007602052602060ff604060002054166040519015158152f35b346102055760403660031901126102055767ffffffffffffffff60043581811161020557610c84903690600401612524565b90602492833593818511610205573660238601121561020557846004013592828411610205576006368386831b89010111610205576001600160a01b039493929492610cd5846000541633146126f2565b610ce0858814612e53565b60005b878110610d7f57505050610d039060405195604087526040870191612ec8565b926020848682960382880152848152019501926000915b838310610d49577fc343b5bb763b4b0cdbd72c4b7a9627ce33d7eaff0cecca036b0af41ce9ca55a886880387a1005b909192939560408060019284610d5e8b6125fb565b16815284610d6d878c016125fb565b16818701520197019493019190610d1a565b8581979596971015610dfb5780610df291841b8a0183610da8610da3848d8a612cee565b612eb3565b166000526009602052604060002088610de56044600183610dca8d8801612e9f565b16946001600160a01b03199586825416178155019401612e9f565b169082541617905561273d565b95949395610ce3565b84634e487b7160e01b60005260326004526000fd5b3461020557610e1e36612669565b6001600160a01b0390610e36826000541633146126f2565b60005b81518110156107bd57806107b384610e54610e5b9486612762565b5116612a80565b610e39565b3461020557602036600319011261020557610e79613073565b50600435600052600a60205260a06040600020604051610e988161260f565b81549182825260018101546020830190815260028201549060408401918252608060046003850154946060870195865201549401938452604051948552516020850152516040840152516060830152516080820152f35b346102055760003660031901126102055760206001600160a01b0360005416604051908152f35b3461020557600036600319011261020557336000526001602090808252610f4460ff60406000205416612776565b60005460ff8160a01c16610ff05760ff60a01b19740100000000000000000000000000000000000000009116176000557f62e78cea01bee320cd4e420270b5ea74000d11b0c9f74754ebdbfc544b05a25882604051338152a16000815b610fa757005b6004548110156107bd57806001600160a01b03610fc6610fea936124ed565b919054600392831b1c1660005284526040600020600260ff1982541617905561273d565b81610fa1565b60405162461bcd60e51b815260048101849052601060248201527f5061757361626c653a20706175736564000000000000000000000000000000006044820152606490fd5b34610205576020366003190112610205576107bd6110516125e5565b6110676001600160a01b036000541633146126f2565b61299a565b34610205576020366003190112610205576001600160a01b0361108d6125e5565b166000526001602052602060ff604060002054166040519015158152f35b34610205576110b936612555565b6001600160a01b03939193916110d4836000541633146126f2565b6110df828514612e53565b60005b84811061116857506111009060405194604086526040860191612ec8565b90602082858294038287015282815201949160005b828110611144577f4a5f8b4623084de3ef4b23e6c713416b50a966a1914aaf21175d206015e59d4e86880387a1005b9091929395828060019289611158896125fb565b1681520197950193929101611115565b8061118161117c6111bd93868a989a612cee565b612e9f565b67ffffffffffffffff611198610da3848a88612cee565b16600052600860205287604060002091166001600160a01b031982541617905561273d565b9492946110e2565b34610205576003196060368201126102055767ffffffffffffffff60243516602435036102055767ffffffffffffffff60443511610205576080906044353603011261020557600435600052600a6020526040600020604051906112288261260f565b6004815491828452600181015460208501526002810154604085015260038101546060850152015460808301521561198a576001600160a01b03600554166020604051809263080cdb0b60e11b825281806112a660443560040135602435600484016020909392919367ffffffffffffffff60408201951681520152565b03915afa8015610705576112c29160009161196b575b50612f17565b61130d6112f96112dc602460443501604435600401612f63565b90506112f16044803501604435600401612f99565b919050612d1f565b6112f1606460443501604435600401612fcf565b908115611926576020810151600052600b6020526040600020548083116118e15760009260605b611348602460443501604435600401612f63565b905085101561158c5784606060005b6005811061141e575060206114189383611412936113f26113b4856113ae611399610da36114049b611393602460443501604435600401612f63565b90613005565b95611393602460443501604435600401612f63565b01612eb3565b92610b47604051938492888401966044356004013588526001600160c01b0319918260c091821b1660408701521b1660488401526050830190613026565b51902060405194859284840190613026565b908152038084520182612647565b9461273d565b93611334565b9182604061143d61144393611393602460443501604435600401612f63565b01613015565b359060ff821682036102055761157e6065611584936115239361148060806113ae898f61143d604091611393602460443501604435600401612f63565b918c6114a560206113ae8b604061143d86611393602460443501604435600401612f63565b936114ce60406114c88c8261143d87611393602460443501604435600401612f63565b01612e9f565b9060a06115108c604061143d60606114f9848461143d8c611393602460443501604435600401612f63565b013597611393602460443501604435600401612f63565b013595604051998a966020880190613026565b9460ff60f81b9060f81b1685526001600160c01b0319918260c091821b1660018701521b1660098401526bffffffffffffffffffffffff199060601b1660118301526025820152604592838201520390810184520182612647565b9161273d565b908691611357565b926000935b6115a46044803501604435600401612f99565b905085101561173a576115ca856115c46044803501604435600401612f99565b90612cfe565b35906115e860206114c8886115c46044803501604435600401612f99565b604051906bffffffffffffffffffffffff199060601b1660208201526014815280604081011067ffffffffffffffff6040830111176117245760408101604052602081519101206040611648886115c46044803501604435600401612f99565b01356060611663896115c46044803501604435600401612f99565b01359061168260806113ae8b6115c46044803501604435600401612f99565b926040519560443560040135602088015260408701526060860152608085015260a08401526001600160c01b031960c091821b169083015260a882528160e081011067ffffffffffffffff60e08401111761172457816117178160e0938461171e96016040526116fe8251602084012091610100840190613026565b9081520360df1981018484015260bf1901838301612647565b019461273d565b93611591565b634e487b7160e01b600052604160045260246000fd5b91926000925b611754606460443501604435600401612fcf565b905084101561182e5761140461182260206118289361178788611781606460443501604435600401612fcf565b90613051565b35826117a18a611781606460443501604435600401612fcf565b01356117c060406113ae8c611781606460443501604435600401612fcf565b6117dd60606113ae8d611781606460443501604435600401612fcf565b6040519286840194604435600401358652604085015260608401526001600160c01b0319918260c091821b1660808501521b166088820152607081526113f28161260f565b9361273d565b92611740565b908481811061188f575b50506020815191012090510361184a57005b60405162461bcd60e51b815260206004820152601d60248201527f636f6d6d69744861736820616e6420696e666f206e6f74206d617463680000006044820152606490fd5b905b808210156118385790916118b66118d560206118db9360405193849183830190613026565b7001000000000000000000000000000000018152038084520182612647565b9261273d565b90611891565b60405162461bcd60e51b815260206004820152601e60248201527f6974656d206c656e67746820657863656564732062617463682073697a6500006044820152606490fd5b60405162461bcd60e51b815260206004820152600b60248201527f656d707479206974656d730000000000000000000000000000000000000000006044820152606490fd5b611984915060203d6020116106fe576106f08183612647565b836112bc565b60405162461bcd60e51b815260206004820152601060248201527f70726f6f66206e6f7420657869737473000000000000000000000000000000006044820152606490fd5b34610205576000366003190112610205576107bd33612a80565b34610205576020366003190112610205576107bd611a056125e5565b611a1b6001600160a01b036000541633146126f2565b612a80565b3461020557611a2e36612669565b600054906001600160a01b0391611a4833848316146126f2565b60ff9060a01c811615611b75576002925b60005b83518110156107bd5781611a708286612762565b511690816000526003602081815285604060002054168281101561029157611b3157600454680100000000000000008110156117245784611aba826001611ada94016004556124ed565b90919082549060031b916001600160a01b03809116831b921b1916179055565b8360005281815260406000209188101561029157611b2c937fef1fa0a4d797341645c201a742cf59be633da0589e0e3cda511cfc90cd0396849260ff19815416888b16179055604051908152a161273d565b611a5c565b6064906040519062461bcd60e51b82526004820152601160248201527f6163636f756e742069732070726f7665720000000000000000000000000000006044820152fd5b600192611a59565b3461020557600036600319011261020557602060ff60005460a01c166040519015158152f35b3461020557602036600319011261020557600435600052600a6020526040806000206003600282015491015482519182526020820152f35b34610205576000366003190112610205576020600254604051908152f35b34610205576000366003190112610205576020600454604051908152f35b3461020557602036600319011261020557600435600052600a60205260a06040600020805490600181015490600281015460046003830154920154926040519485526020850152604084015260608301526080820152f35b3461020557600036600319011261020557336000526001602090808252611c9d60ff60406000205416612776565b60005460ff8160a01c1615611d325760ff60a01b19166000557f5db9ee0a495bf2e6ff9c91a7834c1ba4fdd244a5e8aa4e537bd38aeae4b073aa82604051338152a16000815b611ce957005b6004548110156107bd57611d2c816001600160a01b03611d0985946124ed565b919054600392831b1c16600052855260406000208360ff1982541617905561273d565b90611ce3565b60405162461bcd60e51b815260048101849052601460248201527f5061757361626c653a206e6f74207061757365640000000000000000000000006044820152606490fd5b346102055760003660031901126102055760206001600160a01b0360055416604051908152f35b3461020557606036600319011261020557611db76125a0565b67ffffffffffffffff9060243582811161020557611dd99036906004016125b7565b604435928315948515850361020557336000526020956003875260ff604060002054166003811015610291576001611e119114612d2c565b156120cc578116600052600985526001600160a01b0360406000205416915b6001600160a01b038093168015612087578660405180926322bb937360e11b82528180611e61878b60048401612d78565b03915afa801561070557611e7c9160009161206a5750612da0565b611e84613073565b93851561204557611e986105138383612dfd565b8552611ea76105138383612e23565b6080860152611eb96105138383612e10565b8786015261020091808311610205576101e082013560408701526102201161020557013560608401525b8483018051156120005751600052600b855260406000205415611fbb578490835194600014611fa357600554608085015160405163080cdb0b60e11b815267ffffffffffffffff9390931660048401526024830152909283916044918391165afa801561070557611f5b91600091611f865750612f17565b6003606060408301519284600052600a8652604060002093600285015501519101555b604051908152f35b611f9d9150853d87116106fe576106f08183612647565b856112bc565b5050505080600052600a825280604060002055611f7e565b60405162461bcd60e51b815260048101869052601060248201527f766b48617368206e6f742076616c6964000000000000000000000000000000006044820152606490fd5b60405162461bcd60e51b815260048101879052601e60248201527f766b486173682073686f756c64206265206c6172676572207468616e203000006044820152606490fd5b818161205a6105136120619561051395612dfd565b8752612e10565b85840152611ee3565b6120819150883d8a116106fe576106f08183612647565b88610500565b60405162461bcd60e51b815260048101889052601660248201527f636861696e207665726966696572206e6f7420736574000000000000000000006044820152606490fd5b8116600052600985526001600160a01b036001604060002001541691611e30565b3461020557610120366003190112610205576121076125a0565b60a03660231901126102055760c43560e43567ffffffffffffffff811161020557612136903690600401612524565b610104359260ff928385168095036102055781600052602090600682526121638560406000205416612c3e565b60055460405163080cdb0b60e11b815267ffffffffffffffff98909816600489015260a4356024890181905297908390829060449082906001600160a01b03165afa8015610705576121bc916000916122f05750612ca2565b604051828101906121fd81610b4760249b608435908d60643591604435913589939160a0959391855260208501526040840152606083015260808201520190565b519020926000935b86851660048110156122a35787919089811c60011661227157612229908886612cee565b35604051908682019283526040820152604081526122468161262b565b519020945b1686811461225c5760010193612205565b88634e487b7160e01b60005260116004526000fd5b61227c908886612cee565b35906040519086820192835260408201526040815261229a8161262b565b5190209461224b565b89858385036122ae57005b600c6064926040519262461bcd60e51b845260048401528201527f696e76616c6964206461746100000000000000000000000000000000000000006044820152fd5b6123079150843d86116106fe576106f08183612647565b89610ac6565b346102055761231b36612555565b6123356001600160a01b03600095949395541633146126f2565b612340818314612e53565b60005b82811061239b57507f011d93b74200525baf6adf5cba27a9d8f45c6aec5f9862889711c9f1630879ac936123969161238860405195869560408752604087019161309e565b91848303602086015261309e565b0390a1005b806123aa6123ca928488612cee565b356123b6828688612cee565b35600052600b60205260406000205561273d565b612343565b3461020557602036600319011261020557600435600052600b6020526020604060002054604051908152f35b3461020557602036600319011261020557600435600254811015610205576001600160a01b0361023b6020926124a0565b34610205576020366003190112610205576004356001600160a01b03808216809203610205577f674c535cde998bcb47d0688f644df545597c7d6edb95643cb21c82c2d490ff7f916124856020926000541633146126f2565b806001600160a01b03196005541617600555604051908152a1005b6002548110156124d75760026000527f405787fa12a823e0f2b7631cc41b3ba8828b3321ca811111fa75cd3aa3bb5ace0190600090565b634e487b7160e01b600052603260045260246000fd5b6004548110156124d75760046000527f8a35acfbc15ff81a39ae7d344fd709f28e8600b4aa8c65c6b64bfe7fe36bd19b0190600090565b9181601f840112156102055782359167ffffffffffffffff8311610205576020808501948460051b01011161020557565b60406003198201126102055767ffffffffffffffff91600435838111610205578261258291600401612524565b939093926024359182116102055761259c91600401612524565b9091565b6004359067ffffffffffffffff8216820361020557565b9181601f840112156102055782359167ffffffffffffffff8311610205576020838186019501011161020557565b600435906001600160a01b038216820361020557565b35906001600160a01b038216820361020557565b60a0810190811067ffffffffffffffff82111761172457604052565b6060810190811067ffffffffffffffff82111761172457604052565b90601f8019910116810190811067ffffffffffffffff82111761172457604052565b6020806003198301126102055767ffffffffffffffff916004358381116102055781602382011215610205578060040135938411611724578360051b90604051946126b685840187612647565b855260248486019282010192831161020557602401905b8282106126db575050505090565b8380916126e7846125fb565b8152019101906126cd565b156126f957565b606460405162461bcd60e51b815260206004820152602060248201527f4f776e61626c653a2063616c6c6572206973206e6f7420746865206f776e65726044820152fd5b600019811461274c5760010190565b634e487b7160e01b600052601160045260246000fd5b80518210156124d75760209160051b010190565b1561277d57565b60405162461bcd60e51b815260206004820152601460248201527f43616c6c6572206973206e6f74207061757365720000000000000000000000006044820152606490fd5b6001600160a01b0380911691600083815260039360209185835260409060ff8282205416878110156129865715612942576004968754966000199081890198891161292f57835b8a548110156128ec57868261281d836124ed565b905490871b1c1614612837576128329061273d565b612809565b9091929394959697988082106128c7575b505050875480156128b45797849392917fd64d11086d859b73cf85a91ca06cbc484398acabe3d9a1b26d4366dff377d9859899019061289e612889836124ed565b6001600160a01b0382549160031b1b19169055565b55848252855220805460ff1916905551908152a1565b634e487b7160e01b845260318952602484fd5b6128e4926128d7611aba926124ed565b905490871b1c16916124ed565b388080612848565b855162461bcd60e51b8152808c01899052601060248201527f70726f766572206e6f7420666f756e64000000000000000000000000000000006044820152606490fd5b634e487b7160e01b845260118a52602484fd5b815162461bcd60e51b815260048101859052601560248201527f6163636f756e74206973206e6f742070726f76657200000000000000000000006044820152606490fd5b634e487b7160e01b82526021600452602482fd5b6001600160a01b03811690600090828252600160205260ff604083205416612a3b5760025468010000000000000000811015612a2757602092612a0b7f6719d08c1888103bea251a4ed56406bd0c3e69723c8a1686e017e7bbe159b6f89593611aba846001604096016002556124a0565b8281526001845220600160ff19825416179055604051908152a1565b634e487b7160e01b83526041600452602483fd5b60405162461bcd60e51b815260206004820152601960248201527f4163636f756e7420697320616c726561647920706175736572000000000000006044820152606490fd5b6001600160a01b038091169060009282845260019060209382855260409360ff858820541615612bfa5760028054909160001991828101908111612be657908695949392918a975b612b11575b885162461bcd60e51b8152600481018b9052601060248201527f706175736572206e6f7420666f756e64000000000000000000000000000000006044820152606490fd5b8399989799548a1015612bdd578185612b298c6124a0565b929054600393841b1c1614612b525750612b498798999a9795969761273d565b97969594612ac8565b9293949796959991818310612bb8575b5050505081548015612ba457918493917fcd265ebaf09df2871cc7bd4133404a235ba12eff2041bb89d9c714a2621c7c7e989993019061289e612889836124a0565b634e487b7160e01b89526031600452602489fd5b612bd493612bc8611aba936124a0565b9054911b1c16916124a0565b38808080612b62565b87989950612acd565b634e487b7160e01b8a52601160045260248afd5b845162461bcd60e51b815260048101879052601560248201527f4163636f756e74206973206e6f742070617573657200000000000000000000006044820152606490fd5b15612c4557565b60405162461bcd60e51b815260206004820152601660248201527f6d65726b6c6520726f6f74206e6f7420657869737473000000000000000000006044820152606490fd5b90816020910312610205575180151581036102055790565b15612ca957565b60405162461bcd60e51b815260206004820152601060248201527f696e76616c696420736d7420726f6f74000000000000000000000000000000006044820152606490fd5b91908110156124d75760051b0190565b91908110156124d75760a0020190565b90601f8110156124d75760051b0190565b9190820180921161274c57565b15612d3357565b60405162461bcd60e51b815260206004820152600e60248201527f696e76616c69642070726f7665720000000000000000000000000000000000006044820152606490fd5b90918060409360208452816020850152848401376000828201840152601f01601f1916010190565b15612da757565b60405162461bcd60e51b815260206004820152600f60248201527f70726f6f66206e6f742076616c696400000000000000000000000000000000006044820152606490fd5b9060108110156124d75760051b0190565b906101a011610205576101800190602090565b906101e011610205576101c00190602090565b906101c011610205576101a00190602090565b359060208110612e44575090565b6000199060200360031b1b1690565b15612e5a57565b60405162461bcd60e51b815260206004820152601060248201527f6c656e677468206e6f74206d61746368000000000000000000000000000000006044820152606490fd5b356001600160a01b03811681036102055790565b3567ffffffffffffffff811681036102055790565b9190808252602080920192916000805b838210612ee757505050505090565b9091929394853567ffffffffffffffff8116809103612f13578152830194830193929160010190612ed8565b8280fd5b15612f1e57565b60405162461bcd60e51b815260206004820152601260248201527f736d7420726f6f74206e6f742076616c696400000000000000000000000000006044820152606490fd5b903590601e1981360301821215610205570180359067ffffffffffffffff8211610205576020019181600a1b3603831361020557565b903590601e1981360301821215610205570180359067ffffffffffffffff8211610205576020019160a082023603831361020557565b903590601e1981360301821215610205570180359067ffffffffffffffff821161020557602001918160051b3603831361020557565b91908110156124d757600a1b0190565b9060058110156124d75760c0020190565b9081519160005b83811061303e575050016000815290565b806020809284010151818501520161302d565b91908110156124d75760051b81013590609e1981360301821215610205570190565b604051906130808261260f565b60006080838281528260208201528260408201528260608201520152565b90918281527f07ffffffffffffffffffffffffffffffffffffffffffffffffffffffffffffff83116102055760209260051b80928483013701019056fea26469706673582212201ac8f54c920273c51692b3b98bf5a1ce80da5d4aeeceb34dd65de778e7c80f2b64736f6c63430008140033",
  "devdoc": {
    "events": {
      "Paused(address)": {
        "details": "Emitted when the pause is triggered by `account`."
      },
      "Unpaused(address)": {
        "details": "Emitted when the pause is lifted by `account`."
      }
    },
    "kind": "dev",
    "methods": {
      "owner()": {
        "details": "Returns the address of the current owner."
      },
      "paused()": {
        "details": "Returns true if the contract is paused, and false otherwise."
      },
      "transferOwnership(address)": {
        "details": "Transfers ownership of the contract to a new account (`newOwner`). Can only be called by the current owner."
      }
    },
    "version": 1
  },
  "userdoc": {
    "kind": "user",
    "methods": {},
    "version": 1
  },
  "storageLayout": {
    "storage": [
      {
        "astId": 14983,
        "contract": "contracts/sdk/core/BrevisProof.sol:BrevisProof",
        "label": "_owner",
        "offset": 0,
        "slot": "0",
        "type": "t_address"
      },
      {
        "astId": 122,
        "contract": "contracts/sdk/core/BrevisProof.sol:BrevisProof",
        "label": "_paused",
        "offset": 20,
        "slot": "0",
        "type": "t_bool"
      },
      {
        "astId": 15097,
        "contract": "contracts/sdk/core/BrevisProof.sol:BrevisProof",
        "label": "pausers",
        "offset": 0,
        "slot": "1",
        "type": "t_mapping(t_address,t_bool)"
      },
      {
        "astId": 15100,
        "contract": "contracts/sdk/core/BrevisProof.sol:BrevisProof",
        "label": "pauserList",
        "offset": 0,
        "slot": "2",
        "type": "t_array(t_address)dyn_storage"
      },
      {
        "astId": 14670,
        "contract": "contracts/sdk/core/BrevisProof.sol:BrevisProof",
        "label": "proverStates",
        "offset": 0,
        "slot": "3",
        "type": "t_mapping(t_address,t_enum(ProverState)14665)"
      },
      {
        "astId": 14673,
        "contract": "contracts/sdk/core/BrevisProof.sol:BrevisProof",
        "label": "provers",
        "offset": 0,
        "slot": "4",
        "type": "t_array(t_address)dyn_storage"
      },
      {
        "astId": 17320,
        "contract": "contracts/sdk/core/BrevisProof.sol:BrevisProof",
        "label": "smtContract",
        "offset": 0,
        "slot": "5",
        "type": "t_contract(ISMT)11464"
      },
      {
        "astId": 17335,
        "contract": "contracts/sdk/core/BrevisProof.sol:BrevisProof",
        "label": "merkleRoots",
        "offset": 0,
        "slot": "6",
        "type": "t_mapping(t_bytes32,t_bool)"
      },
      {
        "astId": 17339,
        "contract": "contracts/sdk/core/BrevisProof.sol:BrevisProof",
        "label": "requestIds",
        "offset": 0,
        "slot": "7",
        "type": "t_mapping(t_bytes32,t_bool)"
      },
      {
        "astId": 17344,
        "contract": "contracts/sdk/core/BrevisProof.sol:BrevisProof",
        "label": "aggProofVerifierAddress",
        "offset": 0,
        "slot": "8",
        "type": "t_mapping(t_uint64,t_contract(IZkpVerifier)24735)"
      },
      {
        "astId": 17955,
        "contract": "contracts/sdk/core/BrevisProof.sol:BrevisProof",
        "label": "verifierAddresses",
        "offset": 0,
        "slot": "9",
        "type": "t_mapping(t_uint64,t_struct(ChainZKVerifier)17950_storage)"
      },
      {
        "astId": 17960,
        "contract": "contracts/sdk/core/BrevisProof.sol:BrevisProof",
        "label": "proofs",
        "offset": 0,
        "slot": "10",
        "type": "t_mapping(t_bytes32,t_struct(ProofData)21345_storage)"
      },
      {
        "astId": 17964,
        "contract": "contracts/sdk/core/BrevisProof.sol:BrevisProof",
        "label": "vkHashesToBatchSize",
        "offset": 0,
        "slot": "11",
        "type": "t_mapping(t_bytes32,t_uint256)"
      }
    ],
    "types": {
      "t_address": {
        "encoding": "inplace",
        "label": "address",
        "numberOfBytes": "20"
      },
      "t_array(t_address)dyn_storage": {
        "base": "t_address",
        "encoding": "dynamic_array",
        "label": "address[]",
        "numberOfBytes": "32"
      },
      "t_bool": {
        "encoding": "inplace",
        "label": "bool",
        "numberOfBytes": "1"
      },
      "t_bytes32": {
        "encoding": "inplace",
        "label": "bytes32",
        "numberOfBytes": "32"
      },
      "t_contract(ISMT)11464": {
        "encoding": "inplace",
        "label": "contract ISMT",
        "numberOfBytes": "20"
      },
      "t_contract(IZkpVerifier)24735": {
        "encoding": "inplace",
        "label": "contract IZkpVerifier",
        "numberOfBytes": "20"
      },
      "t_enum(ProverState)14665": {
        "encoding": "inplace",
        "label": "enum BrevisAccess.ProverState",
        "numberOfBytes": "1"
      },
      "t_mapping(t_address,t_bool)": {
        "encoding": "mapping",
        "key": "t_address",
        "label": "mapping(address => bool)",
        "numberOfBytes": "32",
        "value": "t_bool"
      },
      "t_mapping(t_address,t_enum(ProverState)14665)": {
        "encoding": "mapping",
        "key": "t_address",
        "label": "mapping(address => enum BrevisAccess.ProverState)",
        "numberOfBytes": "32",
        "value": "t_enum(ProverState)14665"
      },
      "t_mapping(t_bytes32,t_bool)": {
        "encoding": "mapping",
        "key": "t_bytes32",
        "label": "mapping(bytes32 => bool)",
        "numberOfBytes": "32",
        "value": "t_bool"
      },
      "t_mapping(t_bytes32,t_struct(ProofData)21345_storage)": {
        "encoding": "mapping",
        "key": "t_bytes32",
        "label": "mapping(bytes32 => struct Brevis.ProofData)",
        "numberOfBytes": "32",
        "value": "t_struct(ProofData)21345_storage"
      },
      "t_mapping(t_bytes32,t_uint256)": {
        "encoding": "mapping",
        "key": "t_bytes32",
        "label": "mapping(bytes32 => uint256)",
        "numberOfBytes": "32",
        "value": "t_uint256"
      },
      "t_mapping(t_uint64,t_contract(IZkpVerifier)24735)": {
        "encoding": "mapping",
        "key": "t_uint64",
        "label": "mapping(uint64 => contract IZkpVerifier)",
        "numberOfBytes": "32",
        "value": "t_contract(IZkpVerifier)24735"
      },
      "t_mapping(t_uint64,t_struct(ChainZKVerifier)17950_storage)": {
        "encoding": "mapping",
        "key": "t_uint64",
        "label": "mapping(uint64 => struct BrevisProof.ChainZKVerifier)",
        "numberOfBytes": "32",
        "value": "t_struct(ChainZKVerifier)17950_storage"
      },
      "t_struct(ChainZKVerifier)17950_storage": {
        "encoding": "inplace",
        "label": "struct BrevisProof.ChainZKVerifier",
        "members": [
          {
            "astId": 17946,
            "contract": "contracts/sdk/core/BrevisProof.sol:BrevisProof",
            "label": "contractAppZkVerifier",
            "offset": 0,
            "slot": "0",
            "type": "t_contract(IZkpVerifier)24735"
          },
          {
            "astId": 17949,
            "contract": "contracts/sdk/core/BrevisProof.sol:BrevisProof",
            "label": "circuitAppZkVerifier",
            "offset": 0,
            "slot": "1",
            "type": "t_contract(IZkpVerifier)24735"
          }
        ],
        "numberOfBytes": "64"
      },
      "t_struct(ProofData)21345_storage": {
        "encoding": "inplace",
        "label": "struct Brevis.ProofData",
        "members": [
          {
            "astId": 21336,
            "contract": "contracts/sdk/core/BrevisProof.sol:BrevisProof",
            "label": "commitHash",
            "offset": 0,
            "slot": "0",
            "type": "t_bytes32"
          },
          {
            "astId": 21338,
            "contract": "contracts/sdk/core/BrevisProof.sol:BrevisProof",
            "label": "vkHash",
            "offset": 0,
            "slot": "1",
            "type": "t_bytes32"
          },
          {
            "astId": 21340,
            "contract": "contracts/sdk/core/BrevisProof.sol:BrevisProof",
            "label": "appCommitHash",
            "offset": 0,
            "slot": "2",
            "type": "t_bytes32"
          },
          {
            "astId": 21342,
            "contract": "contracts/sdk/core/BrevisProof.sol:BrevisProof",
            "label": "appVkHash",
            "offset": 0,
            "slot": "3",
            "type": "t_bytes32"
          },
          {
            "astId": 21344,
            "contract": "contracts/sdk/core/BrevisProof.sol:BrevisProof",
            "label": "smtRoot",
            "offset": 0,
            "slot": "4",
            "type": "t_bytes32"
          }
        ],
        "numberOfBytes": "160"
      },
      "t_uint256": {
        "encoding": "inplace",
        "label": "uint256",
        "numberOfBytes": "32"
      },
      "t_uint64": {
        "encoding": "inplace",
        "label": "uint64",
        "numberOfBytes": "8"
      }
    }
  }
}