{
  "address": "0x9744ae566c64B6B6f7F9A4dD50f7496Df6Fef990",
  "abi": [
    {
      "inputs": [
        {
          "internalType": "uint64[]",
          "name": "_chainIds",
          "type": "uint64[]"
        },
        {
          "internalType": "address[]",
          "name": "_anchorProviders",
          "type": "address[]"
        },
        {
          "internalType": "address[]",
          "name": "_verifiers",
          "type": "address[]"
        },
        {
          "internalType": "bytes32[]",
          "name": "_initRoots",
          "type": "bytes32[]"
        }
      ],
      "stateMutability": "nonpayable",
      "type": "constructor"
    },
    {
      "anonymous": false,
      "inputs": [
        {
          "indexed": false,
          "internalType": "uint64",
          "name": "chainId",
          "type": "uint64"
        },
        {
          "indexed": false,
          "internalType": "address",
          "name": "anchorProvider",
          "type": "address"
        }
      ],
      "name": "AnchorProviderUpdated",
      "type": "event"
    },
    {
      "anonymous": false,
      "inputs": [
        {
          "indexed": true,
          "internalType": "address",
          "name": "previousOwner",
          "type": "address"
        },
        {
          "indexed": true,
          "internalType": "address",
          "name": "newOwner",
          "type": "address"
        }
      ],
      "name": "OwnershipTransferred",
      "type": "event"
    },
    {
      "anonymous": false,
      "inputs": [
        {
          "indexed": false,
          "internalType": "bytes32",
          "name": "smtRoot",
          "type": "bytes32"
        },
        {
          "indexed": false,
          "internalType": "uint64",
          "name": "endBlockNum",
          "type": "uint64"
        }
      ],
      "name": "SmtRootUpdated",
      "type": "event"
    },
    {
      "anonymous": false,
      "inputs": [
        {
          "indexed": false,
          "internalType": "uint64",
          "name": "chainId",
          "type": "uint64"
        },
        {
          "indexed": false,
          "internalType": "address",
          "name": "verifier",
          "type": "address"
        }
      ],
      "name": "VerifierUpdated",
      "type": "event"
    },
    {
      "inputs": [
        {
          "internalType": "uint64",
          "name": "",
          "type": "uint64"
        }
      ],
      "name": "anchorProviders",
      "outputs": [
        {
          "internalType": "contract IAnchorBlocks",
          "name": "",
          "type": "address"
        }
      ],
      "stateMutability": "view",
      "type": "function"
    },
    {
      "inputs": [
        {
          "internalType": "uint64",
          "name": "chainId",
          "type": "uint64"
        }
      ],
      "name": "getLatestRoot",
      "outputs": [
        {
          "internalType": "bytes32",
          "name": "",
          "type": "bytes32"
        }
      ],
      "stateMutability": "view",
      "type": "function"
    },
    {
      "inputs": [
        {
          "internalType": "uint64",
          "name": "chainId",
          "type": "uint64"
        },
        {
          "internalType": "bytes32",
          "name": "smtRoot",
          "type": "bytes32"
        }
      ],
      "name": "isSmtRootValid",
      "outputs": [
        {
          "internalType": "bool",
          "name": "",
          "type": "bool"
        }
      ],
      "stateMutability": "view",
      "type": "function"
    },
    {
      "inputs": [
        {
          "internalType": "uint64",
          "name": "",
          "type": "uint64"
        }
      ],
      "name": "latestRoots",
      "outputs": [
        {
          "internalType": "bytes32",
          "name": "",
          "type": "bytes32"
        }
      ],
      "stateMutability": "view",
      "type": "function"
    },
    {
      "inputs": [],
      "name": "owner",
      "outputs": [
        {
          "internalType": "address",
          "name": "",
          "type": "address"
        }
      ],
      "stateMutability": "view",
      "type": "function"
    },
    {
      "inputs": [],
      "name": "renounceOwnership",
      "outputs": [],
      "stateMutability": "nonpayable",
      "type": "function"
    },
    {
      "inputs": [
        {
          "internalType": "uint64",
          "name": "chainId",
          "type": "uint64"
        },
        {
          "internalType": "address",
          "name": "anchorProvider",
          "type": "address"
        }
      ],
      "name": "setAnchorProvider",
      "outputs": [],
      "stateMutability": "nonpayable",
      "type": "function"
    },
    {
      "inputs": [
        {
          "internalType": "uint64",
          "name": "chainId",
          "type": "uint64"
        },
        {
          "internalType": "address",
          "name": "verifier",
          "type": "address"
        }
      ],
      "name": "setVerifier",
      "outputs": [],
      "stateMutability": "nonpayable",
      "type": "function"
    },
    {
      "inputs": [
        {
          "internalType": "uint64",
          "name": "",
          "type": "uint64"
        },
        {
          "internalType": "bytes32",
          "name": "",
          "type": "bytes32"
        }
      ],
      "name": "smtRoots",
      "outputs": [
        {
          "internalType": "bool",
          "name": "",
          "type": "bool"
        }
      ],
      "stateMutability": "view",
      "type": "function"
    },
    {
      "inputs": [
        {
          "internalType": "address",
          "name": "newOwner",
          "type": "address"
        }
      ],
      "name": "transferOwnership",
      "outputs": [],
      "stateMutability": "nonpayable",
      "type": "function"
    },
    {
      "inputs": [
        {
          "internalType": "uint64",
          "name": "chainId",
          "type": "uint64"
        },
        {
          "components": [
            {
              "internalType": "bytes32",
              "name": "newSmtRoot",
              "type": "bytes32"
            },
            {
              "internalType": "uint64",
              "name": "endBlockNum",
              "type": "uint64"
            },
            {
              "internalType": "bytes32",
              "name": "endBlockHash",
              "type": "bytes32"
            },
            {
              "internalType": "bytes32",
              "name": "nextChunkMerkleRoot",
              "type": "bytes32"
            },
            {
              "components": [
                {
                  "internalType": "uint256[2]",
                  "name": "a",
                  "type": "uint256[2]"
                },
                {
                  "internalType": "uint256[2][2]",
                  "name": "b",
                  "type": "uint256[2][2]"
                },
                {
                  "internalType": "uint256[2]",
                  "name": "c",
                  "type": "uint256[2]"
                },
                {
                  "internalType": "uint256[2]",
                  "name": "commitment",
                  "type": "uint256[2]"
                }
              ],
              "internalType": "struct IVerifier.Proof",
              "name": "proof",
              "type": "tuple"
            },
            {
              "internalType": "bytes32",
              "name": "commitPub",
              "type": "bytes32"
            }
          ],
          "internalType": "struct ISMT.SmtUpdate",
          "name": "u",
          "type": "tuple"
        }
      ],
      "name": "updateRoot",
      "outputs": [],
      "stateMutability": "nonpayable",
      "type": "function"
    },
    {
      "inputs": [
        {
          "internalType": "uint64",
          "name": "",
          "type": "uint64"
        }
      ],
      "name": "verifiers",
      "outputs": [
        {
          "internalType": "contract IVerifier",
          "name": "",
          "type": "address"
        }
      ],
      "stateMutability": "view",
      "type": "function"
    }
  ],
  "transactionHash": "0xceb10543bc6a2b57b3c8b1405d8ddac37078524a04d5fadaf2165721b58876d6",
  "args": [
    [
      10
    ],
    [
      "0xE26842653bF1C7E1ADd08Ae5681bD3e071287c74"
    ],
    [
      "0x6eEd9140F80F9E989CB23AeCBD20b97a29FFc80F"
    ],
    [
      "0x0cdabb3c8df47253f899ec95fcee96cebe20d188bbacc69bb08bcdeea39a0394"
    ]
  ],
  "numDeployments": 2,
  "solcInputHash": "457a8c36d92c19c08f570c2560947a58",
  "bytecode": "0x604060808152346200027b5762001022803803806200001e816200029a565b9283398101916080828403126200027b5781516001600160401b0391908281116200027b57830184601f820112156200027b57805194620000696200006387620002d6565b6200029a565b9182968084526020808095019160051b830101918383116200027b578401905b8282106200028057505050818501518481116200027b5781620000ae918701620002ee565b93838601518181116200027b5782620000c9918801620002ee565b956060810151908282116200027b57019180601f840112156200027b578251620000f76200006382620002d6565b93858086848152019260051b8201019283116200027b5785809101915b8383106200026a57505060008054336001600160a01b031980831682178455929a92956001600160a01b0395509293509084167f8be0079c531659141344cd1fd0a4f28419497f9722a3daafe3b4186f6b6457e08b80a36200017a8a518951146200035c565b620001898a518351146200035c565b620001988a518651146200035c565b885b8a518110156200025b5781620001b1828d62000398565b511684620001c0838c62000398565b5116818c52600190818a528a8d20908882541617905585620001e3848762000398565b5116828d5260028a528a8d20908882541617905560038952898c206200020a848a62000398565b518d528952898c209060ff1982541617905562000228828862000398565b51908b5260048852888b2055600019811462000247576001016200019a565b634e487b7160e01b8a52601160045260248afd5b8751610c5e9081620003c48239f35b825181529181019186910162000114565b600080fd5b815187811681036200027b57815290840190840162000089565b6040519190601f01601f191682016001600160401b03811183821017620002c057604052565b634e487b7160e01b600052604160045260246000fd5b6001600160401b038111620002c05760051b60200190565b9080601f830112156200027b578151906200030d6200006383620002d6565b9182938184526020808095019260051b8201019283116200027b578301905b8282106200033b575050505090565b81516001600160a01b03811681036200027b5781529083019083016200032c565b156200036457565b60405162461bcd60e51b815260206004820152600c60248201526b0d8cadc40dad2e6dac2e8c6d60a31b6044820152606490fd5b8051821015620003ad5760209160051b010190565b634e487b7160e01b600052603260045260246000fdfe608080604052600436101561001357600080fd5b60003560e01c9081631019b61614610b0157508063318a492d14610488578063387025321461043a578063479aa6da1461034c5780635ca32bd8146103875780636ae3e0801461034c578063715018a6146102ef5780638195408d146102ab5780638da5cb5b146102845780639c8413c5146101cc578063afe8154b146101885763f2fde38b146100a357600080fd5b34610183576020366003190112610183576004356001600160a01b0380821680920361018357600054908116906100db338314610bb5565b8215610118576001600160a01b0319839116176000557f8be0079c531659141344cd1fd0a4f28419497f9722a3daafe3b4186f6b6457e0600080a3005b60405162461bcd60e51b815260206004820152602660248201527f4f776e61626c653a206e6577206f776e657220697320746865207a65726f206160448201527f64647265737300000000000000000000000000000000000000000000000000006064820152608490fd5b600080fd5b346101835760203660031901126101835767ffffffffffffffff6101aa610b4a565b16600052600160205260206001600160a01b0360406000205416604051908152f35b34610183576040366003190112610183577fb78ea0eaf11776732556ef6189312ceb60eab6b3177526b3a12d966e37be8162610206610b4a565b61020e610b9f565b906001600160a01b0361022681600054163314610bb5565b67ffffffffffffffff8216600052600260205260406000209083166001600160a01b031982541617905561027f604051928392839092916001600160a01b0360209167ffffffffffffffff604085019616845216910152565b0390a1005b346101835760003660031901126101835760206001600160a01b0360005416604051908152f35b346101835760203660031901126101835767ffffffffffffffff6102cd610b4a565b16600052600260205260206001600160a01b0360406000205416604051908152f35b3461018357600036600319011261018357600080546001600160a01b03196001600160a01b03821691610323338414610bb5565b1682557f8be0079c531659141344cd1fd0a4f28419497f9722a3daafe3b4186f6b6457e08280a3005b346101835760203660031901126101835767ffffffffffffffff61036e610b4a565b1660005260046020526020604060002054604051908152f35b34610183576040366003190112610183577fd621c244f07f12e1f37bb9c40d61e278041fc4f2859a6736794b26f4297c80906103c1610b4a565b6103c9610b9f565b906001600160a01b036103e181600054163314610bb5565b67ffffffffffffffff8216600052600160205260406000209083166001600160a01b031982541617905561027f604051928392839092916001600160a01b0360209167ffffffffffffffff604085019616845216910152565b346101835760403660031901126101835767ffffffffffffffff61045c610b4a565b1660005260036020526040600020602435600052602052602060ff604060002054166040519015158152f35b3461018357610200366003190112610183576104a2610b4a565b6101e0366023190112610183576040519060c0820182811067ffffffffffffffff8211176108fc57604052602435825260443567ffffffffffffffff81168103610183576020830152606435604083015260843560608301526101403660a3190112610183576040516080810181811067ffffffffffffffff8211176108fc57806040523660c312156101835761053881610b61565b8060e4913683116101835760a4905b838210610af15750508252366101031215610183576040519061056982610b61565b8190366101641161018357905b6101648210610a9f57505060208201523661018312156101835760405161059c81610b61565b80366101a41161018357610164905b6101a48210610a8f5750506040820152366101c31215610183576040516105d181610b61565b80366101e411610183576101a4905b6101e48210610a7f575050606082015260808301526101e43560a0830152606082015115610957575b67ffffffffffffffff8116600052600460205260406000205460026020526001600160a01b0360406000205416801561091257604051918261014081011067ffffffffffffffff610140850111176108fc57916107259261014082016040526101403683378060801c82526fffffffffffffffffffffffffffffffff8091166020830152855160801c6040830152808651166060830152604086015160801c60808301528060408701511660a083015267ffffffffffffffff60208701511660c0830152606086015160801c60e083015260608601511661010082015260a085015161012082015260808501519081519160208101519060606040820151910151916040519687956313a4214360e31b87526004870190610c00565b6000604486015b600282106108b657505050906107496107549260c4860190610c00565b610104840190610c00565b600061014483015b600a821061089c57505050610284816020935afa90811561089057600091610855575b5015610810577f05712e4e1ed94f6f2706270c5ab0cbecd31613e0534ea4878ec4a16dc2f532a7918167ffffffffffffffff60409316600052600360205282600020825160005260205282600020600160ff1982541617905567ffffffffffffffff825191166000526004602052826000205567ffffffffffffffff602082519201511682519182526020820152a1005b60405162461bcd60e51b815260206004820152601060248201527f696e76616c6964207a6b2070726f6f66000000000000000000000000000000006044820152606490fd5b90506020813d602011610888575b8161087060209383610b7d565b8101031261018357518015158103610183578361077f565b3d9150610863565b6040513d6000823e3d90fd5b82935060208091600193945181520193019101849261075c565b90918093949596505181906000915b600283106108e657505050602060406001920193019101879594939261072c565b60208060019284518152019201920191906108c5565b634e487b7160e01b600052604160045260246000fd5b60405162461bcd60e51b815260206004820152601760248201527f6e6f20766572696669657220666f7220636861696e49640000000000000000006044820152606490fd5b67ffffffffffffffff811660005260016020526001600160a01b03604060002054168015610a3a57602067ffffffffffffffff818501511660246040518094819363f25b3f9960e01b835260048301525afa90811561089057600091610a08575b506040830151146106095760405162461bcd60e51b815260206004820152601360248201527f616e63686f7220636865636b206661696c6564000000000000000000000000006044820152606490fd5b90506020813d602011610a32575b81610a2360209383610b7d565b810103126101835751836109b8565b3d9150610a16565b60405162461bcd60e51b815260206004820152601760248201527f756e6b6e6f776e20616e63686f722070726f76696465720000000000000000006044820152606490fd5b81358152602091820191016105e0565b81358152602091820191016105ab565b36601f8301121561018357604051610ab681610b61565b803660408501116101835783905b604085018210610ae1575050816020916040935201910190610576565b8135815260209182019101610ac4565b8135815260209182019101610547565b346101835760403660031901126101835760209067ffffffffffffffff610b26610b4a565b16600052600382526040600020602435600052825260ff6040600020541615158152f35b6004359067ffffffffffffffff8216820361018357565b6040810190811067ffffffffffffffff8211176108fc57604052565b90601f8019910116810190811067ffffffffffffffff8211176108fc57604052565b602435906001600160a01b038216820361018357565b15610bbc57565b606460405162461bcd60e51b815260206004820152602060248201527f4f776e61626c653a2063616c6c6572206973206e6f7420746865206f776e65726044820152fd5b6000915b60028310610c1157505050565b600190825181526020809101920192019190610c0456fea2646970667358221220b76ffed61d3279dcdd30da68d967b0756c78346b6d0fd323162d69ad3a647c5164736f6c63430008140033",
  "devdoc": {
    "kind": "dev",
    "methods": {
      "owner()": {
        "details": "Returns the address of the current owner."
      },
      "renounceOwnership()": {
        "details": "Leaves the contract without owner. It will not be possible to call `onlyOwner` functions anymore. Can only be called by the current owner. NOTE: Renouncing ownership will leave the contract without an owner, thereby removing any functionality that is only available to the owner."
      },
      "transferOwnership(address)": {
        "details": "Transfers ownership of the contract to a new account (`newOwner`). Can only be called by the current owner."
      }
    },
    "version": 1
  },
  "userdoc": {
    "kind": "user",
    "methods": {},
    "version": 1
  },
  "storageLayout": {
    "storage": [
      {
        "astId": 7,
        "contract": "contracts/smt/SMT.sol:SMT",
        "label": "_owner",
        "offset": 0,
        "slot": "0",
        "type": "t_address"
      },
      {
        "astId": 6807,
        "contract": "contracts/smt/SMT.sol:SMT",
        "label": "anchorProviders",
        "offset": 0,
        "slot": "1",
        "type": "t_mapping(t_uint64,t_contract(IAnchorBlocks)6346)"
      },
      {
        "astId": 6812,
        "contract": "contracts/smt/SMT.sol:SMT",
        "label": "verifiers",
        "offset": 0,
        "slot": "2",
        "type": "t_mapping(t_uint64,t_contract(IVerifier)7645)"
      },
      {
        "astId": 6818,
        "contract": "contracts/smt/SMT.sol:SMT",
        "label": "smtRoots",
        "offset": 0,
        "slot": "3",
        "type": "t_mapping(t_uint64,t_mapping(t_bytes32,t_bool))"
      },
      {
        "astId": 6822,
        "contract": "contracts/smt/SMT.sol:SMT",
        "label": "latestRoots",
        "offset": 0,
        "slot": "4",
        "type": "t_mapping(t_uint64,t_bytes32)"
      }
    ],
    "types": {
      "t_address": {
        "encoding": "inplace",
        "label": "address",
        "numberOfBytes": "20"
      },
      "t_bool": {
        "encoding": "inplace",
        "label": "bool",
        "numberOfBytes": "1"
      },
      "t_bytes32": {
        "encoding": "inplace",
        "label": "bytes32",
        "numberOfBytes": "32"
      },
      "t_contract(IAnchorBlocks)6346": {
        "encoding": "inplace",
        "label": "contract IAnchorBlocks",
        "numberOfBytes": "20"
      },
      "t_contract(IVerifier)7645": {
        "encoding": "inplace",
        "label": "contract IVerifier",
        "numberOfBytes": "20"
      },
      "t_mapping(t_bytes32,t_bool)": {
        "encoding": "mapping",
        "key": "t_bytes32",
        "label": "mapping(bytes32 => bool)",
        "numberOfBytes": "32",
        "value": "t_bool"
      },
      "t_mapping(t_uint64,t_bytes32)": {
        "encoding": "mapping",
        "key": "t_uint64",
        "label": "mapping(uint64 => bytes32)",
        "numberOfBytes": "32",
        "value": "t_bytes32"
      },
      "t_mapping(t_uint64,t_contract(IAnchorBlocks)6346)": {
        "encoding": "mapping",
        "key": "t_uint64",
        "label": "mapping(uint64 => contract IAnchorBlocks)",
        "numberOfBytes": "32",
        "value": "t_contract(IAnchorBlocks)6346"
      },
      "t_mapping(t_uint64,t_contract(IVerifier)7645)": {
        "encoding": "mapping",
        "key": "t_uint64",
        "label": "mapping(uint64 => contract IVerifier)",
        "numberOfBytes": "32",
        "value": "t_contract(IVerifier)7645"
      },
      "t_mapping(t_uint64,t_mapping(t_bytes32,t_bool))": {
        "encoding": "mapping",
        "key": "t_uint64",
        "label": "mapping(uint64 => mapping(bytes32 => bool))",
        "numberOfBytes": "32",
        "value": "t_mapping(t_bytes32,t_bool)"
      },
      "t_uint64": {
        "encoding": "inplace",
        "label": "uint64",
        "numberOfBytes": "8"
      }
    }
  }
}