{
  "address": "0x63f8CF17Db61a29c295d05969bc3C9cAD158e8e0",
  "abi": [
    {
      "inputs": [
        {
          "internalType": "uint64[]",
          "name": "_chainIds",
          "type": "uint64[]"
        },
        {
          "internalType": "address[]",
          "name": "_anchorProviders",
          "type": "address[]"
        },
        {
          "internalType": "address[]",
          "name": "_verifiers",
          "type": "address[]"
        },
        {
          "internalType": "bytes32[]",
          "name": "_initRoots",
          "type": "bytes32[]"
        }
      ],
      "stateMutability": "nonpayable",
      "type": "constructor"
    },
    {
      "anonymous": false,
      "inputs": [
        {
          "indexed": false,
          "internalType": "uint64",
          "name": "chainId",
          "type": "uint64"
        },
        {
          "indexed": false,
          "internalType": "address",
          "name": "anchorProvider",
          "type": "address"
        }
      ],
      "name": "AnchorProviderUpdated",
      "type": "event"
    },
    {
      "anonymous": false,
      "inputs": [
        {
          "indexed": true,
          "internalType": "address",
          "name": "previousOwner",
          "type": "address"
        },
        {
          "indexed": true,
          "internalType": "address",
          "name": "newOwner",
          "type": "address"
        }
      ],
      "name": "OwnershipTransferred",
      "type": "event"
    },
    {
      "anonymous": false,
      "inputs": [
        {
          "indexed": false,
          "internalType": "address",
          "name": "account",
          "type": "address"
        }
      ],
      "name": "Paused",
      "type": "event"
    },
    {
      "anonymous": false,
      "inputs": [
        {
          "indexed": false,
          "internalType": "address",
          "name": "account",
          "type": "address"
        }
      ],
      "name": "PauserAdded",
      "type": "event"
    },
    {
      "anonymous": false,
      "inputs": [
        {
          "indexed": false,
          "internalType": "address",
          "name": "account",
          "type": "address"
        }
      ],
      "name": "PauserRemoved",
      "type": "event"
    },
    {
      "anonymous": false,
      "inputs": [
        {
          "indexed": false,
          "internalType": "address",
          "name": "account",
          "type": "address"
        }
      ],
      "name": "ProverAdded",
      "type": "event"
    },
    {
      "anonymous": false,
      "inputs": [
        {
          "indexed": false,
          "internalType": "address",
          "name": "account",
          "type": "address"
        }
      ],
      "name": "ProverRemoved",
      "type": "event"
    },
    {
      "anonymous": false,
      "inputs": [
        {
          "indexed": false,
          "internalType": "bytes32",
          "name": "smtRoot",
          "type": "bytes32"
        },
        {
          "indexed": false,
          "internalType": "uint64",
          "name": "endBlockNum",
          "type": "uint64"
        },
        {
          "indexed": false,
          "internalType": "uint64",
          "name": "chainId",
          "type": "uint64"
        }
      ],
      "name": "SmtRootUpdated",
      "type": "event"
    },
    {
      "anonymous": false,
      "inputs": [
        {
          "indexed": false,
          "internalType": "address",
          "name": "account",
          "type": "address"
        }
      ],
      "name": "Unpaused",
      "type": "event"
    },
    {
      "anonymous": false,
      "inputs": [
        {
          "indexed": false,
          "internalType": "uint64",
          "name": "chainId",
          "type": "uint64"
        },
        {
          "indexed": false,
          "internalType": "address",
          "name": "verifier",
          "type": "address"
        }
      ],
      "name": "VerifierUpdated",
      "type": "event"
    },
    {
      "inputs": [
        {
          "internalType": "address",
          "name": "account",
          "type": "address"
        }
      ],
      "name": "addPauser",
      "outputs": [],
      "stateMutability": "nonpayable",
      "type": "function"
    },
    {
      "inputs": [
        {
          "internalType": "address[]",
          "name": "accounts",
          "type": "address[]"
        }
      ],
      "name": "addPausers",
      "outputs": [],
      "stateMutability": "nonpayable",
      "type": "function"
    },
    {
      "inputs": [
        {
          "internalType": "address[]",
          "name": "_accounts",
          "type": "address[]"
        }
      ],
      "name": "addProvers",
      "outputs": [],
      "stateMutability": "nonpayable",
      "type": "function"
    },
    {
      "inputs": [
        {
          "internalType": "uint64",
          "name": "",
          "type": "uint64"
        }
      ],
      "name": "anchorProviders",
      "outputs": [
        {
          "internalType": "contract IAnchorBlocks",
          "name": "",
          "type": "address"
        }
      ],
      "stateMutability": "view",
      "type": "function"
    },
    {
      "inputs": [
        {
          "internalType": "uint64",
          "name": "chainId",
          "type": "uint64"
        }
      ],
      "name": "getLatestRoot",
      "outputs": [
        {
          "internalType": "bytes32",
          "name": "",
          "type": "bytes32"
        }
      ],
      "stateMutability": "view",
      "type": "function"
    },
    {
      "inputs": [
        {
          "internalType": "address",
          "name": "_account",
          "type": "address"
        }
      ],
      "name": "isActiveProver",
      "outputs": [
        {
          "internalType": "bool",
          "name": "",
          "type": "bool"
        }
      ],
      "stateMutability": "view",
      "type": "function"
    },
    {
      "inputs": [
        {
          "internalType": "address",
          "name": "account",
          "type": "address"
        }
      ],
      "name": "isPauser",
      "outputs": [
        {
          "internalType": "bool",
          "name": "",
          "type": "bool"
        }
      ],
      "stateMutability": "view",
      "type": "function"
    },
    {
      "inputs": [
        {
          "internalType": "uint64",
          "name": "chainId",
          "type": "uint64"
        },
        {
          "internalType": "bytes32",
          "name": "smtRoot",
          "type": "bytes32"
        }
      ],
      "name": "isSmtRootValid",
      "outputs": [
        {
          "internalType": "bool",
          "name": "",
          "type": "bool"
        }
      ],
      "stateMutability": "view",
      "type": "function"
    },
    {
      "inputs": [
        {
          "internalType": "uint64",
          "name": "",
          "type": "uint64"
        }
      ],
      "name": "latestRoots",
      "outputs": [
        {
          "internalType": "bytes32",
          "name": "",
          "type": "bytes32"
        }
      ],
      "stateMutability": "view",
      "type": "function"
    },
    {
      "inputs": [],
      "name": "numPausers",
      "outputs": [
        {
          "internalType": "uint256",
          "name": "",
          "type": "uint256"
        }
      ],
      "stateMutability": "view",
      "type": "function"
    },
    {
      "inputs": [],
      "name": "numProvers",
      "outputs": [
        {
          "internalType": "uint256",
          "name": "",
          "type": "uint256"
        }
      ],
      "stateMutability": "view",
      "type": "function"
    },
    {
      "inputs": [],
      "name": "owner",
      "outputs": [
        {
          "internalType": "address",
          "name": "",
          "type": "address"
        }
      ],
      "stateMutability": "view",
      "type": "function"
    },
    {
      "inputs": [],
      "name": "pause",
      "outputs": [],
      "stateMutability": "nonpayable",
      "type": "function"
    },
    {
      "inputs": [],
      "name": "paused",
      "outputs": [
        {
          "internalType": "bool",
          "name": "",
          "type": "bool"
        }
      ],
      "stateMutability": "view",
      "type": "function"
    },
    {
      "inputs": [
        {
          "internalType": "uint256",
          "name": "",
          "type": "uint256"
        }
      ],
      "name": "pauserList",
      "outputs": [
        {
          "internalType": "address",
          "name": "",
          "type": "address"
        }
      ],
      "stateMutability": "view",
      "type": "function"
    },
    {
      "inputs": [
        {
          "internalType": "address",
          "name": "",
          "type": "address"
        }
      ],
      "name": "pausers",
      "outputs": [
        {
          "internalType": "bool",
          "name": "",
          "type": "bool"
        }
      ],
      "stateMutability": "view",
      "type": "function"
    },
    {
      "inputs": [
        {
          "internalType": "address",
          "name": "",
          "type": "address"
        }
      ],
      "name": "proverStates",
      "outputs": [
        {
          "internalType": "enum BrevisAccess.ProverState",
          "name": "",
          "type": "uint8"
        }
      ],
      "stateMutability": "view",
      "type": "function"
    },
    {
      "inputs": [
        {
          "internalType": "uint256",
          "name": "",
          "type": "uint256"
        }
      ],
      "name": "provers",
      "outputs": [
        {
          "internalType": "address",
          "name": "",
          "type": "address"
        }
      ],
      "stateMutability": "view",
      "type": "function"
    },
    {
      "inputs": [
        {
          "internalType": "address",
          "name": "account",
          "type": "address"
        }
      ],
      "name": "removePauser",
      "outputs": [],
      "stateMutability": "nonpayable",
      "type": "function"
    },
    {
      "inputs": [
        {
          "internalType": "address[]",
          "name": "accounts",
          "type": "address[]"
        }
      ],
      "name": "removePausers",
      "outputs": [],
      "stateMutability": "nonpayable",
      "type": "function"
    },
    {
      "inputs": [
        {
          "internalType": "address[]",
          "name": "_accounts",
          "type": "address[]"
        }
      ],
      "name": "removeProvers",
      "outputs": [],
      "stateMutability": "nonpayable",
      "type": "function"
    },
    {
      "inputs": [],
      "name": "renouncePauser",
      "outputs": [],
      "stateMutability": "nonpayable",
      "type": "function"
    },
    {
      "inputs": [
        {
          "internalType": "uint64",
          "name": "chainId",
          "type": "uint64"
        },
        {
          "internalType": "address",
          "name": "anchorProvider",
          "type": "address"
        }
      ],
      "name": "setAnchorProvider",
      "outputs": [],
      "stateMutability": "nonpayable",
      "type": "function"
    },
    {
      "inputs": [
        {
          "internalType": "uint64",
          "name": "chainId",
          "type": "uint64"
        },
        {
          "internalType": "address",
          "name": "verifier",
          "type": "address"
        }
      ],
      "name": "setVerifier",
      "outputs": [],
      "stateMutability": "nonpayable",
      "type": "function"
    },
    {
      "inputs": [
        {
          "internalType": "uint64",
          "name": "",
          "type": "uint64"
        },
        {
          "internalType": "bytes32",
          "name": "",
          "type": "bytes32"
        }
      ],
      "name": "smtRoots",
      "outputs": [
        {
          "internalType": "bool",
          "name": "",
          "type": "bool"
        }
      ],
      "stateMutability": "view",
      "type": "function"
    },
    {
      "inputs": [
        {
          "internalType": "address",
          "name": "newOwner",
          "type": "address"
        }
      ],
      "name": "transferOwnership",
      "outputs": [],
      "stateMutability": "nonpayable",
      "type": "function"
    },
    {
      "inputs": [],
      "name": "unpause",
      "outputs": [],
      "stateMutability": "nonpayable",
      "type": "function"
    },
    {
      "inputs": [
        {
          "internalType": "uint64",
          "name": "chainId",
          "type": "uint64"
        },
        {
          "components": [
            {
              "internalType": "bytes32",
              "name": "newSmtRoot",
              "type": "bytes32"
            },
            {
              "internalType": "uint64",
              "name": "endBlockNum",
              "type": "uint64"
            },
            {
              "internalType": "bytes32",
              "name": "endBlockHash",
              "type": "bytes32"
            },
            {
              "internalType": "bytes32",
              "name": "nextChunkMerkleRoot",
              "type": "bytes32"
            },
            {
              "internalType": "uint256[8]",
              "name": "proof",
              "type": "uint256[8]"
            },
            {
              "internalType": "uint256[2]",
              "name": "commit",
              "type": "uint256[2]"
            },
            {
              "internalType": "uint256[2]",
              "name": "knowledgeProof",
              "type": "uint256[2]"
            }
          ],
          "internalType": "struct ISMT.SmtUpdate",
          "name": "u",
          "type": "tuple"
        }
      ],
      "name": "updateRoot",
      "outputs": [],
      "stateMutability": "nonpayable",
      "type": "function"
    },
    {
      "inputs": [
        {
          "internalType": "uint64",
          "name": "",
          "type": "uint64"
        }
      ],
      "name": "verifiers",
      "outputs": [
        {
          "internalType": "contract IVerifier",
          "name": "",
          "type": "address"
        }
      ],
      "stateMutability": "view",
      "type": "function"
    }
  ],
  "transactionHash": "0xcba84e6cfebdf9e014addd60c07460226d6c4c8ad667258467b5d2421f2f8110",
  "args": [
    [
      10
    ],
    [
      "0xE26842653bF1C7E1ADd08Ae5681bD3e071287c74"
    ],
    [
      "0x546ca746D7d4327E5c7d3068CbAaEED4c29c4C9A"
    ],
    [
      "0x0a7d854baa0e72c5b990c6e58ed2d759ccaae4642f16cac9bc94396c9571a6eb"
    ]
  ],
  "numDeployments": 6,
  "solcInputHash": "c5f4c4b6aeb157b2f0bfd230518316c2",
  "bytecode": "0x604060808152346200039d5762001e1c90813803806200001f81620003bc565b93843982016080838203126200039d5782516001600160401b0391908281116200039d5784019381601f860112156200039d578451916200006a6200006484620003f8565b620003bc565b908196848352602080930183600596871b830101918383116200039d578401905b828210620003a257505050818301518581116200039d5781620000b091850162000410565b96868401518681116200039d5782620000cb91860162000410565b936060810151908782116200039d57019180601f840112156200039d578251620000f96200006482620003f8565b938580868481520192891b8201019283116200039d5785809101915b8383106200038c575050600080548a519891976001600160a01b0394509250338482167f8be0079c531659141344cd1fd0a4f28419497f9722a3daafe3b4186f6b6457e08a80a36001600160a81b0319163360ff60a01b198116919091178855875260018087528a88205490989060ff166200034a57506002549a680100000000000000008c10156200033657888c01806002558c101562000322578a99899c957f6719d08c1888103bea251a4ed56406bd0c3e69723c8a1686e017e7bbe159b6f8898c9860028d52818d20019d60018060a01b03199e8f3390825416179055338d52898252808d2060ff199a8b82541617905551338152a16200021d81518451146200047e565b6200022c81518651146200047e565b6200023b81518951146200047e565b899d5b62000253575b8c516119369081620004e68239f35b8d815111156200031c578d808e8e8c828f8c8c878d838e8e620002788f8690620004ba565b51169c6200028691620004ba565b5116908b865287528585209088825416179055620002a491620004ba565b51169287825260069052209182541617905560078c52818d8c83822092620002cc91620004ba565b5190528c528c208d8a825416179055620002e7908a620004ba565b51908b5260088a528d8b20556000198e1462000308579c8a019c8a6200023e565b634e487b7160e01b8a52601160045260248afd5b62000244565b634e487b7160e01b88526032600452602488fd5b634e487b7160e01b88526041600452602488fd5b62461bcd60e51b815260048101879052601960248201527f4163636f756e7420697320616c726561647920706175736572000000000000006044820152606490fd5b825181529181019186910162000115565b600080fd5b815188811681036200039d5781529084019084016200008b565b6040519190601f01601f191682016001600160401b03811183821017620003e257604052565b634e487b7160e01b600052604160045260246000fd5b6001600160401b038111620003e25760051b60200190565b9080601f830112156200039d578151906200042f6200006483620003f8565b9182938184526020808095019260051b8201019283116200039d578301905b8282106200045d575050505090565b81516001600160a01b03811681036200039d5781529083019083016200044e565b156200048657565b60405162461bcd60e51b815260206004820152600c60248201526b0d8cadc40dad2e6dac2e8c6d60a31b6044820152606490fd5b8051821015620004cf5760209160051b010190565b634e487b7160e01b600052603260045260246000fdfe608080604052600436101561001357600080fd5b60003560e01c9081631019b616146111ad57508063158535ff1461117c578063387025321461112e5780633f4ba83a1461102657806346fbf68e14610cdc578063479aa6da14610d6c5780634f4fef181461100857806358a16b4414610fea5780635c975abb14610fc45780635ca32bd814610f04578063677625f214610da75780636ae3e08014610d6c5780636b2c0f5514610d355780636ef8d66d14610d1b57806380f51c1214610cdc5780638195408d14610c9857806382dc1ec414610c615780638456cb5914610b425780638da5cb5b14610b1b57806397c7c309146105355780639c8413c514610470578063a036e79914610420578063afe8154b146103dc578063e6c6fcec1461038c578063e79b7a5114610335578063ec64842e146102eb578063f2fde38b14610200578063fabc74f5146101a45763fd1190ea1461015e57600080fd5b3461019f57602036600319011261019f5760043560045481101561019f576001600160a01b0361018f60209261125a565b9190546040519260031b1c168152f35b600080fd5b3461019f57602036600319011261019f576001600160a01b036101c5611291565b16600052600360205260ff6040600020541660405160038210156101ea576020918152f35b634e487b7160e01b600052602160045260246000fd5b3461019f57602036600319011261019f57610219611291565b600054906001600160a01b038083169161023433841461138c565b169182156102805773ffffffffffffffffffffffffffffffffffffffff19839116176000557f8be0079c531659141344cd1fd0a4f28419497f9722a3daafe3b4186f6b6457e0600080a3005b60405162461bcd60e51b815260206004820152602660248201527f4f776e61626c653a206e6577206f776e657220697320746865207a65726f206160448201527f64647265737300000000000000000000000000000000000000000000000000006064820152608490fd5b3461019f57602036600319011261019f576001600160a01b0361030c611291565b16600052600360205260ff6040600020541660038110156101ea57602090600160405191148152f35b3461019f57610343366112fb565b6001600160a01b039061035b8260005416331461138c565b60005b815181101561038a57806103808461037961038594866113fc565b5116611634565b6113d7565b61035e565b005b3461019f5761039a366112fb565b6001600160a01b03906103b28260005416331461138c565b60005b815181101561038a5780610380846103d06103d794866113fc565b511661145c565b6103b5565b3461019f57602036600319011261019f5767ffffffffffffffff6103fe6111f6565b16600052600560205260206001600160a01b0360406000205416604051908152f35b3461019f5761042e366112fb565b6001600160a01b03906104468260005416331461138c565b60005b815181101561038a57806103808461046461046b94866113fc565b511661171a565b610449565b3461019f57604036600319011261019f577fb78ea0eaf11776732556ef6189312ceb60eab6b3177526b3a12d966e37be81626104aa6111f6565b6104b26112a7565b906001600160a01b036104ca8160005416331461138c565b67ffffffffffffffff82166000526006602052604060002090831673ffffffffffffffffffffffffffffffffffffffff19825416179055610530604051928392839092916001600160a01b0360209167ffffffffffffffff604085019616845216910152565b0390a1005b3461019f5761022036600319011261019f5761054f6111f6565b61020036602319011261019f576040519060e0820182811067ffffffffffffffff82111761092357604052602435825260443567ffffffffffffffff8116810361019f576020830152606435604083015260843560608301523660c3121561019f57604051610100810181811067ffffffffffffffff82111761092357604052806101a49136831161019f5760a4905b838210610b0b5750506080840152366101c3121561019f5760405190610604826112bd565b8190366101e41161019f57905b6101e48210610afb57505060a083015236610203121561019f57604051610637816112bd565b80366102241161019f576101e4905b6102248210610aeb57505060c083015233600052600360205260ff6040600020541660038110156101ea57600103610aa65760608201511561097e575b67ffffffffffffffff8116600052600860205260406000205460066020526001600160a01b0360406000205416801561093957604051918261012081011067ffffffffffffffff610120850111176109235761012083016040526101203684378060801c83526fffffffffffffffffffffffffffffffff8091166020840152845160801c6040840152808551166060840152604085015160801c60808401528060408601511660a084015267ffffffffffffffff60208601511660c0840152606085015160801c60e0840152606085015116610100830152608084015160a08501519260c0860151604051948593633072c1a360e11b8552600485016000905b6008821061090957505050906107a16107ac926101048601906118d8565b6101448401906118d8565b600061018483015b600982106108ef575050506102a4816020935afa9081156108e3576000916108a8575b5015610863577fe8e2da79405f6328030a49e89981740387fc8c731042ec804a6461e796ec6f0b9167ffffffffffffffff8281606094166000526007602052604060002083516000526020526040600020600160ff19825416179055825182821660005260086020526040600020558160208451940151166040519384526020840152166040820152a1005b60405162461bcd60e51b815260206004820152601060248201527f696e76616c6964207a6b2070726f6f66000000000000000000000000000000006044820152606490fd5b90506020813d6020116108db575b816108c3602093836112d9565b8101031261019f5751801515810361019f57836107d7565b3d91506108b6565b6040513d6000823e3d90fd5b8293506020809160019394518152019301910184926107b4565b825181528896506020928301926001929092019101610783565b634e487b7160e01b600052604160045260246000fd5b60405162461bcd60e51b815260206004820152601760248201527f6e6f20766572696669657220666f7220636861696e49640000000000000000006044820152606490fd5b67ffffffffffffffff811660005260056020526001600160a01b03604060002054168015610a6157602067ffffffffffffffff818501511660246040518094819363f25b3f9960e01b835260048301525afa9081156108e357600091610a2f575b506040830151146106835760405162461bcd60e51b815260206004820152601360248201527f616e63686f7220636865636b206661696c6564000000000000000000000000006044820152606490fd5b90506020813d602011610a59575b81610a4a602093836112d9565b8101031261019f5751836109df565b3d9150610a3d565b60405162461bcd60e51b815260206004820152601760248201527f756e6b6e6f776e20616e63686f722070726f76696465720000000000000000006044820152606490fd5b60405162461bcd60e51b815260206004820152600e60248201527f696e76616c69642070726f7665720000000000000000000000000000000000006044820152606490fd5b8135815260209182019101610646565b8135815260209182019101610611565b81358152602091820191016105df565b3461019f57600036600319011261019f5760206001600160a01b0360005416604051908152f35b3461019f57600036600319011261019f57336000526001602090808252610b7060ff60406000205416611410565b60005460ff8160a01c16610c1c5760ff60a01b19740100000000000000000000000000000000000000009116176000557f62e78cea01bee320cd4e420270b5ea74000d11b0c9f74754ebdbfc544b05a25882604051338152a16000815b610bd357005b60045481101561038a57806001600160a01b03610bf2610c169361125a565b919054600392831b1c1660005284526040600020600260ff198254161790556113d7565b81610bcd565b60405162461bcd60e51b815260048101849052601060248201527f5061757361626c653a20706175736564000000000000000000000000000000006044820152606490fd5b3461019f57602036600319011261019f5761038a610c7d611291565b610c936001600160a01b0360005416331461138c565b611634565b3461019f57602036600319011261019f5767ffffffffffffffff610cba6111f6565b16600052600660205260206001600160a01b0360406000205416604051908152f35b3461019f57602036600319011261019f576001600160a01b03610cfd611291565b166000526001602052602060ff604060002054166040519015158152f35b3461019f57600036600319011261019f5761038a3361171a565b3461019f57602036600319011261019f5761038a610d51611291565b610d676001600160a01b0360005416331461138c565b61171a565b3461019f57602036600319011261019f5767ffffffffffffffff610d8e6111f6565b1660005260086020526020604060002054604051908152f35b3461019f57610db5366112fb565b600054906001600160a01b0391610dcf338483161461138c565b60ff9060a01c811615610efc576002925b60005b835181101561038a5781610df782866113fc565b51169081600052600360208181528560406000205416828110156101ea57610eb857600454680100000000000000008110156109235784610e41826001610e61940160045561125a565b90919082549060031b916001600160a01b03809116831b921b1916179055565b836000528181526040600020918810156101ea57610eb3937fef1fa0a4d797341645c201a742cf59be633da0589e0e3cda511cfc90cd0396849260ff19815416888b16179055604051908152a16113d7565b610de3565b6064906040519062461bcd60e51b82526004820152601160248201527f6163636f756e742069732070726f7665720000000000000000000000000000006044820152fd5b600192610de0565b3461019f57604036600319011261019f577fd621c244f07f12e1f37bb9c40d61e278041fc4f2859a6736794b26f4297c8090610f3e6111f6565b610f466112a7565b906001600160a01b03610f5e8160005416331461138c565b67ffffffffffffffff82166000526005602052604060002090831673ffffffffffffffffffffffffffffffffffffffff19825416179055610530604051928392839092916001600160a01b0360209167ffffffffffffffff604085019616845216910152565b3461019f57600036600319011261019f57602060ff60005460a01c166040519015158152f35b3461019f57600036600319011261019f576020600254604051908152f35b3461019f57600036600319011261019f576020600454604051908152f35b3461019f57600036600319011261019f5733600052600160209080825261105460ff60406000205416611410565b60005460ff8160a01c16156110e95760ff60a01b19166000557f5db9ee0a495bf2e6ff9c91a7834c1ba4fdd244a5e8aa4e537bd38aeae4b073aa82604051338152a16000815b6110a057005b60045481101561038a576110e3816001600160a01b036110c0859461125a565b919054600392831b1c16600052855260406000208360ff198254161790556113d7565b9061109a565b60405162461bcd60e51b815260048101849052601460248201527f5061757361626c653a206e6f74207061757365640000000000000000000000006044820152606490fd5b3461019f57604036600319011261019f5767ffffffffffffffff6111506111f6565b1660005260076020526040600020602435600052602052602060ff604060002054166040519015158152f35b3461019f57602036600319011261019f5760043560025481101561019f576001600160a01b0361018f60209261120d565b3461019f57604036600319011261019f5760209067ffffffffffffffff6111d26111f6565b16600052600782526040600020602435600052825260ff6040600020541615158152f35b6004359067ffffffffffffffff8216820361019f57565b6002548110156112445760026000527f405787fa12a823e0f2b7631cc41b3ba8828b3321ca811111fa75cd3aa3bb5ace0190600090565b634e487b7160e01b600052603260045260246000fd5b6004548110156112445760046000527f8a35acfbc15ff81a39ae7d344fd709f28e8600b4aa8c65c6b64bfe7fe36bd19b0190600090565b600435906001600160a01b038216820361019f57565b602435906001600160a01b038216820361019f57565b6040810190811067ffffffffffffffff82111761092357604052565b90601f8019910116810190811067ffffffffffffffff82111761092357604052565b60208060031983011261019f5767ffffffffffffffff9160043583811161019f578160238201121561019f578060040135938411610923578360051b9060405194611348858401876112d9565b855260248486019282010192831161019f57602401905b82821061136d575050505090565b81356001600160a01b038116810361019f57815290830190830161135f565b1561139357565b606460405162461bcd60e51b815260206004820152602060248201527f4f776e61626c653a2063616c6c6572206973206e6f7420746865206f776e65726044820152fd5b60001981146113e65760010190565b634e487b7160e01b600052601160045260246000fd5b80518210156112445760209160051b010190565b1561141757565b60405162461bcd60e51b815260206004820152601460248201527f43616c6c6572206973206e6f74207061757365720000000000000000000000006044820152606490fd5b6001600160a01b0380911691600083815260039360209185835260409060ff82822054168781101561162057156115dc57600496875496600019908189019889116115c957835b8a548110156115865786826114b78361125a565b905490871b1c16146114d1576114cc906113d7565b6114a3565b909192939495969798808210611561575b5050508754801561154e5797849392917fd64d11086d859b73cf85a91ca06cbc484398acabe3d9a1b26d4366dff377d985989901906115386115238361125a565b6001600160a01b0382549160031b1b19169055565b55848252855220805460ff1916905551908152a1565b634e487b7160e01b845260318952602484fd5b61157e92611571610e419261125a565b905490871b1c169161125a565b3880806114e2565b855162461bcd60e51b8152808c01899052601060248201527f70726f766572206e6f7420666f756e64000000000000000000000000000000006044820152606490fd5b634e487b7160e01b845260118a52602484fd5b815162461bcd60e51b815260048101859052601560248201527f6163636f756e74206973206e6f742070726f76657200000000000000000000006044820152606490fd5b634e487b7160e01b82526021600452602482fd5b6001600160a01b03811690600090828252600160205260ff6040832054166116d557600254680100000000000000008110156116c1576020926116a57f6719d08c1888103bea251a4ed56406bd0c3e69723c8a1686e017e7bbe159b6f89593610e418460016040960160025561120d565b8281526001845220600160ff19825416179055604051908152a1565b634e487b7160e01b83526041600452602483fd5b60405162461bcd60e51b815260206004820152601960248201527f4163636f756e7420697320616c726561647920706175736572000000000000006044820152606490fd5b6001600160a01b038091169060009282845260019060209382855260409360ff858820541615611894576002805490916000199182810190811161188057908695949392918a975b6117ab575b885162461bcd60e51b8152600481018b9052601060248201527f706175736572206e6f7420666f756e64000000000000000000000000000000006044820152606490fd5b8399989799548a10156118775781856117c38c61120d565b929054600393841b1c16146117ec57506117e38798999a979596976113d7565b97969594611762565b9293949796959991818310611852575b505050508154801561183e57918493917fcd265ebaf09df2871cc7bd4133404a235ba12eff2041bb89d9c714a2621c7c7e98999301906115386115238361120d565b634e487b7160e01b89526031600452602489fd5b61186e93611862610e419361120d565b9054911b1c169161120d565b388080806117fc565b87989950611767565b634e487b7160e01b8a52601160045260248afd5b845162461bcd60e51b815260048101879052601560248201527f4163636f756e74206973206e6f742070617573657200000000000000000000006044820152606490fd5b6000915b600283106118e957505050565b6001908251815260208091019201920191906118dc56fea2646970667358221220e3f116c200434e8a15c4bc5276270af0f97fed087f09921e4bf284ab8bf776ba64736f6c63430008140033",
  "devdoc": {
    "events": {
      "Paused(address)": {
        "details": "Emitted when the pause is triggered by `account`."
      },
      "Unpaused(address)": {
        "details": "Emitted when the pause is lifted by `account`."
      }
    },
    "kind": "dev",
    "methods": {
      "owner()": {
        "details": "Returns the address of the current owner."
      },
      "paused()": {
        "details": "Returns true if the contract is paused, and false otherwise."
      },
      "transferOwnership(address)": {
        "details": "Transfers ownership of the contract to a new account (`newOwner`). Can only be called by the current owner."
      }
    },
    "version": 1
  },
  "userdoc": {
    "kind": "user",
    "methods": {},
    "version": 1
  },
  "storageLayout": {
    "storage": [
      {
        "astId": 492,
        "contract": "contracts/smt/SMT.sol:SMT",
        "label": "_owner",
        "offset": 0,
        "slot": "0",
        "type": "t_address"
      },
      {
        "astId": 17,
        "contract": "contracts/smt/SMT.sol:SMT",
        "label": "_paused",
        "offset": 20,
        "slot": "0",
        "type": "t_bool"
      },
      {
        "astId": 606,
        "contract": "contracts/smt/SMT.sol:SMT",
        "label": "pausers",
        "offset": 0,
        "slot": "1",
        "type": "t_mapping(t_address,t_bool)"
      },
      {
        "astId": 609,
        "contract": "contracts/smt/SMT.sol:SMT",
        "label": "pauserList",
        "offset": 0,
        "slot": "2",
        "type": "t_array(t_address)dyn_storage"
      },
      {
        "astId": 179,
        "contract": "contracts/smt/SMT.sol:SMT",
        "label": "proverStates",
        "offset": 0,
        "slot": "3",
        "type": "t_mapping(t_address,t_enum(ProverState)174)"
      },
      {
        "astId": 182,
        "contract": "contracts/smt/SMT.sol:SMT",
        "label": "provers",
        "offset": 0,
        "slot": "4",
        "type": "t_array(t_address)dyn_storage"
      },
      {
        "astId": 904,
        "contract": "contracts/smt/SMT.sol:SMT",
        "label": "anchorProviders",
        "offset": 0,
        "slot": "5",
        "type": "t_mapping(t_uint64,t_contract(IAnchorBlocks)165)"
      },
      {
        "astId": 909,
        "contract": "contracts/smt/SMT.sol:SMT",
        "label": "verifiers",
        "offset": 0,
        "slot": "6",
        "type": "t_mapping(t_uint64,t_contract(IVerifier)1434)"
      },
      {
        "astId": 915,
        "contract": "contracts/smt/SMT.sol:SMT",
        "label": "smtRoots",
        "offset": 0,
        "slot": "7",
        "type": "t_mapping(t_uint64,t_mapping(t_bytes32,t_bool))"
      },
      {
        "astId": 919,
        "contract": "contracts/smt/SMT.sol:SMT",
        "label": "latestRoots",
        "offset": 0,
        "slot": "8",
        "type": "t_mapping(t_uint64,t_bytes32)"
      }
    ],
    "types": {
      "t_address": {
        "encoding": "inplace",
        "label": "address",
        "numberOfBytes": "20"
      },
      "t_array(t_address)dyn_storage": {
        "base": "t_address",
        "encoding": "dynamic_array",
        "label": "address[]",
        "numberOfBytes": "32"
      },
      "t_bool": {
        "encoding": "inplace",
        "label": "bool",
        "numberOfBytes": "1"
      },
      "t_bytes32": {
        "encoding": "inplace",
        "label": "bytes32",
        "numberOfBytes": "32"
      },
      "t_contract(IAnchorBlocks)165": {
        "encoding": "inplace",
        "label": "contract IAnchorBlocks",
        "numberOfBytes": "20"
      },
      "t_contract(IVerifier)1434": {
        "encoding": "inplace",
        "label": "contract IVerifier",
        "numberOfBytes": "20"
      },
      "t_enum(ProverState)174": {
        "encoding": "inplace",
        "label": "enum BrevisAccess.ProverState",
        "numberOfBytes": "1"
      },
      "t_mapping(t_address,t_bool)": {
        "encoding": "mapping",
        "key": "t_address",
        "label": "mapping(address => bool)",
        "numberOfBytes": "32",
        "value": "t_bool"
      },
      "t_mapping(t_address,t_enum(ProverState)174)": {
        "encoding": "mapping",
        "key": "t_address",
        "label": "mapping(address => enum BrevisAccess.ProverState)",
        "numberOfBytes": "32",
        "value": "t_enum(ProverState)174"
      },
      "t_mapping(t_bytes32,t_bool)": {
        "encoding": "mapping",
        "key": "t_bytes32",
        "label": "mapping(bytes32 => bool)",
        "numberOfBytes": "32",
        "value": "t_bool"
      },
      "t_mapping(t_uint64,t_bytes32)": {
        "encoding": "mapping",
        "key": "t_uint64",
        "label": "mapping(uint64 => bytes32)",
        "numberOfBytes": "32",
        "value": "t_bytes32"
      },
      "t_mapping(t_uint64,t_contract(IAnchorBlocks)165)": {
        "encoding": "mapping",
        "key": "t_uint64",
        "label": "mapping(uint64 => contract IAnchorBlocks)",
        "numberOfBytes": "32",
        "value": "t_contract(IAnchorBlocks)165"
      },
      "t_mapping(t_uint64,t_contract(IVerifier)1434)": {
        "encoding": "mapping",
        "key": "t_uint64",
        "label": "mapping(uint64 => contract IVerifier)",
        "numberOfBytes": "32",
        "value": "t_contract(IVerifier)1434"
      },
      "t_mapping(t_uint64,t_mapping(t_bytes32,t_bool))": {
        "encoding": "mapping",
        "key": "t_uint64",
        "label": "mapping(uint64 => mapping(bytes32 => bool))",
        "numberOfBytes": "32",
        "value": "t_mapping(t_bytes32,t_bool)"
      },
      "t_uint64": {
        "encoding": "inplace",
        "label": "uint64",
        "numberOfBytes": "8"
      }
    }
  }
}