{
  "address": "0x0c89365BaC13Eeb8AdB131f213275eDFd6555544",
  "abi": [
    {
      "inputs": [
        {
          "internalType": "address",
          "name": "_feeCollector",
          "type": "address"
        },
        {
          "internalType": "contract IBrevisProof",
          "name": "_brevisProof",
          "type": "address"
        }
      ],
      "stateMutability": "nonpayable",
      "type": "constructor"
    },
    {
      "anonymous": false,
      "inputs": [
        {
          "indexed": false,
          "internalType": "address",
          "name": "from",
          "type": "address"
        },
        {
          "indexed": false,
          "internalType": "address",
          "name": "to",
          "type": "address"
        }
      ],
      "name": "FeeCollectorUpdated",
      "type": "event"
    },
    {
      "anonymous": false,
      "inputs": [
        {
          "indexed": true,
          "internalType": "address",
          "name": "previousOwner",
          "type": "address"
        },
        {
          "indexed": true,
          "internalType": "address",
          "name": "newOwner",
          "type": "address"
        }
      ],
      "name": "OwnershipTransferred",
      "type": "event"
    },
    {
      "anonymous": false,
      "inputs": [
        {
          "indexed": false,
          "internalType": "bytes32",
          "name": "requestId",
          "type": "bytes32"
        }
      ],
      "name": "RequestFulfilled",
      "type": "event"
    },
    {
      "anonymous": false,
      "inputs": [
        {
          "indexed": false,
          "internalType": "bytes32",
          "name": "requestId",
          "type": "bytes32"
        },
        {
          "indexed": false,
          "internalType": "address",
          "name": "sender",
          "type": "address"
        },
        {
          "indexed": false,
          "internalType": "uint256",
          "name": "fee",
          "type": "uint256"
        },
        {
          "indexed": false,
          "internalType": "address",
          "name": "callback",
          "type": "address"
        }
      ],
      "name": "RequestSent",
      "type": "event"
    },
    {
      "anonymous": false,
      "inputs": [
        {
          "indexed": false,
          "internalType": "uint256",
          "name": "from",
          "type": "uint256"
        },
        {
          "indexed": false,
          "internalType": "uint256",
          "name": "to",
          "type": "uint256"
        }
      ],
      "name": "RequestTimeoutUpdated",
      "type": "event"
    },
    {
      "anonymous": false,
      "inputs": [
        {
          "indexed": false,
          "internalType": "bytes32[]",
          "name": "requestId",
          "type": "bytes32[]"
        }
      ],
      "name": "RequestsFulfilled",
      "type": "event"
    },
    {
      "inputs": [],
      "name": "brevisProof",
      "outputs": [
        {
          "internalType": "contract IBrevisProof",
          "name": "",
          "type": "address"
        }
      ],
      "stateMutability": "view",
      "type": "function"
    },
    {
      "inputs": [
        {
          "internalType": "uint256",
          "name": "_amount",
          "type": "uint256"
        },
        {
          "internalType": "address",
          "name": "_to",
          "type": "address"
        }
      ],
      "name": "collectFee",
      "outputs": [],
      "stateMutability": "nonpayable",
      "type": "function"
    },
    {
      "inputs": [],
      "name": "feeCollector",
      "outputs": [
        {
          "internalType": "address",
          "name": "",
          "type": "address"
        }
      ],
      "stateMutability": "view",
      "type": "function"
    },
    {
      "inputs": [
        {
          "internalType": "uint64",
          "name": "_chainId",
          "type": "uint64"
        },
        {
          "internalType": "bytes32[]",
          "name": "_requestIds",
          "type": "bytes32[]"
        },
        {
          "internalType": "bytes",
          "name": "_proof",
          "type": "bytes"
        },
        {
          "components": [
            {
              "internalType": "bytes32",
              "name": "commitHash",
              "type": "bytes32"
            },
            {
              "internalType": "bytes32",
              "name": "vkHash",
              "type": "bytes32"
            },
            {
              "internalType": "bytes32",
              "name": "appCommitHash",
              "type": "bytes32"
            },
            {
              "internalType": "bytes32",
              "name": "appVkHash",
              "type": "bytes32"
            },
            {
              "internalType": "bytes32",
              "name": "smtRoot",
              "type": "bytes32"
            }
          ],
          "internalType": "struct Brevis.ProofData[]",
          "name": "_proofDataArray",
          "type": "tuple[]"
        },
        {
          "internalType": "bytes[]",
          "name": "_appCircuitOutputs",
          "type": "bytes[]"
        },
        {
          "internalType": "address",
          "name": "_callback",
          "type": "address"
        }
      ],
      "name": "fulfillAggRequests",
      "outputs": [],
      "stateMutability": "nonpayable",
      "type": "function"
    },
    {
      "inputs": [
        {
          "internalType": "bytes32",
          "name": "_requestId",
          "type": "bytes32"
        },
        {
          "internalType": "uint64",
          "name": "_chainId",
          "type": "uint64"
        },
        {
          "internalType": "bytes",
          "name": "_proof",
          "type": "bytes"
        },
        {
          "internalType": "bool",
          "name": "_withAppProof",
          "type": "bool"
        },
        {
          "internalType": "bytes",
          "name": "_appCircuitOutput",
          "type": "bytes"
        }
      ],
      "name": "fulfillRequest",
      "outputs": [],
      "stateMutability": "nonpayable",
      "type": "function"
    },
    {
      "inputs": [],
      "name": "owner",
      "outputs": [
        {
          "internalType": "address",
          "name": "",
          "type": "address"
        }
      ],
      "stateMutability": "view",
      "type": "function"
    },
    {
      "inputs": [
        {
          "internalType": "bytes32",
          "name": "_requestId",
          "type": "bytes32"
        }
      ],
      "name": "queryRequestStatus",
      "outputs": [
        {
          "internalType": "enum BrevisRequest.RequestStatus",
          "name": "",
          "type": "uint8"
        }
      ],
      "stateMutability": "view",
      "type": "function"
    },
    {
      "inputs": [
        {
          "internalType": "bytes32",
          "name": "_requestId",
          "type": "bytes32"
        }
      ],
      "name": "refund",
      "outputs": [],
      "stateMutability": "nonpayable",
      "type": "function"
    },
    {
      "inputs": [],
      "name": "renounceOwnership",
      "outputs": [],
      "stateMutability": "nonpayable",
      "type": "function"
    },
    {
      "inputs": [],
      "name": "requestTimeout",
      "outputs": [
        {
          "internalType": "uint256",
          "name": "",
          "type": "uint256"
        }
      ],
      "stateMutability": "view",
      "type": "function"
    },
    {
      "inputs": [
        {
          "internalType": "bytes32",
          "name": "",
          "type": "bytes32"
        }
      ],
      "name": "requests",
      "outputs": [
        {
          "internalType": "uint256",
          "name": "deadline",
          "type": "uint256"
        },
        {
          "internalType": "uint256",
          "name": "fee",
          "type": "uint256"
        },
        {
          "internalType": "address",
          "name": "refundee",
          "type": "address"
        },
        {
          "internalType": "address",
          "name": "callback",
          "type": "address"
        },
        {
          "internalType": "enum BrevisRequest.RequestStatus",
          "name": "status",
          "type": "uint8"
        }
      ],
      "stateMutability": "view",
      "type": "function"
    },
    {
      "inputs": [
        {
          "internalType": "bytes32",
          "name": "_requestId",
          "type": "bytes32"
        },
        {
          "internalType": "address",
          "name": "_refundee",
          "type": "address"
        },
        {
          "internalType": "address",
          "name": "_callback",
          "type": "address"
        }
      ],
      "name": "sendRequest",
      "outputs": [],
      "stateMutability": "payable",
      "type": "function"
    },
    {
      "inputs": [
        {
          "internalType": "address",
          "name": "_feeCollector",
          "type": "address"
        }
      ],
      "name": "setFeeCollector",
      "outputs": [],
      "stateMutability": "nonpayable",
      "type": "function"
    },
    {
      "inputs": [
        {
          "internalType": "uint256",
          "name": "_timeout",
          "type": "uint256"
        }
      ],
      "name": "setRequestTimeout",
      "outputs": [],
      "stateMutability": "nonpayable",
      "type": "function"
    },
    {
      "inputs": [
        {
          "internalType": "address",
          "name": "newOwner",
          "type": "address"
        }
      ],
      "name": "transferOwnership",
      "outputs": [],
      "stateMutability": "nonpayable",
      "type": "function"
    },
    {
      "stateMutability": "payable",
      "type": "receive"
    }
  ],
  "transactionHash": "0xc69179c2b77f96f8426da355e0f2d4416cb4f00c29eee15907c7a596b3ce8a45",
  "args": [
    "0x58b529F9084D7eAA598EB3477Fe36064C5B7bbC1",
    "0x320039A33Bf6D30f1FcF26A87f975eCDC7c15caA"
  ],
  "numDeployments": 1,
  "solcInputHash": "e761fd2a407d066fafc38525fd4fa046",
  "bytecode": "0x6080346100c057601f6111d238819003918201601f19168301916001600160401b038311848410176100c55780849260409485528339810103126100c05780516001600160a01b0391828216918290036100c05760200151908282168092036100c0576000549060018060a01b0319913383821617600055604051943391167f8be0079c531659141344cd1fd0a4f28419497f9722a3daafe3b4186f6b6457e0600080a381600154161760015560035416176003556110f690816100dc8239f35b600080fd5b634e487b7160e01b600052604160045260246000fdfe608080604052600436101561001d575b50361561001b57600080fd5b005b600090813560e01c9081633f20b4c914610e2057508063622b6af414610dbd5780636a96173514610b50578063715018a614610af35780637249fbb61461099a5780637ff7b0d2146109085780638da5cb5b146108e25780639d86698514610878578063a42dce80146107ff578063b6979c3e146107c5578063c415b95c1461079e578063c7f5aaa014610777578063da47dc321461056c578063ecdafd46146101ae5763f2fde38b0361000f57346101ab5760203660031901126101ab576100e4610e85565b6001600160a01b0380916100fc828554163314610eef565b1690811561014057600054826001600160a01b0319821617600055167f8be0079c531659141344cd1fd0a4f28419497f9722a3daafe3b4186f6b6457e0600080a380f35b60405162461bcd60e51b815260206004820152602660248201527f4f776e61626c653a206e6577206f776e657220697320746865207a65726f206160448201527f64647265737300000000000000000000000000000000000000000000000000006064820152608490fd5b80fd5b50346101ab5760c03660031901126101ab5760043567ffffffffffffffff81168103610560578160243567ffffffffffffffff8111610560576101f5903690600401610ebe565b919060443567ffffffffffffffff811161055c57610217903690600401610e3c565b939067ffffffffffffffff60643511610568573660236064350112156105685767ffffffffffffffff60643560040135116105685736602460a060643560040135026064350101116105685760843567ffffffffffffffff811161056457610283903690600401610ebe565b9490956001600160a01b0360a4351660a43503610560576001600160a01b0360035416803b1561055c57604051633ab58d6f60e21b815267ffffffffffffffff8a166004820152606060248201529384928391859183916102fe916102ec606485018c8e611037565b84810360031901604486015291610fd6565b03925af1801561055157610521575b5060015b8160ff8216106104cf5750907fc9f9dbb4a40f26672580c28841452a59f824f5c0053e412183cfec77e76570ef91610356604051928392602084526020840191611037565b0390a16001600160a01b0360a4351661036d578380f35b83916040519363ed1fe83b60e01b602086015267ffffffffffffffff60848601911660248601526060604486015260643560040135905260a4840191602460643501845b60643560040135811061048e575050602319858403016064860152808352602083019060208160051b850101938386915b838310610421575050505050509161040481839403601f198101835282610f3a565b6020815191018260a4355af150610419610ff7565b503880808380f35b9193959092949650601f198282030186528635601e198436030181121561048a578301906020823592019167ffffffffffffffff8111610486578036038313610486576104746020928392600195610fd6565b980196019301909188969594926103e2565b8a80fd5b8980fd5b813585526020808301359086015260408083013590860152606080830135908601526080808301359086015287955060a094850194909101906001016103b1565b611fe08160051b168301358752600460205260036040882001600160a01b60ff60a01b1982541617905560ff80911690811461050d57600101610311565b634e487b7160e01b87526011600452602487fd5b67ffffffffffffffff819792971161053d57604052943861030d565b634e487b7160e01b82526041600452602482fd5b6040513d89823e3d90fd5b8280fd5b5080fd5b8480fd5b8380fd5b5060603660031901126101ab57600435610584610e6f565b604435906001600160a01b03808316809303610564578385526020916004835260408620546107325781169081156106ed5760025442019081421161050d576040519160a0830183811067ffffffffffffffff8211176106d957604052825260038483019234845260408101948552606081019487865260808201948a8652898b526004885260408b209251835551600183015583600283019151166001600160a01b0319825416179055019251168254915160038110156106c5579160809593917fffffffffffffffffffffff00000000000000000000000000000000000000000074ff00000000000000000000000000000000000000007f4eede03ca33645529b4d82428b024149165298c901cf7453f68eb43bd3d3b65899979560a01b1692161717905560405192835233908301523460408301526060820152a180f35b634e487b7160e01b88526021600452602488fd5b634e487b7160e01b89526041600452602489fd5b60405162461bcd60e51b815260048101849052601560248201527f726566756e646565206e6f742070726f766964656400000000000000000000006044820152606490fd5b60405162461bcd60e51b815260048101849052601860248201527f7265717565737420616c726561647920696e20717565756500000000000000006044820152606490fd5b50346101ab57806003193601126101ab5760206001600160a01b0360035416604051908152f35b50346101ab57806003193601126101ab5760206001600160a01b0360015416604051908152f35b50346101ab5760203660031901126101ab5760ff6003604060209360043581526004855220015460a01c166107fd6040518092610e9b565bf35b50346101ab5760203660031901126101ab577f5d16ad41baeb009cd23eb8f6c7cde5c2e0cd5acf4a33926ab488875c37c37f38604061083c610e85565b6001600160a01b03610852818654163314610eef565b80600154921690816001600160a01b03198416176001558351921682526020820152a180f35b50346101ab5760203660031901126101ab57604060a09160043581526004602052206107fd8154916001810154906001600160a01b039060038260028301541691015492604051958652602086015260408501528116606084015260ff6080840191851c16610e9b565b50346101ab57806003193601126101ab576001600160a01b036020915416604051908152f35b50346101ab5760403660031901126101ab57610922610e6f565b6001600160a01b036001541633036109555781808080610952946004359061c350f161094c610ff7565b50611074565b80f35b60405162461bcd60e51b815260206004820152601160248201527f6e6f742066656520636f6c6c6563746f720000000000000000000000000000006044820152606490fd5b50346101ab576020806003193601126105605760043580835260048252604083205442111561055c576001600160a01b036024838260035416604051928380926371e8f36b60e11b82528760048301525afa8015610ae857610a04918691610abb575b5015610f8a565b81845260048352604084205415610a765790610a478480808060049796868252888852600160408320918383556002830154169101549061c350f161094c610ff7565b835252600360408220017402000000000000000000000000000000000000000060ff60a01b1982541617905580f35b60405162461bcd60e51b815260048101849052601460248201527f72657175657374206e6f7420696e2071756575650000000000000000000000006044820152606490fd5b610adb9150853d8711610ae1575b610ad38183610f3a565b810190610f72565b386109fd565b503d610ac9565b6040513d87823e3d90fd5b50346101ab57806003193601126101ab578080546001600160a01b03196001600160a01b03821691610b26338414610eef565b1682557f8be0079c531659141344cd1fd0a4f28419497f9722a3daafe3b4186f6b6457e08280a380f35b50346101ab5760a03660031901126101ab576004359060243567ffffffffffffffff9283821680920361055c5760443584811161056857610b95903690600401610e3c565b60649291923595861515809703610d8557608435908111610d8557610bbe903690600401610e3c565b9390946001600160a01b0392836003541691604051996371e8f36b60e11b8b528660048c015260209a8b81602481885afa908115610db25792610c3c969492610c128d938f98968591610d9b575015610f8a565b60405197889687958694630979240d60e21b86526004860152606060248601526064850191610fd6565b90604483015203925af1908115610d90578691610d5f575b508203610d1a579484958286526004825260036040872001600160a01b60ff60a01b198254161790557f85e1543bf2f84fe80c6badbce3648c8539ad1df4d2b3d822938ca0538be727e682604051858152a1828652600482526003604087200154169283610cc0578580f35b610d02869592610cf48794604051948593840197633ceb5b5160e11b89526024850152604060448501526064840191610fd6565b03601f198101835282610f3a565b51925af150610d0f610ff7565b508038808080808580f35b60405162461bcd60e51b815260048101879052601d60248201527f72657175657374496420616e642070726f6f66206e6f74206d617463680000006044820152606490fd5b90508681813d8311610d89575b610d768183610f3a565b81010312610d85575138610c54565b8580fd5b503d610d6c565b6040513d88823e3d90fd5b610adb9150893d8b11610ae157610ad38183610f3a565b6040513d8d823e3d90fd5b50346101ab5760203660031901126101ab577f87a73c061f18ffd513249d1d727921e40e348948b01e2979efb36ef4f5204a636040600435610e0a6001600160a01b038554163314610eef565b600254908060025582519182526020820152a180f35b9050346105605781600319360112610560576020906002548152f35b9181601f84011215610e6a5782359167ffffffffffffffff8311610e6a5760208381860195010111610e6a57565b600080fd5b602435906001600160a01b0382168203610e6a57565b600435906001600160a01b0382168203610e6a57565b906003821015610ea85752565b634e487b7160e01b600052602160045260246000fd5b9181601f84011215610e6a5782359167ffffffffffffffff8311610e6a576020808501948460051b010111610e6a57565b15610ef657565b606460405162461bcd60e51b815260206004820152602060248201527f4f776e61626c653a2063616c6c6572206973206e6f7420746865206f776e65726044820152fd5b90601f8019910116810190811067ffffffffffffffff821117610f5c57604052565b634e487b7160e01b600052604160045260246000fd5b90816020910312610e6a57518015158103610e6a5790565b15610f9157565b60405162461bcd60e51b815260206004820152601760248201527f70726f6f6620616c72656164792067656e6572617465640000000000000000006044820152606490fd5b908060209392818452848401376000828201840152601f01601f1916010190565b3d15611032573d9067ffffffffffffffff8211610f5c5760405191611026601f8201601f191660200184610f3a565b82523d6000602084013e565b606090565b90918281527f07ffffffffffffffffffffffffffffffffffffffffffffffffffffffffffffff8311610e6a5760209260051b809284830137010190565b1561107b57565b60405162461bcd60e51b815260206004820152601260248201527f73656e64206e6174697665206661696c656400000000000000000000000000006044820152606490fdfea26469706673582212209dd077b9c3be4587b2cf81bdb247c5c2c397f419c207eaef633fccca042b659764736f6c63430008140033",
  "devdoc": {
    "kind": "dev",
    "methods": {
      "owner()": {
        "details": "Returns the address of the current owner."
      },
      "renounceOwnership()": {
        "details": "Leaves the contract without owner. It will not be possible to call `onlyOwner` functions anymore. Can only be called by the current owner. NOTE: Renouncing ownership will leave the contract without an owner, thereby removing any functionality that is only available to the owner."
      },
      "transferOwnership(address)": {
        "details": "Transfers ownership of the contract to a new account (`newOwner`). Can only be called by the current owner."
      }
    },
    "version": 1
  },
  "userdoc": {
    "kind": "user",
    "methods": {},
    "version": 1
  },
  "storageLayout": {
    "storage": [
      {
        "astId": 7,
        "contract": "contracts/sdk/core/BrevisRequest.sol:BrevisRequest",
        "label": "_owner",
        "offset": 0,
        "slot": "0",
        "type": "t_address"
      },
      {
        "astId": 5651,
        "contract": "contracts/sdk/core/BrevisRequest.sol:BrevisRequest",
        "label": "feeCollector",
        "offset": 0,
        "slot": "1",
        "type": "t_address"
      },
      {
        "astId": 5242,
        "contract": "contracts/sdk/core/BrevisRequest.sol:BrevisRequest",
        "label": "requestTimeout",
        "offset": 0,
        "slot": "2",
        "type": "t_uint256"
      },
      {
        "astId": 5245,
        "contract": "contracts/sdk/core/BrevisRequest.sol:BrevisRequest",
        "label": "brevisProof",
        "offset": 0,
        "slot": "3",
        "type": "t_contract(IBrevisProof)5836"
      },
      {
        "astId": 5266,
        "contract": "contracts/sdk/core/BrevisRequest.sol:BrevisRequest",
        "label": "requests",
        "offset": 0,
        "slot": "4",
        "type": "t_mapping(t_bytes32,t_struct(Request)5261_storage)"
      }
    ],
    "types": {
      "t_address": {
        "encoding": "inplace",
        "label": "address",
        "numberOfBytes": "20"
      },
      "t_bytes32": {
        "encoding": "inplace",
        "label": "bytes32",
        "numberOfBytes": "32"
      },
      "t_contract(IBrevisProof)5836": {
        "encoding": "inplace",
        "label": "contract IBrevisProof",
        "numberOfBytes": "20"
      },
      "t_enum(RequestStatus)5249": {
        "encoding": "inplace",
        "label": "enum BrevisRequest.RequestStatus",
        "numberOfBytes": "1"
      },
      "t_mapping(t_bytes32,t_struct(Request)5261_storage)": {
        "encoding": "mapping",
        "key": "t_bytes32",
        "label": "mapping(bytes32 => struct BrevisRequest.Request)",
        "numberOfBytes": "32",
        "value": "t_struct(Request)5261_storage"
      },
      "t_struct(Request)5261_storage": {
        "encoding": "inplace",
        "label": "struct BrevisRequest.Request",
        "members": [
          {
            "astId": 5251,
            "contract": "contracts/sdk/core/BrevisRequest.sol:BrevisRequest",
            "label": "deadline",
            "offset": 0,
            "slot": "0",
            "type": "t_uint256"
          },
          {
            "astId": 5253,
            "contract": "contracts/sdk/core/BrevisRequest.sol:BrevisRequest",
            "label": "fee",
            "offset": 0,
            "slot": "1",
            "type": "t_uint256"
          },
          {
            "astId": 5255,
            "contract": "contracts/sdk/core/BrevisRequest.sol:BrevisRequest",
            "label": "refundee",
            "offset": 0,
            "slot": "2",
            "type": "t_address"
          },
          {
            "astId": 5257,
            "contract": "contracts/sdk/core/BrevisRequest.sol:BrevisRequest",
            "label": "callback",
            "offset": 0,
            "slot": "3",
            "type": "t_address"
          },
          {
            "astId": 5260,
            "contract": "contracts/sdk/core/BrevisRequest.sol:BrevisRequest",
            "label": "status",
            "offset": 20,
            "slot": "3",
            "type": "t_enum(RequestStatus)5249"
          }
        ],
        "numberOfBytes": "128"
      },
      "t_uint256": {
        "encoding": "inplace",
        "label": "uint256",
        "numberOfBytes": "32"
      }
    }
  }
}