{
  "address": "0x3463B37908cc3034c635f17f5A8012577cFC2663",
  "abi": [
    {
      "inputs": [
        {
          "internalType": "address",
          "name": "_feeCollector",
          "type": "address"
        },
        {
          "internalType": "contract IBrevisProof",
          "name": "_brevisProof",
          "type": "address"
        }
      ],
      "stateMutability": "nonpayable",
      "type": "constructor"
    },
    {
      "anonymous": false,
      "inputs": [
        {
          "indexed": false,
          "internalType": "uint256",
          "name": "amount",
          "type": "uint256"
        },
        {
          "indexed": false,
          "internalType": "address",
          "name": "receiver",
          "type": "address"
        }
      ],
      "name": "FeeCollected",
      "type": "event"
    },
    {
      "anonymous": false,
      "inputs": [
        {
          "indexed": false,
          "internalType": "address",
          "name": "from",
          "type": "address"
        },
        {
          "indexed": false,
          "internalType": "address",
          "name": "to",
          "type": "address"
        }
      ],
      "name": "FeeCollectorUpdated",
      "type": "event"
    },
    {
      "anonymous": false,
      "inputs": [
        {
          "indexed": true,
          "internalType": "address",
          "name": "previousOwner",
          "type": "address"
        },
        {
          "indexed": true,
          "internalType": "address",
          "name": "newOwner",
          "type": "address"
        }
      ],
      "name": "OwnershipTransferred",
      "type": "event"
    },
    {
      "anonymous": false,
      "inputs": [
        {
          "indexed": false,
          "internalType": "address",
          "name": "account",
          "type": "address"
        }
      ],
      "name": "Paused",
      "type": "event"
    },
    {
      "anonymous": false,
      "inputs": [
        {
          "indexed": false,
          "internalType": "address",
          "name": "account",
          "type": "address"
        }
      ],
      "name": "PauserAdded",
      "type": "event"
    },
    {
      "anonymous": false,
      "inputs": [
        {
          "indexed": false,
          "internalType": "address",
          "name": "account",
          "type": "address"
        }
      ],
      "name": "PauserRemoved",
      "type": "event"
    },
    {
      "anonymous": false,
      "inputs": [
        {
          "indexed": false,
          "internalType": "address",
          "name": "account",
          "type": "address"
        }
      ],
      "name": "ProverAdded",
      "type": "event"
    },
    {
      "anonymous": false,
      "inputs": [
        {
          "indexed": false,
          "internalType": "address",
          "name": "account",
          "type": "address"
        }
      ],
      "name": "ProverRemoved",
      "type": "event"
    },
    {
      "anonymous": false,
      "inputs": [
        {
          "indexed": false,
          "internalType": "bytes32",
          "name": "requestId",
          "type": "bytes32"
        }
      ],
      "name": "RequestCallbackFailed",
      "type": "event"
    },
    {
      "anonymous": false,
      "inputs": [
        {
          "indexed": false,
          "internalType": "bytes32",
          "name": "requestId",
          "type": "bytes32"
        }
      ],
      "name": "RequestFulfilled",
      "type": "event"
    },
    {
      "anonymous": false,
      "inputs": [
        {
          "indexed": false,
          "internalType": "bytes32",
          "name": "requestId",
          "type": "bytes32"
        }
      ],
      "name": "RequestRefunded",
      "type": "event"
    },
    {
      "anonymous": false,
      "inputs": [
        {
          "indexed": false,
          "internalType": "bytes32",
          "name": "requestId",
          "type": "bytes32"
        },
        {
          "indexed": false,
          "internalType": "address",
          "name": "sender",
          "type": "address"
        },
        {
          "indexed": false,
          "internalType": "uint256",
          "name": "fee",
          "type": "uint256"
        },
        {
          "indexed": false,
          "internalType": "address",
          "name": "callback",
          "type": "address"
        }
      ],
      "name": "RequestSent",
      "type": "event"
    },
    {
      "anonymous": false,
      "inputs": [
        {
          "indexed": false,
          "internalType": "uint256",
          "name": "from",
          "type": "uint256"
        },
        {
          "indexed": false,
          "internalType": "uint256",
          "name": "to",
          "type": "uint256"
        }
      ],
      "name": "RequestTimeoutUpdated",
      "type": "event"
    },
    {
      "anonymous": false,
      "inputs": [
        {
          "indexed": false,
          "internalType": "bytes32[]",
          "name": "requestIds",
          "type": "bytes32[]"
        }
      ],
      "name": "RequestsCallbackFailed",
      "type": "event"
    },
    {
      "anonymous": false,
      "inputs": [
        {
          "indexed": false,
          "internalType": "bytes32[]",
          "name": "requestId",
          "type": "bytes32[]"
        }
      ],
      "name": "RequestsFulfilled",
      "type": "event"
    },
    {
      "anonymous": false,
      "inputs": [
        {
          "indexed": false,
          "internalType": "address",
          "name": "account",
          "type": "address"
        }
      ],
      "name": "Unpaused",
      "type": "event"
    },
    {
      "inputs": [
        {
          "internalType": "address",
          "name": "account",
          "type": "address"
        }
      ],
      "name": "addPauser",
      "outputs": [],
      "stateMutability": "nonpayable",
      "type": "function"
    },
    {
      "inputs": [
        {
          "internalType": "address[]",
          "name": "accounts",
          "type": "address[]"
        }
      ],
      "name": "addPausers",
      "outputs": [],
      "stateMutability": "nonpayable",
      "type": "function"
    },
    {
      "inputs": [
        {
          "internalType": "address[]",
          "name": "_accounts",
          "type": "address[]"
        }
      ],
      "name": "addProvers",
      "outputs": [],
      "stateMutability": "nonpayable",
      "type": "function"
    },
    {
      "inputs": [],
      "name": "brevisProof",
      "outputs": [
        {
          "internalType": "contract IBrevisProof",
          "name": "",
          "type": "address"
        }
      ],
      "stateMutability": "view",
      "type": "function"
    },
    {
      "inputs": [
        {
          "internalType": "uint256",
          "name": "_amount",
          "type": "uint256"
        },
        {
          "internalType": "address",
          "name": "_to",
          "type": "address"
        }
      ],
      "name": "collectFee",
      "outputs": [],
      "stateMutability": "nonpayable",
      "type": "function"
    },
    {
      "inputs": [],
      "name": "feeCollector",
      "outputs": [
        {
          "internalType": "address",
          "name": "",
          "type": "address"
        }
      ],
      "stateMutability": "view",
      "type": "function"
    },
    {
      "inputs": [
        {
          "internalType": "uint64",
          "name": "_chainId",
          "type": "uint64"
        },
        {
          "internalType": "bytes32[]",
          "name": "_requestIds",
          "type": "bytes32[]"
        },
        {
          "internalType": "bytes",
          "name": "_proof",
          "type": "bytes"
        },
        {
          "components": [
            {
              "internalType": "bytes32",
              "name": "commitHash",
              "type": "bytes32"
            },
            {
              "internalType": "bytes32",
              "name": "vkHash",
              "type": "bytes32"
            },
            {
              "internalType": "bytes32",
              "name": "appCommitHash",
              "type": "bytes32"
            },
            {
              "internalType": "bytes32",
              "name": "appVkHash",
              "type": "bytes32"
            },
            {
              "internalType": "bytes32",
              "name": "smtRoot",
              "type": "bytes32"
            }
          ],
          "internalType": "struct Brevis.ProofData[]",
          "name": "_proofDataArray",
          "type": "tuple[]"
        },
        {
          "internalType": "bytes[]",
          "name": "_appCircuitOutputs",
          "type": "bytes[]"
        },
        {
          "internalType": "address",
          "name": "_callback",
          "type": "address"
        }
      ],
      "name": "fulfillAggRequests",
      "outputs": [],
      "stateMutability": "nonpayable",
      "type": "function"
    },
    {
      "inputs": [
        {
          "internalType": "bytes32",
          "name": "_requestId",
          "type": "bytes32"
        },
        {
          "internalType": "uint64",
          "name": "_chainId",
          "type": "uint64"
        },
        {
          "internalType": "bytes",
          "name": "_proof",
          "type": "bytes"
        },
        {
          "internalType": "bool",
          "name": "_withAppProof",
          "type": "bool"
        },
        {
          "internalType": "bytes",
          "name": "_appCircuitOutput",
          "type": "bytes"
        }
      ],
      "name": "fulfillRequest",
      "outputs": [],
      "stateMutability": "nonpayable",
      "type": "function"
    },
    {
      "inputs": [
        {
          "internalType": "address",
          "name": "_account",
          "type": "address"
        }
      ],
      "name": "isActiveProver",
      "outputs": [
        {
          "internalType": "bool",
          "name": "",
          "type": "bool"
        }
      ],
      "stateMutability": "view",
      "type": "function"
    },
    {
      "inputs": [
        {
          "internalType": "address",
          "name": "account",
          "type": "address"
        }
      ],
      "name": "isPauser",
      "outputs": [
        {
          "internalType": "bool",
          "name": "",
          "type": "bool"
        }
      ],
      "stateMutability": "view",
      "type": "function"
    },
    {
      "inputs": [],
      "name": "numPausers",
      "outputs": [
        {
          "internalType": "uint256",
          "name": "",
          "type": "uint256"
        }
      ],
      "stateMutability": "view",
      "type": "function"
    },
    {
      "inputs": [],
      "name": "numProvers",
      "outputs": [
        {
          "internalType": "uint256",
          "name": "",
          "type": "uint256"
        }
      ],
      "stateMutability": "view",
      "type": "function"
    },
    {
      "inputs": [],
      "name": "owner",
      "outputs": [
        {
          "internalType": "address",
          "name": "",
          "type": "address"
        }
      ],
      "stateMutability": "view",
      "type": "function"
    },
    {
      "inputs": [],
      "name": "pause",
      "outputs": [],
      "stateMutability": "nonpayable",
      "type": "function"
    },
    {
      "inputs": [],
      "name": "paused",
      "outputs": [
        {
          "internalType": "bool",
          "name": "",
          "type": "bool"
        }
      ],
      "stateMutability": "view",
      "type": "function"
    },
    {
      "inputs": [
        {
          "internalType": "uint256",
          "name": "",
          "type": "uint256"
        }
      ],
      "name": "pauserList",
      "outputs": [
        {
          "internalType": "address",
          "name": "",
          "type": "address"
        }
      ],
      "stateMutability": "view",
      "type": "function"
    },
    {
      "inputs": [
        {
          "internalType": "address",
          "name": "",
          "type": "address"
        }
      ],
      "name": "pausers",
      "outputs": [
        {
          "internalType": "bool",
          "name": "",
          "type": "bool"
        }
      ],
      "stateMutability": "view",
      "type": "function"
    },
    {
      "inputs": [
        {
          "internalType": "address",
          "name": "",
          "type": "address"
        }
      ],
      "name": "proverStates",
      "outputs": [
        {
          "internalType": "enum BrevisAccess.ProverState",
          "name": "",
          "type": "uint8"
        }
      ],
      "stateMutability": "view",
      "type": "function"
    },
    {
      "inputs": [
        {
          "internalType": "uint256",
          "name": "",
          "type": "uint256"
        }
      ],
      "name": "provers",
      "outputs": [
        {
          "internalType": "address",
          "name": "",
          "type": "address"
        }
      ],
      "stateMutability": "view",
      "type": "function"
    },
    {
      "inputs": [
        {
          "internalType": "bytes32",
          "name": "_requestId",
          "type": "bytes32"
        }
      ],
      "name": "queryRequestStatus",
      "outputs": [
        {
          "internalType": "enum IBrevisRequest.RequestStatus",
          "name": "",
          "type": "uint8"
        }
      ],
      "stateMutability": "view",
      "type": "function"
    },
    {
      "inputs": [
        {
          "internalType": "bytes32",
          "name": "_requestId",
          "type": "bytes32"
        }
      ],
      "name": "refund",
      "outputs": [],
      "stateMutability": "nonpayable",
      "type": "function"
    },
    {
      "inputs": [
        {
          "internalType": "address",
          "name": "account",
          "type": "address"
        }
      ],
      "name": "removePauser",
      "outputs": [],
      "stateMutability": "nonpayable",
      "type": "function"
    },
    {
      "inputs": [
        {
          "internalType": "address[]",
          "name": "accounts",
          "type": "address[]"
        }
      ],
      "name": "removePausers",
      "outputs": [],
      "stateMutability": "nonpayable",
      "type": "function"
    },
    {
      "inputs": [
        {
          "internalType": "address[]",
          "name": "_accounts",
          "type": "address[]"
        }
      ],
      "name": "removeProvers",
      "outputs": [],
      "stateMutability": "nonpayable",
      "type": "function"
    },
    {
      "inputs": [],
      "name": "renouncePauser",
      "outputs": [],
      "stateMutability": "nonpayable",
      "type": "function"
    },
    {
      "inputs": [],
      "name": "requestTimeout",
      "outputs": [
        {
          "internalType": "uint256",
          "name": "",
          "type": "uint256"
        }
      ],
      "stateMutability": "view",
      "type": "function"
    },
    {
      "inputs": [
        {
          "internalType": "bytes32",
          "name": "",
          "type": "bytes32"
        }
      ],
      "name": "requests",
      "outputs": [
        {
          "internalType": "uint256",
          "name": "deadline",
          "type": "uint256"
        },
        {
          "internalType": "uint256",
          "name": "fee",
          "type": "uint256"
        },
        {
          "internalType": "address",
          "name": "refundee",
          "type": "address"
        },
        {
          "internalType": "address",
          "name": "callback",
          "type": "address"
        },
        {
          "internalType": "enum IBrevisRequest.RequestStatus",
          "name": "status",
          "type": "uint8"
        }
      ],
      "stateMutability": "view",
      "type": "function"
    },
    {
      "inputs": [
        {
          "internalType": "bytes32",
          "name": "_requestId",
          "type": "bytes32"
        },
        {
          "internalType": "address",
          "name": "_refundee",
          "type": "address"
        },
        {
          "internalType": "address",
          "name": "_callback",
          "type": "address"
        }
      ],
      "name": "sendRequest",
      "outputs": [],
      "stateMutability": "payable",
      "type": "function"
    },
    {
      "inputs": [
        {
          "internalType": "address",
          "name": "_feeCollector",
          "type": "address"
        }
      ],
      "name": "setFeeCollector",
      "outputs": [],
      "stateMutability": "nonpayable",
      "type": "function"
    },
    {
      "inputs": [
        {
          "internalType": "uint256",
          "name": "_timeout",
          "type": "uint256"
        }
      ],
      "name": "setRequestTimeout",
      "outputs": [],
      "stateMutability": "nonpayable",
      "type": "function"
    },
    {
      "inputs": [
        {
          "internalType": "address",
          "name": "newOwner",
          "type": "address"
        }
      ],
      "name": "transferOwnership",
      "outputs": [],
      "stateMutability": "nonpayable",
      "type": "function"
    },
    {
      "inputs": [],
      "name": "unpause",
      "outputs": [],
      "stateMutability": "nonpayable",
      "type": "function"
    },
    {
      "stateMutability": "payable",
      "type": "receive"
    }
  ],
  "transactionHash": "0x7217480f8953941961534caf9ece27d24ebe0af58da3e7194f728a3d079ba3d7",
  "args": [
    "0x58b529F9084D7eAA598EB3477Fe36064C5B7bbC1",
    "0x2294E22000dEFe09A307363f7aCD8aAa1fBc1983"
  ],
  "numDeployments": 2,
  "solcInputHash": "da2f849834ca7f3d2532f8e471af9670",
  "bytecode": "0x608034620001c8576200213b90601f38839003908101601f19168201906001600160401b03821183831017620001cd5780839160409586948552833981010312620001c85780516001600160a01b039182821691829003620001c85760208091015192808416809403620001c85760009081549360018060a01b031994338682161784558751923391167f8be0079c531659141344cd1fd0a4f28419497f9722a3daafe3b4186f6b6457e08580a3600180546001600160a81b031916919091179055338252600283528582205460ff1662000186575060035468010000000000000000811015620001725760018101806003558110156200015e5781869160037f6719d08c1888103bea251a4ed56406bd0c3e69723c8a1686e017e7bbe159b6f89594528382200133868254161790553381526002835220600160ff198254161790558451338152a1600754161760075551611f579081620001e48239f35b634e487b7160e01b82526032600452602482fd5b634e487b7160e01b82526041600452602482fd5b62461bcd60e51b815260048101839052601960248201527f4163636f756e7420697320616c726561647920706175736572000000000000006044820152606490fd5b600080fd5b634e487b7160e01b600052604160045260246000fdfe6080604052600436101561001b575b361561001957600080fd5b005b6000803560e01c8063158535ff146116345780633f20b4c9146116165780633f4ba83a1461152c57806346fbf68e14610d535780634f4fef181461150e57806358a16b44146114f05780635c975abb146114ca578063622b6af414611467578063677625f2146112da5780636a9617351461102a5780636b2c0f5514610ff35780636ef8d66d14610fd95780637249fbb614610e555780637ff7b0d214610d9057806380f51c1214610d5357806382dc1ec414610d195780638456cb5914610c0a5780638da5cb5b14610be45780639d86698514610b76578063a036e79914610b26578063a42dce8014610aa0578063b6979c3e14610a68578063c415b95c14610a41578063c7f5aaa014610a1a578063da47dc3214610809578063e6c6fcec146107b9578063e79b7a5114610760578063ec64842e14610719578063ecdafd46146102f9578063f2fde38b14610210578063fabc74f5146101cc5763fd1190ea14610187575061000e565b346101c95760203660031901126101c957600435906005548210156101c95760206001600160a01b036101b9846116c4565b9190546040519260031b1c168152f35b80fd5b50346101c95760203660031901126101c95760ff60406020926001600160a01b036101f56116fb565b168152600484522054166040519061020c81611823565b8152f35b50346101c95760203660031901126101c95761022a6116fb565b8154906001600160a01b0380831691610244338414611874565b1691821561028e5773ffffffffffffffffffffffffffffffffffffffff1916821783557f8be0079c531659141344cd1fd0a4f28419497f9722a3daafe3b4186f6b6457e08380a380f35b60405162461bcd60e51b815260206004820152602660248201527f4f776e61626c653a206e6577206f776e657220697320746865207a65726f206160448201527f64647265737300000000000000000000000000000000000000000000000000006064820152608490fd5b50346101c95760c03660031901126101c95760043567ffffffffffffffff811681036107155760243567ffffffffffffffff81116107115761033f903690600401611843565b918360443567ffffffffffffffff8111610715576103619036906004016117f5565b919067ffffffffffffffff60643511610715573660236064350112156107155767ffffffffffffffff60643560040135116107155736602460a060643560040135026064350101116107155760843567ffffffffffffffff8111610711576103cd903690600401611843565b9290936001600160a01b0360a4351660a43503610715573382526004602052610408600160ff60408520541661040281611823565b14611d87565b6001600160a01b0360075416803b156107115767ffffffffffffffff838861046d8b978d9661045b6040519a8b998a988997633ab58d6f60e21b8952166004880152606060248801526064870191611e98565b84810360031901604486015291611e37565b03925af18015610706576106d6575b5060015b8560ff82161061068357507fc9f9dbb4a40f26672580c28841452a59f824f5c0053e412183cfec77e76570ef60405160208152806104c2602082018989611e98565b0390a16001600160a01b0360a435166104d9578580f35b85916040519363ed1fe83b60e01b602086015267ffffffffffffffff60848601911660248601526060604486015260643560040135905260a4840191602460643501845b606435600401358110610642575050602319858403016064860152808352602083019060208160051b850101938386915b8383106105d5575050505050509161057081839403601f19810183528261172c565b6020815191018260a4355af1610584611e58565b5015610592575b8080808580f35b7fa27ac73d985dc053bec967c59a530feb90be0582343095d7b85ec7e7c3fef208916105cb604051928392602084526020840191611e98565b0390a1388061058b565b9193959092949650601f198282030186528635601e198436030181121561063e578301906020823592019167ffffffffffffffff811161063a57803603831361063a576106286020928392600195611e37565b98019601930190918a9695949261054e565b8c80fd5b8b80fd5b813585526020808301359086015260408083013590860152606080830135908601526080808301359086015289955060a0948501949091019060010161051d565b611fe08160051b168501358752600860205260036040882001600160a01b60ff60a01b1982541617905560ff808216146106c25760ff16600101610480565b634e487b7160e01b87526011600452602487fd5b67ffffffffffffffff81979297116106f257604052943861047c565b634e487b7160e01b82526041600452602482fd5b6040513d89823e3d90fd5b8280fd5b5080fd5b50346101c95760203660031901126101c95760ff60406020926001600160a01b036107426116fb565b1681526004845220541661075581611823565b600160405191148152f35b50346101c95761076f36611764565b906001600160a01b0391610787838354163314611874565b815b81518110156107b557806107ab856107a46107b094866118e4565b5116611b0d565b6118bf565b610789565b8280f35b50346101c9576107c836611764565b906001600160a01b03916107e0838354163314611874565b815b81518110156107b557806107ab856107fd61080494866118e4565b5116611944565b6107e2565b5060603660031901126101c957600435610821611716565b604435906001600160a01b03808316809303610a16578385526020916008835260408620546109d157811690811561098c576006544201908142116106c2576040519160a0830183811067ffffffffffffffff82111761097857917f4eede03ca33645529b4d82428b024149165298c901cf7453f68eb43bd3d3b6589795939160809795936040528252600384830192348452604081019485526060810194878652898201948c8652898d526008885260408d2092518355516001830155836002830191511673ffffffffffffffffffffffffffffffffffffffff19825416179055019251167fffffffffffffffffffffff00000000000000000000000000000000000000000074ff00000000000000000000000000000000000000008454935161094b81611823565b61095481611823565b60a01b1692161717905560405192835233908301523460408301526060820152a180f35b634e487b7160e01b89526041600452602489fd5b60405162461bcd60e51b815260048101849052601560248201527f726566756e646565206e6f742070726f766964656400000000000000000000006044820152606490fd5b60405162461bcd60e51b815260048101849052601860248201527f7265717565737420616c726561647920696e20717565756500000000000000006044820152606490fd5b8480fd5b50346101c957806003193601126101c95760206001600160a01b0360075416604051908152f35b50346101c957806003193601126101c95760206001600160a01b0360015416604051908152f35b50346101c95760203660031901126101c95760ff6003604060209360043581526008855220015460a01c166040519061020c81611823565b50346101c95760203660031901126101c9577f5d16ad41baeb009cd23eb8f6c7cde5c2e0cd5acf4a33926ab488875c37c37f386040610add6116fb565b6001600160a01b03610af3818654163314611874565b806001549216908173ffffffffffffffffffffffffffffffffffffffff198416176001558351921682526020820152a180f35b50346101c957610b3536611764565b906001600160a01b0391610b4d838354163314611874565b815b81518110156107b557806107ab85610b6a610b7194866118e4565b5116611bf3565b610b4f565b50346101c95760203660031901126101c957604060a09160043581526008602052208054906001810154906001600160a01b03906003826002830154169101549060ff82871c169360405195865260208601526040850152166060830152610bdd81611823565b6080820152f35b50346101c957806003193601126101c9576001600160a01b036020915416604051908152f35b50346101c957806003193601126101c9573381526002602090808252610c3660ff6040852054166118f8565b600191825460ff8160a01c16610cd45760ff60a01b19600160a01b91161783557f62e78cea01bee320cd4e420270b5ea74000d11b0c9f74754ebdbfc544b05a25881604051338152a183835b610c8a578480f35b600554811015610cd057806001600160a01b03610ca9610cca936116c4565b90549060031b1c16865260048352604086208460ff198254161790556118bf565b83610c82565b8480f35b60405162461bcd60e51b815260048101839052601060248201527f5061757361626c653a20706175736564000000000000000000000000000000006044820152606490fd5b50346101c95760203660031901126101c957610d50610d366116fb565b610d4b6001600160a01b038454163314611874565b611b0d565b80f35b50346101c95760203660031901126101c95760ff60406020926001600160a01b03610d7c6116fb565b168152600284522054166040519015158152f35b50346101c95760403660031901126101c957600435610dad611716565b6001600160a01b039182600154163303610e10577ff10cda68996dfb656d49ab0db3c62cc5f0849710633671a337171c3ad92551869282610e01868080808760409961c350f1610dfb611e58565b50611ed5565b8351928352166020820152a180f35b60405162461bcd60e51b815260206004820152601160248201527f6e6f742066656520636f6c6c6563746f720000000000000000000000000000006044820152606490fd5b50346101c95760208060031936011261071557600435808352600882526040832054421115610711576001600160a01b036024838260075416604051928380926371e8f36b60e11b82528760048301525afa8015610fce57610ebf918691610fa1575b5015611deb565b81845260088352604084205415610f5c5790610f22848080807ffea410cb461deba9fe807dde02d6641d82e1bf09ecc88ecfa0f2ffadf2a1fdfe979686825260088852600160408320918383556002830154169101549061c350f1610dfb611e58565b80845260088252600360408520017402000000000000000000000000000000000000000060ff60a01b19825416179055604051908152a180f35b60405162461bcd60e51b815260048101849052601460248201527f72657175657374206e6f7420696e2071756575650000000000000000000000006044820152606490fd5b610fc19150853d8711610fc7575b610fb9818361172c565b810190611dd3565b38610eb8565b503d610faf565b6040513d87823e3d90fd5b50346101c957806003193601126101c957610d5033611bf3565b50346101c95760203660031901126101c957610d506110106116fb565b6110256001600160a01b038454163314611874565b611bf3565b50346101c95760a03660031901126101c95760043560243567ffffffffffffffff8082168092036112d657604435818111610a165761106d9036906004016117f5565b606493919335928315158094036112a9576084359081116112a9576110969036906004016117f5565b929093338852602095600487526110b9600160ff60408c20541661040281611823565b6001600160a01b03938460075416908a604051956371e8f36b60e11b87528b60048801528a87602481875afa9586156112cb576111028c9761112c9985916112b4575015611deb565b60405197889687958694630979240d60e21b86526004860152606060248601526064850191611e37565b90604483015203925af1908115610706578791611283575b50850361123e57908592918584526008855260036040852001600160a01b60ff60a01b198254161790557f85e1543bf2f84fe80c6badbce3648c8539ad1df4d2b3d822938ca0538be727e685604051888152a18584526008855260036040852001541690816111b1578380f35b836111e56111f382956040519283918a830196633ceb5b5160e11b88528c6024850152604060448501526064840191611e37565b03601f19810183528261172c565b51925af16111ff611e58565b501561120e575b828180808380f35b7ff9e9ac125efc63eaa0638c58fd8a1ab11673bae30202f01909611e4ebdbe9b4e91604051908152a13880611206565b60405162461bcd60e51b815260048101859052601d60248201527f72657175657374496420616e642070726f6f66206e6f74206d617463680000006044820152606490fd5b90508481813d83116112ad575b61129a818361172c565b810103126112a9575138611144565b8680fd5b503d611290565b610fc19150893d8b11610fc757610fb9818361172c565b6040513d84823e3d90fd5b8380fd5b50346101c9576112e936611764565b6001600160a01b036112ff818454163314611874565b60ff91600192839281845460a01c1660001461145d576002929594955b85965b611327578580f35b8051871015611459578161133b88836118e4565b5116808752602090600482528460408920541661135781611823565b611414576005805490680100000000000000008210156114005792826113cd8a9b9c946113ad856113f9988e7fef1fa0a4d797341645c201a742cf59be633da0589e0e3cda511cfc90cd039684980190556116c4565b90919082549060031b916001600160a01b03809116831b921b1916179055565b808c526004825260408c206113e18a611823565b60ff19815416898b16179055604051908152a16118bf565b969561131f565b634e487b7160e01b8a52604160045260248afd5b60405162461bcd60e51b815260048101839052601160248201527f6163636f756e742069732070726f7665720000000000000000000000000000006044820152606490fd5b8580f35b839295949561131c565b50346101c95760203660031901126101c9577f87a73c061f18ffd513249d1d727921e40e348948b01e2979efb36ef4f5204a6360406004356114b46001600160a01b038554163314611874565b600654908060065582519182526020820152a180f35b50346101c957806003193601126101c957602060ff60015460a01c166040519015158152f35b50346101c957806003193601126101c9576020600354604051908152f35b50346101c957806003193601126101c9576020600554604051908152f35b50346101c957806003193601126101c95733815260206002815261155660ff6040842054166118f8565b600190815460ff8160a01c16156115d1579060ff60a01b1983921682557f5db9ee0a495bf2e6ff9c91a7834c1ba4fdd244a5e8aa4e537bd38aeae4b073aa81604051338152a183915b6115a7578380f35b6005548210156115cd576115c7826001600160a01b03610ca986956116c4565b9161159f565b8380f35b60405162461bcd60e51b815260048101839052601460248201527f5061757361626c653a206e6f74207061757365640000000000000000000000006044820152606490fd5b50346101c957806003193601126101c9576020600654604051908152f35b50346101c95760203660031901126101c957600435906003548210156101c95760206001600160a01b0361166784611677565b90549060031b1c16604051908152f35b6003548110156116ae5760036000527fc2575a0e9e593c00f959f8c92f12db2869c3395a3b0502d05e2516446f71f85b0190600090565b634e487b7160e01b600052603260045260246000fd5b6005548110156116ae5760056000527f036b6384b5eca791c62761152d0c79bb0604c104a5fb6f4eb0703f3154bb3db00190600090565b600435906001600160a01b038216820361171157565b600080fd5b602435906001600160a01b038216820361171157565b90601f8019910116810190811067ffffffffffffffff82111761174e57604052565b634e487b7160e01b600052604160045260246000fd5b6020806003198301126117115767ffffffffffffffff91600435838111611711578160238201121561171157806004013593841161174e578360051b90604051946117b18584018761172c565b855260248486019282010192831161171157602401905b8282106117d6575050505090565b81356001600160a01b03811681036117115781529083019083016117c8565b9181601f840112156117115782359167ffffffffffffffff8311611711576020838186019501011161171157565b6003111561182d57565b634e487b7160e01b600052602160045260246000fd5b9181601f840112156117115782359167ffffffffffffffff8311611711576020808501948460051b01011161171157565b1561187b57565b606460405162461bcd60e51b815260206004820152602060248201527f4f776e61626c653a2063616c6c6572206973206e6f7420746865206f776e65726044820152fd5b60001981146118ce5760010190565b634e487b7160e01b600052601160045260246000fd5b80518210156116ae5760209160051b010190565b156118ff57565b60405162461bcd60e51b815260206004820152601460248201527f43616c6c6572206973206e6f74207061757365720000000000000000000000006044820152606490fd5b6001600160a01b0380911691600083815260049360209185835260409060ff828220541661197181611823565b15611aca57600580546000198082019890918911611ab757835b8354811015611a7457818761199f836116c4565b929054600393841b1c16146119bd57506119b8906118bf565b61198b565b92939495969798999091818310611a4f575b5050505081548015611a3c57917fd64d11086d859b73cf85a91ca06cbc484398acabe3d9a1b26d4366dff377d9859798918594930190611a26611a11836116c4565b6001600160a01b0382549160031b1b19169055565b55848252855220805460ff1916905551908152a1565b634e487b7160e01b845260318952602484fd5b611a6b93611a5f6113ad936116c4565b9054911b1c16916116c4565b388080806119cf565b855162461bcd60e51b8152808c01899052601060248201527f70726f766572206e6f7420666f756e64000000000000000000000000000000006044820152606490fd5b634e487b7160e01b845260118a52602484fd5b815162461bcd60e51b8152808801859052601560248201527f6163636f756e74206973206e6f742070726f76657200000000000000000000006044820152606490fd5b6001600160a01b03811690600090828252600260205260ff604083205416611bae5760035468010000000000000000811015611b9a57602092611b7e7f6719d08c1888103bea251a4ed56406bd0c3e69723c8a1686e017e7bbe159b6f895936113ad84600160409601600355611677565b8281526002845220805460ff19166001179055604051908152a1565b634e487b7160e01b83526041600452602483fd5b60405162461bcd60e51b815260206004820152601960248201527f4163636f756e7420697320616c726561647920706175736572000000000000006044820152606490fd5b6001600160a01b038091169160009280845260029060209180835260409060ff828820541615611d4357600380546000198082019890918911611d2f57895b8354811015611ceb578682611c4683611677565b905490871b1c1614611c6057611c5b906118bf565b611c32565b909192939495969798808210611cc6575b50505081548015611cb257918493917fcd265ebaf09df2871cc7bd4133404a235ba12eff2041bb89d9c714a2621c7c7e9899930190611a26611a1183611677565b634e487b7160e01b89526031600452602489fd5b611ce392611cd66113ad92611677565b905490871b1c1691611677565b388080611c71565b855162461bcd60e51b815260048101899052601060248201527f706175736572206e6f7420666f756e64000000000000000000000000000000006044820152606490fd5b634e487b7160e01b8a52601160045260248afd5b815162461bcd60e51b815260048101859052601560248201527f4163636f756e74206973206e6f742070617573657200000000000000000000006044820152606490fd5b15611d8e57565b60405162461bcd60e51b815260206004820152600e60248201527f696e76616c69642070726f7665720000000000000000000000000000000000006044820152606490fd5b90816020910312611711575180151581036117115790565b15611df257565b60405162461bcd60e51b815260206004820152601760248201527f70726f6f6620616c72656164792067656e6572617465640000000000000000006044820152606490fd5b908060209392818452848401376000828201840152601f01601f1916010190565b3d15611e93573d9067ffffffffffffffff821161174e5760405191611e87601f8201601f19166020018461172c565b82523d6000602084013e565b606090565b90918281527f07ffffffffffffffffffffffffffffffffffffffffffffffffffffffffffffff83116117115760209260051b809284830137010190565b15611edc57565b60405162461bcd60e51b815260206004820152601260248201527f73656e64206e6174697665206661696c656400000000000000000000000000006044820152606490fdfea2646970667358221220cb83371e4bb2cab2b0e264d087b92078b9f5b7d9f693e1eec474f2a7597f0ca864736f6c63430008140033",
  "devdoc": {
    "events": {
      "Paused(address)": {
        "details": "Emitted when the pause is triggered by `account`."
      },
      "Unpaused(address)": {
        "details": "Emitted when the pause is lifted by `account`."
      }
    },
    "kind": "dev",
    "methods": {
      "owner()": {
        "details": "Returns the address of the current owner."
      },
      "paused()": {
        "details": "Returns true if the contract is paused, and false otherwise."
      },
      "transferOwnership(address)": {
        "details": "Transfers ownership of the contract to a new account (`newOwner`). Can only be called by the current owner."
      }
    },
    "version": 1
  },
  "userdoc": {
    "kind": "user",
    "methods": {},
    "version": 1
  },
  "storageLayout": {
    "storage": [
      {
        "astId": 14983,
        "contract": "contracts/sdk/core/BrevisRequest.sol:BrevisRequest",
        "label": "_owner",
        "offset": 0,
        "slot": "0",
        "type": "t_address"
      },
      {
        "astId": 19193,
        "contract": "contracts/sdk/core/BrevisRequest.sol:BrevisRequest",
        "label": "feeCollector",
        "offset": 0,
        "slot": "1",
        "type": "t_address"
      },
      {
        "astId": 122,
        "contract": "contracts/sdk/core/BrevisRequest.sol:BrevisRequest",
        "label": "_paused",
        "offset": 20,
        "slot": "1",
        "type": "t_bool"
      },
      {
        "astId": 15097,
        "contract": "contracts/sdk/core/BrevisRequest.sol:BrevisRequest",
        "label": "pausers",
        "offset": 0,
        "slot": "2",
        "type": "t_mapping(t_address,t_bool)"
      },
      {
        "astId": 15100,
        "contract": "contracts/sdk/core/BrevisRequest.sol:BrevisRequest",
        "label": "pauserList",
        "offset": 0,
        "slot": "3",
        "type": "t_array(t_address)dyn_storage"
      },
      {
        "astId": 14670,
        "contract": "contracts/sdk/core/BrevisRequest.sol:BrevisRequest",
        "label": "proverStates",
        "offset": 0,
        "slot": "4",
        "type": "t_mapping(t_address,t_enum(ProverState)14665)"
      },
      {
        "astId": 14673,
        "contract": "contracts/sdk/core/BrevisRequest.sol:BrevisRequest",
        "label": "provers",
        "offset": 0,
        "slot": "5",
        "type": "t_array(t_address)dyn_storage"
      },
      {
        "astId": 18805,
        "contract": "contracts/sdk/core/BrevisRequest.sol:BrevisRequest",
        "label": "requestTimeout",
        "offset": 0,
        "slot": "6",
        "type": "t_uint256"
      },
      {
        "astId": 18808,
        "contract": "contracts/sdk/core/BrevisRequest.sol:BrevisRequest",
        "label": "brevisProof",
        "offset": 0,
        "slot": "7",
        "type": "t_contract(IBrevisProof)21152"
      },
      {
        "astId": 18813,
        "contract": "contracts/sdk/core/BrevisRequest.sol:BrevisRequest",
        "label": "requests",
        "offset": 0,
        "slot": "8",
        "type": "t_mapping(t_bytes32,t_struct(Request)21171_storage)"
      }
    ],
    "types": {
      "t_address": {
        "encoding": "inplace",
        "label": "address",
        "numberOfBytes": "20"
      },
      "t_array(t_address)dyn_storage": {
        "base": "t_address",
        "encoding": "dynamic_array",
        "label": "address[]",
        "numberOfBytes": "32"
      },
      "t_bool": {
        "encoding": "inplace",
        "label": "bool",
        "numberOfBytes": "1"
      },
      "t_bytes32": {
        "encoding": "inplace",
        "label": "bytes32",
        "numberOfBytes": "32"
      },
      "t_contract(IBrevisProof)21152": {
        "encoding": "inplace",
        "label": "contract IBrevisProof",
        "numberOfBytes": "20"
      },
      "t_enum(ProverState)14665": {
        "encoding": "inplace",
        "label": "enum BrevisAccess.ProverState",
        "numberOfBytes": "1"
      },
      "t_enum(RequestStatus)21159": {
        "encoding": "inplace",
        "label": "enum IBrevisRequest.RequestStatus",
        "numberOfBytes": "1"
      },
      "t_mapping(t_address,t_bool)": {
        "encoding": "mapping",
        "key": "t_address",
        "label": "mapping(address => bool)",
        "numberOfBytes": "32",
        "value": "t_bool"
      },
      "t_mapping(t_address,t_enum(ProverState)14665)": {
        "encoding": "mapping",
        "key": "t_address",
        "label": "mapping(address => enum BrevisAccess.ProverState)",
        "numberOfBytes": "32",
        "value": "t_enum(ProverState)14665"
      },
      "t_mapping(t_bytes32,t_struct(Request)21171_storage)": {
        "encoding": "mapping",
        "key": "t_bytes32",
        "label": "mapping(bytes32 => struct IBrevisRequest.Request)",
        "numberOfBytes": "32",
        "value": "t_struct(Request)21171_storage"
      },
      "t_struct(Request)21171_storage": {
        "encoding": "inplace",
        "label": "struct IBrevisRequest.Request",
        "members": [
          {
            "astId": 21161,
            "contract": "contracts/sdk/core/BrevisRequest.sol:BrevisRequest",
            "label": "deadline",
            "offset": 0,
            "slot": "0",
            "type": "t_uint256"
          },
          {
            "astId": 21163,
            "contract": "contracts/sdk/core/BrevisRequest.sol:BrevisRequest",
            "label": "fee",
            "offset": 0,
            "slot": "1",
            "type": "t_uint256"
          },
          {
            "astId": 21165,
            "contract": "contracts/sdk/core/BrevisRequest.sol:BrevisRequest",
            "label": "refundee",
            "offset": 0,
            "slot": "2",
            "type": "t_address"
          },
          {
            "astId": 21167,
            "contract": "contracts/sdk/core/BrevisRequest.sol:BrevisRequest",
            "label": "callback",
            "offset": 0,
            "slot": "3",
            "type": "t_address"
          },
          {
            "astId": 21170,
            "contract": "contracts/sdk/core/BrevisRequest.sol:BrevisRequest",
            "label": "status",
            "offset": 20,
            "slot": "3",
            "type": "t_enum(RequestStatus)21159"
          }
        ],
        "numberOfBytes": "128"
      },
      "t_uint256": {
        "encoding": "inplace",
        "label": "uint256",
        "numberOfBytes": "32"
      }
    }
  }
}