{
  "address": "0x601247215C88Bcc6947cf44B470e5d721db291CA",
  "abi": [
    {
      "inputs": [],
      "name": "ProofInvalid",
      "type": "error"
    },
    {
      "inputs": [],
      "name": "PublicInputNotInField",
      "type": "error"
    },
    {
      "inputs": [
        {
          "internalType": "uint256[8]",
          "name": "proof",
          "type": "uint256[8]"
        }
      ],
      "name": "compressProof",
      "outputs": [
        {
          "internalType": "uint256[4]",
          "name": "compressed",
          "type": "uint256[4]"
        }
      ],
      "stateMutability": "view",
      "type": "function"
    },
    {
      "inputs": [
        {
          "internalType": "uint256[4]",
          "name": "compressedProof",
          "type": "uint256[4]"
        },
        {
          "internalType": "uint256[8]",
          "name": "input",
          "type": "uint256[8]"
        }
      ],
      "name": "verifyCompressedProof",
      "outputs": [],
      "stateMutability": "view",
      "type": "function"
    },
    {
      "inputs": [
        {
          "internalType": "uint256[8]",
          "name": "proof",
          "type": "uint256[8]"
        },
        {
          "internalType": "uint256[2]",
          "name": "commit",
          "type": "uint256[2]"
        },
        {
          "internalType": "uint256[8]",
          "name": "input",
          "type": "uint256[8]"
        }
      ],
      "name": "verifyProofWithCommit",
      "outputs": [
        {
          "internalType": "bool",
          "name": "",
          "type": "bool"
        }
      ],
      "stateMutability": "view",
      "type": "function"
    },
    {
      "inputs": [
        {
          "internalType": "bytes",
          "name": "proofData",
          "type": "bytes"
        }
      ],
      "name": "verifyRaw",
      "outputs": [
        {
          "internalType": "bool",
          "name": "",
          "type": "bool"
        }
      ],
      "stateMutability": "view",
      "type": "function"
    }
  ],
  "transactionHash": "0x49f1ee55a396a894204ea97bd55d582b32df6b44fb5df6b0e63d531b165e266c",
  "args": [],
  "numDeployments": 1,
  "solcInputHash": "6e484fccc0b216f785832bb0f197105d",
  "bytecode": "0x6080806040523461001657611989908161001c8239f35b600080fdfe60808060405260048036101561001457600080fd5b600091823560e01c90816344f6369214610ae957508063457726e614610916578063483066711461013a5763cc73d2a31461004e57600080fd5b346101365761024036600319011261013657366023121561013657610071610ba5565b806101049236841161013257905b83821061012257505036610123121561011e5761009a610bdc565b806101449336851161011a57905b84821061010a575050366101631215610106576100c3610ba5565b9182610244943686116101025760209650905b8582106100f35750506100e993506111ee565b6040519015158152f35b813581529086019086016100d6565b8680fd5b8380fd5b81358152602091820191016100a8565b8580fd5b8280fd5b813581526020918201910161007f565b8480fd5b5080fd5b5034610136576101803660031901126101365736608411610136573661018411610136576101688135611059565b6101766024356044356110c0565b91939290610185606435611059565b939092604051967f2a608cf7488fe48c0417d1fe9c07c1cc12e6c9fce521fdd342a91173ef7ec802885260208801967f1b502a55921bf1a279cd3b3f7e5a9494ed6610a3c82bde8597920ad31131a16488527f279bc15f9a1148ed70bface05642c159563533bf7eda88b7d4b96567ab9289e060408a01527f21e8b8cc61250a2e6220ee267801a8624861fac6a6f59cdf304d8de304a332c460608a015260843560808a01526040808a016060828c0160075afa60408a60808160065afa906000805160206119348339815191526084351016167f0a98cf79463366e415ec245b5551d1a05938d048780cb271760e9ab8102cbd7360408b01527f06eed27a6e94841429ae67982a323118f19890a5044e1228493885267035d0bf60608b015260a435908160808c015260408b606082808301920160075afa9060008051602061193483398151915260408d60808160065afa93101616167f27943dd909892777ad045e00151d9385dd1572abd53eb9240d34058ccb44628060408b01527f2141a5217df2e7b6158d308eb7195f03753dcf767207666d77c0f4c2a4861c2060608b015260c435908160808c015260408b606082808301920160075afa9060008051602061193483398151915260408d60808160065afa93101616167f283f0e2f5c0e9175d4a686d063fbe17cbeb1465cc7b9eb6c43db570cb0e74e1660408b01527f083a4e36082ef58a40cccbfe40be6e2aecb800fbed6cc44d81a672a9c29237e360608b015260e435908160808c015260408b606082808301920160075afa9060008051602061193483398151915260408d60808160065afa93101616167f2b6bd6c0749b507caa9f6de59968958858ce628945490614fa1330f67b8bdbe960408b01527f23f1296ae9c5912432fae199c743130632ef2bf3d16da0a2b0d5f96b4803802f60608b01528960016101043592836080840152600080516020611934833981519152604080808601606082880160075afa9460808160065afa9410161616167f19ad523a8395b1412108d2ffac34dbbd9b713fd87ad95d7d0b505f5f38fdc90460408b01527f27d191291834e3af74da2fbfe0a18ec21bb6b7c4c2009ca90fd578bc8933363560608b015261012435908160808c015260408b606082808301920160075afa9060008051602061193483398151915260408d60808160065afa93101616167f195e22123739328851661d6f93957bb25a1961426f791a003e49630a4e0863e260408b01527f107ae5ce9187fa86c2fcc12a7650612e62f41379d425a286e25f7d792a05f70060608b015261014435908160808c015260408b606082808301920160075afa9060008051602061193483398151915260408d60808160065afa93101616167f1621c905d214fc230cbfbd6004151e12b1eb32adfe2a6f9a815b1ecb30ec50bf60408b01527f0cc4542035a288c3bb9d1c8883cc9eb138417cce2b797dcaed95a170acd18dfd60608b015261016435908160808c015260408b606082808301920160075afa9060008051602061193483398151915260408d60808160065afa931016161698519751981561090557604051998a61030081011067ffffffffffffffff6103008d0111176108f2576103008b01604052610300368c378a5260208a015260408901526060880152608087015260a086015260c085015260e08401527f08515cbb951ef7637e4bebdb8f9090ac3b9dfa0e78d293f1705e89e5a522dba66101008401527efcb70ee5e9aebacb4fc8fa9fa94258d8b61767fefbd83b105b65d36133d8776101208401527f1f78444dd95691b9a779400739a944f5891648075fe261191522a722b59334616101408401527f0ed0431590f71be0e84653b26177634e5d9b9a228cde0c13c4403afedd9b812d6101608401527f2819b66f50d9dc5f8a726f09868ddc07e697633c8327433cc3b3b5c3097316346101808401527f155c4757977b3df944bcc334da471e4b41476366c2d31b87846fead41dddc15e6101a08401527f04fa000fdb815c2b90b84ed34d6d7022f686ae58ac0f9617cbeed3127065d4426101c08401527f129c648821f552077e952b63687d53d3498047b45a15778bfd9610afc2d6ffce6101e08401527f299bb47a72e993115d3f1b8be6f210dc0b0ac60261bd88dc2637bb556f22a3906102008401527f035a2fd9f68964b90958f6a51f1bd7290da2e047d3bfd0e1611f68284b83e7e36102208401526102408301526102608201527f03f0a3767c7afb9dc86bad41515fcf048b46e8eb3ee0f6d3c78782d5c2fcd10c6102808201527f1327db9aecc8cc68c62b5e7f7547964082c81a18395085276305c4eb73130c7c6102a08201527f259d5fa90e932484c7bdc0c41702337c28ae660b2fb1fd0dde8f6418376f4a276102c08201527f2b57956f5666fe1073bf4a3751a330f9c56ec2260605b8e2e4909491a757c70d6102e0820152604051906020820182811067ffffffffffffffff8211176108df5761030060209284926040528336843760085afa159081156108d2575b506108c3575080f35b604051631ff3747d60e21b8152fd5b60019150511415386108ba565b634e487b7160e01b855260418452602485fd5b634e487b7160e01b8d5260418c5260248dfd5b60405163a54f8e2760e01b81528b90fd5b509034610ae65760209081600319360112610ae65782359267ffffffffffffffff9081851161011e573660238601121561011e5784013590811161013657366024828601011161013657610968610ba5565b6101009283368337828511610ae6576024860135825282604011610ae65760448601358583015282606011610ae6576064860135604083015260809280841161013657608487013560608401528060a0116101365760a4870135848401528060c0116101365760c487013560a08401528060e0116101365760e487013560c08401528085116101365761010487013560e0840152610a04610bdc565b936040368637816101201161011e576101248801358552816101401161011e5761014488013587860152610a36610ba5565b95368737816101601161011e5761016488013560e0870152816101801161011e576101848801358652816101901161011e576101a4880135811c87870152816101a01161011e576101b4880135811c6040870152816101c01161011e576101c48801356060870152816101d01161011e576101e4880135811c81870152816101e01161011e576101f4880135901c60a086015261020011610ae657506102046100e99495013560c08401526111ee565b80fd5b828434610ae657610100366003190112610ae6573661010411610ae6576080830183811067ffffffffffffffff821117610b9257604052916080368237610b336024358335610bfc565b8152610b4960843560a435604435606435610d4d565b9190602092838301526040820152610b6560e43560c435610bfc565b60608201526040519390845b848310610b7d57608086f35b83806001928451815201920192019190610b71565b506041602492634e487b7160e01b835252fd5b60405190610100820182811067ffffffffffffffff821117610bc657604052565b634e487b7160e01b600052604160045260246000fd5b604051906040820182811067ffffffffffffffff821117610bc657604052565b907f30644e72e131a029b85045b68181585d97816a916871ca8d3c208c16d87cfd47808310801590610c92575b610c7057821580610c8a575b610c8257610c4c8160038186818180090908610c9c565b828103610c5c5750505060011b90565b81900681030603610c7057600190811b1790565b604051631ff3747d60e21b8152600490fd5b505050600090565b508115610c35565b5080821015610c29565b90610ca682610cd2565b917f30644e72e131a029b85045b68181585d97816a916871ca8d3c208c16d87cfd4783800903610c7057565b9060405191602083526020808401526020604084015260608301527f0c19139cb84c680a6e14116da060561765e05aa45a1c72a34f082305b61f3f5260808301527f30644e72e131a029b85045b68181585d97816a916871ca8d3c208c16d87cfd4760a083015260208260c08160055afa91519115610c7057565b909293917f30644e72e131a029b85045b68181585d97816a916871ca8d3c208c16d87cfd4794858310801590610f2f575b8015610f25575b8015610f1b575b610c70578082868517171715610f0f5785610e8081808080808981808e9f8f9e9f7f30644e72e131a029b85045b68181585d97816a916871ca8d3c208c16d87cfd448280928709099e8f0981848181800909087f2b149d40ceb8aaae81be18991be06ac3b5b4c5e559dbefa33267e6dc24a138e5089b09818d8181800909087f2fcd3ac2a640a154eb23960892a85a68f031ca0c8344b23a577dcf1052b9e775080681030695827f183227397098d014dc2822db40c0ac2ecbc0b548b438e5469e10460b6c3e7ea481610e6781808c80098187800908610c9c565b84080983610e7482610cd2565b80091415968791610f39565b939080821480610f06575b15610eb857505050505090600090600014610eb0575060ff60025b169060021b179190565b60ff90610ea6565b82809106810306149283610ef5575b505050600014610c705760019160009015610eed575060ff60025b169060021b17179190565b60ff90610ee2565b819293500681030614388080610ec7565b50848414610e8b565b50600094508493505050565b5085811015610d8c565b5085821015610d85565b5085851015610d7e565b91610fa97f183227397098d014dc2822db40c0ac2ecbc0b548b438e5469e10460b6c3e7ea4919492947f30644e72e131a029b85045b68181585d97816a916871ca8d3c208c16d87cfd479283809281610f9a81808c8009818c800908610c9c565b9161104d575b50870809610c9c565b9381600286096040519060208252602080830152602060408301528060608301527f30644e72e131a029b85045b68181585d97816a916871ca8d3c208c16d87cfd4560808301528360a083015260208260c08160055afa91519115610c705783826001920903610c7057829082099382808080888009068103068188800908149182159261103a575b5050610c7057565b8091925084860960020914153880611032565b80910681030681610fa0565b80156110b7578060011c917f30644e72e131a029b85045b68181585d97816a916871ca8d3c208c16d87cfd4780841015610c70576001806110a38360038189818180090908610c9c565b9416146110ad5750565b8091920681030690565b50600090600090565b9190918015806111e6575b6111d9578060021c9280927f30644e72e131a029b85045b68181585d97816a916871ca8d3c208c16d87cfd47918286108015906111cf575b610c70578584848080858180808080600280827f30644e72e131a029b85045b68181585d97816a916871ca8d3c208c16d87cfd446111a69f8f90839109099b16149a8a0981868181800909087f2fcd3ac2a640a154eb23960892a85a68f031ca0c8344b23a577dcf1052b9e77508068103069409818b8181800909087f2b149d40ceb8aaae81be18991be06ac3b5b4c5e559dbefa33267e6dc24a138e508610f39565b90928193600180829716146111ba57505050565b81900681038190069450908190068103069150565b5082811015611103565b5060009150819081908190565b5082156110cb565b91906020604051927f2a608cf7488fe48c0417d1fe9c07c1cc12e6c9fce521fdd342a91173ef7ec80284527f1b502a55921bf1a279cd3b3f7e5a9494ed6610a3c82bde8597920ad31131a164828501527f279bc15f9a1148ed70bface05642c159563533bf7eda88b7d4b96567ab9289e060408501527f21e8b8cc61250a2e6220ee267801a8624861fac6a6f59cdf304d8de304a332c4606085015260e081518060808701526040808701606082890160075afa60008051602061193483398151915260408860808160065afa921016167f0a98cf79463366e415ec245b5551d1a05938d048780cb271760e9ab8102cbd7360408701527f06eed27a6e94841429ae67982a323118f19890a5044e1228493885267035d0bf6060870152838301519081608088015260408088016060828a0160075afa9060008051602061193483398151915260408960808160065afa93101616167f27943dd909892777ad045e00151d9385dd1572abd53eb9240d34058ccb44628060408701527f2141a5217df2e7b6158d308eb7195f03753dcf767207666d77c0f4c2a4861c20606087015260408301519081608088015260408088016060828a0160075afa9060008051602061193483398151915260408960808160065afa93101616167f283f0e2f5c0e9175d4a686d063fbe17cbeb1465cc7b9eb6c43db570cb0e74e1660408701527f083a4e36082ef58a40cccbfe40be6e2aecb800fbed6cc44d81a672a9c29237e3606087015260608301519081608088015260408088016060828a0160075afa9060008051602061193483398151915260408960808160065afa93101616167f2b6bd6c0749b507caa9f6de59968958858ce628945490614fa1330f67b8bdbe960408701527f23f1296ae9c5912432fae199c743130632ef2bf3d16da0a2b0d5f96b4803802f6060870152608083015190816080880152600160408089016060828b0160075afa9160008051602061193483398151915260408a60808160065afa9410161616167f19ad523a8395b1412108d2ffac34dbbd9b713fd87ad95d7d0b505f5f38fdc90460408701527f27d191291834e3af74da2fbfe0a18ec21bb6b7c4c2009ca90fd578bc89333635606087015260a08301519081608088015260408088016060828a0160075afa9060008051602061193483398151915260408960808160065afa93101616167f195e22123739328851661d6f93957bb25a1961426f791a003e49630a4e0863e260408701527f107ae5ce9187fa86c2fcc12a7650612e62f41379d425a286e25f7d792a05f700606087015260c08301519081608088015260408088016060828a0160075afa9060008051602061193483398151915260408960808160065afa9310161616917f1621c905d214fc230cbfbd6004151e12b1eb32adfe2a6f9a815b1ecb30ec50bf60408701527f0cc4542035a288c3bb9d1c8883cc9eb138417cce2b797dcaed95a170acd18dfd60608701520151908160808601526040808601606082880160075afa9060008051602061193483398151915260408760808160065afa931016161691805160408501520151606083015260408260808160065afa1690602081519101519115611921578251926020810151906040810151606082015160808301519060a08401519260e060c086015195015195604051998a5260208a015260408901526060880152608087015260a086015260c085015260e08401527f08515cbb951ef7637e4bebdb8f9090ac3b9dfa0e78d293f1705e89e5a522dba66101008401527efcb70ee5e9aebacb4fc8fa9fa94258d8b61767fefbd83b105b65d36133d8776101208401527f1f78444dd95691b9a779400739a944f5891648075fe261191522a722b59334616101408401527f0ed0431590f71be0e84653b26177634e5d9b9a228cde0c13c4403afedd9b812d6101608401527f2819b66f50d9dc5f8a726f09868ddc07e697633c8327433cc3b3b5c3097316346101808401527f155c4757977b3df944bcc334da471e4b41476366c2d31b87846fead41dddc15e6101a08401527f04fa000fdb815c2b90b84ed34d6d7022f686ae58ac0f9617cbeed3127065d4426101c08401527f129c648821f552077e952b63687d53d3498047b45a15778bfd9610afc2d6ffce6101e08401527f299bb47a72e993115d3f1b8be6f210dc0b0ac60261bd88dc2637bb556f22a3906102008401527f035a2fd9f68964b90958f6a51f1bd7290da2e047d3bfd0e1611f68284b83e7e36102208401526102408301526102608201527f03f0a3767c7afb9dc86bad41515fcf048b46e8eb3ee0f6d3c78782d5c2fcd10c6102808201527f1327db9aecc8cc68c62b5e7f7547964082c81a18395085276305c4eb73130c7c6102a08201527f259d5fa90e932484c7bdc0c41702337c28ae660b2fb1fd0dde8f6418376f4a276102c08201527f2b57956f5666fe1073bf4a3751a330f9c56ec2260605b8e2e4909491a757c70d6102e08201526020816103008160085afa9051168015610c705790565b60405163a54f8e2760e01b8152600490fdfe30644e72e131a029b85045b68181585d2833e84879b9709143e1f593f0000001a26469706673582212209047bbf0580898580011e5c7bd1f5f241053ae7b7db0d5435d9ab026b1ef862264736f6c63430008140033",
  "devdoc": {
    "author": "Remco Bloemen",
    "errors": {
      "ProofInvalid()": [
        {
          "details": "This can mean that provided Groth16 proof points are not on their curves, that pairing equation fails, or that the proof is not for the provided public input."
        }
      ],
      "PublicInputNotInField()": [
        {
          "details": "Public input elements are not automatically reduced, as this is can be a dangerous source of bugs."
        }
      ]
    },
    "kind": "dev",
    "methods": {
      "compressProof(uint256[8])": {
        "params": {
          "proof": "The uncompressed Groth16 proof. Elements are in the same order as for verifyProof. I.e. Groth16 points (A, B, C) encoded as in EIP-197."
        },
        "returns": {
          "compressed": "The compressed proof. Elements are in the same order as for verifyCompressedProof. I.e. points (A, B, C) in compressed format."
        }
      },
      "verifyCompressedProof(uint256[4],uint256[8])": {
        "params": {
          "compressedProof": "the points (A, B, C) in compressed format matching the output of compressProof.",
          "input": "the public input field elements in the scalar field Fr. Elements must be reduced."
        }
      },
      "verifyProofWithCommit(uint256[8],uint256[2],uint256[8])": {
        "params": {
          "input": "the public input field elements in the scalar field Fr. Elements must be reduced.",
          "proof": "the points (A, B, C) in EIP-197 format matching the output of compressProof."
        }
      }
    },
    "title": "Groth16 verifier template.",
    "version": 1
  },
  "userdoc": {
    "errors": {
      "ProofInvalid()": [
        {
          "notice": "The proof is invalid."
        }
      ],
      "PublicInputNotInField()": [
        {
          "notice": "Some of the provided public input values are larger than the field modulus."
        }
      ]
    },
    "kind": "user",
    "methods": {
      "compressProof(uint256[8])": {
        "notice": "Compress a proof.Will revert with InvalidProof if the curve points are invalid, but does not verify the proof itself."
      },
      "verifyCompressedProof(uint256[4],uint256[8])": {
        "notice": "Verify a Groth16 proof with compressed points.Reverts with InvalidProof if the proof is invalid or with PublicInputNotInField the public input is not reduced.There is no return value. If the function does not revert, the proof was successfully verified."
      },
      "verifyProofWithCommit(uint256[8],uint256[2],uint256[8])": {
        "notice": "Verify an uncompressed Groth16 proof.Reverts with InvalidProof if the proof is invalid or with PublicInputNotInField the public input is not reduced.There is no return value. If the function does not revert, the proof was successfully verified."
      }
    },
    "notice": "Supports verifying Groth16 proofs. Proofs can be in uncompressed (256 bytes) and compressed (128 bytes) format. A view function is provided to compress proofs.See <https://2.com/23/bn254-compression> for further explanation.",
    "version": 1
  },
  "storageLayout": {
    "storage": [],
    "types": null
  }
}