{
  "address": "0x9559E05bCAdD1f7BAA9EE72Aa48a5d6241958298",
  "abi": [
    {
      "inputs": [
        {
          "internalType": "uint256[2]",
          "name": "a",
          "type": "uint256[2]"
        },
        {
          "internalType": "uint256[2][2]",
          "name": "b",
          "type": "uint256[2][2]"
        },
        {
          "internalType": "uint256[2]",
          "name": "c",
          "type": "uint256[2]"
        },
        {
          "internalType": "uint256[2]",
          "name": "commit",
          "type": "uint256[2]"
        },
        {
          "internalType": "uint256[14]",
          "name": "input",
          "type": "uint256[14]"
        }
      ],
      "name": "verifyProof",
      "outputs": [
        {
          "internalType": "bool",
          "name": "r",
          "type": "bool"
        }
      ],
      "stateMutability": "view",
      "type": "function"
    },
    {
      "inputs": [
        {
          "internalType": "bytes",
          "name": "proofData",
          "type": "bytes"
        }
      ],
      "name": "verifyRaw",
      "outputs": [
        {
          "internalType": "bool",
          "name": "",
          "type": "bool"
        }
      ],
      "stateMutability": "view",
      "type": "function"
    }
  ],
  "transactionHash": "0x5ce479fc508013c95d762c925f3b32c84da89b758df7ca2fdf478d723177847e",
  "args": [],
  "numDeployments": 1,
  "solcInputHash": "9caa3afd01cb546934c33ccd5ab80036",
  "bytecode": "0x608080604052346100165761194f908161001c8239f35b600080fdfe6080604052600436101561001257600080fd5b6000803560e01c908163457726e61461003a5750636d628e8b1461003557600080fd5b610267565b346100a85760203660031901126100a85760043567ffffffffffffffff918282116100a857366023830112156100a85781600401359283116100a85736602484840101116100a8576100a46100928460248501611711565b60405190151581529081906020820190565b0390f35b80fd5b634e487b7160e01b600052604160045260246000fd5b604051906040820182811067ffffffffffffffff8211176100e157604052565b6100ab565b604051906080820182811067ffffffffffffffff8211176100e157604052565b604051906101c0820182811067ffffffffffffffff8211176100e157604052565b8060231215610164576101386100c1565b90816044918211610164576004905b8282106101545750505090565b8135815260209182019101610147565b600080fd5b8060e312156101645761017a6100c1565b90816101049182116101645760c4905b8282106101975750505090565b813581526020918201910161018a565b806101231215610164576101b96100c1565b908161014491821161016457610104905b8282106101d75750505090565b81358152602091820191016101ca565b9080601f83011215610164576101fb6100c1565b80926040810192831161016457905b8282106102175750505090565b813581526020918201910161020a565b80610163121561016457610239610106565b908161030491821161016457610144905b8282106102575750505090565b813581526020918201910161024a565b34610164576103003660031901126101645761028236610127565b3660631215610164576102936100c1565b60c481368211610164576044905b8282106102d2576100a461009286866102b936610169565b6102c2366101a7565b916102cc36610227565b936106ef565b60206040916102e136856101e7565b8152019101906102a1565b6102f46100e6565b906080368337565b604051906060820182811067ffffffffffffffff8211176100e1576040526060368337565b604051906020820182811067ffffffffffffffff8211176100e1576040526020368337565b61034e6100c1565b906040368337565b61035e610106565b906101c0368337565b61036f6100c1565b906103786100c1565b604036823782526103876100c1565b60403682376020830152565b61039b6100e6565b906103a46100c1565b60009081815281602082015283526103ba610367565b60208401526103c76100c1565b81815281602082015260408401526103dd6100c1565b9080825260208201526060830152565b634e487b7160e01b600052603260045260246000fd5b1561040a57565b60405162461bcd60e51b815260206004820152601760248201527f76657269666965722d61582d6774652d7072696d652d710000000000000000006044820152606490fd5b1561045657565b60405162461bcd60e51b815260206004820152601760248201527f76657269666965722d61592d6774652d7072696d652d710000000000000000006044820152606490fd5b156104a257565b60405162461bcd60e51b815260206004820152601860248201527f76657269666965722d6258302d6774652d7072696d652d7100000000000000006044820152606490fd5b156104ee57565b60405162461bcd60e51b815260206004820152601860248201527f76657269666965722d6259302d6774652d7072696d652d7100000000000000006044820152606490fd5b1561053a57565b60405162461bcd60e51b815260206004820152601860248201527f76657269666965722d6258312d6774652d7072696d652d7100000000000000006044820152606490fd5b1561058657565b60405162461bcd60e51b815260206004820152601860248201527f76657269666965722d6259312d6774652d7072696d652d7100000000000000006044820152606490fd5b156105d257565b60405162461bcd60e51b815260206004820152601760248201527f76657269666965722d63582d6774652d7072696d652d710000000000000000006044820152606490fd5b1561061e57565b60405162461bcd60e51b815260206004820152601760248201527f76657269666965722d63592d6774652d7072696d652d710000000000000000006044820152606490fd5b634e487b7160e01b600052601160045260246000fd5b60001981146106885760010190565b610663565b90600e81101561069e5760051b0190565b6103ed565b156106aa57565b60405162461bcd60e51b815260206004820152601f60248201527f76657269666965722d6774652d736e61726b2d7363616c61722d6669656c64006044820152606490fd5b949394929190926106fe610393565b815160208093015161070e6100c1565b91825283820152815261071f6100c1565b948051518652610730815160200190565b518387015261074f836107416100c1565b920180515183525160200190565b518382015261075c6100c1565b958652828601528181019485528183519301516107776100c1565b93845282840152604081019283528351938281019485516107966100c1565b918252848201526060830190815261084a7f30644e72e131a029b85045b68181585d97816a916871ca8d3c208c16d87cfd476107d58186515110610403565b6107e48187875101511061044f565b6107f2818a5151511061049b565b61080281878b51015151106104e7565b610819816108128b515160200190565b5110610533565b6108328161082b888c51015160200190565b511061057f565b61083f81885151106105cb565b858751015110610617565b60005b600e8110610e2d575090610e069798939291610867611249565b966108706100c1565b9260008452610dcd848781019860008a52819961088b6102ec565b918a6101a06108986102fc565b927f26397f57fad9e8b4fa680bc442bd89a8e44034a105aa7726696c448fac6204a36108c26100c1565b95600087526000858801527f08ed08d92275175bbd48d00c2ab3cddcf8344d46d333259f7079f355ecd88e068952527f1630cb8e742d0060f0592f12a451c439f2e16195ad87d6d7bbd7a2897b3375d384527f1f6afac52155b5c823e2bad0f65dc375d4b86e1a8aa444c41ece23d5a218cb898385017f21df1685ab713193576cbfdaf0ef7954d91b337e52dd59bca9db0a2631871ab48152825194604087019586526109718a8a8a8a6114c5565b7f15e140c3dfb8139ae95c8aee5f6bd010b436ea7c6ece17f49e75e980e872e24a87527f0b6ae56a700395cae0ec899fbc62fa989f23563c5cab6deaf813de1a6ddba5db825283015185526109c8898989896114c5565b7f22b909b919d744a3cc67c7f8281fe48dc9d5842107bbfe555181e54201ba789386527f0c81ed50b5c22e969f85fa18637397d8557604045c312f4c63c5c347a0d378d7815260408301518552610a21898989896114c5565b7f12c613830a0ac91f131cec36f4ef6a3cf1eb53e9d032b9df46d9e8500a72ca2686527f2fe626502de0ba7ac991925b30242a0f9da9aa89db62f9642420ed3fe45ebefa815260608301518552610a7a898989896114c5565b7f247380ed916a2ec02f650a56f2bcf987f419ef30e2a694fc2768fe8912ad968c86527f0bec144a20e6d5ba80d6cc0d9f459e7d73a6f13024b3811d18f945449e26e223815260808301518552610ad3898989896114c5565b7f0cbc7741b9757b3d04e825afc0f29c77d51ed7d8c0ff00b4e4992581cbf3a76586527f2d759b11389582742ef84bb643434b7304b8231f82350b175cef1ebcafd88f22815260a08301518552610b2c898989896114c5565b7f13c334e05955f796e721c973c43333a242d6d24267a717cf8c89905b2e8920fd86527f2e9e0c2f6092e20b475365669f7fbb7a9bb854b7d76352a8afa919a05ede98d0815260c08301518552610b85898989896114c5565b7f1ac9fcbac63db5e783e9470e599502e9e87e7d810920e9faf6a64b7e488a263e86527f0e82decad5e253988c51805b1bd18584028860ce9c9836e531ce526923431a5c815260e08301518552610bde898989896114c5565b7f0425d166e521708f6e28b0bfd17c57b4934175b0925b3b52326b8170ba1f042886527f262587e7f5c2646581c3ff1b497b9ea675334201698e6673c6e2bae5c9edc88681526101008301518552610c38898989896114c5565b7f03c32ddcb44853f29f935743a9ac7b845caa6cecc1f1f1a430e45c6c41b8f4e086527f15e7d2876f8195e009aac2fe5d0aadb00c525ee34104209019565a8672d6686081526101208301518552610c92898989896114c5565b7f24ae5e024356e42be7660642b0811596c5b0f28f4d604fdfa357fd6ea65fc1ac86527f1214c766e80dbb08f2eb66a8b288b944eb353db1285cbb8f616cacc88de689fc81526101408301518552610cec898989896114c5565b7f2081aebc8a68e744cabf26c5d227cd05682762aef54f54f22eb4413ea86a96a686527f0a72c5c013ac14d07beef912139319d636e4204c4aa97f8b9aa48095500ae88e81526101608301518552610d46898989896114c5565b7f2a0bf25d17479c1037a2b18257261f71c3c9b03f8a8cea9be6aac258ae13608786527f2eb9fb49e73a033ea1755cbb15b0506c30bccfd32a9a31e19a42be2dec3c6a8981526101808301518552610da0898989896114c5565b7f1e286e8f9f0f6ca774f2fd49121dc4bb9ce1538798476fa816001f7d64da77a5865252015190526114c5565b511590811591610e22575b50610e09575b5050610dea9051610e70565b94519084519085015191606060408701519551960151966110a3565b90565b51919350610dea91610e1a91610f57565b929038610dde565b905051151538610dd8565b80610e667f30644e72e131a029b85045b68181585d2833e84879b9709143e1f593f0000001610e5f610e6b948e61068d565b51106106a3565b610679565b61084d565b60006020610e7c6100c1565b8281520152805190811580610eee575b15610ea9575050610e9b6100c1565b600081526000602082015290565b602001517f30644e72e131a029b85045b68181585d97816a916871ca8d3c208c16d87cfd4790819006810390811161068857610ee36100c1565b918252602082015290565b50602081015115610e8c565b90600481101561069e5760051b0190565b15610f1257565b60405162461bcd60e51b815260206004820152601260248201527f70616972696e672d6164642d6661696c656400000000000000000000000000006044820152606490fd5b60609092919260c0610f676100c1565b9160008352600060208401526020839681610f806100e6565b936080368637805185520151828401528051604084015201518482015260066107cf195a01fa8015610fb757610fb590610f0b565b565bfe5b60405190610320820182811067ffffffffffffffff8211176100e15760405260188252610300366020840137565b9060068202918083046006149015171561068857565b906001820180921161068857565b906002820180921161068857565b906003820180921161068857565b906004820180921161068857565b906005820180921161068857565b805182101561069e5760209160051b010190565b1561105e57565b60405162461bcd60e51b815260206004820152601560248201527f70616972696e672d6f70636f64652d6661696c656400000000000000000000006044820152606490fd5b94919596929093966110b36100e6565b958652602097889788880152604087015260608601526110d16100e6565b93845285840152604083015260608201526110ea610fb9565b9160005b6004811061112657505050610300611104610321565b9384920160086107cf195a01fa8015610fb75761112090611057565b51151590565b6111f8919293945061113781610fe7565b6111418285610efa565b515161114d8288611043565b52866111598386610efa565b51015161116e61116883610ffd565b88611043565b526111798286610efa565b5151516111886111688361100b565b5261119e6111968387610efa565b515160200190565b516111ab61116883611019565b52866111b78387610efa565b510151516111c761116883611027565b526111f26111ec6111e5896111dc868a610efa565b51015160200190565b5192611035565b87611043565b52610679565b90849392916110ee565b61120a6100e6565b906112136100c1565b60008152600060208201528252611228610367565b6020830152611235610367565b6040830152611242610367565b6060830152565b611251611202565b9061125a6100c1565b7f21b093b7c44ad55b2429abd789642f2bd1fd7c946a60f613a8bb815759af1d7d81526020907f169843dfedb6f08750cb2526d76f7ac1771d8cfe75414bed8f8c10507ef0a66d8282015283526112af6100c1565b7f24f9e952269d2e2e6af0405643852767182633132e38b186910588074232bbce81527f0cc67bfa5f8ebdef1388c5cf501c98a6d1a69affd505c620b4a142ad0390fb1d828201526112ff6100c1565b7f1f14d13690823b09edc6030d404b4fc32d8bfff2816c0581dd1df206f9a1032b81527f1f31a0dd9075800981232aac334f243b55d1cb0d463bb56afdd1a9ce7776b7398382015261134f6100c1565b91825282820152818401526113626100c1565b7f0ab8a613f2eddd790add2ee2e833bf80487394c2b4d6b13e0637a8053fc5a42a81527f2a723faaf06672598738e5a5e2f674b27a037746cc4096cf066f8db47e3542b9828201526113b26100c1565b7f0379f73699538a2c6307bcfd22e353d8357e93981308a469aa26990ef9ae18fb81527f2a537e7fc94c7fbcdd16596f00cb5377ebf78cf7413424d149531bcf933ff6ce838201526114026100c1565b9182528282015260408401526114166100c1565b907f132e0739f47f7497146491c4bac08005b578731a48f2f524f2052a23db872edf82527f2f2aab893fb15e1d5c030f7f747454f74b62db720c2174b31628504f50ee6011818301526114676100c1565b907f2e00163ef58cf131d8f8721c6c062b830364d70b6867cb8a2c8e339bb522e09482527f2ab72edd191bd7559c6de275a781f60abc273f0cf3bcea73b4b1a2aeb2bb1611818301526114b86100c1565b9283528201526060830152565b90929160608460806107cf19946007865a01fa15610fb757600660c0926020606096865185528187015182860152805160408601520151868401525a01fa8015610fb757610fb590610f0b565b906020116101645790602090565b906040116101645760200190602090565b906060116101645760400190602090565b906080116101645760600190602090565b9060a0116101645760800190602090565b9060c0116101645760a00190602090565b9060e0116101645760c00190602090565b90610100116101645760e00190602090565b9061012011610164576101000190602090565b9061014011610164576101200190602090565b9061016011610164576101400190602090565b9061018011610164576101780190600890565b9061017811610164576101700190600890565b9061017011610164576101680190600890565b9061016811610164576101600190600890565b906101a011610164576101980190600890565b9061019811610164576101900190600890565b9061019011610164576101880190600890565b9061018811610164576101800190600890565b906101c011610164576101a00190602090565b35906020811061168a575090565b6000199060200360031b1b1690565b6116a16100c1565b9060005b604090818110156116c9576020916116bb6100c1565b9036823781850152016116a5565b5050565b7fffffffffffffffff000000000000000000000000000000000000000000000000903581811693926008811061170257505050565b60080360031b82901b16169150565b610e069161171d610346565b61173061172a8385611512565b9061167c565b815261173f61172a8385611520565b602082015261174c611699565b61175961172a8486611531565b81515261176961172a8486611542565b81516020015261177c61172a8486611553565b602082019081515261179c61179461172a8688611564565b915160200190565b526117a5610346565b916117b361172a8587611575565b83526117c261172a8587611586565b602084015261190e61172a6117d5610346565b956117e361172a828a611598565b87526117f261172a828a6115ab565b60208801526117ff610356565b9761180d61172a83836115be565b6101a08a015261183f61183261182c61182685856115d1565b906116cd565b60c01c90565b67ffffffffffffffff1690565b895261185461183261182c61182685856115e4565b60208a015261186c61183261182c61182685856115f7565b60408a015261188461183261182c611826858561160a565b60608a0152600060808a0152600060a08a01526118aa61183261182c611826858561161d565b60c08a01526118c261183261182c6118268585611630565b60e08a01526118da61183261182c6118268585611643565b6101008a01526118f361183261182c6118268585611656565b6101208a015260006101408a015260006101608a0152611669565b6101808601526106ef56fea2646970667358221220ec91957a2fa6755f748f5ad56dfd5c22683648273866b88c37bcf03b3875ddb264736f6c63430008140033",
  "devdoc": {
    "kind": "dev",
    "methods": {},
    "version": 1
  },
  "userdoc": {
    "kind": "user",
    "methods": {},
    "version": 1
  },
  "storageLayout": {
    "storage": [],
    "types": null
  }
}