{
  "address": "0xCCb58B6025cE10D8F65378E9Af5ccef0eE141Acf",
  "abi": [
    {
      "inputs": [
        {
          "internalType": "contract ISMT",
          "name": "_smtContract",
          "type": "address"
        }
      ],
      "stateMutability": "nonpayable",
      "type": "constructor"
    },
    {
      "anonymous": false,
      "inputs": [
        {
          "indexed": false,
          "internalType": "bytes32[]",
          "name": "vkHashes",
          "type": "bytes32[]"
        },
        {
          "indexed": false,
          "internalType": "uint256[]",
          "name": "sizes",
          "type": "uint256[]"
        }
      ],
      "name": "BatchTierVkHashesUpdated",
      "type": "event"
    },
    {
      "anonymous": false,
      "inputs": [
        {
          "indexed": true,
          "internalType": "address",
          "name": "previousOwner",
          "type": "address"
        },
        {
          "indexed": true,
          "internalType": "address",
          "name": "newOwner",
          "type": "address"
        }
      ],
      "name": "OwnershipTransferred",
      "type": "event"
    },
    {
      "anonymous": false,
      "inputs": [
        {
          "indexed": false,
          "internalType": "contract ISMT",
          "name": "smtContract",
          "type": "address"
        }
      ],
      "name": "SmtContractUpdated",
      "type": "event"
    },
    {
      "anonymous": false,
      "inputs": [
        {
          "indexed": false,
          "internalType": "uint64[]",
          "name": "chainIds",
          "type": "uint64[]"
        },
        {
          "components": [
            {
              "internalType": "contract IZkpVerifier",
              "name": "contractAppZkVerifier",
              "type": "address"
            },
            {
              "internalType": "contract IZkpVerifier",
              "name": "circuitAppZkVerifier",
              "type": "address"
            }
          ],
          "indexed": false,
          "internalType": "struct BrevisProof.ChainZKVerifier[]",
          "name": "newAddresses",
          "type": "tuple[]"
        }
      ],
      "name": "VerifierAddressesUpdated",
      "type": "event"
    },
    {
      "inputs": [
        {
          "internalType": "bytes32",
          "name": "_requestId",
          "type": "bytes32"
        }
      ],
      "name": "getProofData",
      "outputs": [
        {
          "components": [
            {
              "internalType": "bytes32",
              "name": "commitHash",
              "type": "bytes32"
            },
            {
              "internalType": "uint256",
              "name": "length",
              "type": "uint256"
            },
            {
              "internalType": "bytes32",
              "name": "vkHash",
              "type": "bytes32"
            },
            {
              "internalType": "bytes32",
              "name": "appCommitHash",
              "type": "bytes32"
            },
            {
              "internalType": "bytes32",
              "name": "appVkHash",
              "type": "bytes32"
            },
            {
              "internalType": "bytes32",
              "name": "smtRoot",
              "type": "bytes32"
            }
          ],
          "internalType": "struct Brevis.ProofData",
          "name": "",
          "type": "tuple"
        }
      ],
      "stateMutability": "view",
      "type": "function"
    },
    {
      "inputs": [
        {
          "internalType": "bytes32",
          "name": "_requestId",
          "type": "bytes32"
        }
      ],
      "name": "hasProof",
      "outputs": [
        {
          "internalType": "bool",
          "name": "",
          "type": "bool"
        }
      ],
      "stateMutability": "view",
      "type": "function"
    },
    {
      "inputs": [],
      "name": "owner",
      "outputs": [
        {
          "internalType": "address",
          "name": "",
          "type": "address"
        }
      ],
      "stateMutability": "view",
      "type": "function"
    },
    {
      "inputs": [
        {
          "internalType": "bytes32",
          "name": "",
          "type": "bytes32"
        }
      ],
      "name": "proofs",
      "outputs": [
        {
          "internalType": "bytes32",
          "name": "commitHash",
          "type": "bytes32"
        },
        {
          "internalType": "uint256",
          "name": "length",
          "type": "uint256"
        },
        {
          "internalType": "bytes32",
          "name": "vkHash",
          "type": "bytes32"
        },
        {
          "internalType": "bytes32",
          "name": "appCommitHash",
          "type": "bytes32"
        },
        {
          "internalType": "bytes32",
          "name": "appVkHash",
          "type": "bytes32"
        },
        {
          "internalType": "bytes32",
          "name": "smtRoot",
          "type": "bytes32"
        }
      ],
      "stateMutability": "view",
      "type": "function"
    },
    {
      "inputs": [],
      "name": "renounceOwnership",
      "outputs": [],
      "stateMutability": "nonpayable",
      "type": "function"
    },
    {
      "inputs": [
        {
          "internalType": "bytes32[]",
          "name": "_vkHashes",
          "type": "bytes32[]"
        },
        {
          "internalType": "uint256[]",
          "name": "_sizes",
          "type": "uint256[]"
        }
      ],
      "name": "setBatchTierVkHashes",
      "outputs": [],
      "stateMutability": "nonpayable",
      "type": "function"
    },
    {
      "inputs": [],
      "name": "smtContract",
      "outputs": [
        {
          "internalType": "contract ISMT",
          "name": "",
          "type": "address"
        }
      ],
      "stateMutability": "view",
      "type": "function"
    },
    {
      "inputs": [
        {
          "internalType": "uint64",
          "name": "_chainId",
          "type": "uint64"
        },
        {
          "internalType": "bytes",
          "name": "_proofWithPubInputs",
          "type": "bytes"
        },
        {
          "internalType": "bool",
          "name": "_withAppProof",
          "type": "bool"
        }
      ],
      "name": "submitProof",
      "outputs": [
        {
          "internalType": "bytes32",
          "name": "_requestId",
          "type": "bytes32"
        }
      ],
      "stateMutability": "nonpayable",
      "type": "function"
    },
    {
      "inputs": [
        {
          "internalType": "address",
          "name": "newOwner",
          "type": "address"
        }
      ],
      "name": "transferOwnership",
      "outputs": [],
      "stateMutability": "nonpayable",
      "type": "function"
    },
    {
      "inputs": [
        {
          "internalType": "contract ISMT",
          "name": "_smtContract",
          "type": "address"
        }
      ],
      "name": "updateSmtContract",
      "outputs": [],
      "stateMutability": "nonpayable",
      "type": "function"
    },
    {
      "inputs": [
        {
          "internalType": "uint64[]",
          "name": "_chainIds",
          "type": "uint64[]"
        },
        {
          "components": [
            {
              "internalType": "contract IZkpVerifier",
              "name": "contractAppZkVerifier",
              "type": "address"
            },
            {
              "internalType": "contract IZkpVerifier",
              "name": "circuitAppZkVerifier",
              "type": "address"
            }
          ],
          "internalType": "struct BrevisProof.ChainZKVerifier[]",
          "name": "_verifierAddresses",
          "type": "tuple[]"
        }
      ],
      "name": "updateVerifierAddress",
      "outputs": [],
      "stateMutability": "nonpayable",
      "type": "function"
    },
    {
      "inputs": [
        {
          "internalType": "bytes32",
          "name": "_requestId",
          "type": "bytes32"
        },
        {
          "internalType": "uint64",
          "name": "_chainId",
          "type": "uint64"
        },
        {
          "components": [
            {
              "internalType": "bytes32",
              "name": "smtRoot",
              "type": "bytes32"
            },
            {
              "components": [
                {
                  "internalType": "uint64",
                  "name": "blkNum",
                  "type": "uint64"
                },
                {
                  "internalType": "uint64",
                  "name": "receiptIndex",
                  "type": "uint64"
                },
                {
                  "components": [
                    {
                      "components": [
                        {
                          "internalType": "uint8",
                          "name": "valueFromTopic",
                          "type": "uint8"
                        },
                        {
                          "internalType": "uint64",
                          "name": "valueIndex",
                          "type": "uint64"
                        },
                        {
                          "internalType": "address",
                          "name": "contractAddress",
                          "type": "address"
                        },
                        {
                          "internalType": "bytes32",
                          "name": "logTopic0",
                          "type": "bytes32"
                        }
                      ],
                      "internalType": "struct Brevis.LogExtraInfo",
                      "name": "logExtraInfo",
                      "type": "tuple"
                    },
                    {
                      "internalType": "uint64",
                      "name": "logIndex",
                      "type": "uint64"
                    },
                    {
                      "internalType": "bytes32",
                      "name": "value",
                      "type": "bytes32"
                    }
                  ],
                  "internalType": "struct Brevis.LogInfo[5]",
                  "name": "logs",
                  "type": "tuple[5]"
                }
              ],
              "internalType": "struct Brevis.ReceiptInfo[]",
              "name": "receipts",
              "type": "tuple[]"
            },
            {
              "components": [
                {
                  "internalType": "bytes32",
                  "name": "blockHash",
                  "type": "bytes32"
                },
                {
                  "internalType": "address",
                  "name": "account",
                  "type": "address"
                },
                {
                  "internalType": "bytes32",
                  "name": "slot",
                  "type": "bytes32"
                },
                {
                  "internalType": "bytes32",
                  "name": "slotValue",
                  "type": "bytes32"
                },
                {
                  "internalType": "uint64",
                  "name": "blockNumber",
                  "type": "uint64"
                }
              ],
              "internalType": "struct Brevis.StorageInfo[]",
              "name": "stores",
              "type": "tuple[]"
            },
            {
              "components": [
                {
                  "internalType": "bytes32",
                  "name": "leafHash",
                  "type": "bytes32"
                },
                {
                  "internalType": "bytes32",
                  "name": "blockHash",
                  "type": "bytes32"
                },
                {
                  "internalType": "uint64",
                  "name": "blockNumber",
                  "type": "uint64"
                },
                {
                  "internalType": "uint64",
                  "name": "blockTime",
                  "type": "uint64"
                },
                {
                  "internalType": "bytes",
                  "name": "leafRlpPrefix",
                  "type": "bytes"
                }
              ],
              "internalType": "struct Brevis.TransactionInfo[]",
              "name": "txs",
              "type": "tuple[]"
            }
          ],
          "internalType": "struct Brevis.ExtractInfos",
          "name": "_extractInfos",
          "type": "tuple"
        }
      ],
      "name": "validateRequest",
      "outputs": [],
      "stateMutability": "view",
      "type": "function"
    },
    {
      "inputs": [
        {
          "internalType": "uint64",
          "name": "",
          "type": "uint64"
        }
      ],
      "name": "verifierAddresses",
      "outputs": [
        {
          "internalType": "contract IZkpVerifier",
          "name": "contractAppZkVerifier",
          "type": "address"
        },
        {
          "internalType": "contract IZkpVerifier",
          "name": "circuitAppZkVerifier",
          "type": "address"
        }
      ],
      "stateMutability": "view",
      "type": "function"
    },
    {
      "inputs": [
        {
          "internalType": "bytes32",
          "name": "",
          "type": "bytes32"
        }
      ],
      "name": "vkHashesToBatchSize",
      "outputs": [
        {
          "internalType": "uint256",
          "name": "",
          "type": "uint256"
        }
      ],
      "stateMutability": "view",
      "type": "function"
    }
  ],
  "transactionHash": "0xc624deb4df40b2eadfe1ae75b8cdb2629c3d7730a13cd58a1c998577ad159a7d",
  "args": [
    "0x12dF1E33C09e0e25aCA7c7D3ff2d502E771C839C"
  ],
  "numDeployments": 3,
  "solcInputHash": "c690a38e8ee329a98cd7f0d2670e4a05",
  "bytecode": "0x6080346100a757601f61189b38819003918201601f19168301916001600160401b038311848410176100ac578084926020946040528339810103126100a757516001600160a01b0390818116908190036100a75760005460018060a01b0319903382821617600055604051933391167f8be0079c531659141344cd1fd0a4f28419497f9722a3daafe3b4186f6b6457e0600080a360045416176004556117d890816100c38239f35b600080fd5b634e487b7160e01b600052604160045260246000fdfe6080604052600436101561001257600080fd5b60003560e01c80631396511e146113335780631be746b1146113075780631e4971bb1461120957806325e4903414610e3f5780633221aec614610e18578063444d95b014610db5578063715018a614610d585780637c08aa74146104db5780638da5cb5b146104b45780639546bf0014610413578063b201326e14610218578063e3d1e6d6146101ea578063f2fde38b1461010a5763f5cec6af146100b657600080fd5b346101055760203660031901126101055767ffffffffffffffff6100d86113d8565b1660005260036020526040806000206001600160a01b036001818354169201541682519182526020820152f35b600080fd5b34610105576020366003190112610105576004356001600160a01b0380821680920361010557600054908116906101423383146113ef565b821561017f576001600160a01b0319839116176000557f8be0079c531659141344cd1fd0a4f28419497f9722a3daafe3b4186f6b6457e0600080a3005b60405162461bcd60e51b815260206004820152602660248201527f4f776e61626c653a206e6577206f776e657220697320746865207a65726f206160448201527f64647265737300000000000000000000000000000000000000000000000000006064820152608490fd5b3461010557602036600319011261010557600435600052600160205260206040600020541515604051908152f35b346101055760403660031901126101055767ffffffffffffffff6004358181116101055761024a9036906004016113a7565b909160249081359381851161010557366023860112156101055784600401359282841161010557600692368286861b8901011161010557946001600160a01b03949392949261029e846000541633146113ef565b6102a98583146116f5565b60005b82811061037c575050604051958160408801604089525260608701959160005b81811061035257505050506020848682960382880152848152019501926000915b83831061031c577fc343b5bb763b4b0cdbd72c4b7a9627ce33d7eaff0cecca036b0af41ce9ca55a886880387a1005b9091929395604080600192846103318b611751565b16815284610340878c01611751565b168187015201970194930191906102ed565b909192949596853590848216809203610105579081526020908101979695019291906001016102cc565b85819893989795969710156103fe57806103f291831b8a01846103a86103a3848d8b611741565b6115e7565b1660005260036020526040600020886103e560446001836103ca8c88016115fc565b16946001600160a01b031995868254161781550194016115fc565b16908254161790556115a1565b969196959493956102ac565b83634e487b7160e01b60005260326004526000fd5b346101055760203660031901126101055761042c61166d565b50600435600052600160205260c0604060002060405161044b8161143a565b8154918282526001810154602083019081526002820154604084019081526003830154916060850192835260a0600560048601549560808801968752015495019485526040519586525160208601525160408501525160608401525160808301525160a0820152f35b346101055760003660031901126101055760206001600160a01b0360005416604051908152f35b34610105576003196060368201126101055767ffffffffffffffff60243516602435036101055767ffffffffffffffff60443511610105576080906044353603011261010557600435600052600160205260406000206040519061053e8261143a565b600581549182845260018101546020850152600281015460408501526003810154606085015260048101546080850152015460a083015215610d13576001600160a01b03600454166020604051809263080cdb0b60e11b825281806105c660443560040135602435600484016020909392919367ffffffffffffffff60408201951681520152565b03915afa8015610d07576105e291600091610cd8575b50611490565b61062d6106196105fc6024604435016044356004016114dc565b90506106116044803501604435600401611512565b919050611548565b61061160646044350160443560040161156b565b908115610c935760408101516000526002602052604060002054808311610c4e5760009260605b6106686024604435016044356004016114dc565b90508510156108ba5784606060005b6005811061074c575060206107469383610740936107206106d4856106ce6106b96103a36107329b6106b36024604435016044356004016114dc565b906115b0565b956106b36024604435016044356004016114dc565b016115e7565b92610712604051938492888401966044356004013588526001600160c01b0319918260c091821b1660408701521b1660488401526050830190611610565b03601f198101835282611456565b51902060405194859284840190611610565b908152038084520182611456565b946115a1565b93610654565b9182604061076b610771936106b36024604435016044356004016114dc565b016115d6565b359060ff82168203610105576108ac60656108b293610851936107ae60806106ce898f61076b6040916106b36024604435016044356004016114dc565b918c6107d360206106ce8b604061076b866106b36024604435016044356004016114dc565b936107fc60406107f68c8261076b876106b36024604435016044356004016114dc565b016115fc565b9060a061083e8c604061076b6060610827848461076b8c6106b36024604435016044356004016114dc565b0135976106b36024604435016044356004016114dc565b013595604051998a966020880190611610565b9460ff60f81b9060f81b1685526001600160c01b0319918260c091821b1660018701521b1660098401526bffffffffffffffffffffffff199060601b1660118301526025820152604592838201520390810184520182611456565b916115a1565b908691610677565b926000935b6108d26044803501604435600401611512565b9050851015610a68576108f8856108f26044803501604435600401611512565b9061163b565b359061091660206107f6886108f26044803501604435600401611512565b604051906bffffffffffffffffffffffff199060601b1660208201526014815280604081011067ffffffffffffffff604083011117610a525760408101604052602081519101206040610976886108f26044803501604435600401611512565b01356060610991896108f26044803501604435600401611512565b0135906109b060806106ce8b6108f26044803501604435600401611512565b926040519560443560040135602088015260408701526060860152608085015260a08401526001600160c01b031960c091821b169083015260a882528160e081011067ffffffffffffffff60e084011117610a525781610a458160e09384610a4c9601604052610a2c8251602084012091610100840190611610565b9081520360df1981018484015260bf1901838301611456565b01946115a1565b936108bf565b634e487b7160e01b600052604160045260246000fd5b926000935b610a8160646044350160443560040161156b565b9050851015610b9b57610aa885610aa260646044350160443560040161156b565b9061164b565b35906020610ac487610aa260646044350160443560040161156b565b0135610ae360406106ce89610aa260646044350160443560040161156b565b90610b0160606106ce8a610aa260646044350160443560040161156b565b9060405194604435600401356020870152604086015260608501526001600160c01b0319809260c01b16608085015260c01b166088830152607082528160a081011067ffffffffffffffff60a084011117610a525781610a458160a09384610b959601604052610b7c825160208401209160c0840190611610565b90815203609f19810184840152607f1901838301611456565b93610a6d565b9192818110610bfc575b505060208151910120905103610bb757005b60405162461bcd60e51b815260206004820152601d60248201527f636f6d6d69744861736820616e6420696e666f206e6f74206d617463680000006044820152606490fd5b905b80821015610ba5579091610c23610c426020610c489360405193849183830190611610565b7001000000000000000000000000000000018152038084520182611456565b926115a1565b90610bfe565b60405162461bcd60e51b815260206004820152601e60248201527f6974656d206c656e67746820657863656564732062617463682073697a6500006044820152606490fd5b60405162461bcd60e51b815260206004820152600b60248201527f656d707479206974656d730000000000000000000000000000000000000000006044820152606490fd5b610cfa915060203d602011610d00575b610cf28183611456565b810190611478565b836105dc565b503d610ce8565b6040513d6000823e3d90fd5b60405162461bcd60e51b815260206004820152601060248201527f70726f6f66206e6f7420657869737473000000000000000000000000000000006044820152606490fd5b3461010557600036600319011261010557600080546001600160a01b03196001600160a01b03821691610d8c3384146113ef565b1682557f8be0079c531659141344cd1fd0a4f28419497f9722a3daafe3b4186f6b6457e08280a3005b3461010557602036600319011261010557600435600052600160205260c0604060002080549060018101549060028101546003820154906005600484015493015493604051958652602086015260408501526060840152608083015260a0820152f35b346101055760003660031901126101055760206001600160a01b0360045416604051908152f35b3461010557606036600319011261010557610e586113d8565b6024803567ffffffffffffffff80821161010557366023830112156101055781600401359381851161010557368486850101116101055760449182359081158015830361010557156111e757821660005260036020526001600160a01b0360406000205416925b6001600160a01b038094169485156111a457604051976322bb937360e11b8952602098896004820152818982015289818a850199848b888401376000878684010152818781601f19601f89011681010301915afa908115610d0757600091611187575b501561114457610f3061166d565b96841561110b57610f4c8282610f52610f4c83610f6b9661169f565b906116d8565b8b52610f61610f4c83836116b2565b60a08c01526116c5565b6040880152806101e011610105576101e482013560608801526102001161010557610204013560808601525b60408501958651156110c9578651600052600288526040600020541561108757505090859161100d575b505050805160005260018352600560a060406000209280519485855586820151600186015551600285015560608101516003850155608081015160048501550151910155604051908152f35b6004805460a086015160405163080cdb0b60e11b815267ffffffffffffffff94909416928401929092526024830191909152909283916044918391165afa8015610d07576110629160009161106a5750611490565b838381610fc1565b6110819150853d8711610d0057610cf28183611456565b856105dc565b7f766b48617368206e6f742076616c69640000000000000000000000000000000060649260108a936040519462461bcd60e51b86526004860152840152820152fd5b7f766b486173682073686f756c64206265206c6172676572207468616e20300000606492601e8a936040519462461bcd60e51b86526004860152840152820152fd5b61113a92509081611122610f4c83610f4c9561169f565b8952611131610f4c83836116b2565b8b8a01526116c5565b6040860152610f97565b60405162461bcd60e51b8152600481018a9052600f818a01527f70726f6f66206e6f742076616c6964000000000000000000000000000000000081850152606490fd5b61119e91508a3d8c11610d0057610cf28183611456565b8a610f22565b60405162461bcd60e51b8152602060048201526016818901527f636861696e207665726966696572206e6f74207365740000000000000000000081840152606490fd5b821660005260036020526001600160a01b036001604060002001541692610ebf565b346101055760403660031901126101055767ffffffffffffffff6004358181116101055761123b9036906004016113a7565b91602435908111610105576112549036906004016113a7565b61126d6001600160a01b036000959395541633146113ef565b6112788183146116f5565b60005b8281106112d357507f011d93b74200525baf6adf5cba27a9d8f45c6aec5f9862889711c9f1630879ac936112ce916112c0604051958695604087526040870191611765565b918483036020860152611765565b0390a1005b806112e2611302928488611741565b356112ee828688611741565b3560005260026020526040600020556115a1565b61127b565b346101055760203660031901126101055760043560005260026020526020604060002054604051908152f35b34610105576020366003190112610105576004356001600160a01b03808216809203610105577f674c535cde998bcb47d0688f644df545597c7d6edb95643cb21c82c2d490ff7f9161138c6020926000541633146113ef565b806001600160a01b03196004541617600455604051908152a1005b9181601f840112156101055782359167ffffffffffffffff8311610105576020808501948460051b01011161010557565b6004359067ffffffffffffffff8216820361010557565b156113f657565b606460405162461bcd60e51b815260206004820152602060248201527f4f776e61626c653a2063616c6c6572206973206e6f7420746865206f776e65726044820152fd5b60c0810190811067ffffffffffffffff821117610a5257604052565b90601f8019910116810190811067ffffffffffffffff821117610a5257604052565b90816020910312610105575180151581036101055790565b1561149757565b60405162461bcd60e51b815260206004820152601260248201527f736d7420726f6f74206e6f742076616c696400000000000000000000000000006044820152606490fd5b903590601e1981360301821215610105570180359067ffffffffffffffff8211610105576020019181600a1b3603831361010557565b903590601e1981360301821215610105570180359067ffffffffffffffff8211610105576020019160a082023603831361010557565b9190820180921161155557565b634e487b7160e01b600052601160045260246000fd5b903590601e1981360301821215610105570180359067ffffffffffffffff821161010557602001918160051b3603831361010557565b60001981146115555760010190565b91908110156115c057600a1b0190565b634e487b7160e01b600052603260045260246000fd5b9060058110156115c05760c0020190565b3567ffffffffffffffff811681036101055790565b356001600160a01b03811681036101055790565b9081519160005b838110611628575050016000815290565b8060208092840101518185015201611617565b91908110156115c05760a0020190565b91908110156115c05760051b81013590609e1981360301821215610105570190565b6040519061167a8261143a565b8160a06000918281528260208201528260408201528260608201528260808201520152565b9061018011610105576101600190602090565b906101a011610105576101800190602090565b906101c011610105576101a00190602090565b3590602081106116e6575090565b6000199060200360031b1b1690565b156116fc57565b60405162461bcd60e51b815260206004820152601060248201527f6c656e677468206e6f74206d61746368000000000000000000000000000000006044820152606490fd5b91908110156115c05760051b0190565b35906001600160a01b038216820361010557565b90918281527f07ffffffffffffffffffffffffffffffffffffffffffffffffffffffffffffff83116101055760209260051b80928483013701019056fea2646970667358221220bcb92b7820ee125973b81f4ea6e44edfc53d7e14249b6e4f93cf0ccfba53b60064736f6c63430008140033",
  "devdoc": {
    "kind": "dev",
    "methods": {
      "owner()": {
        "details": "Returns the address of the current owner."
      },
      "renounceOwnership()": {
        "details": "Leaves the contract without owner. It will not be possible to call `onlyOwner` functions anymore. Can only be called by the current owner. NOTE: Renouncing ownership will leave the contract without an owner, thereby removing any functionality that is only available to the owner."
      },
      "transferOwnership(address)": {
        "details": "Transfers ownership of the contract to a new account (`newOwner`). Can only be called by the current owner."
      }
    },
    "version": 1
  },
  "userdoc": {
    "kind": "user",
    "methods": {},
    "version": 1
  },
  "storageLayout": {
    "storage": [
      {
        "astId": 7,
        "contract": "contracts/sdk/core/BrevisProof.sol:BrevisProof",
        "label": "_owner",
        "offset": 0,
        "slot": "0",
        "type": "t_address"
      },
      {
        "astId": 2469,
        "contract": "contracts/sdk/core/BrevisProof.sol:BrevisProof",
        "label": "proofs",
        "offset": 0,
        "slot": "1",
        "type": "t_mapping(t_bytes32,t_struct(ProofData)3866_storage)"
      },
      {
        "astId": 2473,
        "contract": "contracts/sdk/core/BrevisProof.sol:BrevisProof",
        "label": "vkHashesToBatchSize",
        "offset": 0,
        "slot": "2",
        "type": "t_mapping(t_bytes32,t_uint256)"
      },
      {
        "astId": 2478,
        "contract": "contracts/sdk/core/BrevisProof.sol:BrevisProof",
        "label": "verifierAddresses",
        "offset": 0,
        "slot": "3",
        "type": "t_mapping(t_uint64,t_struct(ChainZKVerifier)2464_storage)"
      },
      {
        "astId": 2481,
        "contract": "contracts/sdk/core/BrevisProof.sol:BrevisProof",
        "label": "smtContract",
        "offset": 0,
        "slot": "4",
        "type": "t_contract(ISMT)758"
      }
    ],
    "types": {
      "t_address": {
        "encoding": "inplace",
        "label": "address",
        "numberOfBytes": "20"
      },
      "t_bytes32": {
        "encoding": "inplace",
        "label": "bytes32",
        "numberOfBytes": "32"
      },
      "t_contract(ISMT)758": {
        "encoding": "inplace",
        "label": "contract ISMT",
        "numberOfBytes": "20"
      },
      "t_contract(IZkpVerifier)4267": {
        "encoding": "inplace",
        "label": "contract IZkpVerifier",
        "numberOfBytes": "20"
      },
      "t_mapping(t_bytes32,t_struct(ProofData)3866_storage)": {
        "encoding": "mapping",
        "key": "t_bytes32",
        "label": "mapping(bytes32 => struct Brevis.ProofData)",
        "numberOfBytes": "32",
        "value": "t_struct(ProofData)3866_storage"
      },
      "t_mapping(t_bytes32,t_uint256)": {
        "encoding": "mapping",
        "key": "t_bytes32",
        "label": "mapping(bytes32 => uint256)",
        "numberOfBytes": "32",
        "value": "t_uint256"
      },
      "t_mapping(t_uint64,t_struct(ChainZKVerifier)2464_storage)": {
        "encoding": "mapping",
        "key": "t_uint64",
        "label": "mapping(uint64 => struct BrevisProof.ChainZKVerifier)",
        "numberOfBytes": "32",
        "value": "t_struct(ChainZKVerifier)2464_storage"
      },
      "t_struct(ChainZKVerifier)2464_storage": {
        "encoding": "inplace",
        "label": "struct BrevisProof.ChainZKVerifier",
        "members": [
          {
            "astId": 2460,
            "contract": "contracts/sdk/core/BrevisProof.sol:BrevisProof",
            "label": "contractAppZkVerifier",
            "offset": 0,
            "slot": "0",
            "type": "t_contract(IZkpVerifier)4267"
          },
          {
            "astId": 2463,
            "contract": "contracts/sdk/core/BrevisProof.sol:BrevisProof",
            "label": "circuitAppZkVerifier",
            "offset": 0,
            "slot": "1",
            "type": "t_contract(IZkpVerifier)4267"
          }
        ],
        "numberOfBytes": "64"
      },
      "t_struct(ProofData)3866_storage": {
        "encoding": "inplace",
        "label": "struct Brevis.ProofData",
        "members": [
          {
            "astId": 3855,
            "contract": "contracts/sdk/core/BrevisProof.sol:BrevisProof",
            "label": "commitHash",
            "offset": 0,
            "slot": "0",
            "type": "t_bytes32"
          },
          {
            "astId": 3857,
            "contract": "contracts/sdk/core/BrevisProof.sol:BrevisProof",
            "label": "length",
            "offset": 0,
            "slot": "1",
            "type": "t_uint256"
          },
          {
            "astId": 3859,
            "contract": "contracts/sdk/core/BrevisProof.sol:BrevisProof",
            "label": "vkHash",
            "offset": 0,
            "slot": "2",
            "type": "t_bytes32"
          },
          {
            "astId": 3861,
            "contract": "contracts/sdk/core/BrevisProof.sol:BrevisProof",
            "label": "appCommitHash",
            "offset": 0,
            "slot": "3",
            "type": "t_bytes32"
          },
          {
            "astId": 3863,
            "contract": "contracts/sdk/core/BrevisProof.sol:BrevisProof",
            "label": "appVkHash",
            "offset": 0,
            "slot": "4",
            "type": "t_bytes32"
          },
          {
            "astId": 3865,
            "contract": "contracts/sdk/core/BrevisProof.sol:BrevisProof",
            "label": "smtRoot",
            "offset": 0,
            "slot": "5",
            "type": "t_bytes32"
          }
        ],
        "numberOfBytes": "192"
      },
      "t_uint256": {
        "encoding": "inplace",
        "label": "uint256",
        "numberOfBytes": "32"
      },
      "t_uint64": {
        "encoding": "inplace",
        "label": "uint64",
        "numberOfBytes": "8"
      }
    }
  }
}