{
  "address": "0x2c11c33fE5122Ed698Bb443E769Df367fcb54cbD",
  "abi": [
    {
      "inputs": [
        {
          "internalType": "uint64",
          "name": "",
          "type": "uint64"
        },
        {
          "internalType": "bytes32",
          "name": "",
          "type": "bytes32"
        }
      ],
      "name": "isSmtRootValid",
      "outputs": [
        {
          "internalType": "bool",
          "name": "",
          "type": "bool"
        }
      ],
      "stateMutability": "pure",
      "type": "function"
    },
    {
      "inputs": [
        {
          "internalType": "uint64",
          "name": "chainId",
          "type": "uint64"
        },
        {
          "components": [
            {
              "internalType": "bytes32",
              "name": "newSmtRoot",
              "type": "bytes32"
            },
            {
              "internalType": "uint64",
              "name": "endBlockNum",
              "type": "uint64"
            },
            {
              "internalType": "bytes32",
              "name": "endBlockHash",
              "type": "bytes32"
            },
            {
              "internalType": "bytes32",
              "name": "nextChunkMerkleRoot",
              "type": "bytes32"
            },
            {
              "internalType": "uint256[8]",
              "name": "proof",
              "type": "uint256[8]"
            },
            {
              "internalType": "uint256[2]",
              "name": "commit",
              "type": "uint256[2]"
            },
            {
              "internalType": "uint256[2]",
              "name": "knowledgeProof",
              "type": "uint256[2]"
            }
          ],
          "internalType": "struct ISMT.SmtUpdate",
          "name": "u",
          "type": "tuple"
        }
      ],
      "name": "updateRoot",
      "outputs": [],
      "stateMutability": "nonpayable",
      "type": "function"
    }
  ],
  "transactionHash": "0x93e95d2d3e76b8e60e8cc5de8fd679d69c3022425844130907ec414ed67263d1",
  "args": [],
  "numDeployments": 1,
  "solcInputHash": "fc6c505b4e4c814a86385cd81dc5cecf",
  "bytecode": "0x6080806040523461001657610253908161001c8239f35b600080fdfe6080604090808252600436101561001557600080fd5b600090813560e01c9081631019b616146101a757506397c7c3091461003957600080fd5b346101a4576102203660031901126101a4576100536101cb565b506102003660231901126101a457815167ffffffffffffffff929060e0810184811182821017610190578252602435815260443593808516850361014a57602094858301526064358383015260843560608301523660c3121561014a5782519261010084019182118483101761017c5752816101a492368411610178578560a4915b858310610169575050506080820152366101c31215610165576100f66101e7565b90816101e493368511610161578690915b8583106101525750505060a0015236610203121561014e576101276101e7565b6102249136831161014a57905b82821061013f578380f35b908401908401610134565b8380fd5b5080fd5b82358152918101918101610107565b8580fd5b8280fd5b823581529181019181016100d5565b8480fd5b634e487b7160e01b85526041600452602485fd5b634e487b7160e01b84526041600452602484fd5b80fd5b905082346101655736600319011261014e576020906101c46101cb565b5060018152f35b6004359067ffffffffffffffff821682036101e257565b600080fd5b604051906040820182811067ffffffffffffffff82111761020757604052565b634e487b7160e01b600052604160045260246000fdfea264697066735822122080da0144913492b8ef4b738aa08583f55935aa1d1db5a779d63d02e65e04f73e64736f6c63430008140033",
  "devdoc": {
    "kind": "dev",
    "methods": {},
    "version": 1
  },
  "userdoc": {
    "kind": "user",
    "methods": {},
    "version": 1
  },
  "storageLayout": {
    "storage": [],
    "types": null
  }
}