{
  "address": "0xEbD4E2dF7F6F7CeEf8b6747682e16b91bd7c234e",
  "abi": [
    {
      "inputs": [
        {
          "internalType": "address",
          "name": "",
          "type": "address"
        }
      ],
      "name": "getAttestedSwapSumVolume",
      "outputs": [
        {
          "internalType": "uint256",
          "name": "",
          "type": "uint256"
        }
      ],
      "stateMutability": "pure",
      "type": "function"
    }
  ],
  "transactionHash": "0x37b388e40a0d83fdca48417d5795825846c8a6f1ad44f6a196d76bdd1d6652f3",
  "args": [],
  "numDeployments": 1,
  "solcInputHash": "ac5d8826f3833ba3792d37fc27973b65",
  "bytecode": "0x608080604052346014576096908161001a8239f35b600080fdfe6080806040526004361015601257600080fd5b600090813560e01c63950650c114602857600080fd5b34605c576020366003190112605c5760043573ffffffffffffffffffffffffffffffffffffffff811603605c576020918152f35b5080fdfea26469706673582212206d7b87731f223268896505f6e30e7a2cb74feedb13d343153fa297375148fcc164736f6c63430008140033",
  "devdoc": {
    "kind": "dev",
    "methods": {},
    "version": 1
  },
  "userdoc": {
    "kind": "user",
    "methods": {},
    "version": 1
  },
  "storageLayout": {
    "storage": [],
    "types": null
  }
}