{
  "address": "0x43323978a87e0535460ae3aB31E35Cf7e7CB193C",
  "abi": [
    {
      "inputs": [],
      "name": "ProofInvalid",
      "type": "error"
    },
    {
      "inputs": [],
      "name": "PublicInputNotInField",
      "type": "error"
    },
    {
      "inputs": [
        {
          "internalType": "uint256[8]",
          "name": "proof",
          "type": "uint256[8]"
        },
        {
          "internalType": "uint256[2]",
          "name": "commitment",
          "type": "uint256[2]"
        },
        {
          "internalType": "uint256[2]",
          "name": "commitmentPOK",
          "type": "uint256[2]"
        },
        {
          "internalType": "uint256[7]",
          "name": "input",
          "type": "uint256[7]"
        }
      ],
      "name": "verifyProof",
      "outputs": [
        {
          "internalType": "bool",
          "name": "",
          "type": "bool"
        }
      ],
      "stateMutability": "view",
      "type": "function"
    },
    {
      "inputs": [
        {
          "internalType": "bytes",
          "name": "proofData",
          "type": "bytes"
        }
      ],
      "name": "verifyRaw",
      "outputs": [
        {
          "internalType": "bool",
          "name": "",
          "type": "bool"
        }
      ],
      "stateMutability": "view",
      "type": "function"
    }
  ],
  "transactionHash": "0x07c9e148def0a161de2b2b7a1842abc411f693a9349d0c41ce57d0f8109d753e",
  "args": [],
  "numDeployments": 2,
  "solcInputHash": "81cabac4e2651966b55722bf09984a00",
  "bytecode": "0x6080806040523461001657610e98908161001c8239f35b600080fdfe6080806040526004908136101561001557600080fd5b600090813560e01c908163457726e614610a98575063e6cc9bc91461003957600080fd5b34610a7157610260366003190112610a71573660231215610a71576040519061006182610daf565b61010482368211610a845784905b828210610a88575050366101231215610a59576040519161008f83610de2565b8261014492368411610a8457905b838210610a74575050366101631215610a7157604051916100bd83610de2565b8261018491368311610a6d57905b828210610a5d575050366101a31215610a5957604051906100eb82610dfe565b8161026491368311610a5557905b828210610a45575050508351602085015192604051936020850192835260408501526040845283606081011067ffffffffffffffff606086011117610a325750600080516020610e4383398151915290606084016040528351902006907f261022417f26f56da0091d1c15a4ec55262cb643d2ae607a679fe3bbce0fbe1a60608401527f26e90d7163dac80757dbc63a660d165516d3bb445eda07a1c6280b533400250e60808401527f1d30d9212f5ab47103ceac9601a394758269e7fecd9e00010cb9d299f7d0f85460a08401527f29cf6857e5513cb3a56d44b73d4b5da59a6e3875fce953892319f226af1e59d060c084015260e081518082860152600080516020610e43833981519152604060a08701606060a0890160075afa91101660406060860160808160065afa167f0b30bbee1602bf5feb3521e3502d23bed8cc5f64a79fba0604a544ab29b30d4360a08601527f0e14db793b9d0dfd91a75021994dc5014df77fff848b354a79948ae6afe6ae1660c08601526020830151908183870152604060a08701606060a0890160075afa90600080516020610e4383398151915260406060890160808160065afa93101616167f13c86e52133fd9fdc2f5c5a17f9b4ee11b1510c700ee20d8c36a504d94d3c34c60a08601527f01ddc7f6cf15e0d4cdfdc8cd2f4c6c0c0ef7efb71d2edbb47435868bdf3434ae60c08601526040830151908183870152604060a08701606060a0890160075afa90600080516020610e4383398151915260406060890160808160065afa93101616167f0535c781967816262cd457b9734920de345f402260f520e04ccbd33036d120f660a08601527f2d5639e550a47d73d5fe8cb090389b3550e4e430384003809c6a158c488fc87a60c08601526060830151908183870152604060a08701606060a0890160075afa90600080516020610e4383398151915260406060890160808160065afa93101616167f1ca96b8aa8ed60536dda4ce406a2cd2711ae7647a669e53deb0271dc0c18035f60a08601527f057af389311ec2e4752c73b97c45101b6f1354d645a48af91719bfc3945a5f9960c086015260808301519081838701526001604060a08801606060a08a0160075afa91600080516020610e43833981519152604060608a0160808160065afa9410161616167f2ecc6f86e250226013761796ab5a709619da79c275d598d2fab500b612e4199460a08601527f270b1d34a341885e23dfd455b6969f1db6f98ac92e87139690bf211b34f9162f60c086015260a0830151908183870152604060a08701606060a0890160075afa90600080516020610e4383398151915260406060890160808160065afa93101616167f141c63f8b852f90a5abafb8eabd016b3750e34b2bff2a4da4eba27513e531bca60a08601527f1487435d82470d6a9d459b891baec8040e31d21d0a8f9dd5632a1f6ac3844aea60c086015260c0830151908183870152604060a08701606060a0890160075afa90600080516020610e4383398151915260406060890160808160065afa9310161616917f011005c26d954450e6bcfd217e38b9c35dc5a47cb2899dbd912e10f78d61e7a860a08601527f197ca0f3bf32e0c4279f91256031f3381aaafe6b1d59204e2c025db3775bfe4e60c086015201519160e0840152604060a08401606060a0860160075afa90600080516020610e4383398151915260406060860160808160065afa875160a0870152602088015160c0870152931016161660406060830160808160065afa1692608060608301519201519315610a2157602093849286519684810151906040810151606082015160808301519060a08401519260e060c0860151950151958a6040519e8f908152015260408d015260608c015260808b015260a08a015260c089015260e08801527f2b81117086228e373f592a7dd81a2814edf71ffc2f7bc3d9bae560f5e254f2c26101008801527f0de86a61155d47ed5fc111fd14385eda80b5b968c22ca1007c3bc1640c9708236101208801527f214038f33d3122baaa1eed0bdc1a0e2028fd0e0dc1f3d54ba26e84e99ecc6b586101408801527f1a8a37287853aec64408b6ec12f7afafc748cb13d566cada9e94806c7d4763d96101608801527f20342231db92843cfc010f76a04cf9c8dfe2cf771af2af3c28fda10ba0c26f316101808801527f093ea79eeead908e6c2d2a907b2bc1896199878d8bf753d9c90312037211be9d6101a08801527f20e158f6c6d0f74a322d759cbbb964889ac8372e294182effbb37412ed8f26126101c08801527f0b0c54d3ee7cbd4b69be975670041c97922101401384e1ce7326a2673de957a16101e08801527f17a93304650fafe42b41bc72c33f135c0572a2ffae107f1fa91eb56b4090a8556102008801527f20b75089228b10bd3b33096a14265bc8b267532ab2c79bc44578ffe22bdbc2986102208801526102408701526102608601527f1cd6509c348fb818d603809ee0197193cdcc51235fc01cc5dc378f0b3d854f196102808601527f25fe267b5744f22708d068314fd80572403ad28125d509836eaf7a2fcda6e5fb6102a08601527f1c33240f34eda47f87f09cceac6d224e9bc4688e13a454d3d89a947982fb87926102c08601527f058b8dcac5a8e52ecb23cdf19be83c4c8df08c454f27bd5cb618249388e683ae6102e0860152805161030086015201516103208401527f2aadf2b92c285169d98711864c777d405fa96b2b9d4574ac703e0279072a195f6103408401527f01966aa76d1eb67973ccc9a01adb5d9f4ba4620e0aa15c3014c32ec5c3e0b8cc6103608401527f28117e0ffbd855363e4d44a08e3403b4146f31f96cc4aa896185a187e979fe4a6103808401527f1d0c6246f802a091c7f75a81cb3905b7ddc0e1c99d83793d4499aff0232629846103a084015280516103c084015201516103e08201527f266886e155b2d39e0e619b3f31eb03695f751fa2d7a23b88ce390d64fecd0b8d6104008201527f2e291b8a7fbc9ca4fdc861dd36dd14bf162213e168b476c5d16f303aec527fb36104208201527f092d26aa21cec8ed59bebfc0ba20d440560a3121c79b7d8ee4de19b45c1fa5296104408201527f206180df8d2c67f1af3e5d6f4e7d0b1de61740e03ef3cf0a580f7fd00e302d776104608201526020816104808160085afa90511615610a1257602060405160018152f35b604051631ff3747d60e21b8152fd5b60405163a54f8e2760e01b81528690fd5b634e487b7160e01b815260418852602490fd5b81358152602091820191016100f9565b8480fd5b5080fd5b81358152602091820191016100cb565b8380fd5b80fd5b813581526020918201910161009d565b8280fd5b813581526020918201910161006f565b838334610a715760209283600319360112610a595767ffffffffffffffff928035848111610a6d5736602382011215610a6d5780820135858111610a55573660248284010111610a5557610aeb84610daf565b6101009182368637818811610da7576024810135855281604011610da75760448101358886015281606011610da75760648101356040860152608092828411610dab57608482013560608701528260a011610dab5760a4820135848701528260c011610dab5760c482013560a08701528260e011610dab57829060e483013560c088015211610da7576101048082013560e0870152604051610b8c81610de2565b60403682378361012011610da35761012483013581528361014011610da35761014491828401358b83015260405193610bc485610de2565b60403686378561016011610d975761016481013585528561018011610d975761018495868201358d87015260405197610bfc89610dfe565b60e0368a37816101a011610d9f576101a48301358952816101b011610d9f578d6101c4840135821c908a0152816101c011610d9f576101d4830135811c60408a0152816101d011610d9f576101e4830135811c60608a0152816101e011610d9f576101f4830135811c908901528061020011610d9b5761020482013560a089015261022011610d9757610224013560c087015260405163e6cc9bc960e01b815297898c898b015b60088310610d805750505050610cc9939291610cc191890190610e1a565b860190610e1a565b830184905b8760078310610d6c57925050508261026481305afa938415610d61578394610cfd575b85856040519015158152f35b909192935084913d8611610d59575b601f8301601f1916840191821184831017610d4657508491839160405281010312610a595751908115158203610a71575082808080610cf1565b634e487b7160e01b855260419052602484fd5b3d9250610d0c565b6040513d85823e3d90fd5b806001928551815201930191019091610cce565b908060019285518152019301910190918d90610ca3565b8980fd5b8a80fd5b8b80fd5b8780fd5b8580fd5b8680fd5b610100810190811067ffffffffffffffff821117610dcc57604052565b634e487b7160e01b600052604160045260246000fd5b6040810190811067ffffffffffffffff821117610dcc57604052565b60e0810190811067ffffffffffffffff821117610dcc57604052565b6000915b60028310610e2b57505050565b600190825181526020809101920192019190610e1e56fe30644e72e131a029b85045b68181585d2833e84879b9709143e1f593f0000001a2646970667358221220ce9c39b49bf016c06193262e78fcffc47a5944777b4ff4216a987477685634c564736f6c63430008140033",
  "devdoc": {
    "author": "Remco Bloemen",
    "errors": {
      "ProofInvalid()": [
        {
          "details": "This can mean that provided Groth16 proof points are not on their curves, that pairing equation fails, or that the proof is not for the provided public input."
        }
      ],
      "PublicInputNotInField()": [
        {
          "details": "Public input elements are not automatically reduced, as this is can be a dangerous source of bugs."
        }
      ]
    },
    "kind": "dev",
    "methods": {
      "verifyProof(uint256[8],uint256[2],uint256[2],uint256[7])": {
        "params": {
          "input": "the public input field elements in the scalar field Fr. Elements must be reduced.",
          "proof": "the points (A, B, C) in EIP-197 format matching the output of compressProof."
        }
      }
    },
    "title": "Groth16 verifier template.",
    "version": 1
  },
  "userdoc": {
    "errors": {
      "ProofInvalid()": [
        {
          "notice": "The proof is invalid."
        }
      ],
      "PublicInputNotInField()": [
        {
          "notice": "Some of the provided public input values are larger than the field modulus."
        }
      ]
    },
    "kind": "user",
    "methods": {
      "verifyProof(uint256[8],uint256[2],uint256[2],uint256[7])": {
        "notice": "Verify an uncompressed Groth16 proof.Reverts with InvalidProof if the proof is invalid or with PublicInputNotInField the public input is not reduced.There is no return value. If the function does not revert, the proof was successfully verified."
      }
    },
    "notice": "Supports verifying Groth16 proofs. Proofs can be in uncompressed (256 bytes) and compressed (128 bytes) format. A view function is provided to compress proofs.See <https://2π.com/23/bn254-compression> for further explanation.",
    "version": 1
  },
  "storageLayout": {
    "storage": [],
    "types": null
  }
}