{
  "address": "0x2294E22000dEFe09A307363f7aCD8aAa1fBc1983",
  "abi": [
    {
      "inputs": [
        {
          "internalType": "address",
          "name": "brevisProof",
          "type": "address"
        }
      ],
      "stateMutability": "nonpayable",
      "type": "constructor"
    },
    {
      "anonymous": false,
      "inputs": [
        {
          "indexed": true,
          "internalType": "address",
          "name": "previousOwner",
          "type": "address"
        },
        {
          "indexed": true,
          "internalType": "address",
          "name": "newOwner",
          "type": "address"
        }
      ],
      "name": "OwnershipTransferred",
      "type": "event"
    },
    {
      "anonymous": false,
      "inputs": [
        {
          "indexed": false,
          "internalType": "address",
          "name": "contractAddr",
          "type": "address"
        },
        {
          "indexed": false,
          "internalType": "address",
          "name": "ownerAddr",
          "type": "address"
        },
        {
          "indexed": false,
          "internalType": "uint64",
          "name": "blockNum",
          "type": "uint64"
        }
      ],
      "name": "PastOwnerAttested",
      "type": "event"
    },
    {
      "inputs": [],
      "name": "brevisProof",
      "outputs": [
        {
          "internalType": "contract IBrevisProof",
          "name": "",
          "type": "address"
        }
      ],
      "stateMutability": "view",
      "type": "function"
    },
    {
      "inputs": [
        {
          "internalType": "bytes32",
          "name": "_requestId",
          "type": "bytes32"
        },
        {
          "internalType": "bytes",
          "name": "_circuitOutput",
          "type": "bytes"
        }
      ],
      "name": "callback",
      "outputs": [],
      "stateMutability": "nonpayable",
      "type": "function"
    },
    {
      "inputs": [],
      "name": "owner",
      "outputs": [
        {
          "internalType": "address",
          "name": "",
          "type": "address"
        }
      ],
      "stateMutability": "view",
      "type": "function"
    },
    {
      "inputs": [],
      "name": "renounceOwnership",
      "outputs": [],
      "stateMutability": "nonpayable",
      "type": "function"
    },
    {
      "inputs": [
        {
          "internalType": "bytes32",
          "name": "_vkHash",
          "type": "bytes32"
        }
      ],
      "name": "setVkHash",
      "outputs": [],
      "stateMutability": "nonpayable",
      "type": "function"
    },
    {
      "inputs": [
        {
          "internalType": "address",
          "name": "newOwner",
          "type": "address"
        }
      ],
      "name": "transferOwnership",
      "outputs": [],
      "stateMutability": "nonpayable",
      "type": "function"
    },
    {
      "inputs": [
        {
          "internalType": "bytes32",
          "name": "_requestId",
          "type": "bytes32"
        },
        {
          "internalType": "uint64",
          "name": "_chainId",
          "type": "uint64"
        },
        {
          "components": [
            {
              "internalType": "bytes32",
              "name": "smtRoot",
              "type": "bytes32"
            },
            {
              "components": [
                {
                  "internalType": "uint64",
                  "name": "blkNum",
                  "type": "uint64"
                },
                {
                  "internalType": "uint64",
                  "name": "receiptIndex",
                  "type": "uint64"
                },
                {
                  "components": [
                    {
                      "components": [
                        {
                          "internalType": "uint8",
                          "name": "valueFromTopic",
                          "type": "uint8"
                        },
                        {
                          "internalType": "uint64",
                          "name": "valueIndex",
                          "type": "uint64"
                        },
                        {
                          "internalType": "address",
                          "name": "contractAddress",
                          "type": "address"
                        },
                        {
                          "internalType": "bytes32",
                          "name": "logTopic0",
                          "type": "bytes32"
                        }
                      ],
                      "internalType": "struct Brevis.LogExtraInfo",
                      "name": "logExtraInfo",
                      "type": "tuple"
                    },
                    {
                      "internalType": "uint64",
                      "name": "logIndex",
                      "type": "uint64"
                    },
                    {
                      "internalType": "bytes32",
                      "name": "value",
                      "type": "bytes32"
                    }
                  ],
                  "internalType": "struct Brevis.LogInfo[5]",
                  "name": "logs",
                  "type": "tuple[5]"
                }
              ],
              "internalType": "struct Brevis.ReceiptInfo[]",
              "name": "receipts",
              "type": "tuple[]"
            },
            {
              "components": [
                {
                  "internalType": "bytes32",
                  "name": "blockHash",
                  "type": "bytes32"
                },
                {
                  "internalType": "address",
                  "name": "account",
                  "type": "address"
                },
                {
                  "internalType": "bytes32",
                  "name": "slot",
                  "type": "bytes32"
                },
                {
                  "internalType": "bytes32",
                  "name": "slotValue",
                  "type": "bytes32"
                },
                {
                  "internalType": "uint64",
                  "name": "blockNumber",
                  "type": "uint64"
                }
              ],
              "internalType": "struct Brevis.StorageInfo[]",
              "name": "stores",
              "type": "tuple[]"
            },
            {
              "components": [
                {
                  "internalType": "bytes32",
                  "name": "leafHash",
                  "type": "bytes32"
                },
                {
                  "internalType": "bytes32",
                  "name": "blockHash",
                  "type": "bytes32"
                },
                {
                  "internalType": "uint64",
                  "name": "blockNumber",
                  "type": "uint64"
                },
                {
                  "internalType": "uint64",
                  "name": "blockTime",
                  "type": "uint64"
                },
                {
                  "internalType": "bytes",
                  "name": "leafRlpPrefix",
                  "type": "bytes"
                }
              ],
              "internalType": "struct Brevis.TransactionInfo[]",
              "name": "txs",
              "type": "tuple[]"
            }
          ],
          "internalType": "struct Brevis.ExtractInfos",
          "name": "_extractInfos",
          "type": "tuple"
        }
      ],
      "name": "validateRequest",
      "outputs": [
        {
          "internalType": "bool",
          "name": "",
          "type": "bool"
        }
      ],
      "stateMutability": "view",
      "type": "function"
    },
    {
      "inputs": [],
      "name": "vkHash",
      "outputs": [
        {
          "internalType": "bytes32",
          "name": "",
          "type": "bytes32"
        }
      ],
      "stateMutability": "view",
      "type": "function"
    }
  ],
  "transactionHash": "0x53eedc38a6647810c4ce10dd4e77971bf9fd3035c5866fd029067be30d9bd797",
  "args": [
    "0xCCb58B6025cE10D8F65378E9Af5ccef0eE141Acf"
  ],
  "numDeployments": 1,
  "solcInputHash": "969fa734897fd4eea9e471aedf61469c",
  "bytecode": "0x60a0346100be57601f610e7b38819003918201601f19168301916001600160401b038311848410176100c3578084926020946040528339810103126100be57516001600160a01b0390818116908190036100be576080526000543360018060a01b0319821617600055604051913391167f8be0079c531659141344cd1fd0a4f28419497f9722a3daafe3b4186f6b6457e0600080a3610da190816100da82396080518181816101d2015281816103d8015281816105fd01526106f80152f35b600080fd5b634e487b7160e01b600052604160045260246000fdfe608080604052600436101561001357600080fd5b60003560e01c9081634fe840f514610c0757508063715018a614610b9d5780637859f6d914610b6e5780637c08aa74146104235780638da5cb5b146103fc578063c7f5aaa0146103b8578063eefe3f0b146101695763f2fde38b1461007757600080fd5b34610164576020366003190112610164576004356001600160a01b0380821680920361016457600054908116906100af338314610d20565b82156100f95773ffffffffffffffffffffffffffffffffffffffff19839116176000557f8be0079c531659141344cd1fd0a4f28419497f9722a3daafe3b4186f6b6457e0600080a3005b60405162461bcd60e51b815260206004820152602660248201527f4f776e61626c653a206e6577206f776e657220697320746865207a65726f206160448201527f64647265737300000000000000000000000000000000000000000000000000006064820152608490fd5b600080fd5b34610164576040366003190112610164576024803567ffffffffffffffff91828211610164573660238301121561016457816004013583811161016457818301913681838601011161016457604051629546bf60e81b8152600480359082015260c095868284817f00000000000000000000000000000000000000000000000000000000000000006001600160a01b03165afa9182156103ac5760009261031d575b5050606081015161021d368587610cd9565b60208151910120036102d9576080015160015403610295575080601411610164578060281161016457603011610164577f5035dff119ed792872c6c698be5836dcf8ce2e7fcf2569ac6c04387e26a7dc0e92604c6060936040519335851c84526038810135851c60208501520135901c6040820152a1005b606490600a6040519162461bcd60e51b8352602060048401528201527f696e76616c696420766b000000000000000000000000000000000000000000006044820152fd5b60405162461bcd60e51b8152602060048201819052818401527f6661696c656420746f206f70656e206f757470757420636f6d6d69746d656e746044820152606490fd5b9091508681813d83116103a5575b6103358183610c8b565b81010312610164576040519187830190811183821017610390579060a0916040528051835260208101516020840152604081015160408401526060810151606084015260808101516080840152015160a0820152868061020b565b83634e487b7160e01b60005260416004526000fd5b503d61032b565b6040513d6000823e3d90fd5b346101645760003660031901126101645760206040516001600160a01b037f0000000000000000000000000000000000000000000000000000000000000000168152f35b346101645760003660031901126101645760206001600160a01b0360005416604051908152f35b3461016457600319606036820112610164576024359067ffffffffffffffff821682036101645767ffffffffffffffff6044351161016457608090604435360301126101645760405161047581610c37565b6044356004013581526024604435013567ffffffffffffffff8111610164576044350136602382011215610164576004810135906104b282610cad565b916104c06040519384610c8b565b808352602083019136602483600a1b830101116101645760248101925b602483600a1b8301018410610a595750505050602082015260448035013567ffffffffffffffff81116101645760443501366023820112156101645760048101359061052882610cad565b916105366040519384610c8b565b808352602083019136602460a0840283010111610164579160248301925b602460a0840282010184106109f5575050505060408201526064604435013567ffffffffffffffff811161016457366023826044350101121561016457600481604435010135906105a482610cad565b916105b26040519384610c8b565b80835260208301913660248360051b8360443501010111610164576024816044350101925b60248360051b836044350101018410610920575050505060608201526001600160a01b037f0000000000000000000000000000000000000000000000000000000000000000163b1561016457604051631f022a9d60e21b8152600480359082015267ffffffffffffffff9092166024830152606060448301528051606483015260208082015160806084850152805160e4850181905284936101048501939092019060005b818110610862575050506040810151916063198482030160a48501526020808451928381520193019060005b8181106108095750505060600151906063198382030160c484015281519081815260208101916020808260051b8401019401926000925b82841061075e5786600081808903816001600160a01b037f0000000000000000000000000000000000000000000000000000000000000000165afa80156103ac57610730575b602060405160018152f35b67ffffffffffffffff81116107485760405280610725565b634e487b7160e01b600052604160045260246000fd5b919395509193601f1982820301835260808651805183526020810151602084015267ffffffffffffffff604082015116604084015267ffffffffffffffff606082015116606084015201519060a060808201528151918260a083015260005b8381106107f35750506020600192819260c0916000838284010152601f80199101160101970193019401919290938695946106df565b80602080928401015160c08286010152016107bd565b9194509192602060a060019267ffffffffffffffff60808951805184526001600160a01b0386820151168685015260408101516040850152606081015160608501520151166080820152019501910191859493926106a8565b91945091926040855167ffffffffffffffff815116835267ffffffffffffffff6020820151166020840152015160408201906000915b600583106108ba5750505060206104006001920195019101918594939261067c565b602060c0600192604085516060815160ff815116855267ffffffffffffffff8782015116878601526001600160a01b038482015116848601520151606084015267ffffffffffffffff85820151166080840152015160a082015201920192019190610898565b833567ffffffffffffffff81116101645760a06044358401820136036023190112610164576040519161095283610c6f565b60448035850183016024810135855290810135602085015261097690606401610c22565b604084015261098d60848386604435010101610c22565b606084015260a48285604435010101359067ffffffffffffffff8211610164573660438385886044350101010112156101645760249360209384936109e3913691604480358b0190920101808901359101610cd9565b608082015281520194019390506105d7565b60a0843603126101645760a0806020602494604051610a1381610c6f565b88358152610a22838a01610cc5565b838201526040890135604082015260608901356060820152610a4660808a01610c22565b6080820152815201950194925050610554565b6104008436031261016457604051610a7081610c53565b610a7985610c22565b8152610a8760208601610c22565b602082015236605f8601121561016457604051610aa381610c6f565b80366104008801116101645760408701905b61040088018210610ad95750506040820152815261040093909301926020016104dd565b60c0823603126101645760405190610af082610c53565b6080833603126101645760405190610b0782610c37565b60ff8435168435036101645760c09260209285358152610b28848701610c22565b84820152610b3860408701610cc5565b6040820152606086013560608201528152610b5560808601610c22565b8382015260a08501356040820152815201910190610ab5565b3461016457602036600319011261016457610b956001600160a01b03600054163314610d20565b600435600155005b34610164576000366003190112610164576000805473ffffffffffffffffffffffffffffffffffffffff196001600160a01b03821691610bde338414610d20565b1682557f8be0079c531659141344cd1fd0a4f28419497f9722a3daafe3b4186f6b6457e08280a3005b34610164576000366003190112610164576020906001548152f35b359067ffffffffffffffff8216820361016457565b6080810190811067ffffffffffffffff82111761074857604052565b6060810190811067ffffffffffffffff82111761074857604052565b60a0810190811067ffffffffffffffff82111761074857604052565b90601f8019910116810190811067ffffffffffffffff82111761074857604052565b67ffffffffffffffff81116107485760051b60200190565b35906001600160a01b038216820361016457565b92919267ffffffffffffffff82116107485760405191610d03601f8201601f191660200184610c8b565b829481845281830111610164578281602093846000960137010152565b15610d2757565b606460405162461bcd60e51b815260206004820152602060248201527f4f776e61626c653a2063616c6c6572206973206e6f7420746865206f776e65726044820152fdfea2646970667358221220c1df1a7659fe17b9e416604aef935f499819638f157cb57df42bfd39760005e764736f6c63430008140033",
  "devdoc": {
    "kind": "dev",
    "methods": {
      "owner()": {
        "details": "Returns the address of the current owner."
      },
      "renounceOwnership()": {
        "details": "Leaves the contract without owner. It will not be possible to call `onlyOwner` functions anymore. Can only be called by the current owner. NOTE: Renouncing ownership will leave the contract without an owner, thereby removing any functionality that is only available to the owner."
      },
      "transferOwnership(address)": {
        "details": "Transfers ownership of the contract to a new account (`newOwner`). Can only be called by the current owner."
      }
    },
    "version": 1
  },
  "userdoc": {
    "kind": "user",
    "methods": {},
    "version": 1
  },
  "storageLayout": {
    "storage": [
      {
        "astId": 7,
        "contract": "contracts/sdk/apps/examples/slot/SlotValueExample.sol:SlotValueExample",
        "label": "_owner",
        "offset": 0,
        "slot": "0",
        "type": "t_address"
      },
      {
        "astId": 1392,
        "contract": "contracts/sdk/apps/examples/slot/SlotValueExample.sol:SlotValueExample",
        "label": "vkHash",
        "offset": 0,
        "slot": "1",
        "type": "t_bytes32"
      }
    ],
    "types": {
      "t_address": {
        "encoding": "inplace",
        "label": "address",
        "numberOfBytes": "20"
      },
      "t_bytes32": {
        "encoding": "inplace",
        "label": "bytes32",
        "numberOfBytes": "32"
      }
    }
  }
}