{
  "address": "0x2c0B8f6B79219b118dD588A7274893BA89e4f7eA",
  "abi": [
    {
      "inputs": [
        {
          "internalType": "uint64[]",
          "name": "_chainIds",
          "type": "uint64[]"
        },
        {
          "internalType": "address[]",
          "name": "_anchorProviders",
          "type": "address[]"
        },
        {
          "internalType": "address[]",
          "name": "_verifiers",
          "type": "address[]"
        },
        {
          "internalType": "bytes32[]",
          "name": "_initRoots",
          "type": "bytes32[]"
        }
      ],
      "stateMutability": "nonpayable",
      "type": "constructor"
    },
    {
      "anonymous": false,
      "inputs": [
        {
          "indexed": false,
          "internalType": "uint64",
          "name": "chainId",
          "type": "uint64"
        },
        {
          "indexed": false,
          "internalType": "address",
          "name": "anchorProvider",
          "type": "address"
        }
      ],
      "name": "AnchorProviderUpdated",
      "type": "event"
    },
    {
      "anonymous": false,
      "inputs": [
        {
          "indexed": false,
          "internalType": "bytes32",
          "name": "circuitDigest",
          "type": "bytes32"
        }
      ],
      "name": "CircuitDigestUpdated",
      "type": "event"
    },
    {
      "anonymous": false,
      "inputs": [
        {
          "indexed": true,
          "internalType": "address",
          "name": "previousOwner",
          "type": "address"
        },
        {
          "indexed": true,
          "internalType": "address",
          "name": "newOwner",
          "type": "address"
        }
      ],
      "name": "OwnershipTransferred",
      "type": "event"
    },
    {
      "anonymous": false,
      "inputs": [
        {
          "indexed": false,
          "internalType": "address",
          "name": "account",
          "type": "address"
        }
      ],
      "name": "Paused",
      "type": "event"
    },
    {
      "anonymous": false,
      "inputs": [
        {
          "indexed": false,
          "internalType": "address",
          "name": "account",
          "type": "address"
        }
      ],
      "name": "PauserAdded",
      "type": "event"
    },
    {
      "anonymous": false,
      "inputs": [
        {
          "indexed": false,
          "internalType": "address",
          "name": "account",
          "type": "address"
        }
      ],
      "name": "PauserRemoved",
      "type": "event"
    },
    {
      "anonymous": false,
      "inputs": [
        {
          "indexed": false,
          "internalType": "address",
          "name": "account",
          "type": "address"
        }
      ],
      "name": "ProverAdded",
      "type": "event"
    },
    {
      "anonymous": false,
      "inputs": [
        {
          "indexed": false,
          "internalType": "address",
          "name": "account",
          "type": "address"
        }
      ],
      "name": "ProverRemoved",
      "type": "event"
    },
    {
      "anonymous": false,
      "inputs": [
        {
          "indexed": false,
          "internalType": "bytes32",
          "name": "smtRoot",
          "type": "bytes32"
        },
        {
          "indexed": false,
          "internalType": "uint64",
          "name": "endBlockNum",
          "type": "uint64"
        },
        {
          "indexed": false,
          "internalType": "uint64",
          "name": "chainId",
          "type": "uint64"
        }
      ],
      "name": "SmtRootUpdated",
      "type": "event"
    },
    {
      "anonymous": false,
      "inputs": [
        {
          "indexed": false,
          "internalType": "address",
          "name": "account",
          "type": "address"
        }
      ],
      "name": "Unpaused",
      "type": "event"
    },
    {
      "anonymous": false,
      "inputs": [
        {
          "indexed": false,
          "internalType": "uint64",
          "name": "chainId",
          "type": "uint64"
        },
        {
          "indexed": false,
          "internalType": "address",
          "name": "verifier",
          "type": "address"
        }
      ],
      "name": "VerifierUpdated",
      "type": "event"
    },
    {
      "inputs": [
        {
          "internalType": "address",
          "name": "account",
          "type": "address"
        }
      ],
      "name": "addPauser",
      "outputs": [],
      "stateMutability": "nonpayable",
      "type": "function"
    },
    {
      "inputs": [
        {
          "internalType": "address[]",
          "name": "accounts",
          "type": "address[]"
        }
      ],
      "name": "addPausers",
      "outputs": [],
      "stateMutability": "nonpayable",
      "type": "function"
    },
    {
      "inputs": [
        {
          "internalType": "address[]",
          "name": "_accounts",
          "type": "address[]"
        }
      ],
      "name": "addProvers",
      "outputs": [],
      "stateMutability": "nonpayable",
      "type": "function"
    },
    {
      "inputs": [
        {
          "internalType": "uint64",
          "name": "",
          "type": "uint64"
        }
      ],
      "name": "anchorProviders",
      "outputs": [
        {
          "internalType": "contract IAnchorBlocks",
          "name": "",
          "type": "address"
        }
      ],
      "stateMutability": "view",
      "type": "function"
    },
    {
      "inputs": [],
      "name": "circuitDigest",
      "outputs": [
        {
          "internalType": "bytes32",
          "name": "",
          "type": "bytes32"
        }
      ],
      "stateMutability": "view",
      "type": "function"
    },
    {
      "inputs": [
        {
          "internalType": "uint64",
          "name": "chainId",
          "type": "uint64"
        }
      ],
      "name": "getLatestRoot",
      "outputs": [
        {
          "internalType": "bytes32",
          "name": "",
          "type": "bytes32"
        }
      ],
      "stateMutability": "view",
      "type": "function"
    },
    {
      "inputs": [
        {
          "internalType": "address",
          "name": "_account",
          "type": "address"
        }
      ],
      "name": "isActiveProver",
      "outputs": [
        {
          "internalType": "bool",
          "name": "",
          "type": "bool"
        }
      ],
      "stateMutability": "view",
      "type": "function"
    },
    {
      "inputs": [
        {
          "internalType": "address",
          "name": "account",
          "type": "address"
        }
      ],
      "name": "isPauser",
      "outputs": [
        {
          "internalType": "bool",
          "name": "",
          "type": "bool"
        }
      ],
      "stateMutability": "view",
      "type": "function"
    },
    {
      "inputs": [
        {
          "internalType": "uint64",
          "name": "chainId",
          "type": "uint64"
        },
        {
          "internalType": "bytes32",
          "name": "smtRoot",
          "type": "bytes32"
        }
      ],
      "name": "isSmtRootValid",
      "outputs": [
        {
          "internalType": "bool",
          "name": "",
          "type": "bool"
        }
      ],
      "stateMutability": "view",
      "type": "function"
    },
    {
      "inputs": [
        {
          "internalType": "uint64",
          "name": "",
          "type": "uint64"
        }
      ],
      "name": "latestRoots",
      "outputs": [
        {
          "internalType": "bytes32",
          "name": "",
          "type": "bytes32"
        }
      ],
      "stateMutability": "view",
      "type": "function"
    },
    {
      "inputs": [],
      "name": "numPausers",
      "outputs": [
        {
          "internalType": "uint256",
          "name": "",
          "type": "uint256"
        }
      ],
      "stateMutability": "view",
      "type": "function"
    },
    {
      "inputs": [],
      "name": "numProvers",
      "outputs": [
        {
          "internalType": "uint256",
          "name": "",
          "type": "uint256"
        }
      ],
      "stateMutability": "view",
      "type": "function"
    },
    {
      "inputs": [],
      "name": "owner",
      "outputs": [
        {
          "internalType": "address",
          "name": "",
          "type": "address"
        }
      ],
      "stateMutability": "view",
      "type": "function"
    },
    {
      "inputs": [],
      "name": "pause",
      "outputs": [],
      "stateMutability": "nonpayable",
      "type": "function"
    },
    {
      "inputs": [],
      "name": "paused",
      "outputs": [
        {
          "internalType": "bool",
          "name": "",
          "type": "bool"
        }
      ],
      "stateMutability": "view",
      "type": "function"
    },
    {
      "inputs": [
        {
          "internalType": "uint256",
          "name": "",
          "type": "uint256"
        }
      ],
      "name": "pauserList",
      "outputs": [
        {
          "internalType": "address",
          "name": "",
          "type": "address"
        }
      ],
      "stateMutability": "view",
      "type": "function"
    },
    {
      "inputs": [
        {
          "internalType": "address",
          "name": "",
          "type": "address"
        }
      ],
      "name": "pausers",
      "outputs": [
        {
          "internalType": "bool",
          "name": "",
          "type": "bool"
        }
      ],
      "stateMutability": "view",
      "type": "function"
    },
    {
      "inputs": [
        {
          "internalType": "address",
          "name": "",
          "type": "address"
        }
      ],
      "name": "proverStates",
      "outputs": [
        {
          "internalType": "enum BrevisAccess.ProverState",
          "name": "",
          "type": "uint8"
        }
      ],
      "stateMutability": "view",
      "type": "function"
    },
    {
      "inputs": [
        {
          "internalType": "uint256",
          "name": "",
          "type": "uint256"
        }
      ],
      "name": "provers",
      "outputs": [
        {
          "internalType": "address",
          "name": "",
          "type": "address"
        }
      ],
      "stateMutability": "view",
      "type": "function"
    },
    {
      "inputs": [
        {
          "internalType": "address",
          "name": "account",
          "type": "address"
        }
      ],
      "name": "removePauser",
      "outputs": [],
      "stateMutability": "nonpayable",
      "type": "function"
    },
    {
      "inputs": [
        {
          "internalType": "address[]",
          "name": "accounts",
          "type": "address[]"
        }
      ],
      "name": "removePausers",
      "outputs": [],
      "stateMutability": "nonpayable",
      "type": "function"
    },
    {
      "inputs": [
        {
          "internalType": "address[]",
          "name": "_accounts",
          "type": "address[]"
        }
      ],
      "name": "removeProvers",
      "outputs": [],
      "stateMutability": "nonpayable",
      "type": "function"
    },
    {
      "inputs": [],
      "name": "renouncePauser",
      "outputs": [],
      "stateMutability": "nonpayable",
      "type": "function"
    },
    {
      "inputs": [
        {
          "internalType": "uint64",
          "name": "chainId",
          "type": "uint64"
        },
        {
          "internalType": "address",
          "name": "anchorProvider",
          "type": "address"
        }
      ],
      "name": "setAnchorProvider",
      "outputs": [],
      "stateMutability": "nonpayable",
      "type": "function"
    },
    {
      "inputs": [
        {
          "internalType": "bytes32",
          "name": "_circuitDigest",
          "type": "bytes32"
        }
      ],
      "name": "setCircuitDigest",
      "outputs": [],
      "stateMutability": "nonpayable",
      "type": "function"
    },
    {
      "inputs": [
        {
          "internalType": "uint64",
          "name": "chainId",
          "type": "uint64"
        },
        {
          "internalType": "address",
          "name": "verifier",
          "type": "address"
        }
      ],
      "name": "setVerifier",
      "outputs": [],
      "stateMutability": "nonpayable",
      "type": "function"
    },
    {
      "inputs": [
        {
          "internalType": "uint64",
          "name": "",
          "type": "uint64"
        },
        {
          "internalType": "bytes32",
          "name": "",
          "type": "bytes32"
        }
      ],
      "name": "smtRoots",
      "outputs": [
        {
          "internalType": "bool",
          "name": "",
          "type": "bool"
        }
      ],
      "stateMutability": "view",
      "type": "function"
    },
    {
      "inputs": [
        {
          "internalType": "address",
          "name": "newOwner",
          "type": "address"
        }
      ],
      "name": "transferOwnership",
      "outputs": [],
      "stateMutability": "nonpayable",
      "type": "function"
    },
    {
      "inputs": [],
      "name": "unpause",
      "outputs": [],
      "stateMutability": "nonpayable",
      "type": "function"
    },
    {
      "inputs": [
        {
          "internalType": "uint64",
          "name": "chainId",
          "type": "uint64"
        },
        {
          "components": [
            {
              "internalType": "bytes32",
              "name": "newSmtRoot",
              "type": "bytes32"
            },
            {
              "internalType": "uint64",
              "name": "endBlockNum",
              "type": "uint64"
            },
            {
              "internalType": "bytes32",
              "name": "endBlockHash",
              "type": "bytes32"
            },
            {
              "internalType": "bytes32",
              "name": "nextChunkMerkleRoot",
              "type": "bytes32"
            },
            {
              "internalType": "bytes32",
              "name": "circuitDigest",
              "type": "bytes32"
            },
            {
              "internalType": "uint256[8]",
              "name": "proof",
              "type": "uint256[8]"
            },
            {
              "internalType": "uint256[2]",
              "name": "commit",
              "type": "uint256[2]"
            },
            {
              "internalType": "uint256[2]",
              "name": "knowledgeProof",
              "type": "uint256[2]"
            }
          ],
          "internalType": "struct ISMT.SmtUpdate",
          "name": "u",
          "type": "tuple"
        }
      ],
      "name": "updateRoot",
      "outputs": [],
      "stateMutability": "nonpayable",
      "type": "function"
    },
    {
      "inputs": [
        {
          "internalType": "uint64",
          "name": "",
          "type": "uint64"
        }
      ],
      "name": "verifiers",
      "outputs": [
        {
          "internalType": "contract IVerifier",
          "name": "",
          "type": "address"
        }
      ],
      "stateMutability": "view",
      "type": "function"
    }
  ],
  "transactionHash": "0x37143af5e4fc4e31ace648fd2ec7257d9ee1fc650de3afd09fd8a52ca899f276",
  "args": [
    [
      1
    ],
    [
      "0x061691567026bf6384Ca1Ab2402346E9bD1d0765"
    ],
    [
      "0x2952a3C896C81234CB5Fc9017621Ed7b2a692dC5"
    ],
    [
      "0xca3022d33d006b913ecfad08eb9d6dde985e93fdd80ca6fadebcd2172d28c3f3"
    ]
  ],
  "numDeployments": 9,
  "solcInputHash": "dc85b5ea7016cb1ca771a9881ec98581",
  "bytecode": "0x604060808152346200039d5762001eb090813803806200001f81620003bc565b93843982016080838203126200039d5782516001600160401b0391908281116200039d5784019381601f860112156200039d578451916200006a6200006484620003f8565b620003bc565b908196848352602080930183600596871b830101918383116200039d578401905b828210620003a257505050818301518581116200039d5781620000b091850162000410565b96868401518681116200039d5782620000cb91860162000410565b936060810151908782116200039d57019180601f840112156200039d578251620000f96200006482620003f8565b938580868481520192891b8201019283116200039d5785809101915b8383106200038c575050600080548a519891976001600160a01b0394509250338482167f8be0079c531659141344cd1fd0a4f28419497f9722a3daafe3b4186f6b6457e08a80a36001600160a81b0319163360ff60a01b198116919091178855875260018087528a88205490989060ff166200034a57506002549a680100000000000000008c10156200033657888c01806002558c101562000322578a99899c957f6719d08c1888103bea251a4ed56406bd0c3e69723c8a1686e017e7bbe159b6f8898c9860028d52818d20019d60018060a01b03199e8f3390825416179055338d52898252808d2060ff199a8b82541617905551338152a16200021d81518451146200047e565b6200022c81518651146200047e565b6200023b81518951146200047e565b899d5b62000253575b8c516119ca9081620004e68239f35b8d815111156200031c578d808e8e8c828f8c8c878d838e8e620002788f8690620004ba565b51169c6200028691620004ba565b5116908b865287528585209088825416179055620002a491620004ba565b51169287825260069052209182541617905560078c52818d8c83822092620002cc91620004ba565b5190528c528c208d8a825416179055620002e7908a620004ba565b51908b5260088a528d8b20556000198e1462000308579c8a019c8a6200023e565b634e487b7160e01b8a52601160045260248afd5b62000244565b634e487b7160e01b88526032600452602488fd5b634e487b7160e01b88526041600452602488fd5b62461bcd60e51b815260048101879052601960248201527f4163636f756e7420697320616c726561647920706175736572000000000000006044820152606490fd5b825181529181019186910162000115565b600080fd5b815188811681036200039d5781529084019084016200008b565b6040519190601f01601f191682016001600160401b03811183821017620003e257604052565b634e487b7160e01b600052604160045260246000fd5b6001600160401b038111620003e25760051b60200190565b9080601f830112156200039d578151906200042f6200006483620003f8565b9182938184526020808095019260051b8201019283116200039d578301905b8282106200045d575050505090565b81516001600160a01b03811681036200039d5781529083019083016200044e565b156200048657565b60405162461bcd60e51b815260206004820152600c60248201526b0d8cadc40dad2e6dac2e8c6d60a31b6044820152606490fd5b8051821015620004cf5760209160051b010190565b634e487b7160e01b600052603260045260246000fdfe6080604052600436101561001257600080fd5b60003560e01c80630d73fd2f146112305780631019b616146111b1578063158535ff146111ff57806338702532146111b15780633f4ba83a146110a957806346fbf68e14610727578063479aa6da14610def5780634f4fef181461108b57806358a16b441461106d5780635c975abb146110475780635ca32bd814610f87578063677625f214610e2a5780636ae3e08014610def5780636af2a83b146107b75780636b2c0f55146107805780636ef8d66d1461076657806380f51c12146107275780638195408d146106e357806382dc1ec4146106ac5780638456cb591461058d5780638da5cb5b146105665780639c8413c5146104a1578063a036e79914610451578063a7c33b3a14610433578063afe8154b146103ef578063e6c6fcec1461039f578063e79b7a5114610348578063ec64842e146102fe578063f2fde38b14610213578063fabc74f5146101b75763fd1190ea1461017157600080fd5b346101b25760203660031901126101b2576004356004548110156101b2576001600160a01b036101a26020926112ee565b9190546040519260031b1c168152f35b600080fd5b346101b25760203660031901126101b2576001600160a01b036101d8611325565b16600052600360205260ff6040600020541660405160038210156101fd576020918152f35b634e487b7160e01b600052602160045260246000fd5b346101b25760203660031901126101b25761022c611325565b600054906001600160a01b0380831691610247338414611420565b169182156102935773ffffffffffffffffffffffffffffffffffffffff19839116176000557f8be0079c531659141344cd1fd0a4f28419497f9722a3daafe3b4186f6b6457e0600080a3005b60405162461bcd60e51b815260206004820152602660248201527f4f776e61626c653a206e6577206f776e657220697320746865207a65726f206160448201527f64647265737300000000000000000000000000000000000000000000000000006064820152608490fd5b346101b25760203660031901126101b2576001600160a01b0361031f611325565b16600052600360205260ff6040600020541660038110156101fd57602090600160405191148152f35b346101b2576103563661138f565b6001600160a01b039061036e82600054163314611420565b60005b815181101561039d57806103938461038c6103989486611490565b51166116c8565b61146b565b610371565b005b346101b2576103ad3661138f565b6001600160a01b03906103c582600054163314611420565b60005b815181101561039d5780610393846103e36103ea9486611490565b51166114f0565b6103c8565b346101b25760203660031901126101b25767ffffffffffffffff61041161128a565b16600052600560205260206001600160a01b0360406000205416604051908152f35b346101b25760003660031901126101b2576020600954604051908152f35b346101b25761045f3661138f565b6001600160a01b039061047782600054163314611420565b60005b815181101561039d57806103938461049561049c9486611490565b51166117ae565b61047a565b346101b25760403660031901126101b2577fb78ea0eaf11776732556ef6189312ceb60eab6b3177526b3a12d966e37be81626104db61128a565b6104e361133b565b906001600160a01b036104fb81600054163314611420565b67ffffffffffffffff82166000526006602052604060002090831673ffffffffffffffffffffffffffffffffffffffff19825416179055610561604051928392839092916001600160a01b0360209167ffffffffffffffff604085019616845216910152565b0390a1005b346101b25760003660031901126101b25760206001600160a01b0360005416604051908152f35b346101b25760003660031901126101b2573360005260016020908082526105bb60ff604060002054166114a4565b60005460ff8160a01c166106675760ff60a01b19740100000000000000000000000000000000000000009116176000557f62e78cea01bee320cd4e420270b5ea74000d11b0c9f74754ebdbfc544b05a25882604051338152a16000815b61061e57005b60045481101561039d57806001600160a01b0361063d610661936112ee565b919054600392831b1c1660005284526040600020600260ff1982541617905561146b565b81610618565b60405162461bcd60e51b815260048101849052601060248201527f5061757361626c653a20706175736564000000000000000000000000000000006044820152606490fd5b346101b25760203660031901126101b25761039d6106c8611325565b6106de6001600160a01b03600054163314611420565b6116c8565b346101b25760203660031901126101b25767ffffffffffffffff61070561128a565b16600052600660205260206001600160a01b0360406000205416604051908152f35b346101b25760203660031901126101b2576001600160a01b03610748611325565b166000526001602052602060ff604060002054166040519015158152f35b346101b25760003660031901126101b25761039d336117ae565b346101b25760203660031901126101b25761039d61079c611325565b6107b26001600160a01b03600054163314611420565b6117ae565b346101b2576102403660031901126101b2576107d161128a565b6102203660231901126101b25760405190610100820182811067ffffffffffffffff821117610bb257604052602435825260443567ffffffffffffffff811681036101b25760208301526064356040830152608435606083015260a43560808301523660e312156101b257604051610100810181811067ffffffffffffffff821117610bb25760405280366101c4116101b25760c4905b6101c48210610ddf57505060a0830152366101e312156101b25760405161088e81611351565b8036610204116101b2576101c4905b6102048210610dcf57505060c08301523661022312156101b2576040516108c381611351565b8036610244116101b257610204905b6102448210610dbf57505060e083015233600052600360205260ff6040600020541660038110156101fd57600103610d7a57606082015115610c52575b67ffffffffffffffff8116600052600860205260406000205460066020526001600160a01b03604060002054168015610c0d57600954608085015103610bc857604051918261012081011067ffffffffffffffff61012085011117610bb2576101208301604052610120368437604085015160801c83526fffffffffffffffffffffffffffffffff8091816040880151166020860152865160801c60408601528187511660608601528060801c60808601521660a0840152606085015160801c60c084015260608501511660e0830152608084015161010083015260a084015160c08501519260e0860151604051948593633072c1a360e11b8552600485016000905b60088210610b985750505090610a30610a3b9261010486019061196c565b61014484019061196c565b600061018483015b60098210610b7e575050506102a4816020935afa908115610b7257600091610b37575b5015610af2577fe8e2da79405f6328030a49e89981740387fc8c731042ec804a6461e796ec6f0b9167ffffffffffffffff8281606094166000526007602052604060002083516000526020526040600020600160ff19825416179055825182821660005260086020526040600020558160208451940151166040519384526020840152166040820152a1005b60405162461bcd60e51b815260206004820152601060248201527f696e76616c6964207a6b2070726f6f66000000000000000000000000000000006044820152606490fd5b90506020813d602011610b6a575b81610b526020938361136d565b810103126101b2575180151581036101b25783610a66565b3d9150610b45565b6040513d6000823e3d90fd5b829350602080916001939451815201930191018492610a43565b825181528896506020928301926001929092019101610a12565b634e487b7160e01b600052604160045260246000fd5b60405162461bcd60e51b815260206004820152601860248201527f6e6f742076616c696420636972637569742064696765737400000000000000006044820152606490fd5b60405162461bcd60e51b815260206004820152601760248201527f6e6f20766572696669657220666f7220636861696e49640000000000000000006044820152606490fd5b67ffffffffffffffff811660005260056020526001600160a01b03604060002054168015610d3557602067ffffffffffffffff818501511660246040518094819363f25b3f9960e01b835260048301525afa908115610b7257600091610d03575b5060408301511461090f5760405162461bcd60e51b815260206004820152601360248201527f616e63686f7220636865636b206661696c6564000000000000000000000000006044820152606490fd5b90506020813d602011610d2d575b81610d1e6020938361136d565b810103126101b2575183610cb3565b3d9150610d11565b60405162461bcd60e51b815260206004820152601760248201527f756e6b6e6f776e20616e63686f722070726f76696465720000000000000000006044820152606490fd5b60405162461bcd60e51b815260206004820152600e60248201527f696e76616c69642070726f7665720000000000000000000000000000000000006044820152606490fd5b81358152602091820191016108d2565b813581526020918201910161089d565b8135815260209182019101610868565b346101b25760203660031901126101b25767ffffffffffffffff610e1161128a565b1660005260086020526020604060002054604051908152f35b346101b257610e383661138f565b600054906001600160a01b0391610e523384831614611420565b60ff9060a01c811615610f7f576002925b60005b835181101561039d5781610e7a8286611490565b51169081600052600360208181528560406000205416828110156101fd57610f3b5760045468010000000000000000811015610bb25784610ec4826001610ee494016004556112ee565b90919082549060031b916001600160a01b03809116831b921b1916179055565b836000528181526040600020918810156101fd57610f36937fef1fa0a4d797341645c201a742cf59be633da0589e0e3cda511cfc90cd0396849260ff19815416888b16179055604051908152a161146b565b610e66565b6064906040519062461bcd60e51b82526004820152601160248201527f6163636f756e742069732070726f7665720000000000000000000000000000006044820152fd5b600192610e63565b346101b25760403660031901126101b2577fd621c244f07f12e1f37bb9c40d61e278041fc4f2859a6736794b26f4297c8090610fc161128a565b610fc961133b565b906001600160a01b03610fe181600054163314611420565b67ffffffffffffffff82166000526005602052604060002090831673ffffffffffffffffffffffffffffffffffffffff19825416179055610561604051928392839092916001600160a01b0360209167ffffffffffffffff604085019616845216910152565b346101b25760003660031901126101b257602060ff60005460a01c166040519015158152f35b346101b25760003660031901126101b2576020600254604051908152f35b346101b25760003660031901126101b2576020600454604051908152f35b346101b25760003660031901126101b2573360005260016020908082526110d760ff604060002054166114a4565b60005460ff8160a01c161561116c5760ff60a01b19166000557f5db9ee0a495bf2e6ff9c91a7834c1ba4fdd244a5e8aa4e537bd38aeae4b073aa82604051338152a16000815b61112357005b60045481101561039d57611166816001600160a01b0361114385946112ee565b919054600392831b1c16600052855260406000208360ff1982541617905561146b565b9061111d565b60405162461bcd60e51b815260048101849052601460248201527f5061757361626c653a206e6f74207061757365640000000000000000000000006044820152606490fd5b346101b25760403660031901126101b25767ffffffffffffffff6111d361128a565b1660005260076020526040600020602435600052602052602060ff604060002054166040519015158152f35b346101b25760203660031901126101b2576004356002548110156101b2576001600160a01b036101a26020926112a1565b346101b25760203660031901126101b2577f625a859ba23b119234649d7474630b6fe512265e2e5ffa6419dc17c2d6386702602060043561127d6001600160a01b03600054163314611420565b80600955604051908152a1005b6004359067ffffffffffffffff821682036101b257565b6002548110156112d85760026000527f405787fa12a823e0f2b7631cc41b3ba8828b3321ca811111fa75cd3aa3bb5ace0190600090565b634e487b7160e01b600052603260045260246000fd5b6004548110156112d85760046000527f8a35acfbc15ff81a39ae7d344fd709f28e8600b4aa8c65c6b64bfe7fe36bd19b0190600090565b600435906001600160a01b03821682036101b257565b602435906001600160a01b03821682036101b257565b6040810190811067ffffffffffffffff821117610bb257604052565b90601f8019910116810190811067ffffffffffffffff821117610bb257604052565b6020806003198301126101b25767ffffffffffffffff916004358381116101b257816023820112156101b2578060040135938411610bb2578360051b90604051946113dc8584018761136d565b85526024848601928201019283116101b257602401905b828210611401575050505090565b81356001600160a01b03811681036101b25781529083019083016113f3565b1561142757565b606460405162461bcd60e51b815260206004820152602060248201527f4f776e61626c653a2063616c6c6572206973206e6f7420746865206f776e65726044820152fd5b600019811461147a5760010190565b634e487b7160e01b600052601160045260246000fd5b80518210156112d85760209160051b010190565b156114ab57565b60405162461bcd60e51b815260206004820152601460248201527f43616c6c6572206973206e6f74207061757365720000000000000000000000006044820152606490fd5b6001600160a01b0380911691600083815260039360209185835260409060ff8282205416878110156116b45715611670576004968754966000199081890198891161165d57835b8a5481101561161a57868261154b836112ee565b905490871b1c1614611565576115609061146b565b611537565b9091929394959697988082106115f5575b505050875480156115e25797849392917fd64d11086d859b73cf85a91ca06cbc484398acabe3d9a1b26d4366dff377d985989901906115cc6115b7836112ee565b6001600160a01b0382549160031b1b19169055565b55848252855220805460ff1916905551908152a1565b634e487b7160e01b845260318952602484fd5b61161292611605610ec4926112ee565b905490871b1c16916112ee565b388080611576565b855162461bcd60e51b8152808c01899052601060248201527f70726f766572206e6f7420666f756e64000000000000000000000000000000006044820152606490fd5b634e487b7160e01b845260118a52602484fd5b815162461bcd60e51b815260048101859052601560248201527f6163636f756e74206973206e6f742070726f76657200000000000000000000006044820152606490fd5b634e487b7160e01b82526021600452602482fd5b6001600160a01b03811690600090828252600160205260ff6040832054166117695760025468010000000000000000811015611755576020926117397f6719d08c1888103bea251a4ed56406bd0c3e69723c8a1686e017e7bbe159b6f89593610ec4846001604096016002556112a1565b8281526001845220600160ff19825416179055604051908152a1565b634e487b7160e01b83526041600452602483fd5b60405162461bcd60e51b815260206004820152601960248201527f4163636f756e7420697320616c726561647920706175736572000000000000006044820152606490fd5b6001600160a01b038091169060009282845260019060209382855260409360ff858820541615611928576002805490916000199182810190811161191457908695949392918a975b61183f575b885162461bcd60e51b8152600481018b9052601060248201527f706175736572206e6f7420666f756e64000000000000000000000000000000006044820152606490fd5b8399989799548a101561190b5781856118578c6112a1565b929054600393841b1c161461188057506118778798999a9795969761146b565b979695946117f6565b92939497969599918183106118e6575b50505050815480156118d257918493917fcd265ebaf09df2871cc7bd4133404a235ba12eff2041bb89d9c714a2621c7c7e98999301906115cc6115b7836112a1565b634e487b7160e01b89526031600452602489fd5b611902936118f6610ec4936112a1565b9054911b1c16916112a1565b38808080611890565b879899506117fb565b634e487b7160e01b8a52601160045260248afd5b845162461bcd60e51b815260048101879052601560248201527f4163636f756e74206973206e6f742070617573657200000000000000000000006044820152606490fd5b6000915b6002831061197d57505050565b60019082518152602080910192019201919061197056fea264697066735822122086c2775d77ae847e5c86fa0bd889d9671ff83c1b3c7364289f3d3d3c2402268864736f6c63430008140033",
  "devdoc": {
    "events": {
      "Paused(address)": {
        "details": "Emitted when the pause is triggered by `account`."
      },
      "Unpaused(address)": {
        "details": "Emitted when the pause is lifted by `account`."
      }
    },
    "kind": "dev",
    "methods": {
      "owner()": {
        "details": "Returns the address of the current owner."
      },
      "paused()": {
        "details": "Returns true if the contract is paused, and false otherwise."
      },
      "transferOwnership(address)": {
        "details": "Transfers ownership of the contract to a new account (`newOwner`). Can only be called by the current owner."
      }
    },
    "version": 1
  },
  "userdoc": {
    "kind": "user",
    "methods": {},
    "version": 1
  },
  "storageLayout": {
    "storage": [
      {
        "astId": 494,
        "contract": "contracts/smt/SMT.sol:SMT",
        "label": "_owner",
        "offset": 0,
        "slot": "0",
        "type": "t_address"
      },
      {
        "astId": 17,
        "contract": "contracts/smt/SMT.sol:SMT",
        "label": "_paused",
        "offset": 20,
        "slot": "0",
        "type": "t_bool"
      },
      {
        "astId": 608,
        "contract": "contracts/smt/SMT.sol:SMT",
        "label": "pausers",
        "offset": 0,
        "slot": "1",
        "type": "t_mapping(t_address,t_bool)"
      },
      {
        "astId": 611,
        "contract": "contracts/smt/SMT.sol:SMT",
        "label": "pauserList",
        "offset": 0,
        "slot": "2",
        "type": "t_array(t_address)dyn_storage"
      },
      {
        "astId": 181,
        "contract": "contracts/smt/SMT.sol:SMT",
        "label": "proverStates",
        "offset": 0,
        "slot": "3",
        "type": "t_mapping(t_address,t_enum(ProverState)176)"
      },
      {
        "astId": 184,
        "contract": "contracts/smt/SMT.sol:SMT",
        "label": "provers",
        "offset": 0,
        "slot": "4",
        "type": "t_array(t_address)dyn_storage"
      },
      {
        "astId": 910,
        "contract": "contracts/smt/SMT.sol:SMT",
        "label": "anchorProviders",
        "offset": 0,
        "slot": "5",
        "type": "t_mapping(t_uint64,t_contract(IAnchorBlocks)167)"
      },
      {
        "astId": 915,
        "contract": "contracts/smt/SMT.sol:SMT",
        "label": "verifiers",
        "offset": 0,
        "slot": "6",
        "type": "t_mapping(t_uint64,t_contract(IVerifier)1791)"
      },
      {
        "astId": 921,
        "contract": "contracts/smt/SMT.sol:SMT",
        "label": "smtRoots",
        "offset": 0,
        "slot": "7",
        "type": "t_mapping(t_uint64,t_mapping(t_bytes32,t_bool))"
      },
      {
        "astId": 925,
        "contract": "contracts/smt/SMT.sol:SMT",
        "label": "latestRoots",
        "offset": 0,
        "slot": "8",
        "type": "t_mapping(t_uint64,t_bytes32)"
      },
      {
        "astId": 927,
        "contract": "contracts/smt/SMT.sol:SMT",
        "label": "circuitDigest",
        "offset": 0,
        "slot": "9",
        "type": "t_bytes32"
      }
    ],
    "types": {
      "t_address": {
        "encoding": "inplace",
        "label": "address",
        "numberOfBytes": "20"
      },
      "t_array(t_address)dyn_storage": {
        "base": "t_address",
        "encoding": "dynamic_array",
        "label": "address[]",
        "numberOfBytes": "32"
      },
      "t_bool": {
        "encoding": "inplace",
        "label": "bool",
        "numberOfBytes": "1"
      },
      "t_bytes32": {
        "encoding": "inplace",
        "label": "bytes32",
        "numberOfBytes": "32"
      },
      "t_contract(IAnchorBlocks)167": {
        "encoding": "inplace",
        "label": "contract IAnchorBlocks",
        "numberOfBytes": "20"
      },
      "t_contract(IVerifier)1791": {
        "encoding": "inplace",
        "label": "contract IVerifier",
        "numberOfBytes": "20"
      },
      "t_enum(ProverState)176": {
        "encoding": "inplace",
        "label": "enum BrevisAccess.ProverState",
        "numberOfBytes": "1"
      },
      "t_mapping(t_address,t_bool)": {
        "encoding": "mapping",
        "key": "t_address",
        "label": "mapping(address => bool)",
        "numberOfBytes": "32",
        "value": "t_bool"
      },
      "t_mapping(t_address,t_enum(ProverState)176)": {
        "encoding": "mapping",
        "key": "t_address",
        "label": "mapping(address => enum BrevisAccess.ProverState)",
        "numberOfBytes": "32",
        "value": "t_enum(ProverState)176"
      },
      "t_mapping(t_bytes32,t_bool)": {
        "encoding": "mapping",
        "key": "t_bytes32",
        "label": "mapping(bytes32 => bool)",
        "numberOfBytes": "32",
        "value": "t_bool"
      },
      "t_mapping(t_uint64,t_bytes32)": {
        "encoding": "mapping",
        "key": "t_uint64",
        "label": "mapping(uint64 => bytes32)",
        "numberOfBytes": "32",
        "value": "t_bytes32"
      },
      "t_mapping(t_uint64,t_contract(IAnchorBlocks)167)": {
        "encoding": "mapping",
        "key": "t_uint64",
        "label": "mapping(uint64 => contract IAnchorBlocks)",
        "numberOfBytes": "32",
        "value": "t_contract(IAnchorBlocks)167"
      },
      "t_mapping(t_uint64,t_contract(IVerifier)1791)": {
        "encoding": "mapping",
        "key": "t_uint64",
        "label": "mapping(uint64 => contract IVerifier)",
        "numberOfBytes": "32",
        "value": "t_contract(IVerifier)1791"
      },
      "t_mapping(t_uint64,t_mapping(t_bytes32,t_bool))": {
        "encoding": "mapping",
        "key": "t_uint64",
        "label": "mapping(uint64 => mapping(bytes32 => bool))",
        "numberOfBytes": "32",
        "value": "t_mapping(t_bytes32,t_bool)"
      },
      "t_uint64": {
        "encoding": "inplace",
        "label": "uint64",
        "numberOfBytes": "8"
      }
    }
  }
}