{
  "address": "0x41Be742Cf820811d1d66C4AD43b0cf4F45Beb686",
  "abi": [
    {
      "inputs": [
        {
          "internalType": "uint256[2]",
          "name": "a",
          "type": "uint256[2]"
        },
        {
          "internalType": "uint256[2][2]",
          "name": "b",
          "type": "uint256[2][2]"
        },
        {
          "internalType": "uint256[2]",
          "name": "c",
          "type": "uint256[2]"
        },
        {
          "internalType": "uint256[2]",
          "name": "commit",
          "type": "uint256[2]"
        },
        {
          "internalType": "uint256[10]",
          "name": "input",
          "type": "uint256[10]"
        }
      ],
      "name": "verifyProof",
      "outputs": [
        {
          "internalType": "bool",
          "name": "r",
          "type": "bool"
        }
      ],
      "stateMutability": "view",
      "type": "function"
    }
  ],
  "transactionHash": "0x96dddabff9139b8b4e2bf2f60536ae262c8d00e93ec374754c8880698e614c1b",
  "args": [],
  "numDeployments": 1,
  "solcInputHash": "3b018503f5c2259e41c82a0aea7cd7e5",
  "bytecode": "0x6080806040523461001657611305908161001c8239f35b600080fdfe604060808152600436101561001357600080fd5b6000803560e01c639d210a181461002957600080fd5b346100c7576102803660031901126100c75761004436610125565b9036606312156100c7576100566100e0565b908160c4913683116100c757506044905b8282106100ae576100aa86610099878761008036610167565b610089366101a5565b9161009336610225565b93610616565b905190151581529081906020820190565b0390f35b602086916100bc36856101e5565b815201910190610067565b80fd5b634e487b7160e01b600052604160045260246000fd5b604051906040820182811067ffffffffffffffff82111761010057604052565b6100ca565b604051906080820182811067ffffffffffffffff82111761010057604052565b8060231215610162576101366100e0565b90816044918211610162576004905b8282106101525750505090565b8135815260209182019101610145565b600080fd5b8060e31215610162576101786100e0565b90816101049182116101625760c4905b8282106101955750505090565b8135815260209182019101610188565b806101231215610162576101b76100e0565b908161014491821161016257610104905b8282106101d55750505090565b81358152602091820191016101c8565b9080601f83011215610162576101f96100e0565b80926040810192831161016257905b8282106102155750505090565b8135815260209182019101610208565b90610144916102841161016257565b61023c610105565b906080368337565b604051906060820182811067ffffffffffffffff821117610100576040526060368337565b604051906020820182811067ffffffffffffffff821117610100576040526020368337565b6102966100e0565b9061029f6100e0565b604036823782526102ae6100e0565b60403682376020830152565b6102c2610105565b906102cb6100e0565b60009081815281602082015283526102e161028e565b60208401526102ee6100e0565b81815281602082015260408401526103046100e0565b9080825260208201526060830152565b634e487b7160e01b600052603260045260246000fd5b1561033157565b60405162461bcd60e51b815260206004820152601760248201527f76657269666965722d61582d6774652d7072696d652d710000000000000000006044820152606490fd5b1561037d57565b60405162461bcd60e51b815260206004820152601760248201527f76657269666965722d61592d6774652d7072696d652d710000000000000000006044820152606490fd5b156103c957565b60405162461bcd60e51b815260206004820152601860248201527f76657269666965722d6258302d6774652d7072696d652d7100000000000000006044820152606490fd5b1561041557565b60405162461bcd60e51b815260206004820152601860248201527f76657269666965722d6259302d6774652d7072696d652d7100000000000000006044820152606490fd5b1561046157565b60405162461bcd60e51b815260206004820152601860248201527f76657269666965722d6258312d6774652d7072696d652d7100000000000000006044820152606490fd5b156104ad57565b60405162461bcd60e51b815260206004820152601860248201527f76657269666965722d6259312d6774652d7072696d652d7100000000000000006044820152606490fd5b156104f957565b60405162461bcd60e51b815260206004820152601760248201527f76657269666965722d63582d6774652d7072696d652d710000000000000000006044820152606490fd5b1561054557565b60405162461bcd60e51b815260206004820152601760248201527f76657269666965722d63592d6774652d7072696d652d710000000000000000006044820152606490fd5b634e487b7160e01b600052601160045260246000fd5b60001981146105af5760010190565b61058a565b90600a8110156105c55760051b0190565b610314565b156105d157565b60405162461bcd60e51b815260206004820152601f60248201527f76657269666965722d6774652d736e61726b2d7363616c61722d6669656c64006044820152606490fd5b949394929190926106256102ba565b81516020809301516106356100e0565b9182528382015281526106466100e0565b948051518652610657815160200190565b5183870152610676836106686100e0565b920180515183525160200190565b51838201526106836100e0565b9586528286015281810194855281835193015161069e6100e0565b93845282840152604081019283528351938281019485516106bd6100e0565b91825284820152606083019081526107717f30644e72e131a029b85045b68181585d97816a916871ca8d3c208c16d87cfd476106fc818651511061032a565b61070b81878751015110610376565b610719818a515151106103c2565b61072981878b510151511061040e565b610740816107398b515160200190565b511061045a565b61075981610752888c51015160200190565b51106104a6565b61076681885151106104f2565b85875101511061053e565b60005b600a8110610bea575090610bc3979893929161078e611006565b966107976100e0565b9260008452610b8a848781019860008a5281996107b2610234565b918a6101206107bf610244565b927f1c419adaafc185cc89ae1f08c2bbb737ccd30c17fea232d48316b1cf4428fa5d6107e96100e0565b95600087526000858801527f121830d142ae433cba8277c82d8fff0946109ae3d1d2bf7cae08d8536fd89b0d8952527f0c54d235b615599eef4a58ff8776fa4b9fd79dbefe04f2553925c8e175a9fadd84527f2af5b41632ce3e5f724750b617f164bf943cb82bdd50063d5fbc893bc820ec498385017f1481ac6103a6fe4fddb885c835f9a565dd5e782408fa4e12095af269e9f47e3581526040860194833586526108978a8a8a8a611282565b7f092e1c41eca8a3e5bcdcda6042d51a68a0083877aefbfca92dbb54dcf262e66887527e712afd0ae34adfb6ade370036128bce6be9df7fe5b92d630ef1106d86219e7825283013585526108ed89898989611282565b7f238359fd9bd81dd06992ec74206e144c2a9129e097a7b90bccc5c73963528f6686527f0edaceff7c99d4170b07a1167f7bfdc4807241041ac5213b647330718db81f5f81526040830135855261094689898989611282565b7f1742519d428a17fb5cb03764c8ddf03ef40c0a514f45d8147dcebd429a63b15d86527f10ac05dcbb7fa77f808f225efe42cb29128798efaba30301912ef38e3bf63d5981526060830135855261099f89898989611282565b7f1fde9740f5d9d95844c87871292e50814fcc0e1170ad822cf5f31dea3feeb8ed86527f24467cd6437d9eaa52e5beec30d93d3f28b6cc63a793bca3a19b34c6867dd9558152608083013585526109f889898989611282565b7f23aa55605039735b097b344c3f8d251ade8ab0353abb4615a1099aac626e808086527f2558b77df9ef7dd7e6626c877080293ecb40f3e104c9bd81dd7a2effab82764d815260a08301358552610a5189898989611282565b7f0f818d7be1e351a3e027530bca8ff5814837745bbf69ff5058cccbd1a5c3535486527f12fcbc4738843338e4b3ea24ca59fdff1f08b03f1e28ba85ba0c06491be39db6815260c08301358552610aaa89898989611282565b7f22142498c83b775134a74bcb379c86789c3d49321439f16d65232969d3abb0d286527f0e22c66058a1acaeb00967ce3ef89692d376543d9fce9c78e7ea4a7757816be4815260e08301358552610b0389898989611282565b7f0809bfb275af9a86d1e69b49f00d387239b296cae779dc7c11e00288db812ce686527f0ba54ad6bcc17ac8f52ea4c03ed29d2a79505d9891149e043207b1aadccd20ee81526101008301358552610b5d89898989611282565b7f13868f05749f38e2b2ddf5097fe78034d5c3df512315720c5b4c40c53fc5fcf886525201359052611282565b511590811591610bdf575b50610bc6575b5050610ba79051610c2d565b9451908451908501519160606040870151955196015196610e60565b90565b51919350610ba791610bd791610d14565b929038610b9b565b905051151538610b95565b80610c237f30644e72e131a029b85045b68181585d2833e84879b9709143e1f593f0000001610c1c610c28948e6105b4565b35106105ca565b6105a0565b610774565b60006020610c396100e0565b8281520152805190811580610cab575b15610c66575050610c586100e0565b600081526000602082015290565b602001517f30644e72e131a029b85045b68181585d97816a916871ca8d3c208c16d87cfd479081900681039081116105af57610ca06100e0565b918252602082015290565b50602081015115610c49565b9060048110156105c55760051b0190565b15610ccf57565b60405162461bcd60e51b815260206004820152601260248201527f70616972696e672d6164642d6661696c656400000000000000000000000000006044820152606490fd5b60609092919260c0610d246100e0565b9160008352600060208401526020839681610d3d610105565b936080368637805185520151828401528051604084015201518482015260066107cf195a01fa8015610d7457610d7290610cc8565b565bfe5b60405190610320820182811067ffffffffffffffff8211176101005760405260188252610300366020840137565b906006820291808304600614901517156105af57565b90600182018092116105af57565b90600282018092116105af57565b90600382018092116105af57565b90600482018092116105af57565b90600582018092116105af57565b80518210156105c55760209160051b010190565b15610e1b57565b60405162461bcd60e51b815260206004820152601560248201527f70616972696e672d6f70636f64652d6661696c656400000000000000000000006044820152606490fd5b9491959692909396610e70610105565b95865260209788978888015260408701526060860152610e8e610105565b9384528584015260408301526060820152610ea7610d76565b9160005b60048110610ee357505050610300610ec1610269565b9384920160086107cf195a01fa8015610d7457610edd90610e14565b51151590565b610fb59192939450610ef481610da4565b610efe8285610cb7565b5151610f0a8288610e00565b5286610f168386610cb7565b510151610f2b610f2583610dba565b88610e00565b52610f368286610cb7565b515151610f45610f2583610dc8565b52610f5b610f538387610cb7565b515160200190565b51610f68610f2583610dd6565b5286610f748387610cb7565b51015151610f84610f2583610de4565b52610faf610fa9610fa289610f99868a610cb7565b51015160200190565b5192610df2565b87610e00565b526105a0565b9084939291610eab565b610fc7610105565b90610fd06100e0565b60008152600060208201528252610fe561028e565b6020830152610ff261028e565b6040830152610fff61028e565b6060830152565b61100e610fbf565b906110176100e0565b7f15bb4bfa92174f4de280d5198596667a6dbc9136572bd088c60233d892d2a89b81526020907f109495ec258afe4510f8ec38b22617eb0807269fc15994eec80eca1ab345cc6182820152835261106c6100e0565b7f2b0870a4df97091765ef7595b102e15229dc1fefc23df805430b99f430e4edaf81527f1f56011defc68c2eb6cc1c2f81e712c866c72b8ea88cc9b7b1cf652ce0c13800828201526110bc6100e0565b7f17266ae7d0468824140a8430bb2a4fdffe1fa885b518cf1f4cbd776f0e14df3381527f2afe818bcbab95ffbc67bff901781057d7192ca0a98e64ec0925c0f32b6be1a48382015261110c6100e0565b918252828201528184015261111f6100e0565b7f2e60a859ab14f12bebd7556571516d0b4dd1da630cd428b9a32fa0f0ba30684381527f2c24ff30a83fb64a653ff5734e22d3133a7f04787a0c1f5eea3939bb722287e08282015261116f6100e0565b7f0e9ec1407cb042030da092604db53e7e3fe497224cae60abd8cb340f979ee97a81527f2234a4e6adb63923fcb0c3c8be142b5bc02248c0c240f792e762e85f26b195b6838201526111bf6100e0565b9182528282015260408401526111d36100e0565b907f2facaef8d2ddda63cefc8968827970137b2154be8b69a51784765e9f1bf44a0582527f17892e658d0e9cba7b6a024ce28ba07753898c9b2eb6be0d4e4cada81457b007818301526112246100e0565b907f028c9ae045ef26cbb07cd0fddd91ba668e6a6041cac2ecda80c1af3cd0b2f4d482527f2475616b6546a7fed991553dcec9848bf14d97f0450826a9cb9e2041a9b7747d818301526112756100e0565b9283528201526060830152565b90929160608460806107cf19946007865a01fa15610d7457600660c0926020606096865185528187015182860152805160408601520151868401525a01fa8015610d7457610d7290610cc856fea2646970667358221220920aef95279d83d5568d9768e8d11fed4d38f9808780b73b78498b27c9a40bbb64736f6c63430008120033",
  "devdoc": {
    "kind": "dev",
    "methods": {},
    "version": 1
  },
  "userdoc": {
    "kind": "user",
    "methods": {},
    "version": 1
  },
  "storageLayout": {
    "storage": [],
    "types": null
  }
}