{
  "address": "0xc0D0CCa7083A40CB63A296bcbC847F5f092E3572",
  "abi": [
    {
      "inputs": [
        {
          "internalType": "contract ISMT",
          "name": "_smtContract",
          "type": "address"
        }
      ],
      "stateMutability": "nonpayable",
      "type": "constructor"
    },
    {
      "anonymous": false,
      "inputs": [
        {
          "indexed": true,
          "internalType": "address",
          "name": "previousOwner",
          "type": "address"
        },
        {
          "indexed": true,
          "internalType": "address",
          "name": "newOwner",
          "type": "address"
        }
      ],
      "name": "OwnershipTransferred",
      "type": "event"
    },
    {
      "anonymous": false,
      "inputs": [
        {
          "indexed": false,
          "internalType": "address",
          "name": "user",
          "type": "address"
        },
        {
          "indexed": false,
          "internalType": "uint64",
          "name": "fromChain",
          "type": "uint64"
        },
        {
          "indexed": false,
          "internalType": "uint256",
          "name": "volume",
          "type": "uint256"
        }
      ],
      "name": "SumVolume",
      "type": "event"
    },
    {
      "anonymous": false,
      "inputs": [
        {
          "indexed": false,
          "internalType": "contract ISMT",
          "name": "smtContract",
          "type": "address"
        }
      ],
      "name": "UpdateSmtContract",
      "type": "event"
    },
    {
      "anonymous": false,
      "inputs": [
        {
          "indexed": false,
          "internalType": "uint64",
          "name": "chainId",
          "type": "uint64"
        },
        {
          "indexed": false,
          "internalType": "address",
          "name": "newAddress",
          "type": "address"
        }
      ],
      "name": "UpdateVerifierAddress",
      "type": "event"
    },
    {
      "inputs": [
        {
          "internalType": "address",
          "name": "swapper",
          "type": "address"
        }
      ],
      "name": "getAttestedSwapSumVolume",
      "outputs": [
        {
          "internalType": "uint256",
          "name": "",
          "type": "uint256"
        }
      ],
      "stateMutability": "view",
      "type": "function"
    },
    {
      "inputs": [],
      "name": "owner",
      "outputs": [
        {
          "internalType": "address",
          "name": "",
          "type": "address"
        }
      ],
      "stateMutability": "view",
      "type": "function"
    },
    {
      "inputs": [],
      "name": "renounceOwnership",
      "outputs": [],
      "stateMutability": "nonpayable",
      "type": "function"
    },
    {
      "inputs": [
        {
          "internalType": "bytes",
          "name": "hashes",
          "type": "bytes"
        }
      ],
      "name": "setBatchTierVkHashes",
      "outputs": [],
      "stateMutability": "nonpayable",
      "type": "function"
    },
    {
      "inputs": [],
      "name": "smtContract",
      "outputs": [
        {
          "internalType": "contract ISMT",
          "name": "",
          "type": "address"
        }
      ],
      "stateMutability": "view",
      "type": "function"
    },
    {
      "inputs": [
        {
          "internalType": "uint64",
          "name": "_chainId",
          "type": "uint64"
        },
        {
          "internalType": "bytes",
          "name": "_proof",
          "type": "bytes"
        }
      ],
      "name": "submitUniswapSumVolumeProof",
      "outputs": [],
      "stateMutability": "nonpayable",
      "type": "function"
    },
    {
      "inputs": [
        {
          "internalType": "address",
          "name": "newOwner",
          "type": "address"
        }
      ],
      "name": "transferOwnership",
      "outputs": [],
      "stateMutability": "nonpayable",
      "type": "function"
    },
    {
      "inputs": [
        {
          "internalType": "contract ISMT",
          "name": "_smtContract",
          "type": "address"
        }
      ],
      "name": "updateSmtContract",
      "outputs": [],
      "stateMutability": "nonpayable",
      "type": "function"
    },
    {
      "inputs": [
        {
          "internalType": "uint64",
          "name": "_chainId",
          "type": "uint64"
        },
        {
          "internalType": "address",
          "name": "_verifierAddress",
          "type": "address"
        }
      ],
      "name": "updateVerifierAddress",
      "outputs": [],
      "stateMutability": "nonpayable",
      "type": "function"
    },
    {
      "inputs": [
        {
          "internalType": "uint64",
          "name": "",
          "type": "uint64"
        }
      ],
      "name": "verifierAddresses",
      "outputs": [
        {
          "internalType": "address",
          "name": "",
          "type": "address"
        }
      ],
      "stateMutability": "view",
      "type": "function"
    },
    {
      "inputs": [
        {
          "internalType": "address",
          "name": "",
          "type": "address"
        }
      ],
      "name": "volumes",
      "outputs": [
        {
          "internalType": "uint256",
          "name": "",
          "type": "uint256"
        }
      ],
      "stateMutability": "view",
      "type": "function"
    }
  ],
  "transactionHash": "0x83cf1654fa7a9277643099344039b79c58db4e8a4f8069a7e9cb3cacf87e53cd",
  "args": [
    "0xD448d9899237D6EaE6eA8E4bA24791B6d22B6016"
  ],
  "numDeployments": 2,
  "solcInputHash": "4714ac4d79ffc9db6f12bf10309b43a8",
  "bytecode": "0x6080346100a757601f610bc138819003918201601f19168301916001600160401b038311848410176100ac578084926020946040528339810103126100a757516001600160a01b0390818116908190036100a75760005460018060a01b0319903382821617600055604051933391167f8be0079c531659141344cd1fd0a4f28419497f9722a3daafe3b4186f6b6457e0600080a36009541617600955610afe90816100c38239f35b600080fd5b634e487b7160e01b600052604160045260246000fdfe6040608081526004908136101561001557600080fd5b600091823560e01c9081631396511e146109355781633221aec61461090d578163715018a6146108ad5781638d35aa9d1461041a5781638da5cb5b146103f4578163950650c1146103bd578163b1ec4c40146103bd578163bd88d14614610259578163ec4ffc52146101c1578163f2fde38b146100df575063f5cec6af1461009c57600080fd5b346100db5760203660031901126100db576001600160a01b038160209367ffffffffffffffff6100ca6109a8565b168152600885522054169051908152f35b5080fd5b9050346101bd5760203660031901126101bd576100fa6109f2565b908354906001600160a01b0380831693610115338614610a08565b169384156101545750506001600160a01b031916821783557f8be0079c531659141344cd1fd0a4f28419497f9722a3daafe3b4186f6b6457e08380a380f35b906020608492519162461bcd60e51b8352820152602660248201527f4f776e61626c653a206e6577206f776e657220697320746865207a65726f206160448201527f64647265737300000000000000000000000000000000000000000000000000006064820152fd5b8280fd5b5050346100db57806003193601126100db576101db6109a8565b906024356001600160a01b03808216809203610255577ffd4bb2421fdcb098a8b68c19410f433a24b805b98f148eb28b7cc384b0a0e65f9361022a67ffffffffffffffff928754163314610a08565b16908185526008602052828520816001600160a01b031982541617905582519182526020820152a180f35b8480fd5b919050346101bd57602090816003193601126103b957823567ffffffffffffffff81116102555761028d90369085016109c4565b90916102a46001600160a01b038754163314610a08565b60059382851c946006928387116103775750875b8681106102c3578880f35b80821b818104841482151715610364576001908183018084116103515780851b908082048714901517156103515780821161034d5787811161034d578882013591900385811061033c575b5090858310156103295782015561032490610aa3565b6102b8565b634e487b7160e01b8b5260328a5260248bfd5b60001990860360031b1b163861030e565b8b80fd5b634e487b7160e01b8c5260118b5260248cfd5b634e487b7160e01b8a526011895260248afd5b5162461bcd60e51b8152808801839052601160248201527f65786365656473206d61782074696572730000000000000000000000000000006044820152606490fd5b8380fd5b5050346100db5760203660031901126100db57806020926001600160a01b036103e46109f2565b1681526007845220549051908152f35b5050346100db57816003193601126100db576001600160a01b0360209254169051908152f35b9050346101bd57816003193601126101bd576104346109a8565b9160249182359367ffffffffffffffff948581116108a95761045a8691369085016109c4565b9690921692838852602095600887526001600160a01b039384878b2054161561086757908891868b526008895285888c205416898c8a51928380926322bb937360e11b8252848a8301528888830152816044998a92818a85850137828201840152601f01601f191681010301915afa90811561085d578c91610840575b50156107ff5787519460c08601908111868210176107ed578852888501998886019160a087019180610160116107e9576101408201356080890152610180918183116107dc5761016c81013560601c89526101a0918083116107e5578e93820135809452806101c0116107e5576101e0928184116107e0576101d083013560801c9083013560801b178652610200928184116107e05782013560608b0152610220116107dc57013582521561079b5780511561075a57518b908c5b60068110610734575b5050156106f357858551168b5260078952878b20546106b2578886600954169151848a518094819363080cdb0b60e11b83528c8a840152878301525afa9081156106a8578b9161067b575b501561063a57897fb7f36b9639c04a7740988446e70ac14b79468c98e600ae501a19320c9307756e60608b8b8b8b8b8b8551828251168a5260078652848a205551169351928251948552840152820152a180f35b865162461bcd60e51b81529283018890526012908301527f736d7420726f6f74206e6f742076616c6964000000000000000000000000000090820152606490fd5b61069b9150893d8b116106a1575b6106938183610a53565b810190610a8b565b386105e6565b503d610689565b88513d8d823e3d90fd5b875162461bcd60e51b81528085018a9052601c818401527f616c72656164792070726f76656420666f72207468697320757365720000000081850152606490fd5b875162461bcd60e51b81528085018a90526013818401527f766b48617368206973206e6f742076616c69640000000000000000000000000081850152606490fd5b600181810154831461074f575061074a90610aa3565b610592565b92505050388061059b565b885162461bcd60e51b81528086018b9052601e818501527f766b486173682073686f756c64206265206c6172676572207468616e2030000081860152606490fd5b885162461bcd60e51b81528086018b9052601e818501527f766f6c756d652073686f756c64206265206c6172676572207468616e2030000081860152606490fd5b8e80fd5b508f80fd5b8f80fd5b8d80fd5b634e487b7160e01b8c5260418552828cfd5b875162461bcd60e51b81528085018a9052600f818401527f70726f6f66206e6f742076616c6964000000000000000000000000000000000081850152606490fd5b61085791508a3d8c116106a1576106938183610a53565b386104d7565b89513d8e823e3d90fd5b865162461bcd60e51b81528084018990526016818401527f636861696e207665726966696572206e6f7420736574000000000000000000006044820152606490fd5b8680fd5b833461090a578060031936011261090a578080546001600160a01b03196001600160a01b038216916108e0338414610a08565b1682557f8be0079c531659141344cd1fd0a4f28419497f9722a3daafe3b4186f6b6457e08280a380f35b80fd5b5050346100db57816003193601126100db576020906001600160a01b03600954169051908152f35b9050346101bd5760203660031901126101bd57356001600160a01b03908181168091036103b9577fe93557923617d976d723e8cea6746c85a3a16814eda1d638dcfb7a1fffef00429261098e6020938654163314610a08565b816001600160a01b0319600954161760095551908152a180f35b6004359067ffffffffffffffff821682036109bf57565b600080fd5b9181601f840112156109bf5782359167ffffffffffffffff83116109bf57602083818601950101116109bf57565b600435906001600160a01b03821682036109bf57565b15610a0f57565b606460405162461bcd60e51b815260206004820152602060248201527f4f776e61626c653a2063616c6c6572206973206e6f7420746865206f776e65726044820152fd5b90601f8019910116810190811067ffffffffffffffff821117610a7557604052565b634e487b7160e01b600052604160045260246000fd5b908160209103126109bf575180151581036109bf5790565b6000198114610ab25760010190565b634e487b7160e01b600052601160045260246000fdfea26469706673582212200210acfa9e8e7cd9e6c82b70fc322ace8362729d7645a8249d9b9d9d1c128b4264736f6c63430008140033",
  "devdoc": {
    "kind": "dev",
    "methods": {
      "owner()": {
        "details": "Returns the address of the current owner."
      },
      "renounceOwnership()": {
        "details": "Leaves the contract without owner. It will not be possible to call `onlyOwner` functions anymore. Can only be called by the current owner. NOTE: Renouncing ownership will leave the contract without an owner, thereby removing any functionality that is only available to the owner."
      },
      "transferOwnership(address)": {
        "details": "Transfers ownership of the contract to a new account (`newOwner`). Can only be called by the current owner."
      }
    },
    "version": 1
  },
  "userdoc": {
    "kind": "user",
    "methods": {},
    "version": 1
  },
  "storageLayout": {
    "storage": [
      {
        "astId": 7,
        "contract": "contracts/apps/uniswap-sum/UniswapSumVolume.sol:UniswapSumVolume",
        "label": "_owner",
        "offset": 0,
        "slot": "0",
        "type": "t_address"
      },
      {
        "astId": 6222,
        "contract": "contracts/apps/uniswap-sum/UniswapSumVolume.sol:UniswapSumVolume",
        "label": "batchTierVkHashes",
        "offset": 0,
        "slot": "1",
        "type": "t_array(t_uint256)6_storage"
      },
      {
        "astId": 6231,
        "contract": "contracts/apps/uniswap-sum/UniswapSumVolume.sol:UniswapSumVolume",
        "label": "volumes",
        "offset": 0,
        "slot": "7",
        "type": "t_mapping(t_address,t_uint256)"
      },
      {
        "astId": 6235,
        "contract": "contracts/apps/uniswap-sum/UniswapSumVolume.sol:UniswapSumVolume",
        "label": "verifierAddresses",
        "offset": 0,
        "slot": "8",
        "type": "t_mapping(t_uint64,t_address)"
      },
      {
        "astId": 6238,
        "contract": "contracts/apps/uniswap-sum/UniswapSumVolume.sol:UniswapSumVolume",
        "label": "smtContract",
        "offset": 0,
        "slot": "9",
        "type": "t_contract(ISMT)6729"
      }
    ],
    "types": {
      "t_address": {
        "encoding": "inplace",
        "label": "address",
        "numberOfBytes": "20"
      },
      "t_array(t_uint256)6_storage": {
        "base": "t_uint256",
        "encoding": "inplace",
        "label": "uint256[6]",
        "numberOfBytes": "192"
      },
      "t_contract(ISMT)6729": {
        "encoding": "inplace",
        "label": "contract ISMT",
        "numberOfBytes": "20"
      },
      "t_mapping(t_address,t_uint256)": {
        "encoding": "mapping",
        "key": "t_address",
        "label": "mapping(address => uint256)",
        "numberOfBytes": "32",
        "value": "t_uint256"
      },
      "t_mapping(t_uint64,t_address)": {
        "encoding": "mapping",
        "key": "t_uint64",
        "label": "mapping(uint64 => address)",
        "numberOfBytes": "32",
        "value": "t_address"
      },
      "t_uint256": {
        "encoding": "inplace",
        "label": "uint256",
        "numberOfBytes": "32"
      },
      "t_uint64": {
        "encoding": "inplace",
        "label": "uint64",
        "numberOfBytes": "8"
      }
    }
  }
}