{
  "address": "0x7abD76EB305263B044acCE44491010cDc3079222",
  "abi": [
    {
      "inputs": [
        {
          "internalType": "uint256[2]",
          "name": "a",
          "type": "uint256[2]"
        },
        {
          "internalType": "uint256[2][2]",
          "name": "b",
          "type": "uint256[2][2]"
        },
        {
          "internalType": "uint256[2]",
          "name": "c",
          "type": "uint256[2]"
        },
        {
          "internalType": "uint256[2]",
          "name": "commit",
          "type": "uint256[2]"
        },
        {
          "internalType": "uint256[32]",
          "name": "input",
          "type": "uint256[32]"
        }
      ],
      "name": "verifyProof",
      "outputs": [
        {
          "internalType": "bool",
          "name": "r",
          "type": "bool"
        }
      ],
      "stateMutability": "view",
      "type": "function"
    },
    {
      "inputs": [
        {
          "internalType": "bytes",
          "name": "proofData",
          "type": "bytes"
        }
      ],
      "name": "verifyRaw",
      "outputs": [
        {
          "internalType": "bool",
          "name": "",
          "type": "bool"
        }
      ],
      "stateMutability": "view",
      "type": "function"
    }
  ],
  "transactionHash": "0x580720046745457128d2005f6b1ecd4ea0882b37752bd323db91346629ce2834",
  "args": [],
  "numDeployments": 3,
  "solcInputHash": "e49b231579c0e420166ad97e72043719",
  "bytecode": "0x60808060405234610016576121eb908161001c8239f35b600080fdfe604060808152600436101561001357600080fd5b600090813560e01c91826335d80b4c1461003d57505063457726e61461003857600080fd5b61029a565b346100db576105403660031901126100db576100583661015a565b9036606312156100db5761006a6100f4565b908160c4913683116100db57506044905b8282106100c2576100be866100ad87876100943661019c565b61009d366101da565b916100a73661025a565b93610706565b905190151581529081906020820190565b0390f35b602086916100d0368561021a565b81520191019061007b565b80fd5b634e487b7160e01b600052604160045260246000fd5b604051906040820182811067ffffffffffffffff82111761011457604052565b6100de565b604051906080820182811067ffffffffffffffff82111761011457604052565b60405190610400820182811067ffffffffffffffff82111761011457604052565b80602312156101975761016b6100f4565b90816044918211610197576004905b8282106101875750505090565b813581526020918201910161017a565b600080fd5b8060e31215610197576101ad6100f4565b90816101049182116101975760c4905b8282106101ca5750505090565b81358152602091820191016101bd565b806101231215610197576101ec6100f4565b908161014491821161019757610104905b82821061020a5750505090565b81358152602091820191016101fd565b9080601f830112156101975761022e6100f4565b80926040810192831161019757905b82821061024a5750505090565b813581526020918201910161023d565b8061016312156101975761026c610139565b908161054491821161019757610144905b82821061028a5750505090565b813581526020918201910161027d565b346101975760203660031901126101975767ffffffffffffffff6004358181116101975736602382011215610197578060040135918211610197573660248383010111610197576100be9160246102f19201611e5a565b60405190151581529081906020820190565b61030b610119565b906080368337565b604051906060820182811067ffffffffffffffff821117610114576040526060368337565b604051906020820182811067ffffffffffffffff821117610114576040526020368337565b6103656100f4565b906040368337565b610375610139565b90610400368337565b6103866100f4565b9061038f6100f4565b6040368237825261039e6100f4565b60403682376020830152565b6103b2610119565b906103bb6100f4565b60009081815281602082015283526103d161037e565b60208401526103de6100f4565b81815281602082015260408401526103f46100f4565b9080825260208201526060830152565b634e487b7160e01b600052603260045260246000fd5b1561042157565b60405162461bcd60e51b815260206004820152601760248201527f76657269666965722d61582d6774652d7072696d652d710000000000000000006044820152606490fd5b1561046d57565b60405162461bcd60e51b815260206004820152601760248201527f76657269666965722d61592d6774652d7072696d652d710000000000000000006044820152606490fd5b156104b957565b60405162461bcd60e51b815260206004820152601860248201527f76657269666965722d6258302d6774652d7072696d652d7100000000000000006044820152606490fd5b1561050557565b60405162461bcd60e51b815260206004820152601860248201527f76657269666965722d6259302d6774652d7072696d652d7100000000000000006044820152606490fd5b1561055157565b60405162461bcd60e51b815260206004820152601860248201527f76657269666965722d6258312d6774652d7072696d652d7100000000000000006044820152606490fd5b1561059d57565b60405162461bcd60e51b815260206004820152601860248201527f76657269666965722d6259312d6774652d7072696d652d7100000000000000006044820152606490fd5b156105e957565b60405162461bcd60e51b815260206004820152601760248201527f76657269666965722d63582d6774652d7072696d652d710000000000000000006044820152606490fd5b1561063557565b60405162461bcd60e51b815260206004820152601760248201527f76657269666965722d63592d6774652d7072696d652d710000000000000000006044820152606490fd5b634e487b7160e01b600052601160045260246000fd5b600019811461069f5760010190565b61067a565b9060208110156106b55760051b0190565b610404565b156106c157565b60405162461bcd60e51b815260206004820152601f60248201527f76657269666965722d6774652d736e61726b2d7363616c61722d6669656c64006044820152606490fd5b949394929190926107156103aa565b81516020809301516107256100f4565b9182528382015281526107366100f4565b948051518652610747815160200190565b5183870152610766836107586100f4565b920180515183525160200190565b51838201526107736100f4565b9586528286015281810194855281835193015161078e6100f4565b93845282840152604081019283528351938281019485516107ad6100f4565b91825284820152606083019081526108617f30644e72e131a029b85045b68181585d97816a916871ca8d3c208c16d87cfd476107ec818651511061041a565b6107fb81878751015110610466565b610809818a515151106104b2565b61081981878b51015151106104fe565b610830816108298b515160200190565b511061054a565b61084981610842888c51015160200190565b5110610596565b61085681885151106105e2565b85875101511061062e565b60005b84811061149257509061146b979893929161087d6118ae565b966108866100f4565b9260008452611432848781019860008a5281996108a1610303565b918a6103e06108ae610313565b927eaa28df6c8412aecb16aa4130111d93eddcb4be7418ee9f70bb47cb9b3de3986108d76100f4565b95600087526000858801527f080158957377751acaa7e7ae81316ce0b94bd380a31eb92892d37304aff00efc8952527f248110e290707f7ffc24f5240e5081bb4638a9340c04f17a14178778afe28e4684527f229e184e414ba543bafe7306b21dea1d3b146a891f754f4bbb54e4d2953f863c8385017f1ee854047063ce5de0d089168a3e5b9790ae8ec02d7d8266ea3ff432d3ff593a8152825194604087019586526109868a8a8a8a611b2a565b7f23bb627ad10617c0ec5fbfdd6293005a41812bbb1abe23a57fe41bece82a5c4d87527f28b05620a4143ca2a92fe42c702f29fb0d82ae2b66457540cb72c4f1e8de55b2825283015185526109dd89898989611b2a565b7f26e2891a9eecb0e0f1a1e86f44150115587f6d60759ae21f180342645cf72fb486527f15d6a9efb6d8a431745af3e9a39c70887208f043c438af4994ace925be7b6b4b815260408301518552610a3689898989611b2a565b7f1e993f34a2e0c02a11c4897d0691193659b205c9ec3ad7b09d244eed554c092586527f25380753210131bf2d65c512a672f7246b4d459b60b434cf762f18e3885bf843815260608301518552610a8f89898989611b2a565b7f0d99d1e51e97b4a541b92eef1ccfa0285fc290323b6a982985d9f12f23f3320986527f08e005bcfd309eda7a63032622cbe41a241c8057aa69c4798eb08d37e0ccabcc815260808301518552610ae889898989611b2a565b7f0fd7b7c9a3cde3fa39814a19482d0c2072d3cd6b9a0752cdb4057b2a73f59c4386527f2a6103f94ca4e35fa333f6dade21e8ca354c96d4e69ad180e50c115a674c6b0c815260a08301518552610b4189898989611b2a565b7f0e10e4994cc0ca479e0ed980eb0f9c368c9c51e3f2d9cf683540a1d608c2d86a86527f1a99d78404e0d41c59153370ee26a9f7a8580ecf0728a1c1d8aaef2eee30dc11815260c08301518552610b9a89898989611b2a565b7f21a02d03b310c4da99ebb3984140c5ab2c66677b738a04005c87ff9053f6a12e86527f2e00cae1449224c2f2b472e6e6cc29d1990182576d74fade49c6c06d86f0cf7b815260e08301518552610bf389898989611b2a565b7f1fa5730471385c219f184cb59d12bbe719cd7673999af2718f105bb3a6fc09e386527f0fe6e5d574b893ad4aa142686127b34e5fe71ec5d2155a984fe0a0f6acdf045d81526101008301518552610c4d89898989611b2a565b7f1143d2331e6887a652ffbcf4c54b061b82a0eefedb7e28a3a6302a1fb5ed9de086527f1c1b353bf46b9db8e8b46359b4d046dd45330386f22b33f139f4ad73d16fdbaf81526101208301518552610ca789898989611b2a565b7f25e13d2a8cbf08201e866e8a4400e020cebd97b799b3980cc53d70c062b2f65086527f1f81fb0139a53ebf232ef9048c2f9742fec1ca7dde7d3386afc4d2af3784f4e481526101408301518552610d0189898989611b2a565b7f2ab76fe37d5b07f97a85cf73fe41b22c9e8320643cb58747a2733d075fa506e486527e50054840bbccac265b033bda9f547fe356347f70e1c0b54884a09621ee915681526101608301518552610d5a89898989611b2a565b7ebe314dcadcb96dd60b50c1c4b2ed3ec780cada09bd6727e433b86968b03ff186527f1823ecd0fdc95891e4b825df897afc6958460ef38aaf6bd109cbb055ea58105681526101808301518552610db389898989611b2a565b7f2faa5cea169edd594ff40a217c412aeef082fc5685df665a0963885bcf9dbd6486527f2a2a6f640f96c1e189d4fa8cf797ee219308fa893e7125297c787a7be77e677081526101a08301518552610e0d89898989611b2a565b7f02f68bdcd8590633e1f8409d30183b2cd7b087136fbfe445095f3a153d19bcb686527f03e7acc5771950141803554588c03e57b08a1ffb8a1bcfe0cc6710c80f49931781526101c08301518552610e6789898989611b2a565b7f036d9616e7184898d26c7099f2b70c0fc798bb428fa1fa7a1fc4547d9929a69286527eb2acdf2a1e73abfb81258dc3fe6f91b2c73975a44c0ca45696bdeb7de7786b81526101e08301518552610ec089898989611b2a565b7f075a1b01c51d5260a758f17cb2374a116c163d9851ae8780eff296ca3c463ab286527f075b4d85de136bf04b3d64499da3c953c193d7afbc1228ecb2271c2cf5f0cbf481526102008301518552610f1a89898989611b2a565b7f2928f2533cdba08f3b6dc610b4e6110254f8778b14dbc419ce29df94212a67ec86527f19fc7902c9105d9e8e9d46b569932182ff78d626fa48898dc5a5d3dce9ff203581526102208301518552610f7489898989611b2a565b7f0699eb6ad56ae679e02b6d5e5b0405ced91fed9e283165cb7d74b6fe5f0a23f086527f225f7d45902414b5708a6a23582d0fcf12637a5fedf5f0d5278b3654addb605f81526102408301518552610fce89898989611b2a565b7f26fd1b113b6ffe0191599c3711c7133d98b86f9e31b698876bb58574b47e549f86527e5a4800bb388f97bbca01960fc060091d6ee736fa1aeb861465e981541fefcd8152610260830151855261102789898989611b2a565b7f1d06851153c36d78245aa433124318b4561cf2dd388c1aaff25eb8230697d74886527f2bab1a601a62e5cba04f78d2174a388791d25cfdd4afb01bbe6817e1e07cd1fa8152610280830151855261108189898989611b2a565b7f0cd044324b5410ef05accc196152813d5b32f479b4f5f2d55c025c8ca95ed60586527f2991a7069ab4b15cad6456579afde70d5c900a0b6b586926249654929a3daacb81526102a083015185526110db89898989611b2a565b7f03b4b4827f01dd7cedf189326a87e9a34c63d6168feaeac0708f50d9436b1b1c86527f293f750fcef507fe859aa8f19cfd4f4a7d4c09fa2f8daad9911b264d49b8fd2b81526102c0830151855261113589898989611b2a565b7f2b7747235f60649692f55b5dc37de0850be576753078e1315176299b343cc49f86527f20baa26ebce38da2e986daf7d9d9099fd2cbe60f97d2dea7e5ec81b02151bd9481526102e0830151855261118f89898989611b2a565b7f0976d118e6bc18a8e871e2b1c60e164644f92662ecc6ff86765621d0464eaa2686527f197ced55ef0ab1699e22c654cf2f9c84953f66be7c26edd3869c539004973a04815261030083015185526111e989898989611b2a565b7f2e108fa263cfee74082449f811252e14899def0f634203c09a14bf27a414617286527f2e70837fe4561bae73ce8f01a1e30498c59b496ba6652ee1fe2ea67f2a3a8bcf8152610320830151855261124389898989611b2a565b7f1a6addd4b7b8ffd9e0f9dcab1def6f47fa9c2513a181363d0ae35ed9d925926586527f1037eee229e66e7baf4c565e1e38c60bf5a49bb5eb43e59a724d62c1c6e0f4298152610340830151855261129d89898989611b2a565b7f0d7e3680c5b43a13b23f5478ab4b94c46df9b53de0a19171abb5a016313f1dd486527f18c756fc89e2c734adee2fa6c87d48ff9f75790bff5af932da0533388f409a5f815261036083015185526112f789898989611b2a565b7f1c13e93d3c87738ddfe28ebd2ab73bce96b8505d5e0681a042ec12e0d81937f586527f2afffe6dc0d157e3871c1a31df95bfd906267a7a8229786adaba35b13bd3a8578152610380830151855261135189898989611b2a565b7f123902fb8c595f48271a2bb8844c652cd0fec05e7fe7d60530c3fbf108eaada786527f16fdb8e6e38f87b9a00a20dac065ecd36c46dca4ad77b151e22ce2963d7f47bd81526103a083015185526113ab89898989611b2a565b7f0e02425b60eb98e40d31371d6e24d27dc115ed05ada719643e916e83c7a0e0f886527f0fa179f4ca3ddc9ea7ae3c982b12434a85aa99488c5897737b406657cc53a77681526103c0830151855261140589898989611b2a565b7f1a45099908a59c98959ddf028ae13b87400d966c5419624eb54eb5ecc314e2e886525201519052611b2a565b511590811591611487575b5061146e575b505061144f90516114d5565b9451908451908501519160606040870151955196015196611708565b90565b5191935061144f9161147f916115bc565b929038611443565b90505115153861143d565b806114cb7f30644e72e131a029b85045b68181585d2833e84879b9709143e1f593f00000016114c46114d0948e6106a4565b51106106ba565b610690565b610864565b600060206114e16100f4565b8281520152805190811580611553575b1561150e5750506115006100f4565b600081526000602082015290565b602001517f30644e72e131a029b85045b68181585d97816a916871ca8d3c208c16d87cfd4790819006810390811161069f576115486100f4565b918252602082015290565b506020810151156114f1565b9060048110156106b55760051b0190565b1561157757565b60405162461bcd60e51b815260206004820152601260248201527f70616972696e672d6164642d6661696c656400000000000000000000000000006044820152606490fd5b60609092919260c06115cc6100f4565b91600083526000602084015260208396816115e5610119565b936080368637805185520151828401528051604084015201518482015260066107cf195a01fa801561161c5761161a90611570565b565bfe5b60405190610320820182811067ffffffffffffffff8211176101145760405260188252610300366020840137565b9060068202918083046006149015171561069f57565b906001820180921161069f57565b906002820180921161069f57565b906003820180921161069f57565b906004820180921161069f57565b906005820180921161069f57565b80518210156106b55760209160051b010190565b156116c357565b60405162461bcd60e51b815260206004820152601560248201527f70616972696e672d6f70636f64652d6661696c656400000000000000000000006044820152606490fd5b9491959692909396611718610119565b95865260209788978888015260408701526060860152611736610119565b938452858401526040830152606082015261174f61161e565b9160005b6004811061178b57505050610300611769610338565b9384920160086107cf195a01fa801561161c57611785906116bc565b51151590565b61185d919293945061179c8161164c565b6117a6828561155f565b51516117b282886116a8565b52866117be838661155f565b5101516117d36117cd83611662565b886116a8565b526117de828661155f565b5151516117ed6117cd83611670565b526118036117fb838761155f565b515160200190565b516118106117cd8361167e565b528661181c838761155f565b5101515161182c6117cd8361168c565b5261185761185161184a89611841868a61155f565b51015160200190565b519261169a565b876116a8565b52610690565b9084939291611753565b61186f610119565b906118786100f4565b6000815260006020820152825261188d61037e565b602083015261189a61037e565b60408301526118a761037e565b6060830152565b6118b6611867565b906118bf6100f4565b7f07ba3ae83718277ade84666335e3f75b64eaa49a4dd2d0e6933cd79ee71b6c8181526020907f1e686be5890b1076180973cc11e7ce8b2005f0f36a750fec823fb27d7970c6818282015283526119146100f4565b7f15118567fa0edc906239b47ec4bb9e6dc0ac7d32379e0fe66065916c6ba55e1681527f0572d689e5b851a8b4221557865ed3ac8b795f5d46fe8384514974b1945921eb828201526119646100f4565b7f215408941890a2c3c4c5fe661d6a051b680b9b06dff30eb4976df5b9b23ad77281527f010721ecdbc65d6b0272ec084115833cbbbdbad6f0ee015780641a8fd6537af9838201526119b46100f4565b91825282820152818401526119c76100f4565b7f28829db09a1d7d6ec56f0bb242fd15f415c380924858eedbf61963467c60ea5781527f28a52e6f9015f365a61f48eda80c8af66e38991865e3058737863a25841bb73082820152611a176100f4565b7f248c915aaf298aff1f9f08af9d597c53146f443a7047fbd7ca55d2e67142926d81527f1976f6a7db6ed3d95d8fa7dd0524317dde2e2c0f98935278227e47d60b0990c683820152611a676100f4565b918252828201526040840152611a7b6100f4565b907f029b16b9d7a85a449cff7b23c923c3beabcbe4af3a53b0ed720dff426a8cb78582527f1e8d12895b975950aa26ad737932441f3d39184be682850476874b554677c1af81830152611acc6100f4565b907f229746594fb60c0d1402dce4351319e3df500f82e416c85323f9f3ded010531382527f2b98a09b422e60b134356065a584bc113f4cffb192459feb15c73369821825ca81830152611b1d6100f4565b9283528201526060830152565b90929160608460806107cf19946007865a01fa1561161c57600660c0926020606096865185528187015182860152805160408601520151868401525a01fa801561161c5761161a90611570565b906020116101975790602090565b906040116101975760200190602090565b906060116101975760400190602090565b906080116101975760600190602090565b9060a0116101975760800190602090565b9060c0116101975760a00190602090565b9060e0116101975760c00190602090565b90610100116101975760e00190602090565b9061012011610197576101000190602090565b9061014011610197576101200190602090565b9061016011610197576101400190602090565b9061018011610197576101780190600890565b9061017811610197576101700190600890565b9061017011610197576101680190600890565b9061016811610197576101600190600890565b906101a011610197576101980190600890565b9061019811610197576101900190600890565b9061019011610197576101880190600890565b9061018811610197576101800190600890565b906101c011610197576101b80190600890565b906101b811610197576101b00190600890565b906101b011610197576101a80190600890565b906101a811610197576101a00190600890565b906101e011610197576101d80190600890565b906101d811610197576101d00190600890565b906101d011610197576101c80190600890565b906101c811610197576101c00190600890565b9061020011610197576101f80190600890565b906101f811610197576101f00190600890565b906101f011610197576101e80190600890565b906101e811610197576101e00190600890565b9061022011610197576102000190602090565b359060208110611dd3575090565b6000199060200360031b1b1690565b611dea6100f4565b9060005b60409081811015611e1257602091611e046100f4565b903682378185015201611dee565b5050565b7fffffffffffffffff0000000000000000000000000000000000000000000000009035818116939260088110611e4b57505050565b60080360031b82901b16169150565b61146b91611e6661035d565b611e79611e738385611b77565b90611dc5565b8152611e88611e738385611b85565b6020820152611e95611de2565b611ea2611e738486611b96565b815152611eb2611e738486611ba7565b815160200152611ec5611e738486611bb8565b6020820190815152611ee5611edd611e738688611bc9565b915160200190565b52611eee61035d565b91611efc611e738587611bda565b8352611f0b611e738587611beb565b60208401526121aa611e73611f1e61035d565b95611f2c611e73828a611bfd565b8752611f3b611e73828a611c10565b6020880152611f4861036d565b97611f56611e738383611c23565b6103e08a0152611f88611f7b611f75611f6f8585611c36565b90611e16565b60c01c90565b67ffffffffffffffff1690565b8952611f9d611f7b611f75611f6f8585611c49565b60208a0152611fb5611f7b611f75611f6f8585611c5c565b60408a0152611fcd611f7b611f75611f6f8585611c6f565b60608a015260008060808b01528060a08b0152611ff3611f7b611f75611f6f8686611c82565b60c08b015261200b611f7b611f75611f6f8686611c95565b60e08b0152612023611f7b611f75611f6f8686611ca8565b6101008b015261203c611f7b611f75611f6f8686611cbb565b6101208b0152806101408b0152806101608b0152612063611f7b611f75611f6f8686611cce565b6101808b015261207c611f7b611f75611f6f8686611ce1565b6101a08b0152612095611f7b611f75611f6f8686611cf4565b6101c08b01526120ae611f7b611f75611f6f8686611d07565b6101e08b0152806102008b0152806102208b01526120d5611f7b611f75611f6f8686611d1a565b6102408b01526120ee611f7b611f75611f6f8686611d2d565b6102608b0152612107611f7b611f75611f6f8686611d40565b6102808b0152612120611f7b611f75611f6f8686611d53565b6102a08b0152806102c08b0152806102e08b0152612147611f7b611f75611f6f8686611d66565b6103008b0152612160611f7b611f75611f6f8686611d79565b6103208b0152612179611f7b611f75611f6f8686611d8c565b6103408b0152612192611f7b611f75611f6f8686611d9f565b6103608b0152806103808b01526103a08a0152611db2565b6103c086015261070656fea2646970667358221220269f5e9c444d99928cad548f5aa04c70d47f1d79d903b0bdfc1b1fa7760a49c764736f6c63430008140033",
  "devdoc": {
    "kind": "dev",
    "methods": {},
    "version": 1
  },
  "userdoc": {
    "kind": "user",
    "methods": {},
    "version": 1
  },
  "storageLayout": {
    "storage": [],
    "types": null
  }
}