{
  "address": "0x7372E732CBB6Dde9b05f64F95f98edBF1d3beDCD",
  "abi": [
    {
      "anonymous": false,
      "inputs": [
        {
          "indexed": true,
          "internalType": "address",
          "name": "previousOwner",
          "type": "address"
        },
        {
          "indexed": true,
          "internalType": "address",
          "name": "newOwner",
          "type": "address"
        }
      ],
      "name": "OwnershipTransferred",
      "type": "event"
    },
    {
      "anonymous": false,
      "inputs": [
        {
          "indexed": false,
          "internalType": "uint256",
          "name": "resetTime",
          "type": "uint256"
        }
      ],
      "name": "ResetNotification",
      "type": "event"
    },
    {
      "anonymous": false,
      "inputs": [
        {
          "indexed": false,
          "internalType": "address[]",
          "name": "_signers",
          "type": "address[]"
        },
        {
          "indexed": false,
          "internalType": "uint256[]",
          "name": "_powers",
          "type": "uint256[]"
        }
      ],
      "name": "SignersUpdated",
      "type": "event"
    },
    {
      "inputs": [
        {
          "internalType": "uint256",
          "name": "period",
          "type": "uint256"
        }
      ],
      "name": "increaseNoticePeriod",
      "outputs": [],
      "stateMutability": "nonpayable",
      "type": "function"
    },
    {
      "inputs": [],
      "name": "noticePeriod",
      "outputs": [
        {
          "internalType": "uint256",
          "name": "",
          "type": "uint256"
        }
      ],
      "stateMutability": "view",
      "type": "function"
    },
    {
      "inputs": [],
      "name": "notifyResetSigners",
      "outputs": [],
      "stateMutability": "nonpayable",
      "type": "function"
    },
    {
      "inputs": [],
      "name": "owner",
      "outputs": [
        {
          "internalType": "address",
          "name": "",
          "type": "address"
        }
      ],
      "stateMutability": "view",
      "type": "function"
    },
    {
      "inputs": [
        {
          "internalType": "address[]",
          "name": "_signers",
          "type": "address[]"
        },
        {
          "internalType": "uint256[]",
          "name": "_powers",
          "type": "uint256[]"
        }
      ],
      "name": "resetSigners",
      "outputs": [],
      "stateMutability": "nonpayable",
      "type": "function"
    },
    {
      "inputs": [],
      "name": "resetTime",
      "outputs": [
        {
          "internalType": "uint256",
          "name": "",
          "type": "uint256"
        }
      ],
      "stateMutability": "view",
      "type": "function"
    },
    {
      "inputs": [],
      "name": "ssHash",
      "outputs": [
        {
          "internalType": "bytes32",
          "name": "",
          "type": "bytes32"
        }
      ],
      "stateMutability": "view",
      "type": "function"
    },
    {
      "inputs": [
        {
          "internalType": "address",
          "name": "newOwner",
          "type": "address"
        }
      ],
      "name": "transferOwnership",
      "outputs": [],
      "stateMutability": "nonpayable",
      "type": "function"
    },
    {
      "inputs": [],
      "name": "triggerTime",
      "outputs": [
        {
          "internalType": "uint256",
          "name": "",
          "type": "uint256"
        }
      ],
      "stateMutability": "view",
      "type": "function"
    },
    {
      "inputs": [
        {
          "internalType": "uint256",
          "name": "_triggerTime",
          "type": "uint256"
        },
        {
          "internalType": "address[]",
          "name": "_newSigners",
          "type": "address[]"
        },
        {
          "internalType": "uint256[]",
          "name": "_newPowers",
          "type": "uint256[]"
        },
        {
          "internalType": "bytes[]",
          "name": "_sigs",
          "type": "bytes[]"
        },
        {
          "internalType": "address[]",
          "name": "_curSigners",
          "type": "address[]"
        },
        {
          "internalType": "uint256[]",
          "name": "_curPowers",
          "type": "uint256[]"
        }
      ],
      "name": "updateSigners",
      "outputs": [],
      "stateMutability": "nonpayable",
      "type": "function"
    },
    {
      "inputs": [
        {
          "internalType": "bytes",
          "name": "_msg",
          "type": "bytes"
        },
        {
          "internalType": "bytes[]",
          "name": "_sigs",
          "type": "bytes[]"
        },
        {
          "internalType": "address[]",
          "name": "_signers",
          "type": "address[]"
        },
        {
          "internalType": "uint256[]",
          "name": "_powers",
          "type": "uint256[]"
        }
      ],
      "name": "verifySigs",
      "outputs": [],
      "stateMutability": "view",
      "type": "function"
    }
  ],
  "transactionHash": "0x0f540653b3bdddc4e6a3a661a544af7a75d327fc8772fb9d9e253241921d93e5",
  "args": [],
  "numDeployments": 1,
  "solcInputHash": "6e1375724855e42d36d93bf6f2c45f96",
  "bytecode": "0x6080806040523461005b5760008054336001600160a01b0319821681178355916001600160a01b03909116907f8be0079c531659141344cd1fd0a4f28419497f9722a3daafe3b4186f6b6457e09080a361117b90816100618239f35b600080fdfe6080604052600436101561001257600080fd5b60003560e01c806325c38b9f146100c7578063370fb47b146100c257806365a114f1146100bd578063682dbc22146100b85780638da5cb5b146100b35780639b14d4c6146100ae578063a7bdf45a146100a9578063ba2cb25c146100a4578063d0790da91461009f578063f20c922a1461009a5763f2fde38b1461009557600080fd5b610546565b6104ab565b61048d565b6103e8565b610327565b610309565b6102e2565b610246565b610157565b610139565b3461013457600080600319360112610131576100ee6001600160a01b03825416331461093c565b600454420180421161012c576020817f68e825132f7d4bc837dea2d64ac9fc19912bf0224b67f9317d8f1a917f5304a192600355604051908152a180f35b61076e565b80fd5b600080fd5b34610134576000366003190112610134576020600254604051908152f35b34610134576000366003190112610134576020600354604051908152f35b634e487b7160e01b600052604160045260246000fd5b6060810190811067ffffffffffffffff8211176101a757604052565b610175565b90601f8019910116810190811067ffffffffffffffff8211176101a757604052565b92919267ffffffffffffffff82116101a757604051916101f8601f8201601f1916602001846101ac565b829481845281830111610134578281602093846000960137010152565b9181601f840112156101345782359167ffffffffffffffff8311610134576020808501948460051b01011161013457565b346101345760803660031901126101345767ffffffffffffffff6004358181116101345736602382011215610134576102899036906024816004013591016101ce565b602435828111610134576102a1903690600401610215565b604492919235848111610134576102bc903690600401610215565b91606435958611610134576102d86102e0963690600401610215565b959094610697565b005b346101345760003660031901126101345760206001600160a01b0360005416604051908152f35b34610134576000366003190112610134576020600454604051908152f35b346101345760403660031901126101345767ffffffffffffffff60043581811161013457610359903690600401610215565b909160243590811161013457610373903690600401610215565b9161038a6001600160a01b0360005416331461093c565b6003544211156103a3576000196003556102e093611034565b60405162461bcd60e51b815260206004820152601460248201527f6e6f742072656163682072657365742074696d650000000000000000000000006044820152606490fd5b346101345760c03660031901126101345767ffffffffffffffff6024358181116101345761041b60049136908301610215565b604492919235848111610134576104359036908401610215565b6064929192358681116101345761044f9036908601610215565b91608435888111610134576104679036908801610215565b95909460a435998a11610134576104846102e09a36908a01610215565b9990983561081f565b34610134576000366003190112610134576020600154604051908152f35b34610134576020366003190112610134576004356104d56001600160a01b0360005416331461093c565b6004548111156104e457600455005b60405162461bcd60e51b815260206004820152602360248201527f6e6f7469636520706572696f642063616e206f6e6c7920626520696e637265616044820152621cd95960ea1b6064820152608490fd5b6001600160a01b0381160361013457565b346101345760203660031901126101345760043561056381610535565b6000908154906001600160a01b038083169161058033841461093c565b169182156105d5577fffffffffffffffffffffffff000000000000000000000000000000000000000016821783557f8be0079c531659141344cd1fd0a4f28419497f9722a3daafe3b4186f6b6457e08380a380f35b60405162461bcd60e51b815260206004820152602660248201527f4f776e61626c653a206e6577206f776e657220697320746865207a65726f206160448201527f64647265737300000000000000000000000000000000000000000000000000006064820152608490fd5b9060005b8181106106515750505090565b9091926001906001600160a01b03853561066a81610535565b16815260209081019401929101610644565b91906001600160fb1b0381116101345760051b809282370190565b95949392919060405160208101906106cc816106be6106b7858a8a610640565b8b8b61067c565b03601f1981018352826101ac565b5190206001540361072957866020610727985191012060405160208101917f19457468657265756d205369676e6564204d6573736167653a0a3332000000008352603c820152603c815261071f8161018b565b519020610b13565b565b60405162461bcd60e51b815260206004820152601860248201527f6d69736d617463682063757272656e74207369676e65727300000000000000006044820152606490fd5b634e487b7160e01b600052601160045260246000fd5b90610e10820180921161012c57565b906001820180921161012c57565b9190820180921161012c57565b156107b557565b60405162461bcd60e51b815260206004820152601960248201527f747269676765722074696d6520697320746f6f206c61726765000000000000006044820152606490fd5b604090610816949361081c989693825260208201520191610640565b9161067c565b90565b989093969991949295976002548a11156108f7576107279a6108f2996108ed958c6108e88a8a6108dc8f8f61085d61085642610784565b88106107ae565b6040519460208601866108b5304684909160419282526bffffffffffffffffffffffff199060601b1660208201527f5570646174655369676e6572730000000000000000000000000000000000000060348201520190565b03966108c9601f19988981018352826101ac565b51902094604051988996602088016107fa565b039081018352826101ac565b610697565b611034565b600255565b60405162461bcd60e51b815260206004820152601e60248201527f747269676765722074696d65206973206e6f7420696e6372656173696e6700006044820152606490fd5b1561094357565b606460405162461bcd60e51b815260206004820152602060248201527f4f776e61626c653a2063616c6c6572206973206e6f7420746865206f776e65726044820152fd5b1561098e57565b60405162461bcd60e51b815260206004820152602360248201527f7369676e65727320616e6420706f77657273206c656e677468206e6f74206d616044820152620e8c6d60eb1b6064820152608490fd5b600019811461012c5760010190565b634e487b7160e01b600052603260045260246000fd5b9190811015610a145760051b0190565b6109ee565b908160011b918083046002149015171561012c57565b9190811015610a145760051b81013590601e198136030182121561013457019081359167ffffffffffffffff8311610134576020018236038113610134579190565b15610a7857565b60405162461bcd60e51b815260206004820152601e60248201527f7369676e657273206e6f7420696e20617363656e64696e67206f7264657200006044820152606490fd5b3561081c81610535565b15610ace57565b60405162461bcd60e51b815260206004820152601060248201527f7369676e6572206e6f7420666f756e64000000000000000000000000000000006044820152606490fd5b9193969495909295610b26828914610987565b6000805b898110610c9e5750610b48610b41610b4d92610a19565b6003900490565b610793565b936000938491859186985b808a10610ba45760405162461bcd60e51b815260206004820152601260248201527f71756f72756d206e6f74207265616368656400000000000000000000000000006044820152606490fd5b8b9184610c038f96610bf2610bf7918f610bd3610bcd610bc68d938b8e610a2f565b36916101ce565b88610cc8565b610bec6001600160a01b039d8e83169e8f911610610a71565b98610a04565b610abd565b6001600160a01b031690565b871115610c3657610c03610bf78f610bf29089610c208196610793565b91610c2e839c8d9410610ac7565b9a959a610a04565b9c94610bf7610bf28f610c51939e95979e9994969989610a04565b14610c81575b88881015610c7257610c68906109df565b98919a929a610b58565b50505050505050505050915050565b96610c9890610c918d8989610a04565b35906107a1565b96610c57565b90610cb7610cbd91610c918487879d999d9b9a9b610a04565b916109df565b979397959495610b2a565b61081c91610cd591610e7e565b919091610cfd565b60051115610ce757565b634e487b7160e01b600052602160045260246000fd5b610d0681610cdd565b80610d0e5750565b610d1781610cdd565b60018103610d645760405162461bcd60e51b815260206004820152601860248201527f45434453413a20696e76616c6964207369676e617475726500000000000000006044820152606490fd5b610d6d81610cdd565b60028103610dba5760405162461bcd60e51b815260206004820152601f60248201527f45434453413a20696e76616c6964207369676e6174757265206c656e677468006044820152606490fd5b610dc381610cdd565b60038103610e1b5760405162461bcd60e51b815260206004820152602260248201527f45434453413a20696e76616c6964207369676e6174757265202773272076616c604482015261756560f01b6064820152608490fd5b80610e27600492610cdd565b14610e2e57565b60405162461bcd60e51b815260206004820152602260248201527f45434453413a20696e76616c6964207369676e6174757265202776272076616c604482015261756560f01b6064820152608490fd5b815160418103610eab575090610ea7916020820151906060604084015193015160001a90610f13565b9091565b604003610efd5760406020830151920151918260ff1c91601b830180931161012c5760ff7f7fffffffffffffffffffffffffffffffffffffffffffffffffffffffffffffff610ea79516931690610f13565b5050600090600290565b6040513d6000823e3d90fd5b9291907f7fffffffffffffffffffffffffffffff5d576e7357a4501ddfe92f46681b20a08311610fb45760ff16601b81141580610fa9575b610f9d579160809493916020936040519384528484015260408301526060820152600093849182805260015afa15610f985781516001600160a01b03811615610f92579190565b50600190565b610f07565b50505050600090600490565b50601c811415610f4b565b50505050600090600390565b90918060408301604084525260608201929060005b8181106110095750505060208183039101528281526001600160fb1b0383116101345760209260051b809284830137010190565b9091936001906001600160a01b03863561102281610535565b16815260209081019501929101610fd5565b91929092611043828514610987565b6000805b8582106110b55750507ff126123539a68393c55697f617e7d1148e371988daed246c2f41da99965a23f89392916110b0916110a4604051602081019061109c816106be611095858c8c610640565b888861067c565b519020600155565b60405194859485610fc0565b0390a1565b6110c0828787610a04565b35906110cb82610535565b6001600160a01b03809116911611156110f5576110ef610cb7610bf2838888610a04565b90611047565b60405162461bcd60e51b815260206004820152602260248201527f4e6577207369676e657273206e6f7420696e20617363656e64696e67206f726460448201526132b960f11b6064820152608490fdfea26469706673582212204a7068b3296e1a729a2ad586c3d44c4f9f129a8d7b30ce64d556a5f7f542806b64736f6c63430008140033",
  "devdoc": {
    "kind": "dev",
    "methods": {
      "owner()": {
        "details": "Returns the address of the current owner."
      },
      "transferOwnership(address)": {
        "details": "Transfers ownership of the contract to a new account (`newOwner`). Can only be called by the current owner."
      },
      "updateSigners(uint256,address[],uint256[],bytes[],address[],uint256[])": {
        "params": {
          "_curPowers": "powers of current signers",
          "_curSigners": "sorted list of current signers",
          "_newSigners": "sorted list of new signers",
          "_sigs": "list of signatures sorted by signer addresses in ascending order"
        }
      },
      "verifySigs(bytes,bytes[],address[],uint256[])": {
        "params": {
          "_msg": "signed message",
          "_powers": "powers of current signers",
          "_signers": "sorted list of current signers",
          "_sigs": "list of signatures sorted by signer addresses in ascending order"
        }
      }
    },
    "title": "Multi-sig verification and management functions for {Bridge}.",
    "version": 1
  },
  "userdoc": {
    "kind": "user",
    "methods": {
      "resetSigners(address[],uint256[])": {
        "notice": "reset signers, only used for init setup and emergency recovery"
      },
      "updateSigners(uint256,address[],uint256[],bytes[],address[],uint256[])": {
        "notice": "Update new signers."
      },
      "verifySigs(bytes,bytes[],address[],uint256[])": {
        "notice": "Verifies that a message is signed by a quorum among the signers The sigs must be sorted by signer addresses in ascending order."
      }
    },
    "version": 1
  },
  "storageLayout": {
    "storage": [
      {
        "astId": 82559,
        "contract": "contracts/bvn-staking/SigsVerifier.sol:SigsVerifier",
        "label": "_owner",
        "offset": 0,
        "slot": "0",
        "type": "t_address"
      },
      {
        "astId": 17342,
        "contract": "contracts/bvn-staking/SigsVerifier.sol:SigsVerifier",
        "label": "ssHash",
        "offset": 0,
        "slot": "1",
        "type": "t_bytes32"
      },
      {
        "astId": 17344,
        "contract": "contracts/bvn-staking/SigsVerifier.sol:SigsVerifier",
        "label": "triggerTime",
        "offset": 0,
        "slot": "2",
        "type": "t_uint256"
      },
      {
        "astId": 17346,
        "contract": "contracts/bvn-staking/SigsVerifier.sol:SigsVerifier",
        "label": "resetTime",
        "offset": 0,
        "slot": "3",
        "type": "t_uint256"
      },
      {
        "astId": 17348,
        "contract": "contracts/bvn-staking/SigsVerifier.sol:SigsVerifier",
        "label": "noticePeriod",
        "offset": 0,
        "slot": "4",
        "type": "t_uint256"
      }
    ],
    "types": {
      "t_address": {
        "encoding": "inplace",
        "label": "address",
        "numberOfBytes": "20"
      },
      "t_bytes32": {
        "encoding": "inplace",
        "label": "bytes32",
        "numberOfBytes": "32"
      },
      "t_uint256": {
        "encoding": "inplace",
        "label": "uint256",
        "numberOfBytes": "32"
      }
    }
  }
}