{
  "address": "0x4f16E475eF8b91553bA7aAb24f21c998513e161f",
  "abi": [
    {
      "inputs": [
        {
          "internalType": "uint256[2]",
          "name": "a",
          "type": "uint256[2]"
        },
        {
          "internalType": "uint256[2][2]",
          "name": "b",
          "type": "uint256[2][2]"
        },
        {
          "internalType": "uint256[2]",
          "name": "c",
          "type": "uint256[2]"
        },
        {
          "internalType": "uint256[2]",
          "name": "commit",
          "type": "uint256[2]"
        },
        {
          "internalType": "uint256[31]",
          "name": "input",
          "type": "uint256[31]"
        }
      ],
      "name": "verifyProof",
      "outputs": [
        {
          "internalType": "bool",
          "name": "r",
          "type": "bool"
        }
      ],
      "stateMutability": "view",
      "type": "function"
    },
    {
      "inputs": [
        {
          "internalType": "bytes",
          "name": "proofData",
          "type": "bytes"
        }
      ],
      "name": "verifyRaw",
      "outputs": [
        {
          "internalType": "bool",
          "name": "",
          "type": "bool"
        }
      ],
      "stateMutability": "view",
      "type": "function"
    }
  ],
  "transactionHash": "0xaef89e702a45f8c8e64a84a9b04f4632c42e8ee0fa275b4ce7b9ea446d45fc93",
  "args": [],
  "numDeployments": 1,
  "solcInputHash": "70a1539b2b45006378b14677506280bf",
  "bytecode": "0x608080604052346100165761215c908161001c8239f35b600080fdfe6080604052600436101561001257600080fd5b6000803560e01c908163457726e61461003a575063af7a9baf1461003557600080fd5b610267565b346100a85760203660031901126100a85760043567ffffffffffffffff918282116100a857366023830112156100a85781600401359283116100a85736602484840101116100a8576100a46100928460248501611ddc565b60405190151581529081906020820190565b0390f35b80fd5b634e487b7160e01b600052604160045260246000fd5b604051906040820182811067ffffffffffffffff8211176100e157604052565b6100ab565b604051906080820182811067ffffffffffffffff8211176100e157604052565b604051906103e0820182811067ffffffffffffffff8211176100e157604052565b8060231215610164576101386100c1565b90816044918211610164576004905b8282106101545750505090565b8135815260209182019101610147565b600080fd5b8060e312156101645761017a6100c1565b90816101049182116101645760c4905b8282106101975750505090565b813581526020918201910161018a565b806101231215610164576101b96100c1565b908161014491821161016457610104905b8282106101d75750505090565b81358152602091820191016101ca565b9080601f83011215610164576101fb6100c1565b80926040810192831161016457905b8282106102175750505090565b813581526020918201910161020a565b80610163121561016457610239610106565b908161052491821161016457610144905b8282106102575750505090565b813581526020918201910161024a565b34610164576105203660031901126101645761028236610127565b3660631215610164576102936100c1565b60c481368211610164576044905b8282106102d2576100a461009286866102b936610169565b6102c2366101a7565b916102cc36610227565b936106ef565b60206040916102e136856101e7565b8152019101906102a1565b6102f46100e6565b906080368337565b604051906060820182811067ffffffffffffffff8211176100e1576040526060368337565b604051906020820182811067ffffffffffffffff8211176100e1576040526020368337565b61034e6100c1565b906040368337565b61035e610106565b906103e0368337565b61036f6100c1565b906103786100c1565b604036823782526103876100c1565b60403682376020830152565b61039b6100e6565b906103a46100c1565b60009081815281602082015283526103ba610367565b60208401526103c76100c1565b81815281602082015260408401526103dd6100c1565b9080825260208201526060830152565b634e487b7160e01b600052603260045260246000fd5b1561040a57565b60405162461bcd60e51b815260206004820152601760248201527f76657269666965722d61582d6774652d7072696d652d710000000000000000006044820152606490fd5b1561045657565b60405162461bcd60e51b815260206004820152601760248201527f76657269666965722d61592d6774652d7072696d652d710000000000000000006044820152606490fd5b156104a257565b60405162461bcd60e51b815260206004820152601860248201527f76657269666965722d6258302d6774652d7072696d652d7100000000000000006044820152606490fd5b156104ee57565b60405162461bcd60e51b815260206004820152601860248201527f76657269666965722d6259302d6774652d7072696d652d7100000000000000006044820152606490fd5b1561053a57565b60405162461bcd60e51b815260206004820152601860248201527f76657269666965722d6258312d6774652d7072696d652d7100000000000000006044820152606490fd5b1561058657565b60405162461bcd60e51b815260206004820152601860248201527f76657269666965722d6259312d6774652d7072696d652d7100000000000000006044820152606490fd5b156105d257565b60405162461bcd60e51b815260206004820152601760248201527f76657269666965722d63582d6774652d7072696d652d710000000000000000006044820152606490fd5b1561061e57565b60405162461bcd60e51b815260206004820152601760248201527f76657269666965722d63592d6774652d7072696d652d710000000000000000006044820152606490fd5b634e487b7160e01b600052601160045260246000fd5b60001981146106885760010190565b610663565b90601f81101561069e5760051b0190565b6103ed565b156106aa57565b60405162461bcd60e51b815260206004820152601f60248201527f76657269666965722d6774652d736e61726b2d7363616c61722d6669656c64006044820152606490fd5b949394929190926106fe610393565b815160208093015161070e6100c1565b91825283820152815261071f6100c1565b948051518652610730815160200190565b518387015261074f836107416100c1565b920180515183525160200190565b518382015261075c6100c1565b958652828601528181019485528183519301516107776100c1565b93845282840152604081019283528351938281019485516107966100c1565b918252848201526060830190815261084a7f30644e72e131a029b85045b68181585d97816a916871ca8d3c208c16d87cfd476107d58186515110610403565b6107e48187875101511061044f565b6107f2818a5151511061049b565b61080281878b51015151106104e7565b610819816108128b515160200190565b5110610533565b6108328161082b888c51015160200190565b511061057f565b61083f81885151106105cb565b858751015110610617565b60005b601f81106114275750906114009798939291610867611843565b966108706100c1565b92600084526113c7848781019860008a52819961088b6102ec565b918a6103c06108986102fc565b927f22d9da09900824adf22a86effe00c6aaec11dc7b853e27bf5ddb7c150188c86b6108c26100c1565b95600087526000858801527f20eb17248b2a2fd179276bb32b3fc09253fc87d1a47d5910a1283f63807ae4bb8952527f05e1adfadcdfada930a03a2ba9890ad04e8c3433e25ac4232e2a42419700cbbc84527f2be0d7e69fae57d30ad2928a28e2ccaf37ff97bc0998560ac3a3efa74fe2e2a88385017f0bd0244204e1ffcd8f5342b22b6ac1317c9f700ffc8ce2776388ba5ccff82bdb8152825194604087019586526109718a8a8a8a611abf565b7f0ee1af67fb6e00cf1a5026dcc0b2a993fa0149490c4451a3f47551e6e98d93ec87527f07c235851756f581a14f8b599a929ac7f886fdda93dee5c92f747397a57c75a6825283015185526109c889898989611abf565b7f285a6a6c440d0ae6b7862489f8c5bbc17b564bb2faefadf2c191ce9a51003cd886527f275125c256295ce7452ac698e449e2c102ae3de8d0df7afff195ed851214e19d815260408301518552610a2189898989611abf565b7f266adeeeb3c2d55f02e7022c6fd3b5016c05cbb8656fc80f724ef794a7ea96c786527f2bd5e7bb248bd18badc452a2c8be7aa293a81de902580b8be2fde2f4dc4d531e815260608301518552610a7a89898989611abf565b7f2d4a3309a33976492bee1f3c028357b196aa9b6239ced48aa866334bc2f6f63086527f298167bf9685d2a89efaf1162e49da8e335f22d0b752fe9f6ecbab22952485e5815260808301518552610ad389898989611abf565b7f1e325188415816b2c519149a14984858501678ae02af8b760cf1781940b380ee86527f0c7699833ebeb8b57e08b6898083528986ab89fb7f3990cac2ca8615db0d0b9b815260a08301518552610b2c89898989611abf565b7f1352d46565ca19e590a307269c09149933302ce32c44e0bec51bc0b059770a4686527f0dee29525034b62c36796ca74de7b80e146b92e4eac9bc966e4118290c56313b815260c08301518552610b8589898989611abf565b7f1614f1b3c5573d6e04ba3b8c8c384fe9cb87f34a09039e8d3a93c4e109ee3a2286527f28727136478e9d2541669e450e81dd9ea79f7cbc955a4b849d52f1104df2b156815260e08301518552610bde89898989611abf565b7f12f37bf8883ca22295bda8bbfc49e9b648e782b7eacdc135b57012c600f9ea2386527f278da39427a680e50b8baea207188187dc7b31bd5cd95f12c5361ab37380603b81526101008301518552610c3889898989611abf565b7f1c4ce6f2d1c572384b27045806769f7349324e65bb2b36de1dd715932c4401d086527f145161e6e38db4adb5bbfba5492395383251fabc9727ad66716b042bb1909b2981526101208301518552610c9289898989611abf565b7f2592d92e5be4e7690fe98f6b7c60c07fb9a143b596c6e91252594d6e18d1b07286527f2d40fa20181146b9a0573004a4b9c803a17f5a8ea16e96ac7cc17e6fc241eca281526101408301518552610cec89898989611abf565b7f29f109ecbe89421de571f4c6eac768e746ef88611b3b7caf00821686040c3dfd86527f2f5033ae7505bb3c384df2914f0ce42f7377256d007a4e707626bcb40bb1556281526101608301518552610d4689898989611abf565b7f0c90dae9f8900d55d451a8bf3102a902e46b6a57f8d1016c4fec96fffd62a2bc86527f1bfb5882154a3dd76fcaf7691cbbae64d674460f09dd954745fc37248f023c1081526101808301518552610da089898989611abf565b7f058f8e83d9a4326b27d50632b8c043672933d3392261926e8080479da9edcc9986527f0c76fe5f7ec176952c7640c10b2beb312330af4ed8413441fd7f20505c893a4b81526101a08301518552610dfa89898989611abf565b7f091414d1b8be3cffd53f60b0ca5dc793f859afe0a7c75e31e30101974cb87c0c86527f2eb203a4092c0317790e5cca6cb0bdfb86c56ac7ecd6e293f2ceaf075ef3f8c081526101c08301518552610e5489898989611abf565b7f1aad89c87157ddfa2a0984331f52fd67176c945629aded412b4b30a3d25f016586527f0b9faa41b96175f7b2883e37f0bafc0349aef752a2980c25f89eb6698fe7988d81526101e08301518552610eae89898989611abf565b7f2d94b780542e3ad46ed9db897bc8b0530609f60bca2db1ce4893794f91360ca286527f0db8b1fef4875da01604373d671c8357306d18f1b20fdf46104a27dff2d8511d81526102008301518552610f0889898989611abf565b7f2e5ddb6986a6bd97345ae50a2f206f584486716f5d0d82f28318e03f25eb1f9e86527f1605b318c3245089f4dd4c0d6a79ed857970185945ae45ae0d1486bfa67097e981526102208301518552610f6289898989611abf565b7f22efd41c1ef5786662d94d6722aea07969533777568d92302025095e19a5033c86527f258e681d6d80fdda60be9c9401155f19c2dc9a7a2b421f675cde6cb196ad441881526102408301518552610fbc89898989611abf565b7f096483d451fa1e949cf8a5aedad0e4d0444de1111485678765ec2bd320fc08af86527f22038a1ea27917a1954d525495bbd3c6686f3fe46ebc2b7102d3062353a84b998152610260830151855261101689898989611abf565b7f2ba0ce92933ab7dfd43e49c271dda1833b58ab1e5cea1c9f531be39f968536d186527f172702ec35ec0fc741f53c055c26c856e727721a143b95a9d1cbc60752a242268152610280830151855261107089898989611abf565b7f1daa7bd3e7996412a2f72a7d201f1a0fa606a243d891d91c5d9d28fbf265a50786527f1a54739bf1677efb10491408e1e144ead1c28a6637b312c42908f140eac0f91f81526102a083015185526110ca89898989611abf565b7f29a5c77a1a5ce6a1c5714548d30b0c776a575a1b531badf71f221924e011c01886527f1a0294deea349542499dad2fb1a09969faa955767a947bd3dbef4330d22f361f81526102c0830151855261112489898989611abf565b7f223fd2701ba3b3109d7bc6ef02c7ca2a8619af86ca863ab6d49d9edd872ca3bd86527f04e78856b7b39581a5e2b6a2a94990ef28b06549bda2f46e83dfe6876a30dfb981526102e0830151855261117e89898989611abf565b7f107f69e4e05e3ff5ab8839e825f6e7f7317bbc64975ddc79046882691f4ee15786527f1076846a828146a638e9ae2c86e854a1f7ba61bca39e49db7f02c96d0f347fd6815261030083015185526111d889898989611abf565b7f135b6596e4af016e2afaf21c570b49d4734745f16888b2a9f90a7532c6b60eea86527f22faf766cad6c305b60fb9c715e71dd87452cf6009854f190a974a75dd50756c8152610320830151855261123289898989611abf565b7f0dd52d4fb0bc6d817a06dd9f2e209ff2a0936b07389d9e5b53f60be0f620e38486527f1ce3cc4955d90d799b0eb30c9c9f91b5caecd6ad43bd1d0ae4107f1acb3815618152610340830151855261128c89898989611abf565b7f2478d8e91a3a78a7c4112aee12886bbf073416314ab444fd5fe9b56e858bbc7b86527f290140dcc73e70574bf494d9cb45ddd0bfc58712d79a323f94fe4a373db4f778815261036083015185526112e689898989611abf565b7f0b5aa45981233c3846384973e4a476cbf91753e326ea9e0da99bd759f4ffd3ff86527f273973de2478e317121d70d5e437ba6dadcffc7fa2cf1d2ea094340053b327508152610380830151855261134089898989611abf565b7f164d2de0d8ea6a8846200a6ca0489d1cdf3dad54d09bf6784244d7e3bef9663986527f010263d3c8a1d62b7cbd462fc4759886cbb3ce079d88687cb70634546171c59e81526103a0830151855261139a89898989611abf565b7f268eb55dbdd53bfab794af6d13383f80b967d6f9228c1fe7ccad2cdc20d6b5f186525201519052611abf565b51159081159161141c575b50611403575b50506113e4905161146a565b945190845190850151916060604087015195519601519661169d565b90565b519193506113e49161141491611551565b9290386113d8565b9050511515386113d2565b806114607f30644e72e131a029b85045b68181585d2833e84879b9709143e1f593f0000001611459611465948e61068d565b51106106a3565b610679565b61084d565b600060206114766100c1565b82815201528051908115806114e8575b156114a35750506114956100c1565b600081526000602082015290565b602001517f30644e72e131a029b85045b68181585d97816a916871ca8d3c208c16d87cfd47908190068103908111610688576114dd6100c1565b918252602082015290565b50602081015115611486565b90600481101561069e5760051b0190565b1561150c57565b60405162461bcd60e51b815260206004820152601260248201527f70616972696e672d6164642d6661696c656400000000000000000000000000006044820152606490fd5b60609092919260c06115616100c1565b916000835260006020840152602083968161157a6100e6565b936080368637805185520151828401528051604084015201518482015260066107cf195a01fa80156115b1576115af90611505565b565bfe5b60405190610320820182811067ffffffffffffffff8211176100e15760405260188252610300366020840137565b9060068202918083046006149015171561068857565b906001820180921161068857565b906002820180921161068857565b906003820180921161068857565b906004820180921161068857565b906005820180921161068857565b805182101561069e5760209160051b010190565b1561165857565b60405162461bcd60e51b815260206004820152601560248201527f70616972696e672d6f70636f64652d6661696c656400000000000000000000006044820152606490fd5b94919596929093966116ad6100e6565b958652602097889788880152604087015260608601526116cb6100e6565b93845285840152604083015260608201526116e46115b3565b9160005b60048110611720575050506103006116fe610321565b9384920160086107cf195a01fa80156115b15761171a90611651565b51151590565b6117f29192939450611731816115e1565b61173b82856114f4565b5151611747828861163d565b528661175383866114f4565b510151611768611762836115f7565b8861163d565b5261177382866114f4565b51515161178261176283611605565b5261179861179083876114f4565b515160200190565b516117a561176283611613565b52866117b183876114f4565b510151516117c161176283611621565b526117ec6117e66117df896117d6868a6114f4565b51015160200190565b519261162f565b8761163d565b52610679565b90849392916116e8565b6118046100e6565b9061180d6100c1565b60008152600060208201528252611822610367565b602083015261182f610367565b604083015261183c610367565b6060830152565b61184b6117fc565b906118546100c1565b7f142a41cf8d61c7fcfd152a28194de99a0bd44a2f3044017a9f3c42c2523b99af81526020907f2d7e3efbde56d34533c3605d7e7721803fa6f61ce135c057b2422a93b1116c278282015283526118a96100c1565b7f15c63fbfe10bb26eb7082fdc52b116282fd10ae488648c385357c6121946bce281527f0b8d876c334bbe9fa9937648ed9cc098805d6394b5cf72104a76f2266a82cf74828201526118f96100c1565b7f0cb19d65131699dbec2c9f593ffd4437e9c820ed1074fde8d9cd78cdccd15ef781527f1fe31563420c4ce4c727bbeba3e5accd3ccdf32ede9fe904c9e38d4da54b7f53838201526119496100c1565b918252828201528184015261195c6100c1565b7f015d453ce98386a62c954235e03964962b843f640d43dc5e72cface824067eee81527f247ff5fece142c10eb0edc413b176d00193f1b7209d6e3ebb3c90a0088074c4c828201526119ac6100c1565b7f024f457f6dfbac466e488732d4d614515ab21913384c6d56d6e4759fb1e1f6d581527f14940d3809df8e8467d5d75a2007f2d754828a8e8904273396f632a61816227a838201526119fc6100c1565b918252828201526040840152611a106100c1565b907f15cee9c7cdd11e4b3a95287f40be20223b23da09d9f227002127f1e7c430292c82527f0fcad770744823dbce011e97fb1bee8cdf1f1162e92319076107058d0c66e70b81830152611a616100c1565b907f2b071d97d2ad6c495baf12cbbda4927b4a5ba336b59f928c7ac7a8eb6bd16e6382527f02ec16525483b469b88090d972109126ba080d22253a09db5dc912ec5893b55e81830152611ab26100c1565b9283528201526060830152565b90929160608460806107cf19946007865a01fa156115b157600660c0926020606096865185528187015182860152805160408601520151868401525a01fa80156115b1576115af90611505565b906020116101645790602090565b906040116101645760200190602090565b906060116101645760400190602090565b906080116101645760600190602090565b9060a0116101645760800190602090565b9060c0116101645760a00190602090565b9060e0116101645760c00190602090565b90610100116101645760e00190602090565b9061012011610164576101000190602090565b9061014011610164576101200190602090565b9061016011610164576101400190602090565b9061018011610164576101780190600890565b9061017811610164576101700190600890565b9061017011610164576101680190600890565b9061016811610164576101600190600890565b906101a011610164576101980190600890565b9061019811610164576101900190600890565b9061019011610164576101880190600890565b9061018811610164576101800190600890565b906101c011610164576101b80190600890565b906101b811610164576101b00190600890565b906101b011610164576101a80190600890565b906101a811610164576101a00190600890565b906101e011610164576101d80190600890565b906101d811610164576101d00190600890565b906101d011610164576101c80190600890565b906101c811610164576101c00190600890565b9061020011610164576101f80190600890565b906101f811610164576101f00190600890565b906101f011610164576101e80190600890565b906101e811610164576101e00190600890565b359060208110611d55575090565b6000199060200360031b1b1690565b611d6c6100c1565b9060005b60409081811015611d9457602091611d866100c1565b903682378185015201611d70565b5050565b7fffffffffffffffff0000000000000000000000000000000000000000000000009035818116939260088110611dcd57505050565b60080360031b82901b16169150565b9061140091611de9610346565b611dfc611df68484611b0c565b90611d47565b8152611e0b611df68484611b1a565b6020820152611e18611d64565b611e25611df68585611b2b565b815152611e35611df68585611b3c565b815160200152611e48611df68585611b4d565b6020820190815152611e68611e60611df68787611b5e565b915160200190565b52611e71610346565b91611e7f611df68686611b6f565b8352611e8e611df68686611b80565b6020840152611e9b610346565b93611ea9611df68783611b92565b8552611eb8611df68783611ba5565b602086015261210e611f04611efe611ef8611ed1610356565b99611edf611df68288611bb8565b6103c08c0152611f11611f04611efe611ef8848a611bcb565b90611d98565b60c01c90565b67ffffffffffffffff1690565b8b52611f26611f04611efe611ef8848a611bde565b60208c0152611f3e611f04611efe611ef8848a611bf1565b60408c0152611f56611f04611efe611ef8848a611c04565b60608c01526000958660808d01528660a08d0152611f7d611f04611efe611ef88585611c17565b60c08d0152611f95611f04611efe611ef88585611c2a565b60e08d0152611fad611f04611efe611ef88585611c3d565b6101008d0152611fc6611f04611efe611ef88585611c50565b6101208d0152866101408d0152866101608d0152611fed611f04611efe611ef88585611c63565b6101808d0152612006611f04611efe611ef88585611c76565b6101a08d015261201f611f04611efe611ef88585611c89565b6101c08d0152612038611f04611efe611ef88585611c9c565b6101e08d0152866102008d0152866102208d015261205f611f04611efe611ef88585611caf565b6102408d0152612078611f04611efe611ef88585611cc2565b6102608d0152612091611f04611efe611ef88585611cd5565b6102808d01526120aa611f04611efe611ef88585611ce8565b6102a08d0152866102c08d0152866102e08d01526120d1611f04611efe611ef88585611cfb565b6103008d01526120ea611f04611efe611ef88585611d0e565b6103208d0152612103611f04611efe611ef88585611d21565b6103408d0152611d34565b610360870152806103808701526103a08601526106ef56fea2646970667358221220cb4a04e7192e93b442aab92c4b9c0f9dc8a373694791edf0172bdec9f40dc07f64736f6c63430008120033",
  "devdoc": {
    "kind": "dev",
    "methods": {},
    "version": 1
  },
  "userdoc": {
    "kind": "user",
    "methods": {},
    "version": 1
  },
  "storageLayout": {
    "storage": [],
    "types": null
  }
}