{
  "address": "0xDe62b512a8DA1E0C24c5988C9D452A501160e4b9",
  "abi": [
    {
      "inputs": [],
      "name": "CommitmentInvalid",
      "type": "error"
    },
    {
      "inputs": [],
      "name": "ProofInvalid",
      "type": "error"
    },
    {
      "inputs": [],
      "name": "PublicInputNotInField",
      "type": "error"
    },
    {
      "inputs": [
        {
          "internalType": "uint256[8]",
          "name": "proof",
          "type": "uint256[8]"
        },
        {
          "internalType": "uint256[2]",
          "name": "commit",
          "type": "uint256[2]"
        },
        {
          "internalType": "uint256[2]",
          "name": "knowledgeProof",
          "type": "uint256[2]"
        },
        {
          "internalType": "uint256[4]",
          "name": "input",
          "type": "uint256[4]"
        }
      ],
      "name": "verifyProof",
      "outputs": [
        {
          "internalType": "bool",
          "name": "",
          "type": "bool"
        }
      ],
      "stateMutability": "view",
      "type": "function"
    },
    {
      "inputs": [
        {
          "internalType": "bytes",
          "name": "proofData",
          "type": "bytes"
        }
      ],
      "name": "verifyRaw",
      "outputs": [
        {
          "internalType": "bool",
          "name": "",
          "type": "bool"
        }
      ],
      "stateMutability": "view",
      "type": "function"
    }
  ],
  "transactionHash": "0xb1188800ce08172948c38259039e49ec3bc7593bf94a9b8ecf91d95eab92e60f",
  "args": [],
  "numDeployments": 3,
  "solcInputHash": "f3025f2768409eee3476a6ea16c4b09b",
  "bytecode": "0x6080806040523461001657610ac0908161001c8239f35b600080fdfe608060408181526004918236101561001657600080fd5b600090813560e01c908163457726e614610720575063d148354c1461003a57600080fd5b346107195761020090816003193601126107195761010436811161071c576101449136831161071957610184903682116107195736610204116107195785519260208401903592838252610124359485898201528881526060918282019482861067ffffffffffffffff8711176107065750899185838982948383528a7f30644e72e131a029b85045b68181585d2833e84879b9709143e1f593f0000001809a8751902006997f1f6f36c99331d52b64591a7548928af1ba3886d3fcb6e57c5fbbf7975f1a96538652608096858882019c7f1803f4b2aa230002fa6e25d30ea70eab3911df731b55cf4cc67109ded4a615098e5260a083019c8d917f28d44067fb777f8c8810522d9e0846c59ea45a56b19267e8cfb0fc57f9a6ed3183528b60c08601987f07e2d32e496eab9eb730fb34823a3502d75634f6916a9f16916a4e581d91d33f8a52359560e0019580875287868686815a600790fa9110168c8860069d8e9381848781885afa7f14a0066dbf8adebda8aaf815f85aa357998513b3d9de8e2cb3962cf6a77946668a527f0fac5ed1c5bdf19d1c1236639fe9fff4d5999af111f69b94afc3ddc850cfde748f526101a435808d529116828a8a815a600790fa908484878a818b5afa93101616168d7f2c5d4c486cdd97ad38b981aa8303eaf3b7c2579c9e4d42ecdfdaae1e775609a98a527f2a83c2d7e57a23343ea9ae9af85c4e1d030219193c3e45ddeb1643a8ce252bc290526101c43590818c52828a8a815a600790fa908484878a818b5afa9310161616928d7f1790cb95f8cbe6c87a1f7fe24b487312ae12e26b6013a7adc36d6a052d6383f78a527f0726031d9da96b784acb3e366e0a1d48527e8f0135680d74f2b64ce6536cecb390526101e43595868c5281838b8b815a600790fa965afa9310161616947f27eeff947fb471ad70407449f794dd31c52dd449499b4a8265703ac8921e634884527f240aae0cabf2b53e14bbee0d685cbf774cdca6e65b48b5de5ad106ae3025135b895252815a600790fa908a888a818a5afa9261020435101616166001169852525afa169151905191156106f6577f196bf0336fbb4982dd2ce269efa267312528c425e69ae5bc0342209b325975b48751967f24d92e44b9d05d529ec2747711511277ecc563940a3f820e337b92615cde43a3610100808c8b378901527f302749f9830ae3eddd94800bb9265745f8314f7a4172e46d1634a1e5dbe041606101208901527f1a1d4fb43bba5d8fc6440d0dd29b16fccc63d6a5d0e872beec561c908290d99e6101408901527f0b2e8dad3b93e5dbc2709d137c111a9590ea48e4c6c5aad8e40af6f11b7a9cf76101608901527f03c39d961b84c80ac2a813f7823e6fb6a9f374e1ba58820dbdb89cba9f662e0d6101808901527f1024acac7f3398ff6ed86cf5770dbe7588fbc3cc625b11194c50d8beba89c4dd6101a08901527f15e70bb0f7ad220bac586285e1a36a3f978c44352e0541f81dcdb603f7ce840c6101c08901527f28c8f88969ecd49bdeed30c28265cf108779863954e64ce9dc16efde24d2923d6101e08901528701527f1227df8159b8fc63fce6a60f9d185d4968c111f18a925a3948a0a274efa3057e6102208701526102408601526102608501527f1120db3697e27cba751cfe6db6c342991d6124afe778cf786e7198ac289778886102808501527f05824218da2742b1fe0050127024e44329ae1dc05e25a80bde1593ee06c3cfb06102a08501527f1e701033483102b5bcbe8dd85a32d03e044987a3147a465a0d8adea5734b138d6102c08501527f07204b05e1f285d33b785b154bcc3e6764d8204a2b061a2bc57c29ddcf8b9ad06102e08501526103008401526103208301527f0511d149c1c4d0bc72ccae8b58e07b286a1a06ab8ef7cfba098a7895e130d1e76103408301527f09260baa2cfdfe19348c56c289649aa5ecb9bf522db2dd3ab01c8bb8c8d10a266103608301527f2a681123b47bc9f164a12eb3c975140668a6653d11b3a9812cba5b234f19f9f86103808301527f02679e9e2f5170f9e5c2c3035857e45d99803d0bebf44b7e0fa3680572991ede6103a0830152356103c0820152610164356103e08201527f12e13efd12fc486c11f6a3f48f9258bf304266e67eec9a214cb2ac4683211cf56104008201527f03045ec0f83a18e4dd9e63ff0f674b651739773c99da6339f1c86068d7ea9fb86104208201527f1934e91dca2d9cfef22af28c7e36f58bf99ebc69ebf8e3279566cbb70a03d05d6104408201527f09430f642ad7543eed3f959c1d138fd707b094494fb53bddda8ce038ee2ef3a36104608201526020816104808160085afa905116156106e9576020905160018152f35b51631ff3747d60e21b8152fd5b865163a54f8e2760e01b81528890fd5b634e487b7160e01b815260418c52602490fd5b80fd5b5080fd5b84848434610719576020938460031936011261071c5767ffffffffffffffff938035858111610a2c5736602382011215610a2c578082013590868211610a28573660248383010111610a285761010080850185811089821117610a1557875280368637828911610a0d5760248201358552828711610a0d5760448201358986015282606011610a0d57606482013587860152608090838211610a1157608483013560608701528360a011610a115760a4830135828701528360c011610a115760c483013560a08701528360e011610a1157839060e484013560c088015211610a0d576101048083013560e0870152875161081981610a30565b883682378461012011610a095761012484013581528461014011610a095761014491828501358c83015289519361084f85610a30565b8a3686378661016011610a055761016486013585528661018011610a055761018486810135868f01528b51979096908289018e81118a8210176109f2578d5282368a3780610190116109ee578e6101a4830135841c908a0152806101a0116109ee576101b4820135831c8952806101b0116109ee576101c4820135831c60608a01526101c0116109ea576101d40135901c868b015289516334520d5360e21b815297898d898b015b600883106109d3575050505061091d93929161091591890190610a62565b860190610a62565b830184905b888483106109bf57925050508261020481305afa9485156109b5578395610950575b50505050519015158152f35b90919293945085913d87116109ad575b601f8301601f191684019182118483101761099a57508591839186528101031261071c575190811515820361071957509083808080610944565b634e487b7160e01b855260419052602484fd5b3d9250610960565b84513d85823e3d90fd5b806001928551815201930191019091610922565b908060019285518152019301910190918e906108f7565b8a80fd5b8b80fd5b634e487b7160e01b8d5260418b5260248dfd5b8980fd5b8780fd5b8580fd5b8680fd5b634e487b7160e01b875260418552602487fd5b8480fd5b8380fd5b6040810190811067ffffffffffffffff821117610a4c57604052565b634e487b7160e01b600052604160045260246000fd5b6000915b60028310610a7357505050565b600190825181526020809101920192019190610a6656fea2646970667358221220b9a2043693154ae7cd0830b951e8924511c7ad38a98d88643bba8ba6fdcbd6a964736f6c63430008140033",
  "devdoc": {
    "author": "Remco Bloemen",
    "errors": {
      "CommitmentInvalid()": [
        {
          "details": "This can mean that provided commitment points and/or proof of knowledge are not on their curves, that pairing equation fails, or that the commitment and/or proof of knowledge is not for the commitment key."
        }
      ],
      "ProofInvalid()": [
        {
          "details": "This can mean that provided Groth16 proof points are not on their curves, that pairing equation fails, or that the proof is not for the provided public input."
        }
      ],
      "PublicInputNotInField()": [
        {
          "details": "Public input elements are not automatically reduced, as this is can be a dangerous source of bugs."
        }
      ]
    },
    "kind": "dev",
    "methods": {
      "verifyProof(uint256[8],uint256[2],uint256[2],uint256[4])": {
        "params": {
          "input": "the public input field elements in the scalar field Fr. Elements must be reduced.",
          "proof": "the points (A, B, C) in EIP-197 format matching the output of compressProof."
        }
      }
    },
    "title": "Groth16 verifier template.",
    "version": 1
  },
  "userdoc": {
    "errors": {
      "CommitmentInvalid()": [
        {
          "notice": "The commitment is invalid"
        }
      ],
      "ProofInvalid()": [
        {
          "notice": "The proof is invalid."
        }
      ],
      "PublicInputNotInField()": [
        {
          "notice": "Some of the provided public input values are larger than the field modulus."
        }
      ]
    },
    "kind": "user",
    "methods": {
      "verifyProof(uint256[8],uint256[2],uint256[2],uint256[4])": {
        "notice": "Verify an uncompressed Groth16 proof.Reverts with InvalidProof if the proof is invalid or with PublicInputNotInField the public input is not reduced.There is no return value. If the function does not revert, the proof was successfully verified."
      }
    },
    "notice": "Supports verifying Groth16 proofs. Proofs can be in uncompressed (256 bytes) and compressed (128 bytes) format. A view function is provided to compress proofs.See <https://2π.com/23/bn254-compression> for further explanation.",
    "version": 1
  },
  "storageLayout": {
    "storage": [],
    "types": null
  }
}