{
  "address": "0x716aa16B01afCCCD4434a8295aA2E845a611cd82",
  "abi": [
    {
      "inputs": [
        {
          "internalType": "address",
          "name": "_feeCollector",
          "type": "address"
        },
        {
          "internalType": "contract IBrevisProof",
          "name": "_brevisProof",
          "type": "address"
        },
        {
          "internalType": "contract ISigsVerifier",
          "name": "_sigsVerifier",
          "type": "address"
        },
        {
          "internalType": "contract IBrevisEigen",
          "name": "_brevisEigen",
          "type": "address"
        }
      ],
      "stateMutability": "nonpayable",
      "type": "constructor"
    },
    {
      "anonymous": false,
      "inputs": [
        {
          "indexed": true,
          "internalType": "bytes32",
          "name": "requestId",
          "type": "bytes32"
        },
        {
          "indexed": false,
          "internalType": "enum BrevisRequest.AskForType",
          "name": "askFor",
          "type": "uint8"
        },
        {
          "indexed": false,
          "internalType": "address",
          "name": "from",
          "type": "address"
        }
      ],
      "name": "AskFor",
      "type": "event"
    },
    {
      "anonymous": false,
      "inputs": [
        {
          "indexed": false,
          "internalType": "uint256",
          "name": "from",
          "type": "uint256"
        },
        {
          "indexed": false,
          "internalType": "uint256",
          "name": "to",
          "type": "uint256"
        }
      ],
      "name": "ChallengeWindowUpdated",
      "type": "event"
    },
    {
      "anonymous": false,
      "inputs": [
        {
          "indexed": false,
          "internalType": "address",
          "name": "from",
          "type": "address"
        },
        {
          "indexed": false,
          "internalType": "address",
          "name": "to",
          "type": "address"
        }
      ],
      "name": "FeeCollectorUpdated",
      "type": "event"
    },
    {
      "anonymous": false,
      "inputs": [
        {
          "indexed": false,
          "internalType": "bytes32[]",
          "name": "requestIds",
          "type": "bytes32[]"
        },
        {
          "indexed": false,
          "internalType": "bytes[]",
          "name": "queryURLs",
          "type": "bytes[]"
        }
      ],
      "name": "OpRequestsFulfilled",
      "type": "event"
    },
    {
      "anonymous": false,
      "inputs": [
        {
          "indexed": true,
          "internalType": "address",
          "name": "previousOwner",
          "type": "address"
        },
        {
          "indexed": true,
          "internalType": "address",
          "name": "newOwner",
          "type": "address"
        }
      ],
      "name": "OwnershipTransferred",
      "type": "event"
    },
    {
      "anonymous": false,
      "inputs": [
        {
          "indexed": true,
          "internalType": "bytes32",
          "name": "requestId",
          "type": "bytes32"
        }
      ],
      "name": "ProofPost",
      "type": "event"
    },
    {
      "anonymous": false,
      "inputs": [
        {
          "indexed": true,
          "internalType": "bytes32",
          "name": "requestId",
          "type": "bytes32"
        }
      ],
      "name": "QueryDataPost",
      "type": "event"
    },
    {
      "anonymous": false,
      "inputs": [
        {
          "indexed": false,
          "internalType": "bytes32",
          "name": "requestId",
          "type": "bytes32"
        }
      ],
      "name": "RequestFulfilled",
      "type": "event"
    },
    {
      "anonymous": false,
      "inputs": [
        {
          "indexed": false,
          "internalType": "bytes32",
          "name": "requestId",
          "type": "bytes32"
        }
      ],
      "name": "RequestRefunded",
      "type": "event"
    },
    {
      "anonymous": false,
      "inputs": [
        {
          "indexed": false,
          "internalType": "bytes32",
          "name": "requestId",
          "type": "bytes32"
        },
        {
          "indexed": false,
          "internalType": "address",
          "name": "sender",
          "type": "address"
        },
        {
          "indexed": false,
          "internalType": "uint256",
          "name": "fee",
          "type": "uint256"
        },
        {
          "indexed": false,
          "internalType": "contract IBrevisApp",
          "name": "callback",
          "type": "address"
        },
        {
          "indexed": false,
          "internalType": "enum BrevisRequest.Option",
          "name": "option",
          "type": "uint8"
        }
      ],
      "name": "RequestSent",
      "type": "event"
    },
    {
      "anonymous": false,
      "inputs": [
        {
          "indexed": false,
          "internalType": "uint256",
          "name": "from",
          "type": "uint256"
        },
        {
          "indexed": false,
          "internalType": "uint256",
          "name": "to",
          "type": "uint256"
        }
      ],
      "name": "RequestTimeoutUpdated",
      "type": "event"
    },
    {
      "anonymous": false,
      "inputs": [
        {
          "indexed": false,
          "internalType": "uint256",
          "name": "from",
          "type": "uint256"
        },
        {
          "indexed": false,
          "internalType": "uint256",
          "name": "to",
          "type": "uint256"
        }
      ],
      "name": "ResponseTimeoutUpdated",
      "type": "event"
    },
    {
      "inputs": [
        {
          "internalType": "bytes32",
          "name": "_requestId",
          "type": "bytes32"
        }
      ],
      "name": "askForProof",
      "outputs": [],
      "stateMutability": "payable",
      "type": "function"
    },
    {
      "inputs": [
        {
          "internalType": "bytes32",
          "name": "_requestId",
          "type": "bytes32"
        }
      ],
      "name": "askForQueryData",
      "outputs": [],
      "stateMutability": "payable",
      "type": "function"
    },
    {
      "inputs": [],
      "name": "brevisEigen",
      "outputs": [
        {
          "internalType": "contract IBrevisEigen",
          "name": "",
          "type": "address"
        }
      ],
      "stateMutability": "view",
      "type": "function"
    },
    {
      "inputs": [],
      "name": "brevisProof",
      "outputs": [
        {
          "internalType": "contract IBrevisProof",
          "name": "",
          "type": "address"
        }
      ],
      "stateMutability": "view",
      "type": "function"
    },
    {
      "inputs": [
        {
          "internalType": "bytes",
          "name": "_proof",
          "type": "bytes"
        }
      ],
      "name": "challengeQueryData",
      "outputs": [],
      "stateMutability": "nonpayable",
      "type": "function"
    },
    {
      "inputs": [],
      "name": "challengeWindow",
      "outputs": [
        {
          "internalType": "uint256",
          "name": "",
          "type": "uint256"
        }
      ],
      "stateMutability": "view",
      "type": "function"
    },
    {
      "inputs": [
        {
          "internalType": "bytes32",
          "name": "_requestId",
          "type": "bytes32"
        }
      ],
      "name": "chargeFee",
      "outputs": [],
      "stateMutability": "nonpayable",
      "type": "function"
    },
    {
      "inputs": [
        {
          "internalType": "uint256",
          "name": "_amount",
          "type": "uint256"
        },
        {
          "internalType": "address",
          "name": "_to",
          "type": "address"
        }
      ],
      "name": "collectFee",
      "outputs": [],
      "stateMutability": "nonpayable",
      "type": "function"
    },
    {
      "inputs": [],
      "name": "feeCollector",
      "outputs": [
        {
          "internalType": "address",
          "name": "",
          "type": "address"
        }
      ],
      "stateMutability": "view",
      "type": "function"
    },
    {
      "inputs": [
        {
          "internalType": "bytes32[]",
          "name": "_requestIds",
          "type": "bytes32[]"
        },
        {
          "internalType": "bytes[]",
          "name": "_queryURLs",
          "type": "bytes[]"
        },
        {
          "internalType": "bytes[]",
          "name": "_sigs",
          "type": "bytes[]"
        },
        {
          "internalType": "address[]",
          "name": "_signers",
          "type": "address[]"
        },
        {
          "internalType": "uint256[]",
          "name": "_powers",
          "type": "uint256[]"
        }
      ],
      "name": "fulfillOpRequests",
      "outputs": [],
      "stateMutability": "nonpayable",
      "type": "function"
    },
    {
      "inputs": [
        {
          "internalType": "bytes32",
          "name": "_requestId",
          "type": "bytes32"
        },
        {
          "internalType": "uint64",
          "name": "_chainId",
          "type": "uint64"
        },
        {
          "internalType": "bytes",
          "name": "_proof",
          "type": "bytes"
        },
        {
          "internalType": "bool",
          "name": "_withAppProof",
          "type": "bool"
        },
        {
          "internalType": "bytes",
          "name": "_appCircuitOutput",
          "type": "bytes"
        }
      ],
      "name": "fulfillRequest",
      "outputs": [],
      "stateMutability": "nonpayable",
      "type": "function"
    },
    {
      "inputs": [
        {
          "internalType": "bytes32",
          "name": "",
          "type": "bytes32"
        }
      ],
      "name": "keccakToMimc",
      "outputs": [
        {
          "internalType": "bytes32",
          "name": "",
          "type": "bytes32"
        }
      ],
      "stateMutability": "view",
      "type": "function"
    },
    {
      "inputs": [],
      "name": "owner",
      "outputs": [
        {
          "internalType": "address",
          "name": "",
          "type": "address"
        }
      ],
      "stateMutability": "view",
      "type": "function"
    },
    {
      "inputs": [
        {
          "internalType": "bytes32",
          "name": "_requestId",
          "type": "bytes32"
        },
        {
          "internalType": "uint64",
          "name": "_chainId",
          "type": "uint64"
        },
        {
          "internalType": "bytes",
          "name": "_proof",
          "type": "bytes"
        }
      ],
      "name": "postProof",
      "outputs": [],
      "stateMutability": "nonpayable",
      "type": "function"
    },
    {
      "inputs": [
        {
          "internalType": "bytes32",
          "name": "_requestId",
          "type": "bytes32"
        },
        {
          "internalType": "bytes",
          "name": "_queryData",
          "type": "bytes"
        }
      ],
      "name": "postQueryData",
      "outputs": [],
      "stateMutability": "nonpayable",
      "type": "function"
    },
    {
      "inputs": [
        {
          "internalType": "bytes32",
          "name": "_requestId",
          "type": "bytes32"
        }
      ],
      "name": "queryRequestStatus",
      "outputs": [
        {
          "internalType": "enum BrevisRequest.RequestStatus",
          "name": "",
          "type": "uint8"
        }
      ],
      "stateMutability": "view",
      "type": "function"
    },
    {
      "inputs": [
        {
          "internalType": "bytes32",
          "name": "_requestId",
          "type": "bytes32"
        }
      ],
      "name": "refund",
      "outputs": [],
      "stateMutability": "nonpayable",
      "type": "function"
    },
    {
      "inputs": [],
      "name": "renounceOwnership",
      "outputs": [],
      "stateMutability": "nonpayable",
      "type": "function"
    },
    {
      "inputs": [
        {
          "internalType": "bytes32",
          "name": "",
          "type": "bytes32"
        }
      ],
      "name": "requestExts",
      "outputs": [
        {
          "internalType": "uint256",
          "name": "canChallengeBefore",
          "type": "uint256"
        },
        {
          "internalType": "enum BrevisRequest.AskForType",
          "name": "askFor",
          "type": "uint8"
        },
        {
          "internalType": "uint256",
          "name": "shouldRespondBefore",
          "type": "uint256"
        }
      ],
      "stateMutability": "view",
      "type": "function"
    },
    {
      "inputs": [],
      "name": "requestTimeout",
      "outputs": [
        {
          "internalType": "uint256",
          "name": "",
          "type": "uint256"
        }
      ],
      "stateMutability": "view",
      "type": "function"
    },
    {
      "inputs": [
        {
          "internalType": "bytes32",
          "name": "",
          "type": "bytes32"
        }
      ],
      "name": "requests",
      "outputs": [
        {
          "internalType": "uint256",
          "name": "deadline",
          "type": "uint256"
        },
        {
          "internalType": "uint256",
          "name": "fee",
          "type": "uint256"
        },
        {
          "internalType": "address",
          "name": "refundee",
          "type": "address"
        },
        {
          "internalType": "contract IBrevisApp",
          "name": "callback",
          "type": "address"
        },
        {
          "internalType": "enum BrevisRequest.RequestStatus",
          "name": "status",
          "type": "uint8"
        },
        {
          "internalType": "enum BrevisRequest.Option",
          "name": "option",
          "type": "uint8"
        }
      ],
      "stateMutability": "view",
      "type": "function"
    },
    {
      "inputs": [],
      "name": "responseTimeout",
      "outputs": [
        {
          "internalType": "uint256",
          "name": "",
          "type": "uint256"
        }
      ],
      "stateMutability": "view",
      "type": "function"
    },
    {
      "inputs": [
        {
          "internalType": "bytes32",
          "name": "_requestId",
          "type": "bytes32"
        },
        {
          "internalType": "address",
          "name": "_refundee",
          "type": "address"
        },
        {
          "internalType": "contract IBrevisApp",
          "name": "_callback",
          "type": "address"
        },
        {
          "internalType": "enum BrevisRequest.Option",
          "name": "_option",
          "type": "uint8"
        }
      ],
      "name": "sendRequest",
      "outputs": [],
      "stateMutability": "payable",
      "type": "function"
    },
    {
      "inputs": [
        {
          "internalType": "contract IBrevisEigen",
          "name": "_brevisEigen",
          "type": "address"
        }
      ],
      "name": "setBrevisEigen",
      "outputs": [],
      "stateMutability": "nonpayable",
      "type": "function"
    },
    {
      "inputs": [
        {
          "internalType": "uint256",
          "name": "_challengeWindow",
          "type": "uint256"
        }
      ],
      "name": "setChallengeWindow",
      "outputs": [],
      "stateMutability": "nonpayable",
      "type": "function"
    },
    {
      "inputs": [
        {
          "internalType": "address",
          "name": "_feeCollector",
          "type": "address"
        }
      ],
      "name": "setFeeCollector",
      "outputs": [],
      "stateMutability": "nonpayable",
      "type": "function"
    },
    {
      "inputs": [
        {
          "internalType": "uint256",
          "name": "_timeout",
          "type": "uint256"
        }
      ],
      "name": "setRequestTimeout",
      "outputs": [],
      "stateMutability": "nonpayable",
      "type": "function"
    },
    {
      "inputs": [
        {
          "internalType": "uint256",
          "name": "_responseTimeout",
          "type": "uint256"
        }
      ],
      "name": "setResponseTimeout",
      "outputs": [],
      "stateMutability": "nonpayable",
      "type": "function"
    },
    {
      "inputs": [],
      "name": "sigsVerifier",
      "outputs": [
        {
          "internalType": "contract ISigsVerifier",
          "name": "",
          "type": "address"
        }
      ],
      "stateMutability": "view",
      "type": "function"
    },
    {
      "inputs": [
        {
          "internalType": "address",
          "name": "newOwner",
          "type": "address"
        }
      ],
      "name": "transferOwnership",
      "outputs": [],
      "stateMutability": "nonpayable",
      "type": "function"
    },
    {
      "stateMutability": "payable",
      "type": "receive"
    }
  ],
  "transactionHash": "0x2e81d4efa03ded10bd7d57ad6aa108dbb20121138cdd3855259c2bd47f9734bf",
  "args": [
    "0x58b529F9084D7eAA598EB3477Fe36064C5B7bbC1",
    "0x7D0087dd83D50B73A926d83ba08e194ff6c961b6",
    "0xb3f5Fbe570C4287ac4EAbD3DcA5ca4E15526C625",
    "0x0000000000000000000000000000000000000000"
  ],
  "numDeployments": 1,
  "solcInputHash": "1f5fef73f15e4b101b9c36d11a6defd7",
  "bytecode": "0x60a03461010657601f62001f1738819003918201601f19168301916001600160401b0383118484101761010b578084926080946040528339810103126101065780516001600160a01b0391908281169081900361010657602082015191838316809303610106576040810151908482168203610106576060015192848416809403610106576000549260018060a01b0319933385821617600055604051963391167f8be0079c531659141344cd1fd0a4f28419497f9722a3daafe3b4186f6b6457e0600080a38360015416176001558260035416176003556080526004541617600455611df590816200012282396080518181816105040152818161124501526113090152f35b600080fd5b634e487b7160e01b600052604160045260246000fdfe608080604052600436101561001d575b50361561001b57600080fd5b005b600090813560e01c908162a731ed146117305750806301c1aa0d146116cd5780630de4c3d7146116a65780632763ce8a146115e75780632d85fa201461159e5780633f20b4c9146115805780635685fd671461104957806361b9fd7314610f20578063622b6af414610ebd57806369c228a114610cea57806369dc190314610c875780636a96173514610aa55780636db03b1d146109ba578063715018a61461095a5780637249fbb61461088f5780637ff7b0d214610800578063861a1412146107e25780638da5cb5b146107bc57806395d39656146107925780639d86698514610710578063a17ed96c146106f2578063a42dce8014610679578063a4514ff3146105a4578063b6979c3e14610576578063c415b95c1461054f578063c7f5aaa014610528578063ccf2683b146104e4578063e713b4c9146104c4578063f2a9c666146102525763f2fde38b0361000f573461024f57602036600319011261024f57610188611827565b6001600160a01b0380916101a082855416331461184a565b169081156101e457600054826001600160a01b0319821617600055167f8be0079c531659141344cd1fd0a4f28419497f9722a3daafe3b4186f6b6457e0600080a380f35b60405162461bcd60e51b815260206004820152602660248201527f4f776e61626c653a206e6577206f776e657220697320746865207a65726f206160448201527f64647265737300000000000000000000000000000000000000000000000000006064820152608490fd5b80fd5b50608036600319011261024f5760043561026a611811565b6044356001600160a01b03918282168092036104c0576064359260038410156104bc578486526020916005835260408720546104775781168015610432576102b460025442611895565b916040519260c0840184811067ffffffffffffffff82111761041c57604052835283830190348252604084019283526003606085019487865260808101948b865260a08201946103038b61177b565b8a86528b8d526005895260408d209251835551600183015583600283019151166001600160a01b03198254161790550193511683549251916008831015610408579174ff000000000000000000000000000000000000000060a0989694927fffffffffffffffffffff0000000000000000000000000000000000000000000075ff0000000000000000000000000000000000000000007f8351e4cc62a96a972da26714bfbb019926334976bb613c36e0dc72b69cf8f5649c9a9896516103c88161177b565b6103d18161177b565b60a81b1694161791891b1617179055604051938452339084015234604084015260608301526103ff8161177b565b6080820152a180f35b634e487b7160e01b8a52602160045260248afd5b634e487b7160e01b600052604160045260246000fd5b60405162461bcd60e51b815260048101849052601560248201527f726566756e646565206e6f742070726f766964656400000000000000000000006044820152606490fd5b60405162461bcd60e51b815260048101849052601860248201527f7265717565737420616c726561647920696e20717565756500000000000000006044820152606490fd5b8580fd5b8480fd5b503461024f57602036600319011261024f576104e16004356119f3565b80f35b503461024f578060031936011261024f5760206040516001600160a01b037f0000000000000000000000000000000000000000000000000000000000000000168152f35b503461024f578060031936011261024f5760206001600160a01b0360035416604051908152f35b503461024f578060031936011261024f5760206001600160a01b0360015416604051908152f35b503461024f57602036600319011261024f576020610595600435611b2e565b6105a2604051809261183d565bf35b5060208060031936011261067557600435908183526005815260ff600360408520015460a01c166008811015610661577fe77f1579b66737e0839e75b8ee1a189f5b6b5d2e504090f76337ffde5903da3a91610604600260409314611d3c565b83855260068152600182862001600160ff1982541617905561062860095442611895565b848652600682526002838720015560058152600382862001600160a21b60ff60a01b19825416179055815190600182523390820152a280f35b634e487b7160e01b84526021600452602484fd5b5080fd5b503461024f57602036600319011261024f577f5d16ad41baeb009cd23eb8f6c7cde5c2e0cd5acf4a33926ab488875c37c37f3860406106b6611827565b6001600160a01b036106cc81865416331461184a565b80600154921690816001600160a01b03198416176001558351921682526020820152a180f35b503461024f578060031936011261024f576020600954604051908152f35b503461024f57602036600319011261024f57604060c09160043581526005602052208054906107826001820154916001600160a01b036003816002840154169201549160ff8360a81c1694604051968752602087015260408601528116606085015260ff608085019160a01c1661183d565b61078b8161177b565b60a0820152f35b503461024f57602036600319011261024f5760406020916004358152600783522054604051908152f35b503461024f578060031936011261024f576001600160a01b036020915416604051908152f35b503461024f578060031936011261024f576020600854604051908152f35b503461024f57604036600319011261024f5761081a611811565b6001600160a01b0360015416330361084a57818080806104e1946004359061c350f1610844611977565b50611ae2565b60405162461bcd60e51b815260206004820152601160248201527f6e6f742066656520636f6c6c6563746f720000000000000000000000000000006044820152606490fd5b503461024f57602036600319011261024f5760043580825260056020526108bb604083205415156119a7565b808252600560205281604081209182544211156106755761092082808080876020977ffea410cb461deba9fe807dde02d6641d82e1bf09ecc88ecfa0f2ffadf2a1fdfe995560016001600160a01b036002830154169101549061c350f1610844611977565b80845260058252600360408520017407000000000000000000000000000000000000000060ff60a01b19825416179055604051908152a180f35b503461024f578060031936011261024f5760006001600160a01b0361098381845416331461184a565b81546001600160a01b031981168355167f8be0079c531659141344cd1fd0a4f28419497f9722a3daafe3b4186f6b6457e08280a380f35b5060208060031936011261067557600435908183526005815260ff600360408520015460a01c166008811015610661576002148015610a7e575b7fe77f1579b66737e0839e75b8ee1a189f5b6b5d2e504090f76337ffde5903da3a91610a21604092611d3c565b83855260068152600182862001600260ff19825416179055610a4560095442611895565b848652600682526002838720015560058152600382862001600160a21b60ff60a01b19825416179055815190600282523390820152a280f35b508183526005815260ff600360408520015460a01c166008811015610661576003146109f4565b503461024f5760a036600319011261024f5780600435610ac36117fa565b9067ffffffffffffffff906044358281116104c057610ae690369060040161179b565b9060643593841515809503610c8357608435818111610c7f57610b0d90369060040161179b565b9590966001600160a01b0393610b4b8560035416916040519788968795630979240d60e21b87521660048601526060602486015260648501916118ee565b926044830152818a602097889503925af1908115610c74578791610c3b575b50610b7690841461190f565b610b7f836119f3565b8286526005825260036040872001600160a01b60ff60a01b198254161790557f85e1543bf2f84fe80c6badbce3648c8539ad1df4d2b3d822938ca0538be727e682604051858152a1828652600582526003604087200154169283610be1578580f35b610c23869592610c158794604051948593840197633ceb5b5160e11b895260248501526040604485015260648401916118ee565b03601f1981018352826118cc565b51925af150610c30611977565b508038808080808580f35b809750838092503d8311610c6d575b610c5481836118cc565b81010312610c6857610b7687965190610b6a565b600080fd5b503d610c4a565b6040513d89823e3d90fd5b8780fd5b8680fd5b503461024f57602036600319011261024f577f86fe7fc31f35681a1ed77325f0cf24935a5d25b1861e7ce9ceed9cb67f2222706040600435610cd46001600160a01b03855416331461184a565b600954908060095582519182526020820152a180f35b503461024f57604036600319011261024f5760043560243567ffffffffffffffff8111610eb957610d208291369060040161179b565b919081855260209260058452600260ff600360408920015460a81c16610d458161177b565b03610e035790610d56913691611d88565b82815191012003610dbf578183526005815260036040842001600360a01b60ff60a01b198254161790556006610d8e60085442611895565b918385525260408320557fe4e1e2afaa20a4e7e37593d3fb41a91d496a30ea2b7ccf67a9aa9450e74af4f08280a280f35b6064906040519062461bcd60e51b82526004820152601360248201527f6e6f742076616c696420717565727944617461000000000000000000000000006044820152fd5b9091855260058352600160ff600360408820015460a81c16610e248161177b565b03610e745790610e35913691611d88565b8181519101208352600781528160408420558183526005815260036040842001600360a01b60ff60a01b198254161790556006610d8e60085442611895565b60405162461bcd60e51b815260048101849052601660248201527f6e6f7420612076616c6964206f702072657175657374000000000000000000006044820152606490fd5b8280fd5b503461024f57602036600319011261024f577f87a73c061f18ffd513249d1d727921e40e348948b01e2979efb36ef4f5204a636040600435610f0a6001600160a01b03855416331461184a565b600254908060025582519182526020820152a180f35b503461024f57606036600319011261024f57600435610f3d6117fa565b60443567ffffffffffffffff918282116104c057610f61602092369060040161179b565b919093866001600160a01b036003541692610fa060405197889687958694630979240d60e21b86521660048501526060602485015260648401916118ee565b6001604483015203925af1801561103e57839061100b575b610fc49150821461190f565b808252600560205260036040832001600160a01b60ff60a01b198254161790557f799191eb766b210bea2d9052b39f21140ed9fbf3ff2fe5102fbd6bb5bc134e3e8280a280f35b506020813d8211611036575b81611024602093836118cc565b81010312610c6857610fc49051610fb8565b3d9150611017565b6040513d85823e3d90fd5b503461024f5760a036600319011261024f5760043567ffffffffffffffff81116106755761107b9036906004016117c9565b60249291923567ffffffffffffffff8111610eb95761109e9036906004016117c9565b60449291923567ffffffffffffffff81116104c0576110c19036906004016117c9565b9060643567ffffffffffffffff8111610c83576110e29036906004016117c9565b909160843567ffffffffffffffff811161157c576111049036906004016117c9565b929091871561153757868803611533576001600160a01b0360045416803b1561152f578a8c611153928b8360405180968195829463d1e3471560e01b8452602060048501526024840191611c1d565b03925af1801561152457611511575b506040514660208201526020815280604081011067ffffffffffffffff60408301111761041c576040819c9a9b9c01604052908b5b8981106114b95750604051904660208301523060601b60408301527f46756c66696c6c5265717565737473000000000000000000000000000000000060548301526043825281608081011067ffffffffffffffff60808401111761041c576080820160405261123b604083805160208201209560a0820196875261122581518092602060c086019101611c8f565b81010360208101608086015201608084016118cc565b6001600160a01b037f0000000000000000000000000000000000000000000000000000000000000000163b156114b5576112c4908d9860a4806112a960209660809c9b9a99986040519d8e92633416de1160e11b845281600485015201519382856084819501520190611c8f565b601f01601f19168a018a810360a00160248c01520191611cb2565b86810360031901604488015282815201939086905b80821061147e575050506112fd859385938493600319858403016064860152611c1d565b03816001600160a01b037f0000000000000000000000000000000000000000000000000000000000000000165afa801561145f5761146a575b505b82811061139157507fa1c3ef280bbac31181188d4beffe370ebae03e08d58a3aa4832b107d540c0a839361138b9161137d604051958695604087526040870191611c1d565b918483036020860152611cb2565b0390a180f35b600390866001600160a01b038354166113ab838789611c69565b35813b15610eb957829160248392604051948593849263e26d07d360e01b845260048401525af1801561145f5761144b575b5050611446916113ee828688611c69565b358852600560205260408820017402000000000000000000000000000000000000000060ff60a01b1982541617905561142960085442611895565b611434828688611c69565b35885260066020526040882055611c5a565b611338565b611454906118b8565b610c835786386113dd565b6040513d84823e3d90fd5b611473906118b8565b6104c0578438611336565b9180969750949092939435906001600160a01b038216809203610c685760208160019382935201960192018b9695949392916112d9565b8c80fd5b916115089061150260408d9f9e9d868e6114d292611c69565b3592815193816114ec869351809260208087019101611c8f565b82019060208201520360208101845201826118cc565b92611c5a565b9b999a9b611197565b61151d909a919a6118b8565b9838611162565b6040513d8d823e3d90fd5b8a80fd5b8980fd5b60405162461bcd60e51b815260206004820152601260248201527f696e76616c6964207265717565737449647300000000000000000000000000006044820152606490fd5b8880fd5b503461024f578060031936011261024f576020600254604051908152f35b503461024f57602036600319011261024f576004356001600160a01b03808216809203610eb9576115d390835416331461184a565b6001600160a01b0319600454161760045580f35b503461024f57602036600319011261024f5760043567ffffffffffffffff81116106755761161990369060040161179b565b50508080526007602052604081205480156116615781526005602052600360408220017405000000000000000000000000000000000000000060ff60a01b1982541617905580f35b60405162461bcd60e51b815260206004820152601560248201527f71756572792064617461206e6f7420706f7374656400000000000000000000006044820152606490fd5b503461024f578060031936011261024f5760206001600160a01b0360045416604051908152f35b503461024f57602036600319011261024f577fedb9338f4b0faf2b899d2d7f54b90753d2a8ebb34936e381edb91b091c3e45a7604060043561171a6001600160a01b03855416331461184a565b600854908060085582519182526020820152a180f35b9050346106755760203660031901126106755760406060926004358152600660205220805490600260ff60018301541691015491835261176f8161177b565b60208301526040820152f35b6003111561178557565b634e487b7160e01b600052602160045260246000fd5b9181601f84011215610c685782359167ffffffffffffffff8311610c685760208381860195010111610c6857565b9181601f84011215610c685782359167ffffffffffffffff8311610c68576020808501948460051b010111610c6857565b6024359067ffffffffffffffff82168203610c6857565b602435906001600160a01b0382168203610c6857565b600435906001600160a01b0382168203610c6857565b9060088210156117855752565b1561185157565b606460405162461bcd60e51b815260206004820152602060248201527f4f776e61626c653a2063616c6c6572206973206e6f7420746865206f776e65726044820152fd5b919082018092116118a257565b634e487b7160e01b600052601160045260246000fd5b67ffffffffffffffff811161041c57604052565b90601f8019910116810190811067ffffffffffffffff82111761041c57604052565b908060209392818452848401376000828201840152601f01601f1916010190565b1561191657565b60405162461bcd60e51b815260206004820152601d60248201527f72657175657374496420616e642070726f6f66206e6f74206d617463680000006044820152606490fd5b67ffffffffffffffff811161041c57601f01601f191660200190565b3d156119a2573d906119888261195b565b9161199660405193846118cc565b82523d6000602084013e565b606090565b156119ae57565b60405162461bcd60e51b815260206004820152601460248201527f72657175657374206e6f7420696e2071756575650000000000000000000000006044820152606490fd5b60009080825260209060058252611a0f604084205415156119a7565b6024826001600160a01b0360035416604051928380926371e8f36b60e11b82528660048301525afa908115611ad7578491611a9d575b5015611a58578252600590526040812055565b60405162461bcd60e51b815260048101839052601360248201527f70726f6f66206e6f742067656e657261746564000000000000000000000000006044820152606490fd5b90508281813d8311611ad0575b611ab481836118cc565b81010312611acc57518015158103611acc5738611a45565b8380fd5b503d611aaa565b6040513d86823e3d90fd5b15611ae957565b60405162461bcd60e51b815260206004820152601260248201527f73656e64206e6174697665206661696c656400000000000000000000000000006044820152606490fd5b60008181526020906005825260409060ff6003838320015460a01c166008811015611bc6576002148015611bf7575b80611be3575b611bda578381526005835260ff6003838320015460a01c166008811015611bc65760041480611baf575b611ba657600560039360ff9583525220015460a01c1690565b50505050600590565b508381526006835260028282200154421015611b8d565b634e487b7160e01b82526021600452602482fd5b50505050600690565b508381526006835281812054421015611b63565b508381526005835260ff6003838320015460a01c166008811015611bc657600314611b5d565b90918281527f07ffffffffffffffffffffffffffffffffffffffffffffffffffffffffffffff8311610c685760209260051b809284830137010190565b60001981146118a25760010190565b9190811015611c795760051b0190565b634e487b7160e01b600052603260045260246000fd5b60005b838110611ca25750506000910152565b8181015183820152602001611c92565b9082818152602080910193818360051b82010194846000925b858410611cdc575050505050505090565b90919293949596601f198282030184528735601e1984360301811215610c6857830186810191903567ffffffffffffffff8111610c68578036038313610c6857611d2b889283926001956118ee565b990194019401929594939190611ccb565b15611d4357565b60405162461bcd60e51b815260206004820152601a60248201527f6e6f7420696e20612064697370757461626c65207374617475730000000000006044820152606490fd5b929192611d948261195b565b91611da260405193846118cc565b829481845281830111610c6857828160209384600096013701015256fea2646970667358221220b3fd507fb45b716cfd6284df0fd372c774f2fc436a2a3c6d3bcd030e553332be64736f6c63430008140033",
  "devdoc": {
    "kind": "dev",
    "methods": {
      "owner()": {
        "details": "Returns the address of the current owner."
      },
      "renounceOwnership()": {
        "details": "Leaves the contract without owner. It will not be possible to call `onlyOwner` functions anymore. Can only be called by the current owner. NOTE: Renouncing ownership will leave the contract without an owner, thereby removing any functionality that is only available to the owner."
      },
      "transferOwnership(address)": {
        "details": "Transfers ownership of the contract to a new account (`newOwner`). Can only be called by the current owner."
      }
    },
    "version": 1
  },
  "userdoc": {
    "kind": "user",
    "methods": {},
    "version": 1
  },
  "storageLayout": {
    "storage": [
      {
        "astId": 7,
        "contract": "contracts/sdk/core/BrevisRequest.sol:BrevisRequest",
        "label": "_owner",
        "offset": 0,
        "slot": "0",
        "type": "t_address"
      },
      {
        "astId": 4400,
        "contract": "contracts/sdk/core/BrevisRequest.sol:BrevisRequest",
        "label": "feeCollector",
        "offset": 0,
        "slot": "1",
        "type": "t_address"
      },
      {
        "astId": 3399,
        "contract": "contracts/sdk/core/BrevisRequest.sol:BrevisRequest",
        "label": "requestTimeout",
        "offset": 0,
        "slot": "2",
        "type": "t_uint256"
      },
      {
        "astId": 3402,
        "contract": "contracts/sdk/core/BrevisRequest.sol:BrevisRequest",
        "label": "brevisProof",
        "offset": 0,
        "slot": "3",
        "type": "t_contract(IBrevisProof)4553"
      },
      {
        "astId": 3405,
        "contract": "contracts/sdk/core/BrevisRequest.sol:BrevisRequest",
        "label": "brevisEigen",
        "offset": 0,
        "slot": "4",
        "type": "t_contract(IBrevisEigen)4499"
      },
      {
        "astId": 3439,
        "contract": "contracts/sdk/core/BrevisRequest.sol:BrevisRequest",
        "label": "requests",
        "offset": 0,
        "slot": "5",
        "type": "t_mapping(t_bytes32,t_struct(Request)3434_storage)"
      },
      {
        "astId": 3788,
        "contract": "contracts/sdk/core/BrevisRequest.sol:BrevisRequest",
        "label": "requestExts",
        "offset": 0,
        "slot": "6",
        "type": "t_mapping(t_bytes32,t_struct(RequestExt)3783_storage)"
      },
      {
        "astId": 3792,
        "contract": "contracts/sdk/core/BrevisRequest.sol:BrevisRequest",
        "label": "keccakToMimc",
        "offset": 0,
        "slot": "7",
        "type": "t_mapping(t_bytes32,t_bytes32)"
      },
      {
        "astId": 3794,
        "contract": "contracts/sdk/core/BrevisRequest.sol:BrevisRequest",
        "label": "challengeWindow",
        "offset": 0,
        "slot": "8",
        "type": "t_uint256"
      },
      {
        "astId": 3796,
        "contract": "contracts/sdk/core/BrevisRequest.sol:BrevisRequest",
        "label": "responseTimeout",
        "offset": 0,
        "slot": "9",
        "type": "t_uint256"
      }
    ],
    "types": {
      "t_address": {
        "encoding": "inplace",
        "label": "address",
        "numberOfBytes": "20"
      },
      "t_bytes32": {
        "encoding": "inplace",
        "label": "bytes32",
        "numberOfBytes": "32"
      },
      "t_contract(IBrevisApp)4490": {
        "encoding": "inplace",
        "label": "contract IBrevisApp",
        "numberOfBytes": "20"
      },
      "t_contract(IBrevisEigen)4499": {
        "encoding": "inplace",
        "label": "contract IBrevisEigen",
        "numberOfBytes": "20"
      },
      "t_contract(IBrevisProof)4553": {
        "encoding": "inplace",
        "label": "contract IBrevisProof",
        "numberOfBytes": "20"
      },
      "t_enum(AskForType)3775": {
        "encoding": "inplace",
        "label": "enum BrevisRequest.AskForType",
        "numberOfBytes": "1"
      },
      "t_enum(Option)3418": {
        "encoding": "inplace",
        "label": "enum BrevisRequest.Option",
        "numberOfBytes": "1"
      },
      "t_enum(RequestStatus)3414": {
        "encoding": "inplace",
        "label": "enum BrevisRequest.RequestStatus",
        "numberOfBytes": "1"
      },
      "t_mapping(t_bytes32,t_bytes32)": {
        "encoding": "mapping",
        "key": "t_bytes32",
        "label": "mapping(bytes32 => bytes32)",
        "numberOfBytes": "32",
        "value": "t_bytes32"
      },
      "t_mapping(t_bytes32,t_struct(Request)3434_storage)": {
        "encoding": "mapping",
        "key": "t_bytes32",
        "label": "mapping(bytes32 => struct BrevisRequest.Request)",
        "numberOfBytes": "32",
        "value": "t_struct(Request)3434_storage"
      },
      "t_mapping(t_bytes32,t_struct(RequestExt)3783_storage)": {
        "encoding": "mapping",
        "key": "t_bytes32",
        "label": "mapping(bytes32 => struct BrevisRequest.RequestExt)",
        "numberOfBytes": "32",
        "value": "t_struct(RequestExt)3783_storage"
      },
      "t_struct(Request)3434_storage": {
        "encoding": "inplace",
        "label": "struct BrevisRequest.Request",
        "members": [
          {
            "astId": 3420,
            "contract": "contracts/sdk/core/BrevisRequest.sol:BrevisRequest",
            "label": "deadline",
            "offset": 0,
            "slot": "0",
            "type": "t_uint256"
          },
          {
            "astId": 3422,
            "contract": "contracts/sdk/core/BrevisRequest.sol:BrevisRequest",
            "label": "fee",
            "offset": 0,
            "slot": "1",
            "type": "t_uint256"
          },
          {
            "astId": 3424,
            "contract": "contracts/sdk/core/BrevisRequest.sol:BrevisRequest",
            "label": "refundee",
            "offset": 0,
            "slot": "2",
            "type": "t_address"
          },
          {
            "astId": 3427,
            "contract": "contracts/sdk/core/BrevisRequest.sol:BrevisRequest",
            "label": "callback",
            "offset": 0,
            "slot": "3",
            "type": "t_contract(IBrevisApp)4490"
          },
          {
            "astId": 3430,
            "contract": "contracts/sdk/core/BrevisRequest.sol:BrevisRequest",
            "label": "status",
            "offset": 20,
            "slot": "3",
            "type": "t_enum(RequestStatus)3414"
          },
          {
            "astId": 3433,
            "contract": "contracts/sdk/core/BrevisRequest.sol:BrevisRequest",
            "label": "option",
            "offset": 21,
            "slot": "3",
            "type": "t_enum(Option)3418"
          }
        ],
        "numberOfBytes": "128"
      },
      "t_struct(RequestExt)3783_storage": {
        "encoding": "inplace",
        "label": "struct BrevisRequest.RequestExt",
        "members": [
          {
            "astId": 3777,
            "contract": "contracts/sdk/core/BrevisRequest.sol:BrevisRequest",
            "label": "canChallengeBefore",
            "offset": 0,
            "slot": "0",
            "type": "t_uint256"
          },
          {
            "astId": 3780,
            "contract": "contracts/sdk/core/BrevisRequest.sol:BrevisRequest",
            "label": "askFor",
            "offset": 0,
            "slot": "1",
            "type": "t_enum(AskForType)3775"
          },
          {
            "astId": 3782,
            "contract": "contracts/sdk/core/BrevisRequest.sol:BrevisRequest",
            "label": "shouldRespondBefore",
            "offset": 0,
            "slot": "2",
            "type": "t_uint256"
          }
        ],
        "numberOfBytes": "96"
      },
      "t_uint256": {
        "encoding": "inplace",
        "label": "uint256",
        "numberOfBytes": "32"
      }
    }
  }
}