{
  "address": "0x7D0087dd83D50B73A926d83ba08e194ff6c961b6",
  "abi": [
    {
      "inputs": [
        {
          "internalType": "contract ISMT",
          "name": "_smtContract",
          "type": "address"
        }
      ],
      "stateMutability": "nonpayable",
      "type": "constructor"
    },
    {
      "anonymous": false,
      "inputs": [
        {
          "indexed": false,
          "internalType": "bytes32[]",
          "name": "vkHashes",
          "type": "bytes32[]"
        },
        {
          "indexed": false,
          "internalType": "uint256[]",
          "name": "sizes",
          "type": "uint256[]"
        }
      ],
      "name": "BatchTierVkHashesUpdated",
      "type": "event"
    },
    {
      "anonymous": false,
      "inputs": [
        {
          "indexed": false,
          "internalType": "address",
          "name": "brevisRequest",
          "type": "address"
        }
      ],
      "name": "BrevisRequestUpdated",
      "type": "event"
    },
    {
      "anonymous": false,
      "inputs": [
        {
          "indexed": true,
          "internalType": "address",
          "name": "previousOwner",
          "type": "address"
        },
        {
          "indexed": true,
          "internalType": "address",
          "name": "newOwner",
          "type": "address"
        }
      ],
      "name": "OwnershipTransferred",
      "type": "event"
    },
    {
      "anonymous": false,
      "inputs": [
        {
          "indexed": false,
          "internalType": "contract ISMT",
          "name": "smtContract",
          "type": "address"
        }
      ],
      "name": "SmtContractUpdated",
      "type": "event"
    },
    {
      "anonymous": false,
      "inputs": [
        {
          "indexed": false,
          "internalType": "uint64[]",
          "name": "chainIds",
          "type": "uint64[]"
        },
        {
          "components": [
            {
              "internalType": "contract IZkpVerifier",
              "name": "contractAppZkVerifier",
              "type": "address"
            },
            {
              "internalType": "contract IZkpVerifier",
              "name": "circuitAppZkVerifier",
              "type": "address"
            }
          ],
          "indexed": false,
          "internalType": "struct BrevisProof.ChainZKVerifier[]",
          "name": "newAddresses",
          "type": "tuple[]"
        }
      ],
      "name": "VerifierAddressesUpdated",
      "type": "event"
    },
    {
      "inputs": [],
      "name": "brevisRequest",
      "outputs": [
        {
          "internalType": "address",
          "name": "",
          "type": "address"
        }
      ],
      "stateMutability": "view",
      "type": "function"
    },
    {
      "inputs": [
        {
          "internalType": "bytes32",
          "name": "_requestId",
          "type": "bytes32"
        }
      ],
      "name": "getProofAppData",
      "outputs": [
        {
          "internalType": "bytes32",
          "name": "",
          "type": "bytes32"
        },
        {
          "internalType": "bytes32",
          "name": "",
          "type": "bytes32"
        }
      ],
      "stateMutability": "view",
      "type": "function"
    },
    {
      "inputs": [
        {
          "internalType": "bytes32",
          "name": "_requestId",
          "type": "bytes32"
        }
      ],
      "name": "getProofData",
      "outputs": [
        {
          "components": [
            {
              "internalType": "bytes32",
              "name": "commitHash",
              "type": "bytes32"
            },
            {
              "internalType": "uint256",
              "name": "length",
              "type": "uint256"
            },
            {
              "internalType": "bytes32",
              "name": "vkHash",
              "type": "bytes32"
            },
            {
              "internalType": "bytes32",
              "name": "appCommitHash",
              "type": "bytes32"
            },
            {
              "internalType": "bytes32",
              "name": "appVkHash",
              "type": "bytes32"
            },
            {
              "internalType": "bytes32",
              "name": "smtRoot",
              "type": "bytes32"
            }
          ],
          "internalType": "struct Brevis.ProofData",
          "name": "",
          "type": "tuple"
        }
      ],
      "stateMutability": "view",
      "type": "function"
    },
    {
      "inputs": [
        {
          "internalType": "bytes32",
          "name": "_requestId",
          "type": "bytes32"
        }
      ],
      "name": "hasProof",
      "outputs": [
        {
          "internalType": "bool",
          "name": "",
          "type": "bool"
        }
      ],
      "stateMutability": "view",
      "type": "function"
    },
    {
      "inputs": [],
      "name": "owner",
      "outputs": [
        {
          "internalType": "address",
          "name": "",
          "type": "address"
        }
      ],
      "stateMutability": "view",
      "type": "function"
    },
    {
      "inputs": [
        {
          "internalType": "bytes32",
          "name": "",
          "type": "bytes32"
        }
      ],
      "name": "proofs",
      "outputs": [
        {
          "internalType": "bytes32",
          "name": "commitHash",
          "type": "bytes32"
        },
        {
          "internalType": "uint256",
          "name": "length",
          "type": "uint256"
        },
        {
          "internalType": "bytes32",
          "name": "vkHash",
          "type": "bytes32"
        },
        {
          "internalType": "bytes32",
          "name": "appCommitHash",
          "type": "bytes32"
        },
        {
          "internalType": "bytes32",
          "name": "appVkHash",
          "type": "bytes32"
        },
        {
          "internalType": "bytes32",
          "name": "smtRoot",
          "type": "bytes32"
        }
      ],
      "stateMutability": "view",
      "type": "function"
    },
    {
      "inputs": [],
      "name": "renounceOwnership",
      "outputs": [],
      "stateMutability": "nonpayable",
      "type": "function"
    },
    {
      "inputs": [
        {
          "internalType": "bytes32[]",
          "name": "_vkHashes",
          "type": "bytes32[]"
        },
        {
          "internalType": "uint256[]",
          "name": "_sizes",
          "type": "uint256[]"
        }
      ],
      "name": "setBatchTierVkHashes",
      "outputs": [],
      "stateMutability": "nonpayable",
      "type": "function"
    },
    {
      "inputs": [],
      "name": "smtContract",
      "outputs": [
        {
          "internalType": "contract ISMT",
          "name": "",
          "type": "address"
        }
      ],
      "stateMutability": "view",
      "type": "function"
    },
    {
      "inputs": [
        {
          "internalType": "bytes32",
          "name": "_requestId",
          "type": "bytes32"
        }
      ],
      "name": "submitOpResult",
      "outputs": [],
      "stateMutability": "nonpayable",
      "type": "function"
    },
    {
      "inputs": [
        {
          "internalType": "uint64",
          "name": "_chainId",
          "type": "uint64"
        },
        {
          "internalType": "bytes",
          "name": "_proofWithPubInputs",
          "type": "bytes"
        },
        {
          "internalType": "bool",
          "name": "_withAppProof",
          "type": "bool"
        }
      ],
      "name": "submitProof",
      "outputs": [
        {
          "internalType": "bytes32",
          "name": "_requestId",
          "type": "bytes32"
        }
      ],
      "stateMutability": "nonpayable",
      "type": "function"
    },
    {
      "inputs": [
        {
          "internalType": "address",
          "name": "newOwner",
          "type": "address"
        }
      ],
      "name": "transferOwnership",
      "outputs": [],
      "stateMutability": "nonpayable",
      "type": "function"
    },
    {
      "inputs": [
        {
          "internalType": "address",
          "name": "_brevisRequest",
          "type": "address"
        }
      ],
      "name": "updateBrevisRequest",
      "outputs": [],
      "stateMutability": "nonpayable",
      "type": "function"
    },
    {
      "inputs": [
        {
          "internalType": "contract ISMT",
          "name": "_smtContract",
          "type": "address"
        }
      ],
      "name": "updateSmtContract",
      "outputs": [],
      "stateMutability": "nonpayable",
      "type": "function"
    },
    {
      "inputs": [
        {
          "internalType": "uint64[]",
          "name": "_chainIds",
          "type": "uint64[]"
        },
        {
          "components": [
            {
              "internalType": "contract IZkpVerifier",
              "name": "contractAppZkVerifier",
              "type": "address"
            },
            {
              "internalType": "contract IZkpVerifier",
              "name": "circuitAppZkVerifier",
              "type": "address"
            }
          ],
          "internalType": "struct BrevisProof.ChainZKVerifier[]",
          "name": "_verifierAddresses",
          "type": "tuple[]"
        }
      ],
      "name": "updateVerifierAddress",
      "outputs": [],
      "stateMutability": "nonpayable",
      "type": "function"
    },
    {
      "inputs": [
        {
          "internalType": "bytes32",
          "name": "_requestId",
          "type": "bytes32"
        },
        {
          "internalType": "uint64",
          "name": "_chainId",
          "type": "uint64"
        },
        {
          "components": [
            {
              "internalType": "bytes32",
              "name": "smtRoot",
              "type": "bytes32"
            },
            {
              "components": [
                {
                  "internalType": "uint64",
                  "name": "blkNum",
                  "type": "uint64"
                },
                {
                  "internalType": "uint64",
                  "name": "receiptIndex",
                  "type": "uint64"
                },
                {
                  "components": [
                    {
                      "components": [
                        {
                          "internalType": "uint8",
                          "name": "valueFromTopic",
                          "type": "uint8"
                        },
                        {
                          "internalType": "uint64",
                          "name": "valueIndex",
                          "type": "uint64"
                        },
                        {
                          "internalType": "address",
                          "name": "contractAddress",
                          "type": "address"
                        },
                        {
                          "internalType": "bytes32",
                          "name": "logTopic0",
                          "type": "bytes32"
                        }
                      ],
                      "internalType": "struct Brevis.LogExtraInfo",
                      "name": "logExtraInfo",
                      "type": "tuple"
                    },
                    {
                      "internalType": "uint64",
                      "name": "logIndex",
                      "type": "uint64"
                    },
                    {
                      "internalType": "bytes32",
                      "name": "value",
                      "type": "bytes32"
                    }
                  ],
                  "internalType": "struct Brevis.LogInfo[5]",
                  "name": "logs",
                  "type": "tuple[5]"
                }
              ],
              "internalType": "struct Brevis.ReceiptInfo[]",
              "name": "receipts",
              "type": "tuple[]"
            },
            {
              "components": [
                {
                  "internalType": "bytes32",
                  "name": "blockHash",
                  "type": "bytes32"
                },
                {
                  "internalType": "address",
                  "name": "account",
                  "type": "address"
                },
                {
                  "internalType": "bytes32",
                  "name": "slot",
                  "type": "bytes32"
                },
                {
                  "internalType": "bytes32",
                  "name": "slotValue",
                  "type": "bytes32"
                },
                {
                  "internalType": "uint64",
                  "name": "blockNumber",
                  "type": "uint64"
                }
              ],
              "internalType": "struct Brevis.StorageInfo[]",
              "name": "stores",
              "type": "tuple[]"
            },
            {
              "components": [
                {
                  "internalType": "bytes32",
                  "name": "leafHash",
                  "type": "bytes32"
                },
                {
                  "internalType": "bytes32",
                  "name": "blockHash",
                  "type": "bytes32"
                },
                {
                  "internalType": "uint64",
                  "name": "blockNumber",
                  "type": "uint64"
                },
                {
                  "internalType": "uint64",
                  "name": "blockTime",
                  "type": "uint64"
                },
                {
                  "internalType": "bytes",
                  "name": "leafRlpPrefix",
                  "type": "bytes"
                }
              ],
              "internalType": "struct Brevis.TransactionInfo[]",
              "name": "txs",
              "type": "tuple[]"
            }
          ],
          "internalType": "struct Brevis.ExtractInfos",
          "name": "_extractInfos",
          "type": "tuple"
        }
      ],
      "name": "validateRequest",
      "outputs": [],
      "stateMutability": "view",
      "type": "function"
    },
    {
      "inputs": [
        {
          "internalType": "uint64",
          "name": "",
          "type": "uint64"
        }
      ],
      "name": "verifierAddresses",
      "outputs": [
        {
          "internalType": "contract IZkpVerifier",
          "name": "contractAppZkVerifier",
          "type": "address"
        },
        {
          "internalType": "contract IZkpVerifier",
          "name": "circuitAppZkVerifier",
          "type": "address"
        }
      ],
      "stateMutability": "view",
      "type": "function"
    },
    {
      "inputs": [
        {
          "internalType": "bytes32",
          "name": "",
          "type": "bytes32"
        }
      ],
      "name": "vkHashesToBatchSize",
      "outputs": [
        {
          "internalType": "uint256",
          "name": "",
          "type": "uint256"
        }
      ],
      "stateMutability": "view",
      "type": "function"
    }
  ],
  "transactionHash": "0x3728f3ddee933cb292bfa548e1a810f4cfd2a1e757f1c94a9543886bc478ca02",
  "args": [
    "0xC97aD7d8ABBfACb982173f9b32360ad9288cc783"
  ],
  "numDeployments": 1,
  "solcInputHash": "1f5fef73f15e4b101b9c36d11a6defd7",
  "bytecode": "0x6080346100a757601f611a1638819003918201601f19168301916001600160401b038311848410176100ac578084926020946040528339810103126100a757516001600160a01b0390818116908190036100a75760005460018060a01b0319903382821617600055604051933391167f8be0079c531659141344cd1fd0a4f28419497f9722a3daafe3b4186f6b6457e0600080a3600454161760045561195390816100c38239f35b600080fd5b634e487b7160e01b600052604160045260246000fdfe6080604052600436101561001257600080fd5b60003560e01c80631396511e146114ae5780631acf1e1f1461143a5780631be746b11461140e5780631e4971bb1461131057806325e4903414610f465780633221aec614610f1f57806338931a3114610ef8578063444d95b014610e955780635984fb9214610e5d578063715018a614610e005780637c08aa74146105835780638da5cb5b1461055c5780639546bf00146104bb578063b201326e146102c0578063e26d07d314610244578063e3d1e6d614610216578063f2fde38b146101365763f5cec6af146100e257600080fd5b346101315760203660031901126101315767ffffffffffffffff610104611553565b1660005260016020526040806000206001600160a01b036001818354169201541682519182526020820152f35b600080fd5b34610131576020366003190112610131576004356001600160a01b03808216809203610131576000549081169061016e33831461156a565b82156101ab576001600160a01b0319839116176000557f8be0079c531659141344cd1fd0a4f28419497f9722a3daafe3b4186f6b6457e0600080a3005b60405162461bcd60e51b815260206004820152602660248201527f4f776e61626c653a206e6577206f776e657220697320746865207a65726f206160448201527f64647265737300000000000000000000000000000000000000000000000000006064820152608490fd5b3461013157602036600319011261013157600435600052600260205260206040600020541515604051908152f35b34610131576020366003190112610131576004356001600160a01b0360055416330361027b57600081815260026020526040902055005b60405162461bcd60e51b815260206004820152601160248201527f6e6f7420627265766973526571756573740000000000000000000000000000006044820152606490fd5b346101315760403660031901126101315767ffffffffffffffff600435818111610131576102f2903690600401611522565b909160249081359381851161013157366023860112156101315784600401359282841161013157600692368286861b8901011161013157946001600160a01b0394939294926103468460005416331461156a565b610351858314611870565b60005b828110610424575050604051958160408801604089525260608701959160005b8181106103fa57505050506020848682960382880152848152019501926000915b8383106103c4577fc343b5bb763b4b0cdbd72c4b7a9627ce33d7eaff0cecca036b0af41ce9ca55a886880387a1005b9091929395604080600192846103d98b6118cc565b168152846103e8878c016118cc565b16818701520197019493019190610395565b90919294959685359084821680920361013157908152602090810197969501929190600101610374565b85819893989795969710156104a6578061049a91831b8a018461045061044b848d8b6118bc565b611762565b166000526001806020528861048d6044604060002093836104728c8801611777565b16946001600160a01b03199586825416178155019401611777565b169082541617905561171c565b96919695949395610354565b83634e487b7160e01b60005260326004526000fd5b34610131576020366003190112610131576104d46117e8565b50600435600052600260205260c060406000206040516104f3816115b5565b8154918282526001810154602083019081526002820154604084019081526003830154916060850192835260a0600560048601549560808801968752015495019485526040519586525160208601525160408501525160608401525160808301525160a0820152f35b346101315760003660031901126101315760206001600160a01b0360005416604051908152f35b34610131576003196060368201126101315767ffffffffffffffff60243516602435036101315767ffffffffffffffff6044351161013157608090604435360301126101315760043560005260026020526040600020604051906105e6826115b5565b600581549182845260018101546020850152600281015460408501526003810154606085015260048101546080850152015460a083015215610dbb576001600160a01b03600454166020604051809263080cdb0b60e11b8252818061066e60443560040135602435600484016020909392919367ffffffffffffffff60408201951681520152565b03915afa8015610daf5761068a91600091610d80575b5061160b565b6106d56106c16106a4602460443501604435600401611657565b90506106b9604480350160443560040161168d565b9190506116c3565b6106b96064604435016044356004016116e6565b908115610d3b5760408101516000526003602052604060002054808311610cf65760009260605b610710602460443501604435600401611657565b90508510156109625784606060005b600581106107f4575060206107ee93836107e8936107c861077c8561077661076161044b6107da9b61075b602460443501604435600401611657565b9061172b565b9561075b602460443501604435600401611657565b01611762565b926107ba604051938492888401966044356004013588526001600160c01b0319918260c091821b1660408701521b166048840152605083019061178b565b03601f1981018352826115d1565b5190206040519485928484019061178b565b9081520380845201826115d1565b9461171c565b936106fc565b918260406108136108199361075b602460443501604435600401611657565b01611751565b359060ff8216820361013157610954606561095a936108f9936108566080610776898f61081360409161075b602460443501604435600401611657565b918c61087b60206107768b60406108138661075b602460443501604435600401611657565b936108a4604061089e8c826108138761075b602460443501604435600401611657565b01611777565b9060a06108e68c604061081360606108cf84846108138c61075b602460443501604435600401611657565b01359761075b602460443501604435600401611657565b013595604051998a96602088019061178b565b9460ff60f81b9060f81b1685526001600160c01b0319918260c091821b1660018701521b1660098401526bffffffffffffffffffffffff199060601b16601183015260258201526045928382015203908101845201826115d1565b9161171c565b90869161071f565b926000935b61097a604480350160443560040161168d565b9050851015610b10576109a08561099a604480350160443560040161168d565b906117b6565b35906109be602061089e8861099a604480350160443560040161168d565b604051906bffffffffffffffffffffffff199060601b1660208201526014815280604081011067ffffffffffffffff604083011117610afa5760408101604052602081519101206040610a1e8861099a604480350160443560040161168d565b01356060610a398961099a604480350160443560040161168d565b013590610a5860806107768b61099a604480350160443560040161168d565b926040519560443560040135602088015260408701526060860152608085015260a08401526001600160c01b031960c091821b169083015260a882528160e081011067ffffffffffffffff60e084011117610afa5781610aed8160e09384610af49601604052610ad4825160208401209161010084019061178b565b9081520360df1981018484015260bf19018383016115d1565b019461171c565b93610967565b634e487b7160e01b600052604160045260246000fd5b926000935b610b296064604435016044356004016116e6565b9050851015610c4357610b5085610b4a6064604435016044356004016116e6565b906117c6565b35906020610b6c87610b4a6064604435016044356004016116e6565b0135610b8b604061077689610b4a6064604435016044356004016116e6565b90610ba960606107768a610b4a6064604435016044356004016116e6565b9060405194604435600401356020870152604086015260608501526001600160c01b0319809260c01b16608085015260c01b166088830152607082528160a081011067ffffffffffffffff60a084011117610afa5781610aed8160a09384610c3d9601604052610c24825160208401209160c084019061178b565b90815203609f19810184840152607f19018383016115d1565b93610b15565b9192818110610ca4575b505060208151910120905103610c5f57005b60405162461bcd60e51b815260206004820152601d60248201527f636f6d6d69744861736820616e6420696e666f206e6f74206d617463680000006044820152606490fd5b905b80821015610c4d579091610ccb610cea6020610cf0936040519384918383019061178b565b70010000000000000000000000000000000181520380845201826115d1565b9261171c565b90610ca6565b60405162461bcd60e51b815260206004820152601e60248201527f6974656d206c656e67746820657863656564732062617463682073697a6500006044820152606490fd5b60405162461bcd60e51b815260206004820152600b60248201527f656d707479206974656d730000000000000000000000000000000000000000006044820152606490fd5b610da2915060203d602011610da8575b610d9a81836115d1565b8101906115f3565b83610684565b503d610d90565b6040513d6000823e3d90fd5b60405162461bcd60e51b815260206004820152601060248201527f70726f6f66206e6f7420657869737473000000000000000000000000000000006044820152606490fd5b3461013157600036600319011261013157600080546001600160a01b03196001600160a01b03821691610e3433841461156a565b1682557f8be0079c531659141344cd1fd0a4f28419497f9722a3daafe3b4186f6b6457e08280a3005b346101315760203660031901126101315760043560005260026020526040806000206004600382015491015482519182526020820152f35b3461013157602036600319011261013157600435600052600260205260c0604060002080549060018101549060028101546003820154906005600484015493015493604051958652602086015260408501526060840152608083015260a0820152f35b346101315760003660031901126101315760206001600160a01b0360055416604051908152f35b346101315760003660031901126101315760206001600160a01b0360045416604051908152f35b3461013157606036600319011261013157610f5f611553565b6024803567ffffffffffffffff80821161013157366023830112156101315781600401359381851161013157368486850101116101315760449182359081158015830361013157156112ee57821660005260016020526001600160a01b0360406000205416925b6001600160a01b038094169485156112ab57604051976322bb937360e11b8952602098896004820152818982015289818a850199848b888401376000878684010152818781601f19601f89011681010301915afa908115610daf5760009161128e575b501561124b576110376117e8565b968415611212576110538282611059611053836110729661181a565b90611853565b8b52611068611053838361182d565b60a08c0152611840565b6040880152806101e011610131576101e482013560608801526102001161013157610204013560808601525b60408501958651156111d0578651600052600388526040600020541561118e575050908591611114575b505050805160005260028352600560a060406000209280519485855586820151600186015551600285015560608101516003850155608081015160048501550151910155604051908152f35b6004805460a086015160405163080cdb0b60e11b815267ffffffffffffffff94909416928401929092526024830191909152909283916044918391165afa8015610daf5761116991600091611171575061160b565b8383816110c8565b6111889150853d8711610da857610d9a81836115d1565b85610684565b7f766b48617368206e6f742076616c69640000000000000000000000000000000060649260108a936040519462461bcd60e51b86526004860152840152820152fd5b7f766b486173682073686f756c64206265206c6172676572207468616e20300000606492601e8a936040519462461bcd60e51b86526004860152840152820152fd5b61124192509081611229611053836110539561181a565b8952611238611053838361182d565b8b8a0152611840565b604086015261109e565b60405162461bcd60e51b8152600481018a9052600f818a01527f70726f6f66206e6f742076616c6964000000000000000000000000000000000081850152606490fd5b6112a591508a3d8c11610da857610d9a81836115d1565b8a611029565b60405162461bcd60e51b8152602060048201526016818901527f636861696e207665726966696572206e6f74207365740000000000000000000081840152606490fd5b821660005260016020526001600160a01b036001604060002001541692610fc6565b346101315760403660031901126101315767ffffffffffffffff60043581811161013157611342903690600401611522565b916024359081116101315761135b903690600401611522565b6113746001600160a01b0360009593955416331461156a565b61137f818314611870565b60005b8281106113da57507f011d93b74200525baf6adf5cba27a9d8f45c6aec5f9862889711c9f1630879ac936113d5916113c76040519586956040875260408701916118e0565b9184830360208601526118e0565b0390a1005b806113e96114099284886118bc565b356113f58286886118bc565b35600052600360205260406000205561171c565b611382565b346101315760203660031901126101315760043560005260036020526020604060002054604051908152f35b34610131576020366003190112610131576004356001600160a01b03808216809203610131577ff98c05ab8c0aff645cf82c365a53f4ee82f61b1d94c4a71e867e0571b2ca92049161149360209260005416331461156a565b806001600160a01b03196005541617600555604051908152a1005b34610131576020366003190112610131576004356001600160a01b03808216809203610131577f674c535cde998bcb47d0688f644df545597c7d6edb95643cb21c82c2d490ff7f9161150760209260005416331461156a565b806001600160a01b03196004541617600455604051908152a1005b9181601f840112156101315782359167ffffffffffffffff8311610131576020808501948460051b01011161013157565b6004359067ffffffffffffffff8216820361013157565b1561157157565b606460405162461bcd60e51b815260206004820152602060248201527f4f776e61626c653a2063616c6c6572206973206e6f7420746865206f776e65726044820152fd5b60c0810190811067ffffffffffffffff821117610afa57604052565b90601f8019910116810190811067ffffffffffffffff821117610afa57604052565b90816020910312610131575180151581036101315790565b1561161257565b60405162461bcd60e51b815260206004820152601260248201527f736d7420726f6f74206e6f742076616c696400000000000000000000000000006044820152606490fd5b903590601e1981360301821215610131570180359067ffffffffffffffff8211610131576020019181600a1b3603831361013157565b903590601e1981360301821215610131570180359067ffffffffffffffff8211610131576020019160a082023603831361013157565b919082018092116116d057565b634e487b7160e01b600052601160045260246000fd5b903590601e1981360301821215610131570180359067ffffffffffffffff821161013157602001918160051b3603831361013157565b60001981146116d05760010190565b919081101561173b57600a1b0190565b634e487b7160e01b600052603260045260246000fd5b90600581101561173b5760c0020190565b3567ffffffffffffffff811681036101315790565b356001600160a01b03811681036101315790565b9081519160005b8381106117a3575050016000815290565b8060208092840101518185015201611792565b919081101561173b5760a0020190565b919081101561173b5760051b81013590609e1981360301821215610131570190565b604051906117f5826115b5565b8160a06000918281528260208201528260408201528260608201528260808201520152565b9061018011610131576101600190602090565b906101a011610131576101800190602090565b906101c011610131576101a00190602090565b359060208110611861575090565b6000199060200360031b1b1690565b1561187757565b60405162461bcd60e51b815260206004820152601060248201527f6c656e677468206e6f74206d61746368000000000000000000000000000000006044820152606490fd5b919081101561173b5760051b0190565b35906001600160a01b038216820361013157565b90918281527f07ffffffffffffffffffffffffffffffffffffffffffffffffffffffffffffff83116101315760209260051b80928483013701019056fea264697066735822122058b4bb671d3b7e91241d3186a6e074550e517ee1095e1438cd8c8998f942d25464736f6c63430008140033",
  "devdoc": {
    "kind": "dev",
    "methods": {
      "owner()": {
        "details": "Returns the address of the current owner."
      },
      "renounceOwnership()": {
        "details": "Leaves the contract without owner. It will not be possible to call `onlyOwner` functions anymore. Can only be called by the current owner. NOTE: Renouncing ownership will leave the contract without an owner, thereby removing any functionality that is only available to the owner."
      },
      "transferOwnership(address)": {
        "details": "Transfers ownership of the contract to a new account (`newOwner`). Can only be called by the current owner."
      }
    },
    "version": 1
  },
  "userdoc": {
    "kind": "user",
    "methods": {},
    "version": 1
  },
  "storageLayout": {
    "storage": [
      {
        "astId": 7,
        "contract": "contracts/sdk/core/BrevisProof.sol:BrevisProof",
        "label": "_owner",
        "offset": 0,
        "slot": "0",
        "type": "t_address"
      },
      {
        "astId": 2489,
        "contract": "contracts/sdk/core/BrevisProof.sol:BrevisProof",
        "label": "verifierAddresses",
        "offset": 0,
        "slot": "1",
        "type": "t_mapping(t_uint64,t_struct(ChainZKVerifier)2484_storage)"
      },
      {
        "astId": 2494,
        "contract": "contracts/sdk/core/BrevisProof.sol:BrevisProof",
        "label": "proofs",
        "offset": 0,
        "slot": "2",
        "type": "t_mapping(t_bytes32,t_struct(ProofData)4636_storage)"
      },
      {
        "astId": 2498,
        "contract": "contracts/sdk/core/BrevisProof.sol:BrevisProof",
        "label": "vkHashesToBatchSize",
        "offset": 0,
        "slot": "3",
        "type": "t_mapping(t_bytes32,t_uint256)"
      },
      {
        "astId": 2501,
        "contract": "contracts/sdk/core/BrevisProof.sol:BrevisProof",
        "label": "smtContract",
        "offset": 0,
        "slot": "4",
        "type": "t_contract(ISMT)758"
      },
      {
        "astId": 3337,
        "contract": "contracts/sdk/core/BrevisProof.sol:BrevisProof",
        "label": "brevisRequest",
        "offset": 0,
        "slot": "5",
        "type": "t_address"
      }
    ],
    "types": {
      "t_address": {
        "encoding": "inplace",
        "label": "address",
        "numberOfBytes": "20"
      },
      "t_bytes32": {
        "encoding": "inplace",
        "label": "bytes32",
        "numberOfBytes": "32"
      },
      "t_contract(ISMT)758": {
        "encoding": "inplace",
        "label": "contract ISMT",
        "numberOfBytes": "20"
      },
      "t_contract(IZkpVerifier)5037": {
        "encoding": "inplace",
        "label": "contract IZkpVerifier",
        "numberOfBytes": "20"
      },
      "t_mapping(t_bytes32,t_struct(ProofData)4636_storage)": {
        "encoding": "mapping",
        "key": "t_bytes32",
        "label": "mapping(bytes32 => struct Brevis.ProofData)",
        "numberOfBytes": "32",
        "value": "t_struct(ProofData)4636_storage"
      },
      "t_mapping(t_bytes32,t_uint256)": {
        "encoding": "mapping",
        "key": "t_bytes32",
        "label": "mapping(bytes32 => uint256)",
        "numberOfBytes": "32",
        "value": "t_uint256"
      },
      "t_mapping(t_uint64,t_struct(ChainZKVerifier)2484_storage)": {
        "encoding": "mapping",
        "key": "t_uint64",
        "label": "mapping(uint64 => struct BrevisProof.ChainZKVerifier)",
        "numberOfBytes": "32",
        "value": "t_struct(ChainZKVerifier)2484_storage"
      },
      "t_struct(ChainZKVerifier)2484_storage": {
        "encoding": "inplace",
        "label": "struct BrevisProof.ChainZKVerifier",
        "members": [
          {
            "astId": 2480,
            "contract": "contracts/sdk/core/BrevisProof.sol:BrevisProof",
            "label": "contractAppZkVerifier",
            "offset": 0,
            "slot": "0",
            "type": "t_contract(IZkpVerifier)5037"
          },
          {
            "astId": 2483,
            "contract": "contracts/sdk/core/BrevisProof.sol:BrevisProof",
            "label": "circuitAppZkVerifier",
            "offset": 0,
            "slot": "1",
            "type": "t_contract(IZkpVerifier)5037"
          }
        ],
        "numberOfBytes": "64"
      },
      "t_struct(ProofData)4636_storage": {
        "encoding": "inplace",
        "label": "struct Brevis.ProofData",
        "members": [
          {
            "astId": 4625,
            "contract": "contracts/sdk/core/BrevisProof.sol:BrevisProof",
            "label": "commitHash",
            "offset": 0,
            "slot": "0",
            "type": "t_bytes32"
          },
          {
            "astId": 4627,
            "contract": "contracts/sdk/core/BrevisProof.sol:BrevisProof",
            "label": "length",
            "offset": 0,
            "slot": "1",
            "type": "t_uint256"
          },
          {
            "astId": 4629,
            "contract": "contracts/sdk/core/BrevisProof.sol:BrevisProof",
            "label": "vkHash",
            "offset": 0,
            "slot": "2",
            "type": "t_bytes32"
          },
          {
            "astId": 4631,
            "contract": "contracts/sdk/core/BrevisProof.sol:BrevisProof",
            "label": "appCommitHash",
            "offset": 0,
            "slot": "3",
            "type": "t_bytes32"
          },
          {
            "astId": 4633,
            "contract": "contracts/sdk/core/BrevisProof.sol:BrevisProof",
            "label": "appVkHash",
            "offset": 0,
            "slot": "4",
            "type": "t_bytes32"
          },
          {
            "astId": 4635,
            "contract": "contracts/sdk/core/BrevisProof.sol:BrevisProof",
            "label": "smtRoot",
            "offset": 0,
            "slot": "5",
            "type": "t_bytes32"
          }
        ],
        "numberOfBytes": "192"
      },
      "t_uint256": {
        "encoding": "inplace",
        "label": "uint256",
        "numberOfBytes": "32"
      },
      "t_uint64": {
        "encoding": "inplace",
        "label": "uint64",
        "numberOfBytes": "8"
      }
    }
  }
}