{
  "address": "0xA8e9020f9a1908b520d1577A7d1292fA9D44a9BA",
  "abi": [
    {
      "inputs": [
        {
          "internalType": "contract Staking",
          "name": "_staking",
          "type": "address"
        },
        {
          "internalType": "address",
          "name": "_stakingTokenAddress",
          "type": "address"
        },
        {
          "internalType": "address",
          "name": "_collector",
          "type": "address"
        }
      ],
      "stateMutability": "nonpayable",
      "type": "constructor"
    },
    {
      "anonymous": false,
      "inputs": [
        {
          "indexed": false,
          "internalType": "uint256",
          "name": "proposalId",
          "type": "uint256"
        },
        {
          "indexed": false,
          "internalType": "bool",
          "name": "passed",
          "type": "bool"
        },
        {
          "indexed": false,
          "internalType": "enum DataTypes.ParamName",
          "name": "name",
          "type": "uint8"
        },
        {
          "indexed": false,
          "internalType": "uint256",
          "name": "newValue",
          "type": "uint256"
        }
      ],
      "name": "ConfirmParamProposal",
      "type": "event"
    },
    {
      "anonymous": false,
      "inputs": [
        {
          "indexed": false,
          "internalType": "uint256",
          "name": "proposalId",
          "type": "uint256"
        },
        {
          "indexed": false,
          "internalType": "address",
          "name": "proposer",
          "type": "address"
        },
        {
          "indexed": false,
          "internalType": "uint256",
          "name": "deposit",
          "type": "uint256"
        },
        {
          "indexed": false,
          "internalType": "uint256",
          "name": "voteDeadline",
          "type": "uint256"
        },
        {
          "indexed": false,
          "internalType": "enum DataTypes.ParamName",
          "name": "name",
          "type": "uint8"
        },
        {
          "indexed": false,
          "internalType": "uint256",
          "name": "newValue",
          "type": "uint256"
        }
      ],
      "name": "CreateParamProposal",
      "type": "event"
    },
    {
      "anonymous": false,
      "inputs": [
        {
          "indexed": false,
          "internalType": "uint256",
          "name": "proposalId",
          "type": "uint256"
        },
        {
          "indexed": false,
          "internalType": "address",
          "name": "voter",
          "type": "address"
        },
        {
          "indexed": false,
          "internalType": "enum Govern.VoteOption",
          "name": "vote",
          "type": "uint8"
        }
      ],
      "name": "VoteParam",
      "type": "event"
    },
    {
      "inputs": [],
      "name": "collectForfeiture",
      "outputs": [],
      "stateMutability": "nonpayable",
      "type": "function"
    },
    {
      "inputs": [],
      "name": "collector",
      "outputs": [
        {
          "internalType": "address",
          "name": "",
          "type": "address"
        }
      ],
      "stateMutability": "view",
      "type": "function"
    },
    {
      "inputs": [
        {
          "internalType": "uint256",
          "name": "_proposalId",
          "type": "uint256"
        }
      ],
      "name": "confirmParamProposal",
      "outputs": [],
      "stateMutability": "nonpayable",
      "type": "function"
    },
    {
      "inputs": [
        {
          "internalType": "enum DataTypes.ParamName",
          "name": "_name",
          "type": "uint8"
        },
        {
          "internalType": "uint256",
          "name": "_value",
          "type": "uint256"
        }
      ],
      "name": "createParamProposal",
      "outputs": [],
      "stateMutability": "nonpayable",
      "type": "function"
    },
    {
      "inputs": [],
      "name": "forfeiture",
      "outputs": [
        {
          "internalType": "uint256",
          "name": "",
          "type": "uint256"
        }
      ],
      "stateMutability": "view",
      "type": "function"
    },
    {
      "inputs": [
        {
          "internalType": "uint256",
          "name": "_proposalId",
          "type": "uint256"
        },
        {
          "internalType": "address",
          "name": "_voter",
          "type": "address"
        }
      ],
      "name": "getParamProposalVote",
      "outputs": [
        {
          "internalType": "enum Govern.VoteOption",
          "name": "",
          "type": "uint8"
        }
      ],
      "stateMutability": "view",
      "type": "function"
    },
    {
      "inputs": [],
      "name": "nextParamProposalId",
      "outputs": [
        {
          "internalType": "uint256",
          "name": "",
          "type": "uint256"
        }
      ],
      "stateMutability": "view",
      "type": "function"
    },
    {
      "inputs": [
        {
          "internalType": "uint256",
          "name": "",
          "type": "uint256"
        }
      ],
      "name": "paramProposals",
      "outputs": [
        {
          "internalType": "address",
          "name": "proposer",
          "type": "address"
        },
        {
          "internalType": "uint256",
          "name": "deposit",
          "type": "uint256"
        },
        {
          "internalType": "uint256",
          "name": "voteDeadline",
          "type": "uint256"
        },
        {
          "internalType": "enum DataTypes.ParamName",
          "name": "name",
          "type": "uint8"
        },
        {
          "internalType": "uint256",
          "name": "newValue",
          "type": "uint256"
        },
        {
          "internalType": "enum Govern.ProposalStatus",
          "name": "status",
          "type": "uint8"
        }
      ],
      "stateMutability": "view",
      "type": "function"
    },
    {
      "inputs": [],
      "name": "staking",
      "outputs": [
        {
          "internalType": "contract Staking",
          "name": "",
          "type": "address"
        }
      ],
      "stateMutability": "view",
      "type": "function"
    },
    {
      "inputs": [],
      "name": "stakingToken",
      "outputs": [
        {
          "internalType": "contract IERC20",
          "name": "",
          "type": "address"
        }
      ],
      "stateMutability": "view",
      "type": "function"
    },
    {
      "inputs": [
        {
          "internalType": "uint256",
          "name": "_proposalId",
          "type": "uint256"
        },
        {
          "internalType": "enum Govern.VoteOption",
          "name": "_vote",
          "type": "uint8"
        }
      ],
      "name": "voteParam",
      "outputs": [],
      "stateMutability": "nonpayable",
      "type": "function"
    }
  ],
  "transactionHash": "0x691cec652bfd1756e8c31609515d440b9ecfdc7d962ea02b083ced6f8a25ab02",
  "args": [
    "0xDc44EdEde02bC11D31e1BcBC04b17C02F11ac4d7",
    "0xa55C7E1274bE5db2275a0BDd055f81e8263b7954",
    "0x49BB7eA1Aa8f2F667aA317a1e6fDD8A44B988925"
  ],
  "numDeployments": 1,
  "solcInputHash": "6e1375724855e42d36d93bf6f2c45f96",
  "bytecode": "0x60e0346100d157601f6112d738819003918201601f19168301916001600160401b038311848410176100d6578084926060946040528339810103126100d1578051906001600160a01b039081831683036100d15761006b6040610064602084016100ec565b92016100ec565b926080521660a05260c0526040516111d690816101018239608051818181610140015281816102d2015281816105a401526108a9015260a0518181816103ad015281816104ad0152818161077d01526109af015260c05181818161048c015261055e0152f35b600080fd5b634e487b7160e01b600052604160045260246000fd5b51906001600160a01b03821682036100d15756fe6080604052600436101561001257600080fd5b60003560e01c806322da7927146100c757806325ed6b35146100c25780634cf088d9146100bd578063581c53c5146100b857806372f702f3146100b35780637e5fb8f3146100ae57806382d7b4b8146100a95780638338f0e5146100a4578063913e77ad1461009f578063934a18ec1461009a5763e478ed9d1461009557600080fd5b610842565b610582565b61053e565b610520565b61046b565b6103e8565b61038d565b61032c565b6102b2565b610104565b6100dc565b60009103126100d757565b600080fd5b346100d75760003660031901126100d7576020600154604051908152f35b600411156100d757565b346100d75760403660031901126100d757600435602435610124816100fa565b60405163a310624f60e01b8152336004820152916020836024817f00000000000000000000000000000000000000000000000000000000000000006001600160a01b03165afa80156102ad5760036101b0917f06c7ef6e19454637e93ee60cc680c61fb2ebabb57e58cf36d94141a5036b3d659560009161027f575b506101aa8161031d565b14610e18565b6102698261026460066101cd856000526000602052604060002090565b6101ef60016101e0600584015460ff1690565b6101e9816103de565b14610e64565b6101fe60028201544310610eb0565b016102386102296102223384906001600160a01b0316600052602052604060002090565b5460ff1690565b6102328161031d565b15610efc565b6102418361031d565b61024c831515610f48565b336001600160a01b0316600052602052604060002090565b610f94565b61027a604051928392339084610fac565b0390a1005b6102a0915060203d81116102a6575b6102988183610af1565b810190610e00565b386101a0565b503d61028e565b610b22565b346100d75760003660031901126100d75760206040516001600160a01b037f0000000000000000000000000000000000000000000000000000000000000000168152f35b6001600160a01b038116036100d757565b634e487b7160e01b600052602160045260246000fd5b6004111561032757565b610307565b346100d75760403660031901126100d757602060ff61037a602435610350816102f6565b600435600052600084526006604060002001906001600160a01b0316600052602052604060002090565b5416604051906103898161031d565b8152f35b346100d75760003660031901126100d75760206040516001600160a01b037f0000000000000000000000000000000000000000000000000000000000000000168152f35b9060098210156103275752565b6003111561032757565b346100d75760203660031901126100d757600435600052600060205260406000206001600160a01b03815416600182015491610453600282015460ff6003840154169060ff6005600486015495015416956040519586526020860152604085015260608401906103d1565b608082015260038210156103275760c09160a0820152f35b346100d75760008060031936011261051d5760025480156104d8576104d1907f00000000000000000000000000000000000000000000000000000000000000007f0000000000000000000000000000000000000000000000000000000000000000611153565b8060025580f35b60405162461bcd60e51b815260206004820152601260248201527f4e6f7468696e6720746f20636f6c6c65637400000000000000000000000000006044820152606490fd5b80fd5b346100d75760003660031901126100d7576020600254604051908152f35b346100d75760003660031901126100d75760206040516001600160a01b037f0000000000000000000000000000000000000000000000000000000000000000168152f35b346100d7576020806003193601126100d7576004356000806001600160a01b037f0000000000000000000000000000000000000000000000000000000000000000169060405190634021d4d560e01b82528082600481865afa9182156102ad57819261081e575b5080935b825163ffffffff861690811015610683578060016106266106206106128c958961108f565b51516001600160a01b031690565b8a610a3c565b61062f8161031d565b1461065c575b9161065091610647610656948761108f565b51015190610a99565b9461107a565b936105ed565b9291816106476106776106569561065095610647898b61108f565b95929450509150610635565b8487846106a161069c610695876110b9565b6003900490565b610a86565b1115906106b8816000526000602052604060002090565b6106ec600582016106cf60016101e0835460ff1690565b6106df60028401544310156110cf565b805460ff19166002179055565b82156107da57600381015460ff166004820154853b156100d75761072a956000928360405180998195829463e909156d60e01b84526004840161111b565b03925af19081156102ad577fd0d659ab2c0f954d2f29cf2e13d8ff2e15e147f3424eb205a079c4caa6bfe1a99461027a926107c1575b506107a161077582546001600160a01b031690565b6001830154907f0000000000000000000000000000000000000000000000000000000000000000611153565b60046107b1600383015460ff1690565b9101549060405194859485611130565b806107ce6107d492610abc565b806100cc565b85610760565b7fd0d659ab2c0f954d2f29cf2e13d8ff2e15e147f3424eb205a079c4caa6bfe1a9935080610819610814600161027a940154600254610a99565b600255565b6107a1565b61083b9192503d8084833e6108338183610af1565b810190610fd0565b90386105e9565b346100d75760403660031901126100d75760043560098110156100d75760243560015461088a61088561087f836000526000602052604060002090565b92610a86565b600155565b604051631042b80b60e21b808252600060048301526001600160a01b037f000000000000000000000000000000000000000000000000000000000000000016949193602092909183866024818a5afa9586156102ad57600096610a1b575b5084547fffffffffffffffffffffffff0000000000000000000000000000000000000000163317855583908660018701556040519788918252818061093560048201906001602083019252565b03915afa80156102ad57600561097e6109a7927f4a4d354dbdc4d7b757c1f44b6e074bb6e1afe33f4b9867ce48cfb7004d76f1609961027a976000926109ee575b505043610a99565b95600281019687556109938460038301610b2e565b84600482015501600160ff19825416179055565b6109d38530337f0000000000000000000000000000000000000000000000000000000000000000610b90565b6109de600154610b46565b9354604051958695339087610b55565b610a0d9250803d10610a14575b610a058183610af1565b810190610b13565b3880610976565b503d6109fb565b84919650610a3590823d8411610a1457610a058183610af1565b95906108e8565b60ff91610a6b9160005260006020526006604060002001906001600160a01b0316600052602052604060002090565b541690565b634e487b7160e01b600052601160045260246000fd5b9060018201809211610a9457565b610a70565b91908201809211610a9457565b634e487b7160e01b600052604160045260246000fd5b67ffffffffffffffff8111610ad057604052565b610aa6565b6040810190811067ffffffffffffffff821117610ad057604052565b90601f8019910116810190811067ffffffffffffffff821117610ad057604052565b908160209103126100d7575190565b6040513d6000823e3d90fd5b9060098110156103275760ff80198354169116179055565b600019810191908211610a9457565b929360a0946001600160a01b03610b8c94999897939960c087019a87521660208601526040850152606084015260808301906103d1565b0152565b9290604051926323b872dd60e01b60208501526001600160a01b03809216602485015216604483015260648201526064815260a081019181831067ffffffffffffffff841117610ad057610be692604052610c72565b565b908160209103126100d7575180151581036100d75790565b15610c0757565b60405162461bcd60e51b815260206004820152602a60248201527f5361666545524332303a204552433230206f7065726174696f6e20646964206e60448201527f6f742073756363656564000000000000000000000000000000000000000000006064820152608490fd5b6001600160a01b03169060405190610c8982610ad5565b6020928383527f5361666545524332303a206c6f772d6c6576656c2063616c6c206661696c656484840152803b15610d005760008281928287610cdb9796519301915af1610cd5610d45565b90610d85565b80519081610ce857505050565b82610be693610cfb938301019101610be8565b610c00565b60405162461bcd60e51b815260048101859052601d60248201527f416464726573733a2063616c6c20746f206e6f6e2d636f6e74726163740000006044820152606490fd5b3d15610d80573d9067ffffffffffffffff8211610ad05760405191610d74601f8201601f191660200184610af1565b82523d6000602084013e565b606090565b90919015610d91575090565b815115610da15750805190602001fd5b6040519062461bcd60e51b82528160208060048301528251908160248401526000935b828510610de7575050604492506000838284010152601f80199101168101030190fd5b8481018201518686016044015293810193859350610dc4565b908160209103126100d75751610e15816100fa565b90565b15610e1f57565b60405162461bcd60e51b815260206004820152601f60248201527f566f746572206973206e6f74206120626f6e6465642076616c696461746f72006044820152606490fd5b15610e6b57565b60405162461bcd60e51b815260206004820152601760248201527f496e76616c69642070726f706f73616c207374617475730000000000000000006044820152606490fd5b15610eb757565b60405162461bcd60e51b815260206004820152601460248201527f566f746520646561646c696e65207061737365640000000000000000000000006044820152606490fd5b15610f0357565b60405162461bcd60e51b815260206004820152600f60248201527f566f7465722068617320766f74656400000000000000000000000000000000006044820152606490fd5b15610f4f57565b60405162461bcd60e51b815260206004820152600c60248201527f496e76616c696420766f746500000000000000000000000000000000000000006044820152606490fd5b90610f9e8161031d565b60ff80198354169116179055565b6001600160a01b0360409295949360608301968352166020820152610b8c8361031d565b602080828403126100d757815167ffffffffffffffff928382116100d757019083601f830112156100d7578151928311610ad057604092835194611019838360051b0187610af1565b818652828087019260061b850101938185116100d7578301915b8483106110435750505050505090565b85838303126100d757838691825161105a81610ad5565b8551611065816102f6565b81528286015183820152815201920191611033565b63ffffffff809116908114610a945760010190565b80518210156110a35760209160051b010190565b634e487b7160e01b600052603260045260246000fd5b908160011b9180830460021490151715610a9457565b156110d657565b60405162461bcd60e51b815260206004820152601960248201527f566f746520646561646c696e65206e6f742072656163686564000000000000006044820152606490fd5b60209093929193610b8c8160408101966103d1565b90949392610b8c90606093608084019784521515602084015260408301906103d1565b916001600160a01b036040519263a9059cbb60e01b6020850152166024830152604482015260448152608081019181831067ffffffffffffffff841117610ad057610be692604052610c7256fea26469706673582212206c800df6d2effa9aa1d4dccddfdff651725f19f1b4e8d8cb7234af5c662a7d4064736f6c63430008140033",
  "devdoc": {
    "kind": "dev",
    "methods": {
      "confirmParamProposal(uint256)": {
        "params": {
          "_proposalId": "the id of the parameter proposal"
        }
      },
      "createParamProposal(uint8,uint256)": {
        "params": {
          "_name": "the key of this parameter",
          "_value": "the new proposed value of this parameter"
        }
      },
      "getParamProposalVote(uint256,address)": {
        "params": {
          "_proposalId": "the proposal id",
          "_voter": "the voter address"
        },
        "returns": {
          "_0": "the vote type of the given voter on the given parameter proposal"
        }
      },
      "voteParam(uint256,uint8)": {
        "params": {
          "_proposalId": "the id of the parameter proposal",
          "_vote": "the type of vote"
        }
      }
    },
    "title": "Governance module for Staking contract",
    "version": 1
  },
  "userdoc": {
    "kind": "user",
    "methods": {
      "confirmParamProposal(uint256)": {
        "notice": "Confirm a parameter proposal"
      },
      "createParamProposal(uint8,uint256)": {
        "notice": "Create a parameter proposal"
      },
      "getParamProposalVote(uint256,address)": {
        "notice": "Get the vote type of a voter on a parameter proposal"
      },
      "voteParam(uint256,uint8)": {
        "notice": "Vote for a parameter proposal with a specific type of vote"
      }
    },
    "version": 1
  },
  "storageLayout": {
    "storage": [
      {
        "astId": 16885,
        "contract": "contracts/bvn-staking/Govern.sol:Govern",
        "label": "paramProposals",
        "offset": 0,
        "slot": "0",
        "type": "t_mapping(t_uint256,t_struct(ParamProposal)16880_storage)"
      },
      {
        "astId": 16887,
        "contract": "contracts/bvn-staking/Govern.sol:Govern",
        "label": "nextParamProposalId",
        "offset": 0,
        "slot": "1",
        "type": "t_uint256"
      },
      {
        "astId": 16889,
        "contract": "contracts/bvn-staking/Govern.sol:Govern",
        "label": "forfeiture",
        "offset": 0,
        "slot": "2",
        "type": "t_uint256"
      }
    ],
    "types": {
      "t_address": {
        "encoding": "inplace",
        "label": "address",
        "numberOfBytes": "20"
      },
      "t_enum(ParamName)16748": {
        "encoding": "inplace",
        "label": "enum DataTypes.ParamName",
        "numberOfBytes": "1"
      },
      "t_enum(ProposalStatus)16855": {
        "encoding": "inplace",
        "label": "enum Govern.ProposalStatus",
        "numberOfBytes": "1"
      },
      "t_enum(VoteOption)16860": {
        "encoding": "inplace",
        "label": "enum Govern.VoteOption",
        "numberOfBytes": "1"
      },
      "t_mapping(t_address,t_enum(VoteOption)16860)": {
        "encoding": "mapping",
        "key": "t_address",
        "label": "mapping(address => enum Govern.VoteOption)",
        "numberOfBytes": "32",
        "value": "t_enum(VoteOption)16860"
      },
      "t_mapping(t_uint256,t_struct(ParamProposal)16880_storage)": {
        "encoding": "mapping",
        "key": "t_uint256",
        "label": "mapping(uint256 => struct Govern.ParamProposal)",
        "numberOfBytes": "32",
        "value": "t_struct(ParamProposal)16880_storage"
      },
      "t_struct(ParamProposal)16880_storage": {
        "encoding": "inplace",
        "label": "struct Govern.ParamProposal",
        "members": [
          {
            "astId": 16862,
            "contract": "contracts/bvn-staking/Govern.sol:Govern",
            "label": "proposer",
            "offset": 0,
            "slot": "0",
            "type": "t_address"
          },
          {
            "astId": 16864,
            "contract": "contracts/bvn-staking/Govern.sol:Govern",
            "label": "deposit",
            "offset": 0,
            "slot": "1",
            "type": "t_uint256"
          },
          {
            "astId": 16866,
            "contract": "contracts/bvn-staking/Govern.sol:Govern",
            "label": "voteDeadline",
            "offset": 0,
            "slot": "2",
            "type": "t_uint256"
          },
          {
            "astId": 16869,
            "contract": "contracts/bvn-staking/Govern.sol:Govern",
            "label": "name",
            "offset": 0,
            "slot": "3",
            "type": "t_enum(ParamName)16748"
          },
          {
            "astId": 16871,
            "contract": "contracts/bvn-staking/Govern.sol:Govern",
            "label": "newValue",
            "offset": 0,
            "slot": "4",
            "type": "t_uint256"
          },
          {
            "astId": 16874,
            "contract": "contracts/bvn-staking/Govern.sol:Govern",
            "label": "status",
            "offset": 0,
            "slot": "5",
            "type": "t_enum(ProposalStatus)16855"
          },
          {
            "astId": 16879,
            "contract": "contracts/bvn-staking/Govern.sol:Govern",
            "label": "votes",
            "offset": 0,
            "slot": "6",
            "type": "t_mapping(t_address,t_enum(VoteOption)16860)"
          }
        ],
        "numberOfBytes": "224"
      },
      "t_uint256": {
        "encoding": "inplace",
        "label": "uint256",
        "numberOfBytes": "32"
      }
    }
  }
}