{
  "address": "0xF752D6f597c116EB844E67cAB1FCf3320fB266FE",
  "abi": [
    {
      "inputs": [
        {
          "internalType": "contract IBrevisProof",
          "name": "_brevisProof",
          "type": "address"
        }
      ],
      "stateMutability": "nonpayable",
      "type": "constructor"
    },
    {
      "inputs": [
        {
          "internalType": "uint64",
          "name": "_chainId",
          "type": "uint64"
        },
        {
          "components": [
            {
              "internalType": "bytes32",
              "name": "commitHash",
              "type": "bytes32"
            },
            {
              "internalType": "bytes32",
              "name": "vkHash",
              "type": "bytes32"
            },
            {
              "internalType": "bytes32",
              "name": "appCommitHash",
              "type": "bytes32"
            },
            {
              "internalType": "bytes32",
              "name": "appVkHash",
              "type": "bytes32"
            },
            {
              "internalType": "bytes32",
              "name": "smtRoot",
              "type": "bytes32"
            }
          ],
          "internalType": "struct Brevis.ProofData[]",
          "name": "_proofDataArray",
          "type": "tuple[]"
        },
        {
          "internalType": "bytes[]",
          "name": "_appCircuitOutputs",
          "type": "bytes[]"
        }
      ],
      "name": "brevisBatchCallback",
      "outputs": [],
      "stateMutability": "nonpayable",
      "type": "function"
    },
    {
      "inputs": [
        {
          "internalType": "bytes32",
          "name": "_requestId",
          "type": "bytes32"
        },
        {
          "internalType": "bytes",
          "name": "_appCircuitOutput",
          "type": "bytes"
        }
      ],
      "name": "brevisCallback",
      "outputs": [],
      "stateMutability": "nonpayable",
      "type": "function"
    },
    {
      "inputs": [],
      "name": "brevisProof",
      "outputs": [
        {
          "internalType": "contract IBrevisProof",
          "name": "",
          "type": "address"
        }
      ],
      "stateMutability": "view",
      "type": "function"
    },
    {
      "inputs": [
        {
          "internalType": "uint64",
          "name": "_chainId",
          "type": "uint64"
        },
        {
          "components": [
            {
              "internalType": "bytes32",
              "name": "commitHash",
              "type": "bytes32"
            },
            {
              "internalType": "bytes32",
              "name": "vkHash",
              "type": "bytes32"
            },
            {
              "internalType": "bytes32",
              "name": "appCommitHash",
              "type": "bytes32"
            },
            {
              "internalType": "bytes32",
              "name": "appVkHash",
              "type": "bytes32"
            },
            {
              "internalType": "bytes32",
              "name": "smtRoot",
              "type": "bytes32"
            }
          ],
          "internalType": "struct Brevis.ProofData",
          "name": "_proofData",
          "type": "tuple"
        },
        {
          "internalType": "bytes32",
          "name": "_merkleRoot",
          "type": "bytes32"
        },
        {
          "internalType": "bytes32[]",
          "name": "_merkleProof",
          "type": "bytes32[]"
        },
        {
          "internalType": "uint8",
          "name": "_nodeIndex",
          "type": "uint8"
        },
        {
          "internalType": "bytes",
          "name": "_appCircuitOutput",
          "type": "bytes"
        }
      ],
      "name": "singleRun",
      "outputs": [],
      "stateMutability": "nonpayable",
      "type": "function"
    },
    {
      "inputs": [
        {
          "internalType": "bytes32",
          "name": "_requestId",
          "type": "bytes32"
        },
        {
          "internalType": "uint64",
          "name": "_chainId",
          "type": "uint64"
        },
        {
          "components": [
            {
              "internalType": "bytes32",
              "name": "smtRoot",
              "type": "bytes32"
            },
            {
              "components": [
                {
                  "internalType": "uint64",
                  "name": "blkNum",
                  "type": "uint64"
                },
                {
                  "internalType": "uint64",
                  "name": "receiptIndex",
                  "type": "uint64"
                },
                {
                  "components": [
                    {
                      "components": [
                        {
                          "internalType": "uint8",
                          "name": "valueFromTopic",
                          "type": "uint8"
                        },
                        {
                          "internalType": "uint64",
                          "name": "valueIndex",
                          "type": "uint64"
                        },
                        {
                          "internalType": "address",
                          "name": "contractAddress",
                          "type": "address"
                        },
                        {
                          "internalType": "bytes32",
                          "name": "logTopic0",
                          "type": "bytes32"
                        }
                      ],
                      "internalType": "struct Brevis.LogExtraInfo",
                      "name": "logExtraInfo",
                      "type": "tuple"
                    },
                    {
                      "internalType": "uint64",
                      "name": "logIndex",
                      "type": "uint64"
                    },
                    {
                      "internalType": "bytes32",
                      "name": "value",
                      "type": "bytes32"
                    }
                  ],
                  "internalType": "struct Brevis.LogInfo[5]",
                  "name": "logs",
                  "type": "tuple[5]"
                }
              ],
              "internalType": "struct Brevis.ReceiptInfo[]",
              "name": "receipts",
              "type": "tuple[]"
            },
            {
              "components": [
                {
                  "internalType": "bytes32",
                  "name": "blockHash",
                  "type": "bytes32"
                },
                {
                  "internalType": "address",
                  "name": "account",
                  "type": "address"
                },
                {
                  "internalType": "bytes32",
                  "name": "slot",
                  "type": "bytes32"
                },
                {
                  "internalType": "bytes32",
                  "name": "slotValue",
                  "type": "bytes32"
                },
                {
                  "internalType": "uint64",
                  "name": "blockNumber",
                  "type": "uint64"
                }
              ],
              "internalType": "struct Brevis.StorageInfo[]",
              "name": "stores",
              "type": "tuple[]"
            },
            {
              "components": [
                {
                  "internalType": "bytes32",
                  "name": "leafHash",
                  "type": "bytes32"
                },
                {
                  "internalType": "bytes32",
                  "name": "blockHash",
                  "type": "bytes32"
                },
                {
                  "internalType": "uint64",
                  "name": "blockNumber",
                  "type": "uint64"
                },
                {
                  "internalType": "uint64",
                  "name": "blockTime",
                  "type": "uint64"
                },
                {
                  "internalType": "bytes",
                  "name": "leafRlpPrefix",
                  "type": "bytes"
                }
              ],
              "internalType": "struct Brevis.TransactionInfo[]",
              "name": "txs",
              "type": "tuple[]"
            }
          ],
          "internalType": "struct Brevis.ExtractInfos",
          "name": "_extractInfos",
          "type": "tuple"
        }
      ],
      "name": "validateRequest",
      "outputs": [
        {
          "internalType": "bool",
          "name": "",
          "type": "bool"
        }
      ],
      "stateMutability": "view",
      "type": "function"
    }
  ],
  "transactionHash": "0xd66d30d2bb3c08b2346a8bd6cbed108c2e7f0a0d6434266935d5dda195f850c4",
  "args": [
    "0x728b3C4C8b88AD54B8118D4c6a65fAC35e4CAb6B"
  ],
  "numDeployments": 1,
  "solcInputHash": "041c8e5e3d5fef2d2919b108a237e875",
  "bytecode": "0x60a03461008c57601f610f7e38819003918201601f19168301916001600160401b038311848410176100915780849260209460405283398101031261008c57516001600160a01b038116810361008c57608052604051610ed690816100a8823960805181818160e0015281816102bc015281816104a80152818161059d01528181610a530152610b5c0152f35b600080fd5b634e487b7160e01b600052604160045260246000fdfe608080604052600436101561001357600080fd5b600090813560e01c9081635d1c29eb14610ad75750806379d6b6a2146109fb5780637c08aa74146102e0578063c7f5aaa01461029c5763ed1fe83b1461005857600080fd5b346102995760608060031936011261029557610072610c4f565b60249182359067ffffffffffffffff8083116101f557366023840112156101f557826004013590808211610291578584019460a09487369187860201011161028d57604435828111610289576100cc903690600401610c7b565b959094868503610245576001600160a01b037f00000000000000000000000000000000000000000000000000000000000000001692833b15610241576040805163cf7ac5a960e01b815295909116600486015289850152604484018590528993929160648401918991865b888110610204575050505083918380809303915afa80156101f9576101e1575b505b818110610164578680f35b6101986040610174838589610e38565b013561018b610184848888610e5e565b3691610da6565b6020815191012014610ded565b6101a3818387610e38565b506101af818387610e38565b506101bb818585610e5e565b505060001981146101ce57600101610159565b634e487b7160e01b875260116004528587fd5b6101ea90610cda565b6101f5578538610157565b8580fd5b6040513d84823e3d90fd5b8335855260208085013590860152604080850135908601528383013585840152608080850135908601528d97509381019392810192600101610137565b8a80fd5b60405162461bcd60e51b8152602060048201526010818b01527f6c656e677468206e6f74206d61746368000000000000000000000000000000006044820152606490fd5b8880fd5b8780fd5b8680fd5b5080fd5b80fd5b503461029957806003193601126102995760206040516001600160a01b037f0000000000000000000000000000000000000000000000000000000000000000168152f35b503461029957600319906060368301126102995760243567ffffffffffffffff811681036109e2576044359267ffffffffffffffff84116109f7576080908436030112610295576040519261033484610d04565b80600401358452602481013567ffffffffffffffff8111610864578101366023820112156108645760048101359061036b82610d7a565b916103796040519384610d58565b808352602083019136602483600a1b830101116102915760248101925b602483600a1b83010184106108ce57505050506020850152604481013567ffffffffffffffff811161086457810136602382011215610864576004810135906103de82610d7a565b916103ec6040519384610d58565b808352602083019136602460a08402830101116102915760248101925b602460a0840283010184106108685750505050604085015260648101359067ffffffffffffffff82116108645736602383830101121561086457600482820101359061045482610d7a565b926104626040519485610d58565b82845260208401913660248560051b84840101011161029157602482820101925b60248560051b8484010101841061079957505050505060608401526001600160a01b037f0000000000000000000000000000000000000000000000000000000000000000163b156102955767ffffffffffffffff60405191631f022a9d60e21b835260043560048401521660248201526060604482015260e48101928051606483015260208101519360806084840152845180915260206101048401950190845b8181106106e3575050506040810151936063198382030160a484015260208086519283815201950190845b81811061068e5750505060600151926063198282030160c4830152835180825260208201916020808360051b83010196019285915b8383106105e95786868181808c03816001600160a01b037f0000000000000000000000000000000000000000000000000000000000000000165afa80156101f9576105d5575b602060405160018152f35b6105df8291610cda565b61029957806105ca565b9091929396601f1982820301835260808851805183526020810151602084015267ffffffffffffffff604082015116604084015267ffffffffffffffff606082015116606084015201519060a060808201528151918260a0830152885b83811061067857505080820160c0908101899052601f909201601f191601019660209081019493600101920190610584565b80602080928401015160c0828601015201610646565b909195602060a060019267ffffffffffffffff60808b51805184526001600160a01b0386820151168685015260408101516040850152606081015160608501520151166080820152019701910191909161054f565b9091956040875167ffffffffffffffff815116835267ffffffffffffffff60208201511660208401520151604082019087915b600583106107335750505061040001956020019190600101610524565b602060c0600192604085516060815160ff815116855267ffffffffffffffff8782015116878601526001600160a01b038482015116848601520151606084015267ffffffffffffffff85820151166080840152015160a082015201920192019190610716565b833567ffffffffffffffff81116102895760a083850182013603602319011261028957604051906107c982610d3c565b838501810160248101358352604481013560208401526107eb90606401610c66565b60408301526108006084828787010101610c66565b606083015260a48186860101013567ffffffffffffffff81116102415736604382848989010101011215610241576024936020938493919290916108529136918a8a0101018088013590604401610da6565b60808201528152019401939050610483565b8380fd5b60a08436031261028d579060a080602060249460405161088781610d3c565b88358152610896838a01610d92565b8382015260408901356040820152606089013560608201526108ba60808a01610c66565b608082015281520195019491925050610409565b610400808536031261028957604051906108e782610d20565b6108f086610c66565b82526108fe60208701610c66565b602083015236605f870112156109f3576040519061091b82610d3c565b819036818901116109ef5760408801915b818901831061094f57505050604082015281526104009390930192602001610396565b60c0833603126109eb5760405161096581610d20565b6080843603126109e7576040519161097c83610d04565b84359160ff831683036109e2578360209360c0955261099c848801610c66565b848201526109ac60408801610d92565b60408201526060870135606082015281526109c960808701610c66565b8382015260a0860135604082015281520192019161092c565b600080fd5b8d80fd5b8c80fd5b8b80fd5b8980fd5b8280fd5b50346102995760403660031901126102995760243567ffffffffffffffff811161029557610a2d903690600401610cac565b60405190632cc27dc960e11b825260043560048301526040826024816001600160a01b037f0000000000000000000000000000000000000000000000000000000000000000165afa918215610acc578492610a96575b50610a939261018b913691610da6565b80f35b9091506040813d604011610ac4575b81610ab260409383610d58565b81010312610864575190610a93610a83565b3d9150610aa5565b6040513d86823e3d90fd5b82346102995761014036600319011261029957610af2610c4f565b60a03660231901126102955767ffffffffffffffff60e43581811161086457610b1f903690600401610c7b565b9490926101049384359460ff86168096036102915761012495863586811161028957610b4f903690600401610cac565b9990966001600160a01b037f00000000000000000000000000000000000000000000000000000000000000001695863b1561024157632247cd8f60e01b8852166004870152602435602487015260443560448701528060643598896064890152608435608489015260a43560a489015260c43560c489015261012060e48901528701527f07ffffffffffffffffffffffffffffffffffffffffffffffffffffffffffffff8111610289579285899593819593829460051b9182610144958686013783015281010301915afa8015610acc57610c36575b5061018b90610a9393943691610da6565b90610a9393610c4761018b93610cda565b935090610c25565b6004359067ffffffffffffffff821682036109e257565b359067ffffffffffffffff821682036109e257565b9181601f840112156109e25782359167ffffffffffffffff83116109e2576020808501948460051b0101116109e257565b9181601f840112156109e25782359167ffffffffffffffff83116109e257602083818601950101116109e257565b67ffffffffffffffff8111610cee57604052565b634e487b7160e01b600052604160045260246000fd5b6080810190811067ffffffffffffffff821117610cee57604052565b6060810190811067ffffffffffffffff821117610cee57604052565b60a0810190811067ffffffffffffffff821117610cee57604052565b90601f8019910116810190811067ffffffffffffffff821117610cee57604052565b67ffffffffffffffff8111610cee5760051b60200190565b35906001600160a01b03821682036109e257565b92919267ffffffffffffffff8211610cee5760405191610dd0601f8201601f191660200184610d58565b8294818452818301116109e2578281602093846000960137010152565b15610df457565b606460405162461bcd60e51b815260206004820152602060248201527f6661696c656420746f206f70656e206f757470757420636f6d6d69746d656e746044820152fd5b9190811015610e485760a0020190565b634e487b7160e01b600052603260045260246000fd5b9190811015610e485760051b81013590601e19813603018212156109e257019081359167ffffffffffffffff83116109e25760200182360381136109e257919056fea26469706673582212204f5c7d0d3983d54d592e512d1cf82272da948346f9b8e8fdf14d9042939771bf64736f6c63430008140033",
  "devdoc": {
    "kind": "dev",
    "methods": {},
    "version": 1
  },
  "userdoc": {
    "kind": "user",
    "methods": {},
    "version": 1
  },
  "storageLayout": {
    "storage": [],
    "types": null
  }
}