{
  "address": "0x49BB7eA1Aa8f2F667aA317a1e6fDD8A44B988925",
  "abi": [
    {
      "inputs": [
        {
          "internalType": "contract Staking",
          "name": "_staking",
          "type": "address"
        }
      ],
      "stateMutability": "nonpayable",
      "type": "constructor"
    },
    {
      "anonymous": false,
      "inputs": [
        {
          "indexed": true,
          "internalType": "address",
          "name": "previousOwner",
          "type": "address"
        },
        {
          "indexed": true,
          "internalType": "address",
          "name": "newOwner",
          "type": "address"
        }
      ],
      "name": "OwnershipTransferred",
      "type": "event"
    },
    {
      "anonymous": false,
      "inputs": [
        {
          "indexed": false,
          "internalType": "address",
          "name": "account",
          "type": "address"
        }
      ],
      "name": "Paused",
      "type": "event"
    },
    {
      "anonymous": false,
      "inputs": [
        {
          "indexed": false,
          "internalType": "address",
          "name": "account",
          "type": "address"
        }
      ],
      "name": "PauserAdded",
      "type": "event"
    },
    {
      "anonymous": false,
      "inputs": [
        {
          "indexed": false,
          "internalType": "address",
          "name": "account",
          "type": "address"
        }
      ],
      "name": "PauserRemoved",
      "type": "event"
    },
    {
      "anonymous": false,
      "inputs": [
        {
          "indexed": true,
          "internalType": "address",
          "name": "recipient",
          "type": "address"
        },
        {
          "indexed": false,
          "internalType": "uint256",
          "name": "reward",
          "type": "uint256"
        }
      ],
      "name": "StakingRewardClaimed",
      "type": "event"
    },
    {
      "anonymous": false,
      "inputs": [
        {
          "indexed": true,
          "internalType": "address",
          "name": "contributor",
          "type": "address"
        },
        {
          "indexed": false,
          "internalType": "uint256",
          "name": "contribution",
          "type": "uint256"
        }
      ],
      "name": "StakingRewardContributed",
      "type": "event"
    },
    {
      "anonymous": false,
      "inputs": [
        {
          "indexed": false,
          "internalType": "address",
          "name": "account",
          "type": "address"
        }
      ],
      "name": "Unpaused",
      "type": "event"
    },
    {
      "inputs": [
        {
          "internalType": "address",
          "name": "account",
          "type": "address"
        }
      ],
      "name": "addPauser",
      "outputs": [],
      "stateMutability": "nonpayable",
      "type": "function"
    },
    {
      "inputs": [
        {
          "internalType": "address[]",
          "name": "accounts",
          "type": "address[]"
        }
      ],
      "name": "addPausers",
      "outputs": [],
      "stateMutability": "nonpayable",
      "type": "function"
    },
    {
      "inputs": [
        {
          "internalType": "bytes",
          "name": "_rewardRequest",
          "type": "bytes"
        },
        {
          "internalType": "bytes[]",
          "name": "_sigs",
          "type": "bytes[]"
        }
      ],
      "name": "claimReward",
      "outputs": [],
      "stateMutability": "nonpayable",
      "type": "function"
    },
    {
      "inputs": [
        {
          "internalType": "address",
          "name": "",
          "type": "address"
        }
      ],
      "name": "claimedRewardAmounts",
      "outputs": [
        {
          "internalType": "uint256",
          "name": "",
          "type": "uint256"
        }
      ],
      "stateMutability": "view",
      "type": "function"
    },
    {
      "inputs": [
        {
          "internalType": "uint256",
          "name": "_amount",
          "type": "uint256"
        }
      ],
      "name": "contributeToRewardPool",
      "outputs": [],
      "stateMutability": "nonpayable",
      "type": "function"
    },
    {
      "inputs": [
        {
          "internalType": "uint256",
          "name": "_amount",
          "type": "uint256"
        }
      ],
      "name": "drainToken",
      "outputs": [],
      "stateMutability": "nonpayable",
      "type": "function"
    },
    {
      "inputs": [
        {
          "internalType": "address",
          "name": "account",
          "type": "address"
        }
      ],
      "name": "isPauser",
      "outputs": [
        {
          "internalType": "bool",
          "name": "",
          "type": "bool"
        }
      ],
      "stateMutability": "view",
      "type": "function"
    },
    {
      "inputs": [],
      "name": "owner",
      "outputs": [
        {
          "internalType": "address",
          "name": "",
          "type": "address"
        }
      ],
      "stateMutability": "view",
      "type": "function"
    },
    {
      "inputs": [],
      "name": "pause",
      "outputs": [],
      "stateMutability": "nonpayable",
      "type": "function"
    },
    {
      "inputs": [],
      "name": "paused",
      "outputs": [
        {
          "internalType": "bool",
          "name": "",
          "type": "bool"
        }
      ],
      "stateMutability": "view",
      "type": "function"
    },
    {
      "inputs": [
        {
          "internalType": "address",
          "name": "",
          "type": "address"
        }
      ],
      "name": "pausers",
      "outputs": [
        {
          "internalType": "bool",
          "name": "",
          "type": "bool"
        }
      ],
      "stateMutability": "view",
      "type": "function"
    },
    {
      "inputs": [
        {
          "internalType": "address",
          "name": "account",
          "type": "address"
        }
      ],
      "name": "removePauser",
      "outputs": [],
      "stateMutability": "nonpayable",
      "type": "function"
    },
    {
      "inputs": [
        {
          "internalType": "address[]",
          "name": "accounts",
          "type": "address[]"
        }
      ],
      "name": "removePausers",
      "outputs": [],
      "stateMutability": "nonpayable",
      "type": "function"
    },
    {
      "inputs": [],
      "name": "renouncePauser",
      "outputs": [],
      "stateMutability": "nonpayable",
      "type": "function"
    },
    {
      "inputs": [],
      "name": "staking",
      "outputs": [
        {
          "internalType": "contract Staking",
          "name": "",
          "type": "address"
        }
      ],
      "stateMutability": "view",
      "type": "function"
    },
    {
      "inputs": [
        {
          "internalType": "address",
          "name": "newOwner",
          "type": "address"
        }
      ],
      "name": "transferOwnership",
      "outputs": [],
      "stateMutability": "nonpayable",
      "type": "function"
    },
    {
      "inputs": [],
      "name": "unpause",
      "outputs": [],
      "stateMutability": "nonpayable",
      "type": "function"
    }
  ],
  "transactionHash": "0xbcf380caf35f1d454428b1b54cfc3533ed4236fc6c3e404ec09883a1fe65767b",
  "args": [
    "0xDc44EdEde02bC11D31e1BcBC04b17C02F11ac4d7"
  ],
  "numDeployments": 1,
  "solcInputHash": "6e1375724855e42d36d93bf6f2c45f96",
  "bytecode": "0x60a03461015f57601f61167c38819003918201601f191683019291906001600160401b0384118385101761016457816020928492604096875283398101031261015f57516001600160a01b03808216820361015f576000908154845191339082167f8be0079c531659141344cd1fd0a4f28419497f9722a3daafe3b4186f6b6457e08580a36001600160a81b0319163360ff60a01b198116919091178355825260016020528382205460ff1661011d57508290338152600160205220600160ff198254161790557f6719d08c1888103bea251a4ed56406bd0c3e69723c8a1686e017e7bbe159b6f860208351338152a160805251611501908161017b823960805181818161017301528181610296015281816103da01526109a90152f35b62461bcd60e51b815260206004820152601960248201527f4163636f756e7420697320616c726561647920706175736572000000000000006044820152606490fd5b600080fd5b634e487b7160e01b600052604160045260246000fdfe6080604052600436101561001257600080fd5b60003560e01c80630a300b0914610122578063145aa1161461011d5780633f4ba83a1461011857806346fbf68e146100ff5780634cf088d9146101135780635c975abb1461010e5780636b2c0f55146101095780636ef8d66d1461010457806380f51c12146100ff57806382dc1ec4146100fa5780638456cb59146100f55780638da5cb5b146100f057806396db0fef146100eb578063a036e799146100e6578063e79b7a51146100e1578063f2fde38b146100dc5763f8df0dc5146100d757600080fd5b610841565b610747565b6106f7565b6106a2565b610564565b61053d565b6104b4565b610479565b610377565b61045f565b610424565b6103fe565b6103ba565b6102f2565b610248565b61013e565b60209060031901126101395760043590565b600080fd5b346101395761014c36610127565b61015e60ff60005460a01c16156108c9565b60405163011e759160e21b81526020816004817f00000000000000000000000000000000000000000000000000000000000000006001600160a01b03165afa8015610243576101e591600091610215575b506040516323b872dd60e01b602082015233602482015230604482015260648082018590528152906101e0826105d9565b610e4e565b60405190815233907ff67017a05194c0853be9169be60cad9fa6e75d34b6b507a7a4261510e19c6d7990602090a2005b610236915060203d811161023c575b61022e81836105f5565b810190610d75565b386101af565b503d610224565b610ca2565b3461013957600461025836610127565b602060005461026c60ff8260a01c16610f95565b6102826001600160a01b03918233911614610fe1565b60405163011e759160e21b815293849182907f0000000000000000000000000000000000000000000000000000000000000000165afa8015610243576102d2926000916102d4575b503390610d8d565b005b6102ec915060203d811161023c5761022e81836105f5565b386102ca565b346101395760008060031936011261036357338152600160205261031c60ff6040832054166112e1565b60ff60a01b19815461033360ff8260a01c16610f95565b1681557f5db9ee0a495bf2e6ff9c91a7834c1ba4fdd244a5e8aa4e537bd38aeae4b073aa6020604051338152a180f35b80fd5b6001600160a01b0381160361013957565b34610139576020366003190112610139576001600160a01b0360043561039c81610366565b166000526001602052602060ff604060002054166040519015158152f35b346101395760003660031901126101395760206040516001600160a01b037f0000000000000000000000000000000000000000000000000000000000000000168152f35b3461013957600036600319011261013957602060ff60005460a01c166040519015158152f35b34610139576020366003190112610139576102d260043561044481610366565b61045a6001600160a01b03600054163314610fe1565b611412565b34610139576000366003190112610139576102d233611412565b34610139576020366003190112610139576102d260043561049981610366565b6104af6001600160a01b03600054163314610fe1565b611357565b34610139576000806003193601126103635733815260016020526104de60ff6040832054166112e1565b7401000000000000000000000000000000000000000060ff60a01b19825461050c60ff8260a01c16156108c9565b161781557f62e78cea01bee320cd4e420270b5ea74000d11b0c9f74754ebdbfc544b05a2586020604051338152a180f35b346101395760003660031901126101395760206001600160a01b0360005416604051908152f35b34610139576020366003190112610139576001600160a01b0360043561058981610366565b1660005260026020526020604060002054604051908152f35b634e487b7160e01b600052604160045260246000fd5b6040810190811067ffffffffffffffff8211176105d457604052565b6105a2565b60a0810190811067ffffffffffffffff8211176105d457604052565b90601f8019910116810190811067ffffffffffffffff8211176105d457604052565b6020806003198301126101395767ffffffffffffffff9160043583811161013957816023820112156101395780600401359384116105d4578360051b9060405194610664858401876105f5565b855260248486019282010192831161013957602401905b828210610689575050505090565b838091833561069781610366565b81520191019061067b565b34610139576106b036610617565b6001600160a01b03906106c882600054163314610fe1565b60005b81518110156102d257806106ed846106e66106f2948661132d565b5116611412565b61110c565b6106cb565b346101395761070536610617565b6001600160a01b039061071d82600054163314610fe1565b60005b81518110156102d257806106ed8461073b610742948661132d565b5116611357565b610720565b346101395760203660031901126101395760043561076481610366565b6000908154906001600160a01b0380831691610781338414610fe1565b169182156107d6577fffffffffffffffffffffffff000000000000000000000000000000000000000016821783557f8be0079c531659141344cd1fd0a4f28419497f9722a3daafe3b4186f6b6457e08380a380f35b60405162461bcd60e51b815260206004820152602660248201527f4f776e61626c653a206e6577206f776e657220697320746865207a65726f206160448201527f64647265737300000000000000000000000000000000000000000000000000006064820152608490fd5b346101395760403660031901126101395760043567ffffffffffffffff80821161013957366023830112156101395781600401359181831161013957366024848301011161013957602435928284116101395736602385011215610139578360040135928311610139573660248460051b86010111610139576024806102d295019201610915565b156108d057565b60405162461bcd60e51b815260206004820152601060248201527f5061757361626c653a20706175736564000000000000000000000000000000006044820152606490fd5b9261092860ff60005460a01c16156108c9565b6040519360208094826109e883890189610987304684909160419282526bffffffffffffffffffffffff199060601b1660208201527f5374616b696e675265776172640000000000000000000000000000000000000060348201520190565b039961099b601f199b8c81018352826105f5565b519020986001600160a01b037f000000000000000000000000000000000000000000000000000000000000000016996109dc89604051958693898501610b6e565b039081018352826105f5565b610a06604051958693849363453a6aff60e11b855260048501610bfd565b0381885afa90811561024357600493610a2f93610a2a93610b41575b503691610cca565b61102c565b91808084015194610a6d610a66610a4d87516001600160a01b031690565b6001600160a01b03166000526002602052604060002090565b5487610d17565b95610a79871515610d29565b610a8d610a4d87516001600160a01b031690565b5560405163011e759160e21b815293849182905afa8015610243577f6dd401e61ba732582a5eba3d54ccc3afb3609cd3ac1a166d1d36f75fc0aedcda93610af586610b0293610b1f96610b0e96600092610b24575b505083516001600160a01b031690610d8d565b516001600160a01b031690565b6001600160a01b031690565b604051938452929081906020820190565b0390a2565b610b3a9250803d1061023c5761022e81836105f5565b3880610ae2565b610b6090873d8911610b67575b610b5881836105f5565b810190610b84565b5038610a22565b503d610b4e565b9092809260209483528483013701016000815290565b90816020910312610139575180151581036101395790565b919082519283825260005b848110610bc8575050826000602080949584010152601f8019910116010190565b602081830181015184830182015201610ba7565b908060209392818452848401376000828201840152601f01601f1916010190565b9290610c1190604085526040850190610b9c565b926020908181860391015281845280840193818360051b82010194846000925b858410610c42575050505050505090565b90919293949596601f198282030184528735601e198436030181121561013957830186810191903567ffffffffffffffff811161013957803603831361013957610c9188928392600195610bdc565b990194019401929594939190610c31565b6040513d6000823e3d90fd5b67ffffffffffffffff81116105d457601f01601f191660200190565b929192610cd682610cae565b91610ce460405193846105f5565b829481845281830111610139578281602093846000960137010152565b634e487b7160e01b600052601160045260246000fd5b91908203918211610d2457565b610d01565b15610d3057565b60405162461bcd60e51b815260206004820152600d60248201527f4e6f206e657720726577617264000000000000000000000000000000000000006044820152606490fd5b908160209103126101395751610d8a81610366565b90565b916001600160a01b036040519263a9059cbb60e01b6020850152166024830152604482015260448152608081019181831067ffffffffffffffff8411176105d457610dda92604052610e4e565b565b15610de357565b60405162461bcd60e51b815260206004820152602a60248201527f5361666545524332303a204552433230206f7065726174696f6e20646964206e60448201527f6f742073756363656564000000000000000000000000000000000000000000006064820152608490fd5b6001600160a01b03169060405190610e65826105b8565b6020928383527f5361666545524332303a206c6f772d6c6576656c2063616c6c206661696c656484840152803b15610edc5760008281928287610eb79796519301915af1610eb1610f21565b90610f51565b80519081610ec457505050565b82610dda93610ed7938301019101610b84565b610ddc565b60405162461bcd60e51b815260048101859052601d60248201527f416464726573733a2063616c6c20746f206e6f6e2d636f6e74726163740000006044820152606490fd5b3d15610f4c573d90610f3282610cae565b91610f4060405193846105f5565b82523d6000602084013e565b606090565b90919015610f5d575090565b815115610f6d5750805190602001fd5b60405162461bcd60e51b815260206004820152908190610f91906024830190610b9c565b0390fd5b15610f9c57565b60405162461bcd60e51b815260206004820152601460248201527f5061757361626c653a206e6f74207061757365640000000000000000000000006044820152606490fd5b15610fe857565b606460405162461bcd60e51b815260206004820152602060248201527f4f776e61626c653a2063616c6c6572206973206e6f7420746865206f776e65726044820152fd5b60405191611039836105b8565b60008352602083019060008252839060405193611055856105b8565b60208501908152600085525b845181515111156110d057611075856110d8565b90600181036110a65750506110a161109461108f876111b5565b6112ce565b6001600160a01b03168752565b611061565b6002036110c657506110bf6110ba866111b5565b611283565b8452611061565b6110a1908661123b565b509250925050565b6110e190611144565b9060078260031c921660068110156110f65790565b634e487b7160e01b600052602160045260246000fd5b6000198114610d245760010190565b9060018201809211610d2457565b9060208201809211610d2457565b91908201809211610d2457565b60208082015182510101519060009060005b600a811061116357600080fd5b83811a92600790818302918383041483151715610d2457608091607f8616901b17931615611199576111949061110c565b611156565b6111b0919293506111a99061111b565b8251611137565b905290565b906111bf82611144565b91805190838201809211610d2457602093848201948551518411610139576111e682610cae565b906111f460405192836105f5565b828252601f1961120384610cae565b01368284013781965184510160005b84811061122157505050505052565b80836112369284010151848287010152611129565b611212565b9060068110156110f65780611257575061125490611144565b50565b6002036101395761126781611144565b908051918201809211610d245781815260200151511061013957565b8051906020821161013957602001519060200360208111610d24577f1fffffffffffffffffffffffffffffffffffffffffffffffffffffffffffffff81168103610d245760031b1c90565b6014815103610139576020015160601c90565b156112e857565b60405162461bcd60e51b815260206004820152601460248201527f43616c6c6572206973206e6f74207061757365720000000000000000000000006044820152606490fd5b80518210156113415760209160051b010190565b634e487b7160e01b600052603260045260246000fd5b6001600160a01b0381169081600052600160205260ff604060002054166113cd577f6719d08c1888103bea251a4ed56406bd0c3e69723c8a1686e017e7bbe159b6f8916113b96020926001600160a01b03166000526001602052604060002090565b805460ff19166001179055604051908152a1565b60405162461bcd60e51b815260206004820152601960248201527f4163636f756e7420697320616c726561647920706175736572000000000000006044820152606490fd5b6001600160a01b0381169081600052600160205260ff6040600020541615611486577fcd265ebaf09df2871cc7bd4133404a235ba12eff2041bb89d9c714a2621c7c7e916114756020926001600160a01b03166000526001602052604060002090565b805460ff19169055604051908152a1565b60405162461bcd60e51b815260206004820152601560248201527f4163636f756e74206973206e6f742070617573657200000000000000000000006044820152606490fdfea26469706673582212208bca8c505c96f9503ae058871f438a233dd3d2cb575f2ebde2c188fd214fdc7f64736f6c63430008140033",
  "devdoc": {
    "events": {
      "Paused(address)": {
        "details": "Emitted when the pause is triggered by `account`."
      },
      "Unpaused(address)": {
        "details": "Emitted when the pause is lifted by `account`."
      }
    },
    "kind": "dev",
    "methods": {
      "claimReward(bytes,bytes[])": {
        "details": "Here we use cumulative reward to make claim process idempotent",
        "params": {
          "_rewardRequest": "reward request bytes coded in protobuf",
          "_sigs": "list of validator signatures"
        }
      },
      "contributeToRewardPool(uint256)": {
        "params": {
          "_amount": "the amount of CELR token to contribute"
        }
      },
      "drainToken(uint256)": {
        "details": "emergency use only",
        "params": {
          "_amount": "drained CELR token amount"
        }
      },
      "owner()": {
        "details": "Returns the address of the current owner."
      },
      "paused()": {
        "details": "Returns true if the contract is paused, and false otherwise."
      },
      "transferOwnership(address)": {
        "details": "Transfers ownership of the contract to a new account (`newOwner`). Can only be called by the current owner."
      }
    },
    "title": "A contract to hold and distribute CELR staking rewards.",
    "version": 1
  },
  "userdoc": {
    "kind": "user",
    "methods": {
      "claimReward(bytes,bytes[])": {
        "notice": "Claim reward"
      },
      "contributeToRewardPool(uint256)": {
        "notice": "Contribute CELR tokens to the reward pool"
      },
      "drainToken(uint256)": {
        "notice": "Owner drains CELR tokens when the contract is paused"
      }
    },
    "version": 1
  },
  "storageLayout": {
    "storage": [
      {
        "astId": 82559,
        "contract": "contracts/bvn-staking/StakingReward.sol:StakingReward",
        "label": "_owner",
        "offset": 0,
        "slot": "0",
        "type": "t_address"
      },
      {
        "astId": 122,
        "contract": "contracts/bvn-staking/StakingReward.sol:StakingReward",
        "label": "_paused",
        "offset": 20,
        "slot": "0",
        "type": "t_bool"
      },
      {
        "astId": 82673,
        "contract": "contracts/bvn-staking/StakingReward.sol:StakingReward",
        "label": "pausers",
        "offset": 0,
        "slot": "1",
        "type": "t_mapping(t_address,t_bool)"
      },
      {
        "astId": 20557,
        "contract": "contracts/bvn-staking/StakingReward.sol:StakingReward",
        "label": "claimedRewardAmounts",
        "offset": 0,
        "slot": "2",
        "type": "t_mapping(t_address,t_uint256)"
      }
    ],
    "types": {
      "t_address": {
        "encoding": "inplace",
        "label": "address",
        "numberOfBytes": "20"
      },
      "t_bool": {
        "encoding": "inplace",
        "label": "bool",
        "numberOfBytes": "1"
      },
      "t_mapping(t_address,t_bool)": {
        "encoding": "mapping",
        "key": "t_address",
        "label": "mapping(address => bool)",
        "numberOfBytes": "32",
        "value": "t_bool"
      },
      "t_mapping(t_address,t_uint256)": {
        "encoding": "mapping",
        "key": "t_address",
        "label": "mapping(address => uint256)",
        "numberOfBytes": "32",
        "value": "t_uint256"
      },
      "t_uint256": {
        "encoding": "inplace",
        "label": "uint256",
        "numberOfBytes": "32"
      }
    }
  }
}