{
  "address": "0xDc44EdEde02bC11D31e1BcBC04b17C02F11ac4d7",
  "abi": [
    {
      "inputs": [
        {
          "internalType": "address",
          "name": "_stakingTokenAddress",
          "type": "address"
        },
        {
          "internalType": "uint256",
          "name": "_proposalDeposit",
          "type": "uint256"
        },
        {
          "internalType": "uint256",
          "name": "_votingPeriod",
          "type": "uint256"
        },
        {
          "internalType": "uint256",
          "name": "_unbondingPeriod",
          "type": "uint256"
        },
        {
          "internalType": "uint256",
          "name": "_maxBondedValidators",
          "type": "uint256"
        },
        {
          "internalType": "uint256",
          "name": "_minValidatorTokens",
          "type": "uint256"
        },
        {
          "internalType": "uint256",
          "name": "_minSelfDelegation",
          "type": "uint256"
        },
        {
          "internalType": "uint256",
          "name": "_advanceNoticePeriod",
          "type": "uint256"
        },
        {
          "internalType": "uint256",
          "name": "_validatorBondInterval",
          "type": "uint256"
        },
        {
          "internalType": "uint256",
          "name": "_maxSlashFactor",
          "type": "uint256"
        }
      ],
      "stateMutability": "nonpayable",
      "type": "constructor"
    },
    {
      "anonymous": false,
      "inputs": [
        {
          "indexed": true,
          "internalType": "address",
          "name": "valAddr",
          "type": "address"
        },
        {
          "indexed": true,
          "internalType": "address",
          "name": "delAddr",
          "type": "address"
        },
        {
          "indexed": false,
          "internalType": "uint256",
          "name": "valTokens",
          "type": "uint256"
        },
        {
          "indexed": false,
          "internalType": "uint256",
          "name": "delShares",
          "type": "uint256"
        },
        {
          "indexed": false,
          "internalType": "int256",
          "name": "tokenDiff",
          "type": "int256"
        }
      ],
      "name": "DelegationUpdate",
      "type": "event"
    },
    {
      "anonymous": false,
      "inputs": [
        {
          "indexed": true,
          "internalType": "address",
          "name": "previousOwner",
          "type": "address"
        },
        {
          "indexed": true,
          "internalType": "address",
          "name": "newOwner",
          "type": "address"
        }
      ],
      "name": "OwnershipTransferred",
      "type": "event"
    },
    {
      "anonymous": false,
      "inputs": [
        {
          "indexed": false,
          "internalType": "address",
          "name": "account",
          "type": "address"
        }
      ],
      "name": "Paused",
      "type": "event"
    },
    {
      "anonymous": false,
      "inputs": [
        {
          "indexed": false,
          "internalType": "address",
          "name": "account",
          "type": "address"
        }
      ],
      "name": "PauserAdded",
      "type": "event"
    },
    {
      "anonymous": false,
      "inputs": [
        {
          "indexed": false,
          "internalType": "address",
          "name": "account",
          "type": "address"
        }
      ],
      "name": "PauserRemoved",
      "type": "event"
    },
    {
      "anonymous": false,
      "inputs": [
        {
          "indexed": true,
          "internalType": "address",
          "name": "valAddr",
          "type": "address"
        },
        {
          "indexed": false,
          "internalType": "uint64",
          "name": "nonce",
          "type": "uint64"
        },
        {
          "indexed": false,
          "internalType": "uint256",
          "name": "slashAmt",
          "type": "uint256"
        }
      ],
      "name": "Slash",
      "type": "event"
    },
    {
      "anonymous": false,
      "inputs": [
        {
          "indexed": true,
          "internalType": "address",
          "name": "recipient",
          "type": "address"
        },
        {
          "indexed": false,
          "internalType": "uint256",
          "name": "amount",
          "type": "uint256"
        }
      ],
      "name": "SlashAmtCollected",
      "type": "event"
    },
    {
      "anonymous": false,
      "inputs": [
        {
          "indexed": true,
          "internalType": "address",
          "name": "valAddr",
          "type": "address"
        },
        {
          "indexed": true,
          "internalType": "address",
          "name": "delAddr",
          "type": "address"
        },
        {
          "indexed": false,
          "internalType": "uint256",
          "name": "amount",
          "type": "uint256"
        }
      ],
      "name": "Undelegated",
      "type": "event"
    },
    {
      "anonymous": false,
      "inputs": [
        {
          "indexed": false,
          "internalType": "address",
          "name": "account",
          "type": "address"
        }
      ],
      "name": "Unpaused",
      "type": "event"
    },
    {
      "anonymous": false,
      "inputs": [
        {
          "indexed": true,
          "internalType": "address",
          "name": "valAddr",
          "type": "address"
        },
        {
          "indexed": false,
          "internalType": "string",
          "name": "key",
          "type": "string"
        },
        {
          "indexed": false,
          "internalType": "bytes",
          "name": "data",
          "type": "bytes"
        },
        {
          "indexed": false,
          "internalType": "address",
          "name": "from",
          "type": "address"
        }
      ],
      "name": "ValidatorNotice",
      "type": "event"
    },
    {
      "anonymous": false,
      "inputs": [
        {
          "indexed": true,
          "internalType": "address",
          "name": "valAddr",
          "type": "address"
        },
        {
          "indexed": true,
          "internalType": "enum DataTypes.ValidatorStatus",
          "name": "status",
          "type": "uint8"
        }
      ],
      "name": "ValidatorStatusUpdate",
      "type": "event"
    },
    {
      "anonymous": false,
      "inputs": [
        {
          "indexed": false,
          "internalType": "address",
          "name": "account",
          "type": "address"
        }
      ],
      "name": "WhitelistedAdded",
      "type": "event"
    },
    {
      "anonymous": false,
      "inputs": [
        {
          "indexed": false,
          "internalType": "address",
          "name": "account",
          "type": "address"
        }
      ],
      "name": "WhitelistedRemoved",
      "type": "event"
    },
    {
      "inputs": [],
      "name": "STAKING_TOKEN",
      "outputs": [
        {
          "internalType": "contract IERC20",
          "name": "",
          "type": "address"
        }
      ],
      "stateMutability": "view",
      "type": "function"
    },
    {
      "inputs": [
        {
          "internalType": "address",
          "name": "account",
          "type": "address"
        }
      ],
      "name": "addPauser",
      "outputs": [],
      "stateMutability": "nonpayable",
      "type": "function"
    },
    {
      "inputs": [
        {
          "internalType": "address[]",
          "name": "accounts",
          "type": "address[]"
        }
      ],
      "name": "addPausers",
      "outputs": [],
      "stateMutability": "nonpayable",
      "type": "function"
    },
    {
      "inputs": [
        {
          "internalType": "address",
          "name": "account",
          "type": "address"
        }
      ],
      "name": "addWhitelisted",
      "outputs": [],
      "stateMutability": "nonpayable",
      "type": "function"
    },
    {
      "inputs": [],
      "name": "bondValidator",
      "outputs": [],
      "stateMutability": "nonpayable",
      "type": "function"
    },
    {
      "inputs": [],
      "name": "bondedTokens",
      "outputs": [
        {
          "internalType": "uint256",
          "name": "",
          "type": "uint256"
        }
      ],
      "stateMutability": "view",
      "type": "function"
    },
    {
      "inputs": [
        {
          "internalType": "uint256",
          "name": "",
          "type": "uint256"
        }
      ],
      "name": "bondedValAddrs",
      "outputs": [
        {
          "internalType": "address",
          "name": "",
          "type": "address"
        }
      ],
      "stateMutability": "view",
      "type": "function"
    },
    {
      "inputs": [],
      "name": "collectForfeiture",
      "outputs": [],
      "stateMutability": "nonpayable",
      "type": "function"
    },
    {
      "inputs": [
        {
          "internalType": "address",
          "name": "_valAddr",
          "type": "address"
        }
      ],
      "name": "completeUndelegate",
      "outputs": [],
      "stateMutability": "nonpayable",
      "type": "function"
    },
    {
      "inputs": [
        {
          "internalType": "address",
          "name": "_valAddr",
          "type": "address"
        }
      ],
      "name": "confirmUnbondedValidator",
      "outputs": [],
      "stateMutability": "nonpayable",
      "type": "function"
    },
    {
      "inputs": [
        {
          "internalType": "address",
          "name": "_valAddr",
          "type": "address"
        },
        {
          "internalType": "uint256",
          "name": "_tokens",
          "type": "uint256"
        }
      ],
      "name": "delegate",
      "outputs": [],
      "stateMutability": "nonpayable",
      "type": "function"
    },
    {
      "inputs": [
        {
          "internalType": "uint256",
          "name": "_amount",
          "type": "uint256"
        }
      ],
      "name": "drainToken",
      "outputs": [],
      "stateMutability": "nonpayable",
      "type": "function"
    },
    {
      "inputs": [],
      "name": "forfeiture",
      "outputs": [
        {
          "internalType": "uint256",
          "name": "",
          "type": "uint256"
        }
      ],
      "stateMutability": "view",
      "type": "function"
    },
    {
      "inputs": [],
      "name": "getBondedValidatorNum",
      "outputs": [
        {
          "internalType": "uint256",
          "name": "",
          "type": "uint256"
        }
      ],
      "stateMutability": "view",
      "type": "function"
    },
    {
      "inputs": [],
      "name": "getBondedValidatorsTokens",
      "outputs": [
        {
          "components": [
            {
              "internalType": "address",
              "name": "valAddr",
              "type": "address"
            },
            {
              "internalType": "uint256",
              "name": "tokens",
              "type": "uint256"
            }
          ],
          "internalType": "struct DataTypes.ValidatorTokens[]",
          "name": "",
          "type": "tuple[]"
        }
      ],
      "stateMutability": "view",
      "type": "function"
    },
    {
      "inputs": [
        {
          "internalType": "address",
          "name": "_valAddr",
          "type": "address"
        },
        {
          "internalType": "address",
          "name": "_delAddr",
          "type": "address"
        }
      ],
      "name": "getDelegatorInfo",
      "outputs": [
        {
          "components": [
            {
              "internalType": "address",
              "name": "valAddr",
              "type": "address"
            },
            {
              "internalType": "uint256",
              "name": "tokens",
              "type": "uint256"
            },
            {
              "internalType": "uint256",
              "name": "shares",
              "type": "uint256"
            },
            {
              "components": [
                {
                  "internalType": "uint256",
                  "name": "shares",
                  "type": "uint256"
                },
                {
                  "internalType": "uint256",
                  "name": "creationBlock",
                  "type": "uint256"
                }
              ],
              "internalType": "struct DataTypes.Undelegation[]",
              "name": "undelegations",
              "type": "tuple[]"
            },
            {
              "internalType": "uint256",
              "name": "undelegationTokens",
              "type": "uint256"
            },
            {
              "internalType": "uint256",
              "name": "withdrawableUndelegationTokens",
              "type": "uint256"
            }
          ],
          "internalType": "struct DataTypes.DelegatorInfo",
          "name": "",
          "type": "tuple"
        }
      ],
      "stateMutability": "view",
      "type": "function"
    },
    {
      "inputs": [
        {
          "internalType": "enum DataTypes.ParamName",
          "name": "_name",
          "type": "uint8"
        }
      ],
      "name": "getParamValue",
      "outputs": [
        {
          "internalType": "uint256",
          "name": "",
          "type": "uint256"
        }
      ],
      "stateMutability": "view",
      "type": "function"
    },
    {
      "inputs": [],
      "name": "getQuorumTokens",
      "outputs": [
        {
          "internalType": "uint256",
          "name": "",
          "type": "uint256"
        }
      ],
      "stateMutability": "view",
      "type": "function"
    },
    {
      "inputs": [],
      "name": "getValidatorNum",
      "outputs": [
        {
          "internalType": "uint256",
          "name": "",
          "type": "uint256"
        }
      ],
      "stateMutability": "view",
      "type": "function"
    },
    {
      "inputs": [
        {
          "internalType": "address",
          "name": "_valAddr",
          "type": "address"
        }
      ],
      "name": "getValidatorStatus",
      "outputs": [
        {
          "internalType": "enum DataTypes.ValidatorStatus",
          "name": "",
          "type": "uint8"
        }
      ],
      "stateMutability": "view",
      "type": "function"
    },
    {
      "inputs": [
        {
          "internalType": "address",
          "name": "_valAddr",
          "type": "address"
        }
      ],
      "name": "getValidatorTokens",
      "outputs": [
        {
          "internalType": "uint256",
          "name": "",
          "type": "uint256"
        }
      ],
      "stateMutability": "view",
      "type": "function"
    },
    {
      "inputs": [],
      "name": "govContract",
      "outputs": [
        {
          "internalType": "address",
          "name": "",
          "type": "address"
        }
      ],
      "stateMutability": "view",
      "type": "function"
    },
    {
      "inputs": [
        {
          "internalType": "address",
          "name": "_valAddr",
          "type": "address"
        },
        {
          "internalType": "bool",
          "name": "_checkSelfDelegation",
          "type": "bool"
        }
      ],
      "name": "hasMinRequiredTokens",
      "outputs": [
        {
          "internalType": "bool",
          "name": "",
          "type": "bool"
        }
      ],
      "stateMutability": "view",
      "type": "function"
    },
    {
      "inputs": [
        {
          "internalType": "address",
          "name": "_signer",
          "type": "address"
        },
        {
          "internalType": "uint256",
          "name": "_minSelfDelegation",
          "type": "uint256"
        },
        {
          "internalType": "uint64",
          "name": "_commissionRate",
          "type": "uint64"
        }
      ],
      "name": "initializeValidator",
      "outputs": [],
      "stateMutability": "nonpayable",
      "type": "function"
    },
    {
      "inputs": [
        {
          "internalType": "address",
          "name": "_addr",
          "type": "address"
        }
      ],
      "name": "isBondedValidator",
      "outputs": [
        {
          "internalType": "bool",
          "name": "",
          "type": "bool"
        }
      ],
      "stateMutability": "view",
      "type": "function"
    },
    {
      "inputs": [
        {
          "internalType": "address",
          "name": "account",
          "type": "address"
        }
      ],
      "name": "isPauser",
      "outputs": [
        {
          "internalType": "bool",
          "name": "",
          "type": "bool"
        }
      ],
      "stateMutability": "view",
      "type": "function"
    },
    {
      "inputs": [
        {
          "internalType": "address",
          "name": "account",
          "type": "address"
        }
      ],
      "name": "isWhitelisted",
      "outputs": [
        {
          "internalType": "bool",
          "name": "",
          "type": "bool"
        }
      ],
      "stateMutability": "view",
      "type": "function"
    },
    {
      "inputs": [],
      "name": "nextBondBlock",
      "outputs": [
        {
          "internalType": "uint256",
          "name": "",
          "type": "uint256"
        }
      ],
      "stateMutability": "view",
      "type": "function"
    },
    {
      "inputs": [],
      "name": "owner",
      "outputs": [
        {
          "internalType": "address",
          "name": "",
          "type": "address"
        }
      ],
      "stateMutability": "view",
      "type": "function"
    },
    {
      "inputs": [
        {
          "internalType": "enum DataTypes.ParamName",
          "name": "",
          "type": "uint8"
        }
      ],
      "name": "params",
      "outputs": [
        {
          "internalType": "uint256",
          "name": "",
          "type": "uint256"
        }
      ],
      "stateMutability": "view",
      "type": "function"
    },
    {
      "inputs": [],
      "name": "pause",
      "outputs": [],
      "stateMutability": "nonpayable",
      "type": "function"
    },
    {
      "inputs": [],
      "name": "paused",
      "outputs": [
        {
          "internalType": "bool",
          "name": "",
          "type": "bool"
        }
      ],
      "stateMutability": "view",
      "type": "function"
    },
    {
      "inputs": [
        {
          "internalType": "address",
          "name": "",
          "type": "address"
        }
      ],
      "name": "pausers",
      "outputs": [
        {
          "internalType": "bool",
          "name": "",
          "type": "bool"
        }
      ],
      "stateMutability": "view",
      "type": "function"
    },
    {
      "inputs": [
        {
          "internalType": "address",
          "name": "account",
          "type": "address"
        }
      ],
      "name": "removePauser",
      "outputs": [],
      "stateMutability": "nonpayable",
      "type": "function"
    },
    {
      "inputs": [
        {
          "internalType": "address[]",
          "name": "accounts",
          "type": "address[]"
        }
      ],
      "name": "removePausers",
      "outputs": [],
      "stateMutability": "nonpayable",
      "type": "function"
    },
    {
      "inputs": [
        {
          "internalType": "address",
          "name": "account",
          "type": "address"
        }
      ],
      "name": "removeWhitelisted",
      "outputs": [],
      "stateMutability": "nonpayable",
      "type": "function"
    },
    {
      "inputs": [],
      "name": "renouncePauser",
      "outputs": [],
      "stateMutability": "nonpayable",
      "type": "function"
    },
    {
      "inputs": [],
      "name": "rewardContract",
      "outputs": [
        {
          "internalType": "address",
          "name": "",
          "type": "address"
        }
      ],
      "stateMutability": "view",
      "type": "function"
    },
    {
      "inputs": [
        {
          "internalType": "address",
          "name": "_addr",
          "type": "address"
        }
      ],
      "name": "setGovContract",
      "outputs": [],
      "stateMutability": "nonpayable",
      "type": "function"
    },
    {
      "inputs": [
        {
          "internalType": "uint256",
          "name": "_maxSlashFactor",
          "type": "uint256"
        }
      ],
      "name": "setMaxSlashFactor",
      "outputs": [],
      "stateMutability": "nonpayable",
      "type": "function"
    },
    {
      "inputs": [
        {
          "internalType": "enum DataTypes.ParamName",
          "name": "_name",
          "type": "uint8"
        },
        {
          "internalType": "uint256",
          "name": "_value",
          "type": "uint256"
        }
      ],
      "name": "setParamValue",
      "outputs": [],
      "stateMutability": "nonpayable",
      "type": "function"
    },
    {
      "inputs": [
        {
          "internalType": "address",
          "name": "_addr",
          "type": "address"
        }
      ],
      "name": "setRewardContract",
      "outputs": [],
      "stateMutability": "nonpayable",
      "type": "function"
    },
    {
      "inputs": [
        {
          "internalType": "bool",
          "name": "_whitelistEnabled",
          "type": "bool"
        }
      ],
      "name": "setWhitelistEnabled",
      "outputs": [],
      "stateMutability": "nonpayable",
      "type": "function"
    },
    {
      "inputs": [
        {
          "internalType": "address",
          "name": "",
          "type": "address"
        }
      ],
      "name": "signerVals",
      "outputs": [
        {
          "internalType": "address",
          "name": "",
          "type": "address"
        }
      ],
      "stateMutability": "view",
      "type": "function"
    },
    {
      "inputs": [
        {
          "internalType": "bytes",
          "name": "_slashRequest",
          "type": "bytes"
        },
        {
          "internalType": "bytes[]",
          "name": "_sigs",
          "type": "bytes[]"
        }
      ],
      "name": "slash",
      "outputs": [],
      "stateMutability": "nonpayable",
      "type": "function"
    },
    {
      "inputs": [
        {
          "internalType": "uint256",
          "name": "",
          "type": "uint256"
        }
      ],
      "name": "slashNonces",
      "outputs": [
        {
          "internalType": "bool",
          "name": "",
          "type": "bool"
        }
      ],
      "stateMutability": "view",
      "type": "function"
    },
    {
      "inputs": [
        {
          "internalType": "address",
          "name": "newOwner",
          "type": "address"
        }
      ],
      "name": "transferOwnership",
      "outputs": [],
      "stateMutability": "nonpayable",
      "type": "function"
    },
    {
      "inputs": [
        {
          "internalType": "address",
          "name": "_valAddr",
          "type": "address"
        },
        {
          "internalType": "uint256",
          "name": "_shares",
          "type": "uint256"
        }
      ],
      "name": "undelegateShares",
      "outputs": [],
      "stateMutability": "nonpayable",
      "type": "function"
    },
    {
      "inputs": [
        {
          "internalType": "address",
          "name": "_valAddr",
          "type": "address"
        },
        {
          "internalType": "uint256",
          "name": "_tokens",
          "type": "uint256"
        }
      ],
      "name": "undelegateTokens",
      "outputs": [],
      "stateMutability": "nonpayable",
      "type": "function"
    },
    {
      "inputs": [],
      "name": "unpause",
      "outputs": [],
      "stateMutability": "nonpayable",
      "type": "function"
    },
    {
      "inputs": [
        {
          "internalType": "uint64",
          "name": "_newRate",
          "type": "uint64"
        }
      ],
      "name": "updateCommissionRate",
      "outputs": [],
      "stateMutability": "nonpayable",
      "type": "function"
    },
    {
      "inputs": [
        {
          "internalType": "uint256",
          "name": "_minSelfDelegation",
          "type": "uint256"
        }
      ],
      "name": "updateMinSelfDelegation",
      "outputs": [],
      "stateMutability": "nonpayable",
      "type": "function"
    },
    {
      "inputs": [
        {
          "internalType": "address",
          "name": "_signer",
          "type": "address"
        }
      ],
      "name": "updateValidatorSigner",
      "outputs": [],
      "stateMutability": "nonpayable",
      "type": "function"
    },
    {
      "inputs": [
        {
          "internalType": "uint256",
          "name": "",
          "type": "uint256"
        }
      ],
      "name": "valAddrs",
      "outputs": [
        {
          "internalType": "address",
          "name": "",
          "type": "address"
        }
      ],
      "stateMutability": "view",
      "type": "function"
    },
    {
      "inputs": [
        {
          "internalType": "address",
          "name": "_valAddr",
          "type": "address"
        },
        {
          "internalType": "string",
          "name": "_key",
          "type": "string"
        },
        {
          "internalType": "bytes",
          "name": "_data",
          "type": "bytes"
        }
      ],
      "name": "validatorNotice",
      "outputs": [],
      "stateMutability": "nonpayable",
      "type": "function"
    },
    {
      "inputs": [
        {
          "internalType": "address",
          "name": "",
          "type": "address"
        }
      ],
      "name": "validators",
      "outputs": [
        {
          "internalType": "enum DataTypes.ValidatorStatus",
          "name": "status",
          "type": "uint8"
        },
        {
          "internalType": "address",
          "name": "signer",
          "type": "address"
        },
        {
          "internalType": "uint256",
          "name": "tokens",
          "type": "uint256"
        },
        {
          "internalType": "uint256",
          "name": "shares",
          "type": "uint256"
        },
        {
          "internalType": "uint256",
          "name": "undelegationTokens",
          "type": "uint256"
        },
        {
          "internalType": "uint256",
          "name": "undelegationShares",
          "type": "uint256"
        },
        {
          "internalType": "uint256",
          "name": "minSelfDelegation",
          "type": "uint256"
        },
        {
          "internalType": "uint64",
          "name": "bondBlock",
          "type": "uint64"
        },
        {
          "internalType": "uint64",
          "name": "unbondBlock",
          "type": "uint64"
        },
        {
          "internalType": "uint64",
          "name": "commissionRate",
          "type": "uint64"
        }
      ],
      "stateMutability": "view",
      "type": "function"
    },
    {
      "inputs": [
        {
          "internalType": "bytes",
          "name": "_msg",
          "type": "bytes"
        },
        {
          "internalType": "bytes[]",
          "name": "_sigs",
          "type": "bytes[]"
        }
      ],
      "name": "verifySignatures",
      "outputs": [
        {
          "internalType": "bool",
          "name": "",
          "type": "bool"
        }
      ],
      "stateMutability": "view",
      "type": "function"
    },
    {
      "inputs": [
        {
          "internalType": "bytes",
          "name": "_msg",
          "type": "bytes"
        },
        {
          "internalType": "bytes[]",
          "name": "_sigs",
          "type": "bytes[]"
        },
        {
          "internalType": "address[]",
          "name": "",
          "type": "address[]"
        },
        {
          "internalType": "uint256[]",
          "name": "",
          "type": "uint256[]"
        }
      ],
      "name": "verifySigs",
      "outputs": [],
      "stateMutability": "view",
      "type": "function"
    },
    {
      "inputs": [
        {
          "internalType": "address",
          "name": "",
          "type": "address"
        }
      ],
      "name": "whitelist",
      "outputs": [
        {
          "internalType": "bool",
          "name": "",
          "type": "bool"
        }
      ],
      "stateMutability": "view",
      "type": "function"
    },
    {
      "inputs": [],
      "name": "whitelistEnabled",
      "outputs": [
        {
          "internalType": "bool",
          "name": "",
          "type": "bool"
        }
      ],
      "stateMutability": "view",
      "type": "function"
    },
    {
      "stateMutability": "payable",
      "type": "receive"
    }
  ],
  "transactionHash": "0x4de4cc871e411f80c94ea35a8c369eb0c52872a9d582b057b7f10c93c45dc580",
  "args": [
    "0xa55C7E1274bE5db2275a0BDd055f81e8263b7954",
    "1000000000000000000",
    "90",
    "15",
    "5",
    "1000000000000000000",
    "1000000000000000000",
    "30",
    "0",
    "100000"
  ],
  "numDeployments": 1,
  "solcInputHash": "6e1375724855e42d36d93bf6f2c45f96",
  "bytecode": "0x60a0346200021657601f6200555838819003918201601f191683019291906001600160401b038411838510176200021b57816101409284926040968752833981010312620002165780516001600160a01b0391828216918290036200021657839160208083015184840151606085015160808601519160a08701519360c08801519560e0890151976101206101008b01519a01519b60ff60009c8d8054825194339082167f8be0079c531659141344cd1fd0a4f28419497f9722a3daafe3b4186f6b6457e08480a36001600160a81b0319163360a085901b198116919091179091558e52600185528d205416620001d4575081600b917f6719d08c1888103bea251a4ed56406bd0c3e69723c8a1686e017e7bbe159b6f88f9d9c9b9a9998979695948e808f3381526001845220600160ff1982541617905551338152a16080528a805252898920556001885288882055600287528787205560038652868620556004855285852055600584528484205560068352838320556007825282822055600881522055516153269081620002328239608051818181610538015281816105cb0152818161077d01528181610e1101528181610e9a0152818161136e01528181611e14015281816135e401526145e20152f35b62461bcd60e51b815260048101839052601960248201527f4163636f756e7420697320616c726561647920706175736572000000000000006044820152606490fd5b600080fd5b634e487b7160e01b600052604160045260246000fdfe6080604052600436101561001b575b361561001957600080fd5b005b60003560e01c8063026e402b146103cc5780630479d644146103c7578063052d9e7e146103c257806310154bad146103bd578063145aa116146103b85780631a203257146103b35780631cfe4f0b146103ae578063291d9549146103a95780632fa4d12b146103a457806336f1635f1461039f578063386c024a1461039a5780633985c4e6146103955780633af32abf146102f05780633f4ba83a146103905780634021d4d51461038b578063410ae02c146102c357806346fbf68e14610331578063473849bd1461038657806347abfdbf1461038157806349955e391461037c57806351508f0a1461037757806351fb012d14610372578063525eba211461036d5780635c975abb146103685780635e593eff1461036357806365d5d4201461035e578063682dbc221461035957806368706e54146103545780636b2c0f551461034f5780636d3087831461034a5780636ea69d62146103455780636ef8d66d1461034057806371bc02161461033b5780637a50dbd21461033657806380f51c121461033157806382d7b4b81461032c57806382dc1ec4146103275780638338f0e51461032257806383cfb3181461031d5780638456cb591461031857806388d996e81461031357806389f9aab51461030e5780638a74d5fe146103095780638da5cb5b1461030457806390e360f8146102ff5780639146f110146102fa57806392bb243c146102f55780639b19251a146102f0578063a036e799146102eb578063a310624f146102e6578063acc62ccf146102e1578063b4f7fa34146102dc578063c8f9f984146102d7578063dcfdc1e1146102d2578063e79b7a51146102cd578063e909156d146102c8578063eb505dd5146102c3578063eecefef8146102be578063f2fde38b146102b95763fa52c7d80361000e57612acb565b61298a565b612769565b6111d6565b612613565b6125c3565b612544565b612507565b6124bd565b612463565b61241f565b61239d565b610fc4565b6122bd565b612191565b612160565b612139565b6120d8565b612034565b611f80565b611ef7565b611ed9565b611ebb565b611e84565b611de7565b611215565b611c0a565b611b0d565b611af3565b611acc565b611a91565b611a5a565b611a12565b61198c565b611870565b61171b565b6116f5565b61164f565b61162c565b6115e4565b611503565b61149d565b611254565b6110ca565b611003565b6109b3565b610933565b61091a565b6108f3565b610817565b6107f9565b6107a1565b61073e565b610641565b6105f9565b6105ab565b610416565b600435906001600160a01b03821682036103e757565b600080fd5b602435906001600160a01b03821682036103e757565b35906001600160a01b03821682036103e757565b346103e75760403660031901126103e75761042f6103d1565b60243561044460ff60005460a01c1615612b50565b610458670de0b6b3a7640000821015613652565b7f2e289e5a72f8e92e344eb866e0a32621f332835d2df2cf1f76e5a345b23cf1ea610496836001600160a01b03166000526008602052604060002090565b916104b56104a5845460ff1690565b6104ae81612408565b151561369e565b6001830160036105218254956104d2600282019788549087614c6f565b9661050b6104f63360058501906001600160a01b0316600052602052604060002090565b98610502818b54613231565b8a558254613231565b9055610518858554613231565b84555460ff1690565b61052a81612408565b14610588575b61055c8230337f00000000000000000000000000000000000000000000000000000000000000006136ea565b54925460408051948552602085019190915283015233926001600160a01b03169180606081015b0390a3005b61059c61059783600454613231565b600455565b6105a68154614bbb565b610530565b346103e75760003660031901126103e75760206040516001600160a01b037f0000000000000000000000000000000000000000000000000000000000000000168152f35b801515036103e757565b346103e75760203660031901126103e757600435610616816105ef565b61062c6001600160a01b03600054163314613d38565b60ff8019600354169115151617600355600080f35b346103e75760203660031901126103e75761065a6103d1565b6001600160a01b0361067181600054163314613d38565b8116600052600260205260ff604060002054166106f9576106f4816106da6106cd7fee1504a83b6d4a361f4c1dc78ab59bfa30d6a3b6612c403e86bb01ef2984295f946001600160a01b03166000526002602052604060002090565b805460ff19166001179055565b6040516001600160a01b0390911681529081906020820190565b0390a1005b60405162461bcd60e51b815260206004820152601360248201527f416c72656164792077686974656c6973746564000000000000000000000000006044820152606490fd5b346103e75760203660031901126103e75761077460005461076460ff8260a01c16613d83565b6001600160a01b03163314613d38565b610019600435337f00000000000000000000000000000000000000000000000000000000000000006139a1565b346103e75760203660031901126103e7576107c86001600160a01b03600054163314613d38565b6008600052600b6020526004357f71f482bdabd1ea844d62c952b094e632959690d7448ca2aab34034ec9856935855005b346103e75760003660031901126103e7576020600654604051908152f35b346103e75760203660031901126103e7576108306103d1565b6001600160a01b0361084781600054163314613d38565b8116600052600260205260ff60406000205416156108ae576106f4816106da6108a47f270d9b30cf5b0793bbfd54c9d5b94aeb49462b8148399000265144a8722da6b6946001600160a01b03166000526002602052604060002090565b805460ff19169055565b60405162461bcd60e51b815260206004820152600f60248201527f4e6f742077686974656c697374656400000000000000000000000000000000006044820152606490fd5b346103e75760003660031901126103e75760206001600160a01b03600c5416604051908152f35b346103e75760003660031901126103e7576100196132e5565b346103e75760003660031901126103e757602061094e6142c0565b604051908152f35b9181601f840112156103e7578235916001600160401b0383116103e757602083818601950101116103e757565b9181601f840112156103e7578235916001600160401b0383116103e7576020808501948460051b0101116103e757565b346103e7576040806003193601126103e7576001600160401b036004358181116103e7576109e5903690600401610956565b91906024358281116103e757610ac9610a05610ace923690600401610983565b939095610ac188610abb600099610a2360ff8c5460a01c1615612b50565b825198610ab460209a8b610aa8898b83850185610a85304684909160399282526bffffffffffffffffffffffff199060601b1660208201527f536c61736800000000000000000000000000000000000000000000000000000060348201520190565b0395610a99601f19978881018352826118df565b5190209951998a948501613b1d565b039081018652856118df565b3691612069565b90613e1b565b503691611937565b614cd7565b93610afc610af5610ae960608801516001600160401b031690565b6001600160401b031690565b4210613b33565b80850192610b21620f424082610b1987516001600160401b031690565b161115613b7f565b610b6b610b3585516001600160401b031690565b6008600052600b602052827f71f482bdabd1ea844d62c952b094e632959690d7448ca2aab34034ec985693585491161115613bcb565b82860195610bb5610bb0610bac610ba5610b8c8b516001600160401b031690565b6001600160401b0316600052600a602052604060002090565b5460ff1690565b1590565b613c17565b610bcc6106cd610b8c89516001600160401b031690565b80516001600160a01b0316600081815260086020526040902095610bf1875460ff1690565b90610bfb82612408565b60038214808015610fb1575b610c1090613116565b600195868a0191610c57835495610c50610c49610c40610c3a610ae98a516001600160401b031690565b8a613c63565b620f4240900490565b8098613994565b8555612408565b610f5e575b6002610c698b5460ff1690565b610c7281612408565b149081610f3f575b50610ef5575b949394549789610c8f84613c96565b88519a8b52600060208c015260408b01526001600160a01b03948516998a907f2e289e5a72f8e92e344eb866e0a32621f332835d2df2cf1f76e5a345b23cf1ea90606090a360030180549151610cee906001600160401b031683613c63565b620f424090049182610cff91613994565b9055610d0a91613231565b94879360a00184845b610d98575b5050505050610d717f10863f35bc5db9fda133333468bf7b1ceaaa88cb4263c061f890f97b79bf9008949596610d64610d5f610d57610d929588613994565b600e54613231565b600e55565b516001600160401b031690565b915192839283602090939291936001600160401b0360408201951681520152565b0390a280f35b81518051821015610eef5781610dad91613cb7565b5183810189610dbd82518a613231565b11610ede575b805180610ddd575b505050610dd79061328a565b84610d13565b610dec90610dd7949399613231565b9786610dff82516001600160a01b031690565b808216610e6c57505050610e358151337f00000000000000000000000000000000000000000000000000000000000000006139a1565b51885190815233907fb1375221b23a15d2f6887c7dbdc6745a07d9a5245076d51fb41879590ebbd2a390602090a25b903880610dcb565b7fb1375221b23a15d2f6887c7dbdc6745a07d9a5245076d51fb41879590ebbd2a392610ebe610ecb928651907f00000000000000000000000000000000000000000000000000000000000000006139a1565b516001600160a01b031690565b92518b51908152921691602090a2610e64565b610ee8888b613994565b8152610dc3565b50610d18565b610f3a610f1b610ae9610f15610ae960808a01516001600160401b031690565b43613231565b60078b01906001600160401b03166001600160401b0319825416179055565b610c80565b9050610f5560808701516001600160401b031690565b16151538610c7a565b610f6d61059785600454613994565b80610f8260808801516001600160401b031690565b1615801590610f9f575b15610c5c57610f9a85614a60565b610c5c565b50610fac610bac86614301565b610f8c565b50610fbb83612408565b60028314610c07565b346103e75760203660031901126103e7576001600160a01b03610fe56103d1565b166000526002602052602060ff604060002054166040519015158152f35b346103e75760008060031936011261107457338152600160205261102d60ff604083205416615138565b60ff60a01b19815461104460ff8260a01c16613d83565b1681557f5db9ee0a495bf2e6ff9c91a7834c1ba4fdd244a5e8aa4e537bd38aeae4b073aa6020604051338152a180f35b80fd5b60208082019080835283518092528060408094019401926000905b8382106110a157505050505090565b845180516001600160a01b03168752830151868401529485019493820193600190910190611092565b346103e75760003660031901126103e7576007546110e781612052565b906110f560405192836118df565b808252601f1961110482612052565b0160005b8181106111b057505060005b81811061112d57604051806111298582611077565b0390f35b8061115061113d6111ab93612281565b90546001600160a01b039160031b1c1690565b600161116f826001600160a01b03166000526008602052604060002090565b015461118b61117c611900565b6001600160a01b039093168352565b602082015261119a8286613cb7565b526111a58185613cb7565b5061328a565b611114565b6020906111bb6142e8565b82828701015201611108565b6004359060098210156103e757565b346103e75760203660031901126103e7576111ef6111c7565b600981101561121057600052600b6020526020604060002054604051908152f35b6123f2565b346103e75760203660031901126103e7576001600160a01b036112366103d1565b166000526001602052602060ff604060002054166040519015158152f35b346103e75760203660031901126103e75761126d6103d1565b61128a816001600160a01b03166000526008602052604060002090565b805460ff169061129982612408565b6112a482151561369e565b33600090815260058201602052604090206002600052600b602052917fa50eece07c7db1631545c0069bd8f5f54d5935e215d59097edf258a44ba91634546112eb82612408565b60018092149160009481600281830192019361130b855463ffffffff1690565b958015925b6113d0575b855463ffffffff191663ffffffff8816178655898989611336821515613922565b61136560038201916004835491019081549161135e611356848489614c8d565b968794613994565b9055613994565b905561139281337f00000000000000000000000000000000000000000000000000000000000000006139a1565b60405190815233916001600160a01b0316907f4d10bd049775c77bd7f255195afba5088028ecb3c7c277d393ccff7934f2f92c908060208101610583565b85546113e99060201c63ffffffff165b63ffffffff1690565b63ffffffff88161015611498578083611469575b156113155761145f611430889a611429889a88999697989063ffffffff16600052602052604060002090565b5490613231565b9961145a61144e82899063ffffffff16600052602052604060002090565b60016000918281550155565b61390d565b9694939291611310565b5061149082866114898a889063ffffffff16600052602052604060002090565b0154613231565b4310156113fd565b611315565b346103e75760403660031901126103e75760206114cd6114bb6103d1565b602435906114c8826105ef565b61437b565b6040519015158152f35b600435906001600160401b03821682036103e757565b604435906001600160401b03821682036103e757565b346103e75760203660031901126103e7576115a16115af6115226114d7565b33600052600860205261158481600760406000206115446104a5825460ff1690565b61155b6127106001600160401b03851611156139ed565b019067ffffffffffffffff60801b1967ffffffffffffffff60801b83549260801b169116179055565b604080516001600160401b03909216602083015290928391820190565b03601f1981018352826118df565b7f3683b59f352bc42833c21c736ba7631d3e35fed49723ebac8298d4e0f36e512c604051806115df339482613a39565b0390a2005b346103e75760203660031901126103e7576115fd6103d1565b6001600160a01b039061161582600054163314613d38565b166001600160a01b0319600d541617600d55600080f35b346103e75760003660031901126103e757602060ff600354166040519015158152f35b346103e75760603660031901126103e7576116686103d1565b6116706114ed565b61168260ff60005460a01c1615612b50565b60ff6003541661169a575b6100199160243590612e45565b33600052600260205260ff6040600020541661168d5760405162461bcd60e51b815260206004820152601960248201527f43616c6c6572206973206e6f742077686974656c6973746564000000000000006044820152606490fd5b346103e75760003660031901126103e757602060ff60005460a01c166040519015158152f35b346103e75760203660031901126103e7576115a16117c860043580611753336001600160a01b03166000526008602052604060002090565b805460ff1661176181612408565b61176c81151561369e565b6005600052600b6020526117a37febae6141bae5521e99e0a8d610356b0f501fea54980b59c84841db43ba7204f454841015612d18565b6006820191825484106117f8575b505055604051928391602083019190602083019252565b7f3683b59f352bc42833c21c736ba7631d3e35fed49723ebac8298d4e0f36e512c604051806115df339482613ad1565b61181160038361180a61186995612408565b1415613a85565b6006600052600b602052600761184c610ae97f0387e9d1203691d8e3362a7e4c6723de358a4010d7f31ecbec3fbfc61d1c75fc5b5443613231565b9101906001600160401b03166001600160401b0319825416179055565b38806117b1565b346103e75760003660031901126103e7576020600454604051908152f35b634e487b7160e01b600052604160045260246000fd5b604081019081106001600160401b038211176118bf57604052565b61188e565b60c081019081106001600160401b038211176118bf57604052565b90601f801991011681019081106001600160401b038211176118bf57604052565b6040519061190d826118a4565b565b6040519061190d826118c4565b6001600160401b0381116118bf57601f01601f191660200190565b9291926119438261191c565b9161195160405193846118df565b8294818452818301116103e7578281602093846000960137010152565b9080601f830112156103e75781602061198993359101611937565b90565b346103e75760803660031901126103e7576001600160401b036004358181116103e7576119bd90369060040161196e565b6024358281116103e7576119d5903690600401610983565b916044358481116103e7576119ee903690600401610983565b50506064359384116103e757611a0b610019943690600401610983565b5050614264565b346103e75760203660031901126103e757611a2b6103d1565b6001600160a01b0390611a4382600054163314613d38565b166001600160a01b0319600c541617600c55600080f35b346103e75760203660031901126103e757610019611a766103d1565b611a8c6001600160a01b03600054163314613d38565b615237565b346103e75760203660031901126103e75760206001600160a01b0380611ab56103d1565b166000526009825260406000205416604051908152f35b346103e75760003660031901126103e75760206001600160a01b03600d5416604051908152f35b346103e75760003660031901126103e75761001933615237565b346103e75760203660031901126103e7576001600160a01b03611b2e6103d1565b1660009080825260086020526040822090600260ff835416611b4f81612408565b03611bc557611b9e82611b85600760019501916106cd611b7d610ae985546001600160401b039060401c1690565b4310156134f0565b80546fffffffffffffffff000000000000000019169055565b7fd5e59fa85493a77fb57f6bf9080f2f71fde9de0eadc62b27b43b6263f3f1f59a8380a380f35b60405162461bcd60e51b815260206004820152601760248201527f56616c696461746f72206e6f7420756e626f6e64696e670000000000000000006044820152606490fd5b346103e75760203660031901126103e7576115a1611d80611c296103d1565b611d2781611c4a336001600160a01b03166000526008602052604060002090565b611ce1611cd18254611c6960ff8216611c6281612408565b151561307e565b6001600160a01b0390611caa82611ca3611c96896001600160a01b03166000526009602052604060002090565b546001600160a01b031690565b1615612c80565b3382871603611db0575b60081c166001600160a01b03166000526009602052604060002090565b6001600160a01b03198154169055565b907fffffffffffffffffffffff0000000000000000000000000000000000000000ff74ffffffffffffffffffffffffffffffffffffffff0083549260081b169116179055565b611d6333611d48836001600160a01b03166000526009602052604060002090565b906001600160a01b03166001600160a01b0319825416179055565b604080516001600160a01b03909216602083015290928391820190565b7f3683b59f352bc42833c21c736ba7631d3e35fed49723ebac8298d4e0f36e512c604051806115df3394826130ca565b611de2611dd3610ba5886001600160a01b03166000526008602052604060002090565b611ddc81612408565b15612be8565b611cb4565b346103e75760008060031936011261107457600e548015611e3f57611e38906001600160a01b03600d54167f00000000000000000000000000000000000000000000000000000000000000006139a1565b80600e5580f35b60405162461bcd60e51b815260206004820152601260248201527f4e6f7468696e6720746f20636f6c6c65637400000000000000000000000000006044820152606490fd5b346103e75760203660031901126103e757610019611ea06103d1565b611eb66001600160a01b03600054163314613d38565b615184565b346103e75760003660031901126103e7576020600e54604051908152f35b346103e75760003660031901126103e7576020600554604051908152f35b346103e757600080600319360112611074573381526001602052611f2160ff604083205416615138565b7401000000000000000000000000000000000000000060ff60a01b198254611f4f60ff8260a01c1615612b50565b161781557f62e78cea01bee320cd4e420270b5ea74000d11b0c9f74754ebdbfc544b05a2586020604051338152a180f35b346103e75760403660031901126103e757611f996103d1565b602435670de0b6b3a76400008110611fef57816001600160a01b0361001993166000526008602052604060002090611fd56104a5835460ff1690565b611fe9600183015460028401549085614c8d565b91614546565b60405162461bcd60e51b815260206004820152601960248201527f4d696e696d616c20616d6f756e742069732031207368617265000000000000006044820152606490fd5b346103e75760003660031901126103e7576020600754604051908152f35b6001600160401b0381116118bf5760051b60200190565b9291909261207684612052565b9161208460405193846118df565b829480845260208094019060051b8301928284116103e75780915b8483106120ae57505050505050565b82356001600160401b0381116103e75786916120cd868493860161196e565b81520192019161209f565b346103e75760403660031901126103e7576001600160401b036004358181116103e75761210990369060040161196e565b906024359081116103e757366023820112156103e757602091610abb6114cd923690602481600401359101612069565b346103e75760003660031901126103e75760206001600160a01b0360005416604051908152f35b346103e75760203660031901126103e757600435600052600a602052602060ff604060002054166040519015158152f35b346103e75760603660031901126103e7576121aa6103d1565b6001600160401b036024358181116103e7576121ca903690600401610956565b6044359283116103e7576121ea6001600160a01b03933690600401610956565b939094169384600052600860205260ff60406000205416906004821015611210577f3683b59f352bc42833c21c736ba7631d3e35fed49723ebac8298d4e0f36e512c9461223b61226093151561369e565b612252604051958695606087526060870191613ccb565b918483036020860152613ccb565b3360408301520390a2005b634e487b7160e01b600052603260045260246000fd5b6007548110156122b85760076000527fa66cc928b5edb82af9bd49922954155ab7b0942694bea4ce44661d9a8736c6880190600090565b61226b565b346103e75760203660031901126103e7576004356006548110156103e7576001600160a01b0360209160066000527ff652222313e28459528d920b65115c16c04f3efc82aaedc97be59f3f377c0d3f015416604051908152f35b6020806003198301126103e757600435916001600160401b0383116103e757806023840112156103e757826004013561234f81612052565b9361235d60405195866118df565b81855260248486019260051b8201019283116103e757602401905b828210612386575050505090565b83809161239284610402565b815201910190612378565b346103e7576123ab36612317565b6001600160a01b03906123c382600054163314613d38565b60005b815181101561001957806123e8846123e16123ed9486613cb7565b5116615237565b61328a565b6123c6565b634e487b7160e01b600052602160045260246000fd5b6004111561121057565b9060048210156112105752565b346103e75760203660031901126103e7576001600160a01b036124406103d1565b166000526008602052602060ff604060002054166124616040518092612412565bf35b346103e75760203660031901126103e7576004356007548110156103e7576001600160a01b0360209160076000527fa66cc928b5edb82af9bd49922954155ab7b0942694bea4ce44661d9a8736c688015416604051908152f35b346103e75760203660031901126103e7576001600160a01b036124de6103d1565b16600052600860205260ff60406000205416600481101561121057602090600360405191148152f35b346103e75760203660031901126103e7576001600160a01b036125286103d1565b1660005260086020526020600160406000200154604051908152f35b346103e75760403660031901126103e75761255d6103d1565b602435612574670de0b6b3a7640000821015613652565b6001600160a01b038216600052600860205260406000209060ff825416926004841015611210576125a961001994151561369e565b6125bd600184015460028501549084614c6f565b92614546565b346103e7576125d136612317565b6001600160a01b03906125e982600054163314613d38565b60005b815181101561001957806123e88461260761260e9486613cb7565b5116615184565b6125ec565b346103e75760403660031901126103e75761262c6111c7565b602435906001600160a01b03600c54163303612672578061264f61265c926126b7565b6003811461265f576126c1565b55005b61266d836007541115613cec565b6126c1565b60405162461bcd60e51b815260206004820152601a60248201527f43616c6c6572206973206e6f7420676f7620636f6e74726163740000000000006044820152606490fd5b6009111561121057565b600981101561121057600052600b602052604060002090565b60209182825260e082016001600160a01b038251168484015283820151906040918285015281830151606085015260608301519460c0608086015285518092528061010086019601926000905b83821061274957505050505060a081608060c093015182850152015191015290565b845180518952830151888401529687019693820193600190910190612727565b346103e75760403660031901126103e7576127826103d1565b61278a6103ec565b906127936143f9565b506127d16127b4826001600160a01b03166000526008602052604060002090565b9260058401906001600160a01b0316600052602052604060002090565b8054906127e8600185015460028601549084614c8d565b60026000908152600b602052928392917fa50eece07c7db1631545c0069bd8f5f54d5935e215d59097edf258a44ba9163454946001612828895460ff1690565b61283181612408565b146002600186019501549663ffffffff906128586113e0838b16809460209c8d1c1661442a565b9261286284614440565b97811593865b8681106128d9575050505050505060048861289561289b9360036111299c01549384930154938491614c8d565b96614c8d565b946128b66128a761190f565b6001600160a01b039098168852565b86015260408501526060840152608083015260a0820152604051918291826126da565b85858e8361292e8f9c612926838f61290b6129068d6128f88e86613231565b600052602052604060002090565b614490565b6129158383613cb7565b526129208282613cb7565b50613cb7565b515190613231565b9b8894612967575b5050505061294d575b6129489061328a565b612868565b9a61295f612948916129268e8e613cb7565b9b905061293f565b61297e94509061297691613cb7565b510151613231565b431015858e838e612936565b346103e75760203660031901126103e7576129a36103d1565b6000908154906001600160a01b03808316916129c0338414613d38565b169182156129fd576001600160a01b031916821783557f8be0079c531659141344cd1fd0a4f28419497f9722a3daafe3b4186f6b6457e08380a380f35b60405162461bcd60e51b815260206004820152602660248201527f4f776e61626c653a206e6577206f776e657220697320746865207a65726f206160448201527f64647265737300000000000000000000000000000000000000000000000000006064820152608490fd5b989693909a9995926001600160a01b03610120999693612a8d8c61014081019f612412565b1660208b015260408a01526060890152608088015260a087015260c08601526001600160401b03928380921660e08701521661010085015216910152565b346103e75760203660031901126103e7576001600160a01b0380612aed6103d1565b16600052600860205260406000206111298154600183015492600281015494600382015491600481015460076006830154920154936040519889986001600160401b039760ff898960801c1699808a60401c169916978260081c1691168b612a68565b15612b5757565b60405162461bcd60e51b815260206004820152601060248201527f5061757361626c653a20706175736564000000000000000000000000000000006044820152606490fd5b15612ba357565b60405162461bcd60e51b815260206004820152601860248201527f56616c696461746f7220697320696e697469616c697a656400000000000000006044820152606490fd5b15612bef57565b60405162461bcd60e51b815260206004820152601960248201527f5369676e6572206973206f746865722076616c696461746f72000000000000006044820152606490fd5b15612c3b57565b60405162461bcd60e51b815260206004820152601960248201527f56616c696461746f72206973206f74686572207369676e6572000000000000006044820152606490fd5b15612c8757565b60405162461bcd60e51b815260206004820152601360248201527f5369676e657220616c72656164792075736564000000000000000000000000006044820152606490fd5b15612cd357565b60405162461bcd60e51b815260206004820152601760248201527f496e76616c696420636f6d6d697373696f6e20726174650000000000000000006044820152606490fd5b15612d1f57565b606460405162461bcd60e51b815260206004820152602060248201527f496e73756666696369656e74206d696e2073656c662064656c65676174696f6e6044820152fd5b60065490680100000000000000008210156118bf5760018201806006558210156122b85761190d9160066000527ff652222313e28459528d920b65115c16c04f3efc82aaedc97be59f3f377c0d3f01906001600160a01b03166001600160a01b0319825416179055565b919082519283825260005b848110612df9575050826000602080949584010152601f8019910116010190565b602081830181015184830182015201612dd8565b91906040612e406000926060865260046060870152631a5b9a5d60e21b608087015260a0602087015260a0860190612dcd565b930152565b6115a16130499293612fe1816007612e70336001600160a01b03166000526008602052604060002090565b612e8d612e7e825460ff1690565b612e8781612408565b15612b9c565b612eb0611dd3610ba5896001600160a01b03166000526008602052604060002090565b612ee26001600160a01b03612edb611c96336001600160a01b03166000526009602052604060002090565b1615612c34565b612f1a612f14612f08611c968a6001600160a01b03166000526009602052604060002090565b6001600160a01b031690565b15612c80565b612f316127106001600160401b0385161115612ccc565b6005600052600b602052612f687febae6141bae5521e99e0a8d610356b0f501fea54980b59c84841db43ba7204f4548a1015612d18565b80547fffffffffffffffffffffff0000000000000000000000000000000000000000001674ffffffffffffffffffffffffffffffffffffffff00600889901b161760011781556006810189905501805467ffffffffffffffff60801b191660809290921b67ffffffffffffffff60801b16919091179055565b612fea33612d63565b61300b33611d48856001600160a01b03166000526009602052604060002090565b613015853361353c565b604051948593602085019160409194936001600160401b03916001600160a01b036060860197168552602085015216910152565b7f3683b59f352bc42833c21c736ba7631d3e35fed49723ebac8298d4e0f36e512c60405180613079339482612e0d565b0390a2565b1561308557565b60405162461bcd60e51b815260206004820152601960248201527f56616c696461746f72206e6f7420696e697469616c697a6564000000000000006044820152606490fd5b91906040612e4060009260608652600660608701527f7369676e65720000000000000000000000000000000000000000000000000000608087015260a0602087015260a0860190612dcd565b1561311d57565b60405162461bcd60e51b815260206004820152601860248201527f496e76616c69642076616c696461746f722073746174757300000000000000006044820152606490fd5b1561316957565b60405162461bcd60e51b815260206004820152601660248201527f426f6e6420626c6f636b206e6f742072656163686564000000000000000000006044820152606490fd5b156131b557565b60405162461bcd60e51b815260206004820152601b60248201527f546f6f206672657175656e742076616c696461746f7220626f6e6400000000006044820152606490fd5b634e487b7160e01b600052601160045260246000fd5b906001820180921161321e57565b6131fa565b906020820180921161321e57565b9190820180921161321e57565b1561324557565b60405162461bcd60e51b815260206004820152601360248201527f4e6f742068617665206d696e20746f6b656e73000000000000000000000000006044820152606490fd5b600019811461321e5760010190565b156132a057565b60405162461bcd60e51b815260206004820152601360248201527f496e73756666696369656e7420746f6b656e73000000000000000000000000006044820152606490fd5b336001600160a01b0361330e611c96836001600160a01b03166000526009602052604060002090565b166134cb575b613331816001600160a01b03166000526008602052604060002090565b805460ff169161334083612408565b6133576001938481149081156134b7575b50613116565b613379613371610ae960078501546001600160401b031690565b431015613162565b6133876005544310156131ae565b6007600052600b6020526133c26133bd7ff5559028dc9ba50d75343c779b2f75e13a84a14662932fc67a486f263ca31a96611845565b600555565b6133d36133ce82614301565b61323e565b6003600052600b6020527f64c15cc42be7899b001f818cf4433057002112c418d1d3a67cd5cb453051d33e549081600754106134a05760001992600092835b81811061343e575b50509061343361190d9561343894930194855411613299565b6148cf565b54614bbb565b858761346861344f61113d85612281565b6001600160a01b03166000526008602052604060002090565b01541061347e575b6134799061328a565b613412565b94508493508561349361344f61113d87612281565b015494856134705761341a565b61190d939291506134b0906147e5565b0154614bbb565b600291506134c481612408565b1438613351565b611c966134eb916001600160a01b03166000526009602052604060002090565b613314565b156134f757565b60405162461bcd60e51b815260206004820152601860248201527f556e626f6e6420626c6f636b206e6f74207265616368656400000000000000006044820152606490fd5b9061354f60ff60005460a01c1615612b50565b613563670de0b6b3a7640000821015613652565b7f2e289e5a72f8e92e344eb866e0a32621f332835d2df2cf1f76e5a345b23cf1ea6135a1836001600160a01b03166000526008602052604060002090565b916135b06104a5845460ff1690565b6001830160036135cd8254956104d2600282019788549087614c6f565b6135d681612408565b14613634575b6136088230337f00000000000000000000000000000000000000000000000000000000000000006136ea565b54925460408051948552602085019190915283015233926001600160a01b03169180606081015b0390a3565b61364361059783600454613231565b61364d8154614bbb565b6135dc565b1561365957565b60405162461bcd60e51b815260206004820152601860248201527f4d696e696d616c20616d6f756e7420697320312043454c5200000000000000006044820152606490fd5b156136a557565b60405162461bcd60e51b815260206004820152601c60248201527f56616c696461746f72206973206e6f7420696e697469616c697a6564000000006044820152606490fd5b9290604051926323b872dd60e01b60208501526001600160a01b03809216602485015216604483015260648201526064815260a08101918183106001600160401b038411176118bf5761190d926040526137c6565b908160209103126103e75751611989816105ef565b1561375b57565b60405162461bcd60e51b815260206004820152602a60248201527f5361666545524332303a204552433230206f7065726174696f6e20646964206e60448201527f6f742073756363656564000000000000000000000000000000000000000000006064820152608490fd5b6001600160a01b031690604051906137dd826118a4565b6020928383527f5361666545524332303a206c6f772d6c6576656c2063616c6c206661696c656484840152803b15613854576000828192828761382f9796519301915af1613829613899565b906138c9565b8051908161383c57505050565b8261190d9361384f93830101910161373f565b613754565b60405162461bcd60e51b815260048101859052601d60248201527f416464726573733a2063616c6c20746f206e6f6e2d636f6e74726163740000006044820152606490fd5b3d156138c4573d906138aa8261191c565b916138b860405193846118df565b82523d6000602084013e565b606090565b909190156138d5575090565b8151156138e55750805190602001fd5b60405162461bcd60e51b815260206004820152908190613909906024830190612dcd565b0390fd5b63ffffffff80911690811461321e5760010190565b1561392957565b60405162461bcd60e51b815260206004820152602560248201527f4e6f20756e64656c65676174696f6e20726561647920746f20626520636f6d7060448201527f6c657465640000000000000000000000000000000000000000000000000000006064820152608490fd5b9190820391821161321e57565b916001600160a01b036040519263a9059cbb60e01b602085015216602483015260448201526044815260808101918183106001600160401b038411176118bf5761190d926040526137c6565b156139f457565b60405162461bcd60e51b815260206004820152601060248201527f496e76616c6964206e65772072617465000000000000000000000000000000006044820152606490fd5b91906040612e4060009260608652600a60608701527f636f6d6d697373696f6e00000000000000000000000000000000000000000000608087015260a0602087015260a0860190612dcd565b15613a8c57565b60405162461bcd60e51b815260206004820152601360248201527f56616c696461746f7220697320626f6e646564000000000000000000000000006044820152606490fd5b91906040612e4060009260608652601360608701527f6d696e2d73656c662d64656c65676174696f6e00000000000000000000000000608087015260a0602087015260a0860190612dcd565b9092809260209483528483013701016000815290565b15613b3a57565b60405162461bcd60e51b815260206004820152600d60248201527f536c6173682065787069726564000000000000000000000000000000000000006044820152606490fd5b15613b8657565b60405162461bcd60e51b815260206004820152601460248201527f496e76616c696420736c61736820666163746f720000000000000000000000006044820152606490fd5b15613bd257565b60405162461bcd60e51b815260206004820152601760248201527f457863656564206d617820736c61736820666163746f720000000000000000006044820152606490fd5b15613c1e57565b60405162461bcd60e51b815260206004820152601060248201527f5573656420736c617368206e6f6e6365000000000000000000000000000000006044820152606490fd5b8181029291811591840414171561321e57565b8115613c80570490565b634e487b7160e01b600052601260045260246000fd5b600160ff1b811461321e5760000390565b8051600610156122b85760e00190565b80518210156122b85760209160051b010190565b908060209392818452848401376000828201840152601f01601f1916010190565b15613cf357565b60405162461bcd60e51b815260206004820152600d60248201527f696e76616c69642076616c7565000000000000000000000000000000000000006044820152606490fd5b15613d3f57565b606460405162461bcd60e51b815260206004820152602060248201527f4f776e61626c653a2063616c6c6572206973206e6f7420746865206f776e65726044820152fd5b15613d8a57565b60405162461bcd60e51b815260206004820152601460248201527f5061757361626c653a206e6f74207061757365640000000000000000000000006044820152606490fd5b15613dd657565b60405162461bcd60e51b815260206004820152601e60248201527f5369676e657273206e6f7420696e20617363656e64696e67206f7264657200006044820152606490fd5b613e2b9060208151910120614211565b60009081613e376142c0565b91835b8551811015613eea57613e6f613e5a613e538389613cb7565b5184613f2f565b936001600160a01b0380911690851611613dcf565b613e9261344f611c96856001600160a01b03166000526009602052604060002090565b946003613ea0875460ff1690565b613ea981612408565b03613edf57600195860154613ebd91613231565b9484861015613ed55750613ed09061328a565b613e3a565b9550505050505090565b9450613ed09061328a565b60405162461bcd60e51b815260206004820152601260248201527f51756f72756d206e6f74207265616368656400000000000000000000000000006044820152606490fd5b61198991613f3c916140cf565b919091613f4e565b6005111561121057565b613f5781613f44565b80613f5f5750565b613f6881613f44565b60018103613fb55760405162461bcd60e51b815260206004820152601860248201527f45434453413a20696e76616c6964207369676e617475726500000000000000006044820152606490fd5b613fbe81613f44565b6002810361400b5760405162461bcd60e51b815260206004820152601f60248201527f45434453413a20696e76616c6964207369676e6174757265206c656e677468006044820152606490fd5b61401481613f44565b6003810361406c5760405162461bcd60e51b815260206004820152602260248201527f45434453413a20696e76616c6964207369676e6174757265202773272076616c604482015261756560f01b6064820152608490fd5b80614078600492613f44565b1461407f57565b60405162461bcd60e51b815260206004820152602260248201527f45434453413a20696e76616c6964207369676e6174757265202776272076616c604482015261756560f01b6064820152608490fd5b8151604181036140fc5750906140f8916020820151906060604084015193015160001a90614164565b9091565b60400361414e5760406020830151920151918260ff1c91601b830180931161321e5760ff7f7fffffffffffffffffffffffffffffffffffffffffffffffffffffffffffffff6140f89516931690614164565b5050600090600290565b6040513d6000823e3d90fd5b9291907f7fffffffffffffffffffffffffffffff5d576e7357a4501ddfe92f46681b20a083116142055760ff16601b811415806141fa575b6141ee579160809493916020936040519384528484015260408301526060820152600093849182805260015afa156141e95781516001600160a01b038116156141e3579190565b50600190565b614158565b50505050600090600490565b50601c81141561419c565b50505050600090600390565b60405160208101917f19457468657265756d205369676e6564204d6573736167653a0a3332000000008352603c820152603c8152606081018181106001600160401b038211176118bf5760405251902090565b90610abb90614274933691612069565b1561427b57565b60405162461bcd60e51b815260206004820152601560248201527f4661696c656420746f20766572696679207369677300000000000000000000006044820152606490fd5b6004548060011b908082046002149015171561321e57600390046001810180911161321e5790565b604051906142f5826118a4565b60006020838281520152565b6000906001600160a01b03811682526008602052604082209060018201549060048452600b602052604084205482106143755760069161435a6143679260058601906001600160a01b0316600052602052604060002090565b5490600285015491614c8d565b910154116119895750600190565b50505090565b6000916001600160a01b03821683526008602052604083209160018301549160048552600b602052604085205483106143f2576143bc575b50505050600190565b60069161435a6143e29260058601906001600160a01b0316600052602052604060002090565b91015411611989578080806143b3565b5050505090565b60405190614406826118c4565b600060a0838281528260208201528260408201526060808201528260808201520152565b63ffffffff918216908216039190821161321e57565b9061444a82612052565b61445760405191826118df565b8281528092614468601f1991612052565b019060005b82811061447957505050565b6020906144846142e8565b8282850101520161446d565b9060405161449d816118a4565b602060018294805484520154910152565b156144b557565b60405162461bcd60e51b815260206004820152601b60248201527f6e6f7420656e6f7567682072656d61696e696e672073686172657300000000006044820152606490fd5b1561450157565b60405162461bcd60e51b815260206004820152601f60248201527f457863656564206d617820756e64656c65676174696f6e20656e7472696573006044820152606490fd5b90926145683360058401906001600160a01b0316600052602052604060002090565b91614574828454613994565b835561458560028201928354613994565b9182815560018201928061459a878654613994565b8086551415806147d9575b6147c1575b50506145c1835480159081156147ae575b506144ae565b805460ff166145cf81612408565b60018103614644575050505061460681337f00000000000000000000000000000000000000000000000000000000000000006139a1565b60405190815233916001600160a01b0316907f4d10bd049775c77bd7f255195afba5088028ecb3c7c277d393ccff7934f2f92c90806020810161362f565b9161474261474b9260038561467b7f2e289e5a72f8e92e344eb866e0a32621f332835d2df2cf1f76e5a345b23cf1ea989997612408565b14614774575b60028701906146ab600a83546146a463ffffffff91828082169160201c1661442a565b16106144fa565b600381016146d987600483549401938454946146d26146cb878486614c6f565b8097613231565b9055613231565b905581546147039060201c63ffffffff1660018a019063ffffffff16600052602052604060002090565b90815560014391015561472161145a825463ffffffff9060201c1690565b67ffffffff0000000082549160201b169067ffffffff000000001916179055565b54935491613c96565b6040805194855260208501929092529083015233926001600160a01b031691806060810161362f565b61478361059786600454613994565b61479b610bac6001600160a01b038a1633148a61437b565b15614681576147a988614a60565b614681565b670de0b6b3a764000091501015386145bb565b84546147cc91613994565b90556000835538806145aa565b506002855411156145a5565b60075490680100000000000000008210156118bf5760018201806007558210156122b8576148538161190d9360076000527fa66cc928b5edb82af9bd49922954155ab7b0942694bea4ce44661d9a8736c68801906001600160a01b03166001600160a01b0319825416179055565b6001600160a01b031680600052600860205260016040600020600360ff19825416178155600781016fffffffffffffffff000000000000000019815416905501549060045491820180921161321e576003916004557fd5e59fa85493a77fb57f6bf9080f2f71fde9de0eadc62b27b43b6263f3f1f59a600080a3565b6007548210156122b8576007600052817fa66cc928b5edb82af9bd49922954155ab7b0942694bea4ce44661d9a8736c68801916149156001600160a01b03845416614946565b60075411156122b8576148538161190d936007600052906001600160a01b03166001600160a01b0319825416179055565b6001600160a01b0316600090808252600860205260408220600260ff1982541617815560028352600b602052604083205443019081431161321e5760019160078201906fffffffffffffffff000000000000000082549160401b16906fffffffffffffffff00000000000000001916179055015460045490810390811161321e576002926149f47fd5e59fa85493a77fb57f6bf9080f2f71fde9de0eadc62b27b43b6263f3f1f59a92600455565b80a3565b6007548015614a4a57600019810190808210156122b8577fa66cc928b5edb82af9bd49922954155ab7b0942694bea4ce44661d9a8736c687906007600052016001600160a01b03198154169055600755565b634e487b7160e01b600052603160045260246000fd5b6007908154600019810190811161321e5760005b8354811015614b0457614a8961113d82612281565b6001600160a01b03808516911614614aa957614aa49061328a565b614a74565b61190d9350818110614ac5575b5050614ac06149f8565b614946565b614add614ad761113d614afd94612281565b91612281565b90919082549060031b916001600160a01b03809116831b921b1916179055565b3880614ab6565b60405162461bcd60e51b815260206004820152601460248201527f4e6f7420626f6e6465642076616c696461746f720000000000000000000000006044820152606490fd5b15614b5057565b60405162461bcd60e51b815260206004820152602e60248201527f53696e676c652076616c696461746f722073686f756c64206e6f74206861766560448201527f2071756f72756d20746f6b656e730000000000000000000000000000000000006064820152608490fd5b600754600281148015614c65575b15614be1575061190d90614bdb6142c0565b11614b49565b600310614bec575b50565b6003600454041115614bfa57565b60405162461bcd60e51b815260206004820152602b60248201527f53696e676c652076616c696461746f722073686f756c64206e6f74206861766560448201527f20312f3320746f6b656e730000000000000000000000000000000000000000006064820152608490fd5b5060038114614bc9565b918115614c8857614c839061198993613c63565b613c76565b505090565b91908115614c8857614c839061198993613c63565b60405190614caf826118c4565b606060a083600081526000602082015260006040820152600083820152600060808201520152565b614ce8614ce2614ca2565b91614e71565b614cf181614ea8565b92614d04614cfe85613ca7565b51614440565b9060a084019182526000614d1786613ca7565b525b82516020840151511115614e6a57614d3083614e8a565b9060018103614d61575050614d5c614d4f614d4a85614f95565b615060565b6001600160a01b03168552565b614d19565b60028103614d8a575050614d5c614d7a610ae985614f24565b6001600160401b03166020860152565b60038103614db3575050614d5c614da3610ae985614f24565b6001600160401b03166040860152565b60048103614ddc575050614d5c614dcc610ae985614f24565b6001600160401b03166060860152565b60058103614e05575050614d5c614df5610ae985614f24565b6001600160401b03166080860152565b600603614e605750614e3e614e21614e1c85614f95565b615073565b8351614e2c88613ca7565b5191614e388383613cb7565b52613cb7565b50614e51614e4b86613ca7565b5161328a565b614e5a86613ca7565b52614d19565b614d5c908461501b565b9293505050565b906000604051614e80816118a4565b8093602082015252565b614e9390614f24565b9060078260031c921660068110156112105790565b80516040519261010084018481106001600160401b038211176118bf576040526007845260e036602086013783915b83516020850151511115614f1d57614eee84614e8a565b614ef88288613cb7565b516001810180911161321e57614f11614f189389613cb7565b528561501b565b614ed7565b9193509152565b60208082015182510101519060009060005b600a8110614f4357600080fd5b83811a9260079081830291838304148315171561321e57608091607f8616901b17931615614f7957614f749061328a565b614f36565b614f9091929350614f8990613210565b8251613231565b905290565b90614f9f82614f24565b9180519083820180921161321e576020938482019485515184116103e757614fc68261191c565b90614fd460405192836118df565b828252601f19614fe38461191c565b01368284013781965184510160005b84811061500157505050505052565b80836150169284010151848287010152613223565b614ff2565b90600681101561121057806150345750614be990614f24565b6002036103e75761504481614f24565b90805191820180921161321e578181526020015151106103e757565b60148151036103e7576020015160601c90565b9061508561507f6142e8565b92614e71565b905b815160208301515111156151345761509e82614e8a565b90600181036150ca5750506150c56150b8614d4a84614f95565b6001600160a01b03168452565b615087565b60020361512a57506150db82614f95565b80516020918282116103e75782015190820382811161321e577f1fffffffffffffffffffffffffffffffffffffffffffffffffffffffffffffff8116810361321e5760031b1c90840152615087565b6150c5908361501b565b9050565b1561513f57565b60405162461bcd60e51b815260206004820152601460248201527f43616c6c6572206973206e6f74207061757365720000000000000000000000006044820152606490fd5b6001600160a01b0381169081600052600160205260ff604060002054166151f2577f6719d08c1888103bea251a4ed56406bd0c3e69723c8a1686e017e7bbe159b6f8916151e96106cd6020936001600160a01b03166000526001602052604060002090565b604051908152a1565b60405162461bcd60e51b815260206004820152601960248201527f4163636f756e7420697320616c726561647920706175736572000000000000006044820152606490fd5b6001600160a01b0381169081600052600160205260ff60406000205416156152ab577fcd265ebaf09df2871cc7bd4133404a235ba12eff2041bb89d9c714a2621c7c7e9161529a6020926001600160a01b03166000526001602052604060002090565b805460ff19169055604051908152a1565b60405162461bcd60e51b815260206004820152601560248201527f4163636f756e74206973206e6f742070617573657200000000000000000000006044820152606490fdfea264697066735822122091460b8822021cd28489a6ebc43f36d87343751546506a52551a98b5ac2407e564736f6c63430008140033",
  "devdoc": {
    "events": {
      "Paused(address)": {
        "details": "Emitted when the pause is triggered by `account`."
      },
      "Unpaused(address)": {
        "details": "Emitted when the pause is lifted by `account`."
      }
    },
    "kind": "dev",
    "methods": {
      "bondValidator()": {
        "details": "caller can be either validator owner or signer"
      },
      "completeUndelegate(address)": {
        "params": {
          "_valAddr": "the address of the validator"
        }
      },
      "confirmUnbondedValidator(address)": {
        "params": {
          "_valAddr": "the address of the validator"
        }
      },
      "constructor": {
        "params": {
          "_advanceNoticePeriod": "the wait time after the announcement and prior to the effective date of an update",
          "_maxBondedValidators": "the maximum number of bonded validators",
          "_maxSlashFactor": "maximal slashing factor (1e6 = 100%)",
          "_minSelfDelegation": "minimal amount of self-delegated tokens",
          "_minValidatorTokens": "the global minimum token amount requirement for bonded validator",
          "_proposalDeposit": "required deposit amount for a governance proposal",
          "_stakingTokenAddress": "address of Staking Token Contract",
          "_unbondingPeriod": "the locking time for funds locked before withdrawn",
          "_validatorBondInterval": "min interval between bondValidator",
          "_votingPeriod": "voting timeout for a governance proposal"
        }
      },
      "delegate(address,uint256)": {
        "details": "Minimal amount per delegate operation is 1 CELR",
        "params": {
          "_tokens": "the amount of delegated CELR tokens",
          "_valAddr": "validator to delegate"
        }
      },
      "drainToken(uint256)": {
        "details": "emergency use only",
        "params": {
          "_amount": "drained token amount"
        }
      },
      "getBondedValidatorNum()": {
        "returns": {
          "_0": "the number of bonded validators"
        }
      },
      "getBondedValidatorsTokens()": {
        "returns": {
          "_0": "addresses and token amounts of bonded validators"
        }
      },
      "getDelegatorInfo(address,address)": {
        "params": {
          "_delAddr": "the address of the delegator",
          "_valAddr": "the address of the validator"
        },
        "returns": {
          "_0": "DelegatorInfo from the given validator"
        }
      },
      "getParamValue(uint8)": {
        "params": {
          "_name": "the key of this parameter"
        },
        "returns": {
          "_0": "the value of this parameter"
        }
      },
      "getQuorumTokens()": {
        "returns": {
          "_0": "the quorum amount"
        }
      },
      "getValidatorNum()": {
        "returns": {
          "_0": "the number of validators"
        }
      },
      "getValidatorStatus(address)": {
        "params": {
          "_valAddr": "the address of the validator"
        },
        "returns": {
          "_0": "Validator status"
        }
      },
      "getValidatorTokens(address)": {
        "params": {
          "_valAddr": "the address of the validator"
        },
        "returns": {
          "_0": "Validator token amount"
        }
      },
      "hasMinRequiredTokens(address,bool)": {
        "params": {
          "_checkSelfDelegation": "check self delegation",
          "_valAddr": "the address of the validator"
        }
      },
      "initializeValidator(address,uint256,uint64)": {
        "params": {
          "_commissionRate": "the self-declaimed commission rate",
          "_minSelfDelegation": "minimal amount of tokens staked by the validator itself",
          "_signer": "signer address"
        }
      },
      "isBondedValidator(address)": {
        "params": {
          "_addr": "the address to check"
        },
        "returns": {
          "_0": "the given address is a validator or not"
        }
      },
      "isWhitelisted(address)": {
        "returns": {
          "_0": "is account whitelisted"
        }
      },
      "owner()": {
        "details": "Returns the address of the current owner."
      },
      "paused()": {
        "details": "Returns true if the contract is paused, and false otherwise."
      },
      "slash(bytes,bytes[])": {
        "params": {
          "_sigs": "list of validator signatures",
          "_slashRequest": "slash request bytes coded in protobuf"
        }
      },
      "transferOwnership(address)": {
        "details": "Transfers ownership of the contract to a new account (`newOwner`). Can only be called by the current owner."
      },
      "undelegateShares(address,uint256)": {
        "details": "Tokens are delegated by the msgSender to the validator",
        "params": {
          "_shares": "undelegate shares",
          "_valAddr": "the address of the validator"
        }
      },
      "undelegateTokens(address,uint256)": {
        "details": "Tokens are delegated by the msgSender to the validator",
        "params": {
          "_tokens": "undelegate tokens",
          "_valAddr": "the address of the validator"
        }
      },
      "updateCommissionRate(uint64)": {
        "params": {
          "_newRate": "new commission rate"
        }
      },
      "updateMinSelfDelegation(uint256)": {
        "params": {
          "_minSelfDelegation": "minimal amount of tokens staked by the validator itself"
        }
      },
      "updateValidatorSigner(address)": {
        "params": {
          "_signer": "signer address"
        }
      },
      "verifySignatures(bytes,bytes[])": {
        "params": {
          "_msg": "signed message",
          "_sigs": "list of validator signatures"
        }
      },
      "verifySigs(bytes,bytes[],address[],uint256[])": {
        "params": {
          "_msg": "signed message",
          "_sigs": "the list of signatures"
        }
      }
    },
    "title": "A Staking contract shared by all external sidechains and apps",
    "version": 1
  },
  "userdoc": {
    "kind": "user",
    "methods": {
      "addWhitelisted(address)": {
        "notice": "Add an account to whitelist"
      },
      "bondValidator()": {
        "notice": "Candidate claims to become a bonded validator"
      },
      "completeUndelegate(address)": {
        "notice": "Complete pending undelegations from a validator"
      },
      "confirmUnbondedValidator(address)": {
        "notice": "Confirm validator status from Unbonding to Unbonded"
      },
      "constructor": {
        "notice": "Staking constructor"
      },
      "delegate(address,uint256)": {
        "notice": "Delegate CELR tokens to a validator"
      },
      "drainToken(uint256)": {
        "notice": "Owner drains tokens when the contract is paused"
      },
      "getBondedValidatorNum()": {
        "notice": "Get the number of bonded validators"
      },
      "getDelegatorInfo(address,address)": {
        "notice": "Get the delegator info of a specific validator"
      },
      "getParamValue(uint8)": {
        "notice": "Get the value of a specific uint parameter"
      },
      "getQuorumTokens()": {
        "notice": "Get quorum amount of tokens"
      },
      "getValidatorNum()": {
        "notice": "Get the number of validators"
      },
      "getValidatorStatus(address)": {
        "notice": "Get validator info"
      },
      "getValidatorTokens(address)": {
        "notice": "Get validator info"
      },
      "hasMinRequiredTokens(address,bool)": {
        "notice": "Check if min token requirements are met"
      },
      "initializeValidator(address,uint256,uint64)": {
        "notice": "Initialize a validator candidate"
      },
      "isBondedValidator(address)": {
        "notice": "Check the given address is a validator or not"
      },
      "removeWhitelisted(address)": {
        "notice": "Remove an account from whitelist"
      },
      "setMaxSlashFactor(uint256)": {
        "notice": "Set max slash factor"
      },
      "setWhitelistEnabled(bool)": {
        "notice": "Set whitelistEnabled"
      },
      "slash(bytes,bytes[])": {
        "notice": "Slash a validator and its delegators"
      },
      "undelegateShares(address,uint256)": {
        "notice": "Undelegate shares from a validator"
      },
      "undelegateTokens(address,uint256)": {
        "notice": "Undelegate shares from a validator"
      },
      "updateCommissionRate(uint64)": {
        "notice": "Update commission rate"
      },
      "updateMinSelfDelegation(uint256)": {
        "notice": "Update minimal self delegation value"
      },
      "updateValidatorSigner(address)": {
        "notice": "Update validator signer address"
      },
      "validatorNotice(address,string,bytes)": {
        "notice": "Validator notice event, could be triggered by anyone"
      },
      "verifySignatures(bytes,bytes[])": {
        "notice": "Validate if a message is signed by quorum tokens"
      },
      "verifySigs(bytes,bytes[],address[],uint256[])": {
        "notice": "Verifies that a message is signed by a quorum among the validators."
      }
    },
    "version": 1
  },
  "storageLayout": {
    "storage": [
      {
        "astId": 82559,
        "contract": "contracts/bvn-staking/Staking.sol:Staking",
        "label": "_owner",
        "offset": 0,
        "slot": "0",
        "type": "t_address"
      },
      {
        "astId": 122,
        "contract": "contracts/bvn-staking/Staking.sol:Staking",
        "label": "_paused",
        "offset": 20,
        "slot": "0",
        "type": "t_bool"
      },
      {
        "astId": 82673,
        "contract": "contracts/bvn-staking/Staking.sol:Staking",
        "label": "pausers",
        "offset": 0,
        "slot": "1",
        "type": "t_mapping(t_address,t_bool)"
      },
      {
        "astId": 82878,
        "contract": "contracts/bvn-staking/Staking.sol:Staking",
        "label": "whitelist",
        "offset": 0,
        "slot": "2",
        "type": "t_mapping(t_address,t_bool)"
      },
      {
        "astId": 82880,
        "contract": "contracts/bvn-staking/Staking.sol:Staking",
        "label": "whitelistEnabled",
        "offset": 0,
        "slot": "3",
        "type": "t_bool"
      },
      {
        "astId": 17800,
        "contract": "contracts/bvn-staking/Staking.sol:Staking",
        "label": "bondedTokens",
        "offset": 0,
        "slot": "4",
        "type": "t_uint256"
      },
      {
        "astId": 17802,
        "contract": "contracts/bvn-staking/Staking.sol:Staking",
        "label": "nextBondBlock",
        "offset": 0,
        "slot": "5",
        "type": "t_uint256"
      },
      {
        "astId": 17805,
        "contract": "contracts/bvn-staking/Staking.sol:Staking",
        "label": "valAddrs",
        "offset": 0,
        "slot": "6",
        "type": "t_array(t_address)dyn_storage"
      },
      {
        "astId": 17808,
        "contract": "contracts/bvn-staking/Staking.sol:Staking",
        "label": "bondedValAddrs",
        "offset": 0,
        "slot": "7",
        "type": "t_array(t_address)dyn_storage"
      },
      {
        "astId": 17813,
        "contract": "contracts/bvn-staking/Staking.sol:Staking",
        "label": "validators",
        "offset": 0,
        "slot": "8",
        "type": "t_mapping(t_address,t_struct(Validator)16796_storage)"
      },
      {
        "astId": 17817,
        "contract": "contracts/bvn-staking/Staking.sol:Staking",
        "label": "signerVals",
        "offset": 0,
        "slot": "9",
        "type": "t_mapping(t_address,t_address)"
      },
      {
        "astId": 17821,
        "contract": "contracts/bvn-staking/Staking.sol:Staking",
        "label": "slashNonces",
        "offset": 0,
        "slot": "10",
        "type": "t_mapping(t_uint256,t_bool)"
      },
      {
        "astId": 17826,
        "contract": "contracts/bvn-staking/Staking.sol:Staking",
        "label": "params",
        "offset": 0,
        "slot": "11",
        "type": "t_mapping(t_enum(ParamName)16748,t_uint256)"
      },
      {
        "astId": 17828,
        "contract": "contracts/bvn-staking/Staking.sol:Staking",
        "label": "govContract",
        "offset": 0,
        "slot": "12",
        "type": "t_address"
      },
      {
        "astId": 17830,
        "contract": "contracts/bvn-staking/Staking.sol:Staking",
        "label": "rewardContract",
        "offset": 0,
        "slot": "13",
        "type": "t_address"
      },
      {
        "astId": 17832,
        "contract": "contracts/bvn-staking/Staking.sol:Staking",
        "label": "forfeiture",
        "offset": 0,
        "slot": "14",
        "type": "t_uint256"
      }
    ],
    "types": {
      "t_address": {
        "encoding": "inplace",
        "label": "address",
        "numberOfBytes": "20"
      },
      "t_array(t_address)dyn_storage": {
        "base": "t_address",
        "encoding": "dynamic_array",
        "label": "address[]",
        "numberOfBytes": "32"
      },
      "t_bool": {
        "encoding": "inplace",
        "label": "bool",
        "numberOfBytes": "1"
      },
      "t_enum(ParamName)16748": {
        "encoding": "inplace",
        "label": "enum DataTypes.ParamName",
        "numberOfBytes": "1"
      },
      "t_enum(ValidatorStatus)16738": {
        "encoding": "inplace",
        "label": "enum DataTypes.ValidatorStatus",
        "numberOfBytes": "1"
      },
      "t_mapping(t_address,t_address)": {
        "encoding": "mapping",
        "key": "t_address",
        "label": "mapping(address => address)",
        "numberOfBytes": "32",
        "value": "t_address"
      },
      "t_mapping(t_address,t_bool)": {
        "encoding": "mapping",
        "key": "t_address",
        "label": "mapping(address => bool)",
        "numberOfBytes": "32",
        "value": "t_bool"
      },
      "t_mapping(t_address,t_struct(Delegator)16769_storage)": {
        "encoding": "mapping",
        "key": "t_address",
        "label": "mapping(address => struct DataTypes.Delegator)",
        "numberOfBytes": "32",
        "value": "t_struct(Delegator)16769_storage"
      },
      "t_mapping(t_address,t_struct(Validator)16796_storage)": {
        "encoding": "mapping",
        "key": "t_address",
        "label": "mapping(address => struct DataTypes.Validator)",
        "numberOfBytes": "32",
        "value": "t_struct(Validator)16796_storage"
      },
      "t_mapping(t_enum(ParamName)16748,t_uint256)": {
        "encoding": "mapping",
        "key": "t_enum(ParamName)16748",
        "label": "mapping(enum DataTypes.ParamName => uint256)",
        "numberOfBytes": "32",
        "value": "t_uint256"
      },
      "t_mapping(t_uint256,t_bool)": {
        "encoding": "mapping",
        "key": "t_uint256",
        "label": "mapping(uint256 => bool)",
        "numberOfBytes": "32",
        "value": "t_bool"
      },
      "t_mapping(t_uint256,t_struct(Undelegation)16753_storage)": {
        "encoding": "mapping",
        "key": "t_uint256",
        "label": "mapping(uint256 => struct DataTypes.Undelegation)",
        "numberOfBytes": "32",
        "value": "t_struct(Undelegation)16753_storage"
      },
      "t_struct(Delegator)16769_storage": {
        "encoding": "inplace",
        "label": "struct DataTypes.Delegator",
        "members": [
          {
            "astId": 16765,
            "contract": "contracts/bvn-staking/Staking.sol:Staking",
            "label": "shares",
            "offset": 0,
            "slot": "0",
            "type": "t_uint256"
          },
          {
            "astId": 16768,
            "contract": "contracts/bvn-staking/Staking.sol:Staking",
            "label": "undelegations",
            "offset": 0,
            "slot": "1",
            "type": "t_struct(Undelegations)16763_storage"
          }
        ],
        "numberOfBytes": "96"
      },
      "t_struct(Undelegation)16753_storage": {
        "encoding": "inplace",
        "label": "struct DataTypes.Undelegation",
        "members": [
          {
            "astId": 16750,
            "contract": "contracts/bvn-staking/Staking.sol:Staking",
            "label": "shares",
            "offset": 0,
            "slot": "0",
            "type": "t_uint256"
          },
          {
            "astId": 16752,
            "contract": "contracts/bvn-staking/Staking.sol:Staking",
            "label": "creationBlock",
            "offset": 0,
            "slot": "1",
            "type": "t_uint256"
          }
        ],
        "numberOfBytes": "64"
      },
      "t_struct(Undelegations)16763_storage": {
        "encoding": "inplace",
        "label": "struct DataTypes.Undelegations",
        "members": [
          {
            "astId": 16758,
            "contract": "contracts/bvn-staking/Staking.sol:Staking",
            "label": "queue",
            "offset": 0,
            "slot": "0",
            "type": "t_mapping(t_uint256,t_struct(Undelegation)16753_storage)"
          },
          {
            "astId": 16760,
            "contract": "contracts/bvn-staking/Staking.sol:Staking",
            "label": "head",
            "offset": 0,
            "slot": "1",
            "type": "t_uint32"
          },
          {
            "astId": 16762,
            "contract": "contracts/bvn-staking/Staking.sol:Staking",
            "label": "tail",
            "offset": 4,
            "slot": "1",
            "type": "t_uint32"
          }
        ],
        "numberOfBytes": "64"
      },
      "t_struct(Validator)16796_storage": {
        "encoding": "inplace",
        "label": "struct DataTypes.Validator",
        "members": [
          {
            "astId": 16772,
            "contract": "contracts/bvn-staking/Staking.sol:Staking",
            "label": "status",
            "offset": 0,
            "slot": "0",
            "type": "t_enum(ValidatorStatus)16738"
          },
          {
            "astId": 16774,
            "contract": "contracts/bvn-staking/Staking.sol:Staking",
            "label": "signer",
            "offset": 1,
            "slot": "0",
            "type": "t_address"
          },
          {
            "astId": 16776,
            "contract": "contracts/bvn-staking/Staking.sol:Staking",
            "label": "tokens",
            "offset": 0,
            "slot": "1",
            "type": "t_uint256"
          },
          {
            "astId": 16778,
            "contract": "contracts/bvn-staking/Staking.sol:Staking",
            "label": "shares",
            "offset": 0,
            "slot": "2",
            "type": "t_uint256"
          },
          {
            "astId": 16780,
            "contract": "contracts/bvn-staking/Staking.sol:Staking",
            "label": "undelegationTokens",
            "offset": 0,
            "slot": "3",
            "type": "t_uint256"
          },
          {
            "astId": 16782,
            "contract": "contracts/bvn-staking/Staking.sol:Staking",
            "label": "undelegationShares",
            "offset": 0,
            "slot": "4",
            "type": "t_uint256"
          },
          {
            "astId": 16787,
            "contract": "contracts/bvn-staking/Staking.sol:Staking",
            "label": "delegators",
            "offset": 0,
            "slot": "5",
            "type": "t_mapping(t_address,t_struct(Delegator)16769_storage)"
          },
          {
            "astId": 16789,
            "contract": "contracts/bvn-staking/Staking.sol:Staking",
            "label": "minSelfDelegation",
            "offset": 0,
            "slot": "6",
            "type": "t_uint256"
          },
          {
            "astId": 16791,
            "contract": "contracts/bvn-staking/Staking.sol:Staking",
            "label": "bondBlock",
            "offset": 0,
            "slot": "7",
            "type": "t_uint64"
          },
          {
            "astId": 16793,
            "contract": "contracts/bvn-staking/Staking.sol:Staking",
            "label": "unbondBlock",
            "offset": 8,
            "slot": "7",
            "type": "t_uint64"
          },
          {
            "astId": 16795,
            "contract": "contracts/bvn-staking/Staking.sol:Staking",
            "label": "commissionRate",
            "offset": 16,
            "slot": "7",
            "type": "t_uint64"
          }
        ],
        "numberOfBytes": "256"
      },
      "t_uint256": {
        "encoding": "inplace",
        "label": "uint256",
        "numberOfBytes": "32"
      },
      "t_uint32": {
        "encoding": "inplace",
        "label": "uint32",
        "numberOfBytes": "4"
      },
      "t_uint64": {
        "encoding": "inplace",
        "label": "uint64",
        "numberOfBytes": "8"
      }
    }
  }
}