{
  "address": "0x42e6Af231bA8eE39f1bf185d452061283bfB324b",
  "abi": [
    {
      "inputs": [
        {
          "internalType": "contract Staking",
          "name": "_staking",
          "type": "address"
        }
      ],
      "stateMutability": "nonpayable",
      "type": "constructor"
    },
    {
      "inputs": [],
      "name": "getBondedValidatorInfos",
      "outputs": [
        {
          "components": [
            {
              "internalType": "address",
              "name": "valAddr",
              "type": "address"
            },
            {
              "internalType": "enum DataTypes.ValidatorStatus",
              "name": "status",
              "type": "uint8"
            },
            {
              "internalType": "address",
              "name": "signer",
              "type": "address"
            },
            {
              "internalType": "uint256",
              "name": "tokens",
              "type": "uint256"
            },
            {
              "internalType": "uint256",
              "name": "shares",
              "type": "uint256"
            },
            {
              "internalType": "uint256",
              "name": "minSelfDelegation",
              "type": "uint256"
            },
            {
              "internalType": "uint64",
              "name": "commissionRate",
              "type": "uint64"
            }
          ],
          "internalType": "struct DataTypes.ValidatorInfo[]",
          "name": "",
          "type": "tuple[]"
        }
      ],
      "stateMutability": "view",
      "type": "function"
    },
    {
      "inputs": [
        {
          "internalType": "address",
          "name": "_delAddr",
          "type": "address"
        }
      ],
      "name": "getDelegatorInfos",
      "outputs": [
        {
          "components": [
            {
              "internalType": "address",
              "name": "valAddr",
              "type": "address"
            },
            {
              "internalType": "uint256",
              "name": "tokens",
              "type": "uint256"
            },
            {
              "internalType": "uint256",
              "name": "shares",
              "type": "uint256"
            },
            {
              "components": [
                {
                  "internalType": "uint256",
                  "name": "shares",
                  "type": "uint256"
                },
                {
                  "internalType": "uint256",
                  "name": "creationBlock",
                  "type": "uint256"
                }
              ],
              "internalType": "struct DataTypes.Undelegation[]",
              "name": "undelegations",
              "type": "tuple[]"
            },
            {
              "internalType": "uint256",
              "name": "undelegationTokens",
              "type": "uint256"
            },
            {
              "internalType": "uint256",
              "name": "withdrawableUndelegationTokens",
              "type": "uint256"
            }
          ],
          "internalType": "struct DataTypes.DelegatorInfo[]",
          "name": "",
          "type": "tuple[]"
        }
      ],
      "stateMutability": "view",
      "type": "function"
    },
    {
      "inputs": [
        {
          "internalType": "address",
          "name": "_delAddr",
          "type": "address"
        }
      ],
      "name": "getDelegatorTokens",
      "outputs": [
        {
          "internalType": "uint256",
          "name": "",
          "type": "uint256"
        },
        {
          "internalType": "uint256",
          "name": "",
          "type": "uint256"
        }
      ],
      "stateMutability": "view",
      "type": "function"
    },
    {
      "inputs": [],
      "name": "getMinValidatorTokens",
      "outputs": [
        {
          "internalType": "uint256",
          "name": "",
          "type": "uint256"
        }
      ],
      "stateMutability": "view",
      "type": "function"
    },
    {
      "inputs": [
        {
          "internalType": "address",
          "name": "_valAddr",
          "type": "address"
        }
      ],
      "name": "getValidatorInfo",
      "outputs": [
        {
          "components": [
            {
              "internalType": "address",
              "name": "valAddr",
              "type": "address"
            },
            {
              "internalType": "enum DataTypes.ValidatorStatus",
              "name": "status",
              "type": "uint8"
            },
            {
              "internalType": "address",
              "name": "signer",
              "type": "address"
            },
            {
              "internalType": "uint256",
              "name": "tokens",
              "type": "uint256"
            },
            {
              "internalType": "uint256",
              "name": "shares",
              "type": "uint256"
            },
            {
              "internalType": "uint256",
              "name": "minSelfDelegation",
              "type": "uint256"
            },
            {
              "internalType": "uint64",
              "name": "commissionRate",
              "type": "uint64"
            }
          ],
          "internalType": "struct DataTypes.ValidatorInfo",
          "name": "",
          "type": "tuple"
        }
      ],
      "stateMutability": "view",
      "type": "function"
    },
    {
      "inputs": [],
      "name": "getValidatorInfos",
      "outputs": [
        {
          "components": [
            {
              "internalType": "address",
              "name": "valAddr",
              "type": "address"
            },
            {
              "internalType": "enum DataTypes.ValidatorStatus",
              "name": "status",
              "type": "uint8"
            },
            {
              "internalType": "address",
              "name": "signer",
              "type": "address"
            },
            {
              "internalType": "uint256",
              "name": "tokens",
              "type": "uint256"
            },
            {
              "internalType": "uint256",
              "name": "shares",
              "type": "uint256"
            },
            {
              "internalType": "uint256",
              "name": "minSelfDelegation",
              "type": "uint256"
            },
            {
              "internalType": "uint64",
              "name": "commissionRate",
              "type": "uint64"
            }
          ],
          "internalType": "struct DataTypes.ValidatorInfo[]",
          "name": "",
          "type": "tuple[]"
        }
      ],
      "stateMutability": "view",
      "type": "function"
    },
    {
      "inputs": [
        {
          "internalType": "address",
          "name": "_valAddr",
          "type": "address"
        }
      ],
      "name": "shouldBondValidator",
      "outputs": [
        {
          "internalType": "bool",
          "name": "",
          "type": "bool"
        }
      ],
      "stateMutability": "view",
      "type": "function"
    },
    {
      "inputs": [],
      "name": "staking",
      "outputs": [
        {
          "internalType": "contract Staking",
          "name": "",
          "type": "address"
        }
      ],
      "stateMutability": "view",
      "type": "function"
    }
  ],
  "transactionHash": "0x23bcae57337b07770d40a2a01aa410dc87218f99d6f36cc1b76fef0b0aa168bb",
  "args": [
    "0xDc44EdEde02bC11D31e1BcBC04b17C02F11ac4d7"
  ],
  "numDeployments": 1,
  "solcInputHash": "6e1375724855e42d36d93bf6f2c45f96",
  "bytecode": "0x60a0346100a157601f61130938819003918201601f19168301916001600160401b038311848410176100a6578084926020946040528339810103126100a157516001600160a01b03811681036100a15760805260405161124c90816100bd823960805181818160df015281816103440152818161047101528181610896015281816109fb01528181610a7201528181610ae701528181610e3d01526110540152f35b600080fd5b634e487b7160e01b600052604160045260246000fdfe6040608081526004908136101561001557600080fd5b60009160e08335811c908163313019bb146104955781634cf088d91461045057816366ab5d281461031f5781638a11d7c9146102e1575080638dc2336d146102bd578063c6fc1ed614610231578063d87ffe91146100bb5763e9fe6b0b1461007c57600080fd5b346100b75760203660031901126100b75735916001600160a01b03831683036100b457506100ab602092611049565b90519015158152f35b80fd5b8280fd5b5082346100b457806003193601126100b45782516389f9aab560e01b8152926020917f00000000000000000000000000000000000000000000000000000000000000006001600160a01b03169083868681855afa9586156102255781966101f2575b5061012786610721565b93815b63ffffffff8116888110156101e157855163acc62ccf60e01b81528881018290528381602481895afa9081156101d757859161018f575b5061018a929161017361018492610862565b61017d828b6107b5565b52886107b5565b50610771565b61012a565b90508381813d83116101d0575b6101a681836106af565b810103126101cc5761018a92916101736101c26101849361079c565b9250509192610161565b8480fd5b503d61019c565b87513d87823e3d90fd5b8551806101ee8982610619565b0390f35b9095508381813d831161021e575b61020a81836106af565b8101031261021a5751948661011d565b8580fd5b503d610200565b508251903d90823e3d90fd5b5082346100b457602091826003193601126102b957356001600160a01b03811681036102b957610260906109e4565b81825b82519163ffffffff8516928310156102ac576102a69160806102906102996102a0948a610290898b6107b5565b51015190610e10565b95876107b5565b93610771565b92610263565b8691868351928352820152f35b5080fd5b5050346102b957816003193601126102b9576020906102da610e1d565b9051908152f35b838584346102b95760203660031901126102b95735906001600160a01b03821682036100b4575061031461031d91610862565b915180926105a2565bf35b505082346100b457806003193601126100b4578251631cfe4f0b60e01b8152926020917f00000000000000000000000000000000000000000000000000000000000000006001600160a01b03169083868681855afa958615610225578196610421575b5061038c86610721565b93815b63ffffffff8116888110156101e15785516324aec90f60e21b81528881018290528381602481895afa9081156101d75785916103dd575b506103d8929161017361018492610862565b61038f565b90508381813d831161041a575b6103f481836106af565b810103126101cc576103d892916101736104106101849361079c565b92505091926103c6565b503d6103ea565b9095508381813d8311610449575b61043981836106af565b8101031261021a57519486610382565b503d61042f565b505050346102b957816003193601126102b957602090516001600160a01b037f0000000000000000000000000000000000000000000000000000000000000000168152f35b929190503461059e57602090816003193601126101cc57356001600160a01b0390818116810361021a578585846104cc87946109e4565b928451948286019383875285518095528187019184818760051b8a0101970198845b8786106104fb578989038af35b9091929394959697603f198a8203018652878b519160c09283820186825116835283820151848401528782015188840152606094858301519584015284518091528389840195019086905b8981831061057b57505050608080830151908401525060a0908101519101529a8b019a909897966001019501939291906104ee565b83518051895287015187890152909601958d959092019160019190910190610546565b8380fd5b6001600160a01b03808251168352602082015160048110156106035760c09267ffffffffffffffff92849260208701526040820151166040860152606081015160608601526080810151608086015260a081015160a0860152015116910152565b634e487b7160e01b600052602160045260246000fd5b6020908160408183019282815285518094520193019160005b828110610640575050505090565b909192938260e08261065560019489516105a2565b01950193929101610632565b60e0810190811067ffffffffffffffff82111761067d57604052565b634e487b7160e01b600052604160045260246000fd5b60c0810190811067ffffffffffffffff82111761067d57604052565b90601f8019910116810190811067ffffffffffffffff82111761067d57604052565b67ffffffffffffffff811161067d5760051b60200190565b604051906106f682610661565b8160c06000918281528260208201528260408201528260608201528260808201528260a08201520152565b9061072b826106d1565b61073860405191826106af565b8281528092610749601f19916106d1565b019060005b82811061075a57505050565b6020906107656106e9565b8282850101520161074e565b63ffffffff8091169081146107865760010190565b634e487b7160e01b600052601160045260246000fd5b51906001600160a01b03821682036107b057565b600080fd5b80518210156107c95760209160051b010190565b634e487b7160e01b600052603260045260246000fd5b519067ffffffffffffffff821682036107b057565b9190826101409103126107b057815160048110156107b057916108196020820161079c565b9160408201519160608101519160808201519160a08101519160c08201519161084460e082016107df565b9161085f61012061085861010085016107df565b93016107df565b90565b61086a6106e9565b50604051631f4a58fb60e31b81526001600160a01b0391821660048201819052919061014080826024817f000000000000000000000000000000000000000000000000000000000000000087165afa91821561095e5760009384908591869387958897610919575b5050604051976108e189610661565b885260048710156106035767ffffffffffffffff9660208901521660408701526060860152608085015260a08401521660c082015290565b94509450509450506109409250803d10610957575b61093881836106af565b8101906107f4565b9799945050509395905095949192939438806108d2565b503d61092e565b6040513d6000823e3d90fd5b90610974826106d1565b604090610983825191826106af565b8381528093610994601f19916106d1565b019160005b8381106109a65750505050565b60209082516109b481610693565b600081528260008183015260008583015260608083015260006080830152600060a0830152828601015201610999565b604051631cfe4f0b60e01b815290916020826004817f00000000000000000000000000000000000000000000000000000000000000006001600160a01b03165afa91821561095e57600092610ddc575b50610a3e8261096a565b600091825b8463ffffffff82161015610d39576040516324aec90f60e21b815263ffffffff821660048201526020816024817f00000000000000000000000000000000000000000000000000000000000000006001600160a01b03165afa90811561095e57600091610cff575b506001600160a01b0360405191631dd9dfdf60e31b83521660048201526001600160a01b03871660248201526000816044816001600160a01b037f0000000000000000000000000000000000000000000000000000000000000000165afa90811561095e57600091610b9e575b50610b2963ffffffff8316856107b5565b52610b3a63ffffffff8216846107b5565b506040610b4d63ffffffff8316856107b5565b51015115801590610b81575b610b6c575b610b6790610771565b610a43565b92610b79610b6791610771565b939050610b5e565b506080610b9463ffffffff8316856107b5565b5101511515610b59565b3d908183823e610bae82826106af565b60208183810103126100b75780519167ffffffffffffffff831161059e5760c0838301828401031261059e5760405193610be785610693565b610bf284840161079c565b855282840160208181015190870152604080820151908701526060015167ffffffffffffffff81116102b9578484010190828401601f830112156100b457815190610c3c826106d1565b93610c4a60405195866106af565b828552602085019381870160208560061b830101116100b75760208101945b60208560061b8301018610610ca157505050505050606084015260808083830101519084015260a09182910101519082015238610b18565b604086848a01031261059e5760405180604081011067ffffffffffffffff604083011117610ceb576040918183602093018452885181528289015183820152815201950194610c69565b634e487b7160e01b85526041600452602485fd5b906020823d602011610d31575b81610d19602093836106af565b810103126100b45750610d2b9061079c565b38610aab565b3d9150610d0c565b50935090610d4d63ffffffff80921661096a565b92600091825b81811683811015610dd3576040610d6a82886107b5565b51015115801590610dbc575b610d8a575b50610d8590610771565b610d53565b610d859194610184610d9f610db593896107b5565b5185831690610dae828c6107b5565b52896107b5565b9390610d7b565b506080610dc982886107b5565b5101511515610d76565b50505050505090565b90916020823d602011610e08575b81610df7602093836106af565b810103126100b45750519038610a34565b3d9150610dea565b9190820180921161078657565b604080516389f9aab560e01b81526001600160a01b0391602091906004907f0000000000000000000000000000000000000000000000000000000000000000851684848481845afa93841561103e5760009461100f575b50815163eb505dd560e01b81526003848201526024959081818881865afa90811561100457600091610fd7575b508510610fcb576000199660005b868110610ec157505050505050505090565b845163acc62ccf60e01b815286810182905283818a81885afa908115610f8b57600091610f96575b50855163323e7e6160e21b81529083168782015283818a81885afa908115610f8b57600091610f5e575b50898110610f42575b506000198114610f2e57600101610eaf565b87601187634e487b7160e01b600052526000fd5b98508815610f505738610f1c565b505050505050505050600090565b908482813d8311610f84575b610f7481836106af565b810103126100b457505138610f13565b503d610f6a565b86513d6000823e3d90fd5b908482813d8311610fc4575b610fac81836106af565b810103126100b45750610fbe9061079c565b38610ee9565b503d610fa2565b50505050505050600090565b908282813d8311610ffd575b610fed81836106af565b810103126100b457505138610ea1565b503d610fe3565b84513d6000823e3d90fd5b90938582813d8311611037575b61102681836106af565b810103126100b45750519238610e74565b503d61101c565b82513d6000823e3d90fd5b6001600160a01b03807f00000000000000000000000000000000000000000000000000000000000000001691604091825191631f4a58fb60e31b83521690816004820152610140908181602481885afa90811561100457600090819382936111e8575b505060048110156106035780159081156111dd575b506111d35767ffffffffffffffff164310611194578251916347abfdbf60e01b83526004830152600160248301526020918281604481885afa9081156110045760009161119d575b501561119457611117610e1d565b101561118c5780600493835194858092631079f66360e31b82525afa9182156111825750600091611156575b509050431061115157600190565b600090565b82813d831161117b575b61116a81836106af565b810103126100b45750518038611143565b503d611160565b513d6000823e3d90fd5b505050600090565b50505050600090565b8381813d83116111cc575b6111b281836106af565b810103126102b957519081151582036100b4575038611109565b503d6111a8565b5050505050600090565b6003915014386110c1565b915091506112029250803d106109575761093881836106af565b5050969495505050505090919038806110ac56fea2646970667358221220cd3530fb4124a64a9f736081089fb1820181a7a43751325cffb051163a0f9fac64736f6c63430008140033",
  "devdoc": {
    "kind": "dev",
    "methods": {
      "getMinValidatorTokens()": {
        "returns": {
          "_0": "the minimum staking pool of all bonded validators"
        }
      }
    },
    "title": "Viewer of the staking contract",
    "version": 1
  },
  "userdoc": {
    "kind": "user",
    "methods": {
      "getMinValidatorTokens()": {
        "notice": "Get the minimum staking pool of all bonded validators"
      }
    },
    "notice": "Using a separate viewer contract to reduce staking contract size",
    "version": 1
  },
  "storageLayout": {
    "storage": [],
    "types": null
  }
}