{
  "address": "0xf5c6825015280cdfd0b56903f9f8b5a2233476f5",
  "abi": [
    {
      "inputs": [
        {
          "internalType": "uint256",
          "name": "blockNum",
          "type": "uint256"
        }
      ],
      "name": "blocks",
      "outputs": [
        {
          "internalType": "bytes32",
          "name": "",
          "type": "bytes32"
        }
      ],
      "stateMutability": "view",
      "type": "function"
    }
  ],
  "transactionHash": "0x20c5c1a9a1f240f8f268d7f6963117a2c7e4e1d9b0355faa08c339d12bf6db37",
  "args": [],
  "numDeployments": 1,
  "solcInputHash": "ce5aef6379564b585f443441bc8887f4",
  "bytecode": "0x60808060405234601457607b908161001a8239f35b600080fdfe6080806040526004361015601257600080fd5b60003560e01c63f25b3f9914602657600080fd5b346040576020366003190112604057602090600435408152f35b600080fdfea2646970667358221220958a8b5157acb82a8fcae4e62b75a1717c2442832777ab8b5887deb8856d524064736f6c63430008140033",
  "devdoc": {
    "kind": "dev",
    "methods": {},
    "version": 1
  },
  "userdoc": {
    "kind": "user",
    "methods": {},
    "version": 1
  },
  "storageLayout": {
    "storage": [],
    "types": null
  }
}