{
  "address": "0xB3911C121909736A9C1a76e5Cf078D19a3E7d233",
  "abi": [
    {
      "inputs": [
        {
          "internalType": "uint256",
          "name": "blockNum",
          "type": "uint256"
        }
      ],
      "name": "blocks",
      "outputs": [
        {
          "internalType": "bytes32",
          "name": "",
          "type": "bytes32"
        }
      ],
      "stateMutability": "view",
      "type": "function"
    }
  ],
  "transactionHash": "0x7f57b7df4840aa9fcb25084d3c2c0774a85df4d644290701522c9c858c628a74",
  "args": [],
  "numDeployments": 1,
  "solcInputHash": "2de767a9bfced91acefb3fa6889de524",
  "bytecode": "0x60808060405234601457607b908161001a8239f35b600080fdfe6080806040526004361015601257600080fd5b60003560e01c63f25b3f9914602657600080fd5b346040576020366003190112604057602090600435408152f35b600080fdfea2646970667358221220e2ce040863d7c3e35fb1798f49a2291072e760bd067e8ec6dc13003cbe7ec3f164736f6c63430008140033",
  "devdoc": {
    "kind": "dev",
    "methods": {},
    "version": 1
  },
  "userdoc": {
    "kind": "user",
    "methods": {},
    "version": 1
  },
  "storageLayout": {
    "storage": [],
    "types": null
  }
}