{
  "address": "0x5fB46FF3565a78bCC83F8394AC72933503b704FA",
  "abi": [
    {
      "inputs": [],
      "name": "ProofInvalid",
      "type": "error"
    },
    {
      "inputs": [],
      "name": "PublicInputNotInField",
      "type": "error"
    },
    {
      "inputs": [
        {
          "internalType": "uint256[8]",
          "name": "proof",
          "type": "uint256[8]"
        },
        {
          "internalType": "uint256[2]",
          "name": "commitment",
          "type": "uint256[2]"
        },
        {
          "internalType": "uint256[2]",
          "name": "commitmentPOK",
          "type": "uint256[2]"
        },
        {
          "internalType": "uint256[7]",
          "name": "input",
          "type": "uint256[7]"
        }
      ],
      "name": "verifyProof",
      "outputs": [
        {
          "internalType": "bool",
          "name": "",
          "type": "bool"
        }
      ],
      "stateMutability": "view",
      "type": "function"
    },
    {
      "inputs": [
        {
          "internalType": "bytes",
          "name": "proofData",
          "type": "bytes"
        }
      ],
      "name": "verifyRaw",
      "outputs": [
        {
          "internalType": "bool",
          "name": "",
          "type": "bool"
        }
      ],
      "stateMutability": "view",
      "type": "function"
    }
  ],
  "transactionHash": "0xffafff12d2cc69e8d9c895a5ef21f2d2a59d5b6b2b1b4b923ccdd41f46c713ba",
  "args": [],
  "numDeployments": 1,
  "solcInputHash": "2f77cf8d4223e6233122272214ab6a04",
  "bytecode": "0x6080806040523461001657610d60908161001c8239f35b600080fdfe60806040818152600436101561001457600080fd5b600091823560e01c908163457726e614610171575063e6cc9bc91461003857600080fd5b3461016d5761026036600319011261016d57366023121561016d5780519061005f82610372565b8161010492368411610141576004905b84821061015d57505036610123121561015957815161008d816103a5565b806101449436861161015557905b858210610145575050366101631215610141578251906100ba826103a5565b816101849536871161013d57905b86821061012d575050366101a31215610129578351926100e7846103c1565b83610264963688116101255760209850905b87821061011657505061010d9495506103dd565b90519015158152f35b813581529088019088016100f9565b8880fd5b8580fd5b81358152602091820191016100c8565b8780fd5b8480fd5b813581526020918201910161009b565b8680fd5b8380fd5b813581526020918201910161006f565b5080fd5b9190503461036e5760209182600319360112610159576004359367ffffffffffffffff9081861161036b573660238701121561036b57856004013591821161036b57366024838801011161036b576101c883610372565b610100928336823782861161016d576024870135815282851161016d576044870135868201528260601161016d5760648701358582015260809383851161036e57608488013560608301528360a01161036e5760a4880135858301528360c01161036e5760c488013560a08301528360e01161036e57839060e489013560c08401521161016d5761010487013560e0820152845191610266836103a5565b85368437836101201161036b576101248801358352836101401161036b576101448801358784015285519361029a856103a5565b86368637806101601161016d576101648901358552806101801161016d57610184890135888601528651956102ce876103c1565b60e0368837816101a01161036e576101a48a01358752816101b01161036e576101c48a0135811c89880152816101c01161036e576101d48a0135811c88880152816101e01161036e576101e48a01356060880152816101f01161036e576102048a0135811c81880152816102001161036e576102148a0135901c60a08701526102201161036b575061022461010d959697013560c08501526103dd565b80fd5b8280fd5b610100810190811067ffffffffffffffff82111761038f57604052565b634e487b7160e01b600052604160045260246000fd5b6040810190811067ffffffffffffffff82111761038f57604052565b60e0810190811067ffffffffffffffff82111761038f57604052565b92919091825190602084015160405192602084015260408301526040825281606081011067ffffffffffffffff60608401111761038f5760608201604052600080516020610d0b8339815191528251602084012006907f0d485a2c411e3b6bb6c096150d669a63f7e514f57ae248d250f38765419274dc60608401527f15422c696a92225b9cd85cc5c5368d36218c0193b00bfe31182da1629644bc9860808401527f17a64e9a8aaf08496ba701df93c5c93cc9509dda35ce55e28000f03cb229c0fa60a08401527f1f8fff2593ed9520952c0f13b66936b7d3566245d161f298b1cdbebdb37700d760c084015260e081518082860152600080516020610d0b833981519152604060a08701606060a0890160075afa91101660406060860160808160065afa167f0f88d1c277003a0457e0da17b7b4cfeacc0a48c0c83b820b9853c5b4fe49ee0060a08601527f2220d18a42b404f6ab5039342e24cbf054173d5eb31f82e1d5393ec8262e0b2660c08601526020830151908183870152604060a08701606060a0890160075afa90600080516020610d0b83398151915260406060890160808160065afa93101616167f298a5174e465386a502909f2358f36e4fde5e766f3d20a1d367a152ff0c3cb5c60a08601527f1bf4cee17ce3029838b4cf3e8f55ffd9d65d9835852d28230d1efd8ebd7d57b760c08601526040830151908183870152604060a08701606060a0890160075afa90600080516020610d0b83398151915260406060890160808160065afa93101616167f05337b34483cf0fe3a0c55bb466115012ea8a22df2cc83dce36d1b47bbc9044560a08601527f1e473da5a598fa97d93774e9413940fd35da1faa3f2bb57aeedbe069779c329960c08601526060830151908183870152604060a08701606060a0890160075afa90600080516020610d0b83398151915260406060890160808160065afa93101616167f2cde897c938799d6552e07e2b62f6f4d9ef7b6c548b0b83b9a8aba123335ec1960a08601527f2d8aae590dceb54ba354f7d5375fb8f265ea13879b0eb07d2994cef4cfbfde4860c086015260808301519081838701526001604060a08801606060a08a0160075afa91600080516020610d0b833981519152604060608a0160808160065afa9410161616167f041499c9e99d496bd82047a9be63fb7a6b236c654b99ce9f7c0cb4c272cc5a0c60a08601527f1b70456469b99083bda6fbc8bcb3063fc09a536c0480c7e1ae9157c03c22291b60c086015260a0830151908183870152604060a08701606060a0890160075afa90600080516020610d0b83398151915260406060890160808160065afa93101616167f23ceb8fa19f816f93acc2cd23aa16508bf90cf08f232a5a0c85cd0d2d3b8a20860a08601527f16f3f9dca2756c97e44ba1b628b3ed9c8a401d3fa5edba9655d0932b45b4483360c086015260c0830151908183870152604060a08701606060a0890160075afa90600080516020610d0b83398151915260406060890160808160065afa9310161616917f2df929641436cf7552406c061bc2e86c449cee84f263408723b4cd2b13c6a43660a08601527f14cdd3ee6a4800542796cbf4694991d53db9bc9beea6301f840cc6bb03bdd4b160c086015201519160e0840152604060a08401606060a0860160075afa90600080516020610d0b83398151915260406060860160808160065afa875160a0870152602088015160c0870152931016161660406060830160808160065afa1692608060608301519201519315610cf857602093849286519684810151906040810151606082015160808301519060a08401519260e060c0860151950151958a6040519e8f908152015260408d015260608c015260808b015260a08a015260c089015260e08801527f273bb2c871e4a0c412546f2a6de79627aedb501d124604ed44eaad6c49c97dd26101008801527f1a76435f97fc68ece92f5f562efcab67ea1366513b7d4e640edbae8c2461539f6101208801527f1841acdb1c8b46707775be157392cb6f400570781883c9d540a2db3f1b9280466101408801527f200af650df379beabde5449ab2e8559f69c655c55c76ee188de9383e5e2965c56101608801527f1c0cb733aea8a2fcb607075d567945ae30171154564d2f99df7da735108919d76101808801527f16acbebb405cffb5fb2e9b672284450f00829b9a5ef64317a8a922b02e44cf2a6101a08801527f271e43e609b4dfccbaaa3ca48e7263071168f9ed55a94e0220c7914e84b394936101c08801527f20357111ba8f0a92882163aa64c462331c071d6d07a069937b62272f501e21566101e08801527f0a65953b15fac4bcad69adc147310db4b9513dc425cfa56fc3f8da4ffa98cb5f6102008801527ed8def82e963005d5f2a0d5a52555566162ff34a086aea72adbe1cf850715696102208801526102408701526102608601527f12c5208c343eb5bcec5f52e2e6085f27b13c29e207447b9ab05214ee68ea862a6102808601527f20c105a1ff34bc09e8bfd5220a8bfb09bce868fc155a73443599a626826f4c7a6102a08601527f15708d55e8d4be0003da599442ab6033506b56c2a1914995b3e2c9c46ee880f76102c08601527f0e215b4c4f2cadf952c59cf4cc680f2265f81df0d26b312e3b8304e4a6802a656102e0860152805161030086015201516103208401527f03fd1e88dc25adcdcc8e35ae1343e8d287842f3badc8b3009302bf3b5c40307f6103408401527f1f14264f206c9c3d2a525ae0cc6771eee2430fc043811c7e451d02dfbb52c9696103608401527f01d894a22866035193bf405ba37fe3ea5460c6f040cde36e5d01bfa167ce96006103808401527f1a03d7c237ef960697827c5d87428d6dd5ebffa2946a05d3761b0c1a0ec4fa0b6103a084015280516103c084015201516103e08201527f27e76efe883c9cf5b60950147bb5b02cce53cd1a3f03799fc2b31ad6fe80ee806104008201527f04dd7cad354bcb8395f2a8c9d9b67e14361f25acc47f1faa5d521cbb2d422af26104208201527f101b00d59c417ce3b9a88052c44359b27c01b835ffaf2833d31c508b1759765f6104408201527e4b73ddc56556a07666d5c97261ed340a2f7c58dcf7e699ccc711385d269ed46104608201526020816104808160085afa9051168015610ce65790565b604051631ff3747d60e21b8152600490fd5b60405163a54f8e2760e01b8152600490fdfe30644e72e131a029b85045b68181585d2833e84879b9709143e1f593f0000001a2646970667358221220bf1a618156d52c7ccb0f457d441f374cb70ba8a999a59ea8d760a47df2998f6464736f6c63430008140033",
  "devdoc": {
    "author": "Remco Bloemen",
    "errors": {
      "ProofInvalid()": [
        {
          "details": "This can mean that provided Groth16 proof points are not on their curves, that pairing equation fails, or that the proof is not for the provided public input."
        }
      ],
      "PublicInputNotInField()": [
        {
          "details": "Public input elements are not automatically reduced, as this is can be a dangerous source of bugs."
        }
      ]
    },
    "kind": "dev",
    "methods": {
      "verifyProof(uint256[8],uint256[2],uint256[2],uint256[7])": {
        "params": {
          "input": "the public input field elements in the scalar field Fr. Elements must be reduced.",
          "proof": "the points (A, B, C) in EIP-197 format matching the output of compressProof."
        }
      }
    },
    "title": "Groth16 verifier template.",
    "version": 1
  },
  "userdoc": {
    "errors": {
      "ProofInvalid()": [
        {
          "notice": "The proof is invalid."
        }
      ],
      "PublicInputNotInField()": [
        {
          "notice": "Some of the provided public input values are larger than the field modulus."
        }
      ]
    },
    "kind": "user",
    "methods": {
      "verifyProof(uint256[8],uint256[2],uint256[2],uint256[7])": {
        "notice": "Verify an uncompressed Groth16 proof.Reverts with InvalidProof if the proof is invalid or with PublicInputNotInField the public input is not reduced.There is no return value. If the function does not revert, the proof was successfully verified."
      }
    },
    "notice": "Supports verifying Groth16 proofs. Proofs can be in uncompressed (256 bytes) and compressed (128 bytes) format. A view function is provided to compress proofs.See <https://2π.com/23/bn254-compression> for further explanation.",
    "version": 1
  },
  "storageLayout": {
    "storage": [],
    "types": null
  }
}