{
  "address": "0x9569299A8877Bc155232cF5Aa50AF42F9Fc32C7C",
  "abi": [
    {
      "inputs": [
        {
          "internalType": "address",
          "name": "_lightClient",
          "type": "address"
        }
      ],
      "stateMutability": "nonpayable",
      "type": "constructor"
    },
    {
      "anonymous": false,
      "inputs": [
        {
          "indexed": false,
          "internalType": "uint256",
          "name": "blockNum",
          "type": "uint256"
        },
        {
          "indexed": false,
          "internalType": "bytes32",
          "name": "blockHash",
          "type": "bytes32"
        }
      ],
      "name": "AnchorBlockUpdated",
      "type": "event"
    },
    {
      "anonymous": false,
      "inputs": [
        {
          "indexed": true,
          "internalType": "address",
          "name": "previousOwner",
          "type": "address"
        },
        {
          "indexed": true,
          "internalType": "address",
          "name": "newOwner",
          "type": "address"
        }
      ],
      "name": "OwnershipTransferred",
      "type": "event"
    },
    {
      "anonymous": false,
      "inputs": [
        {
          "indexed": false,
          "internalType": "address",
          "name": "account",
          "type": "address"
        }
      ],
      "name": "Paused",
      "type": "event"
    },
    {
      "anonymous": false,
      "inputs": [
        {
          "indexed": false,
          "internalType": "address",
          "name": "account",
          "type": "address"
        }
      ],
      "name": "PauserAdded",
      "type": "event"
    },
    {
      "anonymous": false,
      "inputs": [
        {
          "indexed": false,
          "internalType": "address",
          "name": "account",
          "type": "address"
        }
      ],
      "name": "PauserRemoved",
      "type": "event"
    },
    {
      "anonymous": false,
      "inputs": [
        {
          "indexed": false,
          "internalType": "address",
          "name": "account",
          "type": "address"
        }
      ],
      "name": "ProverAdded",
      "type": "event"
    },
    {
      "anonymous": false,
      "inputs": [
        {
          "indexed": false,
          "internalType": "address",
          "name": "account",
          "type": "address"
        }
      ],
      "name": "ProverRemoved",
      "type": "event"
    },
    {
      "anonymous": false,
      "inputs": [
        {
          "indexed": false,
          "internalType": "address",
          "name": "account",
          "type": "address"
        }
      ],
      "name": "Unpaused",
      "type": "event"
    },
    {
      "inputs": [
        {
          "internalType": "address",
          "name": "account",
          "type": "address"
        }
      ],
      "name": "addPauser",
      "outputs": [],
      "stateMutability": "nonpayable",
      "type": "function"
    },
    {
      "inputs": [
        {
          "internalType": "address[]",
          "name": "accounts",
          "type": "address[]"
        }
      ],
      "name": "addPausers",
      "outputs": [],
      "stateMutability": "nonpayable",
      "type": "function"
    },
    {
      "inputs": [
        {
          "internalType": "address[]",
          "name": "_accounts",
          "type": "address[]"
        }
      ],
      "name": "addProvers",
      "outputs": [],
      "stateMutability": "nonpayable",
      "type": "function"
    },
    {
      "inputs": [
        {
          "internalType": "uint256",
          "name": "",
          "type": "uint256"
        }
      ],
      "name": "blocks",
      "outputs": [
        {
          "internalType": "bytes32",
          "name": "",
          "type": "bytes32"
        }
      ],
      "stateMutability": "view",
      "type": "function"
    },
    {
      "inputs": [
        {
          "internalType": "address",
          "name": "_account",
          "type": "address"
        }
      ],
      "name": "isActiveProver",
      "outputs": [
        {
          "internalType": "bool",
          "name": "",
          "type": "bool"
        }
      ],
      "stateMutability": "view",
      "type": "function"
    },
    {
      "inputs": [
        {
          "internalType": "address",
          "name": "account",
          "type": "address"
        }
      ],
      "name": "isPauser",
      "outputs": [
        {
          "internalType": "bool",
          "name": "",
          "type": "bool"
        }
      ],
      "stateMutability": "view",
      "type": "function"
    },
    {
      "inputs": [],
      "name": "latestBlockNum",
      "outputs": [
        {
          "internalType": "uint256",
          "name": "",
          "type": "uint256"
        }
      ],
      "stateMutability": "view",
      "type": "function"
    },
    {
      "inputs": [],
      "name": "lightClient",
      "outputs": [
        {
          "internalType": "contract IEthereumLightClient",
          "name": "",
          "type": "address"
        }
      ],
      "stateMutability": "view",
      "type": "function"
    },
    {
      "inputs": [],
      "name": "numPausers",
      "outputs": [
        {
          "internalType": "uint256",
          "name": "",
          "type": "uint256"
        }
      ],
      "stateMutability": "view",
      "type": "function"
    },
    {
      "inputs": [],
      "name": "numProvers",
      "outputs": [
        {
          "internalType": "uint256",
          "name": "",
          "type": "uint256"
        }
      ],
      "stateMutability": "view",
      "type": "function"
    },
    {
      "inputs": [],
      "name": "owner",
      "outputs": [
        {
          "internalType": "address",
          "name": "",
          "type": "address"
        }
      ],
      "stateMutability": "view",
      "type": "function"
    },
    {
      "inputs": [],
      "name": "pause",
      "outputs": [],
      "stateMutability": "nonpayable",
      "type": "function"
    },
    {
      "inputs": [],
      "name": "paused",
      "outputs": [
        {
          "internalType": "bool",
          "name": "",
          "type": "bool"
        }
      ],
      "stateMutability": "view",
      "type": "function"
    },
    {
      "inputs": [
        {
          "internalType": "uint256",
          "name": "",
          "type": "uint256"
        }
      ],
      "name": "pauserList",
      "outputs": [
        {
          "internalType": "address",
          "name": "",
          "type": "address"
        }
      ],
      "stateMutability": "view",
      "type": "function"
    },
    {
      "inputs": [
        {
          "internalType": "address",
          "name": "",
          "type": "address"
        }
      ],
      "name": "pausers",
      "outputs": [
        {
          "internalType": "bool",
          "name": "",
          "type": "bool"
        }
      ],
      "stateMutability": "view",
      "type": "function"
    },
    {
      "inputs": [
        {
          "components": [
            {
              "components": [
                {
                  "components": [
                    {
                      "internalType": "uint64",
                      "name": "slot",
                      "type": "uint64"
                    },
                    {
                      "internalType": "uint64",
                      "name": "proposerIndex",
                      "type": "uint64"
                    },
                    {
                      "internalType": "bytes32",
                      "name": "parentRoot",
                      "type": "bytes32"
                    },
                    {
                      "internalType": "bytes32",
                      "name": "stateRoot",
                      "type": "bytes32"
                    },
                    {
                      "internalType": "bytes32",
                      "name": "bodyRoot",
                      "type": "bytes32"
                    }
                  ],
                  "internalType": "struct BeaconBlockHeader",
                  "name": "beacon",
                  "type": "tuple"
                },
                {
                  "components": [
                    {
                      "components": [
                        {
                          "internalType": "bytes32",
                          "name": "leaf",
                          "type": "bytes32"
                        },
                        {
                          "internalType": "bytes32[]",
                          "name": "branch",
                          "type": "bytes32[]"
                        }
                      ],
                      "internalType": "struct LeafWithBranch",
                      "name": "stateRoot",
                      "type": "tuple"
                    },
                    {
                      "components": [
                        {
                          "internalType": "bytes32",
                          "name": "leaf",
                          "type": "bytes32"
                        },
                        {
                          "internalType": "bytes32[]",
                          "name": "branch",
                          "type": "bytes32[]"
                        }
                      ],
                      "internalType": "struct LeafWithBranch",
                      "name": "blockHash",
                      "type": "tuple"
                    },
                    {
                      "components": [
                        {
                          "internalType": "bytes32",
                          "name": "leaf",
                          "type": "bytes32"
                        },
                        {
                          "internalType": "bytes32[]",
                          "name": "branch",
                          "type": "bytes32[]"
                        }
                      ],
                      "internalType": "struct LeafWithBranch",
                      "name": "blockNumber",
                      "type": "tuple"
                    }
                  ],
                  "internalType": "struct ExecutionPayload",
                  "name": "execution",
                  "type": "tuple"
                },
                {
                  "components": [
                    {
                      "internalType": "bytes32",
                      "name": "leaf",
                      "type": "bytes32"
                    },
                    {
                      "internalType": "bytes32[]",
                      "name": "branch",
                      "type": "bytes32[]"
                    }
                  ],
                  "internalType": "struct LeafWithBranch",
                  "name": "executionRoot",
                  "type": "tuple"
                }
              ],
              "internalType": "struct HeaderWithExecution",
              "name": "attestedHeader",
              "type": "tuple"
            },
            {
              "components": [
                {
                  "internalType": "uint64",
                  "name": "participation",
                  "type": "uint64"
                },
                {
                  "internalType": "bytes32",
                  "name": "poseidonRoot",
                  "type": "bytes32"
                },
                {
                  "internalType": "uint256",
                  "name": "commitment",
                  "type": "uint256"
                },
                {
                  "components": [
                    {
                      "internalType": "uint256[2]",
                      "name": "a",
                      "type": "uint256[2]"
                    },
                    {
                      "internalType": "uint256[2][2]",
                      "name": "b",
                      "type": "uint256[2][2]"
                    },
                    {
                      "internalType": "uint256[2]",
                      "name": "c",
                      "type": "uint256[2]"
                    },
                    {
                      "internalType": "uint256[2]",
                      "name": "commitment",
                      "type": "uint256[2]"
                    }
                  ],
                  "internalType": "struct IBeaconVerifier.Proof",
                  "name": "proof",
                  "type": "tuple"
                }
              ],
              "internalType": "struct SyncAggregate",
              "name": "syncAggregate",
              "type": "tuple"
            },
            {
              "internalType": "uint64",
              "name": "signatureSlot",
              "type": "uint64"
            }
          ],
          "internalType": "struct LightClientOptimisticUpdate",
          "name": "hb",
          "type": "tuple"
        }
      ],
      "name": "processUpdate",
      "outputs": [],
      "stateMutability": "nonpayable",
      "type": "function"
    },
    {
      "inputs": [
        {
          "components": [
            {
              "components": [
                {
                  "components": [
                    {
                      "internalType": "uint64",
                      "name": "slot",
                      "type": "uint64"
                    },
                    {
                      "internalType": "uint64",
                      "name": "proposerIndex",
                      "type": "uint64"
                    },
                    {
                      "internalType": "bytes32",
                      "name": "parentRoot",
                      "type": "bytes32"
                    },
                    {
                      "internalType": "bytes32",
                      "name": "stateRoot",
                      "type": "bytes32"
                    },
                    {
                      "internalType": "bytes32",
                      "name": "bodyRoot",
                      "type": "bytes32"
                    }
                  ],
                  "internalType": "struct BeaconBlockHeader",
                  "name": "beacon",
                  "type": "tuple"
                },
                {
                  "components": [
                    {
                      "components": [
                        {
                          "internalType": "bytes32",
                          "name": "leaf",
                          "type": "bytes32"
                        },
                        {
                          "internalType": "bytes32[]",
                          "name": "branch",
                          "type": "bytes32[]"
                        }
                      ],
                      "internalType": "struct LeafWithBranch",
                      "name": "stateRoot",
                      "type": "tuple"
                    },
                    {
                      "components": [
                        {
                          "internalType": "bytes32",
                          "name": "leaf",
                          "type": "bytes32"
                        },
                        {
                          "internalType": "bytes32[]",
                          "name": "branch",
                          "type": "bytes32[]"
                        }
                      ],
                      "internalType": "struct LeafWithBranch",
                      "name": "blockHash",
                      "type": "tuple"
                    },
                    {
                      "components": [
                        {
                          "internalType": "bytes32",
                          "name": "leaf",
                          "type": "bytes32"
                        },
                        {
                          "internalType": "bytes32[]",
                          "name": "branch",
                          "type": "bytes32[]"
                        }
                      ],
                      "internalType": "struct LeafWithBranch",
                      "name": "blockNumber",
                      "type": "tuple"
                    }
                  ],
                  "internalType": "struct ExecutionPayload",
                  "name": "execution",
                  "type": "tuple"
                },
                {
                  "components": [
                    {
                      "internalType": "bytes32",
                      "name": "leaf",
                      "type": "bytes32"
                    },
                    {
                      "internalType": "bytes32[]",
                      "name": "branch",
                      "type": "bytes32[]"
                    }
                  ],
                  "internalType": "struct LeafWithBranch",
                  "name": "executionRoot",
                  "type": "tuple"
                }
              ],
              "internalType": "struct HeaderWithExecution",
              "name": "attestedHeader",
              "type": "tuple"
            },
            {
              "components": [
                {
                  "internalType": "uint64",
                  "name": "participation",
                  "type": "uint64"
                },
                {
                  "internalType": "bytes32",
                  "name": "poseidonRoot",
                  "type": "bytes32"
                },
                {
                  "internalType": "uint256",
                  "name": "commitment",
                  "type": "uint256"
                },
                {
                  "components": [
                    {
                      "internalType": "uint256[2]",
                      "name": "a",
                      "type": "uint256[2]"
                    },
                    {
                      "internalType": "uint256[2][2]",
                      "name": "b",
                      "type": "uint256[2][2]"
                    },
                    {
                      "internalType": "uint256[2]",
                      "name": "c",
                      "type": "uint256[2]"
                    },
                    {
                      "internalType": "uint256[2]",
                      "name": "commitment",
                      "type": "uint256[2]"
                    }
                  ],
                  "internalType": "struct IBeaconVerifier.Proof",
                  "name": "proof",
                  "type": "tuple"
                }
              ],
              "internalType": "struct SyncAggregate",
              "name": "syncAggregate",
              "type": "tuple"
            },
            {
              "internalType": "uint64",
              "name": "signatureSlot",
              "type": "uint64"
            }
          ],
          "internalType": "struct LightClientOptimisticUpdate",
          "name": "hb",
          "type": "tuple"
        },
        {
          "internalType": "bytes32",
          "name": "blockHash",
          "type": "bytes32"
        },
        {
          "components": [
            {
              "internalType": "bytes",
              "name": "left",
              "type": "bytes"
            },
            {
              "internalType": "bytes",
              "name": "right",
              "type": "bytes"
            }
          ],
          "internalType": "struct AnchorBlocks.BlockHashWitness[]",
          "name": "chainProof",
          "type": "tuple[]"
        }
      ],
      "name": "processUpdateWithChainProof",
      "outputs": [],
      "stateMutability": "nonpayable",
      "type": "function"
    },
    {
      "inputs": [
        {
          "internalType": "address",
          "name": "",
          "type": "address"
        }
      ],
      "name": "proverStates",
      "outputs": [
        {
          "internalType": "enum BrevisAccess.ProverState",
          "name": "",
          "type": "uint8"
        }
      ],
      "stateMutability": "view",
      "type": "function"
    },
    {
      "inputs": [
        {
          "internalType": "uint256",
          "name": "",
          "type": "uint256"
        }
      ],
      "name": "provers",
      "outputs": [
        {
          "internalType": "address",
          "name": "",
          "type": "address"
        }
      ],
      "stateMutability": "view",
      "type": "function"
    },
    {
      "inputs": [
        {
          "internalType": "address",
          "name": "account",
          "type": "address"
        }
      ],
      "name": "removePauser",
      "outputs": [],
      "stateMutability": "nonpayable",
      "type": "function"
    },
    {
      "inputs": [
        {
          "internalType": "address[]",
          "name": "accounts",
          "type": "address[]"
        }
      ],
      "name": "removePausers",
      "outputs": [],
      "stateMutability": "nonpayable",
      "type": "function"
    },
    {
      "inputs": [
        {
          "internalType": "address[]",
          "name": "_accounts",
          "type": "address[]"
        }
      ],
      "name": "removeProvers",
      "outputs": [],
      "stateMutability": "nonpayable",
      "type": "function"
    },
    {
      "inputs": [],
      "name": "renouncePauser",
      "outputs": [],
      "stateMutability": "nonpayable",
      "type": "function"
    },
    {
      "inputs": [
        {
          "internalType": "address",
          "name": "_lightClient",
          "type": "address"
        }
      ],
      "name": "setLightClient",
      "outputs": [],
      "stateMutability": "nonpayable",
      "type": "function"
    },
    {
      "inputs": [
        {
          "internalType": "address",
          "name": "newOwner",
          "type": "address"
        }
      ],
      "name": "transferOwnership",
      "outputs": [],
      "stateMutability": "nonpayable",
      "type": "function"
    },
    {
      "inputs": [],
      "name": "unpause",
      "outputs": [],
      "stateMutability": "nonpayable",
      "type": "function"
    }
  ],
  "transactionHash": "0x19360154d2a093f6e7d175779dfb3bbec72400f075ce1259fa969a86231d2ac5",
  "args": [
    "0xc8c741C7C4844Cd3C4B60d8dc95DF1DC452C53c6"
  ],
  "numDeployments": 2,
  "solcInputHash": "7e45ec70fac8dd00f68cb3a828b70837",
  "bytecode": "0x6080346101ad57601f6200208f38819003918201601f1916830192916001600160401b038411838510176101b257808392604095865283396020928391810103126101ad57516001600160a01b038082169290918390036101ad576000918254855191339082167f8be0079c531659141344cd1fd0a4f28419497f9722a3daafe3b4186f6b6457e08680a36001600160a81b0319163360ff60a01b1981169190911784558352600182528483205460ff1661016d5750600254680100000000000000008110156101595760018101806002558110156101455790847f6719d08c1888103bea251a4ed56406bd0c3e69723c8a1686e017e7bbe159b6f89260028552828520019360018060a01b03199433868254161790553381526001835220600160ff198254161790558451338152a1600554161760055551611ec69081620001c98239f35b634e487b7160e01b83526032600452602483fd5b634e487b7160e01b83526041600452602483fd5b60649162461bcd60e51b82526004820152601960248201527f4163636f756e7420697320616c726561647920706175736572000000000000006044820152fd5b600080fd5b634e487b7160e01b600052604160045260246000fdfe6040608081526004908136101561001557600080fd5b6000803560e01c8063158535ff14610d865780632e3466f614610cc05780633e553bab14610c6d5780633f4ba83a14610b6d57806346fbf68e146108ee5780634f4fef1814610b4f57806358a16b4414610b305780635c975abb14610b0b578063677625f21461097b5780636b2c0f55146109445780636ef8d66d1461092a57806380f51c12146108ee57806382dc1ec4146108b75780638456cb591461079d5780638da5cb5b14610777578063a036e79914610727578063b5700e68146106ff578063e6c6fcec146106af578063e79b7a5114610656578063ec64842e146105f9578063f25b3f99146105d1578063f2fde38b146104e6578063fabc74f51461048d578063fb8cfb51146101a3578063fbbea34c146101805763fd1190ea1461013e57600080fd5b3461017d57602036600319011261017d578235925483101561017d57506001600160a01b0361016e602093610e02565b92905490519260031b1c168152f35b80fd5b50903461019f578160031936011261019f576020906007549051908152f35b5080fd5b509190346104895760603660031901126104895767ffffffffffffffff918035838111610485576101d79036908301610fd1565b9160248035946044928335828111610481573660238201121561048157808601359061020282610edf565b9161020f84519384610ea3565b808352602094868685019260051b8401019236841161047d57878101925b8484106104075750505050503389526003835260ff828a2054169660038810156103f55761025e60018099146112f1565b8151156103b45761026e90611365565b919097815189039889116103a257808a928c925b6102db575b5050500361029d578761029a888861184d565b80f35b5162461bcd60e51b8152938401526012908301527f696e76616c696420636861696e50726f6f66000000000000000000000000000090820152606490fd5b909192815184101561039c57896102f2858461191f565b5151510361035b57610353908761034a61030c878661191f565b51519261033c8361031d8a8961191f565b5101518b519485936103328286018099611933565b9081520190611933565b03601f198101835282610ea3565b519020936118fa565b919081610282565b855162461bcd60e51b8152808b018890526010818a01527f696e76616c6964206c656674206c656e00000000000000000000000000000000818b0152606490fd5b92610287565b634e487b7160e01b8b5260118852858bfd5b825162461bcd60e51b81528088018590526014818701527f696e76616c69642070726f6f66206c656e67746800000000000000000000000081880152606490fd5b634e487b7160e01b8a5260218752848afd5b83358381116104795782018760231982360301126104795787519161042b83610e39565b8a82013585811161047457610445908c369185010161129a565b83528b82013592858411610474576104658b94938d86953692010161129a565b8382015281520193019261022d565b508f80fd5b8e80fd5b8c80fd5b8880fd5b8480fd5b8280fd5b50903461019f57602036600319011261019f576001600160a01b036104b06111f5565b168252600360205260ff818320541690519160038210156104d357602083838152f35b634e487b7160e01b815260218452602490fd5b509134610489576020366003190112610489576105016111f5565b908354906001600160a01b038083169361051c33861461195e565b1693841561056857505073ffffffffffffffffffffffffffffffffffffffff1916821783557f8be0079c531659141344cd1fd0a4f28419497f9722a3daafe3b4186f6b6457e08380a380f35b906020608492519162461bcd60e51b8352820152602660248201527f4f776e61626c653a206e6577206f776e657220697320746865207a65726f206160448201527f64647265737300000000000000000000000000000000000000000000000000006064820152fd5b5091346104895760203660031901126104895760209282913581526006845220549051908152f35b5082903461017d57602036600319011261017d576001600160a01b0361061d6111f5565b168152600360205260ff8382205416916003831015610643576020836001865191148152f35b634e487b7160e01b825260219052602490fd5b503461017d576106653661120b565b906001600160a01b039161067d83835416331461195e565b815b81518110156106ab57806106a18561069a6106a6948661191f565b5116611bec565b6118fa565b61067f565b8280f35b503461017d576106be3661120b565b906001600160a01b03916106d683835416331461195e565b815b81518110156106ab57806106a1856106f36106fa948661191f565b5116611a14565b6106d8565b50903461019f578160031936011261019f576020906001600160a01b03600554169051908152f35b503461017d576107363661120b565b906001600160a01b039161074e83835416331461195e565b815b81518110156106ab57806106a18561076b610772948661191f565b5116611cd2565b610750565b50903461019f578160031936011261019f576001600160a01b0360209254169051908152f35b509190346104895782600319360112610489573383526001916020908382526107cb60ff84872054166119c8565b845460ff8160a01c166108755760ff60a01b197401000000000000000000000000000000000000000091161785557f62e78cea01bee320cd4e420270b5ea74000d11b0c9f74754ebdbfc544b05a258828451338152a184845b61082c578580f35b815481101561087157806001600160a01b0361084a61086b93610e02565b919054600392831b1c1688528452848720600260ff198254161790556118fa565b84610824565b8580f35b50915162461bcd60e51b815291820152601060248201527f5061757361626c653a20706175736564000000000000000000000000000000006044820152606490fd5b503461017d57602036600319011261017d5761029a6108d46111f5565b6108e96001600160a01b03845416331461195e565b611bec565b50903461019f57602036600319011261019f5760ff816020936001600160a01b036109176111f5565b1681526001855220541690519015158152f35b503461017d578060031936011261017d5761029a33611cd2565b503461017d57602036600319011261017d5761029a6109616111f5565b6109766001600160a01b03845416331461195e565b611cd2565b503461017d5761098a3661120b565b918154906001600160a01b03916109a4338483161461195e565b60ff9060a01c811615610b03576002925b845b865181101561087157816109cb828961191f565b511680875260039060209180835285878a20541681811015610af057610aad578a5468010000000000000000811015610a9a5782610a12828e6001610a3295019055610e02565b90919082549060031b916001600160a01b03809116831b921b1916179055565b81895280835286892090881015610a8757917fef1fa0a4d797341645c201a742cf59be633da0589e0e3cda511cfc90cd03968491610a82949360ff19815416888b161790558751908152a16118fa565b6109b7565b634e487b7160e01b895260218b52602489fd5b634e487b7160e01b8a5260418c5260248afd5b865162461bcd60e51b8152808c01849052601160248201527f6163636f756e742069732070726f7665720000000000000000000000000000006044820152606490fd5b634e487b7160e01b8a5260218c5260248afd5b6001926109b5565b50903461019f578160031936011261019f5760ff6020925460a01c1690519015158152f35b50903461019f578160031936011261019f576020906002549051908152f35b50913461048957826003193601126104895760209250549051908152f35b50903461019f578160031936011261019f573382526001906020828152610b9960ff83862054166119c8565b83549460ff8660a01c1615610c2c5760ff60a01b198495961686557f5db9ee0a495bf2e6ff9c91a7834c1ba4fdd244a5e8aa4e537bd38aeae4b073aa828451338152a185935b610be7578580f35b805484101561087157610c26846001600160a01b03610c068897610e02565b919054600392831b1c16895284528488208660ff198254161790556118fa565b93610bdf565b915162461bcd60e51b815291820152601460248201527f5061757361626c653a206e6f74207061757365640000000000000000000000006044820152606490fd5b503461017d57602036600319011261017d57610c876111f5565b6001600160a01b0390610c9e82845416331461195e565b1673ffffffffffffffffffffffffffffffffffffffff19600554161760055580f35b50823461019f57602036600319011261019f57803567ffffffffffffffff811161048957610cf19036908301610fd1565b338352600360205260ff84842054166003811015610d735790610d196001610d1e93146112f1565b611365565b918215610d3057509061029a9161184d565b606490602086519162461bcd60e51b8352820152600f60248201527f656d70747920626c6f636b4861736800000000000000000000000000000000006044820152fd5b634e487b7160e01b845260218352602484fd5b50913461048957602036600319011261048957359160025483101561017d57506001600160a01b0361016e6020935b600254811015610dec5760026000527f405787fa12a823e0f2b7631cc41b3ba8828b3321ca811111fa75cd3aa3bb5ace0190600090565b634e487b7160e01b600052603260045260246000fd5b600454811015610dec5760046000527f8a35acfbc15ff81a39ae7d344fd709f28e8600b4aa8c65c6b64bfe7fe36bd19b0190600090565b6040810190811067ffffffffffffffff821117610e5557604052565b634e487b7160e01b600052604160045260246000fd5b6060810190811067ffffffffffffffff821117610e5557604052565b6080810190811067ffffffffffffffff821117610e5557604052565b90601f8019910116810190811067ffffffffffffffff821117610e5557604052565b359067ffffffffffffffff82168203610eda57565b600080fd5b67ffffffffffffffff8111610e555760051b60200190565b9190604083820312610eda5760405192610f1084610e39565b8381358152602091828101359067ffffffffffffffff8211610eda57019280601f85011215610eda578335610f4481610edf565b94610f526040519687610ea3565b818652848087019260051b820101928311610eda5784809101915b838310610f7c57505050500152565b8235815291810191859101610f6d565b9080601f83011215610eda5760405191610fa583610e39565b829060408101928311610eda57905b828210610fc15750505090565b8135815260209182019101610fb4565b9190828103926101e08412610eda57604090815192610fef84610e6b565b839582359067ffffffffffffffff91828111610eda5784019182840360e08112610eda5760a087519161102183610e6b565b12610eda5786519160a0830183811082821117610e5557885261104385610ec5565b8352602094611053868201610ec5565b868501528881013589850152606093848201358582015260808201356080820152835260a0810135828111610eda5781018481890312610eda5789519061109982610e6b565b8035848111610eda57896110ae918301610ef7565b825287810135848111610eda57896110c7918301610ef7565b888301528a81013590848211610eda576110e3918a9101610ef7565b8a8201528684015260c0810135918211610eda5761110391879101610ef7565b8188015287526101a0601f19830112610eda5785519361112285610e87565b61112d848701610ec5565b8552868601358486015281860135878601526101408093607f190112610eda5786519261115984610e87565b6111668260808901610f8c565b84528160df88011215610eda57875161117e81610e39565b8091880191838311610eda578960c08a01915b8483106111dc57505050826111b986948896946111c7946111d79c9a6101c09c9a0152610f8c565b8a8501526101808701610f8c565b8183015283015286015201610ec5565b910152565b88906111e88785610f8c565b8152019101908a90611191565b600435906001600160a01b0382168203610eda57565b602080600319830112610eda576004359167ffffffffffffffff8311610eda5780602384011215610eda57826004013561124481610edf565b936112526040519586610ea3565b81855260248486019260051b820101928311610eda57602401905b82821061127b575050505090565b81356001600160a01b0381168103610eda57815290830190830161126d565b81601f82011215610eda5780359067ffffffffffffffff8211610e5557604051926112cf601f8401601f191660200185610ea3565b82845260208383010111610eda57816000926020809301838601378301015290565b156112f857565b60405162461bcd60e51b815260206004820152600e60248201527f696e76616c69642070726f7665720000000000000000000000000000000000006044820152606490fd5b6000915b6002831061134e57505050565b600190825181526020809101920192019190611341565b60209182820192835192600094600367ffffffffffffffff809651160285811690810361183957610400116117f457815191604094858401908151936080865101519887865196015195968b975b87518910156114655760ff8911611451576001808a1b1561143d578a918e9160198c1c811603611425576113f46113ff916113ee8d8d61191f565b516119a9565b8d5191828092611933565b039060025afa1561141b576114158c51986118fa565b976113b3565b89513d8d823e3d90fd5b6113f46113ff916114368d8d61191f565b51906119a9565b634e487b7160e01b8e52601260045260248efd5b634e487b7160e01b8d52601160045260248dfd5b92959a91949750929550036117b0578501938685510151938151519887865196015195968b975b87518910156114f45760ff8911611451576001808a1b1561143d578a918e9160268c1c8116036114e3576113f46114c7916113ee8d8d61191f565b039060025afa1561141b576114dd8c51986118fa565b9761148c565b6113f46114c7916114368d8d61191f565b92959a919497509295500361178057859051015192515196858451940151939489955b85518710156115bc5760ff87116115a857600180881b156115945788918c91602c8a1c8116036115835761155261155d916113ee8b8b61191f565b8b5191828092611933565b039060025afa15611579576115738a51966118fa565b95611517565b87513d8b823e3d90fd5b61155261155d916114368b8b61191f565b634e487b7160e01b8c52601260045260248cfd5b634e487b7160e01b8b52601160045260248bfd5b929550929790935095949503611750576001600160a01b0360055416818585015116928451519051823b1561174c579160608a9360808997949751978895631ee9fa5560e11b87526004870152878151166024870152878c8201511660448701528a8101516064870152838101516084870152015160a48501528581511660c48501528981015160e48501528881015161010485015201516116636101248401825161133d565b80890151848a8a61016487015b6002841061172257506102649593506116a99250606091509361169c87958201516101e487019061133d565b015161022484019061133d565b5afa8015611718576116f1575b50508290510190815101515184905b8382106116d55750505101515190565b600895861b60ff821617951c906116eb906118fa565b906116c5565b81969296116117045782529382386116b6565b634e487b7160e01b82526041600452602482fd5b84513d89823e3d90fd5b90919294965083959750611739816001955161133d565b0193019101908693918a8a8e9795611670565b8980fd5b835162461bcd60e51b81526004810186905260096024820152683130b210383937b7b360b91b6044820152606490fd5b865162461bcd60e51b81526004810187905260096024820152683130b210383937b7b360b91b6044820152606490fd5b865162461bcd60e51b815260048101879052601360248201527f626164206578656320726f6f742070726f6f66000000000000000000000000006044820152606490fd5b60405162461bcd60e51b815260048101849052601260248201527f71756f72756d206e6f74207265616368656400000000000000000000000000006044820152606490fd5b634e487b7160e01b87526011600452602487fd5b908160005260066020526040600020546118b557816040917fa9aaf84657c346a7eafe57cf0403ab0be7867b79a5fdd5e5ab3527fbfc739d8593600052600660205280836000205560075482116118ac575b82519182526020820152a1565b8160075561189f565b60405162461bcd60e51b815260206004820152601960248201527f626c6f636b206861736820616c726561647920657869737473000000000000006044820152606490fd5b60001981146119095760010190565b634e487b7160e01b600052601160045260246000fd5b8051821015610dec5760209160051b010190565b9081519160005b83811061194b575050016000815290565b806020809284010151818501520161193a565b1561196557565b606460405162461bcd60e51b815260206004820152602060248201527f4f776e61626c653a2063616c6c6572206973206e6f7420746865206f776e65726044820152fd5b91906040519260208401526040830152604082526119c682610e6b565b565b156119cf57565b60405162461bcd60e51b815260206004820152601460248201527f43616c6c6572206973206e6f74207061757365720000000000000000000000006044820152606490fd5b6001600160a01b0380911691600083815260039360209185835260409060ff828220541687811015611bd85715611b945760049687549660001990818901988911611b8157835b8a54811015611b3e578682611a6f83610e02565b905490871b1c1614611a8957611a84906118fa565b611a5b565b909192939495969798808210611b19575b50505087548015611b065797849392917fd64d11086d859b73cf85a91ca06cbc484398acabe3d9a1b26d4366dff377d98598990190611af0611adb83610e02565b6001600160a01b0382549160031b1b19169055565b55848252855220805460ff1916905551908152a1565b634e487b7160e01b845260318952602484fd5b611b3692611b29610a1292610e02565b905490871b1c1691610e02565b388080611a9a565b855162461bcd60e51b8152808c01899052601060248201527f70726f766572206e6f7420666f756e64000000000000000000000000000000006044820152606490fd5b634e487b7160e01b845260118a52602484fd5b815162461bcd60e51b815260048101859052601560248201527f6163636f756e74206973206e6f742070726f76657200000000000000000000006044820152606490fd5b634e487b7160e01b82526021600452602482fd5b6001600160a01b03811690600090828252600160205260ff604083205416611c8d5760025468010000000000000000811015611c7957602092611c5d7f6719d08c1888103bea251a4ed56406bd0c3e69723c8a1686e017e7bbe159b6f89593610a1284600160409601600255610db5565b8281526001845220600160ff19825416179055604051908152a1565b634e487b7160e01b83526041600452602483fd5b60405162461bcd60e51b815260206004820152601960248201527f4163636f756e7420697320616c726561647920706175736572000000000000006044820152606490fd5b6001600160a01b038091169060009282845260019060209382855260409360ff858820541615611e4c5760028054909160001991828101908111611e3857908695949392918a975b611d63575b885162461bcd60e51b8152600481018b9052601060248201527f706175736572206e6f7420666f756e64000000000000000000000000000000006044820152606490fd5b8399989799548a1015611e2f578185611d7b8c610db5565b929054600393841b1c1614611da45750611d9b8798999a979596976118fa565b97969594611d1a565b9293949796959991818310611e0a575b5050505081548015611df657918493917fcd265ebaf09df2871cc7bd4133404a235ba12eff2041bb89d9c714a2621c7c7e9899930190611af0611adb83610db5565b634e487b7160e01b89526031600452602489fd5b611e2693611e1a610a1293610db5565b9054911b1c1691610db5565b38808080611db4565b87989950611d1f565b634e487b7160e01b8a52601160045260248afd5b845162461bcd60e51b815260048101879052601560248201527f4163636f756e74206973206e6f742070617573657200000000000000000000006044820152606490fdfea264697066735822122008e8f2950b84178eddd9b14ba3d72b2d804049c8688ccbb2f999698cd0512b4964736f6c63430008140033",
  "devdoc": {
    "events": {
      "Paused(address)": {
        "details": "Emitted when the pause is triggered by `account`."
      },
      "Unpaused(address)": {
        "details": "Emitted when the pause is lifted by `account`."
      }
    },
    "kind": "dev",
    "methods": {
      "owner()": {
        "details": "Returns the address of the current owner."
      },
      "paused()": {
        "details": "Returns true if the contract is paused, and false otherwise."
      },
      "processUpdateWithChainProof((((uint64,uint64,bytes32,bytes32,bytes32),((bytes32,bytes32[]),(bytes32,bytes32[]),(bytes32,bytes32[])),(bytes32,bytes32[])),(uint64,bytes32,uint256,(uint256[2],uint256[2][2],uint256[2],uint256[2])),uint64),bytes32,(bytes,bytes)[])": {
        "details": "It is possible that an attested block doesn't collect enough sync committee signatures in its corresponding signature slot and thus cannot be used in an anchor update. In that case, the updater can pick a later block that has enough sigs, and supply a chainProof to show that the block they want to sync can chain to the head block."
      },
      "transferOwnership(address)": {
        "details": "Transfers ownership of the contract to a new account (`newOwner`). Can only be called by the current owner."
      }
    },
    "version": 1
  },
  "userdoc": {
    "kind": "user",
    "methods": {
      "processUpdate((((uint64,uint64,bytes32,bytes32,bytes32),((bytes32,bytes32[]),(bytes32,bytes32[]),(bytes32,bytes32[])),(bytes32,bytes32[])),(uint64,bytes32,uint256,(uint256[2],uint256[2][2],uint256[2],uint256[2])),uint64))": {
        "notice": "Updates an \"anchor block\" of a specific block number to the contract state"
      },
      "processUpdateWithChainProof((((uint64,uint64,bytes32,bytes32,bytes32),((bytes32,bytes32[]),(bytes32,bytes32[]),(bytes32,bytes32[])),(bytes32,bytes32[])),(uint64,bytes32,uint256,(uint256[2],uint256[2][2],uint256[2],uint256[2])),uint64),bytes32,(bytes,bytes)[])": {
        "notice": "Updates an \"anchor block\" of a specific block number to the contract state"
      }
    },
    "version": 1
  },
  "storageLayout": {
    "storage": [
      {
        "astId": 1395,
        "contract": "contracts/light-client-eth/AnchorBlocks.sol:AnchorBlocks",
        "label": "_owner",
        "offset": 0,
        "slot": "0",
        "type": "t_address"
      },
      {
        "astId": 17,
        "contract": "contracts/light-client-eth/AnchorBlocks.sol:AnchorBlocks",
        "label": "_paused",
        "offset": 20,
        "slot": "0",
        "type": "t_bool"
      },
      {
        "astId": 1509,
        "contract": "contracts/light-client-eth/AnchorBlocks.sol:AnchorBlocks",
        "label": "pausers",
        "offset": 0,
        "slot": "1",
        "type": "t_mapping(t_address,t_bool)"
      },
      {
        "astId": 1512,
        "contract": "contracts/light-client-eth/AnchorBlocks.sol:AnchorBlocks",
        "label": "pauserList",
        "offset": 0,
        "slot": "2",
        "type": "t_array(t_address)dyn_storage"
      },
      {
        "astId": 1082,
        "contract": "contracts/light-client-eth/AnchorBlocks.sol:AnchorBlocks",
        "label": "proverStates",
        "offset": 0,
        "slot": "3",
        "type": "t_mapping(t_address,t_enum(ProverState)1077)"
      },
      {
        "astId": 1085,
        "contract": "contracts/light-client-eth/AnchorBlocks.sol:AnchorBlocks",
        "label": "provers",
        "offset": 0,
        "slot": "4",
        "type": "t_array(t_address)dyn_storage"
      },
      {
        "astId": 142,
        "contract": "contracts/light-client-eth/AnchorBlocks.sol:AnchorBlocks",
        "label": "lightClient",
        "offset": 0,
        "slot": "5",
        "type": "t_contract(IEthereumLightClient)1068"
      },
      {
        "astId": 146,
        "contract": "contracts/light-client-eth/AnchorBlocks.sol:AnchorBlocks",
        "label": "blocks",
        "offset": 0,
        "slot": "6",
        "type": "t_mapping(t_uint256,t_bytes32)"
      },
      {
        "astId": 148,
        "contract": "contracts/light-client-eth/AnchorBlocks.sol:AnchorBlocks",
        "label": "latestBlockNum",
        "offset": 0,
        "slot": "7",
        "type": "t_uint256"
      }
    ],
    "types": {
      "t_address": {
        "encoding": "inplace",
        "label": "address",
        "numberOfBytes": "20"
      },
      "t_array(t_address)dyn_storage": {
        "base": "t_address",
        "encoding": "dynamic_array",
        "label": "address[]",
        "numberOfBytes": "32"
      },
      "t_bool": {
        "encoding": "inplace",
        "label": "bool",
        "numberOfBytes": "1"
      },
      "t_bytes32": {
        "encoding": "inplace",
        "label": "bytes32",
        "numberOfBytes": "32"
      },
      "t_contract(IEthereumLightClient)1068": {
        "encoding": "inplace",
        "label": "contract IEthereumLightClient",
        "numberOfBytes": "20"
      },
      "t_enum(ProverState)1077": {
        "encoding": "inplace",
        "label": "enum BrevisAccess.ProverState",
        "numberOfBytes": "1"
      },
      "t_mapping(t_address,t_bool)": {
        "encoding": "mapping",
        "key": "t_address",
        "label": "mapping(address => bool)",
        "numberOfBytes": "32",
        "value": "t_bool"
      },
      "t_mapping(t_address,t_enum(ProverState)1077)": {
        "encoding": "mapping",
        "key": "t_address",
        "label": "mapping(address => enum BrevisAccess.ProverState)",
        "numberOfBytes": "32",
        "value": "t_enum(ProverState)1077"
      },
      "t_mapping(t_uint256,t_bytes32)": {
        "encoding": "mapping",
        "key": "t_uint256",
        "label": "mapping(uint256 => bytes32)",
        "numberOfBytes": "32",
        "value": "t_bytes32"
      },
      "t_uint256": {
        "encoding": "inplace",
        "label": "uint256",
        "numberOfBytes": "32"
      }
    }
  }
}