{
  "address": "0x025B2D584404c5a3B65b01C12FCBD6cE08C53e62",
  "abi": [
    {
      "inputs": [
        {
          "internalType": "uint64[]",
          "name": "_chainIds",
          "type": "uint64[]"
        },
        {
          "internalType": "address[]",
          "name": "_anchorProviders",
          "type": "address[]"
        },
        {
          "internalType": "address[]",
          "name": "_verifiers",
          "type": "address[]"
        },
        {
          "internalType": "bytes32[]",
          "name": "_initRoots",
          "type": "bytes32[]"
        }
      ],
      "stateMutability": "nonpayable",
      "type": "constructor"
    },
    {
      "anonymous": false,
      "inputs": [
        {
          "indexed": false,
          "internalType": "uint64",
          "name": "chainId",
          "type": "uint64"
        },
        {
          "indexed": false,
          "internalType": "address",
          "name": "anchorProvider",
          "type": "address"
        }
      ],
      "name": "AnchorProviderUpdated",
      "type": "event"
    },
    {
      "anonymous": false,
      "inputs": [
        {
          "indexed": false,
          "internalType": "uint64",
          "name": "chainId",
          "type": "uint64"
        },
        {
          "indexed": false,
          "internalType": "bytes32",
          "name": "circuitDigest",
          "type": "bytes32"
        }
      ],
      "name": "CircuitDigestUpdated",
      "type": "event"
    },
    {
      "anonymous": false,
      "inputs": [
        {
          "indexed": true,
          "internalType": "address",
          "name": "previousOwner",
          "type": "address"
        },
        {
          "indexed": true,
          "internalType": "address",
          "name": "newOwner",
          "type": "address"
        }
      ],
      "name": "OwnershipTransferred",
      "type": "event"
    },
    {
      "anonymous": false,
      "inputs": [
        {
          "indexed": false,
          "internalType": "address",
          "name": "account",
          "type": "address"
        }
      ],
      "name": "Paused",
      "type": "event"
    },
    {
      "anonymous": false,
      "inputs": [
        {
          "indexed": false,
          "internalType": "address",
          "name": "account",
          "type": "address"
        }
      ],
      "name": "PauserAdded",
      "type": "event"
    },
    {
      "anonymous": false,
      "inputs": [
        {
          "indexed": false,
          "internalType": "address",
          "name": "account",
          "type": "address"
        }
      ],
      "name": "PauserRemoved",
      "type": "event"
    },
    {
      "anonymous": false,
      "inputs": [
        {
          "indexed": false,
          "internalType": "address",
          "name": "account",
          "type": "address"
        }
      ],
      "name": "ProverAdded",
      "type": "event"
    },
    {
      "anonymous": false,
      "inputs": [
        {
          "indexed": false,
          "internalType": "address",
          "name": "account",
          "type": "address"
        }
      ],
      "name": "ProverRemoved",
      "type": "event"
    },
    {
      "anonymous": false,
      "inputs": [
        {
          "indexed": false,
          "internalType": "address",
          "name": "account",
          "type": "address"
        }
      ],
      "name": "RootUpdaterUpdated",
      "type": "event"
    },
    {
      "anonymous": false,
      "inputs": [
        {
          "indexed": false,
          "internalType": "bytes32",
          "name": "smtRoot",
          "type": "bytes32"
        },
        {
          "indexed": false,
          "internalType": "uint64",
          "name": "endBlockNum",
          "type": "uint64"
        },
        {
          "indexed": false,
          "internalType": "uint64",
          "name": "chainId",
          "type": "uint64"
        }
      ],
      "name": "SmtRootUpdated",
      "type": "event"
    },
    {
      "anonymous": false,
      "inputs": [
        {
          "indexed": false,
          "internalType": "address",
          "name": "account",
          "type": "address"
        }
      ],
      "name": "Unpaused",
      "type": "event"
    },
    {
      "anonymous": false,
      "inputs": [
        {
          "indexed": false,
          "internalType": "uint64",
          "name": "chainId",
          "type": "uint64"
        },
        {
          "indexed": false,
          "internalType": "address",
          "name": "verifier",
          "type": "address"
        }
      ],
      "name": "VerifierUpdated",
      "type": "event"
    },
    {
      "inputs": [
        {
          "internalType": "address",
          "name": "account",
          "type": "address"
        }
      ],
      "name": "addPauser",
      "outputs": [],
      "stateMutability": "nonpayable",
      "type": "function"
    },
    {
      "inputs": [
        {
          "internalType": "address[]",
          "name": "accounts",
          "type": "address[]"
        }
      ],
      "name": "addPausers",
      "outputs": [],
      "stateMutability": "nonpayable",
      "type": "function"
    },
    {
      "inputs": [
        {
          "internalType": "address[]",
          "name": "_accounts",
          "type": "address[]"
        }
      ],
      "name": "addProvers",
      "outputs": [],
      "stateMutability": "nonpayable",
      "type": "function"
    },
    {
      "inputs": [
        {
          "internalType": "uint64",
          "name": "",
          "type": "uint64"
        }
      ],
      "name": "anchorProviders",
      "outputs": [
        {
          "internalType": "contract IAnchorBlocks",
          "name": "",
          "type": "address"
        }
      ],
      "stateMutability": "view",
      "type": "function"
    },
    {
      "inputs": [
        {
          "internalType": "uint64",
          "name": "",
          "type": "uint64"
        }
      ],
      "name": "circuitDigests",
      "outputs": [
        {
          "internalType": "bytes32",
          "name": "",
          "type": "bytes32"
        }
      ],
      "stateMutability": "view",
      "type": "function"
    },
    {
      "inputs": [
        {
          "internalType": "uint64",
          "name": "chainId",
          "type": "uint64"
        }
      ],
      "name": "getLatestRoot",
      "outputs": [
        {
          "internalType": "bytes32",
          "name": "",
          "type": "bytes32"
        }
      ],
      "stateMutability": "view",
      "type": "function"
    },
    {
      "inputs": [
        {
          "internalType": "address",
          "name": "_account",
          "type": "address"
        }
      ],
      "name": "isActiveProver",
      "outputs": [
        {
          "internalType": "bool",
          "name": "",
          "type": "bool"
        }
      ],
      "stateMutability": "view",
      "type": "function"
    },
    {
      "inputs": [
        {
          "internalType": "address",
          "name": "account",
          "type": "address"
        }
      ],
      "name": "isPauser",
      "outputs": [
        {
          "internalType": "bool",
          "name": "",
          "type": "bool"
        }
      ],
      "stateMutability": "view",
      "type": "function"
    },
    {
      "inputs": [
        {
          "internalType": "uint64",
          "name": "chainId",
          "type": "uint64"
        },
        {
          "internalType": "bytes32",
          "name": "smtRoot",
          "type": "bytes32"
        }
      ],
      "name": "isSmtRootValid",
      "outputs": [
        {
          "internalType": "bool",
          "name": "",
          "type": "bool"
        }
      ],
      "stateMutability": "view",
      "type": "function"
    },
    {
      "inputs": [
        {
          "internalType": "uint64",
          "name": "",
          "type": "uint64"
        }
      ],
      "name": "latestRoots",
      "outputs": [
        {
          "internalType": "bytes32",
          "name": "",
          "type": "bytes32"
        }
      ],
      "stateMutability": "view",
      "type": "function"
    },
    {
      "inputs": [],
      "name": "numPausers",
      "outputs": [
        {
          "internalType": "uint256",
          "name": "",
          "type": "uint256"
        }
      ],
      "stateMutability": "view",
      "type": "function"
    },
    {
      "inputs": [],
      "name": "numProvers",
      "outputs": [
        {
          "internalType": "uint256",
          "name": "",
          "type": "uint256"
        }
      ],
      "stateMutability": "view",
      "type": "function"
    },
    {
      "inputs": [],
      "name": "owner",
      "outputs": [
        {
          "internalType": "address",
          "name": "",
          "type": "address"
        }
      ],
      "stateMutability": "view",
      "type": "function"
    },
    {
      "inputs": [],
      "name": "pause",
      "outputs": [],
      "stateMutability": "nonpayable",
      "type": "function"
    },
    {
      "inputs": [],
      "name": "paused",
      "outputs": [
        {
          "internalType": "bool",
          "name": "",
          "type": "bool"
        }
      ],
      "stateMutability": "view",
      "type": "function"
    },
    {
      "inputs": [
        {
          "internalType": "uint256",
          "name": "",
          "type": "uint256"
        }
      ],
      "name": "pauserList",
      "outputs": [
        {
          "internalType": "address",
          "name": "",
          "type": "address"
        }
      ],
      "stateMutability": "view",
      "type": "function"
    },
    {
      "inputs": [
        {
          "internalType": "address",
          "name": "",
          "type": "address"
        }
      ],
      "name": "pausers",
      "outputs": [
        {
          "internalType": "bool",
          "name": "",
          "type": "bool"
        }
      ],
      "stateMutability": "view",
      "type": "function"
    },
    {
      "inputs": [
        {
          "internalType": "uint64",
          "name": "chainId",
          "type": "uint64"
        },
        {
          "internalType": "bytes32",
          "name": "newRoot",
          "type": "bytes32"
        },
        {
          "internalType": "uint64",
          "name": "endBlockNum",
          "type": "uint64"
        }
      ],
      "name": "postRoot",
      "outputs": [],
      "stateMutability": "nonpayable",
      "type": "function"
    },
    {
      "inputs": [
        {
          "internalType": "address",
          "name": "",
          "type": "address"
        }
      ],
      "name": "proverStates",
      "outputs": [
        {
          "internalType": "enum BrevisAccess.ProverState",
          "name": "",
          "type": "uint8"
        }
      ],
      "stateMutability": "view",
      "type": "function"
    },
    {
      "inputs": [
        {
          "internalType": "uint256",
          "name": "",
          "type": "uint256"
        }
      ],
      "name": "provers",
      "outputs": [
        {
          "internalType": "address",
          "name": "",
          "type": "address"
        }
      ],
      "stateMutability": "view",
      "type": "function"
    },
    {
      "inputs": [
        {
          "internalType": "address",
          "name": "account",
          "type": "address"
        }
      ],
      "name": "removePauser",
      "outputs": [],
      "stateMutability": "nonpayable",
      "type": "function"
    },
    {
      "inputs": [
        {
          "internalType": "address[]",
          "name": "accounts",
          "type": "address[]"
        }
      ],
      "name": "removePausers",
      "outputs": [],
      "stateMutability": "nonpayable",
      "type": "function"
    },
    {
      "inputs": [
        {
          "internalType": "address[]",
          "name": "_accounts",
          "type": "address[]"
        }
      ],
      "name": "removeProvers",
      "outputs": [],
      "stateMutability": "nonpayable",
      "type": "function"
    },
    {
      "inputs": [],
      "name": "renouncePauser",
      "outputs": [],
      "stateMutability": "nonpayable",
      "type": "function"
    },
    {
      "inputs": [],
      "name": "rootUpdater",
      "outputs": [
        {
          "internalType": "address",
          "name": "",
          "type": "address"
        }
      ],
      "stateMutability": "view",
      "type": "function"
    },
    {
      "inputs": [
        {
          "internalType": "uint64",
          "name": "chainId",
          "type": "uint64"
        },
        {
          "internalType": "address",
          "name": "anchorProvider",
          "type": "address"
        }
      ],
      "name": "setAnchorProvider",
      "outputs": [],
      "stateMutability": "nonpayable",
      "type": "function"
    },
    {
      "inputs": [
        {
          "internalType": "uint64",
          "name": "chainId",
          "type": "uint64"
        },
        {
          "internalType": "bytes32",
          "name": "_circuitDigest",
          "type": "bytes32"
        }
      ],
      "name": "setCircuitDigest",
      "outputs": [],
      "stateMutability": "nonpayable",
      "type": "function"
    },
    {
      "inputs": [
        {
          "internalType": "address",
          "name": "_rootUpdater",
          "type": "address"
        }
      ],
      "name": "setRootUpdater",
      "outputs": [],
      "stateMutability": "nonpayable",
      "type": "function"
    },
    {
      "inputs": [
        {
          "internalType": "uint64",
          "name": "chainId",
          "type": "uint64"
        },
        {
          "internalType": "address",
          "name": "verifier",
          "type": "address"
        }
      ],
      "name": "setVerifier",
      "outputs": [],
      "stateMutability": "nonpayable",
      "type": "function"
    },
    {
      "inputs": [
        {
          "internalType": "uint64",
          "name": "",
          "type": "uint64"
        },
        {
          "internalType": "bytes32",
          "name": "",
          "type": "bytes32"
        }
      ],
      "name": "smtRoots",
      "outputs": [
        {
          "internalType": "bool",
          "name": "",
          "type": "bool"
        }
      ],
      "stateMutability": "view",
      "type": "function"
    },
    {
      "inputs": [
        {
          "internalType": "address",
          "name": "newOwner",
          "type": "address"
        }
      ],
      "name": "transferOwnership",
      "outputs": [],
      "stateMutability": "nonpayable",
      "type": "function"
    },
    {
      "inputs": [],
      "name": "unpause",
      "outputs": [],
      "stateMutability": "nonpayable",
      "type": "function"
    },
    {
      "inputs": [
        {
          "internalType": "uint64",
          "name": "chainId",
          "type": "uint64"
        },
        {
          "components": [
            {
              "internalType": "bytes32",
              "name": "newSmtRoot",
              "type": "bytes32"
            },
            {
              "internalType": "uint64",
              "name": "endBlockNum",
              "type": "uint64"
            },
            {
              "internalType": "bytes32",
              "name": "endBlockHash",
              "type": "bytes32"
            },
            {
              "internalType": "bytes32",
              "name": "nextChunkMerkleRoot",
              "type": "bytes32"
            },
            {
              "internalType": "bytes32",
              "name": "circuitDigest",
              "type": "bytes32"
            },
            {
              "internalType": "uint256[8]",
              "name": "proof",
              "type": "uint256[8]"
            },
            {
              "internalType": "uint256[2]",
              "name": "commit",
              "type": "uint256[2]"
            },
            {
              "internalType": "uint256[2]",
              "name": "knowledgeProof",
              "type": "uint256[2]"
            }
          ],
          "internalType": "struct ISMT.SmtUpdate",
          "name": "u",
          "type": "tuple"
        }
      ],
      "name": "updateRoot",
      "outputs": [],
      "stateMutability": "nonpayable",
      "type": "function"
    },
    {
      "inputs": [
        {
          "internalType": "uint64",
          "name": "",
          "type": "uint64"
        }
      ],
      "name": "verifiers",
      "outputs": [
        {
          "internalType": "contract IVerifier",
          "name": "",
          "type": "address"
        }
      ],
      "stateMutability": "view",
      "type": "function"
    }
  ],
  "transactionHash": "0xa9a5dd18d8e53684093b2b775acba6d0f226eb8d831402577d437ca4399b960e",
  "args": [
    [
      1
    ],
    [
      "0x9569299A8877Bc155232cF5Aa50AF42F9Fc32C7C"
    ],
    [
      "0xc7a504C10a1fe213031A1872F0b6d53040217Da0"
    ],
    [
      "0x754023de5458ebe80b59db8a8707d3317d7cbe19b8db8741fa06f531a69dc74a"
    ]
  ],
  "numDeployments": 1,
  "solcInputHash": "28cb4e8ec629a83de11c8d1af30c6cc0",
  "bytecode": "0x604060808152346200039d576200217e90813803806200001f81620003bc565b93843982016080838203126200039d5782516001600160401b0391908281116200039d5784019381601f860112156200039d578451916200006a6200006484620003f8565b620003bc565b908196848352602080930183600596871b830101918383116200039d578401905b828210620003a257505050818301518581116200039d5781620000b091850162000410565b96868401518681116200039d5782620000cb91860162000410565b936060810151908782116200039d57019180601f840112156200039d578251620000f96200006482620003f8565b938580868481520192891b8201019283116200039d5785809101915b8383106200038c575050600080548a519891976001600160a01b0394509250338482167f8be0079c531659141344cd1fd0a4f28419497f9722a3daafe3b4186f6b6457e08a80a36001600160a81b0319163360ff60a01b198116919091178855875260018087528a88205490989060ff166200034a57506002549a680100000000000000008c10156200033657888c01806002558c101562000322578a99899c957f6719d08c1888103bea251a4ed56406bd0c3e69723c8a1686e017e7bbe159b6f8898c9860028d52818d20019d60018060a01b03199e8f3390825416179055338d52898252808d2060ff199a8b82541617905551338152a16200021d81518451146200047e565b6200022c81518651146200047e565b6200023b81518951146200047e565b899d5b62000253575b8c51611c989081620004e68239f35b8d815111156200031c578d808e8e8c828f8c8c878d838e8e620002788f8690620004ba565b51169c6200028691620004ba565b5116908b865287528585209088825416179055620002a491620004ba565b51169287825260069052209182541617905560078c52818d8c83822092620002cc91620004ba565b5190528c528c208d8a825416179055620002e7908a620004ba565b51908b5260088a528d8b20556000198e1462000308579c8a019c8a6200023e565b634e487b7160e01b8a52601160045260248afd5b62000244565b634e487b7160e01b88526032600452602488fd5b634e487b7160e01b88526041600452602488fd5b62461bcd60e51b815260048101879052601960248201527f4163636f756e7420697320616c726561647920706175736572000000000000006044820152606490fd5b825181529181019186910162000115565b600080fd5b815188811681036200039d5781529084019084016200008b565b6040519190601f01601f191682016001600160401b03811183821017620003e257604052565b634e487b7160e01b600052604160045260246000fd5b6001600160401b038111620003e25760051b60200190565b9080601f830112156200039d578151906200042f6200006483620003f8565b9182938184526020808095019260051b8201019283116200039d578301905b8282106200045d575050505090565b81516001600160a01b03811681036200039d5781529083019083016200044e565b156200048657565b60405162461bcd60e51b815260206004820152600c60248201526b0d8cadc40dad2e6dac2e8c6d60a31b6044820152606490fd5b8051821015620004cf5760209160051b010190565b634e487b7160e01b600052603260045260246000fdfe608080604052600436101561001357600080fd5b60003560e01c9081631019b616146114ec57508063158535ff146114bb578063387025321461146d5780633f4ba83a1461136557806346fbf68e1461098c578063479aa6da146110b85780634f4fef181461134757806358a16b44146113295780635c975abb146113035780635ca32bd814611250578063677625f2146110f35780636ae3e080146110b85780636af2a83b14610a8c5780636b2c0f5514610a555780636ef8d66d14610a3b5780637dd9dc55146109cb57806380f51c121461098c5780638195408d1461094857806382dc1ec4146109115780638456cb59146107f25780638d0ab3b4146107cb5780638da5cb5b146107a4578063930feddb146107275780639c8413c514610674578063a036e79914610624578063afe8154b146105e0578063c9d08880146105a5578063e6c6fcec14610555578063e79b7a511461046f578063ec64842e14610425578063f2fde38b14610347578063fabc74f5146102eb578063fd1190ea146102aa5763fec2fda71461019557600080fd5b346102a55760603660031901126102a5576101ae611535565b6024356101b961154c565b906001600160a01b03600a541633036102605761025b8367ffffffffffffffff7fe8e2da79405f6328030a49e89981740387fc8c731042ec804a6461e796ec6f0b95168060005260076020526040600020846000526020526040600020600160ff19825416179055600052600860205282604060002055604051938493849160409194936060840195845267ffffffffffffffff809216602085015216910152565b0390a1005b60405162461bcd60e51b815260206004820152601460248201527f696e76616c696420726f6f7420757064617465720000000000000000000000006044820152606490fd5b600080fd5b346102a55760203660031901126102a5576004356004548110156102a5576001600160a01b036102db6020926115b0565b9190546040519260031b1c168152f35b346102a55760203660031901126102a5576001600160a01b0361030c6115e7565b16600052600360205260ff604060002054166040516003821015610331576020918152f35b634e487b7160e01b600052602160045260246000fd5b346102a55760203660031901126102a5576103606115e7565b600054906001600160a01b038083169161037b3384146116ee565b169182156103ba576001600160a01b0319839116176000557f8be0079c531659141344cd1fd0a4f28419497f9722a3daafe3b4186f6b6457e0600080a3005b60405162461bcd60e51b815260206004820152602660248201527f4f776e61626c653a206e6577206f776e657220697320746865207a65726f206160448201527f64647265737300000000000000000000000000000000000000000000000000006064820152608490fd5b346102a55760203660031901126102a5576001600160a01b036104466115e7565b16600052600360205260ff60406000205416600381101561033157602090600160405191148152f35b346102a5576020806003193601126102a55767ffffffffffffffff6004358181116102a557366023820112156102a557806004013591821161053f578160051b604051926104bf85830185611643565b8352602484840191830101913683116102a557602401905b82821061052857836001600160a01b03906104f7826000541633146116ee565b60005b8151811015610526578061051c84610515610521948661175e565b5116611996565b611739565b6104fa565b005b84809161053484611613565b8152019101906104d7565b634e487b7160e01b600052604160045260246000fd5b346102a55761056336611665565b6001600160a01b039061057b826000541633146116ee565b60005b8151811015610526578061051c846105996105a0948661175e565b51166117be565b61057e565b346102a55760203660031901126102a55767ffffffffffffffff6105c7611535565b1660005260096020526020604060002054604051908152f35b346102a55760203660031901126102a55767ffffffffffffffff610602611535565b16600052600560205260206001600160a01b0360406000205416604051908152f35b346102a55761063236611665565b6001600160a01b039061064a826000541633146116ee565b60005b8151811015610526578061051c8461066861066f948661175e565b5116611a7c565b61064d565b346102a55760403660031901126102a5577fb78ea0eaf11776732556ef6189312ceb60eab6b3177526b3a12d966e37be81626106ae611535565b6106b66115fd565b906001600160a01b036106ce816000541633146116ee565b67ffffffffffffffff8216600052600660205260406000209083166001600160a01b031982541617905561025b604051928392839092916001600160a01b0360209167ffffffffffffffff604085019616845216910152565b346102a55760403660031901126102a5577f3700cf839c32337bc733cb5ff719565d7b661f5e2424d2af4bc4332f56451a766040610763611535565b67ffffffffffffffff602435916107866001600160a01b036000541633146116ee565b169081600052600960205280836000205582519182526020820152a1005b346102a55760003660031901126102a55760206001600160a01b0360005416604051908152f35b346102a55760003660031901126102a55760206001600160a01b03600a5416604051908152f35b346102a55760003660031901126102a55733600052600160209080825261082060ff60406000205416611772565b60005460ff8160a01c166108cc5760ff60a01b19740100000000000000000000000000000000000000009116176000557f62e78cea01bee320cd4e420270b5ea74000d11b0c9f74754ebdbfc544b05a25882604051338152a16000815b61088357005b60045481101561052657806001600160a01b036108a26108c6936115b0565b919054600392831b1c1660005284526040600020600260ff19825416179055611739565b8161087d565b60405162461bcd60e51b815260048101849052601060248201527f5061757361626c653a20706175736564000000000000000000000000000000006044820152606490fd5b346102a55760203660031901126102a55761052661092d6115e7565b6109436001600160a01b036000541633146116ee565b611996565b346102a55760203660031901126102a55767ffffffffffffffff61096a611535565b16600052600660205260206001600160a01b0360406000205416604051908152f35b346102a55760203660031901126102a5576001600160a01b036109ad6115e7565b166000526001602052602060ff604060002054166040519015158152f35b346102a55760203660031901126102a5577f80e49ace4205027ba0e838addddde0587d83686f5d55bcf78030c1c576b272d66020610a076115e7565b6001600160a01b0390610a1f826000541633146116ee565b16806001600160a01b0319600a541617600a55604051908152a1005b346102a55760003660031901126102a55761052633611a7c565b346102a55760203660031901126102a557610526610a716115e7565b610a876001600160a01b036000541633146116ee565b611a7c565b346102a5576102403660031901126102a557610aa6611535565b6102203660231901126102a55760405190610100820182811067ffffffffffffffff82111761053f576040526024358252610adf61154c565b60208301526064356040830152608435606083015260a43560808301523660e312156102a557604051610100810181811067ffffffffffffffff82111761053f57604052806101c4913683116102a55760c4905b8382106110a857505060a0840152366101e312156102a55760405190610b5882611627565b819036610204116102a557905b610204821061109857505060c08301523661022312156102a557604051610b8b81611627565b8036610244116102a557610204905b610244821061108857505060e083015233600052600360205260ff6040600020541660038110156103315760010361104357606082015115610f1b575b67ffffffffffffffff8116600052600860205260406000205460066020526001600160a01b03604060002054168015610ed65767ffffffffffffffff83166000526009602052604060002054608085015103610e9157604051918261012081011067ffffffffffffffff6101208501111761053f576101208301604052610120368437604085015160801c83526fffffffffffffffffffffffffffffffff8091816040880151166020860152865160801c60408601528187511660608601528060801c60808601521660a0840152606085015160801c60c084015260608501511660e0830152608084015161010083015260a084015160c08501519260e0860151604051948593633072c1a360e11b8552600485016000905b60088210610e775750505090610d0e610d1992610104860190611c3a565b610144840190611c3a565b600061018483015b60098210610e5d575050506102a4816020935afa908115610e5157600091610e16575b5015610dd15767ffffffffffffffff9081166000818152600760209081526040808320865184528252808320805460ff191660011790558551848452600883529281902092909255845194810151825195865290931692840192909252908201527fe8e2da79405f6328030a49e89981740387fc8c731042ec804a6461e796ec6f0b90806060810161025b565b60405162461bcd60e51b815260206004820152601060248201527f696e76616c6964207a6b2070726f6f66000000000000000000000000000000006044820152606490fd5b90506020813d602011610e49575b81610e3160209383611643565b810103126102a5575180151581036102a55783610d44565b3d9150610e24565b6040513d6000823e3d90fd5b829350602080916001939451815201930191018492610d21565b825181528896506020928301926001929092019101610cf0565b60405162461bcd60e51b815260206004820152601860248201527f6e6f742076616c696420636972637569742064696765737400000000000000006044820152606490fd5b60405162461bcd60e51b815260206004820152601760248201527f6e6f20766572696669657220666f7220636861696e49640000000000000000006044820152606490fd5b67ffffffffffffffff811660005260056020526001600160a01b03604060002054168015610ffe57602067ffffffffffffffff818501511660246040518094819363f25b3f9960e01b835260048301525afa908115610e5157600091610fcc575b50604083015114610bd75760405162461bcd60e51b815260206004820152601360248201527f616e63686f7220636865636b206661696c6564000000000000000000000000006044820152606490fd5b90506020813d602011610ff6575b81610fe760209383611643565b810103126102a5575183610f7c565b3d9150610fda565b60405162461bcd60e51b815260206004820152601760248201527f756e6b6e6f776e20616e63686f722070726f76696465720000000000000000006044820152606490fd5b60405162461bcd60e51b815260206004820152600e60248201527f696e76616c69642070726f7665720000000000000000000000000000000000006044820152606490fd5b8135815260209182019101610b9a565b8135815260209182019101610b65565b8135815260209182019101610b33565b346102a55760203660031901126102a55767ffffffffffffffff6110da611535565b1660005260086020526020604060002054604051908152f35b346102a55761110136611665565b600054906001600160a01b039161111b33848316146116ee565b60ff9060a01c811615611248576002925b60005b83518110156105265781611143828661175e565b511690816000526003602081815285604060002054168281101561033157611204576004546801000000000000000081101561053f578461118d8260016111ad94016004556115b0565b90919082549060031b916001600160a01b03809116831b921b1916179055565b83600052818152604060002091881015610331576111ff937fef1fa0a4d797341645c201a742cf59be633da0589e0e3cda511cfc90cd0396849260ff19815416888b16179055604051908152a1611739565b61112f565b6064906040519062461bcd60e51b82526004820152601160248201527f6163636f756e742069732070726f7665720000000000000000000000000000006044820152fd5b60019261112c565b346102a55760403660031901126102a5577fd621c244f07f12e1f37bb9c40d61e278041fc4f2859a6736794b26f4297c809061128a611535565b6112926115fd565b906001600160a01b036112aa816000541633146116ee565b67ffffffffffffffff8216600052600560205260406000209083166001600160a01b031982541617905561025b604051928392839092916001600160a01b0360209167ffffffffffffffff604085019616845216910152565b346102a55760003660031901126102a557602060ff60005460a01c166040519015158152f35b346102a55760003660031901126102a5576020600254604051908152f35b346102a55760003660031901126102a5576020600454604051908152f35b346102a55760003660031901126102a55733600052600160209080825261139360ff60406000205416611772565b60005460ff8160a01c16156114285760ff60a01b19166000557f5db9ee0a495bf2e6ff9c91a7834c1ba4fdd244a5e8aa4e537bd38aeae4b073aa82604051338152a16000815b6113df57005b60045481101561052657611422816001600160a01b036113ff85946115b0565b919054600392831b1c16600052855260406000208360ff19825416179055611739565b906113d9565b60405162461bcd60e51b815260048101849052601460248201527f5061757361626c653a206e6f74207061757365640000000000000000000000006044820152606490fd5b346102a55760403660031901126102a55767ffffffffffffffff61148f611535565b1660005260076020526040600020602435600052602052602060ff604060002054166040519015158152f35b346102a55760203660031901126102a5576004356002548110156102a5576001600160a01b036102db602092611563565b346102a55760403660031901126102a55760209067ffffffffffffffff611511611535565b16600052600782526040600020602435600052825260ff6040600020541615158152f35b6004359067ffffffffffffffff821682036102a557565b6044359067ffffffffffffffff821682036102a557565b60025481101561159a5760026000527f405787fa12a823e0f2b7631cc41b3ba8828b3321ca811111fa75cd3aa3bb5ace0190600090565b634e487b7160e01b600052603260045260246000fd5b60045481101561159a5760046000527f8a35acfbc15ff81a39ae7d344fd709f28e8600b4aa8c65c6b64bfe7fe36bd19b0190600090565b600435906001600160a01b03821682036102a557565b602435906001600160a01b03821682036102a557565b35906001600160a01b03821682036102a557565b6040810190811067ffffffffffffffff82111761053f57604052565b90601f8019910116810190811067ffffffffffffffff82111761053f57604052565b6020806003198301126102a55767ffffffffffffffff916004358381116102a557816023820112156102a557806004013593841161053f578360051b90604051946116b285840187611643565b85526024848601928201019283116102a557602401905b8282106116d7575050505090565b8380916116e384611613565b8152019101906116c9565b156116f557565b606460405162461bcd60e51b815260206004820152602060248201527f4f776e61626c653a2063616c6c6572206973206e6f7420746865206f776e65726044820152fd5b60001981146117485760010190565b634e487b7160e01b600052601160045260246000fd5b805182101561159a5760209160051b010190565b1561177957565b60405162461bcd60e51b815260206004820152601460248201527f43616c6c6572206973206e6f74207061757365720000000000000000000000006044820152606490fd5b6001600160a01b0380911691600083815260039360209185835260409060ff828220541687811015611982571561193e576004968754966000199081890198891161192b57835b8a548110156118e8578682611819836115b0565b905490871b1c16146118335761182e90611739565b611805565b9091929394959697988082106118c3575b505050875480156118b05797849392917fd64d11086d859b73cf85a91ca06cbc484398acabe3d9a1b26d4366dff377d9859899019061189a611885836115b0565b6001600160a01b0382549160031b1b19169055565b55848252855220805460ff1916905551908152a1565b634e487b7160e01b845260318952602484fd5b6118e0926118d361118d926115b0565b905490871b1c16916115b0565b388080611844565b855162461bcd60e51b8152808c01899052601060248201527f70726f766572206e6f7420666f756e64000000000000000000000000000000006044820152606490fd5b634e487b7160e01b845260118a52602484fd5b815162461bcd60e51b815260048101859052601560248201527f6163636f756e74206973206e6f742070726f76657200000000000000000000006044820152606490fd5b634e487b7160e01b82526021600452602482fd5b6001600160a01b03811690600090828252600160205260ff604083205416611a375760025468010000000000000000811015611a2357602092611a077f6719d08c1888103bea251a4ed56406bd0c3e69723c8a1686e017e7bbe159b6f8959361118d84600160409601600255611563565b8281526001845220600160ff19825416179055604051908152a1565b634e487b7160e01b83526041600452602483fd5b60405162461bcd60e51b815260206004820152601960248201527f4163636f756e7420697320616c726561647920706175736572000000000000006044820152606490fd5b6001600160a01b038091169060009282845260019060209382855260409360ff858820541615611bf65760028054909160001991828101908111611be257908695949392918a975b611b0d575b885162461bcd60e51b8152600481018b9052601060248201527f706175736572206e6f7420666f756e64000000000000000000000000000000006044820152606490fd5b8399989799548a1015611bd9578185611b258c611563565b929054600393841b1c1614611b4e5750611b458798999a97959697611739565b97969594611ac4565b9293949796959991818310611bb4575b5050505081548015611ba057918493917fcd265ebaf09df2871cc7bd4133404a235ba12eff2041bb89d9c714a2621c7c7e989993019061189a61188583611563565b634e487b7160e01b89526031600452602489fd5b611bd093611bc461118d93611563565b9054911b1c1691611563565b38808080611b5e565b87989950611ac9565b634e487b7160e01b8a52601160045260248afd5b845162461bcd60e51b815260048101879052601560248201527f4163636f756e74206973206e6f742070617573657200000000000000000000006044820152606490fd5b6000915b60028310611c4b57505050565b600190825181526020809101920192019190611c3e56fea2646970667358221220234cc67f58b0fb27f731e55388d883bb5fab7fe0a24a8ef2683e7b424212a18264736f6c63430008140033",
  "devdoc": {
    "events": {
      "Paused(address)": {
        "details": "Emitted when the pause is triggered by `account`."
      },
      "Unpaused(address)": {
        "details": "Emitted when the pause is lifted by `account`."
      }
    },
    "kind": "dev",
    "methods": {
      "owner()": {
        "details": "Returns the address of the current owner."
      },
      "paused()": {
        "details": "Returns true if the contract is paused, and false otherwise."
      },
      "transferOwnership(address)": {
        "details": "Transfers ownership of the contract to a new account (`newOwner`). Can only be called by the current owner."
      }
    },
    "version": 1
  },
  "userdoc": {
    "kind": "user",
    "methods": {},
    "version": 1
  },
  "storageLayout": {
    "storage": [
      {
        "astId": 494,
        "contract": "contracts/smt/SMT.sol:SMT",
        "label": "_owner",
        "offset": 0,
        "slot": "0",
        "type": "t_address"
      },
      {
        "astId": 17,
        "contract": "contracts/smt/SMT.sol:SMT",
        "label": "_paused",
        "offset": 20,
        "slot": "0",
        "type": "t_bool"
      },
      {
        "astId": 608,
        "contract": "contracts/smt/SMT.sol:SMT",
        "label": "pausers",
        "offset": 0,
        "slot": "1",
        "type": "t_mapping(t_address,t_bool)"
      },
      {
        "astId": 611,
        "contract": "contracts/smt/SMT.sol:SMT",
        "label": "pauserList",
        "offset": 0,
        "slot": "2",
        "type": "t_array(t_address)dyn_storage"
      },
      {
        "astId": 181,
        "contract": "contracts/smt/SMT.sol:SMT",
        "label": "proverStates",
        "offset": 0,
        "slot": "3",
        "type": "t_mapping(t_address,t_enum(ProverState)176)"
      },
      {
        "astId": 184,
        "contract": "contracts/smt/SMT.sol:SMT",
        "label": "provers",
        "offset": 0,
        "slot": "4",
        "type": "t_array(t_address)dyn_storage"
      },
      {
        "astId": 916,
        "contract": "contracts/smt/SMT.sol:SMT",
        "label": "anchorProviders",
        "offset": 0,
        "slot": "5",
        "type": "t_mapping(t_uint64,t_contract(IAnchorBlocks)167)"
      },
      {
        "astId": 921,
        "contract": "contracts/smt/SMT.sol:SMT",
        "label": "verifiers",
        "offset": 0,
        "slot": "6",
        "type": "t_mapping(t_uint64,t_contract(IVerifier)1484)"
      },
      {
        "astId": 927,
        "contract": "contracts/smt/SMT.sol:SMT",
        "label": "smtRoots",
        "offset": 0,
        "slot": "7",
        "type": "t_mapping(t_uint64,t_mapping(t_bytes32,t_bool))"
      },
      {
        "astId": 931,
        "contract": "contracts/smt/SMT.sol:SMT",
        "label": "latestRoots",
        "offset": 0,
        "slot": "8",
        "type": "t_mapping(t_uint64,t_bytes32)"
      },
      {
        "astId": 935,
        "contract": "contracts/smt/SMT.sol:SMT",
        "label": "circuitDigests",
        "offset": 0,
        "slot": "9",
        "type": "t_mapping(t_uint64,t_bytes32)"
      },
      {
        "astId": 937,
        "contract": "contracts/smt/SMT.sol:SMT",
        "label": "rootUpdater",
        "offset": 0,
        "slot": "10",
        "type": "t_address"
      }
    ],
    "types": {
      "t_address": {
        "encoding": "inplace",
        "label": "address",
        "numberOfBytes": "20"
      },
      "t_array(t_address)dyn_storage": {
        "base": "t_address",
        "encoding": "dynamic_array",
        "label": "address[]",
        "numberOfBytes": "32"
      },
      "t_bool": {
        "encoding": "inplace",
        "label": "bool",
        "numberOfBytes": "1"
      },
      "t_bytes32": {
        "encoding": "inplace",
        "label": "bytes32",
        "numberOfBytes": "32"
      },
      "t_contract(IAnchorBlocks)167": {
        "encoding": "inplace",
        "label": "contract IAnchorBlocks",
        "numberOfBytes": "20"
      },
      "t_contract(IVerifier)1484": {
        "encoding": "inplace",
        "label": "contract IVerifier",
        "numberOfBytes": "20"
      },
      "t_enum(ProverState)176": {
        "encoding": "inplace",
        "label": "enum BrevisAccess.ProverState",
        "numberOfBytes": "1"
      },
      "t_mapping(t_address,t_bool)": {
        "encoding": "mapping",
        "key": "t_address",
        "label": "mapping(address => bool)",
        "numberOfBytes": "32",
        "value": "t_bool"
      },
      "t_mapping(t_address,t_enum(ProverState)176)": {
        "encoding": "mapping",
        "key": "t_address",
        "label": "mapping(address => enum BrevisAccess.ProverState)",
        "numberOfBytes": "32",
        "value": "t_enum(ProverState)176"
      },
      "t_mapping(t_bytes32,t_bool)": {
        "encoding": "mapping",
        "key": "t_bytes32",
        "label": "mapping(bytes32 => bool)",
        "numberOfBytes": "32",
        "value": "t_bool"
      },
      "t_mapping(t_uint64,t_bytes32)": {
        "encoding": "mapping",
        "key": "t_uint64",
        "label": "mapping(uint64 => bytes32)",
        "numberOfBytes": "32",
        "value": "t_bytes32"
      },
      "t_mapping(t_uint64,t_contract(IAnchorBlocks)167)": {
        "encoding": "mapping",
        "key": "t_uint64",
        "label": "mapping(uint64 => contract IAnchorBlocks)",
        "numberOfBytes": "32",
        "value": "t_contract(IAnchorBlocks)167"
      },
      "t_mapping(t_uint64,t_contract(IVerifier)1484)": {
        "encoding": "mapping",
        "key": "t_uint64",
        "label": "mapping(uint64 => contract IVerifier)",
        "numberOfBytes": "32",
        "value": "t_contract(IVerifier)1484"
      },
      "t_mapping(t_uint64,t_mapping(t_bytes32,t_bool))": {
        "encoding": "mapping",
        "key": "t_uint64",
        "label": "mapping(uint64 => mapping(bytes32 => bool))",
        "numberOfBytes": "32",
        "value": "t_mapping(t_bytes32,t_bool)"
      },
      "t_uint64": {
        "encoding": "inplace",
        "label": "uint64",
        "numberOfBytes": "8"
      }
    }
  }
}